:20000000004000204D7C000001C9011001C9011001C9011001C9011001C9011001C9011095
:1C00200001C9011001C9011001C9011001C9011001C9011001C901103FC9011089
:20003C002DE9F04F0F46BA4C0168E16241688068ADF1140DE060B748A1608047B648E16AA8
:20005C000160A168DFF8E8A24160E168DFF8DC928160B249002FA346C16066D03D68A8688A
:20007C0008B1AF490160E86808B1AE490160AE4C2878207068786070A878BE68A070317818
:20009C00B268E1707368A2602E696360EA6926627968E2620868E06068696062A8697B686B
:2000BC00A062286A9E68206395F8240084F834001EB9002009F00EFB00E066617868C068FE
:2000DC0018B9002009F006FB00E0A0617868006918B9002009F0FEFA00E0E0617868406864
:2000FC0018B9002009F0F6FA00E0206128692062F86881680E6806B9C14EC0494FF00108B8
:20011C004E60C66881F8018036B9002009F0E2FA4D462E68F86801E04D462E60006854467C
:20013C00FB68A0615868E06107E0002009F0D2FA4D462E684FF001085446361DB14936687C
:20015C00621C04F114035020B04710B1286880688047DBF808008047AC4E002781463B4687
:20017C00A94877706946206104223370384608F04FFC0098B0F5801F0CD020B908F08AFEC0
:20019C0003F040FB08E007F0B9FD09F091FD0427778002E008F07EFE04270020A34E2A68B3
:2001BC00A0600346B360906980477060984880F80080002141800A2009F062FDFF210A22AF
:2001DC00A06209F035FFE01CFF21022209F030FF0A2009F055FD8F4E3060306800210A22A5
:2001FC0009F026FF002000F027F9404608F01AF889480188FF2906D1022101807822001D51
:20021C00002109F015FF032000F012F983482B6807705F68002103AA102001ABB847A06A27
:20023C00E1690527401D9DF80C207F1E00F8012BF9D1891EE161DBF80C104846884704F159
:20025C0020002B68626A049040461F69DFF8D08104F120034146B84710B12868806880479B
:20027C00B04608F03BFF5FEA000903D004F064FF4FF0FF39002637E00298216910F8062CAC
:20029C00A0F10C07032A02D171B388472CE0A16A9DF80EC005223046491E11F8013F9C4503
:2002BC0006D0521E00F10100F7D14FF0FF0A01E05FFA80FA2868BAF1FF0F00F1080011D003
:2002DC00387908F079F9B979012904D0022904BF0299887001E0029908700299504609F018
:2002FC00D1F801E0006880472868C3690DF10E0102AA0DF10D0098470028BDD0D8F8000025
:20031C007700C35BB3B9761CF6B2052EF8DB34E06409002041490010F8440020B8A300008E
:20033C00BD9F0000C39F0000080C0020E80E0020380D0020052E20DADBF808008047D8F895
:20035C000010002231F807A0CA53DBF80C108847344850F8262026705146304690470646D4
:20037C00FF202070DBF808008047D8F800107A5A16437E52DBF80C10884708F0AFFE074683
:20039C00B9451AD007B9284FE069B84238BF071CDBF80800804781462868016A206A884708
:2003BC00626A28681E49049B521C6262C6683846B047DBF80C1048468847A7682968606935
:2003DC0014318FB9D8F8000005270026835B33B10969606988472968D8F8000014317F1E43
:2003FC0006F10206F2D103E0096988472968143109684FF0FF30884733E7C0464C0E0020DD
:20041C00B77300004992000005990000DC0E0020BC0B002088180020000A00209818002072
:20043C000D8600002CB200008EC2F52844180020DFF800F0598801102DE9F84FA949AA4A4A
:20045C00AA4D08700821002010600D23A84840F23232017043808280A6480560AC7EA64801
:20047C000470FF2CE97E417008BFFF292A7F82706B7FC370AE7F0671ED7F457114D1FF2A2E
:20049C0008BFFF2B10D1FF2E08BFFF2D0CD19B490A7802704B7843708A788270CB78C370B9
:2004BC000A7902714979417195490278DFF85482DFF854920A70FF2543784B7082788A70EC
:2004DC00C378CB700279914B0A714079487188F8005088F8015088F8025088F8035088F880
:2004FC00045088F80550002089490880D9F83440884960780870227887491A70A078087053
:20051C00A2681079854A411E1170E0788449854A0870E068106008B909F0DCF86069824937
:20053C00086008B909F0D6F8A069DFF800A2CAF8000008B909F0CEF8E0697D49086008B9B3
:20055C0009F0C8F87B4C7C4E207909F099FB3060F0B16079794F09F093FB3860C0B1A07994
:20057C00DFF8DCB109F08CFBCBF8000080B1E07909F086FB7349086050B164490A782078C8
:20059C00921C504380B209F07BFB6F49886018B9BDE8F14F06F084B8316801200871326808
:2005BC0015733068457331688D733068C57331680D7400213068457400203268D172A02293
:2005DC003168487103213068C2800172072032685072002130688172282130680122418246
:2005FC00C2760020316848770022306880F85E200121326811770120316881F85D00012288
:20061C003868027139680D733868457339688D733868C57339680D740021386845740020FD
:20063C003A68D172002239684871386882724FF420703968C88008818A7401213B68D97454
:20065C00DBF800201573DBF800104D73DBF800209573DBF80010CD73DBF8002015740022A4
:20067C00DBF800104D740121DBF80030DA720023DBF800201171DBF800104B71DBF800102F
:20069C00C88008818B720520DBF800209374DBF800102E4AC87410688047DAF800100A6827
:2006BC0005469047DAF8001051F8042F00209047D9F80C101A4B0A881878254902430A80F6
:2006DC002846244A13689847404600F045F800F047F8BDE8F44F034800784FF4005104F0B3
:2006FC001BB800BF6E4F0020044F0020B63F0050604E0020084F00202C4E0020E81200508E
:20071C003C4E0020344E002040B300007B4F00200C4F00206D4F00206B4F0020724F002082
:20073C006C4F0020F04E0020F84E0020FC4E00201C170020340E0020104F0020144F0020DD
:20075C00184F00201C4F0020501800206C090020544F002070090020DFF800F01D6E01108F
:20077C00DFF800F04D7101102DE9F04F09AFADF13C0D08900A92388809911E46ADF8180024
:20079C00101C08BF002000F07581017800274FF0010B401C4FF0FF39B846DA460A9061E18C
:2007BC00252940F056810178401C0A902D2918BFADF8068004D10178ADF806B0401C0A9062
:2007DC0030291CBF4246434604D10178401C5A465B460A902A29CDF800804D4617D1049389
:2007FC0030680A9BCDF80890C01C20F00300001D306050F8044C1978002C009403F10100C9
:20081C000A9018D5ADF806A06442009413E044460AE0600000EBC4004018A0F130040A987B
:20083C0001780094401C0A90302901DB3A29F0DBCDF8089004932E2929D10178401C2A29C9
:20085C000A9011D13168CDF80880C91C21F00301091D316051F8045C002D48BF4546017888
:20087C002B46401C0A9011E0454643460AE0680000EBC5004018A0F130050A9801782B4644
:20089C00401C0A90302901DB3A29F0DB02930AB1224604926C2904D04C2918BFADF80480B7
:2008BC0004D10178ADF804A0401C0A900BA8CDF80C800FAB07906429059300F08280692991
:2008DC007FD0BDF818C075296DD0782969D06F2965D070294ED063293ED0732922D00A981D
:2008FC00401E0A90099801281AD966490C68B5F1FF3F03D0A84288BF6D1C05D86FF0004116
:20091C00814294BF0D1C099D029508A80AA932466B46A04709993F18091A0398099165E036
:20093C00454617E03068C01C20F00300001D306050F8040CBCF1010F014608B94FA0014692
:20095C00079109F0F9F80390B5F1FF3F4FD0A8424DD9039528464AE03068C01C20F003009C
:20097C00001D306010F8040C8DF82C005D46039558463CE0082035680490E81C20F0030080
:20099C00001D306050F8041C082210230FA805F067FF401E079040210170079823E0082323
:2009BC0002E0102300E00A233068C01C20F00300001D306050F8041CAA42BCBF2A1C04921A
:2009DC000DE03068C01C20F00300001D306050F8041CAA42BCBF2A1C04926FF009030FA80D
:2009FC0005F03EFF07900599081A0390009C241ABDF8065000945DB906E008A8202109AAA6
:200A1C0008F074FA7F1C009C641E0094F5D50398401EB0F1FF3F03900FD1BDF8060001280E
:200A3C001CD10098401E009018D408A8202109AA08F05CFA00987F1CF4E70798017809AA70
:200A5C0008A808F053FA0798401C079003987F1CDEE708A809AA08F049FA7F1C0A980178A4
:200A7C00401C0A9000297FF49BAE089808B14146017038460FB0BDE8F08FC046286E756C50
:200A9C006C2900C038B30000BB482DE9F84F0025BA4CB849056094F8E200002800F065819D
:200ABC00012800F02F81B64E02283CD0032840F05C8151F8250CD4F8B8100029A0F5C060F3
:200ADC00C4F8D400B8BF49420028B8BF4042814226DA4FF08057D7F8A4014568B4F8BC00E5
:200AFC0030214FF47F42082300903046A847D7F8A4014568B4F8C00004214FF4F802122341
:200B1C0000903046A847D7F8A401B4F8D070456820214FF440620A2330460097A847012542
:200B3C0084F8D8501CE151F8258C09F04EF92F4600B901273946934F38680028FCD0B1467C
:200B5C00012609F10409D9F82CA03E6009B109F042F9CAF30720C4F8BC0009F036F9AA46AE
:200B7C0000B9B2463B68002BFCD0D9F800B0BAF1000F3E6001D009F02EF9CBF38440C4F806
:200B9C00C00009F022F9AA4600B9B2463B68002BFCD0D9F81C90BAF1000F3E6001D009F08B
:200BBC001AF9C9F38120C4F8D000B8F5C061C4F8B81000F09C8094F8D80068B9C4F8D4109A
:200BDC00D4F8C000C4F8C800D4F8BC70C4F8C470D4F8D030C4F8CC30D4F8D400D4F8BC3025
:200BFC00002854BF02226FF0010204F1C8010F6800EB40008018421000EB927207EBA2004B
:200C1C000860D4F8C810C4F8C43000291CDD1E293CDDD4F8CC0030B93429B4BF15391E219C
:200C3C00C4F8C81025E02A29BABFD4F8C8000B381E20C4F8C800D4F8C4003F28B4BF401CD4
:200C5C003F20C4F8C4001FE0D4F8CC00032812D011F10B0FC6BFD4F8C8000B30301CC4F87D
:200C7C00C800D4F8C4000028C4BF401E051CC4F8C450032508E011F1150FC6BFD4F8C800B7
:200C9C001530301CC4F8C800C4F8CC504FF08057D7F8A401B4F8C43030214FF47F4245681F
:200CBC00374800930823A847D7F8A40104214FF400321123456832480096A847B4F8C8602A
:200CDC00D7F8A40104214FF4F802122345682C480096A847D7F8A40120214FF440620A2380
:200CFC00B4F8CC60456826480096A84701E084F8D85040F2FF50404502D8801C40452FD2D9
:200D1C00082030E051F8251C1F4F4BF2F5204843060A3868C0F3814001280CD11B480068B5
:200D3C000068804707F0ACF909F05BF83111C010484306EBE03694F8E50030B914480068BE
:200D5C0020F07F403618760801E084F8E5501148310C0660012741600F4D8760287808B9E1
:200D7C000B2000E0052084F8E40001F0A1FCBDE8F88FC0462D400C402C500C40500800200E
:200D9C0000A00C4000800C40B43F0050EC010010102009403C600C40FDB100002DE9FE4FCD
:200DBC0005467B48002400680094C00905D37948007810B9202007F08FFD012D40F0E280C3
:200DDC00DFF80092D9F8DC00012840F0D8800220C9F8DC0008F010FD012007F07DFD5FEA91
:200DFC00000805D00120C9F8DC0008F011FDCBE009F00EF9A34602906748684DC0F800B044
:200E1C00A86A016801208847012804D1584605F06DFE012000906248624FC0F800B038683B
:200E3C00112008F0F1FF00B10124102008F0ECFF08B144F002040F2008F0E6FF08B144F0A8
:200E5C0004040B2008F0E0FF20B12868564E016B308888470A2008F0D7FF20B12868534E7A
:200E7C00016B308888475248012606602868816944F0200088474F48066008F0BFFF00F0FC
:200E9C0001010191400814D2286A81684A4888478246BAF1040FF7D0BAF1010F04D1286A29
:200EBC0042684548032190474449086820F003000860584600F058FE2B683868986B80478B
:200EDC00019801280CD0BAF1010F04D1286A42683948314690473949086840F00300086030
:200EFC002F48066028684169204688470B2008F08BFF20B128682C4BC16A188888470A2041
:200F1C0008F082FF20B12868284BC16A18888847274806600322C9F8DC20264BC3F800B03B
:200F3C002868416B204688470128F9D13868042007F0D2FC04461848066038681448006834
:200F5C008009FBD30098012802D1304605F0CEFD08F041FF082007F0BFFC07460298C9F89A
:200F7C00DC6000F031F81648008805F029FB08F04FFC57EA040018BF4FF0FF3804E06FF0E9
:200F9C00040801E06FF001084046BDE8FE8FC04614100940380900200C400940B8010010F6
:200FBC00000222432C200940BAAE0000B6AE000028200860800104430040034024220840C4
:200FDC00F8B1000050080020DFF800F005B30110034808B5416809B10078884708BDC046C7
:040FFC00740B002052
:20100000B41200001810000015AB0110FDB301106DC00110FDAE011099B5011000000000F7
:08102000000000002D0000009B
:20102800B01200003C100000B1C00110A9BF011067C0011069B80110000000000000000035
:041048003000000074
:20104C00B012000060100000BDC00110CDB30110D9BD01106DB3011000000000000000005B
:04106C00310000004F
:20107000000000006C0E002004000000000000000000000020000000E8C9011030000000B0
:2010900028100000740E00200400000000000000000000000C000000D8CA0110180000008B
:2010B0004C1000007C0E002004000000000000000000000024000000F0CA0110180000000F
:2010D00000000000840E00200400000000000000000000001000000018CA01102C0000001B
:2010F00000100000940E0020040000000000000000000000200000006CCA0110240000007F
:20111000FFFFFFFF9C0E00200400000000000000000000002800000090CA0110240000003E
:20113000FFFFFFFFA40E00200400000000000000000000001400000008CB011018000000BD
:20115000FFFFFFFFAC0E002004000000000000000000000058000000B4C90110340000008B
:20117000FFFFFFFFB40E00200400000000000000000000001000000020CB01101800000059
:20119000FFFFFFFFBC0E00200400000000000000000000001C000000B4CA01102400000086
:2011B000FFFFFFFFC40E00200400000000000000000000003800000044CA011028000000AE
:2011D000FFFFFFFFCC0E00200400000000000000000000005400000078C901103C00000023
:0811F000010000002CB3000017
:0411F80001000000F2
:0411FC0000000E00E1
:0412000000000F00DB
:0412040032000000B4
:0412080001000000E1
:04120C00CC0D0020E5
:0412100000020000D8
:0412140000000000D6
:0412180001C90110F7
:04121C0000000000CE
:0412200000000000CA
:0412240008000000BE
:0412280000002200A0
:04122C00400C002052
:0412300000000000BA
:0412340000000000B6
:0412380008000000AA
:04123C008C0D0020F5
:0412400000000000AA
:0412440000000000A6
:04124800080000009A
:04124C00000000009E
:04125000000000009A
:041254000000000096
:041258000000000092
:04125C00010000008D
:04126000D80C002086
:041264000600000080
:041268000100000081
:04126C00280B00202B
:04127000000000007A
:041274000000000076
:041278000002000070
:04127C00000000006E
:02128000290043
:02128200010069
:02128400250043
:02128600300036
:02128800310033
:02128A002D0035
:02128C0001005F
:01128E00015E
:0812900003000000C8B20000D9
:0812980000000000000000004E
:0412A0000000010049
:0412A4000000030043
:0412A80013C401105A
:0412AC00739A000031
:0412B000B812000070
:0412B400B81200006C
:0412B8000000000032
:0412BC00400E0020C0
:0412C000DB9B0000B4
:0412C4002000000006
:0412C80040B2000030
:0412CC00E4B000008A
:0412D00029C101101F
:0412D4004F8D00003A
:0412D800DF8F0000A4
:0412DC00A1C7011095
:0412E000A3C701108F
:0412E4000000000006
:0412E800F9B2000057
:0412EC00F0AE000060
:0412F00008AF000043
:0412F400D8AE000070
:0212F8000200F2
:0212FA000900E9
:0212FC000100EF
:0212FE000000EE
:0113000001EB
:04130400699B0000E1
:041308007D860000DE
:04130C00B592000096
:0413100091890000BF
:04131400B58600009A
:04131800357B000021
:04131C00F55B00007D
:04132000C19D00006B
:04132400A9720000AA
:0413280015C70110D4
:04132C0025C70110C0
:201330002DE9F04FBE4C04F108012046ADF11C0D06F0BCF904F110050021284609F030F8AE
:20135000E560AC4D05F1180005F10C0103F05AFEA949A86008F051FDA84EA8684FF4E02159
:201370003246521E07F016F8A8684FF4E021324607F010F8A24EA8684FF0C0513246521E6D
:2013900007F008F8A8684FF0C051324607F002F806F080FB9B48002168604FF0804005F04C
:2013B00095FE9A4E984D606002224FF47A63082031466870102001F049FA102003224FF446
:2013D0007A63314601F042FA9148A86007F086F90246687800260090022301968D4902961D
:2013F0001020039601F032FA6068314669A30A4607F0C3FD04F11C074FF0030BA0683146C1
:201410004FF040424FF0FF3308F0C6FF051C18D0304604900DF11A0104AA06A807F0E4FA70
:2014300078B9BDF81800102807D120789DF81A10884202D1049801F04DFC049808B108F077
:20145000A3FDE80FDAD3E06808F0A2FF0028D5D1E068054608F098FF854208BF351C02D0B6
:20147000856807F055F9002DA946ECD02888401E00F08680401E40F08980AD780FF2301849
:2014900028093ED3E37894F90200002B3BD1401C41B2627860688A421FDDA170491C324632
:2014B00040A30091022107F068FD94F90200D4F804A007EBC000801C06F048F903465946BD
:2014D0003246504607F059FD606805213246434607F053FD062137A30FE04FF0FF31A170FB
:2014F00043463246022107F048FD606859463246434607F042FD052132A36068324607F0AC
:201510003CFD94F90200690940D3B0F1FF3F3DD1E07880BB0120E070667060680221324644
:201530002BA307F02AFD606859463246434607F024FD606804213246434607F01EFD606867
:201550000521324626A307F018FD606806213246434607F012FD07F0C1F88DF815B08DF893
:2015700016608DF8176005AA2C498DF81400102001F06CF90AE007F0B1F827490246F6E787
:20159000686801F0A7FB686808F0FEFC484607F0BFF858E7424C45204F6273657276657260
:2015B00000C046C044657669636520256400C04600C046C03C2D204E657874204F707469AC
:2015D0006F6E00C0446973636F766572202D3E00446973636F766572696E672E2E2E00C0CD
:2015F00043616E63656C20446973636F76657279202D3E00740B00206D8300000E00058010
:201610000E000010319F0000480500208D88000000B3000049910000658500002159000059
:20163000080200202DE9F84FDFF8C8A20F460446F80B80F01281AA4EDFF89882B80F80F00D
:20165000C380B80880F0B7803809C0F03881082008F0E6FB002840F0A980802008F0E0FB31
:20167000002840F0A380684603F00CFE012803D10098002800F09A8095480078002840F0C0
:20169000958000250124E8B208F03EFA48B1837A3BB1847290F9090004FA00F0C0B206F051
:2016B000CDFE6D1C032DEED345464FF0030905F1AC0085F8109008F097FC8748016800235A
:2016D00098461A46036050F8081C844940F8088C05F1340008F092FC3068006B8047A968C9
:2016F000401A010BA869C1F1FF3282422CBF08444FF0FF30A861287F20B1E868A969B1EB98
:20171000C02F25D907F064FE414600B12146081C1BD0744840F60901018043464380417B40
:2017300004F00F0221F00F010A434273017B03F00F0621F00F0146EA01020273436008F089
:2017500085FA418811F4406FFBD02C774346AB616548016821F0020141F40071016063499D
:2017700041F8049C41F230028A600C6050268E600C604FF4CA628A600C6041F80C4C444615
:201790000460022007F012F8112003F02BF8287818B96868383008F03DFC687F18B16C77FE
:2017B000052007F003F8524868612C7405F0A2FB27F0080783E002F0AFFA45467435286885
:2017D00008B927F002077AE008F012FCB3468146DBF85400016804208847D8B1207CC8B1D7
:2017F000454608352868A8B10646DBF80000E568006B8047801BE060000BE060A84202D2A6
:2018100040194008E06040F6C41181422CBFB0F5FA7FE160484608F0B3FD06F0F3FD90B162
:20183000A56920466FF4807100224FF00073A847464606F16C052868002808BF47F002075A
:2018500001D005F057FB2046646900214FF080630A46A04727F0005731E008F0C9FB5146E1
:201870000E6846B306F1280106C90A234FF0E0450B40154008BF002B1DD106F1280191E850
:20189000300006F1280393E8060006F12803AA43A14383E8060008F073FDB16869B1002D39
:2018B00008BF002C09D030692246B6F93C10B4682B46A04701E008F063FD27F4804727B1E9
:2018D00050463946503008F0ADFBBDE8F88FC046A1100020080F0020141004404D72000062
:2018F0008C0100100C180020000004600C41044075460000880F00202DE9F04F8246DAF8A1
:201910000070DAF804600C465FEA0208ADF11C0D14BF00214FF0FF31DFF84492484608F00F
:2019300042F9002818BF0B2040F01681002590488D4905708B48FC60524608F05FFB317B5E
:20195000272008F05DFBB8F1010F07D06570022007F0C4F8062007F0C1F801E001206070FE
:201970002078012840F2AB80801E012868D9801E012833D9801E012800F2DF8008F038FB1B
:2019900083464FF0805000F5EE77D0F8DC01A378466A009321782846062908BF0120019053
:2019B00001200290A068228AE1686368B0478146584608F0E5FCB9F1000F40F0C080B8F195
:2019D000000F02D007F08AFF02E0504606F070FF002800F0A4803868806A2AE008F008FBEE
:2019F00083464FF0805000F5EE77D0F8DC01012306680093A168A27860682478AC46042C32
:201A100008BF9C466346B0478146584608F0B8FCB9F1000F40F09380B8F1000F02D007F0DF
:201A30005DFF02E0504606F043FF002877D03868406880474D49C1F8B0510D6081467EE02A
:201A500008F0D6FA83464FF0805000F5EE76D0F8DC01E38A87690093E0680190208B0290D2
:201A7000A0780390207D04900121059122782846022A08BF081CE1786268A368B8478146AF
:201A9000584608F07DFCB9F1000F58D1B8F1000F02D007F023FF02E0504606F009FF002804
:201AB0003DD03068006A80475FEA000947D13068C569A168E28A2369E078A847BEE708F02B
:201AD00097FA83464FF0805000F5EE76D0F8DC01E38AC7680093E0680190208B0290A07832
:201AF0000390207D2946049001200590257805B9014608466268A368E178B847814658466B
:201B100008F03EFCB9F1000F19D1B8F1000F02D007F0E4FE02E0504606F0CAFE08B9142052
:201B30001AE03068406980475FEA000907D1306802692169E078904780E74FF0FF39B8F126
:201B5000010F05D0022006F031FE062006F02EFE034808F05FFA484607B0BDE8F08FC046F6
:201B7000800A0020B80A0020E18F000050450240961800202DE9F84FDFF804B20746ABF1E1
:201B90003500DFF8F0810068800880F0E28075480068006880477E490831D1F80090002524
:201BB0004FEA29715FEA995201F101010AD2C0F13E0210F10A0F4FEAE202D8BF0822914282
:201BD000B8BF111C684BD3F87C21C2F30462162AA8BF203A1B68C3F30443162BA8BF203B97
:201BF0009A465218162A05DA12F10A0FB8BF6FF0090200E015225D4B5D4E02F01F0141F4BE
:201C1000F8511980316811F0030F18BF0125C90828BF45F002050FB145F00405434693F922
:201C30000710411A052904DA9979A94208BF99886FD0DFF844E10F28A0F10F0829DB08EB20
:201C50000011A1F1F0084FEA28210091072984BF07210091062988BF06215EF821600424FE
:201C7000774604EB81043C594FEA950CA41BEE0804F0FF0124BFC4F3072631446F08AE08A2
:201C900024BFC4F3074631446E0828BF01EB146104E000214FEA950C6F080091009C5EF841
:201CB00024E05FEA5C060EF0FF0424BFCEF3072634447E0824BFCEF3074634446E0828BFCF
:201CD00004EB1E64009E89B2A8EB06267143803104EB1124AAEB02010029D8BF0121342292
:201CF00009F0FF074A4391B24FF6FF727943B1FBF4F18A4238BF111C802889B2998005DA37
:201D100010F1800FB8BF6FF07F0000E07F20D8719D711A4800681F2918604FF0000008D354
:201D300040F2FF128A4206D24908401C8A42FBD301E01F219980134F0F39090940EAC10084
:201D500047EA0001CBF8FB1F0026CBF8FF6FBDE8F88F0D490D4F434608200F609B1D1870CF
:201D7000BDE8F88FEC0100103C1100506E62084024220840781800209C13005008200940C7
:201D90003500094000E7A48030100940FDFDA400AC3F00502DE9F04F044672488E460168B2
:201DB00094461F46BEF1000FADF13C0D4DD0BCF1000F4AD09EF8002001209040014244D03E
:201DD000BCF80000B0F5C15F32D1DCF81400DCF81860654BDCF81C50DFF890A10B904FF071
:201DF00003080DF128090C9618680D95C0F3036B59F8046FCEB10021351F05200B4655F839
:201E1000042FB2F1FF3F10D0924506D0401E01F1040103F10103F2D107E0052B05DA705843
:201E300020F4702040EA0B407050B8F10108DFD1C4F804E0C4F808C008F0DAF84C4D80460A
:201E5000287820B1404608F09BFA002087E001F021FB4849086840F00200086007A807F019
:201E7000FDFE002605F1D00007AA4349099606F067F9424905F5827007AA06F061F907A812
:201E900007F0BCFEFF20192107AB3D4A089005F1340006F09FF83B4A05F150001A2107ABE8
:201EB00006F098F83849324605F18800134605F0ADFB3649324605F1AC00134605F0A6FB97
:201ED000334A05F120000421334607F0A9F80E2002F042FD05F1740007F0E4FD05F16C0026
:201EF00007F0E0FD2E740523EB60072085F898012E77AE616E772849AE60264A69612B78B7
:201F10001670581C2870404608F03AFAB1461FB9684607F0DBFD6F4638682060388A6082A8
:201F3000012060747B6813B940F6C4130646E3601A48A06126746061F86800B1A061B86861
:201F500000B160614946582204F1200004F0E6F904F13800494606F04BFF6C6020460FB021
:201F7000BDE8F08FD4210840541300500200F844080F0020002009405D9800001944000009
:201F90004D720000AD6C0000C19300004996000099780000901800207546000063570000D8
:201FB0002DE9F0430546880FADF1140DC0F0D6806C4C201D006840688768C668406800B1A6
:201FD0008047002F08BF002E08D007F089FD07B1B84706B1B047644807F00EF8634807F001
:201FF00035FE634A40F60A0CA2F800C000205080117B00F00F0321F00F010B431373506028
:20201000517B4FF0010808F00F0721F00F0147EA01035373AB686E7C58801988A1F6020162
:20203000C9B141F21E07C91B15D041F6E677C91B012920D8597E012E60F38201597606D0DA
:20205000198B21F47C7141F43471198313E0198B60F30911F9E7597C012E60F382015974C9
:2020700005D0198A21F47C7141F4347102E0198A60F309111982D5F80890687461464E46F3
:2020900000E03E46776817B13B889942F9D17260737B00F00F0723F00F031F437773E76E31
:2020B0003FB1FB681B88CF1F9F4224D0891F994221D02F8C07B3686205F12003588095F826
:2020D0002C1000F00F0721F00F010F4385F82C7095F82D1008F00F0721F00F010F4385F85A
:2020F0002D705360517B00F00F0721F00F0147EA0100507300E0A0601E4801688768C568CD
:20211000009110226946406B019720F0784040F0805003901848029503F09EF907F0E0FC4B
:2021300016486061607F80B91548006801684046884701280FD0707B08F00F0120F00F00BB
:20215000014371730F4F676105E005F083FE0028FBD007F05BFF484607F078FD05B0BDE82E
:20217000F083C046080F00200100070601010E040C1800204C130050180000213516000006
:20219000E0010010117400002DE9F04F754F1E46ADF1340D01914FEA960902923D6800902A
:2021B000710809F1020221F0010105EB8200091D0390901805EB80000490501805EB8003D3
:2021D0008018059305EB8000079026F0030000F1080802EB080005EB8003401808938018AB
:2021F00005EB80000990C6F39C008000083002EB4000411805EB800305EB810B0A93891806
:20221000831805EB8104404405EB8303C6F3990105EB80008900069038680B930A01002158
:20223000803204F07BF84849DFF820A109682846AAF1880290470746B94518BF6FF00100EF
:202250007ED128465546394605F1680290470198314607F07DF9002818BF012070D10298E8
:20227000314607F075F9002818BF022068D103980199A84704980299A847009881680598B0
:20229000A847334B0399059A20469946C847012802D1BD0066590EB1032051E02046002120
:2022B000424604F03BF80499059A2046C847012801D166590EB1042042E0274B254D07986C
:2022D00003991E462A46B047089804992A46B047079909980A46B0470A980999079AB0477F
:2022F0001E4D0B9807992A46B04720460021282204F014F81A4B0A990B9A20469946C847E7
:20231000203520462A460146C847089958460A46B04706980021424604F000F8FDB2584626
:20233000002D0CBF0122FAB20021635C455CAB4218BF052004D1491C521EC9B2F5D1002051
:202350000DB0BDE8F08FC0468C4F0020B9DB0010C9DE00106C0D0020F9E00010ACAF000053
:20237000C9E60010884F00202DE9F04FADF1240D079001F08FF85F48007806F015FF5E4D90
:202390000024012806D90C3804D0401E0ED0401E09D006E007F01EFA022804BF01210C1C4A
:2023B00006D0696805E005211F2401E0032107246960524A1068C0F38150012806D152F83D
:2023D0000C0C0127020E07FA02F0044307F036FC05F1440AFF2253464018401E471C28609B
:2023F0007F1E03F8012BFBD1079A1268002602F0FF03FE2B1DD0DDF81CC0964633460EF0EE
:20241000FF07FF2F0ED0B84205D3B94203D80122BA40144201D0022069E016430EF0FF02EB
:202430000AF802305CF804EF5B1C0EF0FF07FE2FE7D1092002F090FA07980121A86005F14D
:20245000280006F0D5FC00274FF0010BB9462846804600F198050BFA07F0044216D10642D9
:2024700004BF07F0FF0141F4C04104D01AF80700079951F82010224801F0D6FBF8B24FF041
:20249000FF3106F075FFC5F8009001E004202860D8F800007F1C2D1D8742DCD904A807F0E2
:2024B000ADFB184C184A2078102104AB059008F10C0005F08FFD684607F0D0FBCDF80C903A
:2024D0006A4660681149029008F1640005F038FE0F4951F80D0C20F4F85040F4005041F82D
:2024F0000D0C0C4FC1F8FFBF4846C7F800B009B0BDE8F08F971800203C070020B43F005092
:20251000007FC767DCB200002D960000257E00000D300940080009402DE9F04F0746ADF1F3
:20253000140D0393002F02920E9801910F9C049000F0B680081C00F0B380101C00F0B080E1
:20255000181C00F0AD800498002800F0A980002C00F0AB80206A002800F0A280564D666ABF
:20257000281D0068002E00F09B80A16A07F004FF40B2002808BF6FF0020700F08D8084F89E
:202590002C002078618800EB80000918143188B2216A88474749086030B92846406807F02B
:2025B000E7FE4FF0FF3777E08B46628823786088DBF8001025789E1800EB010A701800F177
:2025D000040805EB450002EB4306851876186D18C01805F10C098018401800F11005204685
:2025F00005F010FA2078C01C8010CAF800002078C01C8010C8F8000020780836C01C801000
:2026100030602078C01C8010C9F800002078C01C80102860227839460AF1040002F01CFFA4
:202630002278019908F1040002F016FF22780299301D02F011FF2378204641463246FFF7D8
:20265000A3FD071C12D100955046414632464B4607F08AFE47B22278039809F1040102F06B
:20267000FBFE22780498291D02F0F6FE21786288DBF8000001EB81015218002103F04EFE61
:20269000616ADBF8000088470B48406807F070FEF8B2992808BF002784F82C70384606E088
:2026B0001CB16FF0010084F82C006FF0010005B0BDE8F08F884F0020640D00202DE9F84323
:2026D000614C5A4D5A4EDFF870815E4F94F8E4100846401E0B2864D8DFE800F07B2C430637
:2026F0002343062343067664042907D001220A2945F8212C14BF0220032004E0202045F8BB
:20271000210C0120024684F8E200002045F8390C0827C5F8FF7FC5F8F37F45F8392CBDE833
:20273000F883052914BF09200620002784F8E400376075E094F8E170383D0120002FC5F8EC
:202750001B0004BF0620002102D00021F160032084F8E400032045F8010C3160306880085F
:202770005ED294F8E4103348012703290ED00068456800216022052300914046A84794F87A
:20279000E400062814BF0A200720CFE700684568002160220523022000904046A847042012
:2027B000C4E7FEE72548264F0026012506600E203D6002F017F8022005F0F8FF84F8E4505B
:2027D00084F8E360BDE8F883002038600C25786024E04FF08059D9F8A00101682020884743
:2027F0002C3D0F2045F8010C41F61D56C5F80360D9F8A401466800214FF4C0720723022512
:2028100040460095B047D9F8A401C66800214FF4C07207234046B0470120386084F8E4504C
:2028300004F1780007F0DEFBBDE8F88339400C4038600C40A401001000A00C402C500C4019
:2028500004800C4034600C40500800200FB42DE9F04106AF8046ADF1280D07F041FB3E1D5A
:2028700026F00306361D30F0010001D101F025FCCDF81A601420ADF816000025CDF80E505B
:20289000FF248DF818407B68CDF81E3007F068FD064607F025FB30F0010016D006F060FC1A
:2028B00084464D4806212A46483030F80C7F4FB143681B689E4204D0491E02F10102F4D1E3
:2028D00000E0D4B2604607F074F8404605F054FF0146FF2905D0204603220DF11A0303F0CE
:2028F000FDFF07F03DFD06F02BFAA8460746CDF8008007F0F5FA30F0010063D0002F61D066
:2029100041F2883001A906F0B9F8009C002853D107F022FD0199012645187868019B41464C
:202930004FF0005207F038FD00282BD00DF122000DF1230102AA04F03DFBB0B99DF822006D
:2029500003A905F0FFFE38B9029A07F0ABFA00281CBF029C464615D10299684606F0D9F97C
:2029700078684FF0005107F0F3FC0198B0F1FF3FD3D00028D1D007F0EFFC281A02D001997D
:20299000814217D206F020FE07F10805009F06F0E7FB01463FB13A4652F80C0C40B9286849
:2029B00042F80C0C2F60084607F003F8304603E00246F1E70190B0E720B92CB1204607F032
:2029D000E3FA01E001F079FBDDF81A0000680AB0BDE8F04104B07047640900207CB5544A16
:2029F000544813785449002B74D05B1F08D01B1F012B52D99B1E012B6DD99B1E72D08DE01E
:202A10004E494F4B4A8802804E4803608AB3521E34D0521E2DD040F20243D21A26D0521E41
:202A300027D040F2FB33D21A17D04FF44063D21A1FD0521E1AD0521E012A1AD9121F15D09D
:202A5000521E16D0521E11D04FF47E73D21A10D0521E0BD0D21E09D012E041F206424A8074
:202A70008A7B252A0CBF2722521E8A73364901600CE0002006F034FE852005E08F2003E041
:202A9000002006F02DFE842007F05EFCBDE87C402E480078012101F045BE4A88028040F205
:202AB000044082421CBF41F2084082423ED041F60400824211D1264C264A256826480068B0
:202AD0000023CDE9002355F8086F244B0222B0472349088073BD4A880280002006F000FE10
:202AF00085201FE04A880280022A0DD940F20440121A1BD040F6FC70121A05D0083A15D065
:202B10004FF47F70121AE8D1887B801CC2B2B52AA8BF662088730020488073BD002006F086
:202B3000DFFD8420BDE8764007F00EBC73BD00BF6F4F0020504F0020CC4C00209C4C00201D
:202B5000C99F0000204F0020D55A00006E4F0020F04E002002000080EC4E0020598E000041
:202B7000424F00202DE9FF415648017800293ED0052940F09F80544C2068016801F10807E1
:202B9000387810F00F0F1CBF00F00F01062907D000F00F02022A1CBF00F00F0001281FD156
:202BB0000622B91C684606F0BDFE3878474D484EC0F3801800F00F0001283BD1062207F130
:202BD000080102A806F0AEFE3F78FF0902A9384607F0B6FBD0B13068807C022818BF0328BF
:202BF0006ED105F10D0102A805F0A8FF002867D031680120C8720622607940F004006071E3
:202C100002A930680C3006F08DFE13E02878874210D10622691C02A806F01AFC50B1287863
:202C3000617960F38201617106223068691C0C3006F078FE6946404607F082FB00283FD035
:202C500060696946001F07F077FBC8BB2946684607F06EFB3168897CFF281FD01D225043DE
:202C70002E18002918BF02290BD0012918BF032926D12A5C6069711C001F07F055FB10285A
:202C90001ED060696B46F21D3146001F07F048FB06226946F01D06F045FE11E0002918BFCF
:202CB00002290DD16069012342466946001F07F033FB05E0002006F013FD862007F044FBAC
:202CD000BDE8FF816F4F0020D04B0020AC450020144F00202DE9F8430178D02973D10146C4
:202CF000554C887867786568002857D0401E27D00C3868D191F80490082F01F1050862DAC7
:202D1000381C0DD004F11E06054640463146062206F06EFA002856D06D1E06F10806F4D1E8
:202D30004246136804EBC7001C30811C0B6092888A807F1C80F80190FEB26670BDE8F88308
:202D50004F78F7B90026E670C8786070CF78496804F11C00FA0002F07FFB284602211BA3A2
:202D70003246009706F009F9607828B16068032132461BA306F001F94FF0FF303246A07083
:202D90001CE0122F08D00C2F04D01CA303210022284616E01BA3F9E71FA3F7E7C81C04F080
:202DB000D5FC034601210022284606F0E6F86068022100221DA306F0E0F8002260680521B8
:202DD0000BA306F0DAF8BDE8F883C0464465766963657320466F756E6420256400C046C0F9
:202DF0003C2D20546F2053656C65637400C046C0446973636F766572202D3E004552524F2F
:202E10005200C046434F4D4D414E4420444953414C4C4F57454400C0494E56414C4944205C
:202E3000504152414D455445525300C0496E697469616C697A656400080200202DE9FF41D8
:202E500004466668A7680D4607F0D2F83178012903D107F095FA00208EE00121317007F0B2
:202E70008FFA287870706878B07068687060A868B060E868F06028693061287D3075687D88
:202E90007075A87DB075A869B061287F3077687F7077A87F4FF0000843461D4686F8285164
:202EB000B07786F82951C6F82080336375627563B562B56386F82C5086F82D50786801F04B
:202ED0004BFD204602F016FB204602F05FFB60B9386806F03DFA786801F084FC07F088F8D1
:202EF000357007F04DFA2C4645E0684606F086FE0094387B224A0190B9686B4606F17C0097
:202F100005F068F8684606F0A9FE00941D4938696A46029006F1980005F012F9B07830B984
:202F300006F1CC00294605F063FF17483061707830B906F1E800294605F05AFF1348F060F0
:202F5000684606F0D9FF01958DF800501049029406F582700A226B4604F058FBB969FA69F5
:202F700006F13C0006F016FE0A4A06F168000421234606F055F820460090BDE8FF81C0465F
:202F9000A92F000023700000719F0000699F00007D7B00002D9D00002DE9F84F8046D8F8E9
:202FB00008603068D8F80450076CDFF830B14764AB6B6A6C286C17F4F06F1946A0EB020928
:202FD00034D1F8091ED2780974D3B1B196F821205846801D845C601E814294BF1C1C641E89
:202FF0004046214605F067FEA86B001BA86361D105F19800012107F015F84046494606F050
:2030100087F857E00029F8D0404605F054FE95F82D10A86311B900284CD101E00020A8633C
:2030300005F19800012106F0FDFF43E0F80A20D24FF0000A544602E0AB6B5B1EAB6393B121
:203050004046012105F037FE3068446814F00F04C0F804A0F0D0286B401E2863686B401E6A
:203070006863A86BE8B905F19800012106F0DAFF13E0306844680022202904F00F044260F7
:20309000CCBF4FF0200A9A464046514605F013FECAF120008145C8BF81464946404606F02F
:2030B00037F8EC77404604F087FC726A12B1404621469047B8090FD3A96A69B10F46404663
:2030D00005F010FEA86238B996F820205946895C4046C91904F08AFBBDE8F88F74AF000060
:2030F0007CB54E4D044668680E4628B94FF00040002103F0EBFF6860002127A30A4605F030
:203110003CFF204628A3801E04D0801E37D0401E22D00EE06868012E05D000210A4605F0A4
:203130002CFF24A331E000210A4605F026FF26A32BE0686800210A4605F01FFF68680221D6
:20315000002227A305F019FF01208DF801009DF801000028FBD17CBD686800210A4605F0C6
:203170000CFF68680221002223A305F006FF01208DF800009DF800000028FBD17CBD686827
:2031900000210A4605F0F9FE1FA368680221002205F0F3FE7CBDC0463E3E3E535441434B96
:2031B00020415353455254002A2A2A4552524F522A2A2A003E3E20494E5445524E414C206E
:2031D0004552524F522100C03E3E20494E5445524E414C204657204552524F522100C046ED
:2031F0003E3E2044454641554C54205350494E4C4F434B2100C046C03E3E204943414C4CB3
:203210002041424F525421003E3E204F5554204F46204D454D4F52592100C0460802002052
:2032300078B50D46E80787B00BD506F027FD28B1002181603C48006800B1804785F0010029
:2032500070E0E80413D53948C11D0D3007F060F837484268374800784FF4805104F076FDB4
:2032700010B18E2002F05EFF85F480505AE0A80505D506F0B0FD304901200860FEE768057F
:2032900004D501F0C8FD85F480604BE0680405D5812002F047FF85F4804043E0A90440D5CE
:2032B000264C206810B1002006F01AFA244E4FF0FF30206007F028F83168224C51F8202F03
:2032D000684690472049214B486A8A6A009001920293C86A0268086A0392ADF810000A6B59
:2032F0001178002904BF5068002805D19068002804BFD068002806D0217050686060916878
:20331000A160D068E06021463468114A266811486B46B0471049086000F0A6FF85F4005018
:2033300000E0002008B070BD204F0020AC450020784E00206E4F0020FC002043044F002063
:20335000F04E002068450020080C00207D9C00002C4D002020170020EC4E00202DE9FC4742
:2033700005466E68D5F8088037780FB1B76B1FB14FF0FF30BDE8FC8731630024F477171C7A
:2033900074631BD006F13C0906F032FE82466946484604F03EFE00281ED4504606F0F0FF2F
:2033B0009DF80000316B0870306B736B7F1E00F10100306303F101007063E5D17078726B76
:2033D000316B0128A1EB0201316303D1F36828469847726B144659E0B763D8F80010086B9C
:2033F00040F400700863D8F80010886B40F4FA608863504606F0C4FF06F5947006F078F8AE
:20341000707806F5947768BB06F0F2FD96F82D1069B1716B59B1B16B49B1B46306F0B0FF09
:2034300006F5947006F054F8706BBDE8FC8706F0A7FF716806F1E805284606F0B4FB0028A4
:20345000F2D0B4632846214606F0ADFB0028EBD0384606F03DF81027716B306BF777401A0E
:203470003063E1E706F0C4FD96F82D1061B1716B51B1B16B41B1B46306F082FF06F1980044
:20349000012106F0CFFD01E006F07AFF2046BDE8FC8770472DE9FF47484C94F8E700002818
:2034B00076D13E4E01273C48F57C84F8E770736884F8E6500068C4F81031C0F3801084F888
:2034D000E800684606F018FD002504F10C0001956B468DF80050324902952A4604F096F8F5
:2034F000304904F130006B462A4604F08FF82E4904F154006B4681462A4604F087F8B1684E
:2035100038468847DFF8B0802848327D08F104030078284E1868C0F3815A22B1BAF1030F9C
:2035300004D184F8E170BAF1030F17D0BAF1020F14D0BAF1010F0ED0022005F0CFFA1C48B8
:203550000068016804208847012804D030683221B1FBF0F10DE004F089FE12E0022005F0B1
:20357000BDFABAF1030F0CBF4FF47A7142F210713068B1FBF0F1484606F032FD484606F0BD
:2035900031FD40460068C00802D2284605F0A6FA00200090BDE8FF8714100940E8B100007F
:2035B0009F630000714F00000D68000097180020E001001084180020B03F00505008002091
:2035D0002DE9F84F5FEA00091C46924600917DD0081C7BD0BAF1000F78D0002C7BD0206AA2
:2035F000002873D03F4D616A281D006800296DD0A16A06F0C1FE40B2002808BF6FF00205DF
:203610005FD084F82C002078618800EB400009180C3188B2216A88473149AB46086030B969
:20363000DBF8040006F0A4FE4FF0FF3549E08846668865882178D8F800008F192D183F1819
:2036500006EB41063618204604F0DCF92078C01C8010286020783F1DC01C80103860207889
:203670000836C01C8010306022784946281D01F0F3FE28463A463346014606F041FE45B2D6
:20369000227800983B1D194601F0E6FE22785046311D01F0E1FE21786288D8F8000001EBCF
:2036B00041015218002102F039FE616AD8F800008847DBF8040006F05BFEE8B2992808BF52
:2036D000002584F82C502846BDE8F88F1CB16FF0010084F82C006FF00100BDE8F88FC046BC
:2036F000884F0020640D00202DE9F041FF2807461ED106F0B3FB10F0070F16D0042004F0D0
:20371000F1FE08B104200AE0012004F0EBFE08B1012004E0022004F0E5FE20B10220BDE896
:20373000F04104F0FBBE05F0DBFF0020BDE8F08104F0F4FE8046012FD8F80450334E04D041
:20375000022F29D0042F3DD0EFE7022004F0CAFE80B1022004F0E2FE074601207C6804F0CE
:20377000C1FE28B1A0683118A86806F0C5FD88B13846DBE7042004F0B5FE28B1042004F053
:20379000CDFE0746012026E0012004F0ABFE08B94FF000084046C9E7042004F0A3FE28B14C
:2037B000042004F0BBFE0746022014E0012004F099FE28B1012004F0B1FE074602200AE023
:2037D0000220E2E7012004F08DFE88B1012004F0A5FE074604207C6804F084FE0028C7D0D3
:2037F000A0683118A86806F087FD0028C0D1D1E7022004F077FE30B1022004F08FFE074611
:2038100004207C68E8E70420BFE700BF589EFFFF2DE9FE4304F0BAFEDFF80481814608F125
:20383000020000880027001F84B2042C5ADBFF254FF6FF7620466946042205F0EFF8BDF863
:2038500000309E4237D0002B35D0D80BC2032FD19D422DD0381FDDB280B2042815DBB0F5B4
:20387000805F12DA00F18852126801A90A60BDF804108D4207D0BDF80610401A001F80B22F
:203890000428ECDA01E0012300E00023BDF802001BBB211A001D8BB282B207F18851184699
:2038B00005F0BCF8BDF80200C119091D8FB214E0BDF8020011E0BDF8020003466FF30E0348
:2038D00063B9011D8C4208DA002005F009FF484605F0F8FE0020BDE8FE83241A241FA4B23B
:2038F000042CA7DA04F010FA3FB10C484FF088513A4606F006FB06F0E1F9484605F0E2FE03
:203910004246507800281CBF0020011C03D1C7F58054391DA0B25180BDE8FE8304E001001F
:20393000DC0E00202DE9F04391460A68D9F800401678804600271D463846ADF1140D242E5D
:2039500002F101020A6058D11678521C4C2E0A600ED1AA68E41C24F00304241D54F8040C45
:20397000414603F0F7FA2968EF600127091A2960462E1AD1E41C24F00304241D54F8040C01
:20399000E41C029024F00304241D54F8040C002741460390AA68ADF8047001A801F0E8F9E6
:2039B0002968EF600127091A2960532E25D1E41C24F00304241D54F8040CE861C9F80040CA
:2039D000288B0090A968EA69D8F800004B46FCF7D1FED8F80040002744B1A9688142D8BF76
:2039F000481ED8F800100918C8F80010D9F800402968EF600127091A2960662E0BD1298B97
:203A1000012904D0E41D24F00704083403E0E41C24F00304241D1FB9E9690E700127EF60DE
:203A3000C9F8004005B0BDE8F08370477CB53F4E3168054600240020E1B12A78012A0BD0D1
:203A50002A7A05F109036946012006F051FC00B104782978042913D03268517803290FD051
:203A7000002908BF002C0BD020B1012904D114F0030F05D1002076BD0229FBD1E007F9D584
:203A90006878A91C03F026FF0400287826D0042814BFA068E06880B32A7A017891420CD170
:203AB00005F10901401C05F0D3FC012805D1232005F008FF002836D0DCE72878042806D005
:203AD000A068D0B106F0F2F80020A06015E0E06898B106F0EBF80020E0600EE00428C9D0DB
:203AF00005F0C8F90400C5D028782070062269786170A01CA91C05F015FF287A401C80B2A3
:203B100006F0C4F860B12978042914BFA060E060297A00F8011B05F109012A7A05F002FFA0
:203B3000287A0028A6D0012076BD00BF984E0020FEB5364C206806F0D7FB002864D00079C2
:203B5000032861D1324D0DF10900A91D019000910DF10A032A4602A90DF10B0000F0BAFCB5
:203B70002C490878D0B19DF80800294606F0E8FBA0B1294E3146284606F0DAFB0746FF2FE7
:203B90000CD01D204743F1190622491C284605F0C9FEF05D40F002008DF808001F480068D6
:203BB000C17C01291FD1807C002818BF022810D11B4E9DF808202946304606F091FB1F28C4
:203BD00011D19DF8082000232946304606F0A4FB09E0012818BF032805D19DF80820114899
:203BF000294606F07DFB9DF909009DF80A300190A91D00912A469DF808109DF80B0006F0CF
:203C10006BFB206806F064FBF7BD00BFD04B0020C4170020784E0020AC450020144F00202E
:203C3000A8480020CC4700202DE9F84F0C4605465FFA84F8200824BF3148444031494FEAA7
:203C50008803C85884EA00022A40C2F300672E4A05EA0406A843324005F4E0260243B6F5F6
:203C7000E02F01D1500E14D305F4E020074310D002F4E027B7F5A02707D0B7F5803704BF7E
:203C900022F4003242F4A02203E022F4803242F4C022DFF878B01E4F012000FA08FACBF8C5
:203CB00000A0DFF87090CA500146386801FA08F60027064218BF0F1C37B9E80D04D34946C7
:203CD000C4F3805001F80800280E0DD306F090F9210E34BF0021311C0D4A1268B24311430D
:203CF0000B4A116006F04CFB37B1E80D04D34846C4F3805100F80810CBF800A0BDE8F88F48
:203D1000006000A000100840007F077FE0200260D0200240002002402DE9F843384C143C1B
:203D3000606F656F04F17409002866D00646F06840F603020827531C02E040687F1EFFB2AB
:203D500060B15FB101888A4218BF8B42F5D131694CC820314CC189C881E8890005F1280006
:203D700090E80C00002705F12806B84686E88001A96879B138464FF0E24100EA020611EA6F
:203D900003070EBF002E02400B40AE682869B5F93C10B04706F02CF90646B4F986004746C2
:203DB000401C6FF31F30A4F88600484685F83F7005F09BFA304606F0E3FAB4F9841060682E
:203DD000B4F986300246994217D192F8701000290CBF0068381C82F8707060B1B0F1FF3F61
:203DF0000BD008490968AC34B0FBF1F1204605F001FEBDE8F88305F01FFCBDE8F883C046F9
:203E10001C0F002084180020F8B505F0E4FF02F0DDFE05F0F9FF054605F00C000C2854D0A8
:203E3000E80826D205F052F82A4E376804460120014605F0ABFB31686143884219D2264986
:203E5000F020B0FBF7F0241A887C18B1C868A04238BF041C214D2146284606F035FA2846A6
:203E700006F02EFA0120FCF79FFF284606F024FA2DE0280929D21A4CA4F120062068816815
:203E9000184888470746042FF8D01748690905D227B101460A6822F0010203E001460A68B1
:203EB00042F001020A6098310A6842F003020A6030688169202088470C4C37682068B86B44
:203ED000804701202060206801E006F081F805F088FFF8BD28B30000E8B100005C08002069
:203EF000D8010010004003408C2108402C2009402DE9F84F374E0446B0688047344D05F13A
:203F10000802116809191160F1688847286800285BD0A9464FF0000807463546C246A8685A
:203F3000804756461FFAA4F3834683B95FFA94F36BB93979E0B2884204DD79682046884255
:203F500009D20AE03879E1B2401A387108E079682046884201D3314601E07968091A796043
:203F7000B88878B9FB8853B9FB6843B13B8933B1B87A194600F0D6FBF8687860B88808B9A7
:203F9000FB880BB13B896BB9B8F1000F04BF3868C9F8000003D03868C8F8000038683E46B7
:203FB000074601E0B8463F68E9685846884756B1B08828B9F08818B9B07A318900F0B2FB76
:203FD000304605F073FE002FA9D1BDE8F88FC04644180020640900202DE9F04707467D6892
:203FF000BE6890468A4606F003F881463068006B00F48071287800B119B1484606F0C0F9ED
:2040100057E005F5827005F0EFFF0024EC77C5F820A06C623168086B40F48070086348468F
:2040300006F0AEF905F2291005F062FA4146384604F058FE05F22919A862A8B9384641465A
:2040500003F0D4FBA878D0B9A96805F1CC0005F0AAFDE8B1AC621020E8773146284601F06A
:20407000E3FF05F2291022E005F0C2FF3268916B41F02001916306F083F9A87810B12046D1
:20409000BDE8F087A96805F1CC0005F08CFD10B9686ABDE8F0873846414603F0A7FB102022
:2040B000AC623146E877284601F0BEFF484605F00FFA4FF0FF30BDE8F087FEE72DE9F843A4
:2040D000DFF8C8800546D8F80000002600285BD02F4F7968387808B1002955D028464DB993
:2040F00005E002018B5CFF2B18BF761C401C3A789042F6DB3006400D083080B205F08AF839
:20411000040005D1082005F085F80446002613257CB3D020207065700121A170E670F0B2C4
:2041300000B304F10809C4F8049000253878854219DAF0B2B8B1796828010A5CFF2A0ED055
:20415000084489F800200622417889F80110761E811C09F1020005F0E5FB09F108096D1C59
:20417000EDB2E3E76060D8F800201078214605F08FF93878002102F051F8D8F8000005F0D9
:2041900095FD0020C8F80000BDE8F183984E0020F40D00202DE9F8430446994690460E1CE3
:2041B00044BF0020011C5AD405F038FF05468021304604F0ABFC071C04D097F83F1031F062
:2041D0007F0106D12846FCF705FF02200021BDE8F8834FF0E0400A2107F1200640EA0909CC
:2041F00041EA080896E8030008EA000019EA010608BF00281CD02846FCF7ECFE07F12000B9
:2042100003C804F1680604F1680508EA000809EA010986E8000395E80C0007F1200696E871
:20423000030007F120059943904385E8030013E00C48B968884202D0B9682166B86004F176
:20425000580080E800032846FCF7C4FE04F138004FF0FF3105F0A7FC683494E80300BDE874
:20427000F883C0460573000038B5244C244B2568186855F8183F00224FF0FF3198472148DF
:20429000214A416B214C88684179117006F010F81F4806F009F806F003F81E490A68002019
:2042B000507103F089FF1C48D02130220023017042708370C370037143718371C37105F05A
:2042D000EBFF1649164B0020087018801B201549154B08804FF4A47214491A80FB20088080
:2042F00040F64800124A13491080FB230B80208005F0CEFF10490020087032BDF04E00209F
:20431000EC4E002040B30000714F00204E4F0020CC470020144F002070180020794F00205D
:20433000524F0020444F0020464F0020484F00204A4F00204C4F00206F4F00202DE9FE4FD8
:20435000894605460CAF97E803001E4601919046009005F04DFE2B4F6FF0010A8346082085
:2043700007F5D07494F83F3033F07F033ED107F1AC0005F039FEB7F98400401C6FF31F302D
:20439000A7F88400C4F80C9084F83E80A660B7F88400009AA08701980223202113430022E7
:2043B00042EA000616482561314004F118061840134686E8030004F1200686E80C006363D6
:2043D000214623634FF0FF36A663802284F83F2007F16C0085F8703004F098FFF86E8442AE
:2043F00001D102F087FDB4F93CA003E0401E04F14004B7D1584605F0C3FF5046BDE8FE8FBD
:20441000FFEFFF9F080F00202DE9FE4FDFF8C08098F8990100284FD0002501212C4698F895
:20443000992101FA04F0104203D1641C032CF6D342E098F899211020A040104218BF0D1C57
:2044500005F0D6FD98F899211121A1408A4388F8992105F095FFE0B205F056FB60B3877AAB
:2044700057B390F9099019490768012D446851F82960019710D0017A02290DD100F1100185
:2044900091E8000C00274FF0805317EA0B0703EA0A0108BF002901D101F086FD012D04D00B
:2044B000009600224FF0006303E000224FF00073009201984946A04798F8990120B108F542
:2044D0008270002105F0AEFDBDE8FE8F94300440080F00202DE9F8430F462F4904460868D0
:2044F00090461D4605F000FF814699F8040003281CBF002005F0F4F899F80860B00900F07A
:204510000100387009F10A0799F80910881F2870C0B22028A4BF002005F0E2F8062017F8AD
:20453000011B08F8011B401EF9D106F00F06062E14D8DFE806F00E040B1310130D000121A1
:204550002170BF1D2A78901F28700CE0032103E00220207007E00421217004E0FF20207020
:20457000002005F0BDF80898002104E017F8012B00F8012B491C2B78CAB29A42F6D3397883
:20459000802918BF81290FBF7F21044A1078091A09980170BDE8F183D04B0020704F002035
:2045B0002DE9F04116468846044605F021FD07462A488325B8F1080F32D8DFE808F0463FA8
:2045D0003C313725150533C00446207CD0B9E06EC0B9316804F1D00005F026FD316804F5B7
:2045F000827005F021FD32E00446207C50B9E06E40B93168192005F003FD31681A2005F0CF
:20461000FFFC24E0002522E0306828B1012807D1802003F013FF1AE0802005F029F816E0A7
:20463000032514E030780E49087010E0316804460C3421600BE03088608208E00120E66867
:20465000607406F16000E06001E030682060384605F096FE2846BDE8F081C046080F00201E
:20467000A010002038B5274C0D46A80839D2E80846D32B4854380068006B8047A060E06EFC
:2046900000280EBF60680069606040681E4900780860022004F022FA112000F05DF901206B
:2046B000207460684168886808B9C86810B1174805F0CCFA1649174D072000230860296823
:2046D00015482B606A686B60144B2A68636140EA02011A20296005F08DFC192005F08AFC6E
:2046F00038BDFFF719FB204600F17401096811B902F000FC38BDD03045F0020105F092FC06
:2047100038BDC046080F0020D021084051000706000004601410044002000040B11F0000E2
:20473000E00100102DE9F843DFF8B0802A4E81460C4639F07F0018D1B9F1050F12DA284DDF
:20475000A86880472349096831F81920144321F81940E9688847306841461431426A0868CA
:20477000904734E00320BDE8F883042004F052FD071C08BF04202BD04FF6FF7038807C8023
:2047900005F0A8FB41468C78A7F10C05FF2802D0896A09184C79FF2C08D1384604F068FE8F
:2047B0003068806880470120BDE8F883484604F07FFE33680146FF20A8721D68002220463A
:2047D0003B46A84718B1384604F052FEEBE70020BDE8F88388180020E80E0020380D002081
:2047F000640900202DE9B043044605F001FC81462748221892F8F010491ECFB2002F82F84C
:20481000F0703FD1254901EB84014A880C78904634F07F0718D1E1090FD24FF0805000F5AB
:20483000DC75D0F8B8018169104688472868416B404688470228F9D11EE000EB8800D0F8C9
:2048500004110020884717E04FF08055D5F8B801016A10468847D5F8B801816A404688475D
:20487000D5F8B801016B404688470A4901200860094908688008FCD304F03F00132801DAA3
:20489000FFF7B0FF484605F07BFD0020BDE8B0835008002028200860282008408CAE00007E
:2048B000294838B5001D0468B4F1FF3F08BF002404F05CFA032833D12448254B0025012197
:2048D0001038184A056003F15C00224B0160181D00681160806C80471348006820B11348EB
:2048F0000068204601F0A6F8114812490560124C0A686FF35B4244EA020008600F49086803
:20491000C0F30130012806D10A680D48104040F400320A6008600B4908680028FCD138BDA6
:20493000FEE7C0460822044380012843000120438C21084048200340000039010400094094
:20495000FFFFFCFC0C006842181300509404604200600C40EC010010F8B5064605F048FB0C
:20497000264D0746711991F8F000421C002881F8F0203ED1224C04EB8604267806F03F008C
:20499000132801DAFFF7E8FF648836F07F0018D1F0090FD24FF0805000F5DC75D0F8B801EA
:2049B0004169204688472868416B204688470128F9D11EE005EB8405D5F80411012088475B
:2049D00017E04FF08055D5F8B801C16920468847D5F8B801416A20468847D5F8B801C16AC0
:2049F00020468847074901200860074908688008FCD3384605F0C4FC0020F8BD5008002002
:204A10008CAE0000282008602820084030B52648244908602548ADF1140DFDF7A5FC2448B7
:204A30000468244800680023D9070246206050080143D007801A4FF47A729941002300F032
:204A50003DFE002908BFB0F1004F28BF6FF000406060194C0025032004F1240141F80C5F7A
:204A7000401E8D60FAD104F154010620401E21F80C5BFBD101F072FD626810480392416836
:204A900001910368009381680291684602F0A2F903F0DEFA03F036FB05F0F6FB284605B0C7
:204AB00030BDC046E00E0020F130000060AE0000300E002028B3000064090020D0B100006F
:204AD0002DE9F04114460F4605F0DAFB1FFA80F824480068007808B904F010FE0FB3386804
:204AF0004FF0FF3518B140280AD3810B08D17E681EB1310A04D0310E02D1B9680F2908D9B0
:204B10003DB10CB1284620700820FFF76BFE002422E04FF08055D5F8CC11BA680B687968FB
:204B300008E04FF08055D5F8CC01036801224FF48070014698470C49012008600B4905F5BC
:204B5000E67508684008FCD328684168022088470CB1002121700446404605F011FC204692
:204B7000BDE8F0813CAE0000A8025042088002402DE9FF41284B4768866814460D4601A863
:204B90001A68998802609B798180A5428371A8BF2C1CB168786805F006F878BB4FF00008FB
:204BB000CDF80080F068318A6D1C16A22B4604F0EBFDA41C0246AC4213D9641BF06801A99C
:204BD0000B688018036089888180308A921D801A082804D23868F16805F0B1F94246641E9A
:204BF000ECD1F0680BA10988801801803868F168921C05F0A4F9786805F00CFA0090BDE8F1
:204C1000FF81C0461B371B5B3130721B5B25643B256448001B3800C0ECB200002DE9F84F4A
:204C30001F468B46161C14BF4FF080484FF0005805F0DEF9DFF884A0002503248146BBF105
:204C5000FF3F06D15046C36F002B0CBFC06EC06F03E05846294603F059FF40B390F83F40DF
:204C700034F07F0422D05446E16F81420DD001463A4602F0A1FCC8B1207C012814D004F194
:204C9000D000022105F0CEF90EE043462A4603F01BFA002E14BF0A480A4804F0ADF91FB157
:204CB000E16E3A4602F088FC832400E00424484605F066FB2046BDE8F88FC046080F00203D
:204CD00001000204010001042DE9F0410646B76875688846ADF1280D684604F0C3FD002401
:204CF0008DF8014078680690012004F097F86860686840B103F0CEF83878694603F0EAF84E
:204D10002860286808B9264617E00421224605F011F998F80000401E08D0401E04D0401E65
:204D300014BF201C07A002E008A000E009A0A86028680AA1122205F002F930460AB0BDE85E
:204D5000F081C0461B5B324B00C046C01B5B304B00C046C01B5B314B00C046C01B631B5BB0
:204D7000324A1B5B3130721B5B31313B314800002DE9F843002A8946074604D4B2F5004F6D
:204D9000B8BF95B201DB47F6FF75002F08BF002034D03888002808BF002403D02A4601F097
:204DB00031FB84B2AC4228D0388830B1291B484613A202F0EDFF001984B2B868E8B17E68A7
:204DD0008EB1304604F0BEFEA5EB0408401D1FFA88F1884207D833464146484609A202F0FF
:204DF000D7FF001984B2291B122906D3BB68484606A202F0CDFF001984B22046BDE8F8833A
:204E10003A2000C0222573222C2000C06C696E652025643A200070472DE9F047DFF898A0C2
:204E3000DFF89080002501244FF002091126E8B204F06AFE071C37D0B87A012834D197F9A0
:204E50000900AAF11401113004FA00F0C2430A604A681043486097F9090004FA00F0C0B245
:204E700004F006FC07F11000002103F0ABFF0146812909D1B86918B1002103F0A3FF0146B4
:204E9000812908BF87F80A9081290DD008F2991197F909000A7806FA00F01043087008F57A
:204EB0008270002105F0BEF86D1C032DBFD3BDE8F087C046080F00201C1004402DE9F041C9
:204ED000904606460F1C08BF05243FD036F07F0003D02248006880688047052EA8BF0324BC
:204EF00007DA57F80C0C18B917F8020CFF2804D00524384604F0BCFA28E007F8026C154C4A
:204F1000154DA068B8F1010F13D080470246002047F80C0CA868002808BFAF6005D00146CB
:204F300051F80C0C18B941F80C7C104606E00146F6E78047A96847F80C1CAF60E1688847A8
:204F500030464FF40041FFF7EDFB00242046BDE8F081C04664090020380D0020E80E0020BB
:204F70002DE9F04105F044F8244D214E804605F1E000007848B93446A168022088470746F3
:204F9000102003F0AFFC77B31BE004F03DFFC0091BD21B483C380068C468164834210122E7
:204FB0000023A04788B101F005FD34460020A16885F8E000022088470746102003F092FCBC
:204FD0008FB1A168032088470DE00B4800683221B1FBF0F101B901213035284605F000F862
:204FF000284604F0FFFF404605F0CAF9BDE8F081E8B1000000A00C40841800205008002034
:20501000E00100102DE9F0410E46071C14BF002E002040D0224C4FF0FF3104F128008046E0
:2050300004F0C1FD3078FE2811D022680021FF2808D082422AD31F2828DA04EB8000D0F814
:2050500098501DBB491C16F82100FE28EFD1002038607860B8603078FE2818D00125FF285B
:205070000FD01F280DDA7B6804EB800105FA00F0C1F898701843094978603268384603F080
:2050900089F916F8040FFE28E9D100E00027404604F0C0FF3846BDE8F081C046007FC767F6
:2050B0003C070020F0B520480127F84201D002F037FC204D204F214EBD4206D203CD0478AA
:2050D000A4003459401CA047F6E71D48002800D08047164D164FBD4202D210CDA047FAE70B
:2050F000F0BD03251BE0416808300A1C2A400BD11A1C2A40AB4305D0046804300C600431DF
:20511000043BF9D1131C05D0047801300C700131013BF9D1021C2A4001D0A843043003682E
:20513000002BE0D17047C046FFFFFFFF00000000000000008CB60000F4B6000044B60000E4
:2051500015C4011022482DE9F0410068806980472049234D0F686E68B7F57A7F17D00021B9
:20517000801B3A4688460B4604F0E8FB4FF47A72002300F0A3FA04464FF47A72002304F09F
:20519000DDFB3A46434600F099FA301800E0841B6860124D05F10800006880470E4E31688B
:2051B00072680919B1F57A7F0AD34FF47A73B1FBF3F7D2197260B1FBF3F707FB03F2891AB4
:2051D0003160E96888472046FEF792FEBDE8F081E80E0020500D0020540E0020640900206B
:2051F000441800202DE9FC4792460D46826844689168D768B2F810806068994604F0D3FC2D
:205210000028504632D1FF2D10D0401CA8F102016B1C009016A2384604F0B6FA0646A06874
:2052300028B10168F019361D016000E000260A9BA8EB0601F0194A46891E04F0F7FEFF2DC5
:20525000064406D10D22701C0A21BA55461C395404E00BA00188F519B61C29802068394691
:20527000324604F06CFE606804F0D4FEBDE8FC871B371B5B3130721B5B25643B25644800EC
:205290001B3800002DE9F84F81460020C9F80000684601F0A5FF204FDFF880A000264FF098
:2052B000FF354FF0190B34468046E0B204F02CFCB8B1837AABB1017A0126022915D0796804
:2052D0004A8A4069C968891897F89A210BFB021103F062FD51460968B0FBF1F0854288BF18
:2052F000051C641C032CE0D300E00025B8F1000F04D0012E05D0B8F1010F05D0012E04D0F5
:2053100005E00098854200D9009DC9F8005046EA0806F0B2BDE8F88F080F002084180020B3
:205330002DE9FE4F214C80460CAF1E460192A0683D7800918047A146B8F1000F029005D1F9
:20535000D9F80C1088470220BDE8FE8F184800274FF00F0B4FF0010A041F54F8080FD8B9EC
:20537000012D0CBF134B144B1148019A008897FBFBF140180AFA07F1C0B2984760B9009817
:20539000C4F80080606006B13770D9F80C10029888470020BDE8FE8F7F1C0F2FDDDBD9F899
:2053B0000C10029888470820BDE8FE8F64090020000A0020F58200005D7D00002DE9F84F99
:2053D0000C468146E00BC00318BF84F400443BD1002C08BF002038D0DFF878A05546A868A2
:2053F000804783461A4801884FF000080126474606FA07F2224203D17F1C0F2FF8DB1DE04D
:205410004D46EA01FB00001DA2EBC502CD01A5EBC1018D1AED189B1A5B18C158BE401FFA6E
:2054300086F82D1811B11B18586888474846414603F08CFA10B9002028606860DAF80C1060
:205450005846884788EA0404A0B2BDE8F88FC046000A002064090020002A4AD05FEA000C81
:205470008B071CD1830722D1102A08D370B4103A78C978C0103AFBD270BC103238D0042A69
:205490002CD3082A05D30C2A24BF08C908C008C908C008C908C092072AD0920F22E00B7856
:2054B0000370491C401C521E22D08B07F7D1C30714D18307D8D0121F12D308C903801B0C7A
:2054D0004380001D121FF8D20AE008C903701B0A43701B0A83701B0AC370001D121FF4D257
:2054F000121D05D00B780370491C401C521EF9D160467047FEB584684668206803F028FF5B
:20551000216820488A6B1040886340F2F27120681D4D416494F82000295C94F821004019F7
:205530008079084321684863684604F055FD317F05EB81012068B2690B6A717F05EB810153
:2055500089691943B37F05EB83052B6B0B43019903F0EDFE2168C86A40F01000C862216839
:20557000086B40F001000863A07D0027FF2802D0E07DFF2800D11FB1086B40F44040086318
:20559000FEBDC0460DF8FFFF68AF0000B0B5456884682349607DA27DADF1180D40F0004087
:2055B0000090207D0027FF2A41EA000001904FF0020002D0E27DFF2A00D13FB1E37DA07DC9
:2055D0001943039140F0004002900420FE214DF8201005F154006946FFF714FD286600285B
:2055F00008BF381C1AD0617D0F2203F05FFA286E217D102203F05AFAA17D3846FF2902D0F8
:20561000E27DFF2A00D140B1286E112203F04EFA286EE17D122203F049FA012006B0B0BD8A
:205630000000C0A02DE9F8432020EFF3118780F31188214CA068012104F01EFE4FF00109F3
:205650004FF0000865692168A4F81C906A1A2168A4F81E80461B401A904227D387F3118873
:2056700040462D18361A4846294604F001FEB042F7D92021EFF3118781F31188E18B0129EF
:2056900003D14046294604F0F3FDB0F1FF3F06D0A169801B814238BF081C291801E0A069EA
:2056B000411904F0E1FDA4F820902560A4F81C8087F31188BDE8F883780100208B4208BF45
:2056D000824204D90B1C021C002100207047002B08BF002A0BD10B1C021C00210020002B33
:2056F00008BF002A1CBFC943C04302F0F6BFF0B51C4615460B46024600200021B4FA84F6B4
:20571000202E04BFB5FA85F62036B3FA83F7202F04BFB2FA82F72037F61BB6F1200727BF6E
:2057300005FA07F400257F42B4403EBF25FA07F73C43B540A34208BFAA4201D3521BA3413A
:20575000404149416D0845EAC4756408761EF1D5F0BD70472DE9F041DFF8888004680E4641
:2057700017464FF0FF31404604F01DFA4FF0FF35092E08D0217A0120B040084212D1084316
:205790003546207211E0237A0521012000FA01F2134202D0491EF9D504E0227A88400D4633
:2057B00010432072B5F1FF3F15D0A7B1062003F095F92946384600F061F80746062002F091
:2057D000F5FF47B1217A0120A8404FF0FF3580F0FF0008402072404604F01CFC2846BDE8C8
:2057F000F081C046800A00202DE9F043224C81461D4604F108002F68006816468846ADF1D3
:20581000240D1FBB0C2000F07DFA071C16D0684600212422082304F023FD0023069749462E
:205830006A46ADF810301348059304F015FD386038B9FEF742FC384602F06AFF6FF00300D3
:2058500015E0C7F80480BE602F6008E080470546386804F031FDBE60E16828468847386853
:20587000494604F031FD386804F02AFD002009B0BDE8F083DB9D0000640900202DE9F0416F
:2058900080461F4800680D46416927208847012404FA05F61B4DC5F80064C5F87C470327FF
:2058B000C5F8807718480460C5F88477D5F80404012818BFC5F80444C5F8FC6313480460F3
:2058D000C5F800801023AB60204604F060FBD5F88C076FF39D000028F6D0D5F88C17204665
:2058F00011F0404F09D1C5F884770021C5F8FC16D5F80024164218BF081CBDE8F081C04626
:20591000B00100100440024000E04842000048427CB5214D0446286808B1112076BD1F483F
:20593000017811F00A0F01D1122076BD042004F0ADF9286070B3022004F08AFC28680422D2
:20595000214603F0EFFF04F07FFC28B10C2003F0B9FF05460D200DE06078022805D1122061
:2059700003F0B0FF0546132004E0102003F0AAFF0546112003F0A6FF06460948007804F02A
:205990005FFC0346E07800903246A078294604F053FC76BD132076BD984E0020584F0020C3
:2059B000594F00202DE9F843DFF87C808946054617464FF0FF31404604F0F5F81B4C04EB48
:2059D000C5046668256804F013FB1949097801290CD12968002909D405DCB9F1000F09D09D
:2059F0004FF0FF3108E0B9F1000F03D004F0C8FC002413E02968491C296004F0C1FC286825
:205A100002280BDA1FB9684604F09EFA6F4638686860C0272F727068FEF79EFF404604F0CC
:205A3000F9FA2046BDE8F883800A0020D4B20000FF0E0020204A2DE9F04180460124A2F151
:205A50003000046019480768002FFCD01B49184DC0200B1F28601868800806D253F8040C41
:205A7000144B000C40F0F000187000204FF080571060D7F8F0010E68016830468847D7F8AA
:205A9000F0014268314640469047D7F8F001816830468847D7F8A001C168022088474020AF
:205AB0002860074E3460BDE8F081C0469402224300600C405662084040100940B43F0050C6
:205AD0009404604238B51E4D1E4CA87BAB6827280CBF2520401CA87340F6C4102168CA88C9
:205AF00000FB0233AB6009898A4204D104F0A0FB00F6C410A86000206880134A1348C17EC8
:205B100001F0E00141F08101C17600210162107888B12168C87A022818BF03280BD10C4D48
:205B300005F10D0004F080FB28B920680622E91D0C3003F0F7FEBDE8314000F0EFBD00BFB7
:205B50009C4C0020144F0020784E0020D04B0020AC4500202DE9F843204D0746A868804796
:205B700081461F4883686FF00B06002480469BB113F8020C874208D134B16BB138464FF4D9
:205B90000041FEF7CFFD0CE01C460CB9A3F10C0653F80C3C002BEBD138464FF4004102F0CC
:205BB000BBFEACB1A8688047D8F80810A4F10807A14219BF54F80C1C316057F8041CC8F86D
:205BD0000810002147F8041CFF26BE71E9688847E968484688472046BDE8F88364090020E8
:205BF000380D00202DE9F8438146EFF31188202080F311881E4D1A4C184F012605F11C00E0
:205C10000660A4F114000660F86A016A14208847D9F81000810C14BF000C0420206038689E
:205C300002682321002090470E480F4F0660386800280CBF311C03210C4807680FB141F0DD
:205C50000401183C206820F4E02040EA014020602E6088F31188BDE8F883C04684010010F7
:205C7000182009408002244304B3000008B30000000024432DE9F04106467468B56804F051
:205C9000B7F98046A06A58B928688169090907D2006B400A04D2404604F072FBBDE8F08176
:205CB00004F5827004F0A0F900274046A76204F067FBA97D3846FF2902D0E97DFF2900D153
:205CD00018B12046294600F0AFF904F091F92A68916B21F0200191632A68116B21F4807138
:205CF000116304F04DFB04F2291003F0F1FB606A216A091A21622369626A30469847BDE889
:205D1000F0817047F8B5041D14F003001CBF241A241D03F025FA1D4A054657691561102CE6
:205D300088BF9769386800231E46010821D226B9844209D93B4601261EE0196809188C424C
:205D5000196019D81F460846DFB1D169001B042807D23868091AD161386840F0004038608F
:205D700005E0385144F000403860091BD1613F1D07E080F0004000263F1838680028D4D166
:205D90000027284603F015FE3846F8BD64090020FEB5214C251D2046294601F087FC0026C7
:205DB0000835606831464FF000424FF0FF3304F0F3FA0028F5D0009601A80DF106016A46A3
:205DD00002F012FE0028ECD1BDF804100120102918D121789DF80620914213D1009A117892
:205DF000D0290FD197783FB957782FB91146C91C0B682B608988A980A7681FB1396809B14E
:205E10001046884700990029CBD00028C9D0084604F0BAF8C5E7C046480500207CB50400E7
:205E300004BF002003F05CFC16494C60606900B180476068017B01F00F0102290CBF8068B5
:205E500004F0F6F9A0601049104B0878002814BF0F4810480021CDE90001022261680E4C52
:205E70000E482568006855F8086FB0470C4910F1020F088004D1BDE87640002003F030BCEE
:205E900073BD00BF50180020784E0020598E00000204848002048080F04E0020EC4E0020E6
:205EB000424F002070B506467468B568206E03F05EFB29681A488A6B10408863002020700A
:205ED0003046FFF7D7FE304601F076FD2968C86A20F01000C862296812480A6B104008636F
:205EF0006868FEF77FFC04F17C0004F07FF804F1980004F091F8A07818B904F1CC0004F0CE
:205F100087F8607818B904F1E80004F081F804F5827004F05FF804F1680003F039FA70BD19
:205F30000DF8FFFFFEFCFFFFBCB51E4C04F16C05E16F28680029074631D158B3684601F013
:205F50004FF928B1009818B1082002F077FABCBD082003F08DFB284603F0C7F9E06707F1A8
:205F7000180003C80E49C4430B1F1C601A681042FBD10A6810430860F869C04341F80C0CA8
:205F9000F86951F8082C104341F8080CF86803F033F8BCBD04F1D000022104F043F8BCBDEC
:205FB00014100440080F0020F8B5074604F020F8044687B3B87A70B397F9092003F008FAA5
:205FD000012303FA02F1CDB250B1164E113203FA02F0331D1A6882431A60C64343F8046CC2
:205FF0000020B8610346BB723B7207F110063B60024686E80C000A4A7B6002F5CC700378ED
:206010001943017092F89A0110B1401E82F89A01284602F013FA204604F0B2F9F8BDC0461D
:20603000080F00200810044038B50C46054603F0DFFF2268916B21F02001916304F0A0F929
:20605000286E217D012201F001FD286E217D012202F0BCF9286E217D002202F027FD286EEA
:20607000A17D002202F022FDA878012806D005F1CC004FF0FF3103F096FD03E0216888698C
:206090000009FCD2286E217D102202F00FFDA17D0020FF2902D0E27DFF2A00D118B1286EC5
:2060B000112202F003FD38BDB0B51D4CE06F04F16C0570B32869806903F098FB0746286932
:2060D00000233A4602F000F8B80806D20FB328694FF48041C4F8800017E028690F4F826927
:2060F000396822F00202914339602969CA6957F8083C23EA020147F8081C296905F1080011
:2061100003F004F900200221286104F1D00003F089FFFEF781FEFFF707FFB0BD141004402E
:20613000080F002038B50446194841780A062DD5184D287870B1184A117859B9032003F07C
:2061500069F8010022D09120087010224A708C70287817E00C2003F05DF8B8B101210170C3
:20617000FF2200F108034270436004211970102341684B70012241688A7001464268074852
:20619000D4700078BDE8344003F082B931BD00BF1C4E002093180020624F00209118002050
:2061B00070B51C4E1C4D317804462878891C8842A4BF002003F094FA0022A96818235343CD
:2061D0001944487828B90B78FF2B0DD0686881420AD13178521CD2B2891C8A42EDDB0020C5
:2061F00003F07EFA002070BD0020486048610C700120487028786A78401C28702243C0B2C4
:2062100001281CBF802C402C6A7000D16960084670BD00BF7B4F0020501800202DE9F041EB
:206230001C4D804668680C4688B3002617E037010830C05930B103F039FD696801F1080245
:206250000020D051686800F10C01C85930B103F02DFD696801F10C020020D051761C4645D1
:206270006868E4DB24B103F021FD002068600EE068B14FEA0812002103F0E0FE0020FF2125
:2062900003E06A680301401CD1544045F9DBBDE8F08100BFF40D00202DE9F041074603F0DE
:2062B00019FE16461A4AD21E9478A6F10C05FF2802D0926A12185479DFF85080FF2C04D1C0
:2062D00040460068806880471DE0084603F0F0F801464346FF20A8721D6837B92046EC6BB0
:2062F00000223346A04740B10AE0012F08D120462C6800223346A04710B90020BDE8F081AD
:20631000304603F0B5F80120BDE8F081E80E00203B0D0020002213460A46194671B510F052
:20633000030F0BD0002A82BF00F8011BB2F1010210F0030FF6D1002A08BF71BD11F0FF0142
:2063500041EA0121042A18D341EA0141082A0FD30E46102A08D30C460D46B2F10F0312F081
:206370000F0272C0103BFCD812F0080F18BF42C012F0040F18BF40F8041B12F0020F18BF8C
:2063900020F8021B12F0010F18BF017071BD70472DE9FC410446002003F028FC184E0546F4
:2063B000B0688047804602F0F1F8074604222146284603F0A6FD384603F084F90025012734
:2063D00002E02D1D241DADB23846411ECFB278B128466946042202F021FB684621460422CE
:2063F00002F006FF0028ECD00449012048700870F16840468847BDE8FC81C046DC0E002034
:20641000640900207FB5034617480D46018817480088144611A6984216DA994210DA00950B
:20643000002C48BF47F6FF74114E00201149ADF804406A46346802901846A04702980AE000
:20645000184603F093F908B9324600E042682146284601F09DFC00907FBDC0467B6D6F64A0
:20647000756C652325647D0076B20000FAB200003CB30000358F0000FEB50C46154640F680
:206490007B41A21F8A423CBFAE1F8E4229D2A54227D3B3F5FA7F24DA0899A1F10A0640F697
:2064B0007747BE423FBF5B1C6E005E43B6EBC10F17D290F8941041B1D0F834010A21B0FB3F
:2064D000F1F1C9006B4399420BD30C990B98019100900A9B099A2946204603F0A1FE012858
:2064F00001D10120FEBD0020FEBDFEE7F8B51A4C05461C3CA06A2860E069686002F030FEA5
:20651000A66984460020C4F810C0074603463C4612E0110809D21FB91346304601270AE02F
:2065300001689B188918016005E082F000420027A34288BF1C1CB6183268002AE9D19C42DF
:2065500038BF1C1C604603F034FA2046082894BF00200838A860F8BD80090020F8B5184C75
:20657000207801282BD0174E012026F00306164B2662226A207004F124050020314662622C
:206590009B1B2F68A362F61801E041F8040B8E42FBD8991002EB810123F0030341F8040C45
:2065B000E8213960EC3BC2F8E830E8326261FFF7A9FBA06128686061A06A001FE061F8BD48
:2065D000640900209C18002000400020B0B51A4C0546241D20680004070C27D01448006839
:2065F00000688047134991F90720824205DD10F1800FB8BF6FF07F00C871BD422CBF012779
:206610007F1B8D88BD4210D80A68D4F8D40F801A801C1F2888BF1F207F1B4008C7404FF682
:20663000FF70EF19B84238BF071C8F80B0BDC046EC0100107818002030100940BFB50C4641
:20665000E00BC00308BF00202CD017480078FFF781FA071C23D03B68186900905869019035
:2066700098690290D86903907D6859689A681868DB68A8473968086017F8080C01F0A2FF8B
:206690000546012002F0C6FD021C08D0422035F07F07107003D000202946FFF7FDFD84F47C
:2066B0000044A0B20090BFBD9818002080B51448006808B103F0FAFA1248006808B103F051
:2066D000F5FA1148006808B103F0F0FA0F48006808B103F0EBFA0E48806808B103F0E6FA4A
:2066F0000C48006808B103F0E1FA002002F0F8FF09480078BDE804404FF48041FEF712B8C9
:20671000104F0020144F0020184F00201C4F002050180020801800206E4F002070B5194EAC
:2067300075681DB9BDE8704003F076BD287801281CBF0228042820D103F08AFBE8B128787F
:20675000FCF7D2FF0446606808B902F0C9FFA4B12078A54205D102280AD0002002F0C0FF59
:2067700006E0022809D10849052008700222B2702046BDE87040FFF751BBBDE870400020B9
:2067900002F0AEBF501800206F4F00203EB50D46290411D5164A1078FFF7DCF9040009D03B
