:20000000004000208176000001C9011001C9011001C9011001C9011001C9011001C9011067
:1C00200001C9011001C9011001C9011001C9011001C9011001C901103FC9011089
:20003C002DE9F04F0F46BA4C0168E16241688068ADF1140DE060B748A1608047B648E16AA8
:20005C000160A168DFF8E8A24160E168DFF8DC928160B249002FA346C16066D03D68A8688A
:20007C0008B1AF490160E86808B1AE490160AE4C2878207068786070A878BE68A070317818
:20009C00B268E1707368A2602E696360EA6926627968E2620868E06068696062A8697B686B
:2000BC00A062286A9E68206395F8240084F834001EB9002008F052FF00E066617868C068B7
:2000DC0018B9002008F04AFF00E0A0617868006918B9002008F042FF00E0E06178684068D5
:2000FC0018B9002008F03AFF00E0206128692062F86881680E6806B9C14EC0494FF0010870
:20011C004E60C66881F8018036B9002008F026FF4D462E68F86801E04D462E600068544634
:20013C00FB68A0615868E06107E0002008F016FF4D462E684FF001085446361DB149366834
:20015C00621C04F114035020B04710B1286880688047DBF808008047AC4E002781463B4687
:20017C00A94877706946206104223370384608F0B7F80098B0F5801F0CD020B908F0DCFA0E
:20019C0003F0D6FA08E007F0B1FA09F0B1F90427778002E008F0D0FA04270020A34E2A68BF
:2001BC00A0600346B360906980477060984880F80080002141800A2009F082F9FF210A2293
:2001DC00A06209F04CFBE01CFF21022209F047FB0A2009F075F98F4E3060306800210A2263
:2001FC0009F03DFB002000F027F9404607F0D4FC89480188FF2906D1022101807822001D81
:20021C00002109F02CFB032000F012F983482B6807705F68002103AA102001ABB847A06A14
:20023C00E1690527401D9DF80C207F1E00F8012BF9D1891EE161DBF80C104846884704F159
:20025C0020002B68626A049040461F69DFF8D08104F120034146B84710B12868806880479B
:20027C00B04608F0A1FB5FEA000903D004F064FE4FF0FF39002637E00298216910F8062C4B
:20029C00A0F10C07032A02D171B388472CE0A16A9DF80EC005223046491E11F8013F9C4503
:2002BC0006D0521E00F10100F7D14FF0FF0A01E05FFA80FA2868BAF1FF0F00F1080011D003
:2002DC00387907F0FBFDB979012904D0022904BF0299887001E0029908700299504608F094
:2002FC0015FD01E0006880472868C3690DF10E0102AA0DF10D0098470028BDD0D8F80000DC
:20031C007700C35BB3B9761CF6B2052EF8DB34E0C009002041490010F8440020989B00005A
:20033C00E7970000ED970000200C0020F00E0020500D0020052E20DADBF808008047D8F819
:20035C000010002231F807A0CA53DBF80C108847344850F8262026705146304690470646D4
:20037C00FF202070DBF808008047D8F800107A5A16437E52DBF80C10884708F015FB074620
:20039C00B9451AD007B9284FE069B84238BF071CDBF80800804781462868016A206A884708
:2003BC00626A28681E49049B521C6262C6683846B047DBF80C1048468847A7682968606935
:2003DC0014318FB9D8F8000005270026835B33B10969606988472968D8F8000014317F1E43
:2003FC0006F10206F2D103E0096988472968143109684FF0FF30884733E7C046540E0020D5
:20041C002F6F0000ED8A000075910000E40E0020D40B0020681800205C0A002078180020BE
:20043C00117F00000CAA00008EC2F52824180020DFF800F0598801102DE9F84FA949AA4A95
:20045C00AA4D08700821002010600D23A8484FF44D72017043808280A6480560AC7EA64895
:20047C000470FF2CE97E417008BFFF292A7F82706B7FC370AE7F0671ED7F457114D1FF2A2E
:20049C0008BFFF2B10D1FF2E08BFFF2D0CD19B490A7802704B7843708A788270CB78C370B9
:2004BC000A7902714979417195490278DFF85482DFF854920A70FF2543784B7082788A70EC
:2004DC00C378CB700279914B0A714079487188F8005088F8015088F8025088F8035088F880
:2004FC00045088F80550002089490880D9F83440884960780870227887491A70A078087053
:20051C00A2681079854A411E1170E0788449854A0870E068106008B908F020FD60698249EF
:20053C00086008B908F01AFDA069DFF800A2CAF8000008B908F012FDE0697D49086008B923
:20055C0008F00CFD7B4C7C4E207908F0B9FF3060F0B16079794F08F0B3FF3860C0B1A07906
:20057C00DFF8DCB108F0ACFFCBF8000080B1E07908F0A6FF7349086050B164490A78207882
:20059C00921C504380B208F09BFF6F49886018B9BDE8F14F05F0B0BE3168012008713268B4
:2005BC0015733068457331688D733068C57331680D7400213068457400203268D172A02293
:2005DC003168487103213068C2800172072032685072002130688172282130680122418246
:2005FC00C2760020316848770022306880F85E200121326811770120316881F85D00012288
:20061C003868027139680D733868457339688D733868C57339680D740021386845740020FD
:20063C003A68D172002239684871386882724FF420703968C88008818A7401213B68D97454
:20065C00DBF800201573DBF800104D73DBF800209573DBF80010CD73DBF8002015740022A4
:20067C00DBF800104D740121DBF80030DA720023DBF800201171DBF800104B71DBF800102F
:20069C00C88008818B720520DBF800209374DBF800102E4AC87410688047DAF800100A6827
:2006BC0005469047DAF8001051F8042F00209047D9F80C101A4B0A881878254902430A80F6
:2006DC002846244A13689847404600F045F800F047F8BDE8F44F034800784FF4005103F0B4
:2006FC0071BE00BF6E4F0020044F0020B63F0050604E0020084F00202C4E0020E812005032
:20071C003C4E0020344E00201CAB00007B4F00200C4F00206D4F00206B4F0020724F0020AE
:20073C006C4F0020F04E0020F84E0020FC4E0020241700203C0E0020104F0020144F0020CD
:20075C00184F00201C4F002030180020C8090020544F0020CC090020DFF800F01D6E0110F7
:20077C00DFF800F04D7101102DE9F04F09AFADF13C0D08900A92388809911E46ADF8180024
:20079C00101C08BF002000F07581017800274FF0010B401C4FF0FF39B846DA460A9061E18C
:2007BC00252940F056810178401C0A902D2918BFADF8068004D10178ADF806B0401C0A9062
:2007DC0030291CBF4246434604D10178401C5A465B460A902A29CDF800804D4617D1049389
:2007FC0030680A9BCDF80890C01C20F00300001D306050F8044C1978002C009403F10100C9
:20081C000A9018D5ADF806A06442009413E044460AE0600000EBC4004018A0F130040A987B
:20083C0001780094401C0A90302901DB3A29F0DBCDF8089004932E2929D10178401C2A29C9
:20085C000A9011D13168CDF80880C91C21F00301091D316051F8045C002D48BF4546017888
:20087C002B46401C0A9011E0454643460AE0680000EBC5004018A0F130050A9801782B4644
:20089C00401C0A90302901DB3A29F0DB02930AB1224604926C2904D04C2918BFADF80480B7
:2008BC0004D10178ADF804A0401C0A900BA8CDF80C800FAB07906429059300F08280692991
:2008DC007FD0BDF818C075296DD0782969D06F2965D070294ED063293ED0732922D00A981D
:2008FC00401E0A90099801281AD966490C68B5F1FF3F03D0A84288BF6D1C05D86FF0004116
:20091C00814294BF0D1C099D029508A80AA932466B46A04709993F18091A0398099165E036
:20093C00454617E03068C01C20F00300001D306050F8040CBCF1010F014608B94FA0014692
:20095C00079108F011FD0390B5F1FF3F4FD0A8424DD9039528464AE03068C01C20F0030080
:20097C00001D306010F8040C8DF82C005D46039558463CE0082035680490E81C20F0030080
:20099C00001D306050F8041C082210230FA805F05BFD401E079040210170079823E0082331
:2009BC0002E0102300E00A233068C01C20F00300001D306050F8041CAA42BCBF2A1C04921A
:2009DC000DE03068C01C20F00300001D306050F8041CAA42BCBF2A1C04926FF009030FA80D
:2009FC0005F032FD07900599081A0390009C241ABDF8065000945DB906E008A8202109AAB4
:200A1C0007F0C6FE7F1C009C641E0094F5D50398401EB0F1FF3F03900FD1BDF806000128B9
:200A3C001CD10098401E009018D408A8202109AA07F0AEFE00987F1CF4E70798017809AA1B
:200A5C0008A807F0A5FE0798401C079003987F1CDEE708A809AA07F09BFE7F1C0A980178FA
:200A7C00401C0A9000297FF49BAE089808B14146017038460FB0BDE8F08FC046286E756C50
:200A9C006C2900C014AB0000BB482DE9F84F0025BA4CB849056094F8E200002800F06581C9
:200ABC00012800F02F81B64E02283CD0032840F05C8151F8250CD4F8B8100029A0F5C060F3
:200ADC00C4F8D400B8BF49420028B8BF4042814226DA4FF08057D7F8A4014568B4F8BC00E5
:200AFC0030214FF47F42082300903046A847D7F8A4014568B4F8C00004214FF4F802122341
:200B1C0000903046A847D7F8A401B4F8D070456820214FF440620A2330460097A847012542
:200B3C0084F8D8501CE151F8258C08F074FD2F4600B901273946934F38680028FCD0B14653
:200B5C00012609F10409D9F82CA03E6009B108F068FDCAF30720C4F8BC0008F05CFDAA465C
:200B7C0000B9B2463B68002BFCD0D9F800B0BAF1000F3E6001D008F054FDCBF38440C4F8DD
:200B9C00C00008F048FDAA4600B9B2463B68002BFCD0D9F81C90BAF1000F3E6001D008F063
:200BBC0040FDC9F38120C4F8D000B8F5C061C4F8B81000F09C8094F8D80068B9C4F8D41070
:200BDC00D4F8C000C4F8C800D4F8BC70C4F8C470D4F8D030C4F8CC30D4F8D400D4F8BC3025
:200BFC00002854BF02226FF0010204F1C8010F6800EB40008018421000EB927207EBA2004B
:200C1C000860D4F8C810C4F8C43000291CDD1E293CDDD4F8CC0030B93429B4BF15391E219C
:200C3C00C4F8C81025E02A29BABFD4F8C8000B381E20C4F8C800D4F8C4003F28B4BF401CD4
:200C5C003F20C4F8C4001FE0D4F8CC00032812D011F10B0FC6BFD4F8C8000B30301CC4F87D
:200C7C00C800D4F8C4000028C4BF401E051CC4F8C450032508E011F1150FC6BFD4F8C800B7
:200C9C001530301CC4F8C800C4F8CC504FF08057D7F8A401B4F8C43030214FF47F4245681F
:200CBC00374800930823A847D7F8A40104214FF400321123456832480096A847B4F8C8602A
:200CDC00D7F8A40104214FF4F802122345682C480096A847D7F8A40120214FF440620A2380
:200CFC00B4F8CC60456826480096A84701E084F8D85040F2FF50404502D8801C40452FD2D9
:200D1C00082030E051F8251C1F4F4BF2F5204843060A3868C0F3814001280CD11B480068B5
:200D3C000068804706F084FE08F081FC3111C010484306EBE03694F8E50030B914480068B9
:200D5C0020F07F403618760801E084F8E5501148310C0660012741600F4D8760287808B9E1
:200D7C000B2000E0052084F8E40001F0DDFDBDE8F88FC0462D400C402C500C40AC08002075
:200D9C0000A00C4000800C40B43F0050EC010010102009403C600C40DDA900002DE9FE4FF5
:200DBC0005467B48002400680094C00905D37948007810B9202007F0F7F9012D40F0E2805F
:200DDC00DFF80092D9F8DC00012840F0D8800220C9F8DC0008F048F9012007F0E5F95FEAF9
:200DFC00000805D00120C9F8DC0008F049F9CBE008F023FDA34602906748684DC0F800B0F8
:200E1C00A86A016801208847012804D1584605F0F5FB012000906248624FC0F800B03868B6
:200E3C00112008F011FC00B10124102008F00CFC08B144F002040F2008F006FC08B144F051
:200E5C0004040B2008F000FC20B12868564E016B308888470A2008F0F7FB20B12868534E41
:200E7C00016B308888475248012606602868816944F0200088474F48066008F0DFFB00F0E0
:200E9C0001010191400814D2286A81684A4888478246BAF1040FF7D0BAF1010F04D1286A29
:200EBC0042684548032190474449086820F003000860584600F0D4FC2B683868986B804711
:200EDC00019801280CD0BAF1010F04D1286A42683948314690473949086840F00300086030
:200EFC002F48066028684169204688470B2008F0ABFB20B128682C4BC16A188888470A2025
:200F1C0008F0A2FB20B12868284BC16A18888847274806600322C9F8DC20264BC3F800B01F
:200F3C002868416B204688470128F9D13868042007F03AF9044618480660386814480068CF
:200F5C008009FBD30098012802D1304605F056FB08F067FB082007F027F907460298C9F88D
:200F7C00DC6000F031F81648008805F055F908F087F857EA040018BF4FF0FF3804E06FF08B
:200F9C00040801E06FF001084046BDE8FE8FC04614100940940900200C400940B80100109A
:200FBC00000222432C2009409AA6000096A600002820086080010443004003402422084014
:200FDC00D8A90000AC080020DFF800F005B3011008B505F003FE02480121017008BDC046B5
:040FFC00070F0020BB
:20100000B41200001810000015AB0110FDB301106DC00110FDAE011099B5011000000000F7
:08102000000000002D0000009B
:20102800B01200003C100000B1C00110A9BF011067C0011069B80110000000000000000035
:041048003000000074
:20104C00B012000060100000BDC00110CDB30110D9BD01106DB3011000000000000000005B
:04106C00310000004F
:2010700000000000740E002004000000000000000000000020000000E8C9011030000000A8
:20109000281000007C0E00200400000000000000000000000C000000D8CA01101800000083
:2010B0004C100000840E002004000000000000000000000024000000F0CA01101800000007
:2010D000000000008C0E00200400000000000000000000001000000018CA01102C00000013
:2010F000001000009C0E0020040000000000000000000000200000006CCA01102400000077
:20111000FFFFFFFFA40E00200400000000000000000000002800000090CA01102400000036
:20113000FFFFFFFFAC0E00200400000000000000000000001400000008CB011018000000B5
:20115000FFFFFFFFB40E002004000000000000000000000058000000B4C901103400000083
:20117000FFFFFFFFBC0E00200400000000000000000000001000000020CB01101800000051
:20119000FFFFFFFFC40E00200400000000000000000000001C000000B4CA0110240000007E
:2011B000FFFFFFFFCC0E00200400000000000000000000003800000044CA011028000000A6
:2011D000FFFFFFFFD40E00200400000000000000000000005400000078C901103C0000001B
:0811F0000100000008AB000043
:0411F80001000000F2
:0411FC0000000E00E1
:0412000000000F00DB
:0412040032000000B4
:0412080001000000E1
:04120C00E40D0020CD
:0412100000020000D8
:0412140000000000D6
:0412180001C90110F7
:04121C0000000000CE
:0412200000000000CA
:0412240008000000BE
:0412280000002200A0
:04122C00580C00203A
:0412300000000000BA
:0412340000000000B6
:0412380008000000AA
:04123C00A40D0020DD
:0412400000000000AA
:0412440000000000A6
:04124800080000009A
:04124C00000000009E
:04125000000000009A
:041254000000000096
:041258000000000092
:04125C00010000008D
:04126000F00C00206E
:041264000600000080
:041268000100000081
:04126C00880B0020CB
:04127000000000007A
:041274000000000076
:041278000002000070
:04127C00000000006E
:02128000290043
:02128200010069
:02128400250043
:02128600300036
:02128800310033
:02128A002D0035
:02128C0001005F
:01128E00015E
:0812900003000000A8AA000001
:0812980000000000000000004E
:0412A0000000010049
:0412A4000000030043
:0412A80013C401105A
:0412AC00CD920000DF
:0412B000B812000070
:0412B400B81200006C
:0412B8000000000032
:0412BC00480E0020B8
:0412C0000B9400008B
:0412C4002000000006
:0412C80020AA000058
:0412CC00C4A80000B2
:0412D00029C101101F
:0412D4001F86000071
:0412D8008388000007
:0412DC00A1C7011095
:0412E000A3C701108F
:0412E4000000000006
:0412E800D9AA00007F
:0412EC00D0A6000088
:0412F000E8A600006C
:0412F400B8A6000098
:0212F8000200F2
:0212FA000900E9
:0212FC000100EF
:0212FE000000EE
:0113000001EB
:0413040099930000B9
:04130800817F0000E1
:04130C00598B0000F9
:0413100061820000F6
:04131400B97F00009D
:0413180069750000F3
:04131C00D1580000A4
:041320000196000032
:04132400216E000036
:0413280015C70110D4
:04132C0025C70110C0
:201330002DE9F84FDFF8C8A20F460446F80B80F01281AA4EDFF89882B80F80F0C380B80837
:2013500080F0B7803809C0F03881082008F088F9002840F0A980802008F082F9002840F09F
:20137000A380684603F08EFE012803D10098002800F09A8095480078002840F0958000255F
:201390000124E8B207F0D8FF48B1837A3BB1847290F9090004FA00F0C0B206F0EDFC6D1C7E
:2013B000032DEED345464FF0030905F1AC0085F8109008F02EFA87480168002398461A46DE
:2013D000036050F8081C844940F8088C05F1340008F029FA3068006B8047A968401A010B0F
:2013F000A869C1F1FF3282422CBF08444FF0FF30A861287F20B1E868A969B1EBC02F25D914
:2014100007F04AFC414600B12146081C1BD0744840F60901018043464380417B04F00F0247
:2014300021F00F010A434273017B03F00F0621F00F0146EA01020273436008F01FF84188B1
:2014500011F4406FFBD02C774346AB616548016821F0020141F400710160634941F8049C0F
:2014700041F230028A600C6050268E600C604FF4CA628A600C6041F80C4C4446046002206B
:2014900006F0FCFD112003F003F8287818B96868383008F0D4F9687F18B16C77052006F012
:2014B000EDFD524868612C7405F0E0FA27F0080783E002F051FB45467435286808B927F0FD
:2014D00002077AE008F0A9F9B3468146DBF85400016804208847D8B1207CC8B14546083556
:2014F0002868A8B10646DBF80000E568006B8047801BE060000BE060A84202D240194008D0
:20151000E06040F6C41181422CBFB0F5FA7FE160484608F035FB06F013FC90B1A5692046F3
:201530006FF4807100224FF00073A847464606F16C052868002808BF47F0020701D005F00B
:2015500095FA2046646900214FF080630A46A04727F0005731E008F060F951460E6846B369
:2015700006F1280106C90A234FF0E0450B40154008BF002B1DD106F1280191E8300006F19B
:20159000280393E8060006F12803AA43A14383E8060008F0F5FAB16869B1002D08BF002CF1
:2015B00009D030692246B6F93C10B4682B46A04701E008F0E5FA27F4804727B1504639464B
:2015D000503008F044F9BDE8F88FC046A9100020100F002014100440C56D00008C010010C5
:2015F000EC170020000004600C41044021430000900F00202DE9F04F8246DAF80070DAF86F
:2016100004600C465FEA0208ADF11C0D14BF00214FF0FF31DFF84092484607F0DCFE002857
:2016300018BF0B2040F0158100258F488C4905708A48FC60524608F0F6F8317B272008F0F5
:20165000F4F8B8F1010F07D06570022006F0C6FE062006F0C3FE01E00120607020780128DD
:2016700040F2AA80801E012868D9801E012833D9801E012800F2DE8008F0CFF883464FF045
:20169000805000F5EE77D0F8DC01A378466A009321782846062908BF0120019001200290AB
:2016B000A068228AE1686368B0478146584608F067FAB9F1000F40F0BF80B8F1000F02D0EB
:2016D00007F044FD02E0504606F05AFD002800F0A3803868806A2AE008F09FF883464FF097
:2016F000805000F5EE77D0F8DC01012306680093A168A27860682478AC46042C08BF9C4694
:201710006346B0478146584608F03AFAB9F1000F40F09280B8F1000F02D007F017FD02E016
:20173000504606F02DFD002876D03868406880474C49C1F8B0510D6081467DE008F06DF829
:2017500083464FF0805000F5EE77D0F8DC01E38A86690093E0680190208B0290A0780390F2
:20177000207D04900121059122782846022A08BF081CE1786268A368B0478146584608F0CF
:20179000FFF9B9F1000F57D1B8F1000F02D007F0DDFC02E0504606F0F3FC00283CD03868D5
:2017B000006A80475FEA000946D1E078A168E28A236904F09FF9BFE708F02FF883464FF0CD
:2017D000805000F5EE76D0F8DC01E38AC7680093E0680190208B0290A0780390207D29462F
:2017F000049001200590257805B9014608466268A368E178B8478146584608F0C1F9B9F1B1
:20181000000F19D1B8F1000F02D007F09FFC02E0504606F0B5FC08B914201AE03068406954
:2018300080475FEA000907D1306802692169E078904781E74FF0FF39B8F1010F05D002205C
:2018500006F01CFC062006F019FC034807F0F7FF484607B0BDE8F08FDC0A0020140B002053
:201870008588000050450240761800202DE9F84FDFF804B20746ABF13500DFF8F08100680E
:20189000800880F0E28075480068006880477E490831D1F8009000254FEA29715FEA995205
:2018B00001F101010AD2C0F13E0210F10A0F4FEAE202D8BF08229142B8BF111C684BD3F86A
:2018D0007C21C2F30462162AA8BF203A1B68C3F30443162BA8BF203B9A465218162A05DA53
:2018F00012F10A0FB8BF6FF0090200E015225D4B5D4E02F01F0141F4F8511980316811F0AE
:20191000030F18BF0125C90828BF45F002050FB145F00405434693F90710411A052904DA23
:201930009979A94208BF99886FD0DFF844E10F28A0F10F0829DB08EB0011A1F1F0084FEACD
:2019500028210091072984BF07210091062988BF06215EF821600424774604EB81043C590F
:201970004FEA950CA41BEE0804F0FF0124BFC4F3072631446F08AE0824BFC4F3074631440F
:201990006E0828BF01EB146104E000214FEA950C6F080091009C5EF824E05FEA5C060EF0F3
:2019B000FF0424BFCEF3072634447E0824BFCEF3074634446E0828BF04EB1E64009E89B235
:2019D000A8EB06267143803104EB1124AAEB02010029D8BF0121342209F0FF074A4391B210
:2019F0004FF6FF727943B1FBF4F18A4238BF111C802889B2998005DA10F1800FB8BF6FF0A3
:201A10007F0000E07F20D8719D711A4800681F2918604FF0000008D340F2FF128A4206D2D6
:201A30004908401C8A42FBD301E01F219980134F0F39090940EAC10047EA0001CBF8FB1F5F
:201A50000026CBF8FF6FBDE8F88F0D490D4F434608200F609B1D1870BDE8F88FEC010010B8
:201A70003C1100506E62084024220840581800209C130050082009403500094000E7A4808A
:201A900030100940FDFDA400AC3F00502DE9F04F044672488E46016894461F46BEF1000F41
:201AB000ADF13C0D4DD0BCF1000F4AD09EF8002001209040014244D0BCF80000B0F5C15FC5
:201AD00032D1DCF81400DCF81860654BDCF81C50DFF890A10B904FF003080DF128090C9611
:201AF00018680D95C0F3036B59F8046FCEB10021351F05200B4655F8042FB2F1FF3F10D024
:201B1000924506D0401E01F1040103F10103F2D107E0052B05DA705820F4702040EA0B4021
:201B30007050B8F10108DFD1C4F804E0C4F808C007F073FE4C4D8046287820B1404608F099
:201B50001FF8002087E001F0B1FB4849086840F00200086007A807F099FC002605F1D00078
:201B700007AA4349099605F0C3FF424905F5827007AA05F0BDFF07A807F058FCFF20192196
:201B900007AB3D4A089005F1340005F0FBFE3B4A05F150001A2107AB05F0F4FE38493246B4
:201BB00005F18800134605F0C1FA3649324605F1AC00134605F0BAFA334A05F1200004213B
:201BD000334606F07FFE0E2002F01CFD05F1740007F08AFB05F16C0007F086FB2E74052346
:201BF000EB60072085F898012E77AE616E772849AE60264A69612B781670581C2870404640
:201C100007F0BEFFB1461FB9684607F077FB6F4638682060388A6082012060747B6813B9FD
:201C300040F6C4130646E3601A48A06126746061F86800B1A061B86800B16061494658228D
:201C500004F1200004F096F904F13800494606F037FD6C6020460FB0BDE8F08FD4210840A4
:201C7000541300500200F844100F002000200940CD90000091410000C56D000025680000C9
:201C9000898C0000ED8E0000197300007018002021430000635500002DE9F047784C04F14E
:201CB00008012046ADF1280D05F090FA04F114050021284607F060FF4FF080400021E560FB
:201CD00004F0C0FF4FF0010A0227606000258DF821A05146ADF816500DF121028DF82270C9
:201CF00040F2023001F0A0FC40F2033039460DF1160201F099FC40F20530192104F12D029E
:201D100001F092FC04F120024FF441700D2101F08BFC40F2063051460DF1220201F084FCF1
:201D3000584E10200622A023314600F0CBFE10200722A023314600F0C5FE10200822A0233F
:201D5000314600F0BFFE10200922A023314600F0B9FE4D4E707878B904F11000306106F0D3
:201D70003FF90246284600900190029047490390B378102000F0A6FE6068294632A30A4644
:201D900006F04DFD1436A84607F0F2FEA06841464FF040424FF0FF3307F0E6FE051CF3D054
:201DB000CDF8108005A808A904AA06F085FA18B9049808B107F0FDFCE80FE5D3E06807F039
:201DD000CFFE0028E0D1E068054607F0C5FE854208BF454602D0856806F01CF9002DEDD033
:201DF000288801282BD16168A8788946401E12D0401E0DD0401E09D0401E05D04846394654
:201E1000424607F0FCFB1AE013A302E014A300E015A308460FE0316806A80160B18881803C
:201E300006A805F0FBF9034651464246484606F0F6FC60680FA33946424606F0F0FC28464C
:201E500006F0E8F8BAE7C046424C452042726F6164636173746572004572726F7200C04688
:201E700057616974696E67004164766572746973696E6700496E697469616C697A65640089
:201E9000080200205D810000340500207D8B00002DE9F04F754C04F10C012046ADF12C0D74
:201EB00005F094F90026667005F082FF70494FF0010B4FF0040803204FF47A72A0710968FB
:201ED00084F802B00720E671B2FBF1F1207289B204F10900079100F10B0900F1110A0670CD
:201EF00000F13601089100F117010991E068634A31464FF0FF3307F037FE071CF6D0304606
:201F1000029006A902AA03A806F0D6F900287AD1BDF80C00102872D120789DF81810884286
:201F30006DD1029D2878D02869D1A978081C46D0801E22D0401E01283ED86D78002D56D121
:201F5000032917D0658995B1E3788BB14C4807F090FC10B14A4807F0FBFD07984543484883
:201F7000294607F0F1FD464807F0EAFD00E0E670032000E0022060703BE06B78002B36D136
:201F9000EB7853B96078022814D03D4807F071FC80B9584607F092FA0CE006F021F8024656
:201FB000607935490090089833460190102000F089FD68706D78D5B9012E1AD01FE06B7894
:201FD000ABB9ED1C286849460860AB888B8084F801B006F005F802465B46099D2079264908
:201FF00000901020019500F06DFDC0B208B184F8018025691DB1296809B160788847029811
:2020100008B107F0D6FB7808FFF470AFE07800283FF46CAFA079E7798DF80E0052468DF8A6
:202030000F70116804AD29609188A980637A8DF81730207A8DF8160005F0D2FF0D490246DA
:202050000DF10E03102000F03DFD00283FF44EAF206984F8018000283FF448AF0168002945
:202070003FF444AF4046884740E7C0463405002004AB000059440110094501100100008012
:20209000940500202DE9F0430546880FADF1140DC0F0D6806C4C201D006840688768C66865
:2020B000406800B18047002F08BF002E08D007F02FF907B1B84706B1B047644806F0EEFBE5
:2020D000634807F0DBF9634A40F60A0CA2F800C000205080117B00F00F0321F00F010B433A
:2020F00013735060517B4FF0010808F00F0721F00F0147EA01035373AB686E7C58801988E6
:20211000A1F60201C9B141F21E07C91B15D041F6E677C91B012920D8597E012E60F3820104
:20213000597606D0198B21F47C7141F43471198313E0198B60F30911F9E7597C012E60F393
:202150008201597405D0198A21F47C7141F4347102E0198A60F309111982D5F808906874FD
:2021700061464E4600E03E46776817B13B889942F9D17260737B00F00F0723F00F031F4354
:202190007773E76E3FB1FB681B88CF1F9F4224D0891F994221D02F8C07B3686205F120036B
:2021B000588095F82C1000F00F0721F00F010F4385F82C7095F82D1008F00F0721F00F01E3
:2021D0000F4385F82D705360517B00F00F0721F00F0147EA0100507300E0A0601E48016839
:2021F0008768C568009110226946406B019720F0784040F0805003901848029503F02CF895
:2022100007F086F816486061607F80B91548006801684046884701280FD0707B08F00F0184
:2022300020F00F00014371730F4F676105E005F009FB0028FBD007F0FEFA484607F01EF9C5
:2022500005B0BDE8F083C046100F00200100070601010E04EC1700204C130050180000212F
:2022700031130000E0010010896F00002DE9F04F754F1E46ADF1340D01914FEA96090292C7
:202290003D680090710809F1020221F0010105EB8200091D0390901805EB80000490501830
:2022B00005EB80038018059305EB8000079026F0030000F1080802EB080005EB800340188A
:2022D0000893801805EB80000990C6F39C008000083002EB4000411805EB800305EB810B30
:2022F0000A938918831805EB8104404405EB8303C6F3990105EB80008900069038680B9366
:202310000A010021803203F035FE4849DFF820A109682846AAF1880290470746B94518BF83
:202330006FF001007ED128465546394605F1680290470198314606F04FFD002818BF0120AD
:2023500070D10298314606F047FD002818BF022068D103980199A84704980299A8470098A5
:2023700081680598A847334B0399059A20469946C847012802D1BD0066590EB1032051E040
:2023900020460021424603F0F5FD0499059A2046C847012801D166590EB1042042E0274B57
:2023B000254D079803991E462A46B047089804992A46B047079909980A46B0470A98099925
:2023D000079AB0471E4D0B9807992A46B04720460021282203F0CEFD1A4B0A990B9A20469E
:2023F0009946C847203520462A460146C847089958460A46B04706980021424603F0BAFDE7
:20241000FDB25846002D0CBF0122FAB20021635C455CAB4218BF052004D1491C521EC9B209
:20243000F5D100200DB0BDE8F08FC0468C4F0020B9DB0010C9DE0010840D0020F9E00010CF
:202450008CA70000C9E60010884F00202DE9F04FADF1240D079000F029FF5F48007806F09B
:20247000F5FA5E4D0024012806D90C3804D0401E0ED0401E09D006E006F0E4FD022804BF51
:2024900001210C1C06D0696805E005211F2401E0032107246960524A1068C0F38150012833
:2024B00006D152F80C0C0127020E07FA02F0044306F0DCFF05F1440AFF2253464018401EDC
:2024D000471C28607F1E03F8012BFBD1079A1268002602F0FF03FE2B1DD0DDF81CC0964699
:2024F00033460EF0FF07FF2F0ED0B84205D3B94203D80122BA40144201D0022069E0164393
:202510000EF0FF020AF802305CF804EF5B1C0EF0FF07FE2FE7D1092002F074F80798012189
:20253000A86005F1280006F0CBF800274FF0010BB9462846804600F198050BFA07F0044237
:2025500016D1064204BF07F0FF0141F4C04104D01AF80700079951F82010224801F084FA6D
:20257000F8B24FF0FF3106F067FBC5F8009001E004202860D8F800007F1C2D1D8742DCD9CD
:2025900004A806F053FF184C184A2078102104AB059008F10C0005F0F5F9684606F076FF63
:2025B000CDF80C906A4660681149029008F1640005F09EFA0F4951F80D0C20F4F85040F412
:2025D000005041F80D0C0C4FC1F8FFBF4846C7F800B009B0BDE8F08F77180020980700202F
:2025F000B43F0050007FC767BCAA0000D18E0000157800000D300940080009402DE9F04F5D
:202610000746ADF1140D0393002F02920E9801910F9C049000F0B680081C00F0B380101C35
:2026300000F0B080181C00F0AD800498002800F0A980002C00F0AB80206A002800F0A28031
:20265000564D666A281D0068002E00F09B80A16A07F072FA40B2002808BF6FF0020700F06A
:202670008D8084F82C002078618800EB80000918143188B2216A88474749086030B9284660
:20269000406807F055FA4FF0FF3777E08B46628823786088DBF8001025789E1800EB010A06
:2026B000701800F1040805EB450002EB4306851876186D18C01805F10C098018401800F1A6
:2026D0001005204604F0B8FE2078C01C8010CAF800002078C01C8010C8F800002078083665
:2026F000C01C801030602078C01C8010C9F800002078C01C80102860227839460AF1040065
:2027100002F0AAFD2278019908F1040002F0A4FD22780299301D02F09FFD237820464146B4
:202730003246FFF7A3FD071C12D100955046414632464B4607F0F8F947B22278039809F1AA
:20275000040102F089FD22780498291D02F084FD21786288DBF8000001EB810152180021AE
:2027700003F008FC616ADBF8000088470B48406807F0DEF9F8B2992808BF002784F82C70AB
:20279000384606E01CB16FF0010084F82C006FF0010005B0BDE8F08F884F00207C0D002017
:2027B0007CB5554A554813785549002B77D05B1E032B08D9083B012B54D99B1E012B6FD9B0
:2027D0009B1E74D08FE04F494F4C504A0A604FF4A05365884E4A0580002D3CD06D1E3FD033
:2027F0006D1E38D040F2FE36AD1B1AD02D1F012D20D94FF47F76AD1B1ED04FF44066AD1B0C
:202810000FD0AD1E012D0CD92D1F0AD06D1E012D10D940F2F936AD1B012D1CD92D1F0BD0B0
:2028300061E003800A6001213A4A1078BDE87C4001F0CEBD384AF5E7384805682E7A012E2D
:2028500005D141F20240608060836086EAE7638063836386E6E7002006F086FB832046E0C4
:202870008F2044E04A88028040F2044082421CBF41F2084082423ED041F60400824211D1DE
:20289000274C284A2568284800680023CDE9002355F8086F254B0222B0472549088073BD6D
:2028B0004A880280002006F05FFB85201FE04A880280022A0DD940F20440121A1BD040F677
:2028D000FC70121A05D0083A15D04FF47F70121AE8D1887B801CC2B2B52AA8BF6620887363
:2028F0000020488073BD002006F03EFB8420BDE8764007F015B973BD6F4F0020504F0020D0
:20291000CC4C0020204F0020204A0020F3970000615A01106E4F0020755B0110104F0020C3
:20293000F04E002002000080EC4E002029870000424F00202DE9F843614C5A4D5A4EDFF8C8
:2029500070815E4F94F8E4100846401E0B2864D8DFE800F07B2C43062343062343067664D5
:20297000042907D001220A2945F8212C14BF0220032004E0202045F8210C0120024684F8D8
:20299000E200002045F8390C0827C5F8FF7FC5F8F37F45F8392CBDE8F883052914BF09201E
:2029B0000620002784F8E400376075E094F8E170383D0120002FC5F81B0004BF06200021EA
:2029D00002D00021F160032084F8E400032045F8010C3160306880085ED294F8E4103348D7
:2029F000012703290ED00068456800216022052300914046A84794F8E400062814BF0A2014
:202A10000720CFE700684568002160220523022000904046A8470420C4E7FEE72548264F2C
:202A30000026012506600E203D6001F031FD022005F024FB84F8E45084F8E360BDE8F88325
:202A5000002038600C25786024E04FF08059D9F8A0010168202088472C3D0F2045F8010CBD
:202A700041F61D56C5F80360D9F8A401466800214FF4C0720723022540460095B047D9F88E
:202A9000A401C66800214FF4C07207234046B0470120386084F8E45004F1780006F0B7FE95
:202AB000BDE8F88339400C4038600C40A401001000A00C402C500C4004800C4034600C4024
:202AD000AC0800200FB42DE9F04106AF8046ADF1280D06F01FFE3E1D26F00306361D30F0BA
:202AF000010001D101F07BFACDF81A601420ADF816000025CDF80E50FF248DF818407B6834
:202B1000CDF81E3007F008F8064606F003FE30F0010015D005F076FF4D492A4684460620F2
:202B300031F80C7F4FB14B681B689E4204D0401E02F10102F4D100E0D4B2604606F071FB60
:202B5000404605F081FA0146FF2905D0204603220DF11A0303F0C2FD06F0DEFF05F058FDB6
:202B7000A8460746CDF8008006F0D4FD30F0010063D0002F61D041F2883001A905F0E6FBDF
:202B9000009C002853D106F0F3FF0199012645187868019B41464FF0005206F0E5FF0028A1
:202BB0002BD00DF122000DF1230102AA03F0BEFFB0B99DF8220003A905F0E0FB38B9029A43
:202BD00006F08AFD00281CBF029C464615D10299684605F006FD78684FF0005106F098FF17
:202BF0000198B0F1FF3FD3D00028D1D006F0C0FF281A02D00199814217D206F037F907F1B4
:202C10000805009F05F0FEFE01463FB13A4652F80C0C40B9286842F80C0C2F60084606F040
:202C300000FB304603E00246F1E70190B0E720B92CB1204606F0BDFD01E001F0D0F9DDF8AC
:202C50001A0000680AB0BDE8F04104B07047C046080A00202DE9FF4104466668A7680D46DF
:202C700006F0DBFD3178012903D106F089FF00208EE00121317006F083FF28787070687828
:202C9000B07068687060A868B060E868F06028693061287D3075687D7075A87DB075A86913
:202CB000B061287F3077687F7077A87F4FF0000843461D4686F82851B07786F82951C6F8A9
:202CD0002080336375627563B562B56386F82C5086F82D50786801F095FC204602F00AFB1C
:202CF000204602F053FB60B9386805F095FF786801F0CEFB06F091FD357006F041FF2C4671
:202D100045E0684606F092FB0094387B224A0190B9686B4606F17C0004F034FE684606F0FA
:202D3000B5FB00941D4938696A46029006F1980004F0DEFEB07830B906F1CC00294605F05F
:202D5000BFFC17483061707830B906F1E800294605F0B6FC1348F060684606F0E7FC01952A
:202D70008DF800501049029406F582700A226B4604F0DCF9B969FA6906F13C0006F022FB21
:202D90000A4A06F168000421234605F09BFD20460090BDE8FF81C046C12D00009B6B000040
:202DB0009B97000093970000B17500006D9500002DE9F84F8046D8F808603068D8F8045068
:202DD000076CDFF830B14764AB6B6A6C286C17F4F06F1946A0EB020934D1F8091ED27809B7
:202DF00074D3B1B196F821205846801D845C601E814294BF1C1C641E4046214605F0C3FB42
:202E1000A86B001BA86361D105F19800012106F01EFD4046494605F0E1FD57E00029F8D066
:202E3000404605F0B0FB95F82D10A86311B900284CD101E00020A86305F19800012106F0C6
:202E500006FD43E0F80A20D24FF0000A544602E0AB6B5B1EAB6393B14046012105F093FB77
:202E70003068446814F00F04C0F804A0F0D0286B401E2863686B401E6863A86BE8B905F1A9
:202E90009800012106F0E3FC13E0306844680022202904F00F044260CCBF4FF0200A9A4674
:202EB0004046514605F06FFBCAF120008145C8BF81464946404605F091FDEC77404604F022
:202ED00095FA726A12B1404621469047B8090FD3A96A69B10F46404605F06CFBA86238B9EE
:202EF00096F820205946895C4046C91904F0BEF9BDE8F88F54A700007CB54E4D0446686850
:202F10000E4628B94FF00040002103F09BFE6860002127A30A4605F082FC204628A3801EFB
:202F300004D0801E37D0401E22D00EE06868012E05D000210A4605F072FC24A331E0002129
:202F50000A4605F06CFC26A32BE0686800210A4605F065FC68680221002227A305F05FFC1A
:202F700001208DF801009DF801000028FBD17CBD686800210A4605F052FC6868022100223E
:202F900023A305F04CFC01208DF800009DF800000028FBD17CBD686800210A4605F03FFC45
:202FB0001FA368680221002205F039FC7CBDC0463E3E3E535441434B20415353455254009F
:202FD0002A2A2A4552524F522A2A2A003E3E20494E5445524E414C204552524F522100C0D7
:202FF0003E3E20494E5445524E414C204657204552524F522100C0463E3E20444546415539
:203010004C54205350494E4C4F434B2100C046C03E3E204943414C4C2041424F52542100DC
:203030003E3E204F5554204F46204D454D4F52592100C0460802002078B50D46E80787B047
:203050000BD506F033FA28B1002181603C48006800B1804785F0010070E0E80413D5394803
:20307000C11D0D3006F050FD37484268374800784FF4805104F062FB10B18E2002F0BCFE42
:2030900085F480505AE0A80505D506F0CAFA304901200860FEE7680504D501F06AFD85F45E
:2030B00080604BE0680405D5812002F0A5FE85F4804043E0A90440D5264C206810B1002080
:2030D00005F052FF244E4FF0FF30206006F018FD3168224C51F8202F684690472049214B36
:2030F000486A8A6A009001920293C86A0268086A0392ADF810000A6B1178002904BF506868
:20311000002805D19068002804BFD068002806D02170506860609168A160D068E0602146A6
:203130003468114A266811486B46B0471049086000F08EFB85F4005000E0002008B070BD11
:20315000204F0020AC450020784E00206E4F0020FC002043044F0020F04E002068450020FF
:20317000200C0020AD9400002C4D002028170020EC4E00202DE9FC4705466E68D5F8088091
:2031900037780FB1B76B1FB14FF0FF30BDE8FC8731630024F477171C74631BD006F13C09D4
:2031B00006F03BFB82466946484604F00AFC00281ED4504606F0E4FC9DF80000316B0870A5
:2031D000306B736B7F1E00F10100306303F101007063E5D17078726B316B0128A1EB0201AD
:2031F000316303D1F36828469847726B144659E0B763D8F80010086B40F400700863D8F8F3
:203210000010886B40F4FA608863504606F0B8FC06F5947005F0B0FD707806F5947768BB30
:2032300006F0FBFA96F82D1069B1716B59B1B16B49B1B46306F0A4FC06F5947005F08CFD88
:20325000706BBDE8FC8706F09BFC716806F1E805284606F0C0F80028F2D0B463284621461F
:2032700006F0B9F80028EBD0384605F075FD1027716B306BF777401A3063E1E706F0CDFA41
:2032900096F82D1061B1716B51B1B16B41B1B46306F076FC06F19800012106F0D8FA01E07C
:2032B00006F06EFC2046BDE8FC8770472DE9FF47484C94F8E700002876D13E4E01273C484F
:2032D000F57C84F8E770736884F8E6500068C4F81031C0F3801084F8E800684606F026FA3D
:2032F000002504F10C0001956B468DF80050324902952A4603F01AFF304904F130006B469F
:203310002A4603F013FF2E4904F154006B4681462A4603F00BFFB16838468847DFF8B08016
:203330002848327D08F104030078284E1868C0F3815A22B1BAF1030F04D184F8E170BAF185
:20335000030F17D0BAF1020F14D0BAF1010F0ED0022005F043F81C480068016804208847B1
:20337000012804D030683221B1FBF0F10DE004F037FC12E0022005F031F8BAF1030F0CBFFA
:203390004FF47A7142F210713068B1FBF0F1484606F03BFA484606F03AFA40460068C008EE
:2033B00002D2284605F01AF800200090BDE8FF8714100940C8A90000F75F0000714D0000E7
:2033D000F563000077180020E001001064180020B03F0050AC0800202DE9F84F5FEA000987
:2033F0001C46924600917DD0081C7BD0BAF1000F78D0002C7BD0206A002873D03F4D616A71
:20341000281D006800296DD0A16A06F095FB40B2002808BF6FF002055FD084F82C00207842
:20343000618800EB400009180C3188B2216A88473149AB46086030B9DBF8040006F078FB7A
:203450004FF0FF3549E08846668865882178D8F800008F192D183F1806EB4106361820467E
:2034700003F0EAFF2078C01C8010286020783F1DC01C8010386020780836C01C801030600A
:2034900022784946281D01F0E7FE28463A463346014606F031FB45B2227800983B1D194628
:2034B00001F0DAFE22785046311D01F0D5FE21786288D8F8000001EB41015218002102F0F3
:2034D00059FD616AD8F800008847DBF8040006F02FFBE8B2992808BF002584F82C50284678
:2034F000BDE8F88F1CB16FF0010084F82C006FF00100BDE8F88FC046884F00207C0D002089
:203510002DE9F041FF2807461ED106F0C7F810F0070F16D0042004F083FC08B104200AE0E2
:20353000012004F07DFC08B1012004E0022004F077FC20B10220BDE8F04104F08DBC05F0AB
:2035500013FD0020BDE8F08104F086FC8046012FD8F80450334E04D0022F29D0042F3DD0C6
:20357000EFE7022004F05CFC80B1022004F074FC074601207C6804F053FC28B1A068311881
:20359000A86806F0B5FA88B13846DBE7042004F047FC28B1042004F05FFC0746012026E0D2
:2035B000012004F03DFC08B94FF000084046C9E7042004F035FC28B1042004F04DFC07469F
:2035D000022014E0012004F02BFC28B1012004F043FC074602200AE00220E2E7012004F003
:2035F0001FFC88B1012004F037FC074604207C6804F016FC0028C7D0A0683118A86806F0AE
:2036100077FA0028C0D1D1E7022004F009FC30B1022004F021FC074604207C68E8E7042041
:20363000BFE700BF589EFFFFFEB5414E0C461746A0F20231082906D8DFE801F02F295F4E9F
:20365000211A76130CC02D286EDA022C6CD137493B8865E0012C67D13878042864DA09367C
:2036700013E0012C60D1387808285DDA08360CE0012C59D13878042856DAF61D05E0012C20
:2036900052D1387804284FDCB61D3070FEBD022C4AD138880A363080FEBD012C44D1F07864
:2036B0003978F17058B9387800283DD07078012818BF032838D1012005F000FFFEBD387856
:2036D00090BB707802282FD104F08AFC194902461020FFF7F7F9FEBD06F13F0500211F22EB
:2036F000284602F047FC39462246284601F0B4FD747104F075FC00230FE006F12005002187
:203710001F22284602F036FC39462246284601F0A3FD347104F064FC01230094064901954A
:2037300002461020FFF7CEF9FEBDC0465D8100003405002099450110094501102DE9FE43A7
:2037500004F0A6FBDFF80481814608F1020000880027001F84B2042C5ADBFF254FF6FF765F
:2037700020466946042204F0C1FDBDF800309E4237D0002B35D0D80BC2032FD19D422DD0CC
:20379000381FDDB280B2042815DBB0F5805F12DA00F18852126801A90A60BDF804108D4284
:2037B00007D0BDF80610401A001F80B20428ECDA01E0012300E00023BDF802001BBB211AEA
:2037D000001D8BB282B207F18851184604F08EFDBDF80200C119091D8FB214E0BDF80200FA
:2037F00011E0BDF8020003466FF30E0363B9011D8C4208DA002005F0B7FB484605F0A6FB80
:203810000020BDE8FE83241A241FA4B2042CA7DA03F072FF3FB10C484FF088513A4605F095
:203830008AFF05F06BFE484605F090FB4246507800281CBF0020011C03D1C7F58054391D39
:20385000A0B25180BDE8FE8304E00100E40E002038B5334C334B2568186855F8183F00225B
:203870004FF0FF3198473048304A416B304C88684179117006F038F92E4806F031F906F0F2
:203890002BF92D48026800215171A02301680722CB804A72032103681972002201684A7770
:2038B00000230268D3760021036883F85C10012201680A770123026882F85D300021006884
:2038D00080F85E1004F050F91C48D02130220023017042708370C370037143718371C37152
:2038F00006F0F6F81649174B0020087018801B201549164B08804FF4A47215491A80FB20F5
:20391000088040F64800134A13491080FB230B80208006F0D9F811490020087032BD00BF98
:20393000F04E0020EC4E00201CAB0000714F00204E4F0020CC470020104F00205018002021
:20395000794F0020524F0020444F0020464F0020484F00204A4F00204C4F00206F4F00203D
:203970002DE9F04391460A68D9F800401678804600271D463846ADF1140D242E02F1010231
:203990000A6058D11678521C4C2E0A600ED1AA68E41C24F00304241D54F8040C414603F081
:2039B00095F82968EF600127091A2960462E1AD1E41C24F00304241D54F8040CE41C02900D
:2039D00024F00304241D54F8040C002741460390AA68ADF8047001A801F078F82968EF60C9
:2039F0000127091A2960532E25D1E41C24F00304241D54F8040CE861C9F80040288B009027
:203A1000A968EA69D8F800004B46FCF7B3FED8F80040002744B1A9688142D8BF481ED8F860
:203A300000100918C8F80010D9F800402968EF600127091A2960662E0BD1298B012904D08E
:203A5000E41D24F00704083403E0E41C24F00304241D1FB9E9690E700127EF60C9F800409B
:203A700005B0BDE8F08370472DE9F84F0C4605465FFA84F8200824BF3148444031494FEA28
:203A90008803C85884EA00022A40C2F300672E4A05EA0406A843324005F4E0260243B6F5B8
:203AB000E02F01D1500E14D305F4E020074310D002F4E027B7F5A02707D0B7F5803704BF40
:203AD00022F4003242F4A02203E022F4803242F4C022DFF878B01E4F012000FA08FACBF887
:203AF00000A0DFF87090CA500146386801FA08F60027064218BF0F1C37B9E80D04D3494689
:203B1000C4F3805001F80800280E0DD305F085FE210E34BF0021311C0D4A1268B2431143D5
:203B30000B4A116006F02CF837B1E80D04D34846C4F3805100F80810CBF800A0BDE8F88F2C
:203B5000006000A000100840007F077FE0200260D0200240002002402DE9F843384C143CDD
:203B7000606F656F04F17409002866D00646F06840F603020827531C02E040687F1EFFB26D
:203B900060B15FB101888A4218BF8B42F5D131694CC820314CC189C881E8890005F12800C8
:203BB00090E80C00002705F12806B84686E88001A96879B138464FF0E24100EA020611EA31
:203BD00003070EBF002E02400B40AE682869B5F93C10B04705F021FE0646B4F9860047468B
:203BF000401C6FF31F30A4F88600484685F83F7004F0DEFF304605F0C3FFB4F984106068C5
:203C1000B4F986300246994217D192F8701000290CBF0068381C82F8707060B1B0F1FF3F22
:203C30000BD008490968AC34B0FBF1F1204605F019FBBDE8F88305F051F9BDE8F883C04676
:203C5000240F002064180020F8B505F0EAFC02F079FD05F0F9FC054605F00C000C2854D0E7
:203C7000E80826D204F084FD2A4E376804460120014605F0CFF831686143884219D22649F1
:203C9000F020B0FBF7F0241A887C18B1C868A04238BF041C214D2146284605F055FF284644
:203CB00005F04EFF0120FDF77FF8284605F050FF2DE0280929D21A4CA4F1200620688168A9
:203CD000184888470746042FF8D01748690905D227B101460A6822F0010203E001460A6873
:203CF00042F001020A6098310A6842F003020A6030688169202088470C4C37682068B86B06
:203D1000804701202060206801E005F076FD05F08EFCF8BD04AB0000C8A90000B808002026
:203D3000D8010010004003408C2108402C2009402DE9F84F374E0446B0688047344D05F1FB
:203D50000802116809191160F1688847286800285BD0A9464FF0000807463546C246A8681C
:203D7000804756461FFAA4F3834683B95FFA94F36BB93979E0B2884204DD79682046884217
:203D900009D20AE03879E1B2401A387108E079682046884201D3314601E07968091A796005
:203DB000B88878B9FB8853B9FB6843B13B8933B1B87A194600F00CFBF8687860B88808B933
:203DD000FB880BB13B896BB9B8F1000F04BF3868C9F8000003D03868C8F8000038683E4679
:203DF000074601E0B8463F68E9685846884756B1B08828B9F08818B9B07A318900F0E8FA03
:203E1000304605F073FB002FA9D1BDE8F88FC04624180020C009002033480178002900D1AB
:203E30007047F8B5491E032984B054D82F4C2068036803F10805062205F1080102A805F0E6
:203E5000A9F90622A91C684605F0A4F9287800F00F010329C0F3801543D16179C009C1F304
:203E70008001884232D12169062202A804F034FF60B36946284605F023FE38B31C4D294658
:203E9000684605F019FEFF2820D01A4A1A4F13681D214843997A2E18002918BF02290AD0D2
:203EB000012918BF032911D12A5C711C384605F0FFFD10280AD06B46F21D3146384605F0A5
:203ED000F3FD06226946F01D05F064F921680A680020107105E0002005F046F8862005F03D
:203EF0001FFE05B0F0BD00BF6F4F0020F44B0020AC450020104F0020CC4700202DE9F04727
:203F100007467D68BE6890468A4605F086FC81463068006B00F48071287800B119B14846C4
:203F300005F02EFE57E005F5827005F072FC0024EC77C5F820A06C623168086B40F48070C8
:203F50000863484605F01CFE05F2291004F014FF4146384604F02EFB05F22919A862A8B94C
:203F70003846414603F082F9A878D0B9A96805F1CC0005F030FAE8B1AC621020E877314676
:203F9000284601F0BBFE05F2291022E005F045FC3268916B41F02001916305F0F1FDA878B2
:203FB00010B12046BDE8F087A96805F1CC0005F012FA10B9686ABDE8F0873846414603F02B
:203FD00055F91020AC623146E877284601F096FE484604F0C1FE4FF0FF30BDE8F087FEE7CC
:203FF0002DE9F8430446994690460E1C44BF0020011C5AD405F027FC05468021304604F05B
:2040100005FA071C04D097F83F1031F07F0106D12846FCF7DFFF02200021BDE8F8834FF063
:20403000E0400A2107F1200640EA090941EA080896E8030008EA000019EA010608BF002824
:204050001CD02846FCF7C6FF07F1200003C804F1680604F1680508EA000809EA010986E831
:20407000000395E80C0007F1200696E8030007F120059943904385E8030013E00C48B96861
:20409000884202D0B9682166B86004F1580080E800032846FCF79EFF04F138004FF0FF3162
:2040B00005F099F9683494E80300BDE8F883C0467D6E00002DE9FE4F894605460CAF97E886
:2040D00003001E4601919046009005F0A6FB2B4F6FF0010A8346082007F5D07494F83F30CB
:2040F00033F07F033ED107F1AC0005F092FBB7F98400401C6FF31F30A7F88400C4F80C901A
:2041100084F83E80A660B7F88400009AA0870198022320211343002242EA000616482561CE
:20413000314004F118061840134686E8030004F1200686E80C006363214623634FF0FF360D
:20415000A663802284F83F2007F16C0085F8703004F03FFDF86E844201D102F087FCB4F9F8
:204170003CA003E0401E04F14004B7D1584605F007FD5046BDE8FE8FFFEFFF9F100F002027
:204190002DE9FE4FDFF8C08098F8990100284FD0002501212C4698F8992101FA04F01042E0
:2041B00003D1641C032CF6D342E098F899211020A040104218BF0D1C05F02FFB98F899216C
:2041D0001121A1408A4388F8992105F0D9FCE0B205F0B2F860B3877A57B390F90990194918
:2041F0000768012D446851F82960019710D0017A02290DD100F1100191E8000C00274FF0AB
:20421000805317EA0B0703EA0A0108BF002901D101F034FD012D04D0009600224FF0006370
:2042300003E000224FF00073009201984946A04798F8990120B108F58270002105F007FB14
:20425000BDE8FE8F94300440100F00202DE9F04116468846044605F0E0FA07462A488325E4
:20427000B8F1080F32D8DFE808F0463F3C313725150533C00446207CD0B9E06EC0B931687B
:2042900004F1D00005F0E5FA316804F5827005F0E0FA32E00446207C50B9E06E40B9316841
:2042B000192005F0C2FA31681A2005F0BEFA24E0002522E0306828B1012807D1802003F054
:2042D0005BFD1AE0802004F025FE16E0032514E030780E49087010E0316804460C342160A8
:2042F0000BE03088608208E00120E668607406F16000E06001E030682060384605F040FCBF
:204310002846BDE8F081C046100F0020A810002038B5274C0D46A80839D2E80846D32B4802
:2043300054380068006B8047A060E06E00280EBF60680069606040681E4900780860022002
:2043500004F04CF8112000F05DF90120207460684168886808B9C86810B1174805F08EF8FC
:204370001649174D072000230860296815482B606A686B60144B2A68636140EA02011A2086
:20439000296005F04CFA192005F049FA38BDFFF7E3FB204600F17401096811B902F066FBB5
:2043B00038BDD03045F0020105F051FA38BDC046100F0020D021084051000706000004604B
:2043D000141004400200004095200000E00100102DE9F843DFF8B0802A4E81460C4639F06B
:2043F0007F0018D1B9F1050F12DA284DA86880472349096831F81920144321F81940E968F6
:204410008847306841461431426A0868904734E00320BDE8F883042004F04EFB071C08BFC4
:2044300004202BD04FF6FF7038807C8005F06CF941468C78A7F10C05FF2802D0896A09184A
:204450004C79FF2C08D1384604F056FC3068806880470120BDE8F883484604F06DFC3368B1
:204470000146FF20A8721D68002220463B46A84718B1384604F040FCEBE70020BDE8F883A6
:2044900068180020F00E0020500D0020C00900202DE9B043044605F0C0F981462748221877
:2044B00092F8F010491ECFB2002F82F8F0703FD1254901EB84014A880C78904634F07F07AC
:2044D00018D1E1090FD24FF0805000F5DC75D0F8B8018169104688472868416B40468847A2
:2044F0000228F9D11EE000EB8800D0F804110020884717E04FF08055D5F8B801016A104629
:204510008847D5F8B801816A40468847D5F8B801016B404688470A49012008600949086811
:204530008008FCD304F03F00132801DAFFF7B0FF484605F025FB0020BDE8B083AC080020B7
:2045500028200860282008406CA60000294838B5001D0468B4F1FF3F08BF002404F06EF8EA
:20457000032833D12448254B002501211038184A056003F15C00224B0160181D006811609E
:20459000806C80471348006820B113480068204601F006F9114812490560124C0A686FF360
:2045B0005B4244EA020008600F490868C0F30130012806D10A680D48104040F400320A6023
:2045D00008600B4908680028FCD138BDFEE7C0460822044380012843000120438C21084014
:2045F000482003400000390104000940FFFFFCFC0C006842181300509404604200600C406C
:20461000EC010010F8B5064605F007F9264D0746711991F8F000421C002881F8F0203ED1BE
:20463000224C04EB8604267806F03F00132801DAFFF7E8FF648836F07F0018D1F0090FD269
:204650004FF0805000F5DC75D0F8B8014169204688472868416B204688470128F9D11EE033
:2046700005EB8405D5F804110120884717E04FF08055D5F8B801C16920468847D5F8B80169
:20469000416A20468847D5F8B801C16A20468847074901200860074908688008FCD33846D6
:2046B00005F06EFA0020F8BDAC0800206CA60000282008602820084030B52648244908606A
:2046D0002548ADF1140DFDF7C1FE24480468244800680023D9070246206050080143D00701
:2046F000801A4FF47A729941002300F0E7FE002908BFB0F1004F28BF6FF000406060194C84
:204710000025032004F1240141F80C5F401E8D60FAD104F154010620401E21F80C5BFBD153
:2047300001F048FD626810480392416801910368009381680291684602F008F903F060F9DA
:2047500003F0B8F905F0ACF9284605B030BDC046E80E0020092F000040A60000380E00205B
:2047700004AB0000C0090020B0A900002DE9F04114460F4605F090F91FFA80F8244800685F
:20479000007808B904F0FEFB0FB338684FF0FF3518B140280AD3810B08D17E681EB1310AAB
:2047B00004D0310E02D1B9680F2908D93DB10CB1284620700820FFF76BFE002422E04FF034
:2047D0008055D5F8CC11BA680B68796808E04FF08055D5F8CC01036801224FF48070014636
:2047F00098470C49012008600B4905F5E67508684008FCD328684168022088470CB10021B4
:2048100021700446404605F0BBF92046BDE8F0811CA60000A8025042088002402DE9FF41E4
:20483000284C2068002849D08578274F05F030F980B1032D05D00A2004F07CFC06460B2057
:2048500016E0282004F076FC0646292004F072FC804620E005F018F928B1062004F06AFC88
:204870000646072004E0082004F064FC0646092004F060FC8046012D12BF042D38780328BF
:2048900009D12068C178022908BF002102D0032914D10121C170387805F0F2F82168CA7AC8
:2048B00003920C1D8B7A029301940346C97800912A464146304605F0DFF800E0012004B0F2
:2048D000BDE8F0819C4E0020594F00202DE9FF41284B4768866814460D4601A81A68998881
:2048F00002609B798180A5428371A8BF2C1CB168786804F070FD78BB4FF00008CDF800808E
:20491000F068318A6D1C16A22B4604F081FBA41C0246AC4213D9641BF06801A90B688018E4
:20493000036089888180308A921D801A082804D23868F16804F018FF4246641EECD1F068C6
:204950000BA10988801801803868F168921C04F00BFF786804F073FF0090BDE8FF81C0464B
:204970001B371B5B3130721B5B25643B256448001B3800C0CCAA00002DE9F84F1F468B4665
:20499000161C14BF4FF080484FF0005804F045FFDFF884A0002503248146BBF1FF3F06D15D
:2049B0005046C36F002B0CBFC06EC06F03E05846294603F02BFD40B390F83F4034F07F0420
:2049D00022D05446E16F81420DD001463A4602F083FBC8B1207C012814D004F1D00002210A
:2049F00004F035FF0EE043462A4603F045F8002E14BF0A480A4803F051FF1FB1E16E3A46E1
:204A100002F06AFB832400E00424484605F0B8F82046BDE8F88FC046100F0020010002046F
:204A3000010001042DE9F0410646B76875688846ADF1280D684604F04DFB00248DF801405C
:204A500078680690012003F051FE6860686840B102F018FF3878694602F034FF286028683F
:204A700008B9264617E00421224604F078FE98F80000401E08D0401E04D0401E14BF201CA6
:204A900007A002E008A000E009A0A86028680AA1122204F069FE30460AB0BDE8F081C0462E
:204AB0001B5B324B00C046C01B5B304B00C046C01B5B314B00C046C01B631B5B324A1B5BD8
:204AD0003130721B5B31313B314800002DE9F843002A8946074604D4B2F5004FB8BF95B244
:204AF00001DB47F6FF75002F08BF002034D03888002808BF002403D02A4601F0AFFA84B219
:204B1000AC4228D0388830B1291B484613A202F037FE001984B2B868E8B17E688EB13046AD
:204B300004F028FCA5EB0408401D1FFA88F1884207D833464146484609A202F021FE0019B6
:204B500084B2291B122906D3BB68484606A202F017FE001984B22046BDE8F8833A2000C068
:204B7000222573222C2000C06C696E652025643A200070472DE9F047DFF898A0DFF8908098
:204B9000002501244FF002091126E8B204F0D4FB071C37D0B87A012834D197F90900AAF11F
:204BB0001401113004FA00F0C2430A604A681043486097F9090004FA00F0C0B204F0AAF9F5
:204BD00007F11000002103F065FD0146812909D1B86918B1002103F05DFD0146812908BF6C
:204BF00087F80A9081290DD008F2991197F909000A7806FA00F01043087008F5827000217B
:204C100004F025FE6D1C032DBFD3BDE8F087C046100F00201C100440F8B5244F7E681EB974
:204C3000BDE8F14004F024BF3078401E012801D9C01E36D104F02CFD002832D03078FEF7E5
:204C50005FFC0446656815B9002004F08DF944B32078A64205D101281ED0002004F084F975
:204C70001AE001281DD1124912480A681249137AC05C087004F0F8FE00F5C24000F1A801F5
:204C9000A86804F035FF28B904F0EEFE00F5E8504C30A8600120B8702046BDE8F24000F0E4
:204CB000E5BEBDE8F240002004F05EB930180020104F0020289A01106F4F00202DE9F04160
:204CD000904606460F1C08BF05243FD036F07F0003D02248006880688047052EA8BF0324BE
:204CF00007DA57F80C0C18B917F8020CFF2804D00524384604F000F828E007F8026C154C0A
:204D1000154DA068B8F1010F13D080470246002047F80C0CA868002808BFAF6005D00146CD
:204D300051F80C0C18B941F80C7C104606E00146F6E78047A96847F80C1CAF60E1688847AA
:204D500030464FF40041FFF743FB00242046BDE8F081C046C0090020500D0020F00E0020EB
:204D70002DE9F04104F059FD244D214E804605F1E000007848B93446A168022088470746DC
:204D9000102003F017FA77B31BE004F05DFCC0091BD21B483C380068C46816483421012266
:204DB0000023A04788B101F0C3FB34460020A16885F8E000022088470746102003F0FAF99D
:204DD0008FB1A168032088470DE00B4800683221B1FBF0F101B901213035284604F015FD4B
:204DF000284604F014FD404604F0CAFEBDE8F081C8A9000000A00C4064180020AC0800200B
:204E1000E00100102DE9F0410E46071C14BF002E002040D0224C4FF0FF3104F128008046E2
:204E300004F0D9FA3078FE2811D022680021FF2808D082422AD31F2828DA04EB8000D0F801
:204E500098501DBB491C16F82100FE28EFD1002038607860B8603078FE2818D00125FF285D
:204E70000FD01F280DDA7B6804EB800105FA00F0C1F898701843094978603268384602F083
:204E900027FF16F8040FFE28E9D100E00027404604F0D5FC3846BDE8F081C046007FC76742
:204EB00098070020F0B520480127F84201D002F051FA204D204F214EBD4206D203CD047838
:204ED000A4003459401CA047F6E71D48002800D08047164D164FBD4202D210CDA047FAE70D
:204EF000F0BD03251BE0416808300A1C2A400BD11A1C2A40AB4305D0046804300C600431E1
:204F1000043BF9D1131C05D0047801300C700131013BF9D1021C2A4001D0A8430430036830
:204F3000002BE0D17047C046FFFFFFFF000000000000000094AE0000FCAE00004CAE0000E6
:204F500015C4011022482DE9F0410068806980472049234D0F686E68B7F57A7F17D00021BB
:204F7000801B3A4688460B4604F020F94FF47A72002300F0A3FA04464FF47A72002304F06B
:204F900015F93A46434600F099FA301800E0841B6860124D05F10800006880470E4E316857
:204FB00072680919B1F57A7F0AD34FF47A73B1FBF3F7D2197260B1FBF3F707FB03F2891AB6
:204FD0003160E96888472046FEF7B2FEBDE8F081F00E0020680D00205C0E0020C0090020C9
:204FF000241800202DE9FC4792460D46826844689168D768B2F810806068994604F0EBF93A
:205010000028504632D1FF2D10D0401CA8F102016B1C009016A2384603F0FAFF0646A0682E
:2050300028B10168F019361D016000E000260A9BA8EB0601F0194A46891E04F00CFCFF2DB4
:20505000064406D10D22701C0A21BA55461C395404E00BA00188F519B61C29802068394693
:20507000324604F081FB606804F0E9FBBDE8FC871B371B5B3130721B5B25643B25644800CA
:205090001B3800002DE9F84F81460020C9F80000684601F061FE204FDFF880A000264FF0DF
:2050B000FF354FF0190B34468046E0B204F044F9B8B1837AABB1017A0126022915D07968F1
:2050D0004A8A4069C968891897F89A210BFB021103F0CAFA51460968B0FBF1F0854288BFB5
:2050F000051C641C032CE0D300E00025B8F1000F04D0012E05D0B8F1010F05D0012E04D0F7
:2051100005E00098854200D9009DC9F8005046EA0806F0B2BDE8F88F100F002064180020CD
:205130002DE9FE4F214C80460CAF1E460192A0683D7800918047A146B8F1000F029005D1FB
:20515000D9F80C1088470220BDE8FE8F184800274FF00F0B4FF0010A041F54F8080FD8B9EE
:20517000012D0CBF134B144B1148019A008897FBFBF140180AFA07F1C0B2984760B9009819
:20519000C4F80080606006B13770D9F80C10029888470020BDE8FE8F7F1C0F2FDDDBD9F89B
:2051B0000C10029888470820BDE8FE8FC00900205C0A0020697C00004D7700002DE9F84F8B
:2051D0000C468146E00BC00318BF84F400443BD1002C08BF002038D0DFF878A05546A868A4
:2051F000804783461A4801884FF000080126474606FA07F2224203D17F1C0F2FF8DB1DE04F
:205210004D46EA01FB00001DA2EBC502CD01A5EBC1018D1AED189B1A5B18C158BE401FFA70
:2052300086F82D1811B11B18586888474846414602F0F4FF10B9002028606860DAF80C10F6
:205250005846884788EA0404A0B2BDE8F88FC0465C0A0020C0090020002A4AD05FEA000CCB
:205270008B071CD1830722D1102A08D370B4103A78C978C0103AFBD270BC103238D0042A6B
:205290002CD3082A05D30C2A24BF08C908C008C908C008C908C092072AD0920F22E00B7858
:2052B0000370491C401C521E22D08B07F7D1C30714D18307D8D0121F12D308C903801B0C7C
:2052D0004380001D121FF8D20AE008C903701B0A43701B0A83701B0AC370001D121FF4D259
:2052F000121D05D00B780370491C401C521EF9D160467047FEB584684668206803F08CFCFC
:20531000216820488A6B1040886340F2F27120681D4D416494F82000295C94F821004019F9
:205330008079084321684863684604F06AFA317F05EB81012068B2690B6A717F05EB810143
:2053500089691943B37F05EB83052B6B0B43019903F050FC2168C86A40F01000C8622168DA
:20537000086B40F001000863A07D0027FF2802D0E07DFF2800D11FB1086B40F4404008631A
:20539000FEBDC0460DF8FFFF48A70000B0B5456884682349607DA27DADF1180D40F00040B1
:2053B0000090207D0027FF2A41EA000001904FF0020002D0E27DFF2A00D13FB1E37DA07DCB
:2053D0001943039140F0004002900420FE214DF8201005F154006946FFF714FD286600285D
:2053F00008BF381C1AD0617D0F2202F0DFFF286E217D102202F0DAFFA17D3846FF2902D0F2
:20541000E27DFF2A00D140B1286E112202F0CEFF286EE17D122202F0C9FF012006B0B0BD84
:205430000000C0A02DE9F8432020EFF3118780F31188214CA068012104F012FB4FF0010904
:205450004FF0000865692168A4F81C906A1A2168A4F81E80461B401A904227D387F3118875
:2054700040462D18361A4846294604F0F5FAB042F7D92021EFF3118781F31188E18B012901
:2054900003D14046294604F0E7FAB0F1FF3F06D0A169801B814238BF081C291801E0A069FB
:2054B000411904F0D5FAA4F820902560A4F81C8087F31188BDE8F883780100208B4208BF56
:2054D000824204D90B1C021C002100207047002B08BF002A0BD10B1C021C00210020002B35
:2054F00008BF002A1CBFC943C04302F078BDF0B51C4615460B46024600200021B4FA84F636
:20551000202E04BFB5FA85F62036B3FA83F7202F04BFB2FA82F72037F61BB6F1200727BF70
:2055300005FA07F400257F42B4403EBF25FA07F73C43B540A34208BFAA4201D3521BA3413C
:20555000404149416D0845EAC4756408761EF1D5F0BD70472DE9F041DFF8888004680E4643
:2055700017464FF0FF31404603F035FF4FF0FF35092E08D0217A0120B040084212D10843FC
:205590003546207211E0237A0521012000FA01F2134202D0491EF9D504E0227A88400D4635
:2055B00010432072B5F1FF3F15D0A7B1062002F015FF2946384600F061F80746062002F00E
:2055D0005DFD47B1217A0120A8404FF0FF3580F0FF0008402072404604F031F92846BDE852
:2055F000F081C046DC0A00202DE9F043224C81461D4604F108002F68006816468846ADF179
:20561000240D1FBB0C2000F0EBF9071C16D0684600212422082304F017FA002306974946D2
:205630006A46ADF810301348059304F009FA386038B9FEF7D4FC384602F0ECFC6FF00300D3
:2056500015E0C7F80480BE602F6008E080470546386804F07DFABE60E1682846884738680C
:20567000494604F071FA386804F06AFA002009B0BDE8F08327960000C00900202DE9F04156
:2056900080461F4800680D46416927208847012404FA05F61B4DC5F80064C5F87C47032701
:2056B000C5F8807718480460C5F88477D5F80404012818BFC5F80444C5F8FC6313480460F5
:2056D000C5F800801023AB60204604F075F8D5F88C076FF39D000028F6D0D5F88C17204655
:2056F00011F0404F09D1C5F884770021C5F8FC16D5F80024164218BF081CBDE8F081C04628
:20571000B00100100440024000E04842000048422DE9F843DFF87C808946054617464FF064
:20573000FF31404603F057FE1B4C04EBC5046668256804F072F81949097801290CD1296808
:20575000002909D405DCB9F1000F09D04FF0FF3108E0B9F1000F03D004F012FA002413E0C6
:205770002968491C296004F00BFA286802280BDA1FB9684603F0FDFF6F4638686860C02789
:205790002F727068FEF73EFF404604F058F82046BDE8F883DC0A0020B4AA0000070F002064
:2057B000204A2DE9F04180460124A2F13000046019480768002FFCD01B49184DC0200B1F78
:2057D00028601868800806D253F8040C144B000C40F0F000187000204FF080571060D7F86E
:2057F000F0010E68016830468847D7F8F0014268314640469047D7F8F00181683046884758
:20581000D7F8A001C1680220884740202860074E3460BDE8F081C0469402224300600C405A
:205830005662084040100940B43F0050940460422DE9F843204D0746A868804781461F4832
:2058500083686FF00B06002480469BB113F8020C874208D134B16BB138464FF40041FEF7F4
:20587000B7FD0CE01C460CB9A3F10C0653F80C3C002BEBD138464FF4004102F0B5FCACB12F
:20589000A8688047D8F80810A4F10807A14219BF54F80C1C316057F8041CC8F8081000216D
:2058B00047F8041CFF26BE71E9688847E968484688472046BDE8F883C0090020500D00206B
:2058D0002DE9F8438146EFF31188202080F311881E4D1A4C184F012605F11C000660A4F16D
:2058F00014000660F86A016A14208847D9F81000810C14BF000C042020603868026823210F
:20591000002090470E480F4F0660386800280CBF311C03210C4807680FB141F00401183C55
:20593000206820F4E02040EA014020602E6088F31188BDE8F883C0468401001018200940F2
:2059500080022443E0AA0000E4AA0000000024432DE9F04106467468B56803F05EFF80462D
:20597000A06A58B928688169090907D2006B400A04D2404604F004F9BDE8F08104F5827094
:2059900003F047FF00274046A76204F0F9F8A97D3846FF2902D0E97DFF2900D118B12046F7
:2059B000294600F0ABF903F038FF2A68916B21F0200191632A68116B21F48071116304F07A
:2059D000DFF804F2291003F0C7F9606A216A091A21622369626A30469847BDE8F081704789
:2059F000F8B5041D14F003001CBF241A241D03F009F81D4A054657691561102C88BF976909
:205A1000386800231E46010821D226B9844209D93B4601261EE0196809188C42196019D84C
:205A30001F460846DFB1D169001B042807D23868091AD161386840F00040386005E03851AE
:205A500044F000403860091BD1613F1D07E080F0004000263F1838680028D4D10027284662
:205A700003F0DFFB3846F8BDC00900207CB5040004BF002003F078FA16494C60606900B12B
:205A900080476068017B01F00F0102290CBF806803F0EAFFA0601049104B0878002814BF01
:205AB0000F4810480021CDE90001022261680E4C0E482568006855F8086FB0470C4910F1AC
:205AD000020F088004D1BDE87640002003F04CBA73BD00BF30180020784E002029870000E7
:205AF0000204848002048080F04E0020EC4E0020424F00202DE9F0431E4D04460027994619
:205B10000E46A2EB0408ADF1140DC5F8B071012003F052FE2868C00FF9D3286A0090686A68
:205B30000190A86A0290E86A03903CB12346684610F8011B5B1E09F8011BF9D10320C5F8D3
:205B500038023D467CB142462046EC462B469918745C1CF8011B401E03F1010381EA040143
:205B700041EA0505F3D1002D14BF0420381C05B0BDE8F0835045024070B506467468B56896
:205B9000206E03F038F929681A488A6B10408863002020703046FFF7DBFE304601F026FCA2
:205BB0002968C86A20F01000C862296812480A6B104008636868FEF76BFC04F17C0003F01D
:205BD0002AFE04F1980003F03CFEA07818B904F1CC0003F032FE607818B904F1E80003F08D
:205BF0002CFE04F5827003F00AFE04F1680003F033F870BD0DF8FFFFFEFCFFFFBCB51E4C07
:205C100004F16C05E16F28680029074631D158B3684601F0A1F828B1009818B1082002F01F
:205C3000ABF8BCBD082003F075F9284602F0C0FFE06707F1180003C80E49C4430B1F1C606A
:205C50001A681042FBD10A6810430860F869C04341F80C0CF86951F8082C104341F8080C34
:205C7000F86802F01BFEBCBD04F1D000022103F0EEFDBCBD14100440100F0020F8B5074650
:205C900003F0CBFD044687B3B87A70B397F9092003F002F8012303FA02F1CDB250B1164EC2
:205CB000113203FA02F0331D1A6882431A60C64343F8046C0020B8610346BB723B7207F189
:205CD00010063B60024686E80C000A4A7B6002F5CC7003781943017092F89A0110B1401E53
:205CF00082F89A01284602F047F8204603F048FFF8BDC046100F00200810044038B50C46AB
:205D1000054603F08AFD2268916B21F02001916303F036FF286E217D012201F0B1FB286E50
:205D3000217D012201F0F0FF286E217D002202F03DFB286EA17D002202F038FBA8780128EE
:205D500006D005F1CC004FF0FF3103F044FB03E0216888690009FCD2286E217D102202F06E
:205D700025FBA17D0020FF2902D0E27DFF2A00D118B1286E112202F019FB38BDB0B51D4C07
:205D9000E06F04F16C0570B32869806903F066F90746286900233A4601F06EFEB80806D2D9
:205DB0000FB328694FF48041C4F8800017E028690F4F8269396822F00202914339602969B9
:205DD000CA6957F8083C23EA020147F8081C296905F1080002F0FDFE00200221286104F13C
:205DF000D00003F034FDFEF7C5FEFFF707FFB0BD14100440100F002038B504461948417886
:205E10000A062DD5184D287870B1184A117859B9032002F051FE010022D09120087010228B
:205E30004A708C70287817E00C2002F045FEB8B101210170FF2200F1080342704360042111
:205E50001970102341684B70012241688A70014642680748D4700078BDE8344002F05CBF2A
:205E700031BD00BF1C4E002073180020624F00207118002070B51C4E1C4D3178044628782B
:205E9000891C8842A4BF002003F06EF80022A968182353431944487828B90B78FF2B0DD01B
:205EB000686881420AD13178521CD2B2891C8A42EDDB002003F058F8002070BD0020486018
:205ED00048610C700120487028786A78401C28702243C0B201281CBF802C402C6A7000D1A0
:205EF0006960084670BD00BF7B4F0020301800202DE9F041074603F007FC16461A4AD21E03
:205F10009478A6F10C05FF2802D0926A12185479DFF85080FF2C04D140460068806880478D
:205F30001DE0084602F008FF01464346FF20A8721D6837B92046EC6B00223346A04740B15F
:205F50000AE0012F08D120462C6800223346A04710B90020BDE8F081304602F0CDFE01206F
:205F7000BDE8F081F00E0020530D0020002213460A46194671B510F0030F0BD0002A82BFB5
:205F900000F8011BB2F1010210F0030FF6D1002A08BF71BD11F0FF0141EA0121042A18D3D8
:205FB00041EA0141082A0FD30E46102A08D30C460D46B2F10F0312F00F0272C0103BFCD829
:205FD00012F0080F18BF42C012F0040F18BF40F8041B12F0020F18BF20F8021B12F0010F4B
:205FF00018BF017071BD70472DE9FC410446002003F014FA184E0546B0688047804601F05F
:2060100047FF074604222146284603F094FB384602F09CFF0025012702E02D1D241DADB23C
:206030003846411ECFB278B128466946042202F05DF968462146042202F02CFD0028ECD004
:206050000449012048700870F16840468847BDE8FC81C046E40E0020C00900207FB5034644
:2060700017480D46018817480088144611A6984216DA994210DA0095002C48BF47F6FF74D6
:20609000114E00201149ADF804406A46346802901846A04702980AE0184602F0ABFF08B9CC
:2060B000324600E042682146284601F069FB00907FBDC0467B6D6F64756C652325647D00A8
:2060D00056AA0000DAAA000018AB0000D9870000FEB50C46154640F67B41A21F8A423CBF2F
:2060F000AE1F8E4229D2A54227D3B3F5FA7F24DA0899A1F10A0640F67747BE423FBF5B1C4C
:206110006E005E43B6EBC10F17D290F8941041B1D0F834010A21B0FBF1F1C9006B439942E1
:206130000BD30C990B98019100900A9B099A2946204603F081FC012801D10120FEBD002083
:20615000FEBDFEE7F8B51A4C0546A06A2860E069686002F057FCA669844600200746C4F847
:2061700010C003463C4612E0110809D21FB91346304601270AE001689B188918016005E0D2
:2061900082F000420027A34288BF1C1CB6183268002AE9D19C4238BF1C1C604603F041F885
:2061B0002046082894BF00200838A860F8BDC046C0090020F8B5184C207801282BD0174EA8
:2061D000012026F00306164B2662226A207004F124050020314662629B1B2F68A362F61891
:2061F00001E041F8040B8E42FBD8991002EB810123F0030341F8040CE8213960EC3BC2F8C6
:20621000E830E8326261FFF7EBFBA06128686061A06A001FE061F8BDC00900207C1800208F
:2062300000400020B0B51A4C0546241D20680004070C27D01448006800688047134991F928
:206250000720824205DD10F1800FB8BF6FF07F00C871BD422CBF01277F1B8D88BD4210D89B
:206270000A68D4F8D40F801A801C1F2888BF1F207F1B4008C7404FF6FF70EF19B84238BF54
:20629000071C8F80B0BDC046EC0100105818002030100940BFB50C46E00BC00308BF0020D8
:2062B0002CD017480078FFF7C3FA071C23D03B68186900905869019098690290D8690390C5
:2062D0007D6859689A681868DB68A8473968086017F8080C01F0F8FD0546012002F0ECFBFD
:2062F000021C08D0422035F07F07107003D000202946FFF7FDFD84F40044A0B20090BFBD9F
:206310007818002080B51448006808B103F0EEF81248006808B103F0E9F81148006808B169
:2063300003F0E4F80F48006808B103F0DFF80E48806808B103F0DAF80C48006808B103F018
:20635000D5F8002002F010FE09480078BDE804404FF48041FEF73CB8104F0020144F00209F
:20637000184F00201C4F002030180020601800206E4F00203EB50D46290411D5164A1078DD
:20639000FFF756FA040009D02078032812BF0128E06801F005F8204602F0AEFC85F4004517
:2063B00068070AD50D4A0821D2E90034CDE90034684603F03EFA85F0040528070AD5084A6F
:2063D0000821D2E90034CDE90034684603F031FA85F0080528463EBD7118002054AB00004C
:2063F0005CAB0000174810B50068016804208847022821D003281FD001281AD01248006894
:20641000C0F38150032805D002280CBF41F28832322201E04FF47A720C490D4C09684C3403
:206430002046B2FBF1F103F0F0F9204603F0EFF910BD01F0D5FB10BD01F0D2FB022001F00E
:206450001DFE10BDE0010010B43F005064180020B40800202DE9F8430024002B16460F4647
:206470008046254606D5002FC3F1000302D57F42761E2D2599463846494601F043FA0CA0D6
:20649000405CB7FBF9F7002F04F1010408F8010DF1D1A64205DD3021301B401E08F8011DD3
:2064B000FBD10DB108F8015D4046BDE8F883C04630313233343536373839616263646566D6
:2064D000000070472DE9F0410D461E4690460746062D26DA062F24DA02F094FA1349AC00E6
:2064F00004EBC5040246543164186068B0B1104602F097FE06F8087C06F8075C06F8068C12
:2065100060683146083002F06CF8606840684FF0005103F0FDFA0020BDE8F081104602F036
:2065300080FE6FF00200BDE8F081C046C009002038B54FF08055D5F8E0010168012088475F
:20655000012822D0D5F8A401C4681148342101220023A047002808BF002017D0D5F8800054
:2065700002F0D8F9D5F88C01C06A80470A4A094C93681168D060C01AA1EB910104FB00F3C6
:20659000180C884228BF011C1160012038BDC04600A00C4040420F000018002098B5164C08
:2065B00094F8E100002710B91448007860B103F034F994F8E310002906BF012184F8E3106B
:2065D000012703F0DDFA0FB1002098BD022001F005FF0E20FEF716F8094A106848B909491E
:2065F0004020C86008600127D761002084F8E20098BD012098BDC046AC080020DDA9000092
:2066100004800C402C500C40012898B527D116480068016801208847012820D002F028FA18
:20663000134C012104F1D800017003F00DF8800917D20E4800683222B2FBF0F707B90F4666
:20665000083C04F1300003F0E4F804F13000394603F0DBF804F1300003F0D9F801E000F0CE
:20667000C3FF002098BDC046E001001064180020B40800202DE9F041066890460F4602F092
:20669000B3FE4FF0FF35012410B902F0D7FE30B184F00104E0B2002808BF002100D071686C
:2066B0000D4C204602F097FE90B9B7F1FF3F0CD0062001F093FE39464046FEF7DFFF0746AC
:2066D000062001F0DBFC07B90025204603F0B7F82846BDE8F081C046DC0A00202DE9F041F8
:2066F0000D461E4690460746062D25DA062F23DA02F088F91249AC0004EBC5040246641856
:206710006068B0B1104602F08CFD06F8087C06F8075C06F8068C60683146083001F061FF34
:20673000606840684FF0004103F0F2F90020BDE8F081104602F075FD6FF00200BDE8F08114
:20675000140A0020164880B507683FB315498B6803EA5300C00E21D2134A106880081DD259
:20677000486880081AD21068096810F0050F4FEA114101F0F00101F5E0710AD1B9420DD27F
:20679000190F38BF40F00100D90E38BF40F0040003E0B94202D920F00500106080BDC04606
