:2000000000400020A97D000001C9011001C9011001C9011001C9011001C9011001C9011038
:1C00200001C9011001C9011001C9011001C9011001C9011001C901103FC9011089
:20003C002DE9F04F0F46BA4C0168E16241688068ADF1140DE060B748A1608047B648E16AA8
:20005C000160A168DFF8E8A24160E168DFF8DC928160B249002FA346C16066D03D68A8688A
:20007C0008B1AF490160E86808B1AE490160AE4C2878207068786070A878BE68A070317818
:20009C00B268E1707368A2602E696360EA6926627968E2620868E06068696062A8697B686B
:2000BC00A062286A9E68206395F8240084F834001EB9002009F05AFC00E066617868C068B1
:2000DC0018B9002009F052FC00E0A0617868006918B9002009F04AFC00E0E06178684068C9
:2000FC0018B9002009F042FC00E0206128692062F86881680E6806B9C14EC0494FF001086A
:20011C004E60C66881F8018036B9002009F02EFC4D462E68F86801E04D462E60006854462E
:20013C00FB68A0615868E06107E0002009F01EFC4D462E684FF001085446361DB14936682E
:20015C00621C04F114035020B04710B1286880688047DBF808008047AC4E002781463B4687
:20017C00A94877706946206104223370384608F03BFD0098B0F5801F0CD020B908F0A2FFBA
:20019C0003F028FB08E007F067FE09F0EDFE0427778002E008F096FF04270020A34E2A68A6
:2001BC00A0600346B360906980477060984880F80080002141800A2009F0BEFEFF210A2252
:2001DC00A0620AF08EF8E01CFF2102220AF089F80A2009F0B1FE8F4E3060306800210A22A2
:2001FC000AF07FF8002000F0BBFA404608F008F989480188FF2906D1022101807822001D7A
:20021C0000210AF06EF8032000F012F983482B6807705F68002103AA102001ABB847A06AD4
:20023C00E1690527401D9DF80C207F1E00F8012BF9D1891EE161DBF80C104846884704F159
:20025C0020002B68626A049040461F69DFF8D08104F120034146B84710B12868806880479B
:20027C00B04609F067F85FEA000903D004F04CFF4FF0FF39002637E00298216910F8062C9E
:20029C00A0F10C07032A02D171B388472CE0A16A9DF80EC005223046491E11F8013F9C4503
:2002BC0006D0521E00F10100F7D14FF0FF0A01E05FFA80FA2868BAF1FF0F00F1080011D003
:2002DC00387908F04BFAB979012904D0022904BF0299887001E0029908700299504609F045
:2002FC000FFA01E0006880472868C3690DF10E0102AA0DF10D0098470028BDD0D8F80000E5
:20031C007700C35BB3B9761CF6B2052EF8DB34E0280A002041490010F844002084A60000FA
:20033C006BA2000071A20000880C0020680F0020B80D0020052E20DADBF808008047D8F8B2
:20035C000010002231F807A0CA53DBF80C108847344850F8262026705146304690470646D4
:20037C00FF202070DBF808008047D8F800107A5A16437E52DBF80C10884708F0DBFF074656
:20039C00B9451AD007B9284FE069B84238BF071CDBF80800804781462868016A206A884708
:2003BC00626A28681E49049B521C6262C6683846B047DBF80C1048468847A7682968606935
:2003DC0014318FB9D8F8000005270026835B33B10969606988472968D8F8000014317F1E43
:2003FC0006F10206F2D103E0096988472968143109684FF0FF30884733E7C046CC0E00205D
:20041C00B77B0000C5940000D19B00005C0F00203C0C002014190020C40A0020241900203E
:20043C00B1870000F8B400008EC2F528D0180020DFF800F0598801102DE9F04F0178D029C7
:20045C00ADF14C0D40F06F810646C24DB078AC786968AB46002800F06381401E00F09580A1
:20047C000C3840F06081F078032840F05C8137690FF2B8284146384608F0E0F90FF2B82932
:20049C0082464946384608F0D9F9BAF1000F04D1002800F04881022000E00120401E15D0CB
:2004BC00401E26D10820012108F078FE82463069494608F0C3F90827B8460246514612F859
:2004DC00013B7F1E01F8013BF9D112E01020012108F064FE82463069414608F0AFF91027CB
:2004FC00B8460246514612F8013B7F1E01F8013BF9D1404406270BA9001D10F8012B7F1ECE
:20051C0001F8012BF9D196F90B90082C34DA5CB1B035274650462946424608F0A1FF08B325
:20053C007F1E05F11805F5D1E50005EB0415514642465D44B035284604F070FF0BA90A689F
:20055C0005F11000026089888180B8F1100F85F8169014BF00200120641CE875E0B28BF814
:20057C00020009E00BA90A6805F1100002608988818085F8169002E0504609F00FFB30699D
:20059C00327B002105F080FFCDE0734803C8002C80B20D9000F0B4804FF0000A504610902C
:2005BC000BF1B0060F906D4D1190DBF8040009F05CFDF77D002F0CBF4FF008094FF0100934
:2005DC004C4614F0070F03D004F00700241A08342F68B7B94FF0FF30A860FA27EF6040F6E8
:2005FC00B83008F065FC002868604BD047F6BC7710986F61034628612F1DAB61A8682F60E2
:20061C0020E078680346002B0A931BD408A90AAA91420AD33B6801468A0002EBC102D218BB
:20063C00926809AB934209D80CE03A68810001EBC00189188A6809AB934203D209A805F0E7
:20065C005DFF78687968431C491C7960BA68386809939A4208D152009100BA6001EBC20105
:20067C0007F0BEFD386068B1099A910009AF01EBC20101EB00082046C8F8087008F018FCC2
:20069C000E9008B909F025FE0E98119CC8F804004A4608902146C8F8004005F0F5FE089895
:2006BC0031464A4604F0BAFE06A80822214605F0EBFE06F1100106A80A6889880260274646
:2006DC0081800D98089C009006AB019493E8030002AC84E8030096F916000490DBF8040033
:2006FC003A4617A3394608F044FD08A805F042FF9BF802400AF1010A1836A245FFF655AFFD
:20071C00E2000BF1B000002102EB041205F0BCFE00208BF801008BF8020008F0F7FB02E067
:20073C00084609F0A2FC13B0BDE8F08F5441524745544445562D00C0414E432D00C046C079
:20075C00414E432D2578202573202578202564200A00C04608020020E81200508C1800205B
:20077C002DE9F84FA949AA4AAA4D08700821002010600D23A84840F2353201704380828003
:20079C00A6480560AC7EA6480470FF2CE97E417008BFFF292A7F82706B7FC370AE7F0671D0
:2007BC00ED7F457114D1FF2A08BFFF2B10D1FF2E08BFFF2D0CD19B490A7802704B784370D0
:2007DC008A788270CB78C3700A7902714979417195490278DFF85482DFF854920A70FF25C9
:2007FC0043784B7082788A70C378CB700279914B0A714079487188F8005088F8015088F898
:20081C00025088F8035088F8045088F80550002089490880D9F83440884960780870227874
:20083C0087491A70A0780870A2681079854A411E1170E0788449854A0870E068106008B98B
:20085C0009F094F860698249086008B909F08EF8A069DFF800A2CAF8000008B909F086F83F
:20087C00E0697D49086008B909F080F87B4C7C4E207909F061FB3060F0B16079794F09F069
:20089C005BFB3860C0B1A079DFF8DCB109F054FBCBF8000080B1E07909F04EFB7349086065
:2008BC0050B164490A782078921C504380B209F043FB6F49886018B9BDE8F14F05F0EABFB6
:2008DC00316801200871326815733068457331688D733068C57331680D7400213068457462
:2008FC0000203268D172A0223168487103213068C28001720720326850720021306881722B
:20091C002821306801224182C2760020316848770022306880F85E2001213268117701202F
:20093C00316881F85D0001223868027139680D733868457339688D733868C57339680D74E2
:20095C0000213868457400203A68D172002239684871386882724FF420703968C8800881A7
:20097C008A7401213B68D974DBF800201573DBF800104D73DBF800209573DBF80010CD730F
:20099C00DBF8002015740022DBF800104D740121DBF80030DA720023DBF800201171DBF81D
:2009BC0000104B71DBF80010C88008818B720520DBF800209374DBF800102E4AC874106870
:2009DC008047DAF800100A6805469047DAF8001051F8042F00209047D9F80C101A4B0A8885
:2009FC001878254902430A802846244A13689847404600F045F800F047F8BDE8F44F0348C3
:200A1C0000784FF4005103F06FBE00BF6E4F0020044F0020B63F0050604E0020084F0020F5
:200A3C002C4E0020E81200503C4E0020344E0020FCB500007B4F00200C4F00206D4F002078
:200A5C006B4F0020724F00206C4F0020F04E0020F84E0020FC4E00209C170020B40E002001
:200A7C00104F0020144F0020184F00201C4F0020DC180020300A0020544F0020340A0020B7
:200A9C00DFF800F01D6E0110DFF800F04D7101102DE9F04F09AFADF13C0D08900A92388859
:200ABC0009911E46ADF81800101C08BF002000F07581017800274FF0010B401C4FF0FF39A8
:200ADC00B846DA460A9061E1252940F056810178401C0A902D2918BFADF8068004D1017896
:200AFC00ADF806B0401C0A9030291CBF4246434604D10178401C5A465B460A902A29CDF8A7
:200B1C0000804D4617D1049330680A9BCDF80890C01C20F00300001D306050F8044C1978C8
:200B3C00002C009403F101000A9018D5ADF806A06442009413E044460AE0600000EBC40062
:200B5C004018A0F130040A9801780094401C0A90302901DB3A29F0DBCDF8089004932E2909
:200B7C0029D10178401C2A290A9011D13168CDF80880C91C21F00301091D316051F8045C7B
:200B9C00002D48BF454601782B46401C0A9011E0454643460AE0680000EBC5004018A0F1AA
:200BBC0030050A9801782B46401C0A90302901DB3A29F0DB02930AB1224604926C2904D048
:200BDC004C2918BFADF8048004D10178ADF804A0401C0A900BA8CDF80C800FAB0790642915
:200BFC00059300F0828069297FD0BDF818C075296DD0782969D06F2965D070294ED063291C
:200C1C003ED0732922D00A98401E0A90099801281AD966490C68B5F1FF3F03D0A84288BFBA
:200C3C006D1C05D86FF00041814294BF0D1C099D029508A80AA932466B46A04709993F18AA
:200C5C00091A0398099165E0454617E03068C01C20F00300001D306050F8040CBCF1010F10
:200C7C00014608B94FA00146079109F0C1F80390B5F1FF3F4FD0A8424DD9039528464AE0FA
:200C9C003068C01C20F00300001D306010F8040C8DF82C005D46039558463CE00820356881
:200CBC000490E81C20F00300001D306050F8041C082210230FA805F0CDFE401E079040212E
:200CDC000170079823E0082302E0102300E00A233068C01C20F00300001D306050F8041CFC
:200CFC00AA42BCBF2A1C04920DE03068C01C20F00300001D306050F8041CAA42BCBF2A1C5F
:200D1C0004926FF009030FA805F0A4FE07900599081A0390009C241ABDF8065000945DB9EF
:200D3C0006E008A8202109AA08F062FA7F1C009C641E0094F5D50398401EB0F1FF3F039037
:200D5C000FD1BDF8060001281CD10098401E009018D408A8202109AA08F04AFA00987F1C41
:200D7C00F4E70798017809AA08A808F041FA0798401C079003987F1CDEE708A809AA08F0E6
:200D9C0037FA7F1C0A980178401C0A9000297FF49BAE089808B14146017038460FB0BDE842
:200DBC00F08FC046286E756C6C2900C0F4B500002DE9FE4F05467B48002400680094C009C3
:200DDC0005D37948007810B9202007F071FE012D40F0E280DFF80092D9F8DC00012840F048
:200DFC00D8800220C9F8DC0008F054FE012007F05FFE5FEA000805D00120C9F8DC0008F025
:200E1C0055FECBE009F05BFAA34602906748684DC0F800B0A86A016801208847012804D1BA
:200E3C00584605F05DFF012000906248624FC0F800B03868112009F043F900B10124102027
:200E5C0009F03EF908B144F002040F2009F038F908B144F004040B2009F032F920B1286855
:200E7C00564E016B308888470A2009F029F920B12868534E016B308888475248012606605E
:200E9C002868816944F0200088474F48066009F011F900F001010191400814D2286A81686C
:200EBC004A4888478246BAF1040FF7D0BAF1010F04D1286A42684548032190474449086817
:200EDC0020F003000860584600F054FE2B683868986B8047019801280CD0BAF1010F04D170
:200EFC00286A42683948314690473949086840F0030008602F4806602868416920468847F2
:200F1C000B2009F0DDF820B128682C4BC16A188888470A2009F0D4F820B12868284BC16A5C
:200F3C0018888847274806600322C9F8DC20264BC3F800B02868416B204688470128F9D12F
:200F5C003868042007F0B4FD0446184806603868144800688009FBD30098012802D1304634
:200F7C0005F0BEFE09F099F8082007F0A1FD07460298C9F8DC6000F031F81648008805F085
:200F9C0019FC08F093FD57EA040018BF4FF0FF3804E06FF0040801E06FF001084046BDE843
:200FBC00FE8FC04614100940FC0900200C400940B8010010000222432C20094086B100005F
:200FDC0082B1000028200860800104430040034024220840C4B4000014090020DFF800F0BD
:040FFC0005B3011028
:20100000B41200001810000015AB0110FDB301106DC00110FDAE011099B5011000000000F7
:08102000000000002D0000009B
:20102800B01200003C100000B1C00110A9BF011067C0011069B80110000000000000000035
:041048003000000074
:20104C00B012000060100000BDC00110CDB30110D9BD01106DB3011000000000000000005B
:04106C00310000004F
:2010700000000000EC0E002004000000000000000000000020000000E8C901103000000030
:2010900028100000F40E00200400000000000000000000000C000000D8CA0110180000000B
:2010B0004C100000FC0E002004000000000000000000000024000000F0CA0110180000008F
:2010D00000000000040F00200400000000000000000000001000000018CA01102C0000009A
:2010F00000100000140F0020040000000000000000000000200000006CCA011024000000FE
:20111000FFFFFFFF1C0F00200400000000000000000000002800000090CA011024000000BD
:20113000FFFFFFFF240F00200400000000000000000000001400000008CB0110180000003C
:20115000FFFFFFFF2C0F002004000000000000000000000058000000B4C90110340000000A
:20117000FFFFFFFF340F00200400000000000000000000001000000020CB011018000000D8
:20119000FFFFFFFF3C0F00200400000000000000000000001C000000B4CA01102400000005
:2011B000FFFFFFFF440F00200400000000000000000000003800000044CA0110280000002D
:2011D000FFFFFFFF4C0F00200400000000000000000000005400000078C901103C000000A2
:0811F00001000000E8B5000059
:0411F80001000000F2
:0411FC0000000E00E1
:0412000000000F00DB
:0412040032000000B4
:0412080001000000E1
:04120C004C0E002064
:0412100000020000D8
:0412140000000000D6
:0412180001C90110F7
:04121C0000000000CE
:0412200000000000CA
:0412240008000000BE
:0412280000002200A0
:04122C00C00C0020D2
:0412300000000000BA
:0412340000000000B6
:0412380008000000AA
:04123C000C0E002074
:0412400000000000AA
:0412440000000000A6
:04124800080000009A
:04124C00000000009E
:04125000000000009A
:041254000000000096
:041258000000000092
:04125C00010000008D
:04126000580D002005
:041264000600000080
:041268000100000081
:04126C00F00B002063
:04127000000000007A
:041274000000000076
:041278000002000070
:04127C00000000006E
:02128000290043
:02128200010069
:02128400250043
:02128600300036
:02128800310033
:02128A002D0035
:02128C0001005F
:01128E00015E
:081290000300000084B500001A
:0812980000000000000000004E
:0412A0000000010049
:0412A4000000030043
:0412A80013C401105A
:0412AC00419D000060
:0412B000B812000070
:0412B400B81200006C
:0412B8000000000032
:0412BC00C00E002040
:0412C000939E0000F9
:0412C4002000000006
:0412C8000CB5000061
:0412CC00B0B30000BB
:0412D00029C101101F
:0412D400C7930000BC
:0412D8007F9A0000F9
:0412DC00A1C7011095
:0412E000A3C701108F
:0412E4000000000006
:0412E80031B500001C
:0412EC00BCB1000091
:0412F000D4B1000075
:0412F400A4B10000A1
:0212F8000200F2
:0212FA000900E9
:0212FC000100EF
:0212FE000000EE
:0113000001EB
:04130400219E000026
:041308002188000038
:04130C003195000017
:04131000698B0000E5
:041314008F880000BE
:04131800917C0000C4
:04131C005D5C000014
:0413200079A00000B0
:041324009D740000B4
:0413280015C70110D4
:04132C0025C70110C0
:20133000BB482DE9F84F0025BA4CB849056094F8E200002800F06581012800F02F81B64E73
:2013500002283CD0032840F05C8151F8250CD4F8B8100029A0F5C060C4F8D400B8BF494291
:201370000028B8BF4042814226DA4FF08057D7F8A4014568B4F8BC0030214FF47F4208235A
:2013900000903046A847D7F8A4014568B4F8C00004214FF4F802122300903046A847D7F860
:2013B000A401B4F8D070456820214FF440620A2330460097A847012584F8D8501CE151F880
:2013D000258C08F06AFE2F4600B901273946934F38680028FCD0B146012609F10409D9F8AB
:2013F0002CA03E6009B108F05EFECAF30720C4F8BC0008F052FEAA4600B9B2463B68002B52
:20141000FCD0D9F800B0BAF1000F3E6001D008F04AFECBF38440C4F8C00008F03EFEAA46E4
:2014300000B9B2463B68002BFCD0D9F81C90BAF1000F3E6001D008F036FEC9F38120C4F866
:20145000D000B8F5C061C4F8B81000F09C8094F8D80068B9C4F8D410D4F8C000C4F8C80019
:20147000D4F8BC70C4F8C470D4F8D030C4F8CC30D4F8D400D4F8BC30002854BF02226FF0DA
:20149000010204F1C8010F6800EB40008018421000EB927207EBA2000860D4F8C810C4F8A4
:2014B000C43000291CDD1E293CDDD4F8CC0030B93429B4BF15391E21C4F8C81025E02A29DC
:2014D000BABFD4F8C8000B381E20C4F8C800D4F8C4003F28B4BF401C3F20C4F8C4001FE046
:2014F000D4F8CC00032812D011F10B0FC6BFD4F8C8000B30301CC4F8C800D4F8C40000283F
:20151000C4BF401E051CC4F8C450032508E011F1150FC6BFD4F8C8001530301CC4F8C80085
:20153000C4F8CC504FF08057D7F8A401B4F8C43030214FF47F424568374800930823A8476B
:20155000D7F8A40104214FF400321123456832480096A847B4F8C860D7F8A40104214FF4DD
:20157000F802122345682C480096A847D7F8A40120214FF440620A23B4F8CC6045682648CC
:201590000096A84701E084F8D85040F2FF50404502D8801C40452FD2082030E051F8251C6D
:2015B0001F4F4BF2F5204843060A3868C0F3814001280CD11B4800680068804706F054FE64
:2015D00008F077FD3111C010484306EBE03694F8E50030B91448006820F07F403618760832
:2015F00001E084F8E5501148310C0660012741600F4D8760287808B90B2000E0052084F834
:20161000E40001F065F8BDE8F88FC0462D400C402C500C401409002000A00C4000800C40E0
:20163000B43F0050EC010010102009403C600C40C9B400002DE9F84FDFF8C8A20F4604463F
:20165000F80B80F01281AA4EDFF89882B80F80F0C380B80880F0B7803809C0F038810820D8
:2016700008F03AFD002840F0A980802008F034FD002840F0A380684603F0ECFD012803D1DF
:201690000098002800F09A8095480078002840F0958000250124E8B208F092FB48B1837A4F
:2016B0003BB1847290F9090004FA00F0C0B206F097FF6D1C032DEED345464FF0030905F174
:2016D000AC0085F8109008F0E6FD87480168002398461A46036050F8081C844940F8088C55
:2016F00005F1340008F0E1FD3068006B8047A968401A010BA869C1F1FF3282422CBF0844AA
:201710004FF0FF30A861287F20B1E868A969B1EBC02F25D907F09AFF414600B12146081C8C
:201730001BD0744840F60901018043464380417B04F00F0221F00F010A434273017B03F092
:201750000F0621F00F0146EA01020273436008F0D9FB418811F4406FFBD02C774346AB61AC
:201770006548016821F0020141F400710160634941F8049C41F230028A600C6050268E6084
:201790000C604FF4CA628A600C6041F80C4C44460460022007F0F6F8112003F00BF82878BB
:2017B00018B96868383008F08CFD687F18B16C77052007F0E7F8524868612C7405F094FC79
:2017D00027F0080783E002F08FFA45467435286808B927F002077AE008F061FDB3468146E0
:2017F000DBF85400016804208847D8B1207CC8B1454608352868A8B10646DBF80000E5689B
:20181000006B8047801BE060000BE060A84202D240194008E06040F6C41181422CBFB0F563
:20183000FA7FE160484608F021FF06F0BDFE90B1A56920466FF4807100224FF00073A847BB
:20185000464606F16C052868002808BF47F0020701D005F049FC2046646900214FF0806344
:201870000A46A04727F0005731E008F018FD51460E6846B306F1280106C90A234FF0E0450F
:201890000B40154008BF002B1DD106F1280191E8300006F1280393E8060006F12803AA433D
:2018B000A14383E8060008F0E1FEB16869B1002D08BF002C09D030692246B6F93C10B468A8
:2018D0002B46A04701E008F0D1FE27F4804727B150463946503008F0FCFCBDE8F88FC04687
:2018F00021110020880F002014100440417400008C010010A8180020000004600C41044040
:2019100045460000081000202DE9F04F8246DAF80070DAF804600C465FEA0208ADF11C0DF3
:2019300014BF00214FF0FF31DFF84092484608F096FA002818BF0B2040F0158100258F4889
:201950008C4905708A48FC60524608F0AEFC317B272008F0ACFCB8F1010F07D065700220AB
:2019700007F0A8F9062007F0A5F901E0012060702078012840F2AA80801E012868D9801E6F
:20199000012833D9801E012800F2DE8008F087FC83464FF0805000F5EE77D0F8DC01A3787E
:2019B000466A009321782846062908BF0120019001200290A068228AE1686368B0478146EC
:2019D000584608F053FEB9F1000F40F0BF80B8F1000F02D008F0DCF802E0504607F054F8D7
:2019F000002800F0A3803868806A2AE008F057FC83464FF0805000F5EE77D0F8DC010123C2
:201A100006680093A168A27860682478AC46042C08BF9C466346B0478146584608F026FE42
:201A3000B9F1000F40F09280B8F1000F02D008F0AFF802E0504607F027F8002876D03868D6
:201A5000406880474C49C1F8B0510D6081467DE008F025FC83464FF0805000F5EE77D0F814
:201A7000DC01E38A86690093E0680190208B0290A0780390207D04900121059122782846D8
:201A9000022A08BF081CE1786268A368B0478146584608F0EBFDB9F1000F57D1B8F1000F1C
:201AB00002D008F075F802E0504606F0EDFF00283CD03868006A80475FEA000946D1E078BF
:201AD000A168E28A236904F067FABFE708F0E7FB83464FF0805000F5EE76D0F8DC01E38ADD
:201AF000C7680093E0680190208B0290A0780390207D2946049001200590257805B901465B
:201B100008466268A368E178B8478146584608F0ADFDB9F1000F19D1B8F1000F02D008F00E
:201B300037F802E0504606F0AFFF08B914201AE03068406980475FEA000907D13068026926
:201B50002169E078904781E74FF0FF39B8F1010F05D0022006F016FF062006F013FF0348A9
:201B700008F0AFFB484607B0BDE8F08F440B00207C0B002039920000504502402219002037
:201B90002DE9F84FDFF804B20746ABF13500DFF8F0810068800880F0E28075480068006896
:201BB00080477E490831D1F8009000254FEA29715FEA995201F101010AD2C0F13E0210F107
:201BD0000A0F4FEAE202D8BF08229142B8BF111C684BD3F87C21C2F30462162AA8BF203A50
:201BF0001B68C3F30443162BA8BF203B9A465218162A05DA12F10A0FB8BF6FF0090200E00C
:201C100015225D4B5D4E02F01F0141F4F8511980316811F0030F18BF0125C90828BF45F06B
:201C300002050FB145F00405434693F90710411A052904DA9979A94208BF99886FD0DFF801
:201C500044E10F28A0F10F0829DB08EB0011A1F1F0084FEA28210091072984BF072100919F
:201C7000062988BF06215EF821600424774604EB81043C594FEA950CA41BEE0804F0FF016F
:201C900024BFC4F3072631446F08AE0824BFC4F3074631446E0828BF01EB146104E00021AC
:201CB0004FEA950C6F080091009C5EF824E05FEA5C060EF0FF0424BFCEF3072634447E08C1
:201CD00024BFCEF3074634446E0828BF04EB1E64009E89B2A8EB06267143803104EB11249C
:201CF000AAEB02010029D8BF0121342209F0FF074A4391B24FF6FF727943B1FBF4F18A4266
:201D100038BF111C802889B2998005DA10F1800FB8BF6FF07F0000E07F20D8719D711A4897
:201D300000681F2918604FF0000008D340F2FF128A4206D24908401C8A42FBD301E01F2102
:201D50009980134F0F39090940EAC10047EA0001CBF8FB1F0026CBF8FF6FBDE8F88F0D49CB
:201D70000D4F434608200F609B1D1870BDE8F88FEC0100103C1100506E620840242208402B
:201D9000041900209C130050082009403500094000E7A48030100940FDFDA400AC3F00509B
:201DB0002DE9F04F044672488E46016894461F46BEF1000FADF13C0D4DD0BCF1000F4AD0A6
:201DD0009EF8002001209040014244D0BCF80000B0F5C15F32D1DCF81400DCF81860654B95
:201DF000DCF81C50DFF890A10B904FF003080DF128090C9618680D95C0F3036B59F8046FCE
:201E1000CEB10021351F05200B4655F8042FB2F1FF3F10D0924506D0401E01F1040103F111
:201E30000103F2D107E0052B05DA705820F4702040EA0B407050B8F10108DFD1C4F804E032
:201E5000C4F808C008F02BFA4C4D8046287820B1404608F00BFC002087E001F06FFA48490A
:201E7000086840F00200086007A808F053F8002605F1D00007AA4349099606F04FFA4249C4
:201E900005F5827007AA06F049FA07A808F012F8FF20192107AB3D4A089005F1340006F061
:201EB00067F93B4A05F150001A2107AB06F060F93849324605F18800134605F0A1FC3649CA
:201ED000324605F1AC00134605F09AFC334A05F120000421334607F0CFF90E2002F024FDC3
:201EF00005F1740007F044FF05F16C0007F040FF2E740523EB60072085F898012E77AE6190
:201F10006E772849AE60264A69612B781670581C2870404608F0AAFBB1461FB9684607F047
:201F300031FF6F4638682060388A6082012060747B6813B940F6C4130646E3601A48A06145
:201F500026746061F86800B1A061B86800B160614946582204F1200004F09CFA04F138009D
:201F7000494607F05DF86C6020460FB0BDE8F08FD4210840541300500200F844880F002078
:201F900000200940F99A0000E943000041740000A16E00003D960000E19800003D7A000042
:201FB0001C190020454600007B5D00002DE9F04F774F1E46ADF1340D01914FEA96090292FD
:201FD0003D680090710809F1020221F0010105EB8200091D0390901805EB800004905018F3
:201FF00005EB80038018059305EB8000079026F0030000F1080802EB080005EB800340184D
:202010000893801805EB80000990C6F39C008000083002EB4000411805EB800305EB810BF2
:202030000A938918831805EB8104404405EB8303C6F3990105EB80008900069038680B9328
:202050000A010021803204F025FA4A49DFF828A109682846AAF1880290470746B94518BF4F
:202070006FF0010040F0828028465546394605F1680290470198314607F0A8FB002818BF56
:20209000012073D10298314607F0A0FB002818BF02206BD103980199A84704980299A84781
:2020B000009881680598A847344B0399059A20469946C847012802D1BD0066590EB103209B
:2020D00054E020460021424604F0E4F90499059A2046C847012801D166590EB1042045E069
:2020F000284B274D079803991E462A46B047089804992A46B047079909980A46B0470A9815
:202110000999079AB047204D0B9807992A46B04720460021282204F0BDF91C4B0A990B9A34
:2021300020469946C847203520462A460146C847089958460A46B04706980021424604F0F9
:20215000A9F9FDB2584625B9F9B20229B8BF012200DBFAB20021635C455CAB4218BF052041
:2021700004D1491C521EC9B2F5D100200DB0BDE8F08FC0468C4F0020B9DB0010C9DE001007
:20219000EC0D0020F9E0001078B20000C9E60010884F00202DE9F0430546880FADF1140D63
:2021B000C0F0D6806C4C201D006840688768C668406800B18047002F08BF002E08D007F0D4
:2021D000EBFD07B1B84706B1B047644807F040F8634807F097FE634A40F60A0CA2F800C03D
:2021F00000205080117B00F00F0321F00F010B4313735060517B4FF0010808F00F0721F079
:202210000F0147EA01035373AB686E7C58801988A1F60201C9B141F21E07C91B15D041F6C1
:20223000E677C91B012920D8597E012E60F38201597606D0198B21F47C7141F4347119838E
:2022500013E0198B60F30911F9E7597C012E60F38201597405D0198A21F47C7141F434718F
:2022700002E0198A60F309111982D5F80890687461464E4600E03E46776817B13B8899429C
:20229000F9D17260737B00F00F0723F00F031F437773E76E3FB1FB681B88CF1F9F4224D01F
:2022B000891F994221D02F8C07B3686205F12003588095F82C1000F00F0721F00F010F4328
:2022D00085F82C7095F82D1008F00F0721F00F010F4385F82D705360517B00F00F0721F0DA
:2022F0000F0147EA0100507300E0A0601E4801688768C568009110226946406B019720F039
:20231000784040F0805003901848029503F08CF807F042FD16486061607F80B915480068C2
:2023300001684046884701280FD0707B08F00F0120F00F00014371730F4F676105E005F08D
:2023500037FE0028FBD007F0B8FF484607F0DAFD05B0BDE8F083C046880F002001000706A3
:2023700001010E04A81800204C1300501800002145160000E0010010057600002DE9F04F55
:20239000ADF1240D079000F0D9FF5F48007807F037F85E4D0024012806D90C3804D0401E6D
:2023B0000ED0401E09D006E007F062FB022804BF01210C1C06D0696805E005211F2401E0B1
:2023D000032107246960524A1068C0F38150012806D152F80C0C0127020E07FA02F0044369
:2023F00007F088FD05F1440AFF2253464018401E471C28607F1E03F8012BFBD1079A126807
:20241000002602F0FF03FE2B1DD0DDF81CC0964633460EF0FF07FF2F0ED0B84205D3B94299
:2024300003D80122BA40144201D0022069E016430EF0FF020AF802305CF804EF5B1C0EF0BA
:20245000FF07FE2FE7D1092002F06EFA07980121A86005F1280006F0E3FD00274FF0010BCF
:20247000B9462846804600F198050BFA07F0044216D1064204BF07F0FF0141F4C04104D056
:202490001AF80700079951F82010224801F0B4FBF8B24FF0FF3107F0A9F8C5F8009001E011
:2024B00004202860D8F800007F1C2D1D8742DCD904A807F0FFFC184C184A2078102104AB51
:2024D000059008F10C0005F053FE684607F022FDCDF80C906A4660681149029008F1640026
:2024F00005F01CFF0F4951F80D0C20F4F85040F4005041F80D0C0C4FC1F8FFBF4846C7F8B1
:2025100000B009B0BDE8F08F2319002000080020B43F0050007FC76798B50000C598000000
:20253000817F00000D300940080009402DE9F04F0746ADF1140D0393002F02920E980191C2
:202550000F9C049000F0B680081C00F0B380101C00F0B080181C00F0AD800498002800F06E
:20257000A980002C00F0AB80206A002800F0A280564D666A281D0068002E00F09B80A16AB3
:2025900008F070F840B2002808BF6FF0020700F08D8084F82C002078618800EB80000918D0
:2025B000143188B2216A88474749086030B92846406808F053F84FF0FF3777E08B46628871
:2025D00023786088DBF8001025789E1800EB010A701800F1040805EB450002EB43068518AF
:2025F00076186D18C01805F10C098018401800F11005204605F0D8FA2078C01C8010CAF8EC
:2026100000002078C01C8010C8F8000020780836C01C801030602078C01C8010C9F800004F
:202630002078C01C80102860227839460AF1040002F0FAFE2278019908F1040002F0F4FEE7
:2026500022780299301D02F0EFFE2378204641463246FFF7ABFC071C12D1009550464146B4
:2026700032464B4607F0F6FF47B22278039809F1040102F0D9FE22780498291D02F0D4FE1F
:2026900021786288DBF8000001EB81015218002103F000FF616ADBF8000088470B48406881
:2026B00007F0DCFFF8B2992808BF002784F82C70384606E01CB16FF0010084F82C006FF02F
:2026D000010005B0BDE8F08F884F0020E40D00202DE9F843614C5A4D5A4EDFF870815E4F46
:2026F00094F8E4100846401E0B2864D8DFE800F07B2C43062343062343067664042907D0D2
:2027100001220A2945F8212C14BF0220032004E0202045F8210C0120024684F8E20000203C
:2027300045F8390C0827C5F8FF7FC5F8F37F45F8392CBDE8F883052914BF09200620002735
:2027500084F8E400376075E094F8E170383D0120002FC5F81B0004BF0620002102D00021A6
:20277000F160032084F8E400032045F8010C3160306880085ED294F8E410334801270329D8
:202790000ED00068456800216022052300914046A84794F8E400062814BF0A200720CFE7ED
:2027B00000684568002160220523022000904046A8470420C4E7FEE72548264F0026012520
:2027D00006600E203D6001F0F5FF022006F0DAF884F8E45084F8E360BDE8F88300203860A2
:2027F0000C25786024E04FF08059D9F8A0010168202088472C3D0F2045F8010C41F61D562E
:20281000C5F80360D9F8A401466800214FF4C0720723022540460095B047D9F8A401C668C7
:2028300000214FF4C07207234046B0470120386084F8E45004F1780007F02BFDBDE8F88336
:2028500039400C4038600C40A401001000A00C402C500C4004800C4034600C401409002069
:202870000FB42DE9F04106AF8046ADF1280D07F093FC3E1D26F00306361D30F0010001D1AA
:2028900002F0B1FACDF81A601420ADF816000025CDF80E50FF248DF818407B68CDF81E301F
:2028B00007F0D4FE064607F077FC30F0010016D006F082FD84464D4806212A46483030F877
:2028D0000C7F4FB143681B689E4204D0491E02F10102F4D100E0D4B2604607F0DCF94046FB
:2028F00006F036F80146FF2905D0204603220DF11A0304F0EDF807F0A9FE06F039FBA8462B
:202910000746CDF8008007F047FC30F0010063D0002F61D041F2883001A906F09BF9009C6C
:20293000002853D107F08EFE0199012645187868019B41464FF0005207F080FE00282BD06E
:202950000DF122000DF1230102AA04F02DFCB0B99DF8220003A905F0E1FF38B9029A07F037
:20297000FDFB00281CBF029C464615D10299684606F0E8FA78684FF0005107F05BFE0198C2
:20299000B0F1FF3FD3D00028D1D007F05BFE281A02D00199814217D206F062FF07F10805D6
:2029B000009F06F009FD01463FB13A4652F80C0C40B9286842F80C0C2F60084607F06BF940
:2029D000304603E00246F1E70190B0E720B92CB1204607F030FC01E002F005FADDF81A0046
:2029F00000680AB0BDE8F04104B07047280A00207CB5534A534813785349002B73D05B1F9A
:202A100008D01B1F012B51D99B1E012B6CD99B1E71D08CE04D4C4E4D618801804D482860F3
:202A300081B3491E33D0491E2CD040F20240091A25D0491E26D040F2FB30091A17D04FF4F2
:202A50004060091A1ED0491E19D0491E012919D9091F14D0491E15D0491E10D04FF47E7012
:202A7000091A0FD0491E0AD0C91E08D011E041F206416180012003F059F82530A0733648AD
:202A900028600CE0002006F077FF852005E08F2003E0002006F070FF842007F0C7FDBDE881
:202AB0007C402E480078012101F024BE4A88028040F2044082421CBF41F2084082423ED0B1
:202AD00041F60400824211D1254C264A2568264800680023CDE9002355F8086F234B02226F
:202AF000B0472349088073BD4A880280002006F043FF85201FE04A880280022A0DD940F2C3
:202B10000440121A1BD040F6FC70121A05D0083A15D04FF47F70121AE8D1887B801CC2B256
:202B3000B52AA8BF662088730020488073BD002006F022FF8420BDE8764007F077BD73BD15
:202B50006F4F0020504F0020CC4C00209C4C0020204F002077A20000095E00006E4F00209C
:202B7000F04E002002000080EC4E002089900000424F00202DE9FF415648017800293ED09D
:202B9000052940F09F80544C2068016801F10807387810F00F0F1CBF00F00F01062907D067
:202BB00000F00F02022A1CBF00F00F0001281FD10622B91C684607F01BF83878474D484E56
:202BD000C0F3801800F00F0001283BD1062207F1080102A807F00CF83F78FF0902A93846B0
:202BF00007F020FDD0B13068807C022818BF03286ED105F10D0102A806F08CF8002867D0AA
:202C100031680120C8720622607940F00400607102A930680C3006F0EBFF13E028788742EF
:202C300010D10622691C02A806F050FD50B12878617960F38201617106223068691C0C3065
:202C500006F0D6FF6946404607F0ECFC00283FD060696946001F07F0E1FCC8BB2946684643
:202C700007F0D8FC3168897CFF281FD01D2250432E18002918BF02290BD0012918BF03297A
:202C900026D12A5C6069711C001F07F0BFFC10281ED060696B46F21D3146001F07F0B2FC96
:202CB00006226946F01D06F0A3FF11E0002918BF02290DD16069012342466946001F07F054
:202CD0009DFC05E0002006F057FE862007F0AEFCBDE8FF816F4F0020D04B0020AC45002065
:202CF000144F00202DE9FF4104466668A7680D4607F0D5FA3178012903D107F0B7FC00203A
:202D10008EE00121317007F0B1FC287870706878B07068687060A868B060E868F06028695D
:202D30003061287D3075687D7075A87DB075A869B061287F3077687F7077A87F4FF00008E8
:202D500043461D4686F82851B07786F82951C6F82080336375627563B562B56386F82C5095
:202D700086F82D50786801F0DFFD204602F0AAFB204602F0F3FB60B9386806F027FC7868A6
:202D900001F018FD07F08BFA357007F06FFC2C4645E0684607F08EF80094387B224A019094
:202DB000B9686B4606F17C0005F0E2F9684607F0B1F800941D4938696A46029006F1980034
:202DD00005F0ACFAB07830B906F1CC00294606F027F917483061707830B906F1E8002946E0
:202DF00006F01EF91348F060684607F0E1F901958DF800501049029406F582700A226B4668
:202E100004F0FEFCB969FA6906F13C0007F01EF80A4A06F168000421234606F02DFA20462B
:202E30000090BDE8FF81C046512E0000177200001FA2000017A20000D97C0000E59F00006C
:202E50002DE9F84F8046D8F808603068D8F80450076CDFF830B14764AB6B6A6C286C17F4EA
:202E7000F06F1946A0EB020934D1F8091ED2780974D3B1B196F821205846801D845C601E66
:202E9000814294BF1C1C641E4046214605F0FFFFA86B001BA86361D105F19800012107F060
:202EB00018FA4046494606F05FFA57E00029F8D0404605F0ECFF95F82D10A86311B9002837
:202ED0004CD101E00020A86305F19800012107F000FA43E0F80A20D24FF0000A544602E03C
:202EF000AB6B5B1EAB6393B14046012105F0CFFF3068446814F00F04C0F804A0F0D0286B6C
:202F1000401E2863686B401E6863A86BE8B905F19800012107F0DDF913E030684468002232
:202F3000202904F00F044260CCBF4FF0200A9A464046514605F0ABFFCAF120008145C8BFD7
:202F500081464946404606F00FFAEC77404604F005FE726A12B1404621469047B8090FD3A0
:202F7000A96A69B10F46404605F0BFFFA86238B996F820205946895C4046C91904F008FDD8
:202F9000BDE8F88F40B200007CB54E4D044668680E4628B94FF00040002104F091F9686002
:202FB000002127A30A4606F0EAF8204628A3801E04D0801E37D0401E22D00EE06868012E69
:202FD00005D000210A4606F0DAF824A331E000210A4606F0D4F826A32BE0686800210A46B3
:202FF00006F0CDF868680221002227A306F0C7F801208DF801009DF801000028FBD17CBD08
:20301000686800210A4606F0BAF868680221002223A306F0B4F801208DF800009DF80000FF
:203030000028FBD17CBD686800210A4606F0A7F81FA368680221002206F0A1F87CBDC046D8
:203050003E3E3E535441434B20415353455254002A2A2A4552524F522A2A2A003E3E2049D3
:203070004E5445524E414C204552524F522100C03E3E20494E5445524E414C204657204586
:2030900052524F522100C0463E3E2044454641554C54205350494E4C4F434B2100C046C0A9
:2030B0003E3E204943414C4C2041424F525421003E3E204F5554204F46204D454D4F525904
:2030D0002100C0460802002078B50D46E80787B00BD506F02FFF28B1002181603C4800681E
:2030F00000B1804785F0010070E0E80413D53948C11D0D3007F07EFA374842683748007883
:203110004FF4805104F0D0FE10B18E2003F0C6F885F480505AE0A80505D506F0BEFF304973
:2031300001200860FEE7680504D502F046FB85F480604BE0680405D5812003F0AFF885F41A
:20315000804043E0A90440D5264C206810B1002006F012FC244E4FF0FF30206007F046FA44
:203170003168224C51F8202F684690472049214B486A8A6A009001920293C86A0268086ADA
:203190000392ADF810000A6B1178002904BF5068002805D19068002804BFD068002806D01C
:2031B0002170506860609168A160D068E06021463468114A266811486B46B04710490860D6
:2031D00001F03AF885F4005000E0002008B070BD204F0020AC450020784E00206E4F0020AB
:2031F000FC002043044F0020F04E002068450020880C0020359F00002C4D0020A0170020CA
:20321000EC4E00202DE9FC4705466E68D5F8088037780FB1B76B1FB14FF0FF30BDE8FC877E
:2032300031630024F477171C74631BD006F13C0907F035F882466946484604F0B8FF00282E
:203250001ED4504607F012FA9DF80000316B0870306B736B7F1E00F10100306303F101009A
:203270007063E5D17078726B316B0128A1EB0201316303D1F36828469847726B144659E01C
:20329000B763D8F80010086B40F400700863D8F80010886B40F4FA608863504607F0E6F9EA
:2032B00006F5947006F062FA707806F5947768BB06F0F5FF96F82D1069B1716B59B1B16BCB
:2032D00049B1B46307F0D2F906F5947006F03EFA706BBDE8FC8707F0C9F9716806F1E80565
:2032F000284606F0BCFD0028F2D0B4632846214606F0B5FD0028EBD0384606F027FA102774
:20331000716B306BF777401A3063E1E706F0C7FF96F82D1061B1716B51B1B16B41B1B46367
:2033300007F0A4F906F19800012106F0D2FF01E007F09CF92046BDE8FC8770472DE9FF4763
:20335000484C94F8E700002876D13E4E01273C48F57C84F8E770736884F8E6500068C4F8BA
:203370001031C0F3801084F8E800684606F020FF002504F10C0001956B468DF800503249D5
:2033900002952A4604F03CFA304904F130006B462A4604F035FA2E4904F154006B468146D2
:2033B0002A4604F02DFAB16838468847DFF8B0802848327D08F104030078284E1868C0F3C5
:2033D000815A22B1BAF1030F04D184F8E170BAF1030F17D0BAF1020F14D0BAF1010F0ED0F3
:2033F000022005F067FC1C480068016804208847012804D030683221B1FBF0F10DE005F0C4
:2034100023F812E0022005F055FCBAF1030F0CBF4FF47A7142F210713068B1FBF0F1484609
:2034300006F035FF484606F034FF40460068C00802D2284605F03EFC00200090BDE8FF8799
:2034500014100940B4B40000EF660000414F0000016A000023190020E001001010190020A1
:20347000B03F0050140900202DE9F84F5FEA00091C46924600917DD0081C7BD0BAF1000FD0
:2034900078D0002C7BD0206A002873D03F4D616A281D006800296DD0A16A07F0E3F840B22F
:2034B000002808BF6FF002055FD084F82C002078618800EB400009180C3188B2216A884732
:2034D0003149AB46086030B9DBF8040007F0C6F84FF0FF3549E08846668865882178D8F8E6
:2034F00000008F192D183F1806EB41063618204604F05AFB2078C01C8010286020783F1DC3
:20351000C01C8010386020780836C01C8010306022784946281D01F087FF28463A46334679
:20353000014607F05FF845B2227800983B1D194601F07AFF22785046311D01F075FF217820
:203550006288D8F8000001EB41015218002102F0A1FF616AD8F800008847DBF8040007F01E
:203570007DF8E8B2992808BF002584F82C502846BDE8F88F1CB16FF0010084F82C006FF0B9
:203590000100BDE8F88FC046884F0020E40D0020F0B5434D05F108012846ADF11C0D04F083
:2035B0007FF905F114040021204607F017F84FF080400021EC6003F083FE3B4E394C686032
:2035D000022264230820314660701020FFF748F91020032264233146FFF742F93348A0605B
:2035F00005F068F90246607800260090022301962F49029610200396FFF732F96868314692
:2036100023A30A4605F0BBFD05F086FCA868294A31464FF0FF3307F011F8071C17D0049651
:2036300005A80DF1160104AA05F0CAFA78B9BDF81400102807D128789DF81610884202D14F
:203650000498FCF7FFFE049808B106F0F4FDF80FDCD3E86806F0BEFF0028D7D1E86804466F
:2036700006F0B4FF844208BF341C02D0846805F03BF9002CEDD02088012805D16068FCF782
:20369000E1FE606806F0D7FD204605F02DF9E0E7424C45204F6273657276657200C046C060
:2036B000080200200C060020C1800000BCB50000A1930000400000C02DE9F041FF280746FD
:2036D0001ED106F027FD10F0070F16D0042004F0F7FF08B104200AE0012004F0F1FF08B142
:2036F000012004E0022004F0EBFF20B10220BDE8F04105F001B806F03FF90020BDE8F081DA
:2037100004F0FAFF8046012FD8F80450334E04D0022F29D0042F3DD0EFE7022004F0D0FF18
:2037300080B1022004F0E8FF074601207C6804F0C7FF28B1A0683118A86806F043FF88B194
:203750003846DBE7042004F0BBFF28B1042004F0D3FF0746012026E0012004F0B1FF08B98A
:203770004FF000084046C9E7042004F0A9FF28B1042004F0C1FF0746022014E0012004F0D3
:203790009FFF28B1012004F0B7FF074602200AE00220E2E7012004F093FF88B1012004F09E
:2037B000ABFF074604207C6804F08AFF0028C7D0A0683118A86806F005FF0028C0D1D1E7F2
:2037D000022004F07DFF30B1022004F095FF074604207C68E8E70420BFE700BF589EFFFF1B
:2037F0002DE9FE4304F0A4FFDFF80481814608F1020000880027001F84B2042C5ADBFF2520
:203810004FF6FF7620466946042205F0F3F9BDF800309E4237D0002B35D0D80BC2032FD11E
:203830009D422DD0381FDDB280B2042815DBB0F5805F12DA00F18852126801A90A60BDF8EA
:2038500004108D4207D0BDF80610401A001F80B20428ECDA01E0012300E00023BDF8020077
:203870001BBB211A001D8BB282B207F18851184605F0C0F9BDF80200C119091D8FB214E0D0
:20389000BDF8020011E0BDF8020003466FF30E0363B9011D8C4208DA002006F06DF848460A
:2038B00006F05CF80020BDE8FE83241A241FA4B2042CA7DA04F0D6FA3FB10C484FF08851C0
:2038D0003A4606F07AFC06F055FB484606F046F84246507800281CBF0020011C03D1C7F5C4
:2038F0008054391DA0B25180BDE8FE8304E001005C0F00202DE9F04391460A68D9F8004032
:203910001678804600271D463846ADF1140D531C242E0B605BD112F8016F5B1C4C2E0B604E
:203930000ED1AA68E41C24F00304241D54F8040C414603F009FC2968EF600127091A29609B
:20395000462E1AD1E41C24F00304241D54F8040CE41C029024F00304241D54F8040C0027CF
:2039700041460390AA68ADF8047001A801F0E8F92968EF600127091A2960532E27D1E41C4A
:2039900024F00304241D54F8040CE861C9F80040288B0090A968EA69D8F800004B46FDF719
:2039B0007DF8D8F80040002754B1A968002902DD8142D8BF481ED8F800100918C8F800109C
:2039D000D9F800402968EF600127091A2960662E0AD12B8B23B9E41D24F00704083403E0D2
:2039F000E41C24F00304241D1FB9E9690E700127EF60C9F8004005B0BDE8F0837CB53F4EB0
:203A10003168054600240020E1B12A78012A0BD02A7A05F109036946012006F0CFFD00B14B
:203A300004782978042913D03268517803290FD0002908BF002C0BD020B1012904D114F010
:203A5000030F05D1002076BD0229FBD1E007F9D56878A91C04F010F80400287826D0042808
:203A700014BFA068E06880B32A7A017891420CD105F10901401C05F029FE012805D1232059
:203A900006F07AF8002836D0DCE72878042806D0A068D0B106F066FA0020A06015E0E068DF
:203AB00098B106F05FFA0020E0600EE00428C9D005F0F8FA0400C5D0287820700622697892
:203AD0006170A01CA91C06F093F8287A401C80B206F038FA60B12978042914BFA060E060B9
:203AF000297A00F8011B05F109012A7A06F080F8287A0028A6D0012076BD00BF984E002094
:203B1000FEB5364C206806F055FD002864D00079032861D1324D0DF10900A91D01900091F0
:203B30000DF10A032A4602A90DF10B0000F0BAFC2C490878D0B19DF80800294606F072FDB9
:203B5000A0B1294E3146284606F064FD0746FF2F0CD01D204743F1190622491C284606F038
:203B700047F8F05D40F002008DF808001F480068C17C01291FD1807C002818BF022810D1BE
:203B90001B4E9DF808202946304606F00FFD1F2811D19DF8082000232946304606F02EFDF9
:203BB00009E0012818BF032805D19DF808201148294606F0FBFC9DF909009DF80A3001909A
:203BD000A91D00912A469DF808109DF80B0006F0E9FC206806F0E2FCF7BD00BFD04B0020DC
:203BF00044180020784E0020AC450020144F0020A8480020CC4700202DE9F84F0C46054682
:203C10005FFA84F8200824BF3148444031494FEA8803C85884EA00022A40C2F300672E4AEB
:203C300005EA0406A843324005F4E0260243B6F5E02F01D1500E14D305F4E020074310D0E6
:203C500002F4E027B7F5A02707D0B7F5803704BF22F4003242F4A02203E022F4803242F4C6
:203C7000C022DFF878B01E4F012000FA08FACBF800A0DFF87090CA500146386801FA08F695
:203C90000027064218BF0F1C37B9E80D04D34946C4F3805001F80800280E0DD306F0FFFACB
:203CB000210E34BF0021311C0D4A1268B24311430B4A116006F0DAFC37B1E80D04D3484676
:203CD000C4F3805100F80810CBF800A0BDE8F88F006000A000100840007F077FE0200260EE
:203CF000D0200240002002402DE9F843384C143C606F656F04F17409002866D00646F068E4
:203D100040F603020827531C02E040687F1EFFB260B15FB101888A4218BF8B42F5D1316968
:203D30004CC820314CC189C881E8890005F1280090E80C00002705F12806B84686E88001E4
:203D5000A96879B138464FF0E24100EA020611EA03070EBF002E02400B40AE682869B5F964
:203D70003C10B04706F09BFA0646B4F986004746401C6FF31F30A4F88600484685F83F7070
:203D900005F0F1FB304606F071FCB4F984106068B4F986300246994217D192F870100029AF
:203DB0000CBF0068381C82F8707060B1B0F1FF3F0BD008490968AC34B0FBF1F1204605F0BD
:203DD0008BFFBDE8F88305F083FDBDE8F883C0469C0F002010190020F8B506F05EF902F08E
:203DF000EFFF06F06DF9054605F00C000C2854D0E80826D205F082F92A4E376804460120EB
:203E1000014605F001FD31686143884219D22649F020B0FBF7F0241A887C18B1C868A04238
:203E300038BF041C214D2146284606F0B3FB284606F0ACFB0120FCF7C1FF284606F0A2FB94
:203E50002DE0280929D21A4CA4F1200620688168184888470746042FF8D01748690905D268
:203E700027B101460A6822F0010203E001460A6842F001020A6098310A6842F003020A6075
:203E900030688169202088470C4C37682068B86B804701202060206801E006F0F0F906F039
:203EB00002F9F8BDE4B50000B4B4000020090020D8010010004003408C2108402C20094002
:203ED0002DE9F84F374E0446B0688047344D05F10802116809191160F1688847286800285A
:203EF0005BD0A9464FF0000807463546C246A868804756461FFAA4F3834683B95FFA94F379
:203F10006BB93979E0B2884204DD79682046884209D20AE03879E1B2401A387108E0796898
:203F30002046884201D3314601E07968091A7960B88878B9FB8853B9FB6843B13B8933B139
:203F5000B87A194600F0D6FBF8687860B88808B9FB880BB13B896BB9B8F1000F04BF386884
:203F7000C9F8000003D03868C8F8000038683E46074601E0B8463F68E9685846884756B181
:203F9000B08828B9F08818B9B07A318900F0B2FB304605F0E7FF002FA9D1BDE8F88FC04602
:203FB000D0180020280A00202DE9F04707467D68BE6890468A4606F072F981463068006B21
:203FD00000F48071287800B119B1484606F04EFB57E005F5827006F05EF90024EC77C5F850
:203FF00020A06C623168086B40F480700863484606F03CFB05F2291005F0B8FB41463846F0
:2040100004F073FF05F22919A862A8B93846414603F0BEFCA878D0B9A96805F1CC0005F063
:204030001EFFE8B1AC621020E8773146284602F0B7F805F2291022E006F031F93268916BAF
:2040500041F02001916306F011FBA87810B12046BDE8F087A96805F1CC0005F000FF10B915
:20407000686ABDE8F0873846414603F091FC1020AC623146E877284602F092F8484605F03C
:2040900065FB4FF0FF30BDE8F08770472DE9F843DFF8C8800546D8F80000002600285BD06B
:2040B0002F4F7968387808B1002955D028464DB905E002018B5CFF2B18BF761C401C3A78F6
:2040D0009042F6DB3006400D083080B205F0E0F9040005D1082005F0DBF9044600261325FF
:2040F0007CB3D020207065700121A170E670F0B200B304F10809C4F804900025387885425C
:2041100019DAF0B2B8B1796828010A5CFF2A0ED0084489F800200622417889F80110761E26
:20413000811C09F1020005F063FD09F108096D1CEDB2E3E76060D8F800201078214605F0F0
:20415000E5FA3878002102F025F9D8F8000005F009FF0020C8F80000BDE8F183984E0020C3
:20417000740E00202DE9F8430446994690460E1C44BF0020011C5AD406F0A7F80546802124
:20419000304604F0AFFD071C04D097F83F1031F07F0106D12846FCF727FF02200021BDE83D
:2041B000F8834FF0E0400A2107F1200640EA090941EA080896E8030008EA000019EA0106D8
:2041D00008BF00281CD02846FCF70EFF07F1200003C804F1680604F1680508EA000809EAF1
:2041F000010986E8000395E80C0007F1200696E8030007F120059943904385E8030013E0DD
:204210000C48B968884202D0B9682166B86004F1580080E800032846FCF7E6FE04F1380093
:204230004FF0FF3105F01BFE683494E80300BDE8F883C046F974000038B5244C244B2568EA
:20425000186855F8183F00224FF0FF3198472148214A416B214C88684179117006F08EF925
:204270001F4806F087F906F081F91E490A680020507104F08FF81C48D02130220023017071
:2042900042708370C370037143718371C37106F069F91649164B0020087018801B20154905
:2042B000154B08804FF4A47214491A80FB20088040F64800124A13491080FB230B80208004
:2042D00006F04CF910490020087032BDF04E0020EC4E0020FCB50000714F00204E4F0020AD
:2042F000CC470020144F0020FC180020794F0020524F0020444F0020464F0020484F0020FC
:204310004A4F00204C4F00206F4F00202DE9FE4F894605460CAF97E803001E4601919046B5
:20433000009005F0BCFF2B4F6FF0010A8346082007F5D07494F83F3033F07F033ED107F171
:20435000AC0005F0A8FFB7F98400401C6FF31F30A7F88400C4F80C9084F83E80A660B7F85A
:204370008400009AA0870198022320211343002242EA000616482561314004F1180618407F
:20439000134686E8030004F1200686E80C006363214623634FF0FF36A663802284F83F2001
:2043B00007F16C0085F8703005F0EEF8F86E844201D102F099FEB4F93CA003E0401E04F14B
:2043D0004004B7D1584606F051F95046BDE8FE8FFFEFFF9F880F00202DE9FE4FDFF8C0809E
:2043F00098F8990100284FD0002501212C4698F8992101FA04F0104203D1641C032CF6D3AC
:2044100042E098F899211020A040104218BF0D1C05F045FF98F899211121A1408A4388F8DB
:20443000992106F023F9E0B205F0CAFC60B3877A57B390F9099019490768012D446851F81F
:204450002960019710D0017A02290DD100F1100191E8000C00274FF0805317EA0B0703EA07
:204470000A0108BF002901D101F05AFE012D04D0009600224FF0006303E000224FF0007303
:20449000009201984946A04798F8990120B108F58270002105F01DFFBDE8FE8F9430044015
:2044B000880F00202DE9F8430F462F490446086890461D4606F07EF8814699F80400032831
:2044D0001CBF002005F058FA99F80860B00900F00100387009F10A0799F80910881F28704B
:2044F000C0B22028A4BF002005F046FA062017F8011B08F8011B401EF9D106F00F06062E66
:2045100014D8DFE806F00E040B1310130D0001212170BF1D2A78901F28700CE0032103E017
:204530000220207007E00421217004E0FF202070002005F021FA0898002104E017F8012B79
:2045500000F8012B491C2B78CAB29A42F6D33978802918BF81290FBF7F21044A1078091ABC
:2045700009980170BDE8F183D04B0020704F00202DE9F04116468846044605F090FE07465B
:204590002A488325B8F1080F32D8DFE808F0463F3C313725150533C00446207CD0B9E06E50
:2045B000C0B9316804F1D00005F095FE316804F5827005F090FE32E00446207C50B9E06E36
:2045D00040B93168192005F072FE31681A2005F06EFE24E0002522E0306828B1012807D1CA
:2045F000802003F0FDFF1AE0802005F08DF916E0032514E030780E49087010E031680446AB
:204610000C3421600BE03088608208E00120E668607406F16000E06001E03068206038460B
:2046300006F024F82846BDE8F081C046880F00202011002038B5274C0D46A80839D2E80868
:2046500046D32B4854380068006B8047A060E06E00280EBF60680069606040681E490078DD
:204670000860022004F026FB112000F05DF90120207460684168886808B9C86810B11748ED
:2046900005F040FC1649174D072000230860296815482B606A686B60144B2A68636140EA6F
:2046B00002011A20296005F0FCFD192005F0F9FD38BDFFF719FB204600F17401096811B90C
:2046D00002F012FD38BDD03045F0020105F001FE38BDC046880F0020D0210840510007065F
:2046F000000004601410044002000040A5210000E00100102DE9F843DFF8B0802A4E81464E
:204710000C4639F07F0018D1B9F1050F12DA284DA86880472349096831F81920144321F801
:204730001940E9688847306841461431426A0868904734E00320BDE8F883042004F0A8FE84
:20475000071C08BF04202BD04FF6FF7038807C8005F01CFD41468C78A7F10C05FF2802D09D
:20477000896A09184C79FF2C08D1384604F0BEFF3068806880470120BDE8F883484604F013
:20479000D5FF33680146FF20A8721D68002220463B46A84718B1384604F0A8FFEBE70020C9
:2047B000BDE8F88314190020680F0020B80D0020280A00202DE9B043044605F070FD814632
:2047D0002748221892F8F010491ECFB2002F82F8F0703FD1254901EB84014A880C7890468A
:2047F00034F07F0718D1E1090FD24FF0805000F5DC75D0F8B8018169104688472868416B2A
:20481000404688470228F9D11EE000EB8800D0F804110020884717E04FF08055D5F8B80171
:20483000016A10468847D5F8B801816A40468847D5F8B801016B404688470A4901200860EF
:20485000094908688008FCD304F03F00132801DAFFF7B0FF484605F009FF0020BDE8B083BE
:2048700014090020282008602820084058B10000294838B5001D0468B4F1FF3F08BF0024ED
:2048900004F08CFB032833D12448254B002501211038184A056003F15C00224B0160181DD9
:2048B00000681160806C80471348006820B113480068204601F0F2F8114812490560124C4D
:2048D0000A686FF35B4244EA020008600F490868C0F30130012806D10A680D48104040F4C8
:2048F00000320A6008600B4908680028FCD138BDFEE7C0460822044380012843000120434A
:204910008C210840482003400000390104000940FFFFFCFC0C0068421813005094046042FF
:2049300000600C40EC010010F8B5064605F0B7FC264D0746711991F8F000421C002881F85B
:20495000F0203ED1224C04EB8604267806F03F00132801DAFFF7E8FF648836F07F0018D101
:20497000F0090FD24FF0805000F5DC75D0F8B8014169204688472868416B204688470128FE
:20499000F9D11EE005EB8405D5F804110120884717E04FF08055D5F8B801C1692046884704
:2049B000D5F8B801416A20468847D5F8B801C16A204688470749012008600749086880087A
:2049D000FCD3384605F052FE0020F8BD1409002058B10000282008602820084030B5264887
:2049F000244908602548ADF1140DFDF7C7FC24480468244800680023D90702462060500820
:204A10000143D007801A4FF47A729941002300F089FE002908BFB0F1004F28BF6FF00040C8
:204A30006060194C0025032004F1240141F80C5F401E8D60FAD104F154010620401E21F83E
:204A50000C5BFBD101F084FE626810480392416801910368009381680291684602F0B4FAE6
:204A700003F0E4FB03F03CFC05F074FD284605B030BDC046600F0020992F00002CB1000079
:204A9000B00E0020E4B50000280A00209CB400002DE9F04114460F4605F058FD1FFA80F81C
:204AB00024480068007808B904F074FF0FB338684FF0FF3518B140280AD3810B08D17E6844
:204AD0001EB1310A04D0310E02D1B9680F2908D93DB10CB1284620700820FFF76BFE002448
:204AF00022E04FF08055D5F8CC11BA680B68796808E04FF08055D5F8CC01036801224FF409
:204B10008070014698470C49012008600B4905F5E67508684008FCD3286841680220884737
:204B30000CB1002121700446404605F09FFD2046BDE8F08108B10000A8025042088002405A
:204B50002DE9FF41284B4768866814460D4601A81A68998802609B798180A5428371A8BF2D
:204B70002C1CB168786805F07AF978BB4FF00008CDF80080F068318A6D1C16A22B4604F004
:204B90004FFFA41C0246AC4213D9641BF06801A90B688018036089888180308A921D801AD1
:204BB000082804D23868F16805F020FB4246641EECD1F0680BA10988801801803868F16868
:204BD000921C05F013FB786805F07BFB0090BDE8FF81C0461B371B5B3130721B5B25643B39
:204BF000256448001B3800C0A8B500002DE9F84F1F468B46161C14BF4FF080484FF000582E
:204C100005F04DFBDFF884A0002503248146BBF1FF3F06D15046C36F002B0CBFC06EC06F5D
:204C300003E05846294604F05DF840B390F83F4034F07F0422D05446E16F81420DD00146C7
:204C50003A4602F0B3FDC8B1207C012814D004F1D000022105F03DFB0EE043462A4603F011
:204C700021FB002E14BF0A480A4804F0F1FA1FB1E16E3A4602F09AFD832400E0042448461F
:204C900005F0F4FC2046BDE8F88FC046880F002001000204010001042DE9F0410646B76811
:204CB00075688846ADF1280D684604F029FF00248DF8014078680690012004F0C7F968609F
:204CD000686840B103F094F93878694603F0B0F92860286808B9264617E00421224605F0CA
:204CF00080FA98F80000401E08D0401E04D0401E14BF201C07A002E008A000E009A0A86003
:204D100028680AA1122205F071FA30460AB0BDE8F081C0461B5B324B00C046C01B5B304BBE
:204D300000C046C01B5B314B00C046C01B631B5B324A1B5B3130721B5B31313B31480000A0
:204D50002DE9F843002A8946074604D4B2F5004FB8BF95B201DB47F6FF75002F08BF00207D
:204D700034D03888002808BF002403D02A4600F08DFC84B2AC4228D0388830B1291B484601
:204D900013A203F0B3F8001984B2B868E8B17E688EB1304605F032F8A5EB0408401D1FFADC
:204DB00088F1884207D833464146484609A203F09DF8001984B2291B122906D3BB684846A8
:204DD00006A203F093F8001984B22046BDE8F8833A2000C0222573222C2000C06C696E651E
:204DF0002025643A2000FEE72DE9F047DFF898A0DFF89080002501244FF002091126E8B213
:204E100004F0DEFF071C37D0B87A012834D197F90900AAF11401113004FA00F0C2430A6040
:204E30004A681043486097F9090004FA00F0C0B204F06AFD07F11000002104F0DBF801462A
:204E5000812909D1B86918B1002104F0D3F80146812908BF87F80A9081290DD008F29911F8
:204E700097F909000A7806FA00F01043087008F58270002105F02DFA6D1C032DBFD3BDE830
:204E9000F087C046880F00201C1004402DE9F041904606460F1C08BF05243FD036F07F0026
:204EB00003D02248006880688047052EA8BF032407DA57F80C0C18B917F8020CFF2804D09C
:204ED0000524384604F012FC28E007F8026C154C154DA068B8F1010F13D08047024600200E
:204EF00047F80C0CA868002808BFAF6005D0014651F80C0C18B941F80C7C104606E00146AB
:204F1000F6E78047A96847F80C1CAF60E168884730464FF40041FFF7EDFB00242046BDE837
:204F3000F081C046280A0020B80D0020680F00202DE9F04105F0B3F9244D214E804605F198
:204F5000E000007848B93446A168022088470746102003F0B3FD77B31BE005F0B1F8C009C8
:204F70001BD21B483C380068C4681648342101220023A04788B101F017FE34460020A16807
:204F900085F8E000022088470746102003F096FD8FB1A168032088470DE00B48006832217A
:204FB000B1FBF0F101B901213035284605F06FF9284605F06EF9404605F058FBBDE8F0819A
:204FD000B4B4000000A00C401019002014090020E00100102DE9F0410E46071C14BF002E37
:204FF000002040D0224C4FF0FF3104F12800804604F035FF3078FE2811D022680021FF2808
:2050100008D082422AD31F2828DA04EB8000D0F898501DBB491C16F82100FE28EFD100200D
:2050300038607860B8603078FE2818D00125FF280FD01F280DDA7B6804EB800105FA00F086
:20505000C1F898701843094978603268384603F073FA16F8040FFE28E9D100E000274046F4
:2050700005F02FF93846BDE8F081C046007FC76700080020F0B520480127F84201D002F062
:2050900021FD204D204F214EBD4206D203CD0478A4003459401CA047F6E71D48002800D0C6
:2050B0008047164D164FBD4202D210CDA047FAE7F0BD03251BE0416808300A1C2A400BD1BC
:2050D0001A1C2A40AB4305D0046804300C600431043BF9D1131C05D0047801300C700131B4
:2050F000013BF9D1021C2A4001D0A84304300368002BE0D17047C046FFFFFFFF0000000022
:20511000000000003CB90000A4B90000F8B8000015C4011022482DE9F041006880698047CA
:205130002049234D0F686E68B7F57A7F17D00021801B3A4688460B4604F066FD4FF47A72CC
:20515000002300F0EFFA04464FF47A72002304F05BFD3A46434600F0E5FA301800E0841BBC
:205170006860124D05F10800006880470E4E316872680919B1F57A7F0AD34FF47A73B1FB82
:20519000F3F7D2197260B1FBF3F707FB03F2891A3160E96888472046FEF792FEBDE8F08176
:2051B000680F0020D00D0020D40E0020280A0020D01800202DE9FC4792460D4682684468D5
:2051D0009168D768B2F810806068994604F047FE0028504632D1FF2D10D0401CA8F10201A8
:2051F0006B1C009016A2384604F01AFC0646A06828B10168F019361D016000E000260A9B4A
:20521000A8EB0601F0194A46891E05F066F8FF2D064406D10D22701C0A21BA55461C395420
:2052300004E00BA00188F519B61C298020683946324604F0DBFF606805F043F8BDE8FC8750
:205250001B371B5B3130721B5B25643B256448001B3800002DE9F84F81460020C9F8000040
:20527000684602F0B7F8204FDFF880A000264FF0FF354FF0190B34468046E0B204F0A0FD0A
:20529000B8B1837AABB1017A0126022915D079684A8A4069C968891897F89A210BFB0211F7
:2052B00003F092FE51460968B0FBF1F0854288BF051C641C032CE0D300E00025B8F1000F79
:2052D00004D0012E05D0B8F1010F05D0012E04D005E00098854200D9009DC9F8005046EA5A
:2052F0000806F0B2BDE8F88F880F0020101900202DE9FE4F214C80460CAF1E460192A06872
:205310003D7800918047A146B8F1000F029005D1D9F80C1088470220BDE8FE8F18480027D2
:205330004FF00F0B4FF0010A041F54F8080FD8B9012D0CBF134B144B1148019A008897FBDF
:20535000FBF140180AFA07F1C0B2984760B90098C4F80080606006B13770D9F80C1002981A
:2053700088470020BDE8FE8F7F1C0F2FDDDBD9F80C10029888470820BDE8FE8F280A002069
:20539000C40A0020D1840000B97E00002DE9F84F0C468146E00BC00318BF84F400443BD1C0
:2053B000002C08BF002038D0DFF878A05546A868804783461A4801884FF0000801264746B2
:2053D00006FA07F2224203D17F1C0F2FF8DB1DE04D46EA01FB00001DA2EBC502CD01A5EB9B
:2053F000C1018D1AED189B1A5B18C158BE401FFA86F82D1811B11B1858688847484641467B
:2054100003F090FB10B9002028606860DAF80C105846884788EA0404A0B2BDE8F88FC0466C
:20543000C40A0020280A0020002A4AD05FEA000C8B071CD1830722D1102A08D370B4103A04
:2054500078C978C0103AFBD270BC103238D0042A2CD3082A05D30C2A24BF08C908C008C97C
:2054700008C008C908C092072AD0920F22E00B780370491C401C521E22D08B07F7D1C30748
:2054900014D18307D8D0121F12D308C903801B0C4380001D121FF8D20AE008C903701B0A26
:2054B00043701B0A83701B0AC370001D121FF4D2121D05D00B780370491C401C521EF9D1B0
:2054D00060467047FEB584684668206804F07EF8216820488A6B1040886340F2F2712068E2
:2054F0001D4D416494F82000295C94F8210040198079084321684863684604F0C4FE317FCA
:2055100005EB81012068B2690B6A717F05EB810189691943B37F05EB83052B6B0B43019919
:2055300004F043F82168C86A40F01000C8622168086B40F001000863A07D0027FF2802D032
:20555000E07DFF2800D11FB1086B40F440400863FEBDC0460DF8FFFF34B20000B0B54568C8
:2055700084682349607DA27DADF1180D40F000400090207D0027FF2A41EA000001904FF01C
:20559000020002D0E27DFF2A00D13FB1E37DA07D1943039140F0004002900420FE214DF8E7
:2055B000201005F154006946FFF714FD2866002808BF381C1AD0617D0F2203F063FB286EFA
:2055D000217D102203F05EFBA17D3846FF2902D0E27DFF2A00D140B1286E112203F052FBB6
:2055F000286EE17D122203F04DFB012006B0B0BD0000C0A02DE9F8432020EFF3118780F316
:205610001188214CA068012104F09CFF4FF001094FF0000865692168A4F81C906A1A21687F
:20563000A4F81E80461B401A904227D387F3118840462D18361A4846294604F07FFFB0420A
:20565000F7D92021EFF3118781F31188E18B012903D14046294604F071FFB0F1FF3F06D02A
:20567000A169801B814238BF081C291801E0A069411904F05FFFA4F820902560A4F81C80B7
:2056900087F31188BDE8F883780100207FB503461F480D4601881F480088144614A6984291
:2056B0001CDA994216DA1C480088002808BF13A217D00095002C48BF47F6FF74174E0020A5
:2056D0001749ADF804406A46346802901846A04702980AE0184604F095F908B9324600E0D1
:2056F00042682146284602F001FC00907FBDC0467B6D6F64756C652325647D007B6D6F6475
:20571000756C652D726F70653A25787D00C046C032B50000B6B50000FE120000F8B5000027
:20573000399100008B4208BF824204D90B1C021C002100207047002B08BF002A0BD10B1CFE
:20575000021C00210020002B08BF002A1CBFC943C04303F04EBAF0B51C4615460B460246DE
:2057700000200021B4FA84F6202E04BFB5FA85F62036B3FA83F7202F04BFB2FA82F720376A
:20579000F61BB6F1200727BF05FA07F400257F42B4403EBF25FA07F73C43B540A34208BF26
:2057B000AA4201D3521BA341404149416D0845EAC4756408761EF1D5F0BD70472DE9F0416F
:2057D000DFF8888004680E4617464FF0FF31404604F045FB4FF0FF35092E08D0217A012056
:2057F000B040084212D108433546207211E0237A0521012000FA01F2134202D0491EF9D506
:2058100004E0227A88400D4610432072B5F1FF3F15D0A7B1062003F04DFA2946384600F09A
:2058300061F80746062003F0ADF847B1217A0120A8404FF0FF3580F0FF0008402072404616
:2058500004F03FFD2846BDE8F081C046440B00202DE9F043224C81461D4604F108002F689A
:20587000006816468846ADF1240D1FBB0C2000F07DFA071C16D0684600212422082304F00D
:2058900055FE0023069749466A46ADF810301348059304F047FE386038B9FFF7A4FA3846FA
:2058B00003F022F86FF0030015E0C7F80480BE602F6008E080470546386804F063FEBE6077
:2058D000E168284688473868494604F063FE386804F05CFE002009B0BDE8F0839FA0000090
:2058F000280A00202DE9F04180461F4800680D46416927208847012404FA05F61B4DC5F814
:205910000064C5F87C470327C5F8807718480460C5F88477D5F80404012818BFC5F804445F
:20593000C5F8FC6313480460C5F800801023AB60204604F083FCD5F88C076FF39D000028A1
:20595000F6D0D5F88C17204611F0404F09D1C5F884770021C5F8FC16D5F80024164218BF69
:20597000081CBDE8F081C046B00100100440024000E04842000048427CB5214D0446286823
:2059900008B1112076BD1F48017811F00A0F01D1122076BD042004F0D5FA286070B30220F5
:2059B00004F0BCFD28680422214604F021F904F0B1FD28B10C2004F0DFF805460D200DE028
:2059D0006078022805D1122004F0D6F80546132004E0102004F0D0F80546112004F0CCF869
:2059F00006460948007804F091FD0346E07800903246A078294604F085FD76BD132076BDC1
:205A1000984E0020584F0020594F00202DE9F843DFF87C808946054617464FF0FF31404651
:205A300004F01DFA1B4C04EBC5046668256804F036FC1949097801290CD12968002909D42A
:205A500005DCB9F1000F09D04FF0FF3108E0B9F1000F03D004F00AFE002413E02968491CD7
:205A7000296004F003FE286802280BDA1FB9684604F0C1FB6F4638686860C0272F72706846
:205A9000FEF752FF404604F01CFC2046BDE8F883440B002090B50000800F0020204A2DE9B5
:205AB000F04180460124A2F13000046019480768002FFCD01B49184DC0200B1F28601868ED
:205AD000800806D253F8040C144B000C40F0F000187000204FF080571060D7F8F0010E680C
:205AF000016830468847D7F8F0014268314640469047D7F8F001816830468847D7F8A0014C
:205B1000C1680220884740202860074E3460BDE8F081C0469402224300600C4056620840C7
:205B300040100940B43F00509404604270B521490B7803F00104C3F340010C19C3F38001E2
:205B50000C191D498D7B00220600A5F1250118BF0128C9B201D01E2070BDE4B2012C0FD065
:205B7000040003D102290ED04A1C03E001280AD141B14A1ED4B2022C05DDD0B2032815D164
:205B9000084670BD0222012494402342F5D1040005D1D4B2022C08BF0022F4D007E00128E7
:205BB000E8D1D4B2002CEDD0521EE3E770BD521CE0E700BF7F0F00209C4C00202DE9F8434B
:205BD000204D0746A868804781461F4883686FF00B06002480469BB113F8020C874208D1AA
:205BF00034B16BB138464FF40041FEF783FD0CE01C460CB9A3F10C0653F80C3C002BEBD1EA
:205C100038464FF4004102F073FFACB1A8688047D8F80810A4F10807A14219BF54F80C1C1F
:205C3000316057F8041CC8F80810002147F8041CFF26BE71E9688847E96848468847204674
:205C5000BDE8F883280A0020B80D00202DE9F8438146EFF31188202080F311881E4D1A4C2D
:205C7000184F012605F11C000660A4F114000660F86A016A14208847D9F81000810C14BFEE
:205C9000000C04202060386802682321002090470E480F4F0660386800280CBF311C0321E1
:205CB0000C4807680FB141F00401183C206820F4E02040EA014020602E6088F31188BDE8F9
:205CD000F883C046840100101820094080022443C0B50000C4B50000000024432DE9F04198
:205CF00006467468B56804F0DAFA8046A06A58B928688169090907D2006B400A04D2404630
:205D100004F0B4FCBDE8F08104F5827004F0C3FA00274046A76204F0A9FCA97D3846FF2902
:205D300002D0E97DFF2900D118B12046294600F037FA04F0B4FA2A68916B21F0200191630D
:205D50002A68116B21F48071116304F08FFC04F2291003F0FBFC606A216A091A216223698C
:205D7000626A30469847BDE8F0817047F8B5041D14F003001CBF241A241D03F01DFB1D4A84
:205D9000054657691561102C88BF9769386800231E46010821D226B9844209D93B4601269D
:205DB0001EE0196809188C42196019D81F460846DFB1D169001B042807D23868091AD16169
:205DD000386840F00040386005E0385144F000403860091BD1613F1D07E080F00040002622
:205DF0003F1838680028D4D10027284603F053FF3846F8BD280A002038B50020FFF796FED9
:205E10001B4D1C4CAB682530A87340F6C4102168CA8800FB0233AB6009898A4204D104F0D8
:205E30006DFB00F6C410A86000206880124A1348C17E01F0E00141F08101C17600210162DA
:205E5000107888B12168C87A022818BF03280BD10B4D05F10D0004F04DFB28B92068062276
:205E7000E91D0C3003F0C4FEBDE8314000F050BD9C4C0020144F0020784E0020D04B00205C
:205E9000AC450020FEB5214C251D2046294601F007FD00260835606831464FF000424FF053
:205EB000FF3304F0CBFB0028F5D0009601A80DF106016A4602F084FE0028ECD1BDF80410E3
:205ED0000120102918D121789DF80620914213D1009A1178D0290FD197783FB957782FB9AA
:205EF0001146C91C0B682B608988A980A7681FB1396809B11046884700990029CBD000283A
:205F1000C9D0084604F097F9C5E7C0460C0600207CB5040004BF002003F02EFD16494C60E1
:205F3000606900B180476068017B01F00F0102290CBF806804F0E2FAA0601049104B0878E9
:205F5000002814BF0F4810480021CDE90001022261680E4C0E482568006855F8086FB04762
:205F70000C4910F1020F088004D1BDE87640002003F002BD73BD00BFDC180020784E002037
:205F9000899000000204848002048080F04E0020EC4E0020424F00202DE9F0431E4D044661
:205FB000002799460E46A2EB0408ADF1140DC5F8B071012004F042F92868C00FF9D3286A34
:205FD0000090686A0190A86A0290E86A03903CB12346684610F8011B5B1E09F8011BF9D1AD
:205FF0000320C5F838023D467CB142462046EC462B469918745C1CF8011B401E03F101032F
:2060100081EA040141EA0505F3D1002D14BF0420381C05B0BDE8F0835045024070B506467A
:206030007468B568206E03F0E0FB29681A488A6B10408863002020703046FFF74FFE3046F9
:2060500001F08CFD2968C86A20F01000C862296812480A6B104008636868FEF7ABFB04F12E
:206070007C0004F01AF904F1980004F02CF9A07818B904F1CC0004F022F9607818B904F190
:20609000E80004F01CF904F5827004F0FAF804F1680003F0BBFA70BD0DF8FFFFFEFCFFFF01
:2060B000BCB51E4C04F16C05E16F28680029074631D158B3684601F08DF928B1009818B1CD
:2060D000082002F08DFABCBD082003F01DFC284603F049FAE06707F1180003C80E49C4433E
:2060F0000B1F1C601A681042FBD10A6810430860F869C04341F80C0CF86951F8082C104337
:2061100041F8080CF86803F0A3F8BCBD04F1D000022104F0DEF8BCBD14100440880F002071
:20613000F8B5074604F0BBF8044687B3B87A70B397F9092003F08AFA012303FA02F1CDB212
:2061500050B1164E113203FA02F0331D1A6882431A60C64343F8046C0020B8610346BB7224
:206170003B7207F110063B60024686E80C000A4A7B6002F5CC7003781943017092F89A0128
:2061900010B1401E82F89A01284602F029FA204604F06CFAF8BDC046880F002008100440AA
:2061B00038B50C46054604F07AF82268916B21F02001916304F05AFA286E217D012201F0A3
:2061D00017FD286E217D012202F0D2F9286E217D002202F057FD286EA17D002202F052FDD4
:2061F000A878012806D005F1CC004FF0FF3103F036FE03E0216888690009FCD2286E217DB0
:20621000102202F03FFDA17D0020FF2902D0E27DFF2A00D118B1286E112202F033FD38BDD4
:20623000B0B51D4CE06F04F16C0570B32869806903F02AFC0746286900233A4602F032F878
:20625000B80806D20FB328694FF48041C4F8800017E028690F4F8269396822F002029143A7
:2062700039602969CA6957F8083C23EA020147F8081C296905F1080003F086F90020022165
:20629000286104F1D00004F024F8FEF7ADFDFFF707FFB0BD14100440880F002038B5044632
:2062B000194841780A062DD5184D287870B1184A117859B9032003F0EBF8010022D09120E2
:2062D000087010224A708C70287817E00C2003F0DFF8B8B101210170FF2200F108034270F6
:2062F000436004211970102341684B70012241688A70014642680748D4700078BDE83440CB
:2063100003F004BA31BD00BF1C4E00201F190020624F00201D19002070B51C4E1C4D317865
:2063300004462878891C8842A4BF002003F024FB0022A968182353431944487828B90B78DA
:20635000FF2B0DD0686881420AD13178521CD2B2891C8A42EDDB002003F00EFB002070BD7B
:206370000020486048610C700120487028786A78401C28702243C0B201281CBF802C402CDE
:206390006A7000D16960084670BD00BF7B4F0020DC1800202DE9F0411C4D804668680C46A9
:2063B00088B3002617E037010830C05930B103F0D9FD696801F108020020D051686800F173
:2063D0000C01C85930B103F0CDFD696801F10C020020D051761C46456868E4DB24B103F05B
:2063F000C1FD002068600EE068B14FEA0812002103F07DFF0020FF2103E06A680301401CA8
:20641000D1544045F9DBBDE8F08100BF740E00202DE9F041074603F0B9FE16461A4AD21E89
:206430009478A6F10C05FF2802D0926A12185479DFF85080FF2C04D1404600688068804768
:206450001DE0084603F072F901464346FF20A8721D6837B92046EC6B00223346A04740B1D5
:206470000AE0012F08D120462C6800223346A04710B90020BDE8F081304603F037F90120E4
:20649000BDE8F081680F0020BB0D0020002213460A46194671B510F0030F0BD0002A82BFAF
:2064B00000F8011BB2F1010210F0030FF6D1002A08BF71BD11F0FF0141EA0121042A18D3B3
:2064D00041EA0141082A0FD30E46102A08D30C460D46B2F10F0312F00F0272C0103BFCD804
:2064F00012F0080F18BF42C012F0040F18BF40F8041B12F0020F18BF20F8021B12F0010F26
:2065100018BF017071BD70472DE9FC4105461B4804686068002800902CD447F6BC780027B9
:20653000024620686E469100B54201EBC201014403D38868854203D21CE08868854219D845
:20655000086880B149688842A1EB000609D16369002B08BF606101D003F026FBE760C4F83C
:206570001080266102E0486803F01EFB0098401E0090D5D500986060BDE8FC818C180020E8
:206590002DE9F04780461B4807687D683C6847F6BC7A4FF00009AE0006EBC506A41903E0B8
:2065B0003C680C3E6D1EA419236843B9606803F0FBFAD8F8000061688842F1D115E02068BC
:2065D00061688842A1EB000209D17B69002B08BF786101D003F0E8FAC7F80C9052463A61CD
:2065F000D8F8000061688842DAD16D1E7D60BDE8F087C0468C1800202DE9FC410446002072
:2066100003F050FC184E0546B0688047804602F08FF8074604222146284603F0CEFD3846D8
:2066300003F09CF90025012702E02D1D241DADB23846411ECFB278B128466946042202F0ED
:20665000D9FA68462146042202F010FF0028ECD00449012048700870F16840468847BDE846
:20667000FC81C0465C0F0020280A0020FEB50C46154640F67B41A21F8A423CBFAE1F8E4233
:2066900029D2A54227D3B3F5FA7F24DA0899A1F10A0640F67747BE423FBF5B1C6E005E4334
:2066B000B6EBC10F17D290F8941041B1D0F834010A21B0FBF1F1C9006B4399420BD30C99C8
:2066D0000B98019100900A9B099A2946204603F00DFF012801D10120FEBD0020FEBD704760
:2066F000F8B51A4C0546A06A2860E069686002F063FEA669844600200746C4F810C003461B
:206710003C4612E0110809D21FB91346304601270AE001689B188918016005E082F0004291
:206730000027A34288BF1C1CB6183268002AE9D19C4238BF1C1C604603F0ADFA204608288F
:2067500094BF00200838A860F8BDC046280A0020F8B5184C207801282BD0174E012026F0F8
:206770000306164B2662226A207004F124050020314662629B1B2F68A362F61801E041F808
:20679000040B8E42FBD8991002EB810123F0030341F8040CE8213960EC3BC2F8E830E83208
