:2000000000400020317B000001C9011001C9011001C9011001C9011001C9011001C90110B2
:1C00200001C9011001C9011001C9011001C9011001C9011001C901103FC9011089
:20003C002DE9F04F0F46BA4C0168E16241688068ADF1140DE060B748A1608047B648E16AA8
:20005C000160A168DFF8E8A24160E168DFF8DC928160B249002FA346C16066D03D68A8688A
:20007C0008B1AF490160E86808B1AE490160AE4C2878207068786070A878BE68A070317818
:20009C00B268E1707368A2602E696360EA6926627968E2620868E06068696062A8697B686B
:2000BC00A062286A9E68206395F8240084F834001EB9002009F0FEFA00E066617868C0680F
:2000DC0018B9002009F0F6FA00E0A0617868006918B9002009F0EEFA00E0E0617868406885
:2000FC0018B9002009F0E6FA00E0206128692062F86881680E6806B9C14EC0494FF00108C8
:20011C004E60C66881F8018036B9002009F0D2FA4D462E68F86801E04D462E60006854468C
:20013C00FB68A0615868E06107E0002009F0C2FA4D462E684FF001085446361DB14936688C
:20015C00621C04F114035020B04710B1286880688047DBF808008047AC4E002781463B4687
:20017C00A94877706946206104223370384608F0DFFB0098B0F5801F0CD020B908F046FE75
:20019C0003F09EF908E007F02BFD09F087FD0427778002E008F03AFE04270020A34E2A6833
:2001BC00A0600346B360906980477060984880F80080002141800A2009F058FDFF210A22B9
:2001DC00A06209F026FFE01CFF21022209F021FF0A2009F04BFD8F4E3060306800210A22CD
:2001FC0009F017FF002000F027F9404607F0ACFF89480188FF2906D1022101807822001DC8
:20021C00002109F006FF032000F012F983482B6807705F68002103AA102001ABB847A06A36
:20023C00E1690527401D9DF80C207F1E00F8012BF9D1891EE161DBF80C104846884704F159
:20025C0020002B68626A049040461F69DFF8D08104F120034146B84710B12868806880479B
:20027C00B04608F00BFF5FEA000903D004F046FE4FF0FF39002637E00298216910F8062CFB
:20029C00A0F10C07032A02D171B388472CE0A16A9DF80EC005223046491E11F8013F9C4503
:2002BC0006D0521E00F10100F7D14FF0FF0A01E05FFA80FA2868BAF1FF0F00F1080011D003
:2002DC00387908F0EFF8B979012904D0022904BF0299887001E0029908700299504609F0A3
:2002FC00B3F801E0006880472868C3690DF10E0102AA0DF10D0098470028BDD0D8F8000043
:20031C007700C35BB3B9761CF6B2052EF8DB34E0F009002041490010F8440020B4A3000006
:20033C009F9F0000A59F0000500C0020300F0020800D0020052E20DADBF808008047D8F8F8
:20035C000010002231F807A0CA53DBF80C108847344850F8262026705146304690470646D4
:20037C00FF202070DBF808008047D8F800107A5A16437E52DBF80C10884708F07FFE0746B3
:20039C00B9451AD007B9284FE069B84238BF071CDBF80800804781462868016A206A884708
:2003BC00626A28681E49049B521C6262C6683846B047DBF80C1048468847A7682968606935
:2003DC0014318FB9D8F8000005270026835B33B10969606988472968D8F8000014317F1E43
:2003FC0006F10206F2D103E0096988472968143109684FF0FF30884733E7C046940E002095
:20041C003F7900000D92000019990000240F0020040C0020C01800208C0A0020D01800207E
:20043C00F984000028B200008EC2F5287C180020DFF800F0598801102DE9F84FA949AA4A2C
:20045C00AA4D08700821002010600D23A84840F23532017043808280A6480560AC7EA648FE
:20047C000470FF2CE97E417008BFFF292A7F82706B7FC370AE7F0671ED7F457114D1FF2A2E
:20049C0008BFFF2B10D1FF2E08BFFF2D0CD19B490A7802704B7843708A788270CB78C370B9
:2004BC000A7902714979417195490278DFF85482DFF854920A70FF2543784B7082788A70EC
:2004DC00C378CB700279914B0A714079487188F8005088F8015088F8025088F8035088F880
:2004FC00045088F80550002089490880D9F83440884960780870227887491A70A078087053
:20051C00A2681079854A411E1170E0788449854A0870E068106008B909F0CCF86069824947
:20053C00086008B909F0C6F8A069DFF800A2CAF8000008B909F0BEF8E0697D49086008B9D3
:20055C0009F0B8F87B4C7C4E207909F08FFB3060F0B16079794F09F089FB3860C0B1A079B8
:20057C00DFF8DCB109F082FBCBF8000080B1E07909F07CFB7349086050B164490A782078DC
:20059C00921C504380B209F071FB6F49886018B9BDE8F14F06F042B8316801200871326854
:2005BC0015733068457331688D733068C57331680D7400213068457400203268D172A02293
:2005DC003168487103213068C2800172072032685072002130688172282130680122418246
:2005FC00C2760020316848770022306880F85E200121326811770120316881F85D00012288
:20061C003868027139680D733868457339688D733868C57339680D740021386845740020FD
:20063C003A68D172002239684871386882724FF420703968C88008818A7401213B68D97454
:20065C00DBF800201573DBF800104D73DBF800209573DBF80010CD73DBF8002015740022A4
:20067C00DBF800104D740121DBF80030DA720023DBF800201171DBF800104B71DBF800102F
:20069C00C88008818B720520DBF800209374DBF800102E4AC87410688047DAF800100A6827
:2006BC0005469047DAF8001051F8042F00209047D9F80C101A4B0A881878254902430A80F6
:2006DC002846244A13689847404600F045F800F047F8BDE8F44F034800784FF4005103F0B4
:2006FC00FDBE00BF6E4F0020044F0020B63F0050604E0020084F00202C4E0020E8120050A6
:20071C003C4E0020344E00202CB300007B4F00200C4F00206D4F00206B4F0020724F002096
:20073C006C4F0020F04E0020F84E0020FC4E0020641700207C0E0020104F0020144F00204D
:20075C00184F00201C4F002088180020F8090020544F0020FC090020DFF800F01D6E01103F
:20077C00DFF800F04D7101102DE9F04F09AFADF13C0D08900A92388809911E46ADF8180024
:20079C00101C08BF002000F07581017800274FF0010B401C4FF0FF39B846DA460A9061E18C
:2007BC00252940F056810178401C0A902D2918BFADF8068004D10178ADF806B0401C0A9062
:2007DC0030291CBF4246434604D10178401C5A465B460A902A29CDF800804D4617D1049389
:2007FC0030680A9BCDF80890C01C20F00300001D306050F8044C1978002C009403F10100C9
:20081C000A9018D5ADF806A06442009413E044460AE0600000EBC4004018A0F130040A987B
:20083C0001780094401C0A90302901DB3A29F0DBCDF8089004932E2929D10178401C2A29C9
:20085C000A9011D13168CDF80880C91C21F00301091D316051F8045C002D48BF4546017888
:20087C002B46401C0A9011E0454643460AE0680000EBC5004018A0F130050A9801782B4644
:20089C00401C0A90302901DB3A29F0DB02930AB1224604926C2904D04C2918BFADF80480B7
:2008BC0004D10178ADF804A0401C0A900BA8CDF80C800FAB07906429059300F08280692991
:2008DC007FD0BDF818C075296DD0782969D06F2965D070294ED063293ED0732922D00A981D
:2008FC00401E0A90099801281AD966490C68B5F1FF3F03D0A84288BF6D1C05D86FF0004116
:20091C00814294BF0D1C099D029508A80AA932466B46A04709993F18091A0398099165E036
:20093C00454617E03068C01C20F00300001D306050F8040CBCF1010F014608B94FA0014692
:20095C00079109F0EFF80390B5F1FF3F4FD0A8424DD9039528464AE03068C01C20F00300A6
:20097C00001D306010F8040C8DF82C005D46039558463CE0082035680490E81C20F0030080
:20099C00001D306050F8041C082210230FA805F025FF401E079040210170079823E0082365
:2009BC0002E0102300E00A233068C01C20F00300001D306050F8041CAA42BCBF2A1C04921A
:2009DC000DE03068C01C20F00300001D306050F8041CAA42BCBF2A1C04926FF009030FA80D
:2009FC0005F0FCFE07900599081A0390009C241ABDF8065000945DB906E008A8202109AAE9
:200A1C0008F09AFA7F1C009C641E0094F5D50398401EB0F1FF3F03900FD1BDF806000128E8
:200A3C001CD10098401E009018D408A8202109AA08F082FA00987F1CF4E70798017809AA4A
:200A5C0008A808F079FA0798401C079003987F1CDEE708A809AA08F06FFA7F1C0A98017858
:200A7C00401C0A9000297FF49BAE089808B14146017038460FB0BDE8F08FC046286E756C50
:200A9C006C2900C024B30000BB482DE9F84F0025BA4CB849056094F8E200002800F06581B1
:200ABC00012800F02F81B64E02283CD0032840F05C8151F8250CD4F8B8100029A0F5C060F3
:200ADC00C4F8D400B8BF49420028B8BF4042814226DA4FF08057D7F8A4014568B4F8BC00E5
:200AFC0030214FF47F42082300903046A847D7F8A4014568B4F8C00004214FF4F802122341
:200B1C0000903046A847D7F8A401B4F8D070456820214FF440620A2330460097A847012542
:200B3C0084F8D8501CE151F8258C09F04AF92F4600B901273946934F38680028FCD0B14680
:200B5C00012609F10409D9F82CA03E6009B109F03EF9CAF30720C4F8BC0009F032F9AA46B6
:200B7C0000B9B2463B68002BFCD0D9F800B0BAF1000F3E6001D009F02AF9CBF38440C4F80A
:200B9C00C00009F01EF9AA4600B9B2463B68002BFCD0D9F81C90BAF1000F3E6001D009F08F
:200BBC0016F9C9F38120C4F8D000B8F5C061C4F8B81000F09C8094F8D80068B9C4F8D4109E
:200BDC00D4F8C000C4F8C800D4F8BC70C4F8C470D4F8D030C4F8CC30D4F8D400D4F8BC3025
:200BFC00002854BF02226FF0010204F1C8010F6800EB40008018421000EB927207EBA2004B
:200C1C000860D4F8C810C4F8C43000291CDD1E293CDDD4F8CC0030B93429B4BF15391E219C
:200C3C00C4F8C81025E02A29BABFD4F8C8000B381E20C4F8C800D4F8C4003F28B4BF401CD4
:200C5C003F20C4F8C4001FE0D4F8CC00032812D011F10B0FC6BFD4F8C8000B30301CC4F87D
:200C7C00C800D4F8C4000028C4BF401E051CC4F8C450032508E011F1150FC6BFD4F8C800B7
:200C9C001530301CC4F8C800C4F8CC504FF08057D7F8A401B4F8C43030214FF47F4245681F
:200CBC00374800930823A847D7F8A40104214FF400321123456832480096A847B4F8C8602A
:200CDC00D7F8A40104214FF4F802122345682C480096A847D7F8A40120214FF440620A2380
:200CFC00B4F8CC60456826480096A84701E084F8D85040F2FF50404502D8801C40452FD2D9
:200D1C00082030E051F8251C1F4F4BF2F5204843060A3868C0F3814001280CD11B480068B5
:200D3C000068804707F03EF909F057F83111C010484306EBE03694F8E50030B91448006830
:200D5C0020F07F403618760801E084F8E5501148310C0660012741600F4D8760287808B9E1
:200D7C000B2000E0052084F8E40001F021FBBDE8F88FC0462D400C402C500C40DC08002003
:200D9C0000A00C4000800C40B43F0050EC010010102009403C600C40F9B100002DE9FE4FD1
:200DBC0005467B48002400680094C00905D37948007810B9202007F01FFD012D40F0E28033
:200DDC00DFF80092D9F8DC00012840F0D8800220C9F8DC0008F002FD012007F00DFD5FEA0F
:200DFC00000805D00120C9F8DC0008F003FDCBE009F0FFF8A34602906748684DC0F800B062
:200E1C00A86A016801208847012804D1584605F02BFE012000906248624FC0F800B038687D
:200E3C00112008F0E7FF00B10124102008F0E2FF08B144F002040F2008F0DCFF08B144F0C6
:200E5C0004040B2008F0D6FF20B12868564E016B308888470A2008F0CDFF20B12868534E8E
:200E7C00016B308888475248012606602868816944F0200088474F48066008F0B5FF00F006
:200E9C0001010191400814D2286A81684A4888478246BAF1040FF7D0BAF1010F04D1286A29
:200EBC0042684548032190474449086820F003000860584600F0D4FC2B683868986B804711
:200EDC00019801280CD0BAF1010F04D1286A42683948314690473949086840F00300086030
:200EFC002F48066028684169204688470B2008F081FF20B128682C4BC16A188888470A204B
:200F1C0008F078FF20B12868284BC16A18888847274806600322C9F8DC20264BC3F800B045
:200F3C002868416B204688470128F9D13868042007F062FC044618480660386814480068A4
:200F5C008009FBD30098012802D1304605F08CFD08F03DFF082007F04FFC07460298C9F850
:200F7C00DC6000F031F81648008805F0E7FA08F041FC57EA040018BF4FF0FF3804E06FF03A
:200F9C00040801E06FF001084046BDE8FE8FC04614100940C40900200C400940B80100106A
:200FBC00000222432C200940B6AE0000B2AE000028200860800104430040034024220840CC
:200FDC00F4B10000DC080020DFF800F005B3011008B506F005F802480121017008BDC04664
:040FFC00480F00207A
:20100000B41200001810000015AB0110FDB301106DC00110FDAE011099B5011000000000F7
:08102000000000002D0000009B
:20102800B01200003C100000B1C00110A9BF011067C0011069B80110000000000000000035
:041048003000000074
:20104C00B012000060100000BDC00110CDB30110D9BD01106DB3011000000000000000005B
:04106C00310000004F
:2010700000000000B40E002004000000000000000000000020000000E8C901103000000068
:2010900028100000BC0E00200400000000000000000000000C000000D8CA01101800000043
:2010B0004C100000C40E002004000000000000000000000024000000F0CA011018000000C7
:2010D00000000000CC0E00200400000000000000000000001000000018CA01102C000000D3
:2010F00000100000DC0E0020040000000000000000000000200000006CCA01102400000037
:20111000FFFFFFFFE40E00200400000000000000000000002800000090CA011024000000F6
:20113000FFFFFFFFEC0E00200400000000000000000000001400000008CB01101800000075
:20115000FFFFFFFFF40E002004000000000000000000000058000000B4C901103400000043
:20117000FFFFFFFFFC0E00200400000000000000000000001000000020CB01101800000011
:20119000FFFFFFFF040F00200400000000000000000000001C000000B4CA0110240000003D
:2011B000FFFFFFFF0C0F00200400000000000000000000003800000044CA01102800000065
:2011D000FFFFFFFF140F00200400000000000000000000005400000078C901103C000000DA
:0811F0000100000018B300002B
:0411F80001000000F2
:0411FC0000000E00E1
:0412000000000F00DB
:0412040032000000B4
:0412080001000000E1
:04120C00140E00209C
:0412100000020000D8
:0412140000000000D6
:0412180001C90110F7
:04121C0000000000CE
:0412200000000000CA
:0412240008000000BE
:0412280000002200A0
:04122C00880C00200A
:0412300000000000BA
:0412340000000000B6
:0412380008000000AA
:04123C00D40D0020AD
:0412400000000000AA
:0412440000000000A6
:04124800080000009A
:04124C00000000009E
:04125000000000009A
:041254000000000096
:041258000000000092
:04125C00010000008D
:04126000200D00203D
:041264000600000080
:041268000100000081
:04126C00B80B00209B
:04127000000000007A
:041274000000000076
:041278000002000070
:04127C00000000006E
:02128000290043
:02128200010069
:02128400250043
:02128600300036
:02128800310033
:02128A002D0035
:02128C0001005F
:01128E00015E
:0812900003000000B4B20000ED
:0812980000000000000000004E
:0412A0000000010049
:0412A4000000030043
:0412A80013C401105A
:0412AC00899A00001B
:0412B000B812000070
:0412B400B81200006C
:0412B8000000000032
:0412BC00880E002078
:0412C000C79B0000C8
:0412C4002000000006
:0412C8003CB2000034
:0412CC00E0B000008E
:0412D00029C101101F
:0412D400C7970000B8
:0412D800039E000071
:0412DC00A1C7011095
:0412E000A3C701108F
:0412E4000000000006
:0412E80061B20000EF
:0412EC00ECAE000064
:0412F00004AF000047
:0412F400D4AE000074
:0212F8000200F2
:0212FA000900E9
:0212FC000100EF
:0212FE000000EE
:0113000001EB
:04130400559B0000F5
:0413080069850000F3
:04130C0079920000D2
:04131000B1880000A0
:04131400D785000079
:04131800197A00003E
:04131C00515A000022
:04132000AD9D00007F
:04132400257200002E
:0413280015C70110D4
:04132C0025C70110C0
:201330002DE9F84FDFF8C8A20F460446F80B80F01281AA4EDFF89882B80F80F0C380B80837
:2013500080F0B7803809C0F03881082008F05EFD002840F0A980802008F058FD002840F0EB
:20137000A380684603F070FE012803D10098002800F09A8095480078002840F0958000257D
:201390000124E8B208F0B6FB48B1837A3BB1847290F9090004FA00F0C0B206F0C5FF6D1CC8
:2013B000032DEED345464FF0030905F1AC0085F8109008F00AFE87480168002398461A46FE
:2013D000036050F8081C844940F8088C05F1340008F005FE3068006B8047A968401A010B2F
:2013F000A869C1F1FF3282422CBF08444FF0FF30A861287F20B1E868A969B1EBC02F25D914
:2014100007F0C8FF414600B12146081C1BD0744840F60901018043464380417B04F00F02C6
:2014300021F00F010A434273017B03F00F0621F00F0146EA01020273436008F0FDFB4188D0
:2014500011F4406FFBD02C774346AB616548016821F0020141F400710160634941F8049C0F
:2014700041F230028A600C6050268E600C604FF4CA628A600C6041F80C4C4446046002206B
:2014900007F024F9112003F08FF8287818B96868383008F0B0FD687F18B16C77052007F080
:2014B00015F9524868612C7405F0E2FC27F0080783E002F013FB45467435286808B927F013
:2014D00002077AE008F085FDB3468146DBF85400016804208847D8B1207CC8B14546083576
:2014F0002868A8B10646DBF80000E568006B8047801BE060000BE060A84202D240194008D0
:20151000E06040F6C41181422CBFB0F5FA7FE160484608F043FF06F0EBFE90B1A569204607
:201530006FF4807100224FF00073A847464606F16C052868002808BF47F0020701D005F00B
:2015500097FC2046646900214FF080630A46A04727F0005731E008F03CFD51460E6846B385
:2015700006F1280106C90A234FF0E0450B40154008BF002B1DD106F1280191E8300006F19B
:20159000280393E8060006F12803AA43A14383E8060008F003FFB16869B1002D08BF002CDE
:2015B00009D030692246B6F93C10B4682B46A04701E008F0F3FE27F4804727B15046394639
:2015D000503008F020FDBDE8F88FC046E9100020500F002014100440C97100008C0100105D
:2015F00054180020000004600C41044039440000D00F00202DE9F04F8246DAF80070DAF8AD
:2016100004600C465FEA0208ADF11C0D14BF00214FF0FF31DFF84092484608F0BAFA00287C
:2016300018BF0B2040F0158100258F488C4905708A48FC60524608F0D2FC317B272008F015
:20165000D0FCB8F1010F07D06570022007F0D6F9062007F0D3F901E00120607020780128E5
:2016700040F2AA80801E012868D9801E012833D9801E012800F2DE8008F0ABFC83464FF065
:20169000805000F5EE77D0F8DC01A378466A009321782846062908BF0120019001200290AB
:2016B000A068228AE1686368B0478146584608F075FEB9F1000F40F0BF80B8F1000F02D0D9
:2016D00008F00AF902E0504607F082F8002800F0A3803868806A2AE008F07BFC83464FF0D0
:2016F000805000F5EE77D0F8DC01012306680093A168A27860682478AC46042C08BF9C4694
:201710006346B0478146584608F048FEB9F1000F40F09280B8F1000F02D008F0DDF802E042
:20173000504607F055F8002876D03868406880474C49C1F8B0510D6081467DE008F049FC25
:2017500083464FF0805000F5EE77D0F8DC01E38A86690093E0680190208B0290A0780390F2
:20177000207D04900121059122782846022A08BF081CE1786268A368B0478146584608F0CF
:201790000DFEB9F1000F57D1B8F1000F02D008F0A3F802E0504607F01BF800283CD03868DA
:2017B000006A80475FEA000946D1E078A168E28A236904F0EBFABFE708F00BFC83464FF0A0
:2017D000805000F5EE76D0F8DC01E38AC7680093E0680190208B0290A0780390207D29462F
:2017F000049001200590257805B9014608466268A368E178B8478146584608F0CFFDB9F19F
:20181000000F19D1B8F1000F02D008F065F802E0504606F0DDFF08B914201AE03068406966
:2018300080475FEA000907D1306802692169E078904781E74FF0FF39B8F1010F05D002205C
:2018500006F044FF062006F041FF034808F0D3FB484607B0BDE8F08F0C0B0020440B0020C3
:20187000818F000050450240CE1800202DE9F84FDFF804B20746ABF13500DFF8F0810068B3
:20189000800880F0E28075480068006880477E490831D1F8009000254FEA29715FEA995205
:2018B00001F101010AD2C0F13E0210F10A0F4FEAE202D8BF08229142B8BF111C684BD3F86A
:2018D0007C21C2F30462162AA8BF203A1B68C3F30443162BA8BF203B9A465218162A05DA53
:2018F00012F10A0FB8BF6FF0090200E015225D4B5D4E02F01F0141F4F8511980316811F0AE
:20191000030F18BF0125C90828BF45F002050FB145F00405434693F90710411A052904DA23
:201930009979A94208BF99886FD0DFF844E10F28A0F10F0829DB08EB0011A1F1F0084FEACD
:2019500028210091072984BF07210091062988BF06215EF821600424774604EB81043C590F
:201970004FEA950CA41BEE0804F0FF0124BFC4F3072631446F08AE0824BFC4F3074631440F
:201990006E0828BF01EB146104E000214FEA950C6F080091009C5EF824E05FEA5C060EF0F3
:2019B000FF0424BFCEF3072634447E0824BFCEF3074634446E0828BF04EB1E64009E89B235
:2019D000A8EB06267143803104EB1124AAEB02010029D8BF0121342209F0FF074A4391B210
:2019F0004FF6FF727943B1FBF4F18A4238BF111C802889B2998005DA10F1800FB8BF6FF0A3
:201A10007F0000E07F20D8719D711A4800681F2918604FF0000008D340F2FF128A4206D2D6
:201A30004908401C8A42FBD301E01F219980134F0F39090940EAC10047EA0001CBF8FB1F5F
:201A50000026CBF8FF6FBDE8F88F0D490D4F434608200F609B1D1870BDE8F88FEC010010B8
:201A70003C1100506E62084024220840B01800209C130050082009403500094000E7A48032
:201A900030100940FDFDA400AC3F00502DE9F04F044672488E46016894461F46BEF1000F41
:201AB000ADF13C0D4DD0BCF1000F4AD09EF8002001209040014244D0BCF80000B0F5C15FC5
:201AD00032D1DCF81400DCF81860654BDCF81C50DFF890A10B904FF003080DF128090C9611
:201AF00018680D95C0F3036B59F8046FCEB10021351F05200B4655F8042FB2F1FF3F10D024
:201B1000924506D0401E01F1040103F10103F2D107E0052B05DA705820F4702040EA0B4021
:201B30007050B8F10108DFD1C4F804E0C4F808C008F04FFA4C4D8046287820B1404608F0C0
:201B50002DFC002087E001F06FFA4849086840F00200086007A808F077F8002605F1D000CE
:201B700007AA4349099606F07DFA424905F5827007AA06F077FA07A808F036F8FF2019214F
:201B900007AB3D4A089005F1340006F0B5F93B4A05F150001A2107AB06F0AEF93849324648
:201BB00005F18800134605F0EFFC3649324605F1AC00134605F0E8FC334A05F120000421DB
:201BD000334607F0FDF90E2002F0A8FD05F1740007F068FF05F16C0007F064FF2E7405237C
:201BF000EB60072085F898012E77AE616E772849AE60264A69612B781670581C2870404640
:201C100008F0CCFBB1461FB9684607F055FF6F4638682060388A6082012060747B6813B910
:201C300040F6C4130646E3601A48A06126746061F86800B1A061B86800B16061494658228D
:201C500004F1200004F062FB04F13800494607F08BF86C6020460FB0BDE8F08FD421084086
:201C7000541300500200F844500F00200020094041980000DD410000C9710000296C0000B1
:201C90008593000029960000C5770000C8180020394400006F5B00002DE9F04F774F1E465B
:201CB000ADF1340D01914FEA960902923D680090710809F1020221F0010105EB8200091DE0
:201CD0000390901805EB80000490501805EB80038018059305EB8000079026F0030000F199
:201CF000080802EB080005EB800340180893801805EB80000990C6F39C008000083002EBCE
:201D10004000411805EB800305EB810B0A938918831805EB8104404405EB8303C6F3990190
:201D300005EB80008900069038680B930A010021803204F0EBFA4A49DFF828A109682846FD
:201D5000AAF1880290470746B94518BF6FF0010040F0828028465546394605F16802904704
:201D70000198314607F0D6FB002818BF012073D10298314607F0CEFB002818BF02206BD1E9
:201D900003980199A84704980299A847009881680598A847344B0399059A20469946C847CE
:201DB000012802D1BD0066590EB1032054E020460021424604F0AAFA0499059A2046C8472D
:201DD000012801D166590EB1042045E0284B274D079803991E462A46B047089804992A4697
:201DF000B047079909980A46B0470A980999079AB047204D0B9807992A46B04720460021DA
:201E1000282204F083FA1C4B0A990B9A20469946C847203520462A460146C8470899584634
:201E30000A46B04706980021424604F06FFAFDB2584625B9F9B20229B8BF012200DBFAB285
:201E50000021635C455CAB4218BF052004D1491C521EC9B2F5D100200DB0BDE8F08FC04616
:201E70008C4F0020B9DB0010C9DE0010B40D0020F9E00010A8AF0000C9E60010884F002025
:201E90002DE9F0430546880FADF1140DC0F0D6806C4C201D006840688768C668406800B1C7
:201EB0008047002F08BF002E08D007F00FFE07B1B84706B1B047644807F06EF8634807F03B
:201ED000BBFE634A40F60A0CA2F800C000205080117B00F00F0321F00F010B4313735060C3
:201EF000517B4FF0010808F00F0721F00F0147EA01035373AB686E7C58801988A1F6020184
:201F1000C9B141F21E07C91B15D041F6E677C91B012920D8597E012E60F38201597606D0FB
:201F3000198B21F47C7141F43471198313E0198B60F30911F9E7597C012E60F382015974EA
:201F500005D0198A21F47C7141F4347102E0198A60F309111982D5F80890687461464E4614
:201F700000E03E46776817B13B889942F9D17260737B00F00F0723F00F031F437773E76E52
:201F90003FB1FB681B88CF1F9F4224D0891F994221D02F8C07B3686205F12003588095F847
:201FB0002C1000F00F0721F00F010F4385F82C7095F82D1008F00F0721F00F010F4385F87B
:201FD0002D705360517B00F00F0721F00F0147EA0100507300E0A0601E4801688768C568EE
:201FF000009110226946406B019720F0784040F0805003901848029503F010F907F066FD74
:2020100016486061607F80B91548006801684046884701280FD0707B08F00F0120F00F00DC
:20203000014371730F4F676105E005F085FE0028FBD007F0DCFF484607F0FEFD05B0BDE846
:20205000F083C046500F00200100070601010E04541800204C13005018000021311300009E
:20207000E00100108D7300002DE9F04FADF1240D079000F0D9FF5F48007807F065F85E4DBE
:202090000024012806D90C3804D0401E0ED0401E09D006E007F090FB022804BF01210C1CDA
:2020B00006D0696805E005211F2401E0032107246960524A1068C0F38150012806D152F840
:2020D0000C0C0127020E07FA02F0044307F0ACFD05F1440AFF2253464018401E471C286027
:2020F0007F1E03F8012BFBD1079A1268002602F0FF03FE2B1DD0DDF81CC0964633460EF0F1
:20211000FF07FF2F0ED0B84205D3B94203D80122BA40144201D0022069E016430EF0FF02EE
:202130000AF802305CF804EF5B1C0EF0FF07FE2FE7D1092002F0F2FA07980121A86005F1EE
:20215000280006F011FE00274FF0010BB9462846804600F198050BFA07F0044216D106429E
:2021700004BF07F0FF0141F4C04104D01AF80700079951F82010224801F038FCF8B24FF0E1
:20219000FF3107F0D7F8C5F8009001E004202860D8F800007F1C2D1D8742DCD904A807F089
:2021B00023FD184C184A2078102104AB059008F10C0005F0A1FE684607F046FDCDF80C903A
:2021D0006A4660681149029008F1640005F04AFF0F4951F80D0C20F4F85040F4005041F81D
:2021F0000D0C0C4FC1F8FFBF4846C7F800B009B0BDE8F08FCF180020C8070020B43F0050D1
:20221000007FC767C8B200000D960000097D00000D300940080009402DE9F04F0746ADF147
:20223000140D0393002F02920E9801910F9C049000F0B680081C00F0B380101C00F0B080E4
:20225000181C00F0AD800498002800F0A980002C00F0AB80206A002800F0A280564D666AC2
:20227000281D0068002E00F09B80A16A08F092F840B2002808BF6FF0020700F08D8084F819
:202290002C002078618800EB80000918143188B2216A88474749086030B92846406808F02D
:2022B00075F84FF0FF3777E08B46628823786088DBF8001025789E1800EB010A701800F1F2
:2022D000040805EB450002EB4306851876186D18C01805F10C098018401800F11005204688
:2022F00005F026FB2078C01C8010CAF800002078C01C8010C8F8000020780836C01C8010EC
:2023100030602078C01C8010C9F800002078C01C80102860227839460AF1040002F07EFF45
:202330002278019908F1040002F078FF22780299301D02F073FF2378204641463246FFF717
:20235000ABFC071C12D100955046414632464B4608F018F847B22278039809F1040102F0DE
:202370005DFF22780498291D02F058FF21786288DBF8000001EB81015218002103F0C6FF25
:20239000616ADBF8000088470B48406807F0FEFFF8B2992808BF002784F82C70384606E0FC
:2023B0001CB16FF0010084F82C006FF0010005B0BDE8F08F884F0020AC0D00202DE9F843DE
:2023D000614C5A4D5A4EDFF870815E4F94F8E4100846401E0B2864D8DFE800F07B2C43063A
:2023F0002343062343067664042907D001220A2945F8212C14BF0220032004E0202045F8BE
:20241000210C0120024684F8E200002045F8390C0827C5F8FF7FC5F8F37F45F8392CBDE836
:20243000F883052914BF09200620002784F8E400376075E094F8E170383D0120002FC5F8EF
:202450001B0004BF0620002102D00021F160032084F8E400032045F8010C31603068800862
:202470005ED294F8E4103348012703290ED00068456800216022052300914046A84794F87D
:20249000E400062814BF0A200720CFE700684568002160220523022000904046A847042015
:2024B000C4E7FEE72548264F0026012506600E203D6002F079F8022006F008F984F8E450F1
:2024D00084F8E360BDE8F883002038600C25786024E04FF08059D9F8A00101682020884746
:2024F0002C3D0F2045F8010C41F61D56C5F80360D9F8A401466800214FF4C0720723022515
:2025100040460095B047D9F8A401C66800214FF4C07207234046B0470120386084F8E4504F
:2025300004F1780007F04FFDBDE8F88339400C4038600C40A401001000A00C402C500C40A9
:2025500004800C4034600C40DC0800200FB42DE9F04106AF8046ADF1280D07F0B7FC3E1D5A
:2025700026F00306361D30F0010001D102F035FBCDF81A601420ADF816000025CDF80E504E
:20259000FF248DF818407B68CDF81E3007F0F6FE064607F09BFC30F0010016D006F0B0FDC6
:2025B00084464D4806212A46483030F80C7F4FB143681B689E4204D0491E02F10102F4D1E6
:2025D00000E0D4B2604607F00AFA404606F064F80146FF2905D0204603220DF11A0304F02E
:2025F0003BF907F0CBFE06F067FBA8460746CDF8008007F06BFC30F0010063D0002F61D0ED
:2026100041F2883001A906F0C9F9009C002853D107F0B0FE0199012645187868019B4146AF
:202630004FF0005207F0A2FE00282BD00DF122000DF1230102AA04F07BFCB0B99DF82200C6
:2026500003A906F00FF838B9029A07F021FC00281CBF029C464615D10299684606F016FBBD
:2026700078684FF0005107F07DFE0198B0F1FF3FD3D00028D1D007F07DFE281A02D0019964
:20269000814217D206F090FF07F10805009F06F037FD01463FB13A4652F80C0C40B9286889
:2026B00042F80C0C2F60084607F099F9304603E00246F1E70190B0E720B92CB1204607F09E
:2026D00054FC01E002F089FADDF81A0000680AB0BDE8F04104B07047F00900207CB5534A0B
:2026F000534813785349002B73D05B1F08D01B1F012B51D99B1E012B6CD99B1E71D08CE028
:202710004D4C4E4D618801804D48286081B3491E33D0491E2CD040F20240091A25D0491EFA
:2027300026D040F2FB30091A17D04FF44060091A1ED0491E19D0491E012919D9091F14D059
:20275000491E15D0491E10D04FF47E70091A0FD0491E0AD0C91E08D011E041F20641618057
:20277000012003F0DDF82530A073364828600CE0002006F0A5FF852005E08F2003E0002010
:2027900006F09EFF842007F0E9FDBDE87C402E480078012101F0A8BE4A88028040F2044083
:2027B00082421CBF41F2084082423ED041F60400824211D1254C264A2568264800680023D5
:2027D000CDE9002355F8086F234B0222B0472349088073BD4A880280002006F071FF852020
:2027F0001FE04A880280022A0DD940F20440121A1BD040F6FC70121A05D0083A15D04FF4CA
:202810007F70121AE8D1887B801CC2B2B52AA8BF662088730020488073BD002006F050FF7D
:202830008420BDE8764007F099BD73BD6F4F0020504F0020CC4C00209C4C0020204F0020A0
:20285000AB9F0000FD5B00006E4F0020F04E002002000080EC4E0020D18D0000424F0020A0
:202870002DE9FF415648017800293ED0052940F09F80544C2068016801F10807387810F0E5
:202890000F0F1CBF00F00F01062907D000F00F02022A1CBF00F00F0001281FD10622B91C0C
:2028B000684607F049F83878474D484EC0F3801800F00F0001283BD1062207F1080102A8F6
:2028D00007F03AF83F78FF0902A9384607F042FDD0B13068807C022818BF03286ED105F12B
:2028F0000D0102A806F0BAF8002867D031680120C8720622607940F00400607102A93068CC
:202910000C3007F019F813E02878874210D10622691C02A806F07EFD50B12878617960F390
:202930008201617106223068691C0C3007F004F86946404607F00EFD00283FD060696946D8
:20295000001F07F003FDC8BB2946684607F0FAFC3168897CFF281FD01D2250432E180029CF
:2029700018BF02290BD0012918BF032926D12A5C6069711C001F07F0E1FC10281ED0606988
:202990006B46F21D3146001F07F0D4FC06226946F01D06F0D1FF11E0002918BF02290DD166
:2029B0006069012342466946001F07F0BFFC05E0002006F085FE862007F0D0FCBDE8FF8106
:2029D0006F4F0020D04B0020AC450020144F00202DE9FF4104466668A7680D4607F0F9FA80
:2029F0003178012903D107F0D9FC00208EE00121317007F0D3FC287870706878B0706868ED
:202A10007060A868B060E868F06028693061287D3075687D7075A87DB075A869B061287FCD
:202A30003077687F7077A87F4FF0000843461D4686F82851B07786F82951C6F820803363AD
:202A500075627563B562B56386F82C5086F82D50786801F063FE204602F02EFC204602F087
:202A700077FC60B9386806F055FC786801F09CFD07F0AFFA357007F091FC2C4645E068465B
:202A900007F0B2F80094387B224A0190B9686B4606F17C0005F030FA684607F0D5F80094D7
:202AB0001D4938696A46029006F1980005F0DAFAB07830B906F1CC00294606F055F917487F
:202AD0003061707830B906F1E800294606F04CF91348F060684607F005FA01958DF8005041
:202AF0001049029406F582700A226B4604F04CFDB969FA6906F13C0007F042F80A4A06F19C
:202B100068000421234606F05BFA20460090BDE8FF81C0463D2B00009F6F0000539F0000DB
:202B30004B9F0000617A0000199D00002DE9F84F8046D8F808603068D8F80450076CDFF8A9
:202B500030B14764AB6B6A6C286C17F4F06F1946A0EB020934D1F8091ED2780974D3B1B1DA
:202B700096F821205846801D845C601E814294BF1C1C641E4046214606F02DF8A86B001BD7
:202B9000A86361D105F19800012107F03CFA4046494606F08DFA57E00029F8D0404606F0D5
:202BB0001AF895F82D10A86311B900284CD101E00020A86305F19800012107F024FA43E01B
:202BD000F80A20D24FF0000A544602E0AB6B5B1EAB6393B14046012105F0FDFF306844686E
:202BF00014F00F04C0F804A0F0D0286B401E2863686B401E6863A86BE8B905F198000121B6
:202C100007F001FA13E0306844680022202904F00F044260CCBF4FF0200A9A464046514676
:202C300005F0D9FFCAF120008145C8BF81464946404606F03DFAEC77404604F053FE726A7C
:202C500012B1404621469047B8090FD3A96A69B10F46404605F0EDFFA86238B996F8202088
:202C70005946895C4046C91904F056FDBDE8F88F70AF00007CB54E4D044668680E4628B9AB
:202C90004FF00040002104F0DFF96860002127A30A4606F018F9204628A3801E04D0801E6D
:202CB00037D0401E22D00EE06868012E05D000210A4606F008F924A331E000210A4606F044
:202CD00002F926A32BE0686800210A4606F0FBF868680221002227A306F0F5F801208DF883
:202CF00001009DF801000028FBD17CBD686800210A4606F0E8F868680221002223A306F018
:202D1000E2F801208DF800009DF800000028FBD17CBD686800210A4606F0D5F81FA36868CB
:202D30000221002206F0CFF87CBDC0463E3E3E535441434B20415353455254002A2A2A455D
:202D500052524F522A2A2A003E3E20494E5445524E414C204552524F522100C03E3E204937
:202D70004E5445524E414C204657204552524F522100C0463E3E2044454641554C5420538D
:202D900050494E4C4F434B2100C046C03E3E204943414C4C2041424F525421003E3E204F87
:202DB0005554204F46204D454D4F52592100C0460802002078B50D46E80787B00BD506F0DF
:202DD00053FF28B1002181603C48006800B1804785F0010070E0E80413D53948C11D0D301C
:202DF00007F0A0FA37484268374800784FF4805104F01EFF10B18E2003F08CF985F48050BD
:202E10005AE0A80505D506F0E2FF304901200860FEE7680504D502F0CAFB85F480604BE0A2
:202E3000680405D5812003F075F985F4804043E0A90440D5264C206810B1002006F040FC0F
:202E5000244E4FF0FF30206007F068FA3168224C51F8202F684690472049214B486A8A6A0A
:202E7000009001920293C86A0268086A0392ADF810000A6B1178002904BF5068002805D192
:202E90009068002804BFD068002806D02170506860609168A160D068E06021463468114A30
:202EB000266811486B46B0471049086001F0BEF885F4005000E0002008B070BD204F0020CE
:202ED000AC450020784E00206E4F0020FC002043044F0020F04E002068450020500C002095
:202EF000699C00002C4D002068170020EC4E00202DE9FC4705466E68D5F8088037780FB1ED
:202F1000B76B1FB14FF0FF30BDE8FC8731630024F477171C74631BD006F13C0907F059F87D
:202F300082466946484605F006F800281ED4504607F034FA9DF80000316B0870306B736B92
:202F50007F1E00F10100306303F101007063E5D17078726B316B0128A1EB0201316303D140
:202F7000F36828469847726B144659E0B763D8F80010086B40F400700863D8F80010886BDA
:202F900040F4FA608863504607F008FA06F5947006F090FA707806F5947768BB07F019F881
:202FB00096F82D1069B1716B59B1B16B49B1B46307F0F4F906F5947006F06CFA706BBDE84A
:202FD000FC8707F0EBF9716806F1E805284606F0E0FD0028F2D0B4632846214606F0D9FDE3
:202FF0000028EBD0384606F055FA1027716B306BF777401A3063E1E706F0EBFF96F82D109F
:2030100061B1716B51B1B16B41B1B46307F0C6F906F19800012106F0F6FF01E007F0BEF9AA
:203030002046BDE8FC8770472DE9FF47484C94F8E700002876D13E4E01273C48F57C84F844
:20305000E770736884F8E6500068C4F81031C0F3801084F8E800684606F044FF002504F16F
:203070000C0001956B468DF80050324902952A4604F08AFA304904F130006B462A4604F06B
:2030900083FA2E4904F154006B4681462A4604F07BFAB16838468847DFF8B0802848327D06
:2030B00008F104030078284E1868C0F3815A22B1BAF1030F04D184F8E170BAF1030F17D02E
:2030D000BAF1020F14D0BAF1010F0ED0022005F095FC1C480068016804208847012804D0DA
:2030F00030683221B1FBF0F10DE005F051F812E0022005F083FCBAF1030F0CBF4FF47A71DF
:2031100042F210713068B1FBF0F1484606F059FF484606F058FF40460068C00802D2284616
:2031300005F06CFC00200090BDE8FF8714100940E4B1000077640000354D000089670000F8
:20315000CF180020E0010010BC180020B03F0050DC0800202DE9F84F5FEA00091C46924647
:2031700000917DD0081C7BD0BAF1000F78D0002C7BD0206A002873D03F4D616A281D006880
:2031900000296DD0A16A07F005F940B2002808BF6FF002055FD084F82C002078618800EB2F
:2031B000400009180C3188B2216A88473149AB46086030B9DBF8040007F0E8F84FF0FF35F0
:2031D00049E08846668865882178D8F800008F192D183F1806EB41063618204604F0A8FBDD
:2031F0002078C01C8010286020783F1DC01C8010386020780836C01C801030602278494640
:20321000281D02F00BF828463A463346014607F081F845B2227800983B1D194601F0FEFF78
:2032300022785046311D01F0F9FF21786288D8F8000001EB41015218002103F067F8616AEE
:20325000D8F800008847DBF8040007F09FF8E8B2992808BF002584F82C502846BDE8F88F81
:203270001CB16FF0010084F82C006FF00100BDE8F88FC046884F0020AC0D0020F0B5484DCD
:2032900005F108012846ADF11C0D04F0CDF905F114040021204607F039F84FF08040002153
:2032B000EC6003F0D1FE3A4E384C6860022264230820314660701020FFF748F91020032246
:2032D00064233146FFF742F93248A06005F096F90246607800260090022301962E49029610
:2032F00010200396FFF732F96868314623A30A4605F0E9FD05F0B4FCA868284A31464FF0BF
:20331000FF3307F033F8071C17D0049605A80DF1160104AA05F0F8FA78B9BDF8140010281C
:2033300007D128789DF81610884202D1049800F057F9049808B106F018FEF80FDCD3E8686A
:2033500006F0E0FF0028D7D1E868044606F0D6FF844208BF341C02D0846805F069F9002C35
:20337000EDD02088012805D1606800F039F9606806F0FBFD204605F05BF9E0E7424C4520D0
:203390004F6273657276657200C046C0D4050020497E0000ECB20000E9900000400000C038
:2033B000080200202DE9F041FF2807461ED106F04BFD10F0070F16D0042005F025F808B100
:2033D00004200AE0012005F01FF808B1012004E0022005F019F820B10220BDE8F04105F0FE
:2033F0002FB806F06DF90020BDE8F08105F028F88046012FD8F80450334E04D0022F29D096
:20341000042F3DD0EFE7022004F0FEFF80B1022005F016F8074601207C6804F0F5FF28B10A
:20343000A0683118A86806F065FF88B13846DBE7042004F0E9FF28B1042005F001F8074610
:20345000012026E0012004F0DFFF08B94FF000084046C9E7042004F0D7FF28B1042004F025
:20347000EFFF0746022014E0012004F0CDFF28B1012004F0E5FF074602200AE00220E2E7F4
:20349000012004F0C1FF88B1012004F0D9FF074604207C6804F0B8FF0028C7D0A068311811
:2034B000A86806F027FF0028C0D1D1E7022004F0ABFF30B1022004F0C3FF074604207C6891
:2034D000E8E70420BFE700BF589EFFFF2DE9FE4304F0D2FFDFF80481814608F102000088CE
:2034F0000027001F84B2042C5ADBFF254FF6FF7620466946042205F021FABDF800309E42ED
:2035100037D0002B35D0D80BC2032FD19D422DD0381FDDB280B2042815DBB0F5805F12DA3C
:2035300000F18852126801A90A60BDF804108D4207D0BDF80610401A001F80B20428ECDA4B
:2035500001E0012300E00023BDF802001BBB211A001D8BB282B207F18851184605F0EEF9F2
:20357000BDF80200C119091D8FB214E0BDF8020011E0BDF8020003466FF30E0363B9011DFA
:203590008C4208DA002006F09BF8484606F08AF80020BDE8FE83241A241FA4B2042CA7DAEE
:2035B00004F024FB3FB10C484FF088513A4606F09EFC06F079FB484606F074F842465078D2
:2035D00000281CBF0020011C03D1C7F58054391DA0B25180BDE8FE8304E00100240F002060
:2035F0002DE9F84F0178D02970D105463D4CA8786168002867D0401E5FD00C3866D1E87827
:20361000042863D01020012105F072FC2E6981462FA1304604F0BCFF074630A1304604F0AB
:20363000B7FFA04677B9002808BF002014D001464A46082011F8013B401E02F8013BF9D119
:20365000082108E04946102017F8012B401E01F8012BF9D11021012098F8027040B395F92D
:203670000BA0082F8B461EDA5FB1B0343E46484621465A4605F09EFD98B1761E04F111040B
:20369000F5D107EB071449465A464444B034204601F0C4FD7F1C84F810A0F8B288F80200A1
:2036B00001E084F810A028692A7B002102F02EFE484606F01DF9BDE8F88F02F0EBFB05F0E5
:2036D000CFFABDE8F88F084606F06FFBBDE8F88F5441524745544445562D00C0414E432D79
:2036F00000C046C0080200202DE9F04391460A68D9F800401678804600271D463846ADF12D
:20371000140D531C242E0B605BD112F8016F5B1C4C2E0B600ED1AA68E41C24F00304241DFD
:2037300054F8040C414603F0D3FB2968EF600127091A2960462E1AD1E41C24F00304241D66
:2037500054F8040CE41C029024F00304241D54F8040C002741460390AA68ADF8047001A89E
:2037700001F0E8F92968EF600127091A2960532E27D1E41C24F00304241D54F8040CE86139
:20379000C9F80040288B0090A968EA69D8F800004B46FCF7EFFFD8F80040002754B1A968E2
:2037B000002902DD8142D8BF481ED8F800100918C8F80010D9F800402968EF600127091A24
:2037D0002960662E0AD12B8B23B9E41D24F00704083403E0E41C24F00304241D1FB9E9698A
:2037F0000E700127EF60C9F8004005B0BDE8F0837CB53F4E3168054600240020E1B12A78DC
:20381000012A0BD02A7A05F109036946012006F06DFD00B104782978042913D0326851787B
:2038300003290FD0002908BF002C0BD020B1012904D114F0030F05D1002076BD0229FBD170
:20385000E007F9D56878A91C03F0DAFF0400287826D0042814BFA068E06880B32A7A0178F9
:2038700091420CD105F10901401C05F0D3FD012805D1232006F024F8002836D0DCE7287882
:20389000042806D0A068D0B106F006FA0020A06015E0E06898B106F0FFF90020E0600EE0B5
:2038B0000428C9D005F0A2FA0400C5D028782070062269786170A01CA91C06F03DF8287AB1
:2038D000401C80B206F0D8F960B12978042914BFA060E060297A00F8011B05F109012A7A36
:2038F00006F02AF8287A0028A6D0012076BD00BF984E0020FEB5364C206806F0F3FC00287D
:2039100064D00079032861D1324D0DF10900A91D019000910DF10A032A4602A90DF10B00F0
:2039300000F0BAFC2C490878D0B19DF80800294606F010FDA0B1294E3146284606F002FDAA
:203950000746FF2F0CD01D204743F1190622491C284605F0F1FFF05D40F002008DF8080043
:203970001F480068C17C01291FD1807C002818BF022810D11B4E9DF808202946304606F00A
:20399000ADFC1F2811D19DF8082000232946304606F0CCFC09E0012818BF032805D19DF843
:2039B00008201148294606F099FC9DF909009DF80A300190A91D00912A469DF808109DF874
:2039D0000B0006F087FC206806F080FCF7BD00BFD04B00200C180020784E0020AC45002070
:2039F000144F0020A8480020CC4700202DE9F84F0C4605465FFA84F8200824BF314844401A
:203A100031494FEA8803C85884EA00022A40C2F300672E4A05EA0406A843324005F4E02675
:203A30000243B6F5E02F01D1500E14D305F4E020074310D002F4E027B7F5A02707D0B7F54A
:203A5000803704BF22F4003242F4A02203E022F4803242F4C022DFF878B01E4F012000FA52
:203A700008FACBF800A0DFF87090CA500146386801FA08F60027064218BF0F1C37B9E80DAA
:203A900004D34946C4F3805001F80800280E0DD306F09FFA210E34BF0021311C0D4A126822
:203AB000B24311430B4A116006F078FC37B1E80D04D34846C4F3805100F80810CBF800A040
:203AD000BDE8F88F006000A000100840007F077FE0200260D0200240002002402DE9F84306
:203AF000384C143C606F656F04F17409002866D00646F06840F603020827531C02E0406868
:203B10007F1EFFB260B15FB101888A4218BF8B42F5D131694CC820314CC189C881E8890018
:203B300005F1280090E80C00002705F12806B84686E88001A96879B138464FF0E24100EA96
:203B5000020611EA03070EBF002E02400B40AE682869B5F93C10B04706F03BFA0646B4F904
:203B700086004746401C6FF31F30A4F88600484685F83F7005F09BFB304606F00FFCB4F98A
:203B900084106068B4F986300246994217D192F8701000290CBF0068381C82F8707060B126
:203BB000B0F1FF3F0BD008490968AC34B0FBF1F1204605F035FFBDE8F88305F02DFDBDE899
:203BD000F883C046640F0020BC180020F8B506F0FEF802F0B9FF06F00DF9054605F00C0042
:203BF0000C2854D0E80826D205F02CF92A4E376804460120014605F0ABFC316861438842EF
:203C100019D22649F020B0FBF7F0241A887C18B1C868A04238BF041C214D2146284606F02B
:203C300051FB284606F04AFB0120FDF7BDF8284606F040FB2DE0280929D21A4CA4F12006BC
:203C500020688168184888470746042FF8D01748690905D227B101460A6822F0010203E03B
:203C700001460A6842F001020A6098310A6842F003020A6030688169202088470C4C376878
:203C90002068B86B804701202060206801E006F090F906F0A2F8F8BD14B30000E4B1000078
:203CB000E8080020D8010010004003408C2108402C2009402DE9F84F374E0446B0688047E3
:203CD000344D05F10802116809191160F1688847286800285BD0A9464FF00008074635463E
:203CF000C246A868804756461FFAA4F3834683B95FFA94F36BB93979E0B2884204DD7968B0
:203D10002046884209D20AE03879E1B2401A387108E079682046884201D3314601E0796851
:203D3000091A7960B88878B9FB8853B9FB6843B13B8933B1B87A194600F0D6FBF8687860EE
:203D5000B88808B9FB880BB13B896BB9B8F1000F04BF3868C9F8000003D03868C8F800001C
:203D700038683E46074601E0B8463F68E9685846884756B1B08828B9F08818B9B07A318931
:203D900000F0B2FB304605F087FF002FA9D1BDE8F88FC0467C180020F00900202DE9F04790
:203DB00007467D68BE6890468A4606F012F981463068006B00F48071287800B119B148469C
:203DD00006F0ECFA57E005F5827006F0FEF80024EC77C5F820A06C623168086B40F48070E6
:203DF0000863484606F0DAFA05F2291005F062FB4146384604F01DFF05F22919A862A8B9B5
:203E10003846414603F088FCA878D0B9A96805F1CC0005F0BEFEE8B1AC621020E87731463C
:203E3000284602F0F9F805F2291022E006F0D1F83268916B41F02001916306F0AFFAA87895
:203E500010B12046BDE8F087A96805F1CC0005F0A0FE10B9686ABDE8F0873846414603F0FA
:203E70005BFC1020AC623146E877284602F0D4F8484605F00FFB4FF0FF30BDE8F0877047CD
:203E90002DE9F843DFF8C8800546D8F80000002600285BD02F4F7968387808B1002955D0F8
:203EB00028464DB905E002018B5CFF2B18BF761C401C3A789042F6DB3006400D083080B27E
:203ED00005F08AF9040005D1082005F085F90446002613257CB3D020207065700121A17086
:203EF000E670F0B200B304F10809C4F8049000253878854219DAF0B2B8B1796828010A5CA7
:203F1000FF2A0ED0084489F800200622417889F80110761E811C09F1020005F00DFD09F104
:203F300008096D1CEDB2E3E76060D8F800201078214605F08FFA3878002102F067F9D8F85E
:203F5000000005F0A9FE0020C8F80000BDE8F183984E00203C0E00202DE9F84304469946D2
:203F700090460E1C44BF0020011C5AD406F047F805468021304604F059FD071C04D097F85C
:203F90003F1031F07F0106D12846FDF723F802200021BDE8F8834FF0E0400A2107F12006C2
:203FB00040EA090941EA080896E8030008EA000019EA010608BF00281CD02846FDF70AF8BE
:203FD00007F1200003C804F1680604F1680508EA000809EA010986E8000395E80C0007F140
:203FF000200696E8030007F120059943904385E8030013E00C48B968884202D0B968216622
:20401000B86004F1580080E800032846FCF7E2FF04F138004FF0FF3105F0BBFD683494E81D
:204030000300BDE8F883C0468172000038B5244C244B2568186855F8183F00224FF0FF3146
:2040500098472148214A416B214C88684179117006F02CF91F4806F025F906F01FF91E494E
:204070000A680020507104F039F81C48D02130220023017042708370C37003714371837189
:20409000C37106F007F91649164B0020087018801B201549154B08804FF4A47214491A8025
:2040B000FB20088040F64800124A13491080FB230B80208006F0EAF810490020087032BD86
:2040D000F04E0020EC4E00202CB30000714F00204E4F0020CC470020144F0020A818002006
:2040F000794F0020524F0020444F0020464F0020484F00204A4F00204C4F00206F4F002096
:204110002DE9FE4F894605460CAF97E803001E4601919046009005F05CFF2B4F6FF0010A45
:204130008346082007F5D07494F83F3033F07F033ED107F1AC0005F048FFB7F98400401C1F
:204150006FF31F30A7F88400C4F80C9084F83E80A660B7F88400009AA087019802232021F0
:204170001343002242EA000616482561314004F118061840134686E8030004F1200686E872
:204190000C006363214623634FF0FF36A663802284F83F2007F16C0085F8703005F098F850
:2041B000F86E844201D102F063FEB4F93CA003E0401E04F14004B7D1584606F0EFF8504602
:2041D000BDE8FE8FFFEFFF9F500F00202DE9FE4FDFF8C08098F8990100284FD00025012160
:2041F0002C4698F8992101FA04F0104203D1641C032CF6D342E098F899211020A040104298
:2042100018BF0D1C05F0E5FE98F899211121A1408A4388F8992106F0C1F8E0B205F06AFCB6
:2042300060B3877A57B390F9099019490768012D446851F82960019710D0017A02290DD1B5
:2042500000F1100191E8000C00274FF0805317EA0B0703EA0A0108BF002901D101F09CFE36
:20427000012D04D0009600224FF0006303E000224FF00073009201984946A04798F8990150
:2042900020B108F58270002105F0BDFEBDE8FE8F94300440500F00202DE9F8430F462F49A6
:2042B0000446086890461D4606F01CF8814699F8040003281CBF002005F002FA99F8086085
:2042D000B00900F00100387009F10A0799F80910881F2870C0B22028A4BF002005F0F0F96D
:2042F000062017F8011B08F8011B401EF9D106F00F06062E14D8DFE806F00E040B131013DE
:204310000D0001212170BF1D2A78901F28700CE0032103E00220207007E00421217004E0E2
:20433000FF202070002005F0CBF90898002104E017F8012B00F8012B491C2B78CAB29A4281
:20435000F6D33978802918BF81290FBF7F21044A1078091A09980170BDE8F183D04B0020DC
:20437000704F00202DE9F04116468846044605F030FE07462A488325B8F1080F32D8DFE878
:2043900008F0463F3C313725150533C00446207CD0B9E06EC0B9316804F1D00005F035FEFE
:2043B000316804F5827005F030FE32E00446207C50B9E06E40B93168192005F012FE31688E
:2043D0001A2005F00EFE24E0002522E0306828B1012807D1802003F0A7FF1AE0802005F02D
:2043F00037F916E0032514E030780E49087010E0316804460C3421600BE03088608208E0F3
:204410000120E668607406F16000E06001E030682060384605F0C2FF2846BDE8F081C046FB
:20443000500F0020E810002038B5274C0D46A80839D2E80846D32B4854380068006B8047C5
:20445000A060E06E00280EBF60680069606040681E4900780860022004F0D0FA112000F028
:204470005DF90120207460684168886808B9C86810B1174805F0E0FB1649174D07200023D2
:204490000860296815482B606A686B60144B2A68636140EA02011A20296005F09CFD192022
:2044B00005F099FD38BDFFF719FB204600F17401096811B902F0DCFC38BDD03045F0020164
:2044D00005F0A1FD38BDC046500F0020D0210840510007060000046014100440020000401A
:2044F000911E0000E00100102DE9F843DFF8B0802A4E81460C4639F07F0018D1B9F1050FD4
:2045100012DA284DA86880472349096831F81920144321F81940E9688847306841461431C7
:20453000426A0868904734E00320BDE8F883042004F052FE071C08BF04202BD04FF6FF70FC
:2045500038807C8005F0BCFC41468C78A7F10C05FF2802D0896A09184C79FF2C08D1384662
:2045700004F068FF3068806880470120BDE8F883484604F07FFF33680146FF20A8721D68A8
:20459000002220463B46A84718B1384604F052FFEBE70020BDE8F883C0180020300F00201E
:2045B000800D0020F00900202DE9B043044605F010FD81462748221892F8F010491ECFB2EE
:2045D000002F82F8F0703FD1254901EB84014A880C78904634F07F0718D1E1090FD24FF00A
:2045F000805000F5DC75D0F8B8018169104688472868416B404688470228F9D11EE000EB97
:204610008800D0F804110020884717E04FF08055D5F8B801016A10468847D5F8B801816AA4
:2046300040468847D5F8B801016B404688470A4901200860094908688008FCD304F03F00A6
:20465000132801DAFFF7B0FF484605F0A7FE0020BDE8B083DC08002028200860282008402B
:2046700088AE0000294838B5001D0468B4F1FF3F08BF002404F036FB032833D12448254B0F
:20469000002501211038184A056003F15C00224B0160181D00681160806C80471348006812
:2046B00020B113480068204601F0F2F8114812490560124C0A686FF35B4244EA0200086095
:2046D0000F490868C0F30130012806D10A680D48104040F400320A6008600B4908680028E3
:2046F000FCD138BDFEE7C0460822044380012843000120438C210840482003400000390162
:2047100004000940FFFFFCFC0C006842181300509404604200600C40EC010010F8B5064639
:2047300005F057FC264D0746711991F8F000421C002881F8F0203ED1224C04EB86042678BB
:2047500006F03F00132801DAFFF7E8FF648836F07F0018D1F0090FD24FF0805000F5DC7578
:20477000D0F8B8014169204688472868416B204688470128F9D11EE005EB8405D5F804110C
:204790000120884717E04FF08055D5F8B801C16920468847D5F8B801416A20468847D5F8F6
:2047B000B801C16A20468847074901200860074908688008FCD3384605F0F0FD0020F8BDAB
:2047D000DC08002088AE0000282008602820084030B52648244908602548ADF1140DFDF707
:2047F00043FC24480468244800680023D9070246206050080143D007801A4FF47A729941DD
:20481000002300F089FE002908BFB0F1004F28BF6FF000406060194C0025032004F1240101
:2048300041F80C5F401E8D60FAD104F154010620401E21F80C5BFBD101F04EFE6268104835
:204850000392416801910368009381680291684602F07EFA03F08EFB03F0E6FB05F012FD92
:20487000284605B030BDC046280F0020852C00005CAE0000780E002014B30000F00900207A
:20489000CCB100002DE9F04114460F4605F0F6FC1FFA80F824480068007808B904F01EFFFF
:2048B0000FB338684FF0FF3518B140280AD3810B08D17E681EB1310A04D0310E02D1B968A9
:2048D0000F2908D93DB10CB1284620700820FFF76BFE002422E04FF08055D5F8CC11BA6879
:2048F0000B68796808E04FF08055D5F8CC01036801224FF48070014698470C4901200860F9
:204910000B4905F5E67508684008FCD328684168022088470CB1002121700446404605F0F9
:204930003DFD2046BDE8F08138AE0000A8025042088002402DE9FF41284B47688668144605
:204950000D4601A81A68998802609B798180A5428371A8BF2C1CB168786805F01AF978BB73
:204970004FF00008CDF80080F068318A6D1C16A22B4604F0F9FEA41C0246AC4213D9641B8A
:20499000F06801A90B688018036089888180308A921D801A082804D23868F16805F0C0FAD4
:2049B0004246641EECD1F0680BA10988801801803868F168921C05F0B3FA786805F01BFB3E
:2049D0000090BDE8FF81C0461B371B5B3130721B5B25643B256448001B3800C0D8B20000C9
:2049F0002DE9F84F1F468B46161C14BF4FF080484FF0005805F0EDFADFF884A0002503244E
:204A10008146BBF1FF3F06D15046C36F002B0CBFC06EC06F03E05846294604F007F840B30D
:204A300090F83F4034F07F0422D05446E16F81420DD001463A4602F07DFDC8B1207C0128CB
:204A500014D004F1D000022105F0DDFA0EE043462A4603F0CBFA002E14BF0A480A4804F076
:204A70009BFA1FB1E16E3A4602F064FD832400E00424484605F092FC2046BDE8F88FC04647
:204A9000500F002001000204010001042DE9F0410646B76875688846ADF1280D684604F0A8
:204AB000D3FE00248DF8014078680690012004F071F96860686840B103F05EF93878694604
:204AD00003F07AF92860286808B9264617E00421224605F020FA98F80000401E08D0401E64
:204AF00004D0401E14BF201C07A002E008A000E009A0A86028680AA1122205F011FA3046BE
:204B10000AB0BDE8F081C0461B5B324B00C046C01B5B304B00C046C01B5B314B00C046C087
:204B30001B631B5B324A1B5B3130721B5B31313B314800002DE9F843002A8946074604D4B1
:204B5000B2F5004FB8BF95B201DB47F6FF75002F08BF002034D03888002808BF002403D044
:204B70002A4600F08DFC84B2AC4228D0388830B1291B484613A203F07DF8001984B2B86821
:204B9000E8B17E688EB1304604F0D2FFA5EB0408401D1FFA88F1884207D83346414648464A
:204BB00009A203F067F8001984B2291B122906D3BB68484606A203F05DF8001984B22046EB
:204BD000BDE8F8833A2000C0222573222C2000C06C696E652025643A2000FEE72DE9F047C6
:204BF000DFF898A0DFF89080002501244FF002091126E8B204F07EFF071C37D0B87A012854
:204C100034D197F90900AAF11401113004FA00F0C2430A604A681043486097F9090004FA54
:204C300000F0C0B204F014FD07F11000002104F085F80146812909D1B86918B1002104F099
:204C50007DF80146812908BF87F80A9081290DD008F2991197F909000A7806FA00F0104375
:204C7000087008F58270002105F0CDF96D1C032DBFD3BDE8F087C046500F00201C10044085
:204C90002DE9F041904606460F1C08BF05243FD036F07F0003D02248006880688047052E45
:204CB000A8BF032407DA57F80C0C18B917F8020CFF2804D00524384604F0BCFB28E007F8CC
:204CD000026C154C154DA068B8F1010F13D080470246002047F80C0CA868002808BFAF605B
:204CF00005D0014651F80C0C18B941F80C7C104606E00146F6E78047A96847F80C1CAF60E7
:204D1000E168884730464FF40041FFF7EDFB00242046BDE8F081C046F0090020800D002027
:204D3000300F00202DE9F04105F053F9244D214E804605F1E000007848B93446A1680220E2
:204D500088470746102003F05DFD77B31BE005F051F8C0091BD21B483C380068C4681648C8
:204D7000342101220023A04788B101F0E1FD34460020A16885F8E00002208847074610202B
:204D900003F040FD8FB1A168032088470DE00B4800683221B1FBF0F101B901213035284661
:204DB00005F00FF9284605F00EF9404605F0F6FABDE8F081E4B1000000A00C40BC18002086
:204DD000DC080020E00100102DE9F0410E46071C14BF002E002040D0224C4FF0FF3104F10D
:204DF0002800804604F0D5FE3078FE2811D022680021FF2808D082422AD31F2828DA04EB9C
:204E10008000D0F898501DBB491C16F82100FE28EFD1002038607860B8603078FE2818D0A2
:204E30000125FF280FD01F280DDA7B6804EB800105FA00F0C1F898701843094978603268E6
:204E5000384603F01DFA16F8040FFE28E9D100E00027404605F0CFF83846BDE8F081C046D6
:204E7000007FC767C8070020F0B520480127F84201D002F0EBFC204D204F214EBD4206D24B
:204E900003CD0478A4003459401CA047F6E71D48002800D08047164D164FBD4202D210CDC9
:204EB000A047FAE7F0BD03251BE0416808300A1C2A400BD11A1C2A40AB4305D004680430FA
:204ED0000C600431043BF9D1131C05D0047801300C700131013BF9D1021C2A4001D0A8436F
:204EF00004300368002BE0D17047C046FFFFFFFF00000000000000006CB60000D4B60000C2
:204F100028B6000015C4011022482DE9F0410068806980472049234D0F686E68B7F57A7F25
:204F300017D00021801B3A4688460B4604F010FD4FF47A72002300F0EFFA04464FF47A727A
:204F5000002304F005FD3A46434600F0E5FA301800E0841B6860124D05F108000068804735
:204F70000E4E316872680919B1F57A7F0AD34FF47A73B1FBF3F7D2197260B1FBF3F707FB99
:204F900003F2891A3160E96888472046FEF792FEBDE8F081300F0020980D00209C0E0020C9
:204FB000F00900207C1800202DE9FC4792460D46826844689168D768B2F8108060689946E1
:204FD00004F0E7FD0028504632D1FF2D10D0401CA8F102016B1C009016A2384604F0C4FB24
:204FF0000646A06828B10168F019361D016000E000260A9BA8EB0601F0194A46891E05F0D4
:2050100006F8FF2D064406D10D22701C0A21BA55461C395404E00BA00188F519B61C2980B0
:2050300020683946324604F07BFF606804F0E3FFBDE8FC871B371B5B3130721B5B25643BD8
:20505000256448001B3800002DE9F84F81460020C9F80000684602F081F8204FDFF880A098
:2050700000264FF0FF354FF0190B34468046E0B204F040FDB8B1837AABB1017A0126022992
:2050900015D079684A8A4069C968891897F89A210BFB021103F03CFE51460968B0FBF1F0C7
:2050B000854288BF051C641C032CE0D300E00025B8F1000F04D0012E05D0B8F1010F05D02C
:2050D000012E04D005E00098854200D9009DC9F8005046EA0806F0B2BDE8F88F500F002067
:2050F000BC1800202DE9FE4F214C80460CAF1E460192A0683D7800918047A146B8F1000FB0
:20511000029005D1D9F80C1088470220BDE8FE8F184800274FF00F0B4FF0010A041F54F86E
:20513000080FD8B9012D0CBF134B144B1148019A008897FBFBF140180AFA07F1C0B2984762
:2051500060B90098C4F80080606006B13770D9F80C10029888470020BDE8FE8F7F1C0F2FB3
:20517000DDDBD9F80C10029888470820BDE8FE8FF00900208C0A002019820000417C000090
:205190002DE9F84F0C468146E00BC00318BF84F400443BD1002C08BF002038D0DFF878A032
:2051B0005546A868804783461A4801884FF000080126474606FA07F2224203D17F1C0F2FB4
:2051D000F8DB1DE04D46EA01FB00001DA2EBC502CD01A5EBC1018D1AED189B1A5B18C158F8
:2051F000BE401FFA86F82D1811B11B18586888474846414603F03AFB10B9002028606860CB
:20521000DAF80C105846884788EA0404A0B2BDE8F88FC0468C0A0020F0090020002A4AD012
:205230005FEA000C8B071CD1830722D1102A08D370B4103A78C978C0103AFBD270BC10328C
:2052500038D0042A2CD3082A05D30C2A24BF08C908C008C908C008C908C092072AD0920FE7
:2052700022E00B780370491C401C521E22D08B07F7D1C30714D18307D8D0121F12D308C9E1
:2052900003801B0C4380001D121FF8D20AE008C903701B0A43701B0A83701B0AC370001DE6
:2052B000121FF4D2121D05D00B780370491C401C521EF9D160467047FEB5846846682068C0
:2052D00004F028F8216820488A6B1040886340F2F27120681D4D416494F82000295C94F8A0
:2052F000210040198079084321684863684604F064FE317F05EB81012068B2690B6A717F7E
:2053100005EB810189691943B37F05EB83052B6B0B43019903F0EDFF2168C86A40F01000BB
:20533000C8622168086B40F001000863A07D0027FF2802D0E07DFF2800D11FB1086B40F492
:2053500040400863FEBDC0460DF8FFFF64AF0000B0B5456884682349607DA27DADF1180D52
:2053700040F000400090207D0027FF2A41EA000001904FF0020002D0E27DFF2A00D13FB118
:20539000E37DA07D1943039140F0004002900420FE214DF8201005F154006946FFF714FDD6
:2053B0002866002808BF381C1AD0617D0F2203F00DFB286E217D102203F008FBA17D384620
:2053D000FF2902D0E27DFF2A00D140B1286E112203F0FCFA286EE17D122203F0F7FA01209A
:2053F00006B0B0BD0000C0A02DE9F8432020EFF3118780F31188214CA068012104F03AFF3F
:205410004FF001094FF0000865692168A4F81C906A1A2168A4F81E80461B401A904227D37F
:2054300087F3118840462D18361A4846294604F01DFFB042F7D92021EFF3118781F3118897
:20545000E18B012903D14046294604F00FFFB0F1FF3F06D0A169801B814238BF081C291862
:2054700001E0A069411904F0FDFEA4F820902560A4F81C8087F31188BDE8F8837801002014
:205490007FB503461F480D4601881F480088144614A698421CDA994216DA1C48008800288A
:2054B00008BF13A217D00095002C48BF47F6FF74174E00201749ADF804406A463468029055
:2054D0001846A04702980AE0184604F03FF908B9324600E042682146284602F0CBFB009089
:2054F0007FBDC0467B6D6F64756C652325647D007B6D6F64756C652D726F70653A25787DF8
:2055100000C046C062B20000E6B20000FE12000028B30000818E00008B4208BF824204D9DA
:205530000B1C021C002100207047002B08BF002A0BD10B1C021C00210020002B08BF002A84
:205550001CBFC943C04303F012BDF0B51C4615460B46024600200021B4FA84F6202E04BF1A
:20557000B5FA85F62036B3FA83F7202F04BFB2FA82F72037F61BB6F1200727BF05FA07F427
:2055900000257F42B4403EBF25FA07F73C43B540A34208BFAA4201D3521BA34140414941CB
:2055B0006D0845EAC4756408761EF1D5F0BD70472DE9F041DFF8888004680E4617464FF052
:2055D000FF31404604F0E5FA4FF0FF35092E08D0217A0120B040084212D10843354620727F
:2055F00011E0237A0521012000FA01F2134202D0491EF9D504E0227A88400D4610432072FD
:20561000B5F1FF3F15D0A7B1062003F0F7F92946384600F061F80746062003F057F847B16D
:20563000217A0120A8404FF0FF3580F0FF0008402072404604F0DFFC2846BDE8F081C0461B
:205650000C0B00202DE9F043224C81461D4604F108002F68006816468846ADF1240D1FBB53
:205670000C2000F07DFA071C16D0684600212422082304F0F3FD0023069749466A46ADF8B6
:2056900010301348059304F0E5FD386038B9FFF7A4FA384602F0CCFF6FF0030015E0C7F883
:2056B0000480BE602F6008E080470546386804F001FEBE60E168284688473868494604F055
:2056D00001FE386804F0FAFD002009B0BDE8F083D39D0000F00900202DE9F04180461F4842
:2056F00000680D46416927208847012404FA05F61B4DC5F80064C5F87C470327C5F880771A
:2057100018480460C5F88477D5F80404012818BFC5F80444C5F8FC6313480460C5F800800B
:205730001023AB60204604F023FCD5F88C076FF39D000028F6D0D5F88C17204611F0404FEF
:2057500009D1C5F884770021C5F8FC16D5F80024164218BF081CBDE8F081C046B001001096
:205770000440024000E04842000048427CB5214D0446286808B1112076BD1F48017811F028
:205790000A0F01D1122076BD042004F075FA286070B3022004F05AFD28680422214604F0F9
:2057B000CBF804F04FFD28B10C2004F089F805460D200DE06078022805D1122004F080F881
:2057D0000546132004E0102004F07AF80546112004F076F806460948007804F02FFD034665
:2057F000E07800903246A078294604F023FD76BD132076BD984E0020584F0020594F002070
:205810002DE9F843DFF87C808946054617464FF0FF31404604F0BDF91B4C04EBC504666851
:20583000256804F0D6FB1949097801290CD12968002909D405DCB9F1000F09D04FF0FF31A3
:2058500008E0B9F1000F03D004F0A8FD002413E02968491C296004F0A1FD286802280BDA64
:205870001FB9684604F061FB6F4638686860C0272F727068FEF752FF404604F0BCFB2046E8
:20589000BDE8F8830C0B0020C0B20000480F0020204A2DE9F04180460124A2F130000460F5
:2058B00019480768002FFCD01B49184DC0200B1F28601868800806D253F8040C144B000C0C
:2058D00040F0F000187000204FF080571060D7F8F0010E68016830468847D7F8F00142681C
:2058F000314640469047D7F8F001816830468847D7F8A001C1680220884740202860074E0F
:205910003460BDE8F081C0469402224300600C405662084040100940B43F0050940460420A
:2059300070B521490B7803F00104C3F340010C19C3F380010C191D498D7B00220600A5F1A9
:20595000250118BF0128C9B201D01E2070BDE4B2012C0FD0040003D102290ED04A1C03E08E
:2059700001280AD141B14A1ED4B2022C05DDD0B2032815D1084670BD022201249440234293
:20599000F5D1040005D1D4B2022C08BF0022F4D007E00128E8D1D4B2002CEDD0521EE3E784
:2059B00070BD521CE0E700BF470F00209C4C00202DE9F843204D0746A868804781461F4828
:2059D00083686FF00B06002480469BB113F8020C874208D134B16BB138464FF40041FEF773
:2059F00083FD0CE01C460CB9A3F10C0653F80C3C002BEBD138464FF4004102F01DFFACB177
:205A1000A8688047D8F80810A4F10807A14219BF54F80C1C316057F8041CC8F808100021EB
:205A300047F8041CFF26BE71E9688847E968484688472046BDE8F883F0090020800D002089
:205A50002DE9F8438146EFF31188202080F311881E4D1A4C184F012605F11C000660A4F1EB
:205A700014000660F86A016A14208847D9F81000810C14BF000C042020603868026823218D
:205A9000002090470E480F4F0660386800280CBF311C03210C4807680FB141F00401183CD4
:205AB000206820F4E02040EA014020602E6088F31188BDE8F883C046840100101820094071
:205AD00080022443F0B20000F4B20000000024432DE9F04106467468B56804F07AFA804664
:205AF000A06A58B928688169090907D2006B400A04D2404604F052FCBDE8F08104F58270C2
:205B100004F063FA00274046A76204F047FCA97D3846FF2902D0E97DFF2900D118B120460B
:205B3000294600F079FA04F054FA2A68916B21F0200191632A68116B21F48071116304F011
:205B50002DFC04F2291003F0A5FC606A216A091A21622369626A30469847BDE8F0817047D4
:205B7000F8B5041D14F003001CBF241A241D03F0C7FA1D4A054657691561102C88BF9769C7
:205B9000386800231E46010821D226B9844209D93B4601261EE0196809188C42196019D8CB
:205BB0001F460846DFB1D169001B042807D23868091AD161386840F00040386005E038512D
:205BD00044F000403860091BD1613F1D07E080F0004000263F1838680028D4D100272846E1
:205BF00003F0FDFE3846F8BDF009002038B50020FFF796FE1B4D1C4CAB682530A87340F63B
:205C1000C4102168CA8800FB0233AB6009898A4204D104F00BFB00F6C410A8600020688083
:205C3000124A1348C17E01F0E00141F08101C17600210162107888B12168C87A022818BF91
:205C500003280BD10B4D05F10D0004F0EBFA28B920680622E91D0C3003F06EFEBDE83140B1
:205C700000F01ABD9C4C0020144F0020784E0020D04B0020AC450020FEB5214C251D2046C8
:205C9000294601F0D1FC00260835606831464FF000424FF0FF3304F069FB0028F5D0009658
:205CB00001A80DF106016A4602F02EFE0028ECD1BDF804100120102918D121789DF8062013
:205CD000914213D1009A1178D0290FD197783FB957782FB91146C91C0B682B608988A980CF
:205CF000A7681FB1396809B11046884700990029CBD00028C9D0084604F037F9C5E7C046F3
:205D1000D40500207CB5040004BF002003F0D8FC16494C60606900B180476068017B01F01A
:205D30000F0102290CBF806804F080FAA0601049104B0878002814BF0F4810480021CDE942
:205D50000001022261680E4C0E482568006855F8086FB0470C4910F1020F088004D1BDE87C
:205D70007640002003F0ACBC73BD00BF88180020784E0020D18D00000204848002048080DF
:205D9000F04E0020EC4E0020424F00202DE9F0431E4D0446002799460E46A2EB0408ADF1FB
:205DB000140DC5F8B071012004F0E2F82868C00FF9D3286A0090686A0190A86A0290E86A3F
:205DD00003903CB12346684610F8011B5B1E09F8011BF9D10320C5F838023D467CB1424646
:205DF0002046EC462B469918745C1CF8011B401E03F1010381EA040141EA0505F3D1002DED
:205E100014BF0420381C05B0BDE8F0835045024070B506467468B568206E03F08AFB296882
:205E30001A488A6B10408863002020703046FFF74FFE304601F056FD2968C86A20F01000BA
:205E5000C862296812480A6B104008636868FEF7ABFB04F17C0004F0BAF804F1980004F0EA
:205E7000CCF8A07818B904F1CC0004F0C2F8607818B904F1E80004F0BCF804F5827004F0E9
:205E90009AF804F1680003F065FA70BD0DF8FFFFFEFCFFFF1E48F0B503C81E4CA178ADF192
:205EB0001C0D87B201B304F1B0050026606803F07CFF03A80021102200F028FA03A829468C
:205ED0001022FFF7ABF9009703A8019095F910000290606800210AA30A4602F0F4FFA178FF
:205EF000761C11358E42E1DB01EB011204F1B000002100F00BFA0020607007B0A070F0BD10
:205F1000414E432D2578202573202564200A00C0E812005008020020BCB51E4C04F16C05D5
:205F3000E16F28680029074631D158B3684601F015F928B1009818B1082002F0F5F9BCBD86
:205F5000082003F085FB284603F0B1F9E06707F1180003C80E49C4430B1F1C601A68104291
:205F7000FBD10A6810430860F869C04341F80C0CF86951F8082C104341F8080CF86803F092
:205F90000BF8BCBD04F1D000022104F03CF8BCBD14100440500F0020F8B5074604F019F806
:205FB000044687B3B87A70B397F9092003F0F2F9012303FA02F1CDB250B1164E113203FA29
:205FD00002F0331D1A6882431A60C64343F8046C0020B8610346BB723B7207F110063B60F5
:205FF000024686E80C000A4A7B6002F5CC7003781943017092F89A0110B1401E82F89A01CC
:20601000284602F091F9204604F0C8F9F8BDC046500F00200810044038B50C46054603F058
:20603000D8FF2268916B21F02001916304F0B6F9286E217D012201F09FFC286E217D0122F0
:2060500002F03AF9286E217D002202F0BFFC286EA17D002202F0BAFCA878012806D005F175
:20607000CC004FF0FF3103F094FD03E0216888690009FCD2286E217D102202F0A7FCA17D04
:206090000020FF2902D0E27DFF2A00D118B1286E112202F09BFC38BDB0B51D4CE06F04F15B
:2060B0006C0570B32869806903F092FB0746286900233A4601F09AFFB80806D20FB328694C
:2060D0004FF48041C4F8800017E028690F4F8269396822F00202914339602969CA6957F867
:2060F000083C23EA020147F8081C296905F1080003F0EEF800200221286104F1D00003F0EC
:2061100082FFFEF76BFDFFF707FFB0BD14100440500F002038B50446194841780A062DD5DE
:20613000184D287870B1184A117859B9032003F053F8010022D09120087010224A708C70C7
:20615000287817E00C2003F047F8B8B101210170FF2200F1080342704360042119701023EB
:2061700041684B70012241688A70014642680748D4700078BDE8344003F06CB931BD00BF0B
:206190001C4E0020CB180020624F0020C918002070B51C4E1C4D317804462878891C884296
:2061B000A4BF002003F08CFA0022A968182353431944487828B90B78FF2B0DD068688142B4
:2061D0000AD13178521CD2B2891C8A42EDDB002003F076FA002070BD0020486048610C7043
:2061F0000120487028786A78401C28702243C0B201281CBF802C402C6A7000D1696008468B
:2062100070BD00BF7B4F0020881800202DE9F0411C4D804668680C4688B3002617E03701B0
:206230000830C05930B103F037FD696801F108020020D051686800F10C01C85930B103F024
:206250002BFD696801F10C020020D051761C46456868E4DB24B103F01FFD002068600EE08E
:2062700068B14FEA0812002103F0D9FE0020FF2103E06A680301401CD1544045F9DBBDE83F
:20629000F08100BF3C0E00202DE9F041074603F017FE16461A4AD21E9478A6F10C05FF282D
:2062B00002D0926A12185479DFF85080FF2C04D140460068806880471DE0084603F0DAF8B5
:2062D00001464346FF20A8721D6837B92046EC6B00223346A04740B10AE0012F08D12046A7
:2062F0002C6800223346A04710B90020BDE8F081304603F09FF80120BDE8F081300F0020E3
:20631000830D0020002213460A46194671B510F0030F0BD0002A82BF00F8011BB2F101025B
:2063300010F0030FF6D1002A08BF71BD11F0FF0141EA0121042A18D341EA0141082A0FD36D
:206350000E46102A08D30C460D46B2F10F0312F00F0272C0103BFCD812F0080F18BF42C014
:2063700012F0040F18BF40F8041B12F0020F18BF20F8021B12F0010F18BF017071BD70476C
:206390002DE9FC410446002003F026FC184E0546B0688047804602F06FF807460422214692
:2063B000284603F0A4FD384603F07CF90025012702E02D1D241DADB23846411ECFB278B145
:2063D00028466946042202F0B9FA68462146042202F0F0FE0028ECD0044901204870087028
:2063F000F16840468847BDE8FC81C046240F0020F0090020FEB50C46154640F67B41A21F38
:206410008A423CBFAE1F8E4229D2A54227D3B3F5FA7F24DA0899A1F10A0640F67747BE42D6
:206430003FBF5B1C6E005E43B6EBC10F17D290F8941041B1D0F834010A21B0FBF1F1C900D2
:206450006B4399420BD30C990B98019100900A9B099A2946204603F0E1FE012801D1012050
:20647000FEBD0020FEBD7047F8B51A4C0546A06A2860E069686002F043FEA6698446002092
:206490000746C4F810C003463C4612E0110809D21FB91346304601270AE001689B188918EC
:2064B000016005E082F000420027A34288BF1C1CB6183268002AE9D19C4238BF1C1C604648
:2064D00003F08DFA2046082894BF00200838A860F8BDC046F0090020F8B5184C207801283B
:2064F0002BD0174E012026F00306164B2662226A207004F124050020314662629B1B2F6821
:20651000A362F61801E041F8040B8E42FBD8991002EB810123F0030341F8040CE821396070
:20653000EC3BC2F8E830E8326261FFF719FBA06128686061A06A001FE061F8BDF0090020E1
:20655000D418002000400020B0B51A4C0546241D20680004070C27D01448006800688047DF
:20657000134991F90720824205DD10F1800FB8BF6FF07F00C871BD422CBF01277F1B8D8879
:20659000BD4210D80A68D4F8D40F801A801C1F2888BF1F207F1B4008C7404FF6FF70EF193B
:2065B000B84238BF071C8F80B0BDC046EC010010B018002030100940BFB50C46E00BC00353
:2065D00008BF00202CD017480078FFF7F1F9071C23D03B6818690090586901909869029062
:2065F000D86903907D6859689A681868DB68A8473968086017F8080C01F05AFF054601207B
:2066100002F0EAFD021C08D0422035F07F07107003D000202946FFF737FE84F40044A0B273
:206630000090BFBDD018002080B51448006808B103F032FB1248006808B103F02DFB114875
:20665000006808B103F028FB0F48006808B103F023FB0E48806808B103F01EFB0C480068AB
:2066700008B103F019FB002003F02AF809480078BDE804404FF48041FDF736BF104F0020F7
:20669000144F0020184F00201C4F002088180020B81800206E4F002070B5194E75681DB989
:2066B000BDE8704003F0B6BD287801281CBF0228042820D103F0C2FBE8B12878FCF772FED8
:2066D0000446606808B902F0FBFFA4B12078A54205D102280AD0002002F0F2FF06E002282A
:2066F00009D10849052008700222B2702046BDE87040FFF707BBBDE87040002002F0E0BF03
:20671000881800206F4F00203EB50D46290411D5164A1078FFF74CF9040009D020780328AF
:2067300012BF0128E06801F0B7F8204602F082FE85F4004568070AD50D4A0821D2E9003414
:20675000CDE90034684603F050FC85F0040528070AD5084A0821D2E90034CDE900346846C4
:2067700003F043FC85F0080528463EBDC918002064B300006CB30000174810B500680168C0
:2067900004208847022821D003281FD001281AD012480068C0F38150032805D002280CBF73
