:200000000040002091D9000001C9011001C9011001C9011001C9011001C9011001C90110F4
:1C00200001C9011001C9011001C9011001C9011001C9011001C901103FC9011089
:20003C002DE9F04F0446236815460E46ADF5FE7D1846ADF1580D0FF0CBFE014688950022FF
:20005C0090961846C9188A928142899140F20785A34A92928A9F8E979192394686918F9130
:20007C00879193914FF0FF368396869981910F468DF8107282970778252F08BF0A1C11D054
:20009C00002F00F0EC8421680078491C2160889910F0D4F820688A990778491C252F8A91E3
:2000BC00EED1819A2068909E401C206011E042F010020AE042F0010207E042F0020204E063
:2000DC0042F0080201E042F0040281922068401C2060206800782038F5D0C01EF0D008383D
:2000FC00EBD0801EE6D0C01EE1D0206801782A2917D0302901AA0ADB3A2908DA0146401C3A
:20011C002060097802F8011B01783029F4DA879810709DF80470B7B101A80DF0E7F9829064
:20013C0011E0F61C26F00306361D56F8040C002803D542F0010281924042829031462068F5
:20015C009091401C2060206801782E2929D1401C206001782A2919D0302901AA0ADB3A2957
:20017C0008DA0146401C2060097802F8011B01783029F4DA879810709DF80400002808BF00
:20019C0087980DD001A80DF0B1F909E02168F61C26F00306361D491C909656F8040C216097
:2001BC0083902168819B08784C382BD01C3813D0801E24D0801E04D008381DD0801F18D07D
:2001DC0026E0491C087821606C2818BF43F040030AD143F4807317E02168491C08782160CB
:2001FC00682803D043F02003819311E043F400730AE043F4805307E043F4005304E043F4FB
:20021C00006301E043F0800381932168491C2160097820686E298DF8101200F1010020608C
:20023C0000F0E083732900F037830DF20120829D859020214FF4FF7201A80BF00BFB8598F9
:20025C0087990DEB050707F1040B01700A468B920DF5007C8C928A468D929DF81032CDF852
:20027C0014C21846642814DC642821D0253800F0FE821C3800F04981001F022840F2458119
:20029C00133815D0093800F04081801E00F03482B6E16538022840F23881001F08D0801FFD
:2002BC00012805D9801F18BFB0F1030040F0A8818399002904D4819820F01000819002E05F
:2002DC00012083900146B3F1580007D0173809D0401E03D0083818BF0A2204D1102202E02F
:2002FC00FFFF0F000822702B00F0B280819843F66077D146D0463840203800F08B80203875
:20031C007AD0C03861D0B0F5807047D0B0F5C06036D0B0F5006025D0B0F5805013D0B3F1E1
:20033C00580000F095800C3800F08980401F00F08680801F00F08C80801F00F08980C01EA1
:20035C0000F086808EE0B3F1580000F081800C3875D0401F73D0801F7AD0801F78D0C01E57
:20037C0076D07FE0B3F1580072D00C3867D0401F65D0801F6CD0801F6AD0C01E68D071E054
:20039C00B3F158002FD00C382DD0401F2BD0801F29D0801F27D0C01E25D063E0B3F158006B
:2003BC000AD00C384BD0401F49D0801F04D0801F18BFB0F1030055D1F61C26F00306361D39
:2003DC0016F8048C4FF000094BE0B3F158000AD00C3808D0401F06D0801F04D0801F18BFE0
:2003FC00B0F103003ED1F61D26F007060836A6F1080090E8000334E0B3F1580028D00C3854
:20041C001DD0401F1BD0801F22D0801F20D0C01E28D11DE0B3F158000AD00C380FD0401F3D
:20043C000DD0801F04D0801F18BFB0F1030019D1F61C26F00306361D36F8045C0EE0F61C3A
:20045C0026F00306361D56F8045C4FEAE57907E0F61C26F00306361D56F8045C4FF0000968
:20047C00A8469096CE1745464846294350EA060708BF002903D181990E09C0F05381642B93
:20049C0018BF692B08D1002806DA01276D424FF000018C9761EB000085A9009101462846FA
:2004BC0009F000FB8399401C814227DA9DF81032782B03D0582B18BF702B11D181990809A1
:2004DC000FD3702B08BF7823859803708598401E85903021017085989DF81032401E8590D8
:2004FC0081996F2B40F01E810809C0F01B8185984278302A00F016813021F8E085993022AF
:20051C000A708599491E8591CCE7F61D184626F00706A0F1610108369096083E96E8000345
:20053C00192998BF20385546984208BF012547F6F07147F6F07000EA1940814212D1919FF8
:20055C0049464FF0000E46460A004EEA020246EA0E014FF0FF36174006EA010208BF002AE3
:20057C0040F0AB805FEA0A0740F0A78047F6F07181420FD1929F4946404600260A00304329
:20059C0046EA02014FF0FF320F4002EA000008BF00283ED05FEA0A073BD149464FF00040F0
:2005BC000840070007BF0020002889F000494FF0010AB3F1410025D0001F19D0401E10D096
:2005DC00401E07D01A381DD0001F11D0401E08D0401E15D14946404681AA85AB05F028FB89
:2005FC000CE04946404681AA85AB0CF0F5FC05E04946404681AA85AB06F002FE9DF8103274
:20061C0081998FE04946404681AA85AB03F020FA2BE09FA20CCA494640460AF051FE26D33F
:20063C00002D14BF4621662185988DF80012002DA0F10100859014BF4E216E2101708599C8
:20065C00002DA0F10100A1F10101859114BF4921692101708599491E85912B2700F8017C7B
:20067C0085984FF0030A401E8590819958E0002D14BF4621662185988DF80012002DA0F1D0
:20069C000100859014BF4E216E2101708599002DA0F10100A1F10101859114BF4921692198
:2006BC0001708599491E85912D2700F8017C8199DDF814C24FF0040A2FE0002D14BF4E21B9
:2006DC006E2160468DF80012401E002D859014BF4121612101708599002DA0F10100A1F1FB
:2006FC000101859114BF4E216E214FF0020A01708598401E859081E7F61C26F00306554675
:20071C00361D16F8047C909607B901258D9581998DF8007221F0020181916046401E85905E
:20073C009DF81032859A752B02F101002BD06F2B29D0782B27D0582B25D0702B23D05FEA9C
:20075C000A0703D07F1E1ED101238C9301F002038C9F8B931FB98B0808D32B2100E02D21CB
:20077C001170859A8199401E521E85928B9E374309D1CA0807D3859920220A70859A819982
:20079C00401E521E859249080DD2859D8299ADEB050202F20122914205DB01A96D1A5D44B0
:2007BC00A5F5FE7500E001ADAC46401E4FF4FF7110F8017F0CF8017B1FB1491EF8D1DDF8A2
:2007DC004CC28D9FCDF814C227B1879960460170401C85908598834509D3ABEB000220210E
:2007FC00401E521C0BF036F887988BF80000819840092ED301A8A84232D001A82A1A302110
:20081C0001A80BF027F88B9F8C9E374305D18198C00838BF0DF1050007D3287830218DF82A
:20083C0004000DF1060005F8011B9DF81022782A03D0582A18BF702A02D18199090903D278
:20085C00612A18BF412A0BD16978017030276F7006E001A82D1A20212A4601A80AF0FAFF28
:20087C0001A80FF0B5FA8D9F0246D21904E07EA00188012201AF3980889901A80FF024F9A9
:20089C00B0F1FF3F00F0A5808A9909188A91DDE00000000000000000839DD80949D2DDF83B
:2008BC002092F61C26F00306361D56F8048C9096B8F1000F00F09180829F002D06D440467B
:2008DC000FF086FAA84288BF281C02D840460FF07FFA0546BD42A8BF071C8A98AF423844CD
:2008FC008A900ADD580808D27E1B002E05DD202049460FF0A3FC761EF9D1002D07DD2E46A8
:20091C0018F8010B49460FF099FC761EF8D18198AF4240F39B804008C0F098807F1B002FEE
:20093C0040F39480202049460FF088FC7F1EF9D18CE0DDF82092F61C26F00306361D56F8D6
:20095C00047C9096002F48D0829E002D06D438460FF081FAA84288BF281C02D838460FF0A3
:20097C007AFA0546B542B4BFB04680468A98A84540448A900BDD580809D2A8EB0506002EDA
:20099C0005DD202049460FF059FC761EF9D1002D0BDD2E46BF1E37F8021FC8B2884214D1F9
:2009BC0049460FF04BFC761EF5D18198A8454DDD40084BD3A8EB0507002F47DD2020494695
:2009DC000FF03CFC7F1EF9D140E00FF041FC582101604FF0FF308A9041E0939849460FF0C5
:2009FC002DFC33E043F660701840203825D0E0380ED0B0F5807017D0B0F5C06008D08A99BF
:200A1C00F61C26F00306361D56F8040C01601CE08A99F61C26F00306361D56F8042C084608
:200A3C00C91782E8030010E08A99F61C26F00306361D56F8040C017007E08A99F61C26F0B5
:200A5C000306361D56F8040C018090968A98B0F1FF3F04D02068899981423FF603AB8A98D2
:200A7C007FB016B0BDE8F08F250070472DE9F04FCF4C04F118012046ADF1340D0CF04AFC60
:200A9C00D14D002604F1A40A4FF6FF700123667032462082294650460CF02EFECB48022326
:200ABC00324629460CF028FECE480423324629460CF022FE04F14408042010223146A070B3
:200ADC0040460AF0C7FE04F154091022484631460AF0C0FE04F11C073E6004F10A052E701C
:200AFC0007206072DFF808B3E67102222672594610200346CDF8008005F0EAFC10200322AF
:200B1C005946CDF80090034605F0E2FC0422102059460097134605F0DBFC4FF0080A4FF068
:200B3C0003094FF0010B05F12A00079005F17900089005F11E00099005F15A000A90243594
:200B5C000B9517E06078A28FE18FB4F84050B4F8423006280ED1ADF80A20ADF80C10ADF8CD
:200B7C000E509A48ADF810300FF0DEFB584602A90AF01EFBA069B44A31464FF0FF3300F021
:200B9C0029FA071CF6D0059606A80DF11A0105AA0DF05AFE002840F0BD81BDF818102078BC
:200BBC00102940F0B3819DF81A10884240F0AE81059D29884FF6FF728A4200F09C812B780F
:200BDC00A23B00F07F812E3B40F0A081A978B046002900F03B81891E00F00C81491E0129D1
:200BFC0040F2D580891E00F09980491E6ED0491E5BD0083900F05681891E40F0598194F826
:200C1C003A10A8880529ADF8080046D06F488DF812B00FF089FB94F83A0001281ED00428C3
:200C3C001CD003280DD002280BD00598C188ADF80A100189ADF80C104189ADF80E10818918
:200C5C0027E0A18FE08FADF80A10B4F84020ADF80C00B4F84210ADF80E201AE0A08FE988EB
:200C7C008842D8BF081CADF80A002989E08F8842D8BF081CADF80C006989B4F84000884225
:200C9C00D8BF081CADF80E00A989B4F84200884200DC0846ADF8100001E08DF81260A94937
:200CBC00102002AA05F014FC02E14E480FF03CFB6B78002B40F0FC80E88860822889A082A9
:200CDC006889E08241480FF029F9F1E0AA88B449102005F0FDFB0798414606220AF0BAFDDF
:200CFC006682A682E682A879207338480FF01CFB3C480FF019FBD8464FF6FF70237920826F
:200D1C004BB9A879082814BF04200520607058460FF02CF9CCE084F80190C9E06B787BBB39
:200D3C00291D0A6807980260898881800623637068892082E8896082288AA082688A94F898
:200D5C003A10E082E8780129E07218BF02290BD1994910201F2205F0BBFB4FF47A7180B2B3
:200D7C0041431A480DF082FA68890423009091490193EA7810202D1D2B4605F0A9FB9AE082
:200D9C006878312840F08B80E67004202DE06B78002B40F08480A878E1896278032817D084
:200DBC00E078257931B9012814BF2671E67007E070050020054303D080480DF057FA6278C7
:200DDC00072AE2D1062010E089FF000038060020062A09D0E578002D08BF84F801906AD076
:200DFC00022002E05C0600200720607063E0C04689F700006B78002B51D1EB78617893B9D9
:200E1C0002291DD007291BD0062902D12079012816D1032914D069480FF080F880B95846C9
:200E3C000FF0A4F80CE00DF063FF0246A07960490090089843460190102005F049FB68701B
:200E5C006D78002D2BD133E0070000806B7833BB5B485649009002221020034605F038FB66
:200E7C0058484A46514900901020034605F030FBED1C296809980160A9888180207884F881
:200E9C0001B00DF035FF02465B460A9D6079484900901020019505F01BFBC0B258B184F802
:200EBC0001A008E0AA8840491020052305F010FBB8F1010F2AD1256A45B3296831B36078F2
:200EDC00884723E06879132820D12889012808D1607B022805D13E480FF026FA0DF0E6FC05
:200EFC0014E035491020052205F0F2FA81B238480DF0BCF90AE06888C00B07D332480422A8
:200F1C002A4900901346102005F0E2FA059808B10FF0BAF92579E07879082ED355EA000396
:200F3C002BD0204600787DB9E279217A8DF808200B9D8DF809102B680DF10A010B60AA8864
:200F5C008A8003E0051601108DF80890627A8DF81020A17A8DF811100DF0CAFE1149024686
:200F7C0002AB102005F0B4FA38B1256A84F801A01DB1296809B150468847B80803D31349D0
:200F9C0030460AF015F9F808FFF4F4AD607B401E3FF4D8AD401E7FF4EDAD0DF087FCE9E579
:200FBC00E1D2000059440110C11701100182000009450110F98200002DFB0000140600200C
:200FDC00B4050020C40500208C050020AA0500205C060020DFF800F0F99B01104FF0FF3156
:040FFC0001607047D9
:20100000B41200001810000015AB0110FDB301106DC00110FDAE011099B5011000000000F7
:08102000000000002D0000009B
:20102800B01200003C100000B1C00110A9BF011067C0011069B80110000000000000000035
:041048003000000074
:20104C00B012000060100000BDC00110CDB30110D9BD01106DB3011000000000000000005B
:04106C00310000004F
:2010700000000000FC14002004000000000000000000000020000000E8C90110300000001A
:2010900028100000041500200400000000000000000000000C000000D8CA011018000000F4
:2010B0004C1000000C15002004000000000000000000000024000000F0CA01101800000078
:2010D00000000000141500200400000000000000000000001000000018CA01102C00000084
:2010F0000010000024150020040000000000000000000000200000006CCA011024000000E8
:20111000FFFFFFFF2C1500200400000000000000000000002800000090CA011024000000A7
:20113000FFFFFFFF341500200400000000000000000000001400000008CB01101800000026
:20115000FFFFFFFF3C15002004000000000000000000000058000000B4C9011034000000F4
:20117000FFFFFFFF441500200400000000000000000000001000000020CB011018000000C2
:20119000FFFFFFFF4C1500200400000000000000000000001C000000B4CA011024000000EF
:2011B000FFFFFFFF541500200400000000000000000000003800000044CA01102800000017
:2011D000FFFFFFFF5C1500200400000000000000000000005400000078C901103C0000008C
:0811F00001000000A81A010033
:0411F80001000000F2
:0411FC0000000E00E1
:0412000000000F00DB
:0412040032000000B4
:0412080001000000E1
:04120C00F8130020B3
:0412100000020000D8
:0412140000000000D6
:0412180001C90110F7
:04121C0000000000CE
:0412200000000000CA
:0412240008000000BE
:0412280000002200A0
:04122C004812002044
:0412300000000000BA
:0412340000000000B6
:0412380008000000AA
:04123C00B8130020C3
:0412400000000000AA
:0412440000000000A6
:04124800080000009A
:04124C00000000009E
:04125000000000009A
:041254000000000096
:041258000000000092
:04125C00010000008D
:04126000E012002078
:041264000600000080
:041268000100000081
:04126C0078110020D5
:04127000000000007A
:041274000000000076
:041278000002000070
:04127C00000000006E
:02128000290043
:02128200010069
:02128400250043
:02128600300036
:02128800310033
:02128A002D0035
:02128C0001005F
:01128E00015E
:0812900003000000341A010004
:0812980000000000000000004E
:0412A0000000010049
:0412A4000000030043
:0412A80013C401105A
:0412AC00F9FC000049
:0412B000B812000070
:0412B400B81200006C
:0412B8000000000032
:0412BC00C414002036
:0412C00085FE0000A7
:0412C4002000000006
:0412C8009419010074
:0412CC004C180100B9
:0412D00029C101101F
:0412D40083D60000BD
:0412D8006FE10000C2
:0412DC00A1C7011095
:0412E000A3C701108F
:0412E4000000000006
:0412E8009B1801004E
:0412EC0030160100B7
:0412F000481601009B
:0412F40018160100C7
:0212F8000200F2
:0212FA000900E9
:0212FC000100EF
:0212FE000000EE
:0113000001EB
:0413040001FE0000E6
:0413080081E400007C
:04130C00C9F3000021
:04131000FDE70000F5
:04131400B9E4000038
:0413180035D80000C4
:04131C0085AE00009A
:04132000AF00010019
:041324007DCC00007C
:0413280015C70110D4
:04132C0025C70110C0
:201330002DE9F04F0F46CD4C0168E16241688068ADF11C0DE060C548A1608047C448E16A6A
:201350000160A168DFF810A34160E168DFF804938160CE49002FA346C1606FD03D68E878BC
:201370008DF80C0028798DF80D0003A80FF036FBA86808B1C6490160E86808B1C54901600D
:20139000C54C287820706878BE686070A878B268A0703178A2607368E1702E696360EA6958
:2013B00026627968E2620868E06068696062A8697B68A062286A9E68206395F8240084F8EF
:2013D00034001EB900200EF09DFA00E066617868C06818B900200EF095FA00E0A06178684F
:2013F000006918B900200EF08DFA00E0E0617868406818B900200EF085FA00E020612869F5
:201410002062F86881680E6806B9D24ED0494FF001084E60C66881F8018036B900200EF058
:2014300071FA4D462E68F86801E04D462E6000685446FB68A0615868E06107E000200EF03A
:2014500061FA4D462E684FF001085446361DC7493668621C04F114035020B04710B12868D3
:2014700080688047DBF808008047C24E002781463B46BF4877706946206104223370384627
:201490000CF06EFE0098B0F5801F0CD020B90DF053FD06F00DFC08E00CF058F90EF094FC34
:2014B0000420708001E00DF047FD3846BA4EA0602B68B760986980477060AF4880F800802F
:2014D0003946418014200EF05FFDFF211422A0620EF038FFE01CFF2102220EF033FF1420FD
:2014F0000EF052FDA54F38603868002114220EF029FF002000F052F940460CF041FDA048E3
:201510000188FF2906D1022101807822001D00210EF018FF03200FF05DFA04200FF056FAB6
:2015300005200FF04FFA06200FF048FA07200BF041FB944E0820307006F124000FF03AFA71
:201550000BF0F8FC06F1360A05200A2152460EF013F938B10020C0F10901401C0AF8011B25
:201570000A28F8DB3078102107F0BEFF2B68864909200DF10E025E68087001AB10200021F5
:20159000B047A06AE1690A260A309DF80E20761E00F8012BF9D1891EE161DBF80C104846DB
:2015B000884704F120002B68626A059040461E69DFF8D88104F120034146B04710B128681F
:2015D00080688047B8460DF005FE5FEA000903D008F000FF4FF0FF39002643E0029821694E
:2015F00010F8062CA0F10C07032A03D1002939D0884737E0A16A9DF810C00A223046491E6B
:2016100011F8013F9C4506D0521E00F10100F7D14FF0FF0A01E05FFA80FA2868BAF1FF0F4B
:2016300000F108001CD038790CF0CEFEB979012904D0022904BF0299887001E00299087097
:20165000029950460DF0DEFF0CE0C04641490010F84400208415002040130020440F0020E8
:20167000006880472868C36904A902AA0DF10F0098470028B2D0D8F800007700C35B6BB9F7
:20169000761CF6B20A2EF8DB2BE0C046F409010041EE0000FDFA0000101200200A2E20DA4C
:2016B000DBF808008047D8F80010002231F807A0CA53DBF80C108847354850F8262026702A
:2016D0005146304690470646FF202070DBF808008047D8F800107A5A16437E52DBF80C10AD
:2016F00088470DF077FD0746B9451AD007B9294FE069B84238BF071CDBF808008047814667
:201710002868016A206A8847626A28681F49059B521C6262C6683846B047DBF80C104846AF
:201730008847A768296860691431AFB9D8F800000A270026835B33B1096960698847296830
:20175000D8F8000014317F1E06F10206F2D107E0DC1400209BC2000009698847296814319A
:2017700009684FF0FF3088472DE7C0465DF3000075FB000074150020C41100200C1F0020E8
:20179000E00F0020840A00201E1F002011E40000D41701008EC2F528AC1E00202DE9F84F8A
:2017B000DFF8BC13DFF8BC23DFF8BC5308700821002010600D23DFF8B40340F232320170E1
:2017D00043808280DFF8A8030560AC7EDFF8A4030470FF2CE97E417008BFFF292A7F827064
:2017F0006B7FC370AE7F0671ED7F457115D1FF2A08BFFF2B11D1FF2E08BFFF2D0DD1DFF83F
:2018100078130A7802704B7843708A788270CB78C3700A79027149794171DFF8601302782B
:20183000DFF85C83DFF85C93DFF85C730A70FF2543784B7082788A70C378CB7002790A7102
:201850004079487188F8005088F8015088F8025088F8035088F8045088F805500020CB49E3
:201870000880D9F83440CA49607808702278C9493A70A0780870A2681079C74A411E1170BE
:20189000E078C649C64A0870E068106008B90EF039F82069C34E306008B90EF033F83068F5
:2018B000DFF804A301688847326852F8041F50468847BE48BE49CAF82000CAF82410606948
:2018D000BC49086008B90EF01DF8A069BA49086008B90EF017F8E069B849086008B90EF004
:2018F00011F8DFF8DCB2B74C9BF804000EF04CFB0028206075D09BF80500B34E0EF044FBC8
:20191000002830606DD09BF80600DFF8C0A20EF03BFB0028CAF8000063D09BF807000EF007
:2019300033FBAB49002808605BD039789BF80000891C484380B20EF027FBA64900288860F5
:201950004FD03878002862D0BBF80210484380B20EF01AFBA04A0028506042D038780EF037
:2019700013FB9E49002808603BD0387840000EF00BFB9B490028086033D0387818214843E8
:201990000EF002FB974A106058B3387840010EF0FBFA9549086020B3387800010EF0F4FA46
:2019B00092490860E8B1387800010EF0EDFA90490860B0B13878302148430EF0E5FA8D4AC3
:2019D000106070B18C483978007848430EF0DCFA8A4A106028B138780EF0D6FA8849086036
:2019F00018B9BDE8F14F06F071BD4FF0000B09E00EF0A2FA00214180816001800223037153
:201A10000BF1010B39785FFA8BF08842F0D32268694F0120107121680D73206845732168E6
:201A30008D732068C57321680D7400212068457400202268D172A0222168487103212068CD
:201A5000C28001720720226850720021206881722821206801224182C2760020216848775B
:201A70000022206880F85E200121226811770120216881F85D0001223068027131680D73BB
:201A90003068457331688D733068C57331680D7400213068457400203268D1720022316839
:201AB0004871306882724FF420703168C88008818A7401213368D974DAF800201573DAF840
:201AD00000104D73DAF800209573DAF80010CD73DAF8002015740022DAF800104D740121A8
:201AF000DAF80030DA720023DAF800201171DAF800104B71DAF80010C88008818B7205207E
:201B1000DAF800209374DAF800103E4AC874106880473968054608688047396851F8042F97
:201B300000209047D9F80C101C4B0A881878364902430A802846354A136898470C213448EA
:201B50000EF034FF40460EF02DFF0EF027FFBDE8F44F034800784FF4005107F0C5BC00BFFA
:201B70006E4F0020044F0020B63F0050604E0020084F00202C4E0020E81200503C4E0020ED
:201B9000344E0020DC1A01007B4F00200C4F00206D4F00206B4F0020724F00206C4F0020C5
:201BB000F04E0020F44E00207C4B002099FF0000B9FF0000F84E0020FC4E0020F01E002020
:201BD000B8140020104F0020144F0020184F00201C4F0020B81E0020684E0020004F0020BA
:201BF000F41E0020804E0020844E0020884E00208C4E0020904E0020D9140020F81E002092
:201C1000FC1E00204C0F0020544F0020500F0020F84D00202DE9F84FD74CA178FF2904BFD4
:201C300000200DF06FFEA0780EF0A6F8044604F1680504F190062968086810B10021E183D8
:201C50000CE0A87B002804BFA97E002906D13078002801BF207F0128608CE0832189E08B97
:201C70004118491C618120460EF094FE01281EBFC2480178012904D121890020491CE083A4
:201C900061814FF6FF77A87E01280DD1AA8B618920890EF07BFE38B1218960894A1C93B204
:201CB00098421BD0A88B0FE03078012816D17288618920890EF06AFE80B1218960894A1C58
:201CD00093B298420AD0708892B2904206D03818608180B20EF056FE3F18E78304F5967999
:201CF00099F8040020B120890021401CE183608104F12E07A87E01283ED12289A88B521C2F
:201D100092B2904238D1608104F1860120460EF035FEA88C608400212177E183E089618918
:201D30004118A181A88B21890EF02CFE8046B988288C6A8C01FB0808E88C8A4204BF398991
:201D5000884202BFAB8CF9888B4207D000090090AB8CA179520800200EF00CFEA87F387051
:201D7000698CB980A88CF8802046E98C39810EF0FDFD0220A87601E0B7F80480B4F81EC00E
:201D900022687F4ED2F80CE00CF1010000FB08F340F6C41000FB03F18E44C2F80CE0366823
:201DB000DFF8E0E13678BEF80080774AB609032E11D1D67BF60748BF4FF000080BD408F190
:201DD00001081FFA88F6012E12BF668AB9F8066006F2DC5600E0668A5E434FF4C87AB6FB7B
:201DF000FAF6761C6661AEF80080A3614FF0180894F806A084F820C008FB0AFADFF88CC148
:201E1000DCF800E023680EF1080656F80AB0C3F810B094F806A008FB0AFACDF800A0D3F87A
:201E30000CB0D4F814A0ABEB0A0ADDF800B046F80BA094F806A008FB0AFA56F80A609E604F
:201E50000EF10C06A37908FB03F30EF10C0EF65C06F0F00646F002060EF803604FF0000A05
:201E7000DCF800E0A6790EF1020308FB06F623F806A0474BA6791B68760103F1140AD4F832
:201E900014B05AF806A00AEB4B0A03F1140B4BF806A0AD7E022D0BD1A5796D0103F1140660
:201EB00097F800B056F805A000FB0BAA46F805A0BD88D27BA779D60737D508FB07F70EF1B2
:201ED0000802D659A6F5A86A0EF1080646F807A0A77908FB07F7D2592768511A3961BA6020
:201EF00003F11402A1794901575807F5F667575003F11401A27952018958C9F800106843E1
:201F1000244A156BA779296803F11C067F01401AA0F51670F0512049A07903EB40100B7883
:201F3000012B14D10121C17214E003F114027F01D1592A464243A1F5E661A2F516729142BF
:201F5000DDD3082120460EF00DFD012011E0916A4A78C272A179DCF8000008FB01F28118AA
:201F70002268516007200D490870204609F0EEFC0020BDE8F28F00BF684E0020784F002016
:201F9000084F0020141F00205C4D0020804E0020844E0020DC1A0100734F00206F4F002007
:201FB0002DE9F04FADF11C0D00F0A6F94FF6FD7BDFF878A2994D9B4CDFF86492A0689A4A32
:201FD00000214FF0FF33FFF70BF85FEA0008F5D00020019005A901AA02A80CF03BFC002841
:201FF00071D1BDF808000127102867D120789DF81410884262D1019E30884FF6FF7181421D
:202010005CD03378913B36D01F3B57D17078162818BF002005D138460DF0B4F83846C9F82C
:202030000060E36980B9317960687E2904D07F2916D131897EA301E0317A81A300910022F1
:2020500005210CF0FCFF0BE083B9A949A94ACDF800B01020002304F041FAE369C2B22AB1B5
:202070003179083630460EF079FC27E043F002030027E36122E073780E3B02D09B1E19D02B
:202090001CE0B08842F20301814217D1B1680E78A6B9491C03A80A684968026003AE416034
:2020B0003078924903AA00F0FD003070102004F015FA03E00820002103F0A6FE019810B103
:2020D0000FB10EF0E7F85FEAD870C0F097808FE0E66830460EF03EFC864208BF002702D008
:2020F00087680CF031FA381C00F082803888401E78D0401E66D0801E40D0001F26D0083877
:2021100073D1E06980081DD3D9F80060D6B170883179083632460EF019FC0646162E03D024
:20213000042E01D00DF02EF8E3695EB933F00203E36107D16E496F4ACDF800B00123102089
:2021500004F0CCF978680CF0FFF94EE0786806783EB1CDF800A06068042100223CA30CF018
:202170006EFF40F20E300DF10A0105F0BBFACDF800A05D49BDF80A200023E0E77968BE78D4
:2021900062680878AEB1012E0CD0022E07D0032E16D1002808BF32A30CD036A307E078B9CB
:2021B0003AA307E0002808BF3CA303D03FA3009000E043A31046022100220CF040FF7968BB
:2021D0000846C0E7BE78606829784EB1B61E0CD1A9783FA30091002204210CF030FF04E0C1
:2021F0003EA3F7E7B87802F033FF38460CF0ACF9E0680EF0A7FB00283FF46AAF5FEA5800A0
:20221000FFF4DCAE0DF082FFA87801210DF115028DF81500032007F041F8CFE6F80B002097
:20223000AC1D002008020020010000C040E201004D54552053697A653A20256400C046C03D
:2022500046432056696F6C617465643A2025640050617373636F64653A20256400C046C0CF
:20227000426F6E642073617665207375636365737300C046426F6E642073617665206661A4
:20229000696C65643A20256400C046C0426F6E64696E672073756363657373005061697281
:2022B000696E6720737563636573730050616972696E67206661696C3A20256400C046C088
:2022D00050616972696E672073746172746564004368617220333A20256400C0436861721B
:2022F00020313A20256400C099E8000095B4001095CE00009DFA00002DE9F04FB94C04F1B7
:2023100008012046ADF12C0D0BF00AF804F13005002128460EF012FBB34941F28832012399
:2023300004F17000E5600BF0EDF94FF0804000210AF05AFBAD4E1F220623606031461020C7
:2023500004F0CCF8AA4D69782878A9B904F1140129620CF0D3FC05F1440702460020009042
:2023700005F154030197A349029305F11C070397AB78102004F0B2F85021ADF812100020EB
:20239000ADF810004FF44877ADF814704FF47A75ADF8185080468DF8228004AAADF8168038
:2023B000022140F2063001F0D3F804F151024FF442701E2101F0CCF804F1200240F2073015
:2023D000072101F0C5F84FF4447001210DF1220201F0BEF840F2113002210DF1120201F09C
:2023F000B7F840F21230022105AA01F0B1F840F2133002210DF1160201F0AAF84FF4457005
:20241000022106AA01F0A4F804F13C007A49009042461523102004F061F8102031460622BC
:20243000A02304F05BF8102031460722A02304F055F8102031460822A02304F04FF81020AF
:2024500031460922A02304F049F88DF825808DF8278001278DF823700DF123008DF8247002
:20247000664D8DF826704FF4806200903B462946102004F033F809A840F2024200903B4652
:202490002946102004F02AF80DF125002946009040F203423B46102004F020F80DF12600FD
:2024B000294640F206423B460090102004F016F80DF1270029464FF483623B4600901020E3
:2024D00004F00CF84E4910204FF0FF3204F006F84C4910204FF0FF3204F000F81026DFF89D
:2024F00028914A484A4A0096132349460190304603F0F4FF4748007880000DF005FF464D8A
:202510000146A96069B14FF6FF700BF0E9FF434B30464946009005F114020193112303F0C0
:20253000DDFF4FF0020B8DF828704FF0030A8DF829B04FF004098DF82AA039498DF82B903F
:202550000DF11A000A68097902600AAA01714046394606F0A3FE38460DF12902014606F057
:202570009DFE0DF12A023946584606F097FE0DF12B023946504606F091FE05210DF11A02D9
:20259000484606F08BFE04F1180004F1280225496860304603F0A2FF20780CF0AFFB224909
:2025B0000246304603F09AFF20780CF0A7FB1F490246304603F092FF1D49304603F08EFF85
:2025D0006068414603A30A460CF039FD0BB0BDE8F08FC046424C452050657269706865725D
:2025F000616C00C00802002019FF0000F9E600007005002027DB000075B50000B545000062
:20261000F1F2000055F5000099EE0000101A010054090020694F0020F80B00201C1A01001C
:20263000751A0100C5F700005188011031810110C5AB00102DE9F84F0C46E00788B00BD563
:202650000DF08AFC28B100218160B348006800B1804784F001005CE1A0070FD500210023B0
:20267000069105910491039302910191009101223C200EF05FF984F002004AE11D2560071D
:20269000A64EA74F40F18A80002107918B46A5488178FF2904BF00200DF034F9386890F838
:2026B000A0000DF069FB80463868C07A98F82691022818BF032808F5907A06D106F10D0014
:2026D0000EF034F908B906F1070B514648460EF029F988B33868807A002818BF012804D1DE
:2026F000314650460EF01AF904E05246494630460EF010F9FF2834D005FB00F906EB090501
:2027100006225146E81D0DF045FA16F80900396840F00209E81D07900622887E00F00100FB
:2027300088F8260105F1010A386800F1140108F590700DF02FFA14E0514648460EF0E6F823
:2027500078B15246494630460EF0E4F8FF2808D006F10D01454348190EF0E8F808B949F004
:20277000020908F12C004B46017806914289120905920122B8F822100491C08807990291E6
:2027900040080390CDF804B0CDF800A0002098F806100EF0CFF884F00400BAE020060FD5C9
:2027B00000210023069105910491039302910191009101223B200EF0BDF884F08000A8E00A
:2027D000E0044BD5F11D06F10D000EF09BF83868017A012918BF042931D1C17A02291EBFB4
:2027F0000329817E01292AD1817E00F1140230460EF090F8FF2811D04543354405F10D006B
:202810000EF094F850B9E91D05F10D000EF07AF838680622E91D14300DF0BCF93868C07AFE
:20283000022818BF03280AD106F10D000EF07EF828B938680622F11D0C300DF0ABF93A48F3
:2028500042683A4800784FF480510BF0FFF810B18E2008F009FF84F480505AE0A00505D54E
:202870000DF02AFC324901200860FEE7600504D506F0CDF984F480604BE0600405D58120E0
:2028900008F0F2FE84F4804043E0A10440D5294D286810B100200DF035F8274E4FF0FF3037
:2028B00028600EF02BF83168244D51F8202F684690472349234B486A8A6A00900192029300
:2028D000C86A0268086A0392ADF810000A6B1178002904BF5068002805D19068002804BF0D
:2028F000D068002806D02970506868609168A960D068E86029463568134A2E6813486B46EC
:20291000B0471349086004F053F884F4005000E0002009B0BDE8F08F204F0020AC45002068
:20293000104F0020684E0020784E00206E4F0020FC002043044F0020F04E00206845002072
:202950001012002059FF00002C4D0020B01D0020EC4E00202DE9F04F09AFADF13C0D089061
:202970000A92388809911E46ADF81800101C08BF002000F07581017800274FF0010B401CF0
:202990004FF0FF39B846DA460A9061E1252940F056810178401C0A902D2918BFADF806809A
:2029B00004D10178ADF806B0401C0A9030291CBF4246434604D10178401C5A465B460A909E
:2029D0002A29CDF800804D4617D1049330680A9BCDF80890C01C20F00300001D306050F8BF
:2029F000044C1978002C009403F101000A9018D5ADF806A06442009413E044460AE060005E
:202A100000EBC4004018A0F130040A9801780094401C0A90302901DB3A29F0DBCDF8089075
:202A300004932E2929D10178401C2A290A9011D13168CDF80880C91C21F00301091D316063
:202A500051F8045C002D48BF454601782B46401C0A9011E0454643460AE0680000EBC50017
:202A70004018A0F130050A9801782B46401C0A90302901DB3A29F0DB02930AB122460492F5
:202A90006C2904D04C2918BFADF8048004D10178ADF804A0401C0A900BA8CDF80C800FABFD
:202AB00007906429059300F0828069297FD0BDF818C075296DD0782969D06F2965D07029CF
:202AD0004ED063293ED0732922D00A98401E0A90099801281AD966490C68B5F1FF3F03D06F
:202AF000A84288BF6D1C05D86FF00041814294BF0D1C099D029508A80AA932466B46A047A0
:202B100009993F18091A0398099165E0454617E03068C01C20F00300001D306050F8040C01
:202B3000BCF1010F014608B94FA0014607910DF055F90390B5F1FF3F4FD0A8424DD9039569
:202B500028464AE03068C01C20F00300001D306010F8040C8DF82C005D46039558463CE0DB
:202B7000082035680490E81C20F00300001D306050F8041C082210230FA809F0D5F9401E87
:202B9000079040210170079823E0082302E0102300E00A233068C01C20F00300001D306099
:202BB00050F8041CAA42BCBF2A1C04920DE03068C01C20F00300001D306050F8041CAA42E5
:202BD000BCBF2A1C04926FF009030FA809F0ACF907900599081A0390009C241ABDF80650FF
:202BF00000945DB906E008A8202109AA0CF0E6F97F1C009C641E0094F5D50398401EB0F105
:202C1000FF3F03900FD1BDF8060001281CD10098401E009018D408A8202109AA0CF0CEF949
:202C300000987F1CF4E70798017809AA08A80CF0C5F90798401C079003987F1CDEE708A804
:202C500009AA0CF0BBF97F1C0A980178401C0A9000297FF49BAE089808B1414601703846A1
:202C70000FB0BDE8F08FC046286E756C6C2900C0B41A0100BB482DE9F84F0025BA4CB84934
:202C9000056094F8E200002800F06581012800F02F81B64E02283CD0032840F05C8151F8CF
:202CB000250CD4F8B8100029A0F5C060C4F8D400B8BF49420028B8BF4042814226DA4FF0AC
:202CD0008057D7F8A4014568B4F8BC0030214FF47F42082300903046A847D7F8A4014568EE
:202CF000B4F8C00004214FF4F802122300903046A847D7F8A401B4F8D070456820214FF43B
:202D100040620A2330460097A847012584F8D8501CE151F8258C0DF0CFF92F4600B90127FC
:202D30003946934F38680028FCD0B146012609F10409D9F82CA03E6009B10DF0C3F9CAF3FE
:202D50000720C4F8BC000DF0B7F9AA4600B9B2463B68002BFCD0D9F800B0BAF1000F3E6003
:202D700001D00DF0AFF9CBF38440C4F8C0000DF0A3F9AA4600B9B2463B68002BFCD0D9F82A
:202D90001C90BAF1000F3E6001D00DF09BF9C9F38120C4F8D000B8F5C061C4F8B81000F092
:202DB0009C8094F8D80068B9C4F8D410D4F8C000C4F8C800D4F8BC70C4F8C470D4F8D030FE
:202DD000C4F8CC30D4F8D400D4F8BC30002854BF02226FF0010204F1C8010F6800EB4000B2
:202DF0008018421000EB927207EBA2000860D4F8C810C4F8C43000291CDD1E293CDDD4F84C
:202E1000CC0030B93429B4BF15391E21C4F8C81025E02A29BABFD4F8C8000B381E20C4F85A
:202E3000C800D4F8C4003F28B4BF401C3F20C4F8C4001FE0D4F8CC00032812D011F10B0F55
:202E5000C6BFD4F8C8000B30301CC4F8C800D4F8C4000028C4BF401E051CC4F8C45003258C
:202E700008E011F1150FC6BFD4F8C8001530301CC4F8C800C4F8CC504FF08057D7F8A401A4
:202E9000B4F8C43030214FF47F424568374800930823A847D7F8A40104214FF40032112312
:202EB000456832480096A847B4F8C860D7F8A40104214FF4F802122345682C480096A847D1
:202ED000D7F8A40120214FF440620A23B4F8CC60456826480096A84701E084F8D85040F2EC
:202EF000FF50404502D8801C40452FD2082030E051F8251C1F4F4BF2F5204843060A386835
:202F1000C0F3814001280CD11B480068006880470AF0A0FF0DF0DCF83111C010484306EB35
:202F3000E03694F8E50030B91448006820F07F403618760801E084F8E5501148310C066024
:202F5000012741600F4D8760287808B90B2000E0052084F8E40003F063FCBDE8F88FC046E0
:202F70002D400C402C500C40300E002000A00C4000800C40B43F0050EC01001010200940F1
:202F90003C600C40651901002DE9F84FB34D696884B0019121B905B0BDE8F04F0DF0AABCF0
:202FB0000978DFF8BC82AF4EDFF8BC92DFF8BCA201291CBF0229042946F2A81741F64C5BE2
:202FD00005D0402918BF802900F096803CE10DF0B5F80028FAD00198007804F045FD00908D
:202FF000446814B900200CF08DFC9AF8010000285CD000F061FE0CF0BFFE02900168009821
:2030100001914F6809F0A0F8022825D000990A78012ADBD196490A68137A19F80310317012
:2030300018B90DF063FC5844A0602069C17E01F0EF01C1762069C17E41F08001C17620699D
:20305000C17E01F0F00141F00201C1762269B96888484118D1614BE001980178802911D105
:203070000820854930700A78012A03D09AF80100022801DB38690CE0D8F828003A690178F0
:20309000D1720DE07C49072030700A783869012A02D10121C17203E0D8F828104A78C2720D
:2030B0000298817901988AF80210C8E0009800288CD00199009A0078914205D101281CBF22
:2030D00000200CF01FFC15E0012840F0BD80684801680A7A19F8020030700DF007FC39187D
:2030F000A0680DF0FFFB18B90DF000FC5844A0600120A8700098A2E09AF8010000287AD003
:2031100000F0DAFD0CF038FE04462068029047689AF802000CF030FE03900DF015F810F038
:20313000070F3DD0A87804F09FFC0190416801980091029909F008F8022831D001990A786E
:20315000012A2AD14A490A68137A19F80310317028B90DF0CBFB83440098C0F808B00098D7
:203170000069C17E01F0EF01C17600980069C17E41F08001C17600980069C17E01F0F00134
:2031900041F00201C176009AB9683A4841181069C16101210198A97051E000200CF0B2FBB5
:2031B0000398A04225D0029833490278802A12D1082030700978012903D09AF8010002286D
:2031D00003DB38690121C17210E0D8F828003A690178D1720AE007203070097838690129C7
:2031F0000EBF0122D8F828104A78C272A0798AF80200029823E00CF0A7FF10F0070F29D0E6
:20321000A87804F031FC04462078D4F80480012820D117490868027A19F8021031700DF004
:2032300065FB3918D8F808000DF05CFB20B90DF05DFB5844C8F808000120A870204605B0BB
:20325000BDE8F04F06F00EBA05B0BDE8F04F00200CF058BB05B0BDE8F08F00BFB81E002066
:20327000DC1A01006F4F0020289A0110684E0020104F0020F0D8FFFF734F00202DE9FC4740
:20329000DFF8C8A20F460546F80B80F00F81AA4EDFF89882B80F80F0C180B80880F0B58074
:2032B0003809C0F036819F480178090980F0A880007830F07F0040F0A380684606F0EAFF55
:2032D000012803D10098002800F09A8096480078002840F0958001240025E8B20CF042FD35
:2032F00048B1837A3BB1847290F9090004FA00F0C0B20AF0A5FF6D1C032DEED345464FF012
:20331000030905F1AC0085F810900CF0EDFF88490023984608680B6051F8080C41F8088C13
:2033300084491A4605F134000CF0EAFF3068006B8047AA68A969801A000BC0F1FF328A4200
:203350002CBF01444FF0FF31A961287F20B1E868A969B1EBC02F25D90CF0C4F8414600B161
:203370002146081C1BD0754840F60901018043464380417B04F00F0221F00F010A43427319
:20339000017B03F00F0621F00F0146EA0102027343600CF0B1FD418811F4406FFBD02C7798
:2033B0004346AB616649086820F0020040F400700860644A42F8049C41F2300696601460D0
:2033D0005023936014604FF4CA6696601460022042F80C4C44460C600BF004F9112006F05D
:2033F000E3F8287818B9686838300CF095FF687F18B16C7705200BF0F5F8534868612C7405
:2034100009F0D6F927F0080783E005F0D7F840467430006808B927F002077AE00CF06AFF55
:2034300034468146606D0068014604208847C8B1287CB8B14046083006689EB12068EC68EF
:20345000006B8047801BE860010BE960A14202D209194908E96040F6C41088422CBFB1F51A
:20347000FA7FE86048460DF039FA0AF0CDFE90B1A8696FF4807100224FF0007304462846C6
:20349000A04740466C300068002808BF47F0020701D009F08DF9686900214FF080630446CE
:2034B0000A462846A04727F0005732E00CF022FF51460E684EB306F1280106C90A234FF051
:2034D000E0450B40154008BF002B1ED106F1280191E8300006F1280393E8060006F12803A8
:2034F000AA43A14383E806000DF0F8F9B16871B1002D08BF002C0AD03069B6F93C10B268A9
:203510002B4616462246B04701E00DF0E7F927F4804727B15046394650300CF005FFBDE8BD
:20353000FC87C046161F0020311700209815002014100440D9C500008C010010741E002013
:20355000000004600C410440E5910000181600202DE9FC41A0F2013714468846022F40F2FA
:2035700033819B4E9C493F1F0F2F04D9143F4CD0BF1E1CD011E0DFE817F0D000CA000E01A0
:20359000FB00C200BA002701B000A800100010009E0090008000750066002A2880F2148122
:2035B000B8F1020F40F010818849238808E1B8F1010F40F00981F078012800F00581324629
:2035D00020781179107189B9002800F0FD805078012800F0B680042800F0B380062800F0DD
:2035F000B080052800F0AD80BDE8FC812078002840F0EA805078032800F0B080072800F093
:20361000AD80052840F0E080A8E0B8F1010F40F0DB802078012840F0D78006F1EC000CF0BD
:2036300083FC002840F0D0803446002004F13A0107F0C4FD002840F0C78004F1C8000CF079
:2036500079FEBDE8FC81B8F1020F40F0BD8020880A28C0F2B980B0F5486F00F3B5800E46FD
:20367000B61C17E0B8F1020F40F0AE802088B0F5FA7F80F2A9800E460CE0B8F1020F40F0CE
:20369000A38020880628C0F29F80B0F5486F00F39B803E363080BDE8FC81B8F1020F40F0B6
:2036B000938020880628C0F28F80B0F5486F00F38B803C36EEE7B8F1010F40F08580207829
:2036D000062880F28180454E0EE0B8F1010F7BD12078042878DA0A3606E0B8F1010F73D17A
:2036F0002078082870DA09363070BDE8FC81B8F1010F69D12078042866DA0836F4E7B8F1EE
:20371000010F61D1207804285EDCF61DECE7B8F1020F59D120880E36BCE7B8F1010F53D123
:203730003079012850D032462078D178D07069B9002849D05078012803D0042818BF052897
:2037500042D101200CF018FCBDE8FC81207800283AD15078022818BF052835D110780BF0A9
:20377000CDFA1C490246102002F0B8FEBDE8FC8106F1830500211F22284608F071F82146B4
:203790004246284606F014FF44463078B4710BF0B5FA002311E006F1640500211F222846D5
:2037B00008F05EF821464246284606F001FF4446307874710BF0A2FA01230094084901950B
:2037D0000246102002F08AFEBDE8FC81F9E600007005002099450110B0050020AA050020BE
:2037F000094501102DE9F04F8246DAF80070DAF804600C465FEA0208ADF11C0D14BF002165
:203810004FF0FF31DFF8409248460CF018FB002818BF0B2040F0158100258F488C490570AD
:203830008A48FC6052460CF06BFD317B27200CF069FDB8F1010F07D0657002200BF0B4F8CB
:2038500006200BF0B1F801E0012060702078012840F2AA80801E012868D9801E012833D9C4
:20387000801E012800F2DE800CF044FD83464FF0805000F5EE77D0F8DC01A378466A0093AF
:2038900021782846062908BF0120019001200290A068228AE1686368B047814658460DF095
:2038B0001DF8B9F1000F40F0BF80B8F1000F02D00CF040F902E050460AF030FF002800F043
:2038D000A3803868806A2AE00CF014FD83464FF0805000F5EE77D0F8DC0101230668009318
:2038F000A168A27860682478AC46042C08BF9C466346B047814658460CF0F0FFB9F1000FBD
:2039100040F09280B8F1000F02D00CF013F902E050460AF003FF002876D0386840688047D2
:203930004C49C1F8B0510D6081467DE00CF0E2FC83464FF0805000F5EE77D0F8DC01E38A79
:2039500086690093E0680190208B0290A0780390207D04900121059122782846022A08BF30
:20397000081CE1786268A368B047814658460CF0B5FFB9F1000F57D1B8F1000F02D00CF072
:20399000D9F802E050460AF0C9FE00283CD03868006A80475FEA000946D1E078A168E28AD2
:2039B000236907F019FDBFE70CF0A4FC83464FF0805000F5EE76D0F8DC01E38AC768009317
:2039D000E0680190208B0290A0780390207D2946049001200590257805B901460846626806
:2039F000A368E178B847814658460CF077FFB9F1000F19D1B8F1000F02D00CF09BF802E0DF
:203A100050460AF08BFE08B914201AE03068406980475FEA000907D1306802692169E07877
:203A3000904781E74FF0FF39B8F1010F05D002200AF0D8FD06200AF0D5FD03480CF06CFCA0
:203A5000484607B0BDE8F08FD010002008110020A5F00000504502401C1F00202DE9F04F98
:203A7000074616460020ADF17C0D1B938AA4009094E80C00384607F06CFC88460FF2282955
:203A90000CD987A494E80C00384607F01FFC05D999E80C0007F01AFC02D109E094E88001BD
:203AB000414638466A4609F0B3F80098401E0090307BB5680024A0F14101B5F1FF3F1D91C6
:203AD00008BF0124A24641280CBF69A06DA01E9030208DF8080099E80C004146384607F0A4
:203AF000F5FB38BF88F0004899E80C00414607F0EDFB0CD0384601AA09F08AF8019A41467A
:203B10003846C2F1010205F031FA88460746384609F064FE83460DF1090109F00DFB044631
:203B300058460BF0BCF80B4602464146384602F049FA0FF27C1B0DEB04021C940746BAF117
:203B5000000F02F1090451D16D1C15D09BE80C0004F0CFFA8846814609F040FE1E99095C82
:203B700004F8011B0BF09BF80B4602464146484602F028FA6D1EE9D11D9F641E002F14BF48
:203B900040A33BA3217818460CF0A3F8C01A082831DB254600271D986D1E002814BF39A307
:203BB00033A3297818460CF094F8C01A401C1028B4BF195C3021102829701CDB2F70EAE7B9
:203BD0009BE80C00384604F094FA0D46074609F005FE1E99095C04F8011B0BF060F80B46D2
:203BF00002462946384602F0EDF9074699E80C0007F06CFBE4D10025307B2570412814BF1A
:203C1000702150211B9A009809F0C0FAB068B0F1FF3F05D10DF109000CF0E0F8401EB0607C
:203C30001C991B9B0DF10904024620460AF07AFA3168B0682A4601F00801084318BF012282
:203C50001C991B9B204608F0EBFA307B412814BF782158211B980268531E036011700168D2
:203C700030274A1E02601FB00F70BDE8F08FC04630313233343536373839414243444546F9
:203C900000C046C03031323334353637383961626364656600C046C0000000000000F07FB7
:203CB000000000000000F0FF000000000000000000000000000030402DE9FE4F8A4C617883
:203CD00011B900200BF01EFE0CF010FE06464FF0000806F6C4160027844DDFF8149211E0FA
:203CF00038460CF049F8417951B12A68817902F8081008F101015FFA81F831460CF0EAFD78
:203D10007F1CFFB299F800008742E9DB6178884505D000200BF0F6FD82200CF0D7FD607856
:203D3000012840F0C380002701E07F1CFFB299F80000874280F2B48038460CF01DF80646A8
:203D500070790028F1D02968B0790A7890421CBF00200BF0D7FDB079A0E0286810F809005F
:203D70000CF00AF800684268DAF808109068814204BF3E4609F1010900F0A680A8E0286805
:203D900090F800B001224FF4C0710FE0636803F5AD76835C01FB03F901FB0BFE36F809C09C
:203DB00036F80E60B44538BF9B46521CFBB29A42ECDB4FF6FF700CF085FD064658460BF0B1
:203DD000DBFF4C490068D0F804A00868D94630F8192060684FF4C07300F10E0103FB09F368
:203DF000C85AB2EBD00F52D2720840F6C410424300920027404A0190029217E058460BF0F0
:203E1000BBFF01680A78802A03D1DAF81030009A5A610978402908D1029980790A6802EB52
:203E30004011009800F5A060C8617F1C47452EDA2868C05D8345F8D001464FF4C0735943A6
:203E500063685A1803F5AD73D289595A53088B4202D2521A9045E8DA0BF08EFF01684A684D
:203E7000019B9168DAF808207008A1F6C41103FB00200CF037FD0028C0D01E48006830F8C3
:203E90001910491C20F81910286810F807B01948026800215B4622F813105846BDE8FE8F5A
:203EB00000200BF02FFD82200CF010FD617828680CF004FD286800780BF05EFF00260068AC
:203ED000D0F804A04FF00109771CC145FFF645AFF6B2002E1CBFF8B200287FF450AF286816
:203EF00090F800B065E700BF684E0020004F00207B4F0020F41E0020844E00202DE9F043D3
:203F100085B011F8017B0446082F04F1FD0004F1FC0804F1760504F5A076844A844BDFF878
:203F3000149213D0092F21D00F2F2FD0112F01BF287801286878102840F0D5800A783276F2
:203F500048787076012184F83D11EBE00025521C4E5D5F5D3E434E55575D3E4046556D1C80
:203F7000082DF5DB204608F0B9F874E00024571C0D5D1E5D35430D553A5D15400555641CAD
:203F9000082CF5DB022088F80000CBE098F80100820704D410F0110F57D01A2266E0087885
:203FB0004A7800EB02203080CA78887800EB022070804A79087900EB0220B080CA7988796E
:203FD00000EB0220F080087A30724A7A887A02EB00227281C87A0A7B00EB0220B0818A7B5E
:203FF000487B00EB0220F0810A7CC87B00EB022030828A7C487C00EB022070820A7DC87C54
:2040100000EB0220B082487D897D00EB0120F082494801788A0658BF1A2212D504F5A67025
:20403000049071890391307A029021890191F0880090B38872883188204607F023FEE0B1D1
:204050001E2298F80100410710D40F2088F8150020460CF02FFC002864D199F8000005B05F
:20407000BDE8F0434FF4804105F03EBA204605B0BDE8F0430F210CF019BC7088A882B18818
:20409000E9820221F0882883297400206882A18EA88AC91DE981618EB0EB510F02BFE88AEA
:2040B000A18E884202BF288BE18EB0EB111F18D02878012804BF68780F2805D0687918B13F
:2040D0000F21A972FE2127E0FC2120460CF0EAFBF0880090B38872883188A0790CF0DEFB17
:2040F00020E0102118E0491E20460CF0D3FB032F18D1A878042818BF0D2813D16E78142E71
:2041100018BF0E2E0ED12F7820460CF0BFFB012F06BFAE72FD213146204605B0BDE8F0433D
:204130000CF0C0BB05B0BDE8F08300BFEC4D0020E01E00206E4F0020144E002010B50B784E
:2041500084074CBF43F0020303F0FD0304064CBF43F0800303F07F0304074CBF43F00803FA
:2041700003F0F70384064CBF43F0200303F0DF0310F0AA0F0B7003D0107840F00C0003E0D4
:2041900018B9107800F0F300107010BD2DE9F8430D4600272878022814461E4667D169682A
:2041B00008784978DDF8208000EB012080B25FEA08021CBFB0F5285F0B205BD14FF428518E
:2041D000401A08D0401E21D0401E2FD0401E25D0401E31D04BE0DDF82490E8680CF0B4F893
:2041F00080B2A0EB08024A45BCBFA0EB08001FFA80F909EB0800162806DAA6F800904A46E1
:20421000E86800EB08010DE00D2732E0E8680088022131802070000A60702AE00620308021
:204230000622E96820460BF0B5FC22E001203080E9680A7822701CE0E868B0B10821318024
:204250000288227003881B0A63704188A1704288120AE270818821718288120A6271C188C0
:20427000A171C088000AE07103E0308001E0378001273846BDE8F2832DE9F0470F46814625
:2042900038780024022890461D466DD17868089E01784078DFF8D8A001EB002189B24FF408
:2042B0002852891A06D0491E29D0491E4ED0491E39D059E0F8680CF047F880B2B04204D3D7
:2042D000A919162903DB0D244FE007244DE0FB682A46414698190BF05DFCAD19F868ADB253
:2042F000C5F11602002140190CF02CF8DAF8000000281CBF0268002A37D0002123E08EBB69
:20431000022DE0D198F8000098F80110FA6800EB01201080DAF8000000281CBF0268002A15
:2043300023D001210FE0EEB9062DCCD1F868062241460BF02FFCDAF8000000281CBF02687E
:20435000002A12D00321484690470EE056B9012DB9D198F80000002813BF0128F968087077
:20437000802402E00B2400E001242046BDE8F087041F0020FEB57748774A0078774C784B7D
:2043900078490D2840D8DFE800F0E307070707DBDB5EDB9A9AB8B8BF146041F2044572494C
:2043B0004C88AC421FBF4E8BAE424F8EAF4203D11D806E4810607AE0002C6D4D1C804FF400
:2043D000A05639D0641E3CD0641E35D040F2FE37E41B1AD0241F012C1DD94FF47F77E41BCB
:2043F0001BD04FF44067E41B0FD0A41E012C0CD9241F0AD0641E012C0DD940F2F937E41B13
:20441000012C19D9241F08D09AE0022814BF1E80584D15604BE0584DFBE7584803681C7AD0
:20443000012C05D141F20240488048834886F0E74E804E834E86ECE700200BF063FA83205B
:2044500082E08F2080E04E488178FF2954D0146018204C4C41432068851C40F204466C5ACD
:204470001C80A41B012C484B72D94FF47F76A41B0FD04FF44066A41B032C84BF641F012C26
:204490000BD9A41E012C63D940F2FD36A41B08D103E0801C41F201444452136004F062FAB0
:2044B00005E000200BF02EFA85200CF00FFA03B0BDE8F04035480078012105F015B840F287
:2044D00004424888188090421CBF41F2084290423ED041F60402904211D12D4C2D482E4BBC
:2044F00000680025CDE9004502222C4C256855F8086FB0472A490880F7BD48881880002009
:204510000BF000FA85201FE04888188002280DD940F20442801A1BD040F6FC72801A05D06A
:20453000083815D04FF47F72801AE8D1887B801CC2B2B52AA8BF6620887300204880F7BD49
:2045500000200BF0DFF98420BDE8FE400CF0BEB9F7BD00BF6F4F0020204F0020C9020100B2
:20457000504F0020CC4C0020204A002059550110615A0110B1540110755B0110104F0020A9
:20459000684E0020804E0020313901106E4F002002000080EC4E002091E60000F04E00203E
:2045B000424F00207CB5894D144602460026A2F58062182A1AD8DFE812F0FE00F800F1000E
:2045D000E900E200DC00D500D0001900C500BE00B700AE00A3001900190080006F00680052
:2045F00054004C00420039002C0024002A2880F28580022940F0828021880AF075F80646BE
:20461000E1E0012940F0DE80002C00F0DB801135A6E0102940F0D680002C00F0D380284632
:204630005030102221460BF0B5FACCE0012940F0C980002C00F0C68029468D1D90E026291E
:2046500040F0C080002C00F0BD8005F160002622E8E7012940F0B680002C00F0B3806D1DAB
:204670007EE0602900D13CB9012940F0AB80002C00F0A8800D3573E005F1860021466022BA
:204690000BF088FA012068739DE0012940F09A8020780CF0F7F896E0012940F093802078A2
:2046B000022800F38F800C3528702078022814BF301C01200CF0E2F885E0072940F0828046
:2046D000611C684606220BF047F920786946324605F03AF904460A2C10DA0CF0CBF838B93B
:2046F000204603F02BF90AF089FD08F023FC6AE02A46012002F12C05285564E0022662E06C
:2047100001295FD1A87B21780028A9735BD12078012858D1E9E7012954D12478072C51DBFF
:20473000102C4FDC0B3537E001294BD124780A2C48DA093530E0012944D12478022C41DAFF
:20475000083529E000293DD10CF094F810B90BF0B5FAC8E701240F351EE0012932D10A354F
:20477000247819E001292DD12478022C2ADAED1D12E0102926D12B4603F1400051E701296B
:2047900020D12478022C1DDA2D1D05E0012919D12478042C16DCED1C2C7014E0012911D1B1
:2047B0002478022C0EDAAD1CF6E702290AD120881435288007E0012904D12478022CD8BFAB
:2047D0006D1CE9DD182630467CBDC046840A00202DE9FE4F05467B48002400680094C0097F
:2047F00005D37948007810B9202009F0CBFF012D40F0E280DFF80092D9F8DC00012840F09D
:20481000D8800220C9F8DC000BF010F9012009F0B9FF5FEA000805D00120C9F8DC000BF0BC
:2048300011F9CBE00BF07CFDA34602906748684DC0F800B0A86A016801208847012804D18F
:20485000584607F0B7FC012000906248624FC0F800B0386811200BF047FC00B10124102077
:204870000BF042FC08B144F002040F200BF03CFC08B144F004040B200BF036FC20B12868EC
:20489000564E016B308888470A200BF02DFC20B12868534E016B3088884752480126066007
:2048B0002868816944F0200088474F4806600BF015FC00F001010191400814D2286A816815
:2048D0004A4888478246BAF1040FF7D0BAF1010F04D1286A426845480321904744490868C9
:2048F00020F003000860584600F088F82B683868986B8047019801280CD0BAF1010F04D1F4
:20491000286A42683948314690473949086840F0030008602F4806602868416920468847A3
:204930000B200BF0E1FB20B128682C4BC16A188888470A200BF0D8FB20B12868284BC16AFC
:2049500018888847274806600322C9F8DC20264BC3F800B02868416B204688470128F9D1E1
:204970003868042009F00EFF0446184806603868144800688009FBD30098012802D1304688
:2049900007F018FC0BF09EFB082009F0FBFE07460298C9F8DC600BF069FF1648008807F02A
:2049B000E3F90BF04FF857EA040018BF4FF0FF3804E06FF0040801E06FF001084046BDE874
:2049D000FE8FC04614100940180F00200C400940B8010010000222432C200940FA15010016
:2049F000F61501002820086080010443004003402422084060190100300E00202DE9F84FDD
:204A1000DFF804B20746ABF13500DFF8F0810068800880F0E28075480068006880477E49B6
:204A30000831D1F8009000254FEA29715FEA995201F101010AD2C0F13E0210F10A0F4FEA94
:204A5000E202D8BF08229142B8BF111C684BD3F87C21C2F30462162AA8BF203A1B68C3F3BA
:204A70000443162BA8BF203B9A465218162A05DA12F10A0FB8BF6FF0090200E015225D4BB7
:204A90005D4E02F01F0141F4F8511980316811F0030F18BF0125C90828BF45F002050FB1D5
:204AB00045F00405434693F90710411A052904DA9979A94208BF99886FD0DFF844E10F28BE
:204AD000A0F10F0829DB08EB0011A1F1F0084FEA28210091072984BF07210091062988BFD7
:204AF00006215EF821600424774604EB81043C594FEA950CA41BEE0804F0FF0124BFC4F39D
:204B1000072631446F08AE0824BFC4F3074631446E0828BF01EB146104E000214FEA950CBD
:204B30006F080091009C5EF824E05FEA5C060EF0FF0424BFCEF3072634447E0824BFCEF348
:204B5000074634446E0828BF04EB1E64009E89B2A8EB06267143803104EB1124AAEB0201F9
:204B70000029D8BF0121342209F0FF074A4391B24FF6FF727943B1FBF4F18A4238BF111C2B
:204B9000802889B2998005DA10F1800FB8BF6FF07F0000E07F20D8719D711A4800681F295D
:204BB00018604FF0000008D340F2FF128A4206D24908401C8A42FBD301E01F219980134F89
:204BD0000F39090940EAC10047EA0001CBF8FB1F0026CBF8FF6FBDE8F88F0D490D4F4346B3
:204BF00008200F609B1D1870BDE8F88FEC0100103C1100506E62084024220840E81E00203C
:204C10009C130050082009403500094000E7A48030100940FDFDA400AC3F00502DE9F04FD4
:204C3000044675488A46016894461F46BAF1000FADF13C0D4DD0BCF1000F4AD09AF800209F
:204C500001209040014244D0BCF80000B0F5C15F32D1DCF81430DCF818206848DCF81C10AC
:204C70004FF0030E0DF128080B93DFF894B10C9200680D91C0F3036958F8046FCEB10021C6
:204C9000351F05200B4655F8042FB2F1FF3F10D0934506D0401E01F1040103F10103F2D13B
:204CB00007E0052B05DA705820F4702040EA09407050BEF1010EDFD1C4F804A0C4F808C0FD
:204CD0000BF018FB4F4D8046287820B140460BF005FE00208DE002F09BFD4B49086840F014
:204CF0000200086007A80BF017F9002605F1D00007AA4649099609F0E9F8454905F5827061
:204D100007AA09F0E3F807A80BF0CDF8FF2105F1340007AB3F4A0891192109F05DF83E4A61
:204D300005F150001A2107AB09F056F83B49324605F18800134608F053FA3949324605F1E1
:204D5000AC00134608F04CFA364A05F12000042133460AF0C7F90E2004F050FE05F1740038
:204D70000AF0E2FF05F16C000AF0DEFF2E74072085F898012E77AE616E770523AE602B49ED
:204D9000EB602A786961501C2870274B1E7040460BF0A4FDB1464FB92548B0E88C106946D7
:204DB000A1E88C100DC86F4681E80D0038682060398A6182012060747B6813B940F6C41347
:204DD0000646E3601B48A06126746061F86800B1A061B86800B160615822494604F12000B3
:204DF00006F03EFD04F13800494609F0F5FF20466C600FB0BDE8F08FD421084054130050C0
:204E10000200F844981500200020094085FA000019910000D9C500003DC40000D5F400007D
:204E30006DF80000BDD40000161F0020E591000000190100739B00002DE9F04F0546880F42
:204E5000ADF1140DC0F0EC80774F381D006841688E68CC68486800B18047B846734F002EFB
:204E700008BF002C0BD038680028FCD00020386006B1B04704B1A0476D4809F06BFF3E4622
:204E90000024A6F11C016B4ACC616B480A6040F60A0707804480017B04F00F0321F00F01F6
:204EB00043EA01020273A446C0F804C0417B4FF0010A0AF00F0321F00F0143EA01024273BF
:204ED000AA686B7C54801188B146A1F60201C9B141F21E06891B15D041F6E676891B012910
:204EF00020D8517E012B64F38201517606D0118B21F47C7141F43471118313E0118B64F346
:204F10000911F9E7517C012B64F38201517405D0118A21F47C7141F4347102E0118A64F3CF
:204F300009111182D5F808B06C745E4600E01E46736813B119888F42F9D17060717B04F0DC
:204F50000F0221F00F010A437273D8F86C303BB1D9680988FA1F8A4226D0BF1F8F4223D036
:204F70002F8C1FB3C5F824C005F120035C8095F82C1004F00F0221F00F010A4385F82C20F9
:204F900095F82D100AF00F0721F00F0147EA010285F82D204360417B04F00F0721F00F017E
:204FB00047EA0102427301E0C8F808402348036882680192C168406B0093102220F078405B
:204FD00040F0805003901E480291694605F0F0FAD9F800000028FBD01A48C8F8140098F81D
:204FF0001D00C9F8004090B9174800680068014650468847012810D0707B0AF00F0120F051
:205010000F0001437173114FC8F8147005E008F003FE0028FBD00BF07BF958460AF06CFF62
:2050300005B0BDE8F08FC046981500201C1004400100070601010E04741E00204C130050C1
:20505000180000218D320000E001001021C8000070B5804C01466068491EADF1300D00F03C
:205070008580491E74A671D0891E52D0491E41D0491E04D0491E39D0491E35D031E00BF0F5
:2050900045F87549102001F029FA7449C5B202AB10206A1E01F022FA78B90095606802216A
:2050B000002253A309F0CBFF64680DF10A0008F05FF90346032120461AE007AD40F21530E9
:2050D000294602F00FFB6068022100224CA309F0B6FF6468284608F04BF903210346204662
:2050F00030E00221002211E048A300E049A302210446F4E714200AF045F8606802210022E3
:205110004AA309F09CFF6068032105220AF0CEFF6BE0012504F170008DF82D500BF00AF94E
:2051300014200AF02FF86068032105220AF0BEFF40F205300DF12D022946FEF709FA60687D
:2051500002213346002209F07AFF4EE002210022334609F074FF226901A83AA1521C2261B7
:2051700009F0CAFC6068052101ABC1E74FF4417009A902F0B7FA9DF826108DF80A10002546
:205190008DF80C509DF827608DF80B509DF829208DF80D609DF825008DF80F209DF82830F7
:2051B0008DF809009DF824108DF80E3002AE31702B4932680A6070684860666809A808F005
:2051D000D7F8012103462A46304609F038FF606802211DA32A4609F032FF012140F20530A1
:2051F0000BAA8DF82C10FEF7B3F90CB070BDC0464E756D20436F6E6E733A20256400C0465F
:20521000436F6E6E656374656400C0464572726F7200C046436F6E6E65637465642041647D
:20523000766572746973696E6700C04654696D6564204F757400C0464164766572746973EA
:20525000696E6700256400C0496E697469616C697A65640008020020F17F0110097F0110FD
:20527000BF0800202DE9F04F05468048066800680F461C469246C4F399018900ADF12C0DB9
:205290000A010021803206F0EBFADFF8C891A9F1880002466E48016830469047A3088046CE
:2052B000610801979F1C21F00101F819009506EB80000390091DCDF808A07818434506EBC9
:2052D000800206EB870B3844049206EB80000690C4F39C004FEA800000F1080007EB400069
:2052F00000EB070206EB82020A9224F0030202F1080200EB020506EB85053A44059506EB0D
:2053100082050A4407953A4406EB8202089206EB80020992084406EB800A384406EB8005B8
:2053300018BF6FF0010040F08F8009F16800024641463046904700233CB10199264611F84A
:20535000010B761E40EA0303F9D1002B08BF01207AD000263CB10299234611F8010B5B1EA1
:2053700040EA0606F9D1002E08BF02206CD001995846C84703980299C84700988168049821
:20539000C8473548049A594681462846C847012803D14FEA88042E590EB1032054E0BE00D3
:2053B00028460021324606F05BFA0399049A2846C847012801D12F590FB1042044E0274FD3
:2053D000274C069859463A46A047079803993A46A0470699089827460A46B84709980899C7
:2053F000069AB8470A9806991E4C2246B84728460021282206F034FA1B4809990A9A81467F
:205410002846C8472034284622460146C847079950460A46B84705980021324606F020FAB4
:205430005FFA88F45046002C0CBF01225FFA88F200216B5C445CA34218BF052004D1491C61
:20545000521EC9B2F5D100200BB0BDE8F08FC0468C4F0020B9DB0010C9DE00107413002089
:20547000F9E00010EC160100C9E60010884F00202DE9F0410446804DA178A869ADF1180D2F
:20549000891F00F0F280C91E00F0DD80491E5FD0491E48D0C91E3CD0481E40F0E980287A15
:2054B000697AB8B96878002831D0A0880BF0DAF9071C00F0DD80A07A40080FD3787968B1CB
:2054D000E168890A0AD2B91D01AA04F03DFA0A2804D10321A0880BF0C1F9C9E0287B0228DA
:2054F00002D1A07A0009F4D3A088797904F1080201F0C8F8A869002800F0BA804368002BDC
:2055100000F0B68000210A46A0889847B0E00521E0E7002800F0AC804368002B00F0A8802E
:2055300062780221F0E70AF01FFD002800F0A080A86950B1076847B1206900906189227B20
:20555000637BE01C3C46A04792E060890121C2E767784FF00008002F66D1A179490863D3A5
:20557000EF69002F60D101A841460E220AF0EAFEA0880BF077F9071C7AD0606940B978796E
:20559000B91D06228DF80A0001A80AF003FB19E06669307C062206F111018DF80A0001A8F0
:2055B0000AF0F8FA07F10C00B91D06220AF0F2FAB81D062206F111010AF0ECFA307C40F045
:2055D00002007871A079C00839BF387900F0FD00387940F002003871A079000939BF387902
:2055F00000F0DF00387940F020003871A1799DF81120C1F3800010438DF81100080905D33C
:205610009DF8110040F008008DF8110001A8214600F028FA28B92878022103F065FF404663
:2056300027E0A8694FF0150810B3436803B3A088627801219847B8F1000F19D0A869436862
:205650000321424660E7E078211D002204F07CF90A280DDA410001EB800004F10C02253008
:205670000421C0B202F0C4FD02E0A08807F030FE012006B0BDE8F081840A00202DE9FE4FA3
:205690000E468246307AC10693461F464FF000090CD558460BF0DEF8030000F0E8800A2210
:2056B0003146504698475FEA00094DD130780C9D0D9CDDF8388002281AD1706801784078D9
:2056D00001EB002189B24FF42052891A012910D9891E3AD0491E14D0FD397AD0491E00F034
:2056F0008180491E6DD0491E73D0491E00F09580ABE0002C2AD1F068017829800278416890
:2057100087E0002C22D101202880F1680A783A7000217089401C80B20BF098F8298860B1B0
:205730000278921C51182980418979704289120ABA7041680278F81C6CE0091D29800422E3
:205750000021781C0AF0FEFD93E0002C66D1F0680688042129803E70320A7A700DF1020130
:2057700030460BF073F8040021D0D4F80C80BDF802204FF6FF766B4631460BF063F840B9E8
:20579000237862683C4802210BF058F808B9ADF8006098F8000002280BD1D8F8041002223E
:2057B000381D0AF0F7F92888801C288001E0ADF80060BDF80000B870BDF80010090AF970A2
:2057D00057E0002C2AD1F068016850460AF063FB02E01CBBF0680088022129803870000A95
:2057F000787046E0F0680AF0AFFD80B2A042B8BF4FF007093DDB844208BF002205D008EB24
:2058100004028242B4BF4246021B2A8092B2F068011938460AF0BEF92BE014B14FF00B09E4
:2058300027E0F0680721298002783A7043787B704188B9704288120AFA7001793971C288AE
:205850007A71C088000AB87113E058460AF0F2FF5FEA00090BD00F980290CDF80480009413
:205870002B463A4631465046C847814601E04FF00E094846BDE8FE8F341701002DE9F04FAC
:20589000ADF1140D071C8B4602930E9D01920F9C039500F0CB80BBF1000F00F0C780101CD6
:2058B00000F0C480181C00F0C180281C00F0BE80002C00F0C080206A002800F0B780614DEA
:2058D000666A281D0068002E00F0B080A16A0AF0ADFF40B2061C08BF6FF0020700F0A280E7
:2058F00020786288216A84F82C6000EB80001218143290B288475249086030B92846406895
:205910000AF090FF4FF0FF378CE0A0684E4AE6684E4D106023692E608A464D4866694D4A2F
:205930000360A56916604C4BE6694C4A1D6021781660207825794A4E6388DAF80020357018
:20595000668801EB410106EB020C03EB4005AD18CE1805F10808C5180918AD1805F1040972
:20597000C51CAD10D5502078C01C8010C9F800002078C01C8010C8F800002078B6180C3623
:20599000C01C801030602078C918891801F11005C01C801028602278CDF810C0394663468F
:2059B000181D04F005FE2278594609F1040004F0FFFD2278019908F1040004F0F9FD2378CE
:2059D000204649464246FFF74DFC071C13D1009504984946424633460AF020FF80462278BA
:2059F0000298311D04F0E4FD22780398291D04F0DFFD4FFA88F721786288DAF8000001EB86
:205A100081015218002105F02BFF606A0146DAF8000088470B4840680AF004FFF8B2992835
:205A300008BF002784F82C70384606E01CB16FF0010084F82C006FF0010005B0BDE8F08FDE
:205A5000884F00206C1300208C4F0020904F0020944F0020984F0020804F0020844F0020BA
:205A70009C4F00202DE9F04F734CDFF8C8A1E56988468146ADF1140D002D4ED1B9F1000F10
:205A900000F09680B8F1000F00F0928009F06AFA06460A2E27DAD8F814702674002F3DD02A
:205AB000700010216A4600EB86002330C0B209F063FEB0B91020ADF1010111F8012FFF2A5A
:205AD00002D1401EF9D10CE05046007838B999F80600494600F001000AF09CFE01E0012023
:205AF000A074E56919E004F1E60B0A2700265846FF21062209F074FF68B97F1E0BF10E0BD9
:205B100006F10106F3D1607C002804BF0A2020744ED094F83660267400E0267C0A2E47DA79
:205B3000002D35D170000E214A4600EB86002030C0B202F05DFB207C07F02AFD6846FF21EE
:205B500010220AF0FFFB207C10216A467030C0B202F04EFB217C0E220801A0EB410000198A
:205B70004946E6300AF016F8D8F814206AB15046007840B9107C02F11101002300F001009D
:205B90000AF044FE01E00120A074C4F81C804CE0AA68002A3ED12A69002A2FD16A690ABB7F
:205BB000EA683AB9A07B08B108F0D2FD09F0D5FD01203BE07000102100EB86002430C0B216
:205BD00002F016FBE769217CFA68480000EB8100103225300421C0B202F00AFBE169002020
:205BF000C86022E07000102100EB86002330C0B202F0FEFAE1690020486116E070001C21F4
:205C100000EB86002230C0B202F0F2FAE169002008610AE070001C2100EB86002130C0B2C3
:205C300002F0E6FAE16900208860002005B0BDE8F08FC0465A4F0020840A00202DE9F04F65
:205C500004461646B068ADF16C0D00281A9302D003D5062000E00120B0608946302162A582
:205C70008DF8001095E80C00471C2046494605F02DFBA24638BF89F00049002412E030207A
:205C9000087055E09BE80C0002F033FA641E8946824611E09BE80C00504601F0F0FB641C0E
:205CB0008946824654A20CCA494605F052FB0FF2401BEFD34FF0000895E80C00504605F027
:205CD00005FB05D04EA20CCA504605F0FFFAD9D3504607F083FD0DF10101199007F02CFA16
:205CF0000DEB00052418874205F1010518DD3F1A199808F0D4FF0B4602464946504600F01E
:205D100061F99BE80C0002F0F4F98946824607F065FD199030307F1E05F8010BE8D102E071
:205D30000DEB07056D1C15F8010D35280ADB294611F8010D401CC2B23A2A08709FDA6F4609
:205D50008F4204D040460DF10107287002E0641C05F8018C14F1030F07DBB068A04212DA9F
:205D7000022CA4BF641EA04405DA002C04DCC4F10104A8EB04080124307B1A9A801EC1B243
:205D9000404607F003FA38460AF028F80025401E844219DC021B521C002803D4395C30292B
:205DB00001D004E0302115B933681B0908D3DDF868C0DCF800305D1ECCF800500125197026
:205DD000521EA0F10100E7D13068002200F00800284318BF01221A9B2146384606F020FA38
:205DF0001BB0BDE8F08FC046000000000000000000000000000024400000C0FFFFFFDF415D
:205E1000000000000000F03F7CB56D4D044668680E4628B94FF00040002106F0E5FD6860C9
:205E300000213CA30A4609F00AF920463DA3801E08D0801E61D0401E4CD0401E37D0401E3E
:205E500022D00EE06868012E05D000210A4609F0F6F837A357E000210A4609F0F0F839A3E7
:205E700051E0686800210A4609F0E9F86868022100223AA309F0E3F801208DF803009DF8C2
:205E900003000028FBD17CBD686800210A4609F0D6F868680221002236A309F0D0F80120EA
:205EB0008DF802009DF802000028FBD17CBD686800210A4609F0C3F868680221002232A3A8
:205ED00009F0BDF801208DF801009DF801000028FBD17CBD686800210A4609F0B0F86868E8
:205EF000022100222DA309F0AAF801208DF800009DF800000028FBD17CBD686800210A4639
:205F100009F09DF829A368680221002209F097F87CBDC0463E3E3E535441434B2041535304
:205F3000455254002A2A2A4552524F522A2A2A003E3E20494E5445524E414C204552524F8F
:205F5000522100C03E3E20494E5445524E414C204657204552524F522100C0463E3E204497
:205F7000454641554C54205350494E4C4F434B2100C046C03E3E2057524F4E4720415049C3
:205F90002043414C4C2100C03E3E204943414C4C2054494D454F55542100C0463E3E204980
:205FB00043414C4C2041424F525421003E3E204F5554204F46204D454D4F52592100C04693
:205FD000080200202DE9FC4F83F0004301E02DE9FC4F1F03FF0847EAD2574FEA42284FEACF
:205FF00043095FEA595906D147EA080A1CBF00210020BDE8FC8F57F000575FF4E06E1EF196
:20601000FF0EF14505D14FF00000190D0905BDE8FC8F002B05D55FF0000AD8F100086AEB30
:2060300007070C03E40844EAD0544FEA40254FEA4106760D08D144EA050A19BF0021002025
:20605000191C101CBDE8FC8F44F00054764504D10020090D0905BDE8FC8F002904D55FF0C2
:20607000000A6D426AEB0404B6EB090E08D5A2463C465746AA464546D046CEF1000E4E466C
:20609000BEF1360F5CBF4FF0000B23E0BEF1000F04BF4FF0000B1AE0CEF1390ABAF12009F9
:2060B0002EBF08FA09FB07FA0AFB4BEA080BDEF1200A07FA0AFA38BFBA4647FA0EF72DBF68
:2060D00028FA0EF8AEF1200E4AFA0EF8D04415EB08057C4154EA050A02BF00210020BDE89F
:2060F000FC8F002C58BF4FF0000A06D55FF0010A5FF0000E6D426EEB0404A6F101066D00CC
:206110006441FAD515F4806E11D005F480794BEA090B15F5806554F1000428BF761C0BD25A
:2061300005F400795BEA090B08BF25F4006525F4E0656D0044EB0404B61CDEBF002100208D
:20615000BDE8FC8F5FF4E06E1EF1FF0E76450AD34FF0000013F00043FF21C900C91D090548
:206170001943BDE8FC8F270547EA1530210B41EA065141EACA71BDE8FC8F70472DE9F04F91
:20619000ADF1240D079001F043FB5F48007809F083F85E4D0024012806D90C3804D0401E7A
:2061B0000ED0401E09D006E009F034FC022804BF01210C1C06D0696805E005211F2401E09E
:2061D000032107246960524A1068C0F38150012806D152F80C0C0127020E07FA02F004432B
:2061F00009F082FE05F1440AFF2253464018401E471C28607F1E03F8012BFBD1079A1268CC
:20621000002602F0FF03FE2B1DD0DDF81CC0964633460EF0FF07FF2F0ED0B84205D3B9425B
:2062300003D80122BA40144201D0022069E016430EF0FF020AF802305CF804EF5B1C0EF07C
:20625000FF07FE2FE7D1092003F0D8FB07980121A86005F1280008F0BFFD00274FF0010B47
:20627000B9462846804600F198050BFA07F0044216D1064204BF07F0FF0141F4C04104D018
:206290001AF80700079951F82010224802F0A6F8F8B24FF0FF3109F0F5F8C5F8009001E095
:2062B00004202860D8F800007F1C2D1D8742DCD904A809F0F8FD184C184A2078102104AB17
:2062D000059008F10C0007F087FD684609F024FECDF80C906A4660681149029008F16400AE
:2062F00007F0F4FD0F4951F80D0C20F4F85040F4005041F80D0C0C4FC1F8FFBF4846C7F89B
:2063100000B009B0BDE8F08F1D1F00201C0D0020B43F0050007FC767481A010051F800009F
:20633000E9DB00000D3009400800094061480178002900D170472DE9F843491E032984B0C7
:2063500004D9891F012940F2B180A9E05A4CDFF86C912068DFF8688103685A4E03F10805BC
:20637000062205F1080102A809F014FC0622A91C684609F00FFC2878C1091D2700F00F02E5
:20639000032AC0F3801537D16079C0F3800081421ED12169062202A809F014F900287AD0DE
:2063B000694628460AF0BEFA002874D0314668460AF0B4FAFF286ED04743D8F80000807A0C
:2063D000F519002818BF02280AD0012818BF032861D1F25D691C48460AF014FA10285AD073
:2063F0006B46EA1D294648460AF008FA06226946E81D09F0CFFB4EE000F00F00052855D1BD
:206410006079C0F38000814245D12169062202A809F0D8F800283ED0694628460AF082FA99
:20643000002838D0314668460AF078FAFF2832D04743D8F80000807AF519002818BF0128D8
:206450000AD0022818BF032825D1F25D691C48460AF0D8F910281ED040F2024007F054FD21
:206470006B46EA1D294648460AF0C8F906226946E81D09F08FFB1448144A41F2044141804A
:2064900041834186124801801249134811600121007803F029F821680A680020107105E030
:2064B000002009F02FFA86200AF010FA05B0BDE8F08300BF6F4F0020F44B0020CC470020E4
:2064D000104F0020AC450020204A0020204F0020504F0020595501106E4F00200FB42DE9CF
:2064F000F04F09AF8046ADF1240D09F06FFE391D30F0010021F0030101F1040101D101F054
:2065100076FE05911420ADF8100000240294FF258DF812507E6806960AF06CF9064609F08D
:2065300055FEDFF854A130F0010015D008F0C6FD514622468446062031F80C7F4FB14B6815
:206550001B689E4204D0401E02F10102F4D100E0D5B2604609F065FB404608F029F801468F
:20657000FF2904D02846032205AB05F0C3FE0AF041F908F0E9F9A3460746CDF800B009F064
:2065900025FE30F001006DD0002F6BD03B4802683B480023214604F06DFA04460AF026F948
:2065B000DDF8008001264FF6F87905462D1909E0B8F1000F58D0404609F06CFE54E00A46D2
:2065D00044E01C46786859464FF000522346FAF707FD002832D007A80DF11D0101AA06F021
:2065F000A0FB00BB9DF81C00062813DA9DF81C100AF10C02880000EBC100135A53B199451C
:2066100008D0019A09F0CAFD00281CBFDDF804805E4613D10199684607F0B0FF78684FF046
:2066300000510AF0DFF8B4F1FF3FCBD0002CC9D00AF0DCF82B1A01D09C42C2D209F0D6F8C8
:20665000009D08F03BFD083745B12A4652F80C1C0029B4D1396842F80C1C3D6009F0E1FA24
:20667000002EA5D001F0C3FD0598006809B0BDE8F04F04B07047C0468C0F0020A41A010029
:20669000404B4C002DE9F04F88468246ADF1AC0D29920AF0E7F85F4CE67894F80BB0A57ACE
:2066B00094F80C90071C00F0B18068460021A42209F048FE2801279A58498DF8046005F021
:2066D000030300F4807605F00405ADF800A0B9F1020F01EA020143EA01024F4B8DF8A0B02F
:2066F00046EA020100F4C06603EA010246EA020045EA00054FF00000279508BF01208DF87F
:2067100037000AF06BF8412809DB207B00280CBF002008209DF8991008438DF89900607B30
:20673000002804BF00208DF8380017D001208DF8380004F1860120220DF1390009F02AFAAA
:206750000DF1590004F1A601202209F023FA0DF1790004F1C601202209F01CFAA07940B150
:206770008DF8260004F1500110220DF1270009F011FA6679D6B17F1D04F1600504F15F010C
:20679000062017F8012F11F8013F9A420ED1401EF7D18DF805600DF1060005F1160110222D
