:200000000040002085C2000001C9011001C9011001C9011001C9011001C9011001C9011017
:1C00200001C9011001C9011001C9011001C9011001C9011001C901103FC9011089
:20003C002DE9F04FD54C04F10C012046ADF1340D0BF056FE04F130050021284600F030FBC4
:20005C00D24904F1700941F288320123484625610BF0F0FF4FF0804000210BF0D1FADFF82F
:20007C0030A31F220623A0605146102003F048F900275020ADF81E0001258DF827500DF1B2
:20009C0027028DF828702946ADF822704FF44870ADF820004FF47A70ADF8240040F205303B
:2000BC0002F078FDC84E1D2106F10E0004F1510207804FF4427002F06DFD40F207300721B3
:2000DC0004F1200202F066FD4FF444700AAA294602F060FD40F2113002210DF11E0202F089
:2000FC0059FD40F21230022108AA02F053FD40F2133002210DF1220202F04CFD4FF4457016
:20011C00022109AA02F046FD04F13C003A461523B6490090102003F0F3F851461020062243
:20013C00A02303F0EDF8514610200722A02303F0E7F8514610200822A02303F0E1F851466C
:20015C0010200922A02303F0DBF80DF12900B8468DF82950DFF8249300902F468DF82A50EA
:20017C004FF480622B468DF82B8049468DF82C70102003F0C5F80DF12A0040F202422B46FE
:20019C0000904946102003F0BBF80DF12B0040F203422B4600904946102003F0B1F80BA89F
:2001BC0040F206422B4600904946102003F0A8F8C34910204FF0FF3203F0A2F8C1491020E3
:2001DC004FF0FF3203F09CF81020C04B0090C04ADFF8F49201934946132303F091F8BD4800
:2001FC00007880000EF0B1FBC44D0146A96069B14FF6FF7000F0DCFEC34B102049460090EB
:20021C0005F114020193112303F07AF80420C3498DF82D0004AF0A6809793A600123397198
:20023C000DF12D02022719462B7003236F701846AB7007F07FFD04A905F10C000A680979BE
:20025C00026004F11C070171717830786F60A9B904F1180131620DF0F7F8474602460097DB
:20027C0006F1540306F14400019006F11C070293B8490397B378102003F042F8B64904F182
:20029C002802102003F03CF820780DF0DDF8B3490246102003F034F820780DF0D5F8BF495A
:2002BC000246102003F02CF8BD49102003F028F8A0684146BFA30A460DF051FA4FF6FD7B04
:2002DC00DFF8ECA2E068B94A00214FF0FF3300F0EBF95FEA0009F5D0002006900DF12601FA
:2002FC0006AA07A80CF0A4FE00287AD1BDF81C100120804610296DD120789DF82610884206
:20031C0068D1069908884FF6FF72824262D00F78913F35D01F3F5DD10F4678786368162877
:20033C0010D03A79A0687E2A09D07F2A16D10989A4A30091002205210DF011FA0EE0397A9A
:20035C00A4A3F6E783B99749974ACDF800B01020002302F0D5FF6368C2B22AB139790837C7
:20037C00384600F0A5F935E043F00203404663600AF08EFC4FF0000867612BE008020020F7
:20039C004F780E3F06D0BF1E20D023E095E50000E1CE0000888842F2030282421AD1896875
:2003BC000F78BFB9491C04A80A684968026004AF41603878B84904AA00F0FD003870102014
:2003DC0002F09EFF06E0C046700500200820002104F04EFF069820B1B8F1000F01D00EF071
:2003FC007AFA5FEAD970C0F0C780BFE0E59F00002769384600F060F9874208BF002702D0E1
:20041C0087680AF0B1FF381C00F0B0803888401E00F0A680401E00F08C80801E5CD0001F3C
:20043C003AD0383840F09F806068800830D3636973B3607803F10802401C60709549009220
:20045C005A881B79102002F05BFF5FFA80F8B8F1160F15D06368B8F1040F11D033F002037A
:20047C00636007D14F49504ACDF800B01020012302F046FF40460AF00BFC09E0BD30000036
:20049C0060780090A0680521002256A30DF067F978680AF069FF66E0786803783BB1CDF89E
:2004BC0000A0A0680421002253A30DF058F9CDF800A07749328A1020002302F021FFE7E7D9
:2004DC00F5D9000039DC0000C5D50000D8FE000054090020694F00207968BB78A2680878BA
:2004FC00F3B1012B12D0022B0AD0032B1FD1002808BF45A315D049A30DE0C046F80B00204B
:20051C00A8B94CA30DE0C046E4FE0000002808BF4CA306D04FA3009003E0C0463DFF00003F
:20053C0051A31046022100220DF019F979680846AFE7BB78A06829784BB19B1E13D1A978A6
:20055C004DA30091002204210DF009F90BE04DA3F7E7C0461BC40000ADDE000051880110A5
:20057C00B87804F09FFD38460AF0FEFE206900F0A7F800283FF43CAF5FEA5900FFF4A2AEE8
:20059C00464800F0A1F8A87801210DF12E028DF82E00032007F0CEFB94E6C04631810110DF
:2005BC00C5AB001005BA000069E10000010000C040E20100424C4520506572697068657280
:2005DC00616C00C04D54552053697A653A20256400C046C046432056696F6C617465643AFD
:2005FC00202564005273702073656E642072657472793A20256400C050617373636F64650C
:20061C003A20256400C046C0426F6E642073617665207375636365737300C046426F6E6421
:20063C002073617665206661696C65643A20256400C046C0426F6E64696E67207375636312
:20065C006573730050616972696E6720737563636573730050616972696E67206661696CCA
:20067C003A20256400C046C050616972696E672073746172746564004368617220333A20A9
:20069C00256400C04368617220313A20256400C081D00000DDFE001095B400107802002054
:2006BC00DFF800F0A1B60110DFF800F0F99B0110DFF800F089840110DFF800F019BD0110F0
:2006DC00DFF800F04FBF0110DFF800F01FBE01102DE9F04FD04C04F118012046ADF1340D9F
:2006FC000BF0FEFAD24D002604F1A40A4FF6FF700123667032462082294650460BF09AFCA5
:20071C00CC480223324629460BF094FCCF480423324629460BF08EFC04F1440804201022D1
:20073C003146A070404609F00DFE04F1540910224846314609F006FE04F11C073E6004F15B
:20075C000A052E7007206072DFF80CB3E67102222672594610200346CDF8008002F0D0FD12
:20077C00102003225946CDF80090034602F0C8FD0422102059460097134602F0C1FD4FF040
:20079C00080A4FF003094FF0010B05F12A00079005F17900089005F11E00099005F15A00DA
:2007BC000A9024350B9517E06078A28FE18FB4F84050B4F8423006280ED1ADF80A20ADF83F
:2007DC000C10ADF80E509B48ADF8103000F038FA584602A907F0B8FEA069B64A31464FF03F
:2007FC00FF33FFF761FF071CF6D0059606A80DF11A0105AA0CF01CFC002840F0C181BDF8F8
:20081C0018102078102940F0B7819DF81A10884240F0B281059D29884FF6FF728A4200F0AA
:20083C00A0812B78A23B00F083812E3B40F0A481A978B046002900F03F81891E00F00E8133
:20085C00491E012940F2D680891E00F09A80491E6ED0491E5BD0083900F05A81891E40F098
:20087C005D8194F83A10A8880529ADF8080046D070488DF812B000F0E3F994F83A000128CD
:20089C001ED004281CD003280DD002280BD00598C188ADF80A100189ADF80C104189ADF8CA
:2008BC000E10818927E0A18FE08FADF80A10B4F84020ADF80C00B4F84210ADF80E201AE007
:2008DC00A08FE9888842D8BF081CADF80A002989E08F8842D8BF081CADF80C006989B4F833
:2008FC0040008842D8BF081CADF80E00A989B4F84200884200DC0846ADF8100001E08DF835
:20091C001260AB49102002AA02F0FAFC06E14F4800F096F96B78002B40F00081E888608283
:20093C002889A0826889E08242480DF035FEF5E0AA88B649102002F0E3FC07984146062266
:20095C0009F000FD6682A682E682A8792073394800F076F93D4800F073F9D8464FF6FF70C6
:20097C002379208253B9A879082814BF042005206070A069594600F067F9CFE084F8019020
:20099C00CCE06B787BBB291D0A6807980260898881800623637068892082E8896082288A17
:2009BC00A082688A94F83A10E082E8780129E07218BF02290BD19B4910201F2202F0A0FC32
:2009DC004FF47A7180B241431A480CF0ABF868890423009092490193EA7810202D1D2B46B2
:2009FC0002F08EFC9DE06878312840F08E80E67004202EE06B78002B40F08780A878E18914
:200A1C006278032818D0E078257939B9012814BF2671E67008E0C04670050020054303D05E
:200A3C0081480CF07FF86278072AE1D1062010E005E6000038060020062A09D0E578002DAF
:200A5C0008BF84F801906CD0022002E05C0600200720607065E0C0468DDE00006B78002B29
:200A7C0053D1EB7861789BB902291ED007291CD0062902D12079012817D1032915D06A4802
:200A9C000DF08AFD88B9A069594600F0DDF80CE00CF0DAFC0246A079604900900898434687
:200ABC000190102002F02CFC68706D78002D2CD134E0C046070000806B7833BB5B485649A4
:200ADC00009002221020034602F01AFC58484A46514900901020034602F012FCED1C296858
:200AFC0009980160A9888180207884F801B00CF0ABFC02465B460A9D607948490090102084
:200B1C00019502F0FDFBC0B258B184F801A008E0AA8840491020052302F0F2FBB8F1010F0E
:200B3C002AD1256A45B3296831B36078884723E06879132820D12889012808D1607B022833
:200B5C0005D13E4800F07CF80CF0A4FA14E035491020052202F0D4FB81B238480BF0E2FF06
:200B7C000AE06888C00B07D3324804222A4900901346102002F0C4FB059808B10DF0ABFE01
:200B9C002579E07879082ED355EA00032BD0204600787DB9E279217A8DF808200B9D8DF8A0
:200BBC0009102B680DF10A010B60AA888A8003E0051601108DF80890627A8DF81020A17AE5
:200BDC008DF811100CF040FC1149024602AB102002F096FB38B1256A84F801A01DB1296825
:200BFC0009B150468847B80803D31349304607F0ABFCF808FFF4F0AD607B401E3FF4D4AD37
:200C1C00401E7FF4E9AD0CF045FAE5E581A7000059440110C1170110756D0000094501104C
:200C3C006D6E0000E1E1000014060020B4050020C40500208C050020AA0500205C060020FD
:200C5C00DFF800F0B9BA0110DFF800F055A401102DE9F84F0C46E00788B00BD50DF0B4FC01
:200C7C0028B100218160B348006800B1804784F001005CE1A0070FD50021002306910591F4
:200C9C000491039302910191009101223C2000F06FF984F002004AE11D256007A64EA74F4C
:200CBC0040F18A80002107918B46A5488178FF2904BF00200DF086F9386890F8A0000DF021
:200CDC00A5FB80463868C07A98F82691022818BF032808F5907A06D106F10D0000F04CF92E
:200CFC0008B906F1070B5146484600F049F988B33868807A002818BF012804D131465046D8
:200D1C0000F042F904E052464946304600F040F9FF2834D005FB00F906EB09050622514600
:200D3C00E81D0DF08BFA16F80900396840F00209E81D07900622887E00F0010088F82601BB
:200D5C0005F1010A386800F1140108F590700DF075FA14E05146484600F01EF978B1524686
:200D7C004946304600F014F9FF2808D006F10D014543481900F000F908B949F0020908F181
:200D9C002C004B46017806914289120905920122B8F822100491C0880799029140080390FD
:200DBC00CDF804B0CDF800A0002098F8061000F0DFF884F00400BAE020060FD5002100234C
:200DDC00069105910491039302910191009101223B2000F0CDF884F08000A8E0E0044BD536
:200DFC00F11D06F10D0000F0DBF83868017A012918BF042931D1C17A02291EBF0329817E49
:200E1C0001292AD1817E00F11402304600F0C0F8FF2811D04543354405F10D0000F0ACF8CD
:200E3C0050B9E91D05F10D0000F0BAF838680622E91D14300DF002FA3868C07A022818BFFC
:200E5C0003280AD106F10D0000F096F828B938680622F11D0C300DF0F1F93A4842683A4866
:200E7C0000784FF480510BF065FA10B18E2009F06DF984F480505AE0A00505D50DF054FC54
:200E9C00324901200860FEE7600504D507F05FFE84F480604BE0600405D5812009F056F911
:200EBC0084F4804043E0A10440D5294D286810B100200DF087F8274E4FF0FF30286000F043
:200EDC0073F83168244D51F8202F684690472349234B486A8A6A009001920293C86A026890
:200EFC00086A0392ADF810000A6B1178002904BF5068002805D19068002804BFD068002837
:200F1C0006D02970506868609168A960D068E86029463568134A2E6813486B46B0471349E6
:200F3C00086004F0C3FD84F4005000E0002009B0BDE8F08F204F0020AC450020104F0020B5
:200F5C00684E0020784E00206E4F0020FC002043044F0020F04E002068450020101200209D
:200F7C00D5E500002C4D0020B01D0020EC4E0020DFF800F0C9C10010DFF800F0016F011012
:200F9C00DFF800F0896E0110DFF800F0CD6E0110DFF800F0196F0110DFF800F0B56E0110F8
:200FBC00DFF800F0716D0110DFF800F0996F001010B54FF6FF74844206D00CF05FFE68B1F5
:200FDC0004800021817010BD0548007830B10022091F21F8044F401E8A70FAD110BDC04640
:040FFC00694F002019
:20100000B41200001810000015AB0110FDB301106DC00110FDAE011099B5011000000000F7
:08102000000000002D0000009B
:20102800B01200003C100000B1C00110A9BF011067C0011069B80110000000000000000035
:041048003000000074
:20104C00B012000060100000BDC00110CDB30110D9BD01106DB3011000000000000000005B
:04106C00310000004F
:2010700000000000FC14002004000000000000000000000020000000E8C90110300000001A
:2010900028100000041500200400000000000000000000000C000000D8CA011018000000F4
:2010B0004C1000000C15002004000000000000000000000024000000F0CA01101800000078
:2010D00000000000141500200400000000000000000000001000000018CA01102C00000084
:2010F0000010000024150020040000000000000000000000200000006CCA011024000000E8
:20111000FFFFFFFF2C1500200400000000000000000000002800000090CA011024000000A7
:20113000FFFFFFFF341500200400000000000000000000001400000008CB01101800000026
:20115000FFFFFFFF3C15002004000000000000000000000058000000B4C9011034000000F4
:20117000FFFFFFFF441500200400000000000000000000001000000020CB011018000000C2
:20119000FFFFFFFF4C1500200400000000000000000000001C000000B4CA011024000000EF
:2011B000FFFFFFFF541500200400000000000000000000003800000044CA01102800000017
:2011D000FFFFFFFF5C1500200400000000000000000000005400000078C901103C0000008C
:0811F0000100000070FF000087
:0411F80001000000F2
:0411FC0000000E00E1
:0412000000000F00DB
:0412040032000000B4
:0412080001000000E1
:04120C00F8130020B3
:0412100000020000D8
:0412140000000000D6
:0412180001C90110F7
:04121C0000000000CE
:0412200000000000CA
:0412240008000000BE
:0412280000002200A0
:04122C004812002044
:0412300000000000BA
:0412340000000000B6
:0412380008000000AA
:04123C00B8130020C3
:0412400000000000AA
:0412440000000000A6
:04124800080000009A
:04124C00000000009E
:04125000000000009A
:041254000000000096
:041258000000000092
:04125C00010000008D
:04126000E012002078
:041264000600000080
:041268000100000081
:04126C0078110020D5
:04127000000000007A
:041274000000000076
:041278000002000070
:04127C00000000006E
:02128000290043
:02128200010069
:02128400250043
:02128600300036
:02128800310033
:02128A002D0035
:02128C0001005F
:01128E00015E
:0812900003000000FCFE000059
:0812980000000000000000004E
:0412A0000000010049
:0412A4000000030043
:0412A80013C401105A
:0412AC0097E30000C4
:0412B000B812000070
:0412B400B81200006C
:0412B8000000000032
:0412BC00C414002036
:0412C00013E5000032
:0412C4002000000006
:0412C8005CFE0000C8
:0412CC0014FD00000D
:0412D00029C101101F
:0412D400ABDE00008D
:0412D800D7E000005B
:0412DC00A1C7011095
:0412E000A3C701108F
:0412E4000000000006
:0412E800A4FF00005F
:0412EC00F8FA00000C
:0412F00010FB0000EF
:0412F400E0FA00001C
:0212F8000200F2
:0212FA000900E9
:0212FC000100EF
:0212FE000000EE
:0113000001EB
:04130400A1E4000060
:0413080039CD0000DB
:04130C00CDDA000036
:04131000E5CF000025
:0413140071CD000097
:0413180029C10000E7
:04131C00159B00001D
:041320002BE70000B7
:0413240045B80000C8
:0413280015C70110D4
:04132C0025C70110C0
:201330002DE9F04F0F46CD4C0168E16241688068ADF11C0DE060C548A1608047C448E16A6A
:201350000160A168DFF810A34160E168DFF804938160CE49002FA346C1606FD03D68E878BC
:201370008DF80C0028798DF80D0003A80DF01CFEA86808B1C6490160E86808B1C549016026
:20139000C54C287820706878BE686070A878B268A0703178A2607368E1702E696360EA6958
:2013B00026627968E2620868E06068696062A8697B68A062286A9E68206395F8240084F8EF
:2013D00034001EB900200CF003FE00E066617868C06818B900200CF0FBFD00E0A061786880
:2013F000006918B900200CF0F3FD00E0E0617868406818B900200CF0EBFD00E02061286927
:201410002062F86881680E6806B9D24ED0494FF001084E60C66881F8018036B900200CF05A
:20143000D7FD4D462E68F86801E04D462E6000685446FB68A0615868E06107E000200CF0D3
:20145000C7FD4D462E684FF001085446361DC7493668621C04F114035020B04710B128686A
:2014700080688047DBF808008047C24E002781463B46BF4877706946206104223370384627
:201490000BF0CAFA0098B0F5801F0CD020B90CF0E9F804F0DBFF08E00AF0F6FD0CF0E4FF8D
:2014B0000420708001E00CF0DDF83846BA4EA0602B68B760986980477060AF4880F800809F
:2014D0003946418014200DF09DF8FF211422A06208F03EFFE01CFF21022208F039FF1420C5
:2014F0000DF090F8A54F386038680021142208F02FFF002000F052F940460BF0BBF9A04836
:201510000188FF2906D1022101807822001D002108F01EFF03200DF043FD04200DF03CFDE8
:2015300005200DF035FD06200DF02EFD07200AF053F9944E0820307006F124000DF020FDAD
:201550000AF0B0FA06F1360A05200A2152460CF095FC38B10020C0F10901401C0AF8011BED
:201570000A28F8DB3078102106F07AF92B68864909200DF10E025E68087001AB1020002140
:20159000B047A06AE1690A260A309DF80E20761E00F8012BF9D1891EE161DBF80C104846DB
:2015B000884704F120002B68626A059040461E69DFF8D88104F120034146B04710B128681F
:2015D00080688047B8460CF09BF95FEA000903D007F0FAFC4FF0FF39002643E002982169C8
:2015F00010F8062CA0F10C07032A03D1002939D0884737E0A16A9DF810C00A223046491E6B
:2016100011F8013F9C4506D0521E00F10100F7D14FF0FF0A01E05FFA80FA2868BAF1FF0F4B
:2016300000F108001CD038790BF02AFBB979012904D0022904BF0299887001E0029908703F
:20165000029950460CF060FB0CE0C04641490010F84400208015002040130020440F00206F
:20167000006880472868C36904A902AA0DF10F0098470028B2D0D8F800007700C35B6BB9F7
:20169000761CF6B20A2EF8DB2BE0C046C0EF00006DD50000B1E10000101200200A2E20DAED
:2016B000DBF808008047D8F80010002231F807A0CA53DBF80C108847354850F8262026702A
:2016D0005146304690470646FF202070DBF808008047D8F800107A5A16437E52DBF80C10AD
:2016F00088470CF00DF90746B9451AD007B9294FE069B84238BF071CDBF8080080478146D6
:201710002868016A206A8847626A28681F49059B521C6262C6683846B047DBF80C104846AF
:201730008847A768296860691431AFB9D8F800000A270026835B33B1096960698847296830
:20175000D8F8000014317F1E06F10206F2D107E0DC140020A7CD0000096988472968143183
:2017700009684FF0FF3088472DE7C04661DA000029E2000074150020C4110020081F002066
:20179000E00F0020840A00201A1F0020C9CC00009CFC00008EC2F528AC1E00202DE9F84F42
:2017B000DFF8BC13DFF8BC23DFF8BC5308700821002010600D23DFF8B40340F232320170E1
:2017D00043808280DFF8A8030560AC7EDFF8A4030470FF2CE97E417008BFFF292A7F827064
:2017F0006B7FC370AE7F0671ED7F457115D1FF2A08BFFF2B11D1FF2E08BFFF2D0DD1DFF83F
:2018100078130A7802704B7843708A788270CB78C3700A79027149794171DFF8601302782B
:20183000DFF85C83DFF85C93DFF85C730A70FF2543784B7082788A70C378CB7002790A7102
:201850004079487188F8005088F8015088F8025088F8035088F8045088F805500020CB49E3
:201870000880D9F83440CA49607808702278C9493A70A0780870A2681079C74A411E1170BE
:20189000E078C649C64A0870E068106008B90CF09FFB2069C34E306008B90CF099FB306827
:2018B000DFF804A301688847326852F8041F50468847BE48BE49CAF82000CAF82410606948
:2018D000BC49086008B90CF083FBA069BA49086008B90CF07DFBE069B849086008B90CF038
:2018F00077FBDFF8DCB2B74C9BF804000CF08AFE0028206075D09BF80500B34E0CF082FEE1
:20191000002830606DD09BF80600DFF8C0A20CF079FE0028CAF8000063D09BF807000CF0CA
:2019300071FEAB49002808605BD039789BF80000891C484380B20CF065FEA6490028886075
:201950004FD03878002862D0BBF80210484380B20CF058FEA04A0028506042D038780CF0FA
:2019700051FE9E49002808603BD0387840000CF049FE9B490028086033D038781821484368
:201990000CF040FE974A106058B3387840010CF039FE9549086020B3387800010CF032FE87
:2019B00092490860E8B1387800010CF02BFE90490860B0B13878302148430CF023FE8D4A43
:2019D000106070B18C483978007848430CF01AFE8A4A106028B138780CF014FE88490860B6
:2019F00018B9BDE8F14F05F02BBB4FF0000B09E00CF0E0FD0021418081600180022303715D
:201A10000BF1010B39785FFA8BF08842F0D32268694F0120107121680D73206845732168E6
:201A30008D732068C57321680D7400212068457400202268D172A0222168487103212068CD
:201A5000C28001720720226850720021206881722821206801224182C2760020216848775B
:201A70000022206880F85E200121226811770120216881F85D0001223068027131680D73BB
:201A90003068457331688D733068C57331680D7400213068457400203268D1720022316839
:201AB0004871306882724FF420703168C88008818A7401213368D974DAF800201573DAF840
:201AD00000104D73DAF800209573DAF80010CD73DAF8002015740022DAF800104D740121A8
:201AF000DAF80030DA720023DAF800201171DAF800104B71DAF80010C88008818B7205207E
:201B1000DAF800209374DAF800103E4AC874106880473968054608688047396851F8042F97
:201B300000209047D9F80C101C4B0A881878364902430A802846354A136898470C213448EA
:201B50000DF01AFA40460DF013FA0DF00DFABDE8F44F034800784FF4005105F081BE00BF9E
:201B70006E4F0020044F0020B63F0050604E0020084F00202C4E0020E81200503C4E0020ED
:201B9000344E0020A8FF00007B4F00200C4F00206D4F00206B4F0020724F00206C4F002015
:201BB000F04E0020F44E00207C4B002015E6000035E60000F84E0020FC4E0020AC1D00209F
:201BD000B8140020104F0020144F0020184F00201C4F0020B81E0020684E0020004F0020BA
:201BF000F01E0020804E0020844E0020884E00208C4E0020904E0020D9140020F41E00209A
:201C1000F81E00204C0F0020544F0020500F0020F84D00202DE9F84FD74CA178FF2904BFD8
:201C300000200CF0D5F9A0780CF0F6FB044604F1680504F190062968086810B10021E18327
:201C50000CE0A87B002804BFA97E002906D13078002801BF207F0128608CE0832189E08B97
:201C70004118491C618120460DF07AF901281EBFC2480178012904D121890020491CE083C4
:201C900061814FF6FF77A87E01280DD1AA8B618920890DF061F938B1218960894A1C93B224
:201CB00098421BD0A88B0FE03078012816D17288618920890DF050F980B1218960894A1C78
:201CD00093B298420AD0708892B2904206D03818608180B20DF03CF93F18E78304F59679B9
:201CF00099F8040020B120890021401CE183608104F12E07A87E01283ED12289A88B521C2F
:201D100092B2904238D1608104F1860120460DF01BF9A88C608400212177E183E089618938
:201D30004118A181A88B21890DF012F98046B988288C6A8C01FB0808E88C8A4204BF3989B1
:201D5000884202BFAB8CF9888B4207D000090090AB8CA179520800200DF0F2F8A87F387072
:201D7000698CB980A88CF8802046E98C39810DF0E3F80220A87601E0B7F80480B4F81EC02E
:201D900022687F4ED2F80CE00CF1010000FB08F340F6C41000FB03F18E44C2F80CE0366823
:201DB000DFF8E0E13678BEF80080774AB609032E11D1D67BF60748BF4FF000080BD408F190
:201DD00001081FFA88F6012E12BF668AB9F8066006F2DC5600E0668A5E434FF4C87AB6FB7B
:201DF000FAF6761C6661AEF80080A3614FF0180894F806A084F820C008FB0AFADFF88CC148
:201E1000DCF800E023680EF1080656F80AB0C3F810B094F806A008FB0AFACDF800A0D3F87A
:201E30000CB0D4F814A0ABEB0A0ADDF800B046F80BA094F806A008FB0AFA56F80A609E604F
:201E50000EF10C06A37908FB03F30EF10C0EF65C06F0F00646F002060EF803604FF0000A05
:201E7000DCF800E0A6790EF1020308FB06F623F806A0474BA6791B68760103F1140AD4F832
:201E900014B05AF806A00AEB4B0A03F1140B4BF806A0AD7E022D0BD1A5796D0103F1140660
:201EB00097F800B056F805A000FB0BAA46F805A0BD88D27BA779D60737D508FB07F70EF1B2
:201ED0000802D659A6F5A86A0EF1080646F807A0A77908FB07F7D2592768511A3961BA6020
:201EF00003F11402A1794901575807F5F667575003F11401A27952018958C9F800106843E1
:201F1000244A156BA779296803F11C067F01401AA0F51670F0512049A07903EB40100B7883
:201F3000012B14D10121C17214E003F114027F01D1592A464243A1F5E661A2F516729142BF
:201F5000DDD3082120460CF0F3FF012011E0916A4A78C272A179DCF8000008FB01F28118C4
:201F70002268516007200D490870204608F066FA0020BDE8F28F00BF684E0020784F0020A1
:201F9000084F0020101F00205C4D0020804E0020844E0020A8FF0000734F00206F4F00205B
:201FB0002DE9F04F09AFADF13C0D08900A92388809911E46ADF81800101C08BF002000F06B
:201FD0007581017800274FF0010B401C4FF0FF39B846DA460A9061E1252940F05681017875
:201FF000401C0A902D2918BFADF8068004D10178ADF806B0401C0A9030291CBF424643469F
:2020100004D10178401C5A465B460A902A29CDF800804D4617D1049330680A9BCDF80890E7
:20203000C01C20F00300001D306050F8044C1978002C009403F101000A9018D5ADF806A044
:202050006442009413E044460AE0600000EBC4004018A0F130040A9801780094401C0A90FE
:20207000302901DB3A29F0DBCDF8089004932E2929D10178401C2A290A9011D13168CDF8A6
:202090000880C91C21F00301091D316051F8045C002D48BF454601782B46401C0A9011E0BE
:2020B000454643460AE0680000EBC5004018A0F130050A9801782B46401C0A90302901DB25
:2020D0003A29F0DB02930AB1224604926C2904D04C2918BFADF8048004D10178ADF804A0FF
:2020F000401C0A900BA8CDF80C800FAB07906429059300F0828069297FD0BDF818C0752962
:202110006DD0782969D06F2965D070294ED063293ED0732922D00A98401E0A900998012888
:202130001AD966490C68B5F1FF3F03D0A84288BF6D1C05D86FF00041814294BF0D1C099DA6
:20215000029508A80AA932466B46A04709993F18091A0398099165E0454617E03068C01CD9
:2021700020F00300001D306050F8040CBCF1010F014608B94FA0014607910CF07FF903909D
:20219000B5F1FF3F4FD0A8424DD9039528464AE03068C01C20F00300001D306010F8040CA0
:2021B0008DF82C005D46039558463CE0082035680490E81C20F00300001D306050F8041CE4
:2021D000082210230FA808F023FC401E079040210170079823E0082302E0102300E00A230E
:2021F0003068C01C20F00300001D306050F8041CAA42BCBF2A1C04920DE03068C01C20F07F
:202210000300001D306050F8041CAA42BCBF2A1C04926FF009030FA808F0FAFB079005990F
:20223000081A0390009C241ABDF8065000945DB906E008A8202109AA0BF056FA7F1C009C3E
:20225000641E0094F5D50398401EB0F1FF3F03900FD1BDF8060001281CD10098401E0090EC
:2022700018D408A8202109AA0BF03EFA00987F1CF4E70798017809AA08A80BF035FA079839
:20229000401C079003987F1CDEE708A809AA0BF02BFA7F1C0A980178401C0A9000297FF475
:2022B0009BAE089808B14146017038460FB0BDE8F08FC046286E756C6C2900C07CFF0000C6
:2022D000BB482DE9F84F0025BA4CB849056094F8E200002800F06581012800F02F81B64EC4
:2022F00002283CD0032840F05C8151F8250CD4F8B8100029A0F5C060C4F8D400B8BF4942E2
:202310000028B8BF4042814226DA4FF08057D7F8A4014568B4F8BC0030214FF47F420823AA
:2023300000903046A847D7F8A4014568B4F8C00004214FF4F802122300903046A847D7F8B0
:20235000A401B4F8D070456820214FF440620A2330460097A847012584F8D8501CE151F8D0
:20237000258C0CF0E7F92F4600B901273946934F38680028FCD0B146012609F10409D9F87F
:202390002CA03E6009B10CF0DBF9CAF30720C4F8BC000CF0CFF9AA4600B9B2463B68002BAA
:2023B000FCD0D9F800B0BAF1000F3E6001D00CF0C7F9CBF38440C4F8C0000CF0BBF9AA463D
:2023D00000B9B2463B68002BFCD0D9F81C90BAF1000F3E6001D00CF0B3F9C9F38120C4F83B
:2023F000D000B8F5C061C4F8B81000F09C8094F8D80068B9C4F8D410D4F8C000C4F8C8006A
:20241000D4F8BC70C4F8C470D4F8D030C4F8CC30D4F8D400D4F8BC30002854BF02226FF02A
:20243000010204F1C8010F6800EB40008018421000EB927207EBA2000860D4F8C810C4F8F4
:20245000C43000291CDD1E293CDDD4F8CC0030B93429B4BF15391E21C4F8C81025E02A292C
:20247000BABFD4F8C8000B381E20C4F8C800D4F8C4003F28B4BF401C3F20C4F8C4001FE096
:20249000D4F8CC00032812D011F10B0FC6BFD4F8C8000B30301CC4F8C800D4F8C40000288F
:2024B000C4BF401E051CC4F8C450032508E011F1150FC6BFD4F8C8001530301CC4F8C800D6
:2024D000C4F8CC504FF08057D7F8A401B4F8C43030214FF47F424568374800930823A847BC
:2024F000D7F8A40104214FF400321123456832480096A847B4F8C860D7F8A40104214FF42E
:20251000F802122345682C480096A847D7F8A40120214FF440620A23B4F8CC60456826481C
:202530000096A84701E084F8D85040F2FF50404502D8801C40452FD2082030E051F8251CBD
:202550001F4F4BF2F5204843060A3868C0F3814001280CD11B480068006880470AF0F4F816
:202570000CF0F4F83111C010484306EBE03694F8E50030B91448006820F07F403618760806
:2025900001E084F8E5501148310C0660012741600F4D8760287808B90B2000E0052084F884
:2025B000E40003F0F9F8BDE8F88FC0462D400C402C500C40300E002000A00C4000800C407A
:2025D000B43F0050EC010010102009403C600C402DFE00002DE9F84FB34D696884B001912B
:2025F00021B905B0BDE8F04F0CF09EBC0978DFF8BC82AF4EDFF8BC92DFF8BCA201291CBF10
:202610000229042946F2A81741F64C5B05D0402918BF802900F096803CE10CF0C7F80028B9
:20263000FAD00198007804F073F90090446814B900200BF0CDFC9AF8010000285CD000F08B
:202650008DFF0BF0E9FE02900168009801914F6808F090FB022825D000990A78012ADBD18C
:2026700096490A68137A19F80310317018B90CF057FC5844A0602069C17E01F0EF01C1760B
:202690002069C17E41F08001C1762069C17E01F0F00141F00201C1762269B968884841188F
:2026B000D1614BE001980178802911D10820854930700A78012A03D09AF80100022801DB61
:2026D00038690CE0D8F828003A690178D1720DE07C49072030700A783869012A02D101214A
:2026F000C17203E0D8F828104A78C2720298817901988AF80210C8E0009800288CD0019997
:20271000009A0078914205D101281CBF00200BF05FFC15E0012840F0BD80684801680A7A4C
:2027300019F8020030700CF0FBFB3918A0680CF0F3FB18B90CF0F4FB5844A0600120A87010
:202750000098A2E09AF8010000287AD000F006FF0BF062FE04462068029047689AF8020053
:202770000BF05AFE03900CF027F810F0070F3DD0A87804F0CDF8019041680198009102994D
:2027900008F0F8FA022831D001990A78012A2AD14A490A68137A19F80310317028B90CF09E
:2027B000BFFB83440098C0F808B000980069C17E01F0EF01C17600980069C17E41F0800136
:2027D000C17600980069C17E01F0F00141F00201C176009AB9683A4841181069C1610121D2
:2027F0000198A97051E000200BF0F2FB0398A04225D0029833490278802A12D10820307087
:202810000978012903D09AF80100022803DB38690121C17210E0D8F828003A690178D17252
:202830000AE0072030700978386901290EBF0122D8F828104A78C272A0798AF80200029866
:2028500023E00BF0B9FF10F0070F29D0A87804F05FF804462078D4F80480012820D117498C
:202870000868027A19F8021031700CF059FB3918D8F808000CF050FB20B90CF051FB58441B
:20289000C8F808000120A870204605B0BDE8F04F05F038BC05B0BDE8F04F00200BF098BB38
:2028B00005B0BDE8F08F00BFB81E0020A8FF00006F4F0020289A0110684E0020104F0020CD
:2028D000F0D8FFFF734F00202DE9F84FDFF8CCB20F460546F80B80F01281AA4EDFF89C82FB
:2028F000B80F80F0C480B80880F0B8803809C0F03981A0480178090980F0AB80007830F094
:202910007F0040F0A680684606F06EFA012803D10098002800F09D8097480078002840F04D
:20293000988001240025E8B20BF06CFD48B1837A3BB1847290F9090004FA00F0C0B20AF063
:20295000DBF86D1C032DEED345464FF0030A05F1AC0085F810A00BF0EEFFDFF830920023D0
:2029700009F11401984608680B6051F8080C41F8088C83491A4605F134000BF0E8FF306885
:20299000006B8047AA68A969801A000BC0F1FF328A422CBF01444FF0FF31A961287F20B15D
:2029B000E868A969B1EBC02F25D90BF01DF9414600B12146E1B1744840F6090101804346D4
:2029D0004380417B04F00F0221F00F010A434273017B03F00F0621F00F0146EA01020273F3
:2029F00043604E46F3613060418811F4406FFBD02C774346AB616649086820F0020040F4C7
:202A100000700860634A42F804AC41F23006966014605023936014604FF4CA6696601460AD
:202A3000022042F80C4C44460C600AF0CFF9112005F0ACFA287818B9686838300BF093FF18
:202A5000687F18B16C7705200AF0C0F9524868612C7408F0EDF827F0080783E004F068FB3B
:202A700040467430006808B927F002077AE00BF068FF34468146606D006801460420884767
:202A9000C8B1287CB8B14046083006689EB12068EC68006B8047801BE860010BE960A142FC
:202AB00002D209194908E96040F6C41088422CBFB1F5FA7FE86048460CF02AFA0AF000F8B0
:202AD00090B1A8696FF4807100224FF0007304462846A04740466C300068002808BF47F01D
:202AF000020701D008F0A4F8686900214FF0806304460A462846A04727F0005732E00BF0DA
:202B100020FF59460E684EB306F1280106C90A234FF0E0450B40154008BF002B1ED106F178
:202B3000280191E8300006F1280393E8060006F12803AA43A14383E806000CF0E9F9B168B5
:202B500071B1002D08BF002C0AD03069B6F93C10B2682B4616462246B04701E00CF0D8F9C1
:202B700027F4804727B15846394650300BF003FFBDE8F88F121F002031170020981500203F
:202B9000FDB100008C010010741E002000100440000004600C410440897C0000181600208C
:202BB0002DE9FC41A0F2013714468846022F40F233819B4E9C493F1F0F2F04D9143F4BD0F4
:202BD000BF1E1CD011E0DFE817F0CF00C9000E01FB00C100B9002701AF00A70010001000A3
:202BF0009D008F007F00740065002A2880F21481B8F1020F40F010818849238808E1B8F15F
:202C1000010F40F00981F078012800F00581324620781179107181B9002800F0FD80507821
:202C3000012800F0B580042800F0B280062800F0AF80052840F0F080AAE02078002840F054
:202C5000EB805078032800F0B180072800F0AE80052840F0E180A9E0B8F1010F40F0DC800C
:202C70002078012840F0D88006F1EC000BF095FE002840F0D1803446002004F13A0105F022
:202C900069FC002840F0C88004F1C800FDF7DEFFBDE8FC81B8F1020F40F0BE8020880A286D
:202CB000C0F2BA80B0F5486F00F3B6800E46B61C17E0B8F1020F40F0AF802088B0F5FA7F97
:202CD00080F2AA800E460CE0B8F1020F40F0A48020880628C0F2A080B0F5486F00F39C80E7
:202CF0003E363080BDE8FC81B8F1020F40F0948020880628C0F29080B0F5486F00F38C808D
:202D10003C36EEE7B8F1010F40F086802078062880F28280454E0EE0B8F1010F7CD1207814
:202D3000042879DA0A3606E0B8F1010F74D12078082871DA09363070BDE8FC81B8F1010F13
:202D50006AD12078042867DA0836F4E7B8F1010F62D1207804285FDCF61DECE7B8F1020F7F
:202D70005AD120880E36BCE7B8F1010F54D13079012851D032462078D178D07071B90028CD
:202D90004AD05078012803D0042818BF052843D190690121FDF75EFFBDE8FC8120780028B3
:202DB0003AD15078022818BF052835D110780AF051FB1C490246102000F0A8FABDE8FC819D
:202DD00006F1830500211F22284607F0C1FA21464246284606F0E6F944463078B4710AF05F
:202DF00039FB002311E006F1640500211F22284607F0AEFA21464246284606F0D3F9444603
:202E1000307874710AF026FB01230094084901950246102000F07AFABDE8FC81E1CE0000AE
:202E30007005002099450110B0050020AA050020094501102DE9F04F8246DAF80070DAF8CA
:202E500004600C465FEA0208ADF11C0D14BF00214FF0FF31DFF8409248460BF040FB00289A
:202E700018BF0B2040F0158100258F488C4905708A48FC6052460BF06AFD317B27200BF01E
:202E900068FDB8F1010F07D0657002200AF068F906200AF065F901E00120607020780128CA
:202EB00040F2AA80801E012868D9801E012833D9801E012800F2DE800BF043FD83464FF071
:202ED000805000F5EE77D0F8DC01A378466A009321782846062908BF012001900120029053
:202EF000A068228AE1686368B047814658460CF00FF8B9F1000F40F0BF80B8F1000F02D0E9
:202F10000BF072F902E0504609F0FCFF002800F0A3803868806A2AE00BF013FD83464FF0ED
:202F3000805000F5EE77D0F8DC01012306680093A168A27860682478AC46042C08BF9C463B
:202F50006346B047814658460BF0E2FFB9F1000F40F09280B8F1000F02D00BF045F902E0E0
:202F7000504609F0CFFF002876D03868406880474C49C1F8B0510D6081467DE00BF0E1FCAF
:202F900083464FF0805000F5EE77D0F8DC01E38A86690093E0680190208B0290A07803909A
:202FB000207D04900121059122782846022A08BF081CE1786268A368B047814658460BF074
:202FD000A7FFB9F1000F57D1B8F1000F02D00BF00BF902E0504609F095FF00283CD03868F8
:202FF000006A80475FEA000946D1E078A168E28A236906F029FFBFE70BF0A3FC83464FF068
:20301000805000F5EE76D0F8DC01E38AC7680093E0680190208B0290A0780390207D2946D6
:20303000049001200590257805B9014608466268A368E178B847814658460BF069FFB9F1A7
:20305000000F19D1B8F1000F02D00BF0CDF802E0504609F057FF08B914201AE03068406926
:2030700080475FEA000907D1306802692169E078904781E74FF0FF39B8F1010F05D0022004
:2030900009F0A4FE062009F0A1FE03480BF06BFC484607B0BDE8F08FD01000200811002078
:2030B000D1D7000050450240181F0020FEB5954E954F144602460025A2F58062182A1AD83C
:2030D000DFE812F01601100109010101FA00F400ED00E8001900CC00C500BE00B500AA0059
:2030F0001900190080006F00680054004C00420039002C0024002A2880F28C80022940F0A1
:203110008980218809F0E4FE0546F9E0012940F0F680002C00F0F3801136BEE0102940F041
:20313000EE80002C00F0EB8030465030102221460BF08AF8E4E0012940F0E180002C00F0E3
:20315000DE8031468E1DA8E0262940F0D880002C00F0D58006F160002622E8E7012940F047
:20317000CE80002C00F0CB80761D96E0602900D13CB9012940F0C380002C00F0C0800D36F6
:203190008BE006F18600214660220BF05DF801207073B5E0012940F0B28020780BF0B4FE94
:2031B000AEE0012940F0AB802078022800F3A7800C3630702078022814BF281C01200BF039
:2031D0009FFE9DE0072940F09A80611C684606220AF028FF207869462A4605F015FA0446D2
:2031F0000A2C17DA0BF088FE70B9204603F0C8F93C462078002847D16088C0F5805080B2DB
:20321000B0F54D7F40DA3AE03246012002F12C06305575E0022573E0012970D1B07B2178B8
:203230000028B1736CD1207801282DD068E0012965D12478072C62DB102C60DC0B3648E0A2
:2032500001295CD124780A2C59DA093641E0012955D12478022C52DA08363AE000294ED1BC
:203270000BF04AFE98B90BF083F83C46207858B96088C0F5805080B2B0F54D7F04DA0BF020
:20329000D9F9657003F0E2F808F00CFC38E001240F361EE0012932D10A36247819E00129FE
:2032B0002DD12478022C2ADAF61D12E0102926D1334603F1400039E7012920D12478022C4B
:2032D0001DDA361D05E0012919D12478042C16DCF61C347014E0012911D12478022C0EDA75
:2032F000B61CF6E702290AD120881436308007E0012904D12478022CD8BF761CE9DD18258B
:203310002846FEBD840A0020741500200FB42DE9F04F09AF8046ADF1240D0BF089FA391DE4
:2033300030F0010021F0030101F1040100F0078104911420ADF80C0000260196FF258DF8F8
:203350000E507C6805940BF0D3FD05460BF070FADFF8FC917D4E30F0010008BFFF2522D0DA
:203370000BF0C2FD07460BF0BBFD06EA0403BAB2494680B21204140C06221C4360F31F44EC
:20339000002031F80C7F57B14B681B689D4204D0521E00F10100F4D101E0C5B200E0FF25D5
:2033B00020460AF098FF404608F0C8FC0146FF2904D02846032204AB06F034FC0BF098FD89
:2033D00007F05EFB8046002000900BF031FA30F0010000F0B380B8F1000F00F0AF805D4D2C
:2033F0005D482A68002700213B4606F08BF982460BF072FD83462A68574800213B4606F07F
:2034100081F90127D344054600980797B14606900BE0069810B10C3807F0ACFF04980068A1
:203430008EE0FEE7014677E00546D8F8040000214FF000522B46FDF73DF9002856D00BF0D6
:2034500057FD07F01DFB061C44D00BF04DFD82460BF046FDB76809EA04021FFA8AF180B29A
:2034700009040C0C002F44EA020460F31F4408BF002708D057F80C1CB160002047F80C0C39
:20349000FF2307F8023C20460AF025FF381C21D010F8081C062913DA2D4A084681000C3228
:2034B00001EBC001565A5EB14FF6F870B04207D03A460BF0A5F918B106920020079015E0F4
:2034D0006846394607F02EFED8F804004FF00051FDF7C0FBB5F1FF3FA7D0002DA5D00BF081
:2034F000FBFCBBEB000001D085429DD20AF0F2FC009F0BF0F9FC82460BF0F2FC08F10806E9
:2035100049461FFA8AF280B221401204120C0A4360F31F4247B1394651F80C0C002881D15D
:20353000306841F80C0C376010460AF0D4FE079801283FF476AF00283FF46BAFFEE7FEE77A
:2035500009B0BDE8F04F04B07047C0460000FFFF8C0F00206CFF0000404B4C002DE9FE4FEF
:203570008A4C617811B900200AF032FD0BF0D8FC06464FF0000806F6C4160027844DDFF872
:20359000149211E038460AF047FF417951B12A68817902F8081008F101015FFA81F8314628
:2035B0000BF096FC7F1CFFB299F800008742E9DB6178884505D000200AF00AFD82200BF0CB
:2035D00083FC6078012840F0C380002701E07F1CFFB299F80000874280F2B48038460AF01C
:2035F0001BFF064670790028F1D02968B0790A7890421CBF00200AF0EBFCB079A0E0286860
:2036100010F809000AF008FF00684268DAF808109068814204BF3E4609F1010900F0A68070
:20363000A8E0286890F800B001224FF4C0710FE0636803F5AD76835C01FB03F901FB0BFEE2
:2036500036F809C036F80E60B44538BF9B46521CFBB29A42ECDB4FF6FF700BF031FC064610
:2036700058460AF0D9FE4C490068D0F804A00868D94630F8192060684FF4C07300F10E0134
:2036900003FB09F3C85AB2EBD00F52D2720840F6C410424300920027404A0190029217E0F6
:2036B00058460AF0B9FE01680A78802A03D1DAF81030009A5A610978402908D10299807984
:2036D0000A6802EB4011009800F5A060C8617F1C47452EDA2868C05D8345F8D001464FF47E
:2036F000C073594363685A1803F5AD73D289595A53088B4202D2521A9045E8DA0AF08CFE05
:2037100001684A68019B9168DAF808207008A1F6C41103FB00200BF0FFFB0028C0D01E48DA
:20373000006830F81910491C20F81910286810F807B01948026800215B4622F81310584663
:20375000BDE8FE8F00200AF043FC82200BF0BCFB617828680BF0B0FB286800780AF05CFE0F
:2037700000260068D0F804A04FF00109771CC145FFF645AFF6B2002E1CBFF8B200287FF47E
:2037900050AF286890F800B065E700BF684E0020004F00207B4F0020F01E0020844E0020F8
:2037B0002DE9F04385B011F8017B0446082F04F1FD0004F1FC0804F1760504F5A076844A3D
:2037D000844BDFF8149213D0092F21D00F2F2FD0112F01BF287801286878102840F0D580DE
:2037F0000A78327648787076012184F83D11EBE00025521C4E5D5F5D3E434E55575D3E40E2
:2038100046556D1C082DF5DB204607F07DFA74E00024571C0D5D1E5D35430D553A5D154005
:203830000555641C082CF5DB022088F80000CBE098F80100820704D410F0110F57D01A22D8
:2038500066E008784A7800EB02203080CA78887800EB022070804A79087900EB0220B08053
:20387000CA79887900EB0220F080087A30724A7A887A02EB00227281C87A0A7B00EB0220B7
:20389000B0818A7B487B00EB0220F0810A7CC87B00EB022030828A7C487C00EB0220708250
:2038B0000A7DC87C00EB0220B082487D897D00EB0120F082494801788A0658BF1A2212D5D1
:2038D00004F5A670049071890391307A029021890191F0880090B38872883188204606F0DD
:2038F0000DFFE0B11E2298F80100410710D40F2088F8150020460BF0DBFA002864D199F836
:20391000000005B0BDE8F0434FF4804103F0A8BF204605B0BDE8F0430F210BF0C5BA708817
:20393000A882B188E9820221F0882883297400206882A18EA88AC91DE981618EB0EB510F21
:2039500002BFE88AA18E884202BF288BE18EB0EB111F18D02878012804BF68780F2805D01D
:20397000687918B10F21A972FE2127E0FC2120460BF096FAF0880090B38872883188A079FF
:203990000BF08AFA20E0102118E0491E20460BF07FFA032F18D1A878042818BF0D2813D1D7
:2039B0006E78142E18BF0E2E0ED12F7820460BF06BFA012F06BFAE72FD213146204605B0AB
:2039D000BDE8F0430BF06CBA05B0BDE8F08300BFEC4D0020E01E00206E4F0020144E00207C
:2039F00010B50B7884074CBF43F0020303F0FD0304064CBF43F0800303F07F0304074CBF58
:203A100043F0080303F0F70384064CBF43F0200303F0DF0310F0AA0F0B7003D0107840F0EC
:203A30000C0003E018B9107800F0F300107010BD2DE9F8430D4600272878022814461E46AB
:203A500067D1696808784978DDF8208000EB012080B25FEA08021CBFB0F5285F0B205BD1A8
:203A70004FF42851401A08D0401E21D0401E2FD0401E25D0401E31D04BE0DDF82490E868E6
:203A90000AF087FF80B2A0EB08024A45BCBFA0EB08001FFA80F909EB0800162806DAA6F8E8
:203AB00000904A46E86800EB08010DE00D2732E0E8680088022131802070000A60702AE03F
:203AD000062030800622E96820460AF0BDFB22E001203080E9680A7822701CE0E868B0B18A
:203AF000082131800288227003881B0A63704188A1704288120AE270818821718288120A6A
:203B10006271C188A171C088000AE07103E0308001E0378001273846BDE8F2832DE9F0478C
:203B30000F46814638780024022890461D466DD17868089E01784078DFF8D8A001EB0021D1
:203B500089B24FF42852891A06D0491E29D0491E4ED0491E39D059E0F8680AF01AFF80B2B1
:203B7000B04204D3A919162903DB0D244FE007244DE0FB682A46414698190AF065FBAD19AA
:203B9000F868ADB2C5F11602002140190AF0FFFEDAF8000000281CBF0268002A37D0002186
:203BB00023E08EBB022DE0D198F8000098F80110FA6800EB01201080DAF8000000281CBFC5
:203BD0000268002A23D001210FE0EEB9062DCCD1F868062241460AF037FBDAF80000002891
:203BF0001CBF0268002A12D00321484690470EE056B9012DB9D198F80000002813BF012873
:203C1000F9680870802402E00B2400E001242046BDE8F087001F0020FEB57748774A007895
:203C3000774C784B78490D2840D8DFE800F0E307070707DBDB5EDB9A9AB8B8BF146041F231
:203C5000044572494C88AC421FBF4E8BAE424F8EAF4203D11D806E4810607AE0002C6D4D42
:203C70001C804FF4A05639D0641E3CD0641E35D040F2FE37E41B1AD0241F012C1DD94FF448
:203C90007F77E41B1BD04FF44067E41B0FD0A41E012C0CD9241F0AD0641E012C0DD940F2B4
:203CB000F937E41B012C19D9241F08D09AE0022814BF1E80584D15604BE0584DFBE758480A
:203CD00003681C7A012C05D141F20240488048834886F0E74E804E834E86ECE700200AF0C3
:203CF00077F9832082E08F2080E04E488178FF2954D0146018204C4C41432068851C40F232
:203D100004466C5A1C80A41B012C484B72D94FF47F76A41B0FD04FF44066A41B032C84BF2D
:203D3000641F012C0BD9A41E012C63D940F2FD36A41B08D103E0801C41F2014444521360B7
:203D500003F0CAFB05E000200AF042F985200BF0BBF803B0BDE8F04035480078012103F07C
:203D70007FBD40F204424888188090421CBF41F2084290423ED041F60402904211D12D4CA3
:203D90002D482E4B00680025CDE9004502222C4C256855F8086FB0472A490880F7BD48883A
:203DB000188000200AF014F985201FE04888188002280DD940F20442801A1BD040F6FC7277
:203DD000801A05D0083815D04FF47F72801AE8D1887B801CC2B2B52AA8BF662088730020BE
:203DF0004880F7BD00200AF0F3F88420BDE8FE400BF06AB8F7BD00BF6F4F0020204F0020AE
:203E100017E90000504F0020CC4C0020204A002059550110615A0110B1540110755B01108F
:203E3000104F0020684E0020804E0020313901106E4F002002000080EC4E002079CE0000B4
:203E5000F04E0020424F00202DE9FE4F05467B48002400680094C00905D37948007810B90F
:203E7000202009F083F8012D40F0E280DFF80092D9F8DC00012840F0D8800220C9F8DC0038
:203E90000AF03AF9012009F071F85FEA000805D00120C9F8DC000AF03BF9CBE00AF067FD47
:203EB000A34602906748684DC0F800B0A86A016801208847012804D1584606F091FF0120FD
:203ED00000906248624FC0F800B0386811200AF049FC00B1012410200AF044FC08B144F042
:203EF00002040F200AF03EFC08B144F004040B200AF038FC20B12868564E016B3088884703
:203F10000A200AF02FFC20B12868534E016B308888475248012606602868816944F0200058
:203F300088474F4806600AF017FC00F001010191400814D2286A81684A4888478246BAF197
:203F5000040FF7D0BAF1010F04D1286A42684548032190474449086820F00300086058460D
:203F700000F088F82B683868986B8047019801280CD0BAF1010F04D1286A42683948314662
:203F900090473949086840F0030008602F48066028684169204688470B200AF0E3FB20B18D
:203FB00028682C4BC16A188888470A200AF0DAFB20B12868284BC16A188888472748066014
:203FD0000322C9F8DC20264BC3F800B02868416B204688470128F9D13868042008F0C6FF2E
:203FF0000446184806603868144800688009FBD30098012802D1304606F0F2FE0AF0A0FB61
:20401000082008F0B3FF07460298C9F8DC600AF037FF1648008806F01BFC0AF079F857EA0B
:20403000040018BF4FF0FF3804E06FF0040801E06FF001084046BDE8FE8FC046141009405C
:20405000180F00200C400940B8010010000222432C200940C2FA0000BEFA0000282008608B
:2040700080010443004003402422084028FE0000300E00202DE9F84FDFF804B20746ABF100
:204090003500DFF8F0810068800880F0E28075480068006880477E490831D1F800900025FF
:2040B0004FEA29715FEA995201F101010AD2C0F13E0210F10A0F4FEAE202D8BF082291425D
:2040D000B8BF111C684BD3F87C21C2F30462162AA8BF203A1B68C3F30443162BA8BF203B72
:2040F0009A465218162A05DA12F10A0FB8BF6FF0090200E015225D4B5D4E02F01F0141F499
:20411000F8511980316811F0030F18BF0125C90828BF45F002050FB145F00405434693F9FD
:204130000710411A052904DA9979A94208BF99886FD0DFF844E10F28A0F10F0829DB08EBFB
:204150000011A1F1F0084FEA28210091072984BF07210091062988BF06215EF821600424D9
:20417000774604EB81043C594FEA950CA41BEE0804F0FF0124BFC4F3072631446F08AE087D
:2041900024BFC4F3074631446E0828BF01EB146104E000214FEA950C6F080091009C5EF81C
:2041B00024E05FEA5C060EF0FF0424BFCEF3072634447E0824BFCEF3074634446E0828BFAA
:2041D00004EB1E64009E89B2A8EB06267143803104EB1124AAEB02010029D8BF012134226D
:2041F00009F0FF074A4391B24FF6FF727943B1FBF4F18A4238BF111C802889B2998005DA12
:2042100010F1800FB8BF6FF07F0000E07F20D8719D711A4800681F2918604FF0000008D32F
:2042300040F2FF128A4206D24908401C8A42FBD301E01F219980134F0F39090940EAC1005F
:2042500047EA0001CBF8FB1F0026CBF8FF6FBDE8F88F0D490D4F434608200F609B1D1870AA
:20427000BDE8F88FEC0100103C1100506E62084024220840E81E00209C130050082009402C
:204290003500094000E7A48030100940FDFDA400AC3F00502DE9F04F0646880FADF1140D2C
:2042B000C0F0EF80784F381D006841688D68CC68486800B18047B946754F002D08BF002C6E
:2042D0000DD038461C300368002BFCD00021016005B1A84704B1A0476C4809F099FA3C4640
:2042F00000256C49E5616C48216040F60A0CA0F800C04580017B05F00F0221F00F010A4300
:204310000273AA46C0F804A0417B4FF0010B0BF00F0721F00F0147EA01024273B268737CA1
:20433000558011888646A1F60201C9B141F21E07C91B15D041F6E677C91B012920D8507E96
:20435000012B65F38200507606D0108B20F47C7040F43470108313E0108B65F30910F9E7C6
:20437000507C012B65F38200507405D0108A20F47C7040F4347002E0108A65F309101082D1
:20439000D6F8088075746046474600E01F467B6813B119888842F9D1C7F804E0797B05F0EE
:2043B0000F0221F00F010A437A73D9F86C303BB1D9680988C21F8A4229D0801F884226D051
:2043D000338C33B3C6F824A006F12002558096F82C0005F00F0120F00F00014386F82C10DC
:2043F00096F82D000BF00F0320F00F0043EA000186F82D10CEF804209EF80D0005F00F0349
:2044100020F00F0043EA00018EF80D1001E0C9F808502248036882680192C168406B0093E9
:20443000102220F0784040F0805003901C480291694604F0B7FEE0690028FCD01948C9F831
:20445000140099F81D00E56190B9174800680068014658468847012810D0787B0BF00F0111
:2044700020F00F0001437973104EC9F8146005E008F04CF80028FBD00AF071FAE561C4F8CF
:20449000008005B0BDE8F08F98150020010007060010044001010E04741E00204C1300500F
:2044B00018000021D9280000E001001045B400002DE9F04F044675488A46016894461F46F4
:2044D000BAF1000FADF13C0D4DD0BCF1000F4AD09AF8002001209040014244D0BCF800008A
:2044F000B0F5C15F32D1DCF81430DCF818206848DCF81C104FF0030E0DF128080B93DFF81D
:2045100094B10C9200680D91C0F3036958F8046FCEB10021351F05200B4655F8042FB2F133
:20453000FF3F10D0934506D0401E01F1040103F10103F2D107E0052B05DA705820F470202D
:2045500040EA09407050BEF1010EDFD1C4F804A0C4F808C00AF0F5F94F4D8046287820B10B
:2045700040460AF0D5FC00208DE002F03BF94B49086840F00200086007A80AF00BF80026B7
:2045900005F1D00007AA4649099608F019F9454905F5827007AA08F013F907A809F0CAFFBC
:2045B000FF2105F1340007AB3F4A0891192108F08DF83E4A05F150001A2107AB08F086F8E5
:2045D0003B49324605F18800134607F017FB3949324605F1AC00134607F010FB364A05F182
:2045F00020000421334609F027F90E2003F058FF05F1740009F0E8FE05F16C0009F0E4FED6
:204610002E74072085F898012E77AE616E770523AE602B49EB602A786961501C2870274B3B
:204630001E7040460AF074FCB1464FB92548B0E88C106946A1E88C100DC86F4681E80D0078
:2046500038682060398A6182012060747B6813B940F6C4130646E3601B48A0612674606185
:20467000F86800B1A061B86800B160615822494604F1200005F06CFE04F13800494608F055
:2046900041FF20466C600FB0BDE8F08FD4210840541300500200F84498150020002009404D
:2046B00051E10000BD7B0000FDB10000FDAF0000D9DB000039DF00008DBE0000121F0020BE
:2046D000897C0000C8FD0000AB9700002DE9F0430446834DA178A869ADF1140D891F00F0DA
:2046F000F780C91E00F0E280491E5FD0491E48D0C91E3CD0481E40F0EE80287A697AB8B9F8
:204710006878002831D0A0880AF0B6FB071C00F0E280A07A40080FD3787968B1E168890A0E
:204730000AD2B91D01AA03F06FFF0A2804D10321A0880AF09DFBCEE0287B022802D1A07A5E
:204750000009F4D3A088797904F1080201F0ECF8A869002800F0BF804368002B00F0BB8022
:2047700000210A46A0889847B5E00521E0E7002800F0B1804368002B00F0AD8062780221F6
:20479000F0E709F02FFF002800F0A580A86950B1076847B1206900906189227B637BE01CDB
:2047B0003C46A04797E060890121C2E767784FF00008002F6BD1A179490868D3EF69002F97
:2047D00065D101A841460E2205F0C2FDA0880AF053FB071C7FD0606940B97879B91D0622EC
:2047F0008DF80A0001A809F02FFD1EE06669307C062301A906F111098DF80A0006F1110058
:2048100010F8012B5B1E01F8012BF9D107F10C00B91D062209F018FDB81D4946062209F057
:2048300013FD307C40F002007871A079C00839BF387900F0FD00387940F002003871A07975
:20485000000939BF387900F0DF00387940F020003871A1799DF81120C1F3800010438DF831
:204870001100080905D39DF8110040F008008DF8110001A8214600F02FFB28B928780221EC
:2048900002F0EEFF404627E0A8694FF0150810B3436803B3A088627801219847B8F1000F50
:2048B00019D0A8694368032142465BE7E078211D002203F0A9FE0A280DDA410001EB80003D
:2048D00004F10C0225300421C0B202F04BFA02E0A08805F04DFF012005B0BDE8F083C04663
:2048F000840A00202DE9F04F05468048066800680F461C469246C4F399018900ADF12C0D7C
:204910000A010021803205F023FDDFF8C891A9F1880002466E48016830469047A30880461D
:20493000610801979F1C21F00101F819009506EB80000390091DCDF808A07818434506EB52
:20495000800206EB870B3844049206EB80000690C4F39C004FEA800000F1080007EB4000F2
:2049700000EB070206EB82020A9224F0030202F1080200EB020506EB85053A44059506EB96
:2049900082050A4407953A4406EB8202089206EB80020992084406EB800A384406EB800542
:2049B00018BF6FF0010040F08F8009F16800024641463046904700233CB10199264611F8D4
:2049D000010B761E40EA0303F9D1002B08BF01207AD000263CB10299234611F8010B5B1E2B
:2049F00040EA0606F9D1002E08BF02206CD001995846C84703980299C847009881680498AB
:204A1000C8473548049A594681462846C847012803D14FEA88042E590EB1032054E0BE005C
:204A300028460021324605F093FC0399049A2846C847012801D12F590FB1042044E0274F23
:204A5000274C069859463A46A047079803993A46A0470699089827460A46B8470998089950
:204A7000069AB8470A9806991E4C2246B84728460021282205F06CFC1B4809990A9A8146CF
:204A90002846C8472034284622460146C847079950460A46B84705980021324605F058FC05
:204AB0005FFA88F45046002C0CBF01225FFA88F200216B5C445CA34218BF052004D1491CEB
:204AD000521EC9B2F5D100200BB0BDE8F08FC0468C4F0020B9DB0010C9DE00107413002013
:204AF000F9E00010B4FB0000C9E60010884F00202DE9FE4F0E468246307AC10693461F462A
:204B10004FF000090CD558460AF0AEF9030000F0E8800A223146504698475FEA00094DD13A
:204B300030780C9D0D9CDDF8388002281AD170680178407801EB002189B24FF42052891A20
:204B5000012910D9891E3AD0491E14D0FD397AD0491E00F08180491E6DD0491E73D0491EA9
:204B700000F09580ABE0002C2AD1F068017829800278416887E0002C22D101202880F16829
:204B90000A783A7000217089401C80B20AF068F9298860B10278921C511829804189797027
:204BB0004289120ABA7041680278F81C6CE0091D298004220021781C09F0E9FE93E0002C28
:204BD00066D1F0680688042129803E70320A7A700DF1020130460AF043F9040021D0D4F898
:204BF0000C80BDF802204FF6FF766B4631460AF033F940B9237862683C4802210AF028F91A
:204C100008B9ADF8006098F8000002280BD1D8F804100222381D09F017FB2888801C2880CC
:204C300001E0ADF80060BDF80000B870BDF80010090AF97057E0002C2AD1F06801685046AB
:204C500009F070FC02E01CBBF0680088022129803870000A787046E0F06809F09AFE80B29F
:204C7000A042B8BF4FF007093DDB844208BF002205D008EB04028242B4BF4246021B2A8061
:204C900092B2F0680119384609F0DEFA2BE014B14FF00B0927E0F0680721298002783A7088
:204CB00043787B704188B9704288120AFA7001793971C2887A71C088000AB87113E0584697
:204CD0000AF0C2F85FEA00090BD00F980290CDF8048000942B463A4631465046C8478146F9
:204CF00001E04FF00E094846BDE8FE8FFCFB00002DE9F04FADF1140D071C8B4602930E9D6E
:204D100001920F9C039500F0CB80BBF1000F00F0C780101C00F0C480181C00F0C180281C77
:204D300000F0BE80002C00F0C080206A002800F0B780614D666A281D0068002E00F0B08087
:204D5000A16A0AF07DF840B2061C08BF6FF0020700F0A28020786288216A84F82C6000EB74
:204D700080001218143290B288475249086030B9284640680AF060F84FF0FF378CE0A068E5
:204D90004E4AE6684E4D106023692E608A464D4866694D4A0360A56916604C4BE6694C4ACA
:204DB0001D6021781660207825794A4E6388DAF800203570668801EB410106EB020C03EBFE
:204DD0004005AD18CE1805F10808C5180918AD1805F10409C51CAD10D5502078C01C801040
:204DF000C9F800002078C01C8010C8F800002078B6180C36C01C801030602078C918891860
:204E100001F11005C01C801028602278CDF810C039466346181D04F0C5F92278594609F116
:204E3000040004F0BFF92278019908F1040004F0B9F92378204649464246FFF753FD071C5A
:204E500013D10095049849464246334609F0F0FF804622780298311D04F0A4F922780398A7
:204E7000291D04F09FF94FFA88F721786288DAF8000001EB81015218002105F069FA606A18
:204E90000146DAF8000088470B48406809F0D4FFF8B2992808BF002784F82C70384606E07E
:204EB0001CB16FF0010084F82C006FF0010005B0BDE8F08F884F00206C1300208C4F002043
:204ED000904F0020944F0020984F0020804F0020844F00209C4F00202DE9F04F734CDFF8E1
:204EF000C8A1E56988468146ADF1140D002D4ED1B9F1000F00F09680B8F1000F00F09280D2
:204F100008F0C6FB06460A2E27DAD8F814702674002F3DD0700010216A4600EB8600233004
:204F3000C0B208F0ABFFB0B91020ADF1010111F8012FFF2A02D1401EF9D10CE050460078BD
:204F500038B999F80600494600F0010009F06CFF01E00120A074E56919E004F1E60B0A2761
:204F700000265846FF21062209F0A0F868B97F1E0BF10E0B06F10106F3D1607C002804BF28
:204F90000A2020744ED094F83660267400E0267C0A2E47DA002D35D170000E214A4600EB41
:204FB00086002030C0B201F0DDFE207C06F0B2FF6846FF21102205F0CBF9207C10216A4654
:204FD0007030C0B201F0CEFE217C0E220801A0EB410000194946E63009F036F9D8F8142066
:204FF0006AB15046007840B9107C02F11101002300F0010009F014FF01E00120A074C4F8FC
:205010001C804CE0AA68002A3ED12A69002A2FD16A690ABBEA683AB9A07B08B107F08CFF7D
:2050300008F01DFF01203BE07000102100EB86002430C0B201F096FEE769217CFA6848001C
:2050500000EB8100103225300421C0B201F08AFEE1690020C86022E07000102100EB860087
:205070002330C0B201F07EFEE1690020486116E070001C2100EB86002230C0B201F072FEA2
:20509000E169002008610AE070001C2100EB86002130C0B201F066FEE1690020886000209B
:2050B00005B0BDE8F08FC0465A4F0020840A002070B5714C6E4EA568401EADF1280D61D07D
:2050D000401E5CD0801E47D0401E40D0401E04D0401E38D0401E34D02FE004F17000FBF7B3
:2050F000F9FA61491020FEF711F96049C5B201AB10206A1EFEF70AF948B90095A068022197
:2051100000223DA308F031FB0DF106000DE00C363046016806AE31608088B080A0680022A0
:2051300039A3022108F021FB3046A56806F02EFE03210346284600225AE0284602210022BD
:205150001AE034A300E035A3284600224FE0142005F0A4FD37A307E004F17000FBF776FDA2
:20517000142005F09BFD36A3A0680221002208F0FCFAA0680321052209F0D6FA3AE00221F1
:2051900033A3D7E731460A6808A802608988818000268DF808608DF807609DF821108DF814
:2051B00005109DF825308DF80B309DF820008DF804009DF822208DF806209DF823109DF803
:2051D00024008DF8091001AB8DF80A002949586848601A680A6008A806F0D8FD0346012116
:2051F0003246284608F0C1FAA0681CA33246022108F0BBFA0AB070BD4E756D20436F6E6E32
:20521000733A20256400C046436F6E6E656374656400C0464572726F7200C046436F6E6EEB
:205230006563746564204164766572746973696E6700C04654696D6564204F757400C04662
:20525000446973636F6E6E656374656400C046C04164766572746973696E6700496E697491
:2052700069616C697A656400F17F0110097F011098050020BF080020080200207CB56D4D69
:205290000446A8680E4628B94FF00040002106F0BDF9A86000213CA30A4608F066FA20460D
:2052B0003DA3801E08D0801E61D0401E4CD0401E37D0401E22D00EE0A868012E05D0002167
:2052D0000A4608F052FA37A357E000210A4608F04CFA39A351E0A86800210A4608F045FAA5
:2052F000A868022100223AA308F03FFA01208DF803009DF803000028FBD17CBDA86800219C
:205310000A4608F032FAA8680221002236A308F02CFA01208DF802009DF802000028FBD18A
:205330007CBDA86800210A4608F01FFAA8680221002232A308F019FA01208DF801009DF821
:2053500001000028FBD17CBDA86800210A4608F00CFAA868022100222DA308F006FA012052
:205370008DF800009DF800000028FBD17CBDA86800210A4608F0F9F929A3A868022100224A
:2053900008F0F3F97CBDC0463E3E3E535441434B20415353455254002A2A2A4552524F52B0
:2053B0002A2A2A003E3E20494E5445524E414C204552524F522100C03E3E20494E544552BD
:2053D0004E414C204657204552524F522100C0463E3E2044454641554C54205350494E4C0D
:2053F0004F434B2100C046C03E3E2057524F4E47204150492043414C4C2100C03E3E2049B4
:2054100043414C4C2054494D454F55542100C0463E3E204943414C4C2041424F5254210038
:205430003E3E204F5554204F46204D454D4F52592100C046080200202DE9F04FADF1240DA5
:20545000079001F0CFF95F48007808F0A7FA5E4D0024012806D90C3804D0401E0ED0401EAB
:2054700009D006E008F03CFE022804BF01210C1C06D0696805E005211F2401E003210724CF
:205490006960524A1068C0F38150012806D152F80C0C0127020E07FA02F0044309F06AF86C
:2054B00005F1440AFF2253464018401E471C28607F1E03F8012BFBD1079A1268002602F07A
:2054D000FF03FE2B1DD0DDF81CC0964633460EF0FF07FF2F0ED0B84205D3B94203D80122C3
:2054F000BA40144201D0022069E016430EF0FF020AF802305CF804EF5B1C0EF0FF07FE2F95
:20551000E7D1092002F0CCFF07980121A86005F1280007F0F7FF00274FF0010BB94628462A
:20553000804600F198050BFA07F0044216D1064204BF07F0FF0141F4C04104D01AF80700B9
:20555000079951F82010224801F002FDF8B24FF0FF3108F019FBC5F8009001E004202860C9
:20557000D8F800007F1C2D1D8742DCD904A808F0E1FF184C184A2078102104AB059008F198
:205590000C0007F0A3F8684609F004F8CDF80C906A4660681149029008F1640007F010F998
:2055B0000F4951F80D0C20F4F85040F4005041F80D0C0C4FC1F8FFBF4846C7F800B009B067
:2055D000BDE8F08F191F00201C0D0020B43F0050007FC76710FF00001DDF0000DDC400005A
:2055F0000D3009400800094061480178002900D170472DE9F843491E032984B004D9891F54
:20561000012940F2B180A9E05A4CDFF86C912068DFF8688103685A4E03F10805062205F170
:20563000080102A808F010FE0622A91C684608F00BFE2878C1091D2700F00F02032AC0F376
:20565000801537D16079C0F3800081421ED12169062202A808F038FB00287AD069462846C9
:20567000FBF794FC002874D031466846FBF792FCFF286ED04743D8F80000807AF519002898
:2056900018BF02280AD0012818BF032861D1F25D691C484609F0C0FB10285AD06B46EA1D92
:2056B0002946484609F0B4FB06226946E81D08F0CBFD4EE000F00F00052855D16079C0F38D
:2056D0008000814245D12169062202A808F0FCFA00283ED069462846FBF758FC002838D04E
:2056F00031466846FBF756FCFF2832D04743D8F80000807AF519002818BF01280AD002287A
:2057100018BF032825D1F25D691C484609F084FB10281ED040F2024007F070F86B46EA1DF6
:205730002946484609F074FB06226946E81D08F08BFD1448144A41F204414180418341861A
:20575000124801801249134811600121007802F087F821680A680020107105E0002008F093
:2057700037FC862009F0B0FB05B0BDE8F08300BF6F4F0020F44B0020CC470020104F002021
:20579000AC450020204A0020204F0020504F0020595501106E4F00202DE9F843614C5A4DCF
:2057B0005A4EDFF870815E4F94F8E4100846401E0B2864D8DFE800F07B2C430623430623EB
:2057D00043067664042907D001220A2945F8212C14BF0220032004E0202045F8210C0120EB
:2057F000024684F8E200002045F8390C0827C5F8FF7FC5F8F37F45F8392CBDE8F8830529C8
:2058100014BF09200620002784F8E400376075E094F8E170383D0120002FC5F81B0004BFA6
:205830000620002102D00021F160032084F8E400032045F8010C3160306880085ED294F870
:20585000E4103348012703290ED00068456800216022052300914046A84794F8E400062813
:2058700014BF0A200720CFE700684568002160220523022000904046A8470420C4E7FEE783
:205890002548264F0026012506600E203D6002F07DFB022007F09AFA84F8E45084F8E36013
:2058B000BDE8F883002038600C25786024E04FF08059D9F8A0010168202088472C3D0F2059
:2058D00045F8010C41F61D56C5F80360D9F8A401466800214FF4C07207230225404600957E
:2058F000B047D9F8A401C66800214FF4C07207234046B0470120386084F8E45004F17800EA
:2059100009F017F8BDE8F88339400C4038600C40A401001000A00C402C500C4004800C406D
:2059300034600C40300E00202DE9F04F88468246ADF1AC0D299209F09FFA5C4CE67894F8F8
:205950000BB0A57A94F80C90071C00F0AB8068460021A42204F0FCFC2801279A55498DF869
:20597000046005F0030300F4807605F00405ADF800A0B9F1020F01EA020143EA01024C4B1B
:205990008DF8A0B046EA020100F4C06603EA010246EA020045EA00054FF00000279508BFBD
:2059B00001208DF8370009F02FFA412809DB207B00280CBF002008209DF8991008438DF8A7
:2059D0009900607B002804BF00208DF8380017D001208DF8380004F1860120220DF13900C1
:2059F00008F032FC0DF1590004F1A601202208F02BFC0DF1790004F1C601202208F024FC90
:205A1000A07940B18DF8260004F1500110220DF1270008F019FC66793EB104F16000B91D1E
:205A30000622054608F050F968B92079002804BF00208DF8050015D08DF8050004F14001AE
:205A50000DF106000BE08DF805600DF1060005F11601102208F0F8FB0DF11600A91D102223
:205A700008F0F2FBE07930B1B8F1000F03D0279941F002012791002100B10121A7789DF818
:205A90009900002F41EA00018DF899100CBF002004209DF89910084329998DF899006846AE
:205AB00009F0AEF92BB0BDE8F08FC046840A0020FBF9FFFFFCFEFFFF70B5484C484B2568C0
:205AD000186855F8183F00224FF0FF3198474548454A416B454C8868454D417911700026E6
:205AF00009F08AF9434809F083F909F07DF94248026800215171A02301680722CB804A7278
:205B1000032103681972002201684A7700230268D3760021036883F85C10012201680A77B9
:205B30000123026882F85D300021006880F85E100EE06068F1B24FF4C072514342185379C9
:205B5000012B04D1F0B208F067FC09F049F9761C2978F0B28842ECD309F03EF92748284A8D
:205B70000178284C117006F067FE2748D02130220023017042708370C37003714371837112
:205B9000C37109F025F92149214B00200870002220491A700120204B08701A701F49204BC6
:205BB00008701A701B201F491F4B0A701A804FF4A4721E491E4B08801A80FB201D491E4A7E
:205BD000088040F648001D491080FB230B80208009F0FAF81A490020087070BDF04E0020FF
:205BF000EC4E0020A8FF0000714F0020684E00207B4F0020CC470020104F00206D4F002066
:205C10007A4F00204E4F0020E01E0020734F0020744F0020754F0020764F0020774F00203C
:205C3000784F0020794F0020524F0020444F0020464F0020484F00204A4F00204C4F002031
:205C50006F4F00205A480178042900D870472DE9F84F891F2FD0491E012900F29E80DFF803
:205C700054A19AF80200FF2825D008F0D5FB83460BF16C07786809F0A3F8804698F80400A1
:205C9000032818D1D8F80800047814F0030404D17868BDE8F24F09F08FB84578032C00F1C9
:205CB00002090BF20F160BD035B1387820B93D2171700120307078E03F490A78012A74D08C
:205CD0009BF8941059B32D1FEDB24B462A462146584609F06DF840B93D2070700121317029
:205CF0003648BDE8F24F09F05FB835480168884700904FF4C0709BF80620DAF80410424344
:205D10008818002180F839110BF59A7001688079490805F0D3F92B4900980A6890470020FD
:205D3000032CC8F8080016D0274841690878820707D5C0074CBF03200020401919F80000F9
:205D500000E08120387223469AF802002A46494600F094F918E099F80000192803D21B4A8B
:205D7000115C8D4205D0B0700721584609F098F807E00F480178082903D049465846FDF7B7
:205D90000FFD484606F0ECF8786809F015F841465846BDE8F44F09F003B8002008F018F9AF
:205DB000BDE8F24F862009F08FB8BDE8F18F00BF6F4F0020684E0020794F0020AC45002076
:205DD0004C0F0020500F0020A8FF0000E0FF00002DE9FF4104466668A7680D4608F0B1FDBD
:205DF0003178012903D109F093F800208EE00121317009F08DF8287870706878B070686849
:205E10007060A868B060E868F06028693061287D3075687D7075A87DB075A869B061287F99
:205E30003077687F7077A87F4FF0000843461D4686F82851B07786F82951C6F82080336379
:205E500075627563B562B56386F82C5086F82D50786802F025FB204603F08CFA204603F035
:205E7000D5FA60B9386807F07FFE786802F08EF808F067FD357009F04BF82C4645E068463C
:205E900008F058FB0094387B224A0190B9686B4606F17C0006F01AFC684608F07BFB009462
:205EB0001D4938696A46029006F1980006F088FCB07830B906F1CC00294607F023FB1748C9
:205ED0003061707830B906F1E800294607F01AFB1348F060684608F0B7FC01958DF8005087
:205EF0001049029406F582700A226B4605F086FEB969FA6906F13C0008F0E8FA0A4A06F183
:205F100068000421234607F097FC20460090BDE8FF81C046DD61000005B50000CBE8000025
:205F3000C3E8000071C10000A5E60000F0B5514C20780D46E90BADF11C0DC90372D1A80842
:205F500060D2E069216A6A080ED2E80828BF85F0040580F08C80680904D304F033FA85F02A
:205F7000100584E0002083E0868861B904F11600414A00904FF6FF710223012008F00CFFC9
:205F90000146216221B304A800900027019702230293FF220392E28A30460DF11203FEF7FE
:205FB000A7FD58B99DF813009DF81220216A12EB002204D04989304606F006FA216AE28AFA
:205FD00008463B464FF6FF7108F046FF01462162A069002918BF85F001051AD168B14368F3
:205FF0005BB1E0698088012100229847A069E7694368B88803210022984707F0DBFF85F062
:20601000010534E000200146FEF766FF18B185F00205012102E0022185F00205207801F024
:206030001FFC24E003F026FD071C1ED038780126B03811D0401E02D01F3808D011E0387969
:2060500078B97888F9883A8906F0BEF90AE03846FEF73CFB064604E0397907F10800FAF7A7
:206070002DFB16B1384607F03FFE85F40045A8B207B0F0BD840A002004FC00002DE9FC47EC
:2060900006460C4615469A46C0B208F0C5F98146F0B208F08FFA0646494F3079DFF82481FC
:2060B000012802D0022843D082E0BAF1020F0AD100207080308002223271B06805F050FFBC
:2060D0000020B06037E0308871882A1891420BDA00207080308002223271B06805F040FFEB
:2060F0000020B0608B2061E0B3682A462146184408F0AAF830882D183580ADB272889542AA
:2061100056D199F87410802917BF81297F2198F80000091A49B200915346B168B878D2B2C5
:2061300008F036FE002070803080022232713FE0BAF1020F3CD1042DB8BF8C2036DB2078B7
:206150006178001D40EA01201F49708083B20A789A4238BF8A2029D381B2A94238BF8B20A6
:2061700024D380B208F010FEB060F0B12A46214608F06AF87288954211D199F8741080298D
:2061900017BF81297F2198F80000091A49B200910223B168B878D2B208F0FAFD08E030880F
:2061B0002D1835800121317102E0812003F0D4FF24B12046BDE8F64705F0D2BEBDE8F38707
:2061D000684E0020704F00206B4F00202DE9F84F8046D8F808603068D8F80450076CDFF8BF
:2061F00030B14764AB6B6A6C286C17F4F06F1946A0EB020934D1F8091ED2780974D3B1B104
:2062100096F821205846801D845C601E814294BF1C1C641E4046214607F0EEF8A86B001B3E
:20623000A86361D105F19800012108F0A4FB4046494607F079FB57E00029F8D0404607F0A5
:20625000DBF895F82D10A86311B900284CD101E00020A86305F19800012108F08CFB43E019
:20627000F80A20D24FF0000A544602E0AB6B5B1EAB6393B14046012107F0BEF830684468DB
:2062900014F00F04C0F804A0F0D0286B401E2863686B401E6863A86BE8B905F198000121DF
:2062B00008F069FB13E0306844680022202904F00F044260CCBF4FF0200A9A464046514636
:2062D00007F09AF8CAF120008145C8BF81464946404607F029FBEC77404605F067FE726AE7
:2062F00012B1404621469047B8090FD3A96A69B10F46404607F097F8A86238B996F820200D
:206310005946895C4046C91905F090FDBDE8F88F7CFB00002DE9FC4705466E68D5F808808D
:2063300037780FB1B76B1FB14FF0FF30BDE8FC8731630024F477171C74631BD006F13C0902
:2063500008F0FFFA82466946484606F0DEF900281ED4504608F0DCFD9DF80000316B087040
:20637000306B736B7F1E00F10100306303F101007063E5D17078726B316B0128A1EB0201DB
:20639000316303D1F36828469847726B144659E0B763D8F80010086B40F400700863D8F821
:2063B0000010886B40F4FA608863504608F0B0FD06F5947007F0D8FC707806F5947768BB3B
:2063D00008F0BFFA96F82D1069B1716B59B1B16B49B1B46308F09CFD06F5947007F0B4FCCD
:2063F000706BBDE8FC8708F093FD716806F1E805284608F074F80028F2D0B463284621469D
:2064100008F06DF80028EBD0384607F09DFC1027716B306BF777401A3063E1E708F091FACA
:2064300096F82D1061B1716B51B1B16B41B1B46308F06EFD06F19800012108F09CFA01E0E9
:2064500008F066FD2046BDE8FC8770472DE9FE4306F0FAFBDFF81C81814608F1020000888C
:206470000027001F84B2042C5ADBFF254FF6FF76204601A9042206F0CFFABDF804309E428F
:2064900037D0002B35D0D80BC2032FD19D422DD0381FDDB280B2042815DBB0F5805F12DA8D
:2064B00000F18852126802A90A60BDF808108D4207D0BDF80A10401A001F80B20428ECDA93
:2064D00001E0012300E00023BDF806001BBB211A001D8BB282B207F18851184606F09CFA8F
:2064F000BDF80600C119091D8FB214E0BDF8060011E0BDF8060003466FF30E0363B9011D3F
:206510008C4208DA002007F063FD484607F044FD0020BDE8FE83241A241FA4B2042CA7DAB0
:2065300005F0B2FD9FB1144830380068134983693A46091D4FF0885098474FF4801600204E
:206550000B49009601220860694602F079FE484607F022FD4246507800281CBF0020011C6A
:2065700003D1C7F58054391DA0B25180BDE8FE838404604274150020D801001000E001006B
:206590002DE9F041494E0546307CADF1500DA84209D13078012106F003FD3078022106F0D6
:2065B000FFFC07F007FD6C0004EB85040E210FAA04F1200004F120075FFA80F8F8B207F066
:2065D0005DFC00286DD106200DF13B0111F8012FFF2A02D1401EF9D163E06846FF211C22E0
:2065F00003F0B6FE07A8FF21102203F0B1FE04F1230010210BAAC0B2074607F03FFCB0B9E9
:2066100010200DF12B0111F8012FFF2A02D1401EF9D10CE02648007838B99DF842000FA961
:2066300000F0010008F000FC01E00120B0740FA8FF210E2203F08CFE40460E210FAA00F05D
:2066500091FB06461C216A4604F12100C0B200F089FB1C216A46064304F12200C0B200F0BA
:2066700081FB10216A460643384600F07BFB10216A46064304F12400C0B200F073FB04F178
:20669000250704216A460643F8B200F06BFB7035102107AA40EA0604E8B200F063FB20439A
:2066B00000E0002014B0BDE8F081C046840A00205A4F00202DE9FE4F00281C4600908B4625
:2066D000019200F08180BBF1000F7DD0101C7BD0002C7ED0206A002876D0414D676A281D91
:2066F0000068002F70D0A16A08F0AAFB40B2071C08BF6FF0020063D020786288216A84F812
:206710002C7000EB400012180C3290B288473349086030B92846406808F08EFB4FF0FF3057
:206730004EE088466588B4F8029094F800A0D8F80060204605F0B2FA20780AEB0907AD195C
:20675000BF1909EB4A01C01C80108E192860207800993F1DC01C8010386020780836C01C34
:20677000801030602278281D02F01CFD28463A463346014608F004FB2278391D8146584605
:2067900002F010FD22780198311D02F00BFD21786288D8F8000001EB41015218002103F070
