:2000000000400020E9E0000001C9011001C9011001C9011001C9011001C9011001C9011095
:1C00200001C9011001C9011001C9011001C9011001C9011001C901103FC9011089
:20003C002DE9F041C24C014660790FF254380A09ADF1200D80F07E814909C0F0EB8194F95A
:20005C000310002867D1B1F1FF3F28D12079012800F0E0810120002520710221D1A3A069AE
:20007C0065702A460FF085FDA069434603212A460FF07FFDA069042143462A460FF079FD61
:20009C00A069052143462A460FF073FDA069062143462A460FF06DFD0EF0F2FEBAE104EBA3
:2000BC00C1050120DC356F78607104F1680011F006F8CE4800780FF0A5FB00268DF81560CB
:2000DC008DF816608DF81400AD1C8DF81770296806A80160AB888380C74905AA102006F0E0
:2000FC008FF9A0690221CDA332460FF042FDA76928460DF04FFC03210346324638460FF0E2
:20011C0038FDA0690421324610F092FE66704FF0FF30E0707EE1022840F07C81A07AA589C6
:20013C00678A002800F08380401E46D0401E00F0E780401E03D0401E00F0C2806AE1122030
:20015C0010F0A7FF071C08BFBAA36ED0B649102000223B4606F054F938680090A0690721E2
:20017C000022C5A30FF005FDB8880090A06908210022C6A30FF0FDFCB8790090787A01900F
:20019C00B7F807000290A06909210022C5A30FF0F0FCB87B0090787B0190387B0290F87A55
:2001BC000390B87A0490A0690A210022C5A30FF0E0FC38460EF0B2FE2CE1284610F0BCFAD4
:2001DC0078BB9A4910202A46012306F019F9002800F02081284610F0AFFA071C17D1608D59
:2001FC004FF6FF712834814240F01481242010F050FF0028606000F00D818D490022134600
:20021C000DF096FD27466580C820208004E0786810F057FFC82038807868C8210EF0E2FCF9
:20023C00F8E028460EF038FAADA30421EEE0002F00F0F080607A012800F0EC80267A2078C3
:20025C0046B3284612210122002300F0ABF90028069000F0DF800121628AADF81610E179CE
:20027C00ADF8142000270170A5898DF81C7020788DF81D700FF0C6FAC749009005AB2A4689
:20029C00102006F0BDF8C5B29DB105A8122100F08DF90BE0ADF814700FF0B4FABF490090F3
:2002BC002A4605AB102006F0ABF8C5B2002D40F0B18001206072207A80F001002072A9E01B
:2002DC000326284666710FF093FCA0690221002287A30FF04EFCA0694346002231460FF01B
:2002FC0048FCA0690421002243460FF042FCA0690521002243460FF03CFC0020A07289E0DC
:20031C004FF44871ADF818104FF41672ADF81C204FF4C870ADF816000027ADF81450A049FD
:20033C00ADF81A7005AA102006F06AF872E0C0460802002000283DD1207901286AD094F9FA
:20035C0003106278A069491C49B28A4219DDE170491C00226AA3009102210FF00AFC94F93E
:20037C000300A56904EBC000DE300DF013FB03210022034628460FF0FCFB64A33FE0C04669
:20039C0000C04FF0FF314346E170002202210FF0F0FBA0690321002243460FF0EAFB052127
:2003BC0061A333E0446973636F766572696E672E2E2E00C002282DD1A17A042914BF491C9B
:2003DC000021A0691022A172072110F031FDA07AA0B1401E0ED0401E0AD0401E03D0401ECE
:2003FC0012D154A30BE057A309E0C0465416002059A304E05EA302E07D80000061A3A069DC
:20041C00052100220FF0B5FB062143A3A06900220FF0AFFB08B0BDE8F081C046436F6E6E86
:20043C00656374696E6700C0C9C00000B17F0110F90A01004552524F523A204661696C65D3
:20045C006420746F20616C6C6F63617465206D656D6F727920666F722072657475726E20B4
:20047C00636F6E6E656374696F6E20696E666F726D6174696F6E00C04163636573734164B3
:20049C0064726573733A203078257800436F6E6E656374696F6E20496E74657276616C3AD1
:2004BC0020256400486F7056616C3A25642C206E787443683A25642C206D5343413A256403
:2004DC0000C046C04368616E4D61703A202225783A25783A25783A25783A25782200C04605
:2004FC00525353492043616E63656C6C656400C0446973636F6E6E656374696E6700C046F6
:20051C0044657669636520256400C046436F6E6E656374202D3E00C03C2D204E6578742063
:20053C004F7074696F6E00C0446973636F766572202D3E00446973636F6E6E656374202D45
:20055C003E00C046436F6E6E656374696F6E20496E666F202D3E00C0436F6E6E6563746901
:20057C006F6E20557064617465202D3E00C046C0546F67676C65205265616420525353494F
:20059C00202D3E004741545420526561642F5772697465202D3E00C0EB100100EF10010067
:2005BC007D150110DFF800F005840110DFF800F0898401102DE9F04F85B011F801ABDFF820
:2005DC006835DFF868C5DFF868B58146AAF10200132809F1FD0209F1F40609F59C7709F1D3
:2005FC00860809F5AC7409F1660500F28B82DFE810F0D40089021400400043007002890215
:20061C00980089027000A80073007800DA008F01D501CB007802DF01DF0109F1A00408228B
:20063C00204600F089FA06460821204600F088FA09F1980704223146384600F07DFA042138
:20065C00384600F07DFA00204142494409EB000291F89F1082F8BF10401C0828F4DB09F19D
:20067C00C702214609F1D70000F06EFA0020A87157E20121B17154E23178707A012900F06C
:20069C0010000DD130B100207870316CB87849080CF03AF999F80600002100F059FA0FE030
:2006BC0040B1326CDFF88C0409F59D735208494610F04EFC99F806000122002100F04CFAD6
:2006DC0001202870484600F04BFA0121A971B17027E20121F17024E2087870700121F171AF
:2006FC001FE2A87918B93D2030770120F076707A000701D40E2037E100205F1C0B5C1CF83E
:20071C00006033430B543C5C23401354401C0828F4DB287808B90921C5E148460BF044FECF
:20073C00F5E100205F1C0B5C1CF8004023430B543C5C23401354401C0828F4DB022030722B
:20075C00EFE1A87920B93D2101203177F076E8E1707C012803D10C2171770721A3E111F8AA
:20077C00010B3075022209F5857000F0E5F90146022209F5867000F0DFF9F07C01210028EA
:20079C007174E4D10C218EE1707AC10601D41220EAE0484600F0E8F9B9E108783077002144
:2007BC00F176F021F4E0737A980704D413F0110F70D01A22DEE0287C012804BF687C0F2865
:2007DC0008D0687D08B16A7C12B12A7F012A03D158070BD52322CDE010B1687C012803D064
:2007FC0098F80A00012806D1580702D40F2171778AE12A22BEE008784A7800EB0220388199
:20081C00CA78887800EB022078814A79087900EB0220B881CA79887900EB0220F881087A9E
:20083C0038744A7A887A02EB00227A82C87A0A7B00EB0220B8828A7B487B00EB0220F882C2
:20085C000A7CC87B00EB022038838A7C487C00EB022078830A7DC87C00EB0220B883487D41
:20087C00897D00EB0120F88309F5A6700490798A0391387C0290B9F808100191F8890090DE
:20089C00BB897A89398948460BF04EFA18B1707A41076ED467E07889A8F804000022B989D5
:2008BC00A8F806100221F889A8F8080088F80010A8F80220B9F83400C01DE883B9F83210A8
:2008DC00B8F80400B0EB510F02BFB8F80600B9F83410884202BFB8F80800B9F83610B0EB0C
:2008FC00111F13D0687D18B10F21A976FE21DAE0FC21484600F03CF9F8890090BB897A89CB
:20091C00398999F8060000F037F90AE10021CAE08A78C8780F798C7902EB0025487907EBF8
:20093C000027C87901F10B0204EB00240492BBB2487A8A7A00EB022080B20390087A029072
:20095C00B9F808200192A2B2009291F800C048780CEB002081B2AAB248460BF0E5F980B1E2
:20097C00707A410702D40F207077CDE0484600F007F91E22484605B0BDE8F04F0F2100F08B
:20099C0003B9A8F80450A8F80670A8F808400021484605B0BDE8F04F00F0FAB80878207093
:2009BC004A786270487870700121F1717971B8E00A78487802EB0022628209F5BC7788787B
:2009DC00CA7800EB0220E0824A79087900EB022020828879C97900EB0120A08209F5AC71CB
:2009FC0009F5AC70CA8A8089A18B904288BF1046A083884209F5AC7009F5AC7100894A8A4A
:200A1C00218B14BF01260026904288BF1046884214BF012100210E4320830122A18B3879AB
:200A3C0000F0BAF8218B814205D3A18B3879012200F0B2F8014609F5AC70798009F5AC71A2
:200A5C0040890A8A904288BF1046628B6083904214BF012100210E43824209F5AC7009F5C9
:200A7C00AC728941C089938AE28BC90F984288BF1846904214BF012200221643E08311B1E0
:200A9C00484600F08DF8BAF1140F19D146B1E08B0090638BA28B218B99F8060000F084F8C3
:200ABC00287830B91521484605B0BDE8F04F00F05FB8484605B0BDE8F04F15210FF078BE9B
:200ADC001EB1387840F008003870397841F0200108E008780F2807D0122802D0142806D004
:200AFC001FE0002139701CE00120387119E099F8780140F0020089F8780140F0100089F85B
:200B1C0078010EE086F81DA0484600F051F840B99BF8000005B0BDE8F04F4FF4804108F02F
:200B3C0025BD05B0BDE8F08FEC4D0020F02B00206E4F0020018B0010DFF800F0D192001097
:200B5C00DFF800F0AD710110DFF800F09D720110DFF800F069CA0010DFF800F001CA0010F0
:200B7C00DFF800F0B9950010DFF800F05D880010DFF800F0AD7E0010DFF800F0E5BE0010FC
:200B9C00DFF800F0097F0010DFF800F049890010DFF800F0697F0010DFF800F0598F0010B3
:200BBC00DFF800F0DD930010DFF800F065BF0010DFF800F0497E00102DE9F84FDFF87C4346
:200BDC0084B0676827B905B0BDE8F04F00F0C4B93878DFF86C83DFF86CA3DFF86C530128F5
:200BFC001CBF0228042841F64C5B05D0402818BF802800F0BF8097E110F05CF90028FAD020
:200C1C00387806F0E3FD8146D9F8046016B900200FF0B6FCDFF834134878002800F08080A0
:200C3C0003F01CFC0FF06EFF01900168009148464F6809F0E9FC022846D099F80010022967
:200C5C0002D004291ED06FE105222A7018B900F087F95844B0603069C17E01F0EF01C1769D
:200C7C003069C17E41F08001C1763069C17E01F0F00141F00201C176B868316950440862BA
:200C9C00022074E00621297018B900F069F95844B060AF480168887C0AF084FA3069C17E7F
:200CBC0001F0EF01C1763069C17E41F08001C1763069C17E01F0F00141F00201C176B868FA
:200CDC0031695044086251E000980178802913D10820A04928700A78012A03D09B484178CC
:200CFC00022903DB39690120C87213E0D8F828003A690178D1720DE09649072028700A787B
:200D1C003869012A02D10121C17203E0D8F828104A78C27201988D4A817900989170FEE001
:200D3C00B9F1000F15D099F800004F450DD102281ED0042805D186480168887C0AF032FA7B
:200D5C0016E000200FF01CFC12E0022802D0042805D0E9E0052028700221A17008E0062093
:200D7C007B4928700A68907C0AF01CFA0420A0704846D4E0DFF8D49199F80100002800F011
:200D9C00968003F06BFB0FF0BDFE0290016899F8020001914E680FF0B5FE039010F090F86B
:200DBC0010F0070F56D0A07806F010FD00904768019909F029FC02284CD000990A78022A3C
:200DDC0002D0042A1ED042E005232B7018B900F0C7F85844B8603869C17E01F0EF01C176F8
:200DFC003869C17E41F08001C1763869C17E01F0F00141F00201C176B06839695044086229
:200E1C00022021E00621297018B900F0A9F85844B8604F480168887C0AF0C4F93869C17E22
:200E3C0001F0EF01C1763869C17E41F08001C1763869C17E01F0F00141F00201C176B06870
:200E5C003969504408620420A070009867E000200FF096FB03980299884226D001983D49FE
:200E7C000278802A12D1082028700978012903D099F80100022803DB30690121C17210E099
:200E9C00D8F8280032690178D1720AE0072028700978306901290EBF0122D8F828104A7840
:200EBC00C2720298817989F80210019837E010F007F810F0070F3DD0A07806F087FC06460C
:200EDC0046F2A81930787768022802D0042810D030E00521297000F043F809EB0001B8685F
:200EFC0000F042F818B900F03BF85844B860022013E00620287000F033F809EB0001B86801
:200F1C0000F032F818B900F02BF85844B86010480168887C0AF046F90420A070304605B0A6
:200F3C00BDE8F04F08F0E0BB05B0BDE8F04F00200FF026BB05B0BDE8F08F00BFD02B0020D2
:200F5C0070280100F0D8FFFF6F4F0020684E0020184F0020734F0020DFF800F03D71001074
:200F7C00DFF800F0B1970110DFF800F0B9970110F8B5194C207801282CD0184B012123F0A6
:200F9C000303174A2362266A2170002004F1240566621946D21A2F68A2629B1801E041F86F
:200FBC00040B8B42FBD89110E82306EB810141F8040C22F003023B6006F1E8016161EC3A84
:200FDC00C6F8E8200AF0A8F8A06128686061A06A001FE061F8BDC046301C0020382C00202E
:040FFC000040002091
:20100000B41200001810000015AB0110FDB301106DC00110FDAE011099B5011000000000F7
:08102000000000002D0000009B
:20102800B01200003C100000B1C00110A9BF011067C0011069B80110000000000000000035
:041048003000000074
:20104C00B012000060100000BDC00110CDB30110D9BD01106DB3011000000000000000005B
:04106C00310000004F
:2010700000000000E821002004000000000000000000000020000000E8C901103000000021
:2010900028100000F02100200400000000000000000000000C000000D8CA011018000000FC
:2010B0004C100000F821002004000000000000000000000024000000F0CA01101800000080
:2010D00000000000002200200400000000000000000000001000000018CA01102C0000008B
:2010F0000010000010220020040000000000000000000000200000006CCA011024000000EF
:20111000FFFFFFFF182200200400000000000000000000002800000090CA011024000000AE
:20113000FFFFFFFF202200200400000000000000000000001400000008CB0110180000002D
:20115000FFFFFFFF2822002004000000000000000000000058000000B4C9011034000000FB
:20117000FFFFFFFF302200200400000000000000000000001000000020CB011018000000C9
:20119000FFFFFFFF382200200400000000000000000000001C000000B4CA011024000000F6
:2011B000FFFFFFFF402200200400000000000000000000003800000044CA0110280000001E
:2011D000FFFFFFFF482200200400000000000000000000005400000078C901103C00000093
:0811F000010000005C28010071
:0411F80001000000F2
:0411FC0000000E00E1
:0412000000000F00DB
:0412040032000000B4
:0412080001000000E1
:04120C00202100207D
:0412100000020000D8
:0412140000000000D6
:0412180001C90110F7
:04121C0000000000CE
:0412200000000000CA
:0412240008000000BE
:0412280000002200A0
:04122C00781F002007
:0412300000000000BA
:0412340000000000B6
:0412380008000000AA
:04123C00C4200020AA
:0412400000000000AA
:0412440000000000A6
:04124800080000009A
:04124C00000000009E
:04125000000000009A
:041254000000000096
:041258000000000092
:04125C00010000008D
:04126000102000203A
:041264000600000080
:041268000100000081
:04126C00641E0020DC
:04127000000000007A
:041274000000000076
:041278000002000070
:04127C00000000006E
:02128000290043
:02128200010069
:02128400250043
:02128600300036
:02128800310033
:02128A002D0035
:02128C0001005F
:01128E00015E
:0812900003000000FC2701002F
:0812980000000000000000004E
:0412A0000000010049
:0412A4000000030043
:0412A80013C401105A
:0412AC003F0A0100F4
:0412B000B812000070
:0412B400B81200006C
:0412B8000000000032
:0412BC00B421002039
:0412C0000B0C010012
:0412C4002000000006
:0412C8007427010086
:0412CC0014260100E3
:0412D00029C101101F
:0412D400AFEA00007D
:0412D800ABF3000074
:0412DC00A1C7011095
:0412E000A3C701108F
:0412E4000000000006
:0412E8002D280100AC
:0412EC0024240100B5
:0412F0003C24010099
:0412F4000C240100C5
:0212F8000200F2
:0212FA000900E9
:0212FC000100EF
:0212FE000000EE
:0113000001EB
:04130400990B010040
:04130800F9ED0000FB
:04130C0011000100CB
:04131000ADF200003A
:0413140067EE000080
:0413180045DF0000AD
:04131C0015B0000008
:04132000330E010087
:0413240051D10000A3
:0413280015C70110D4
:04132C0025C70110C0
:201330002DE9F8435FEA000906D100200FF02EF902E04846FFF72AFC09F16605687D0028DF
:2013500000F08381697CDFF89C04002909F1860709F20F1809F1EC0609F59E7443D0012922
:2013700058D002292FD003295ED0062900F09880072900F06081082900F0C080092900F0F6
:20139000CD800A2900F09F800B2900F0A8800C2900F0D0800F2900F0EB80112900F015819A
:2013B000122900F0DC80142900F01881152900F03981F02900F04B81FC2900F04581FE2911
:2013D00000F04F81B1E7297C012908D1C07808B900F0C7B94846FFF7D9FB16213CE148465A
:2013F00010F078FAC9E1297C012940F04B81C078002800F04E8178883978400078804900A5
:20141000B88839704000B880012138890001388129778EE7297C012940F04181C078002888
:2014300018BFB97285D13EE1297C012940F04281807838B1A078012804D10021A1704846AC
:20145000FFF79CFBB07B012809D10021316071600122BA7306214846FFF7A0FB6CE7F07BEA
:20147000012818D14846FFF791FB0020B873012129704846FFF77AFB0120A87100217173FC
:20149000717A99F8060006291ABF00221A210022FFF768FB50E798F8000001283DD014E1E8
:2014B000287C012840F01881B07A012811D14846FFF76CFB002030723073F072B073B0725A
:2014D000F073707338E7287C012840F01481F07A012840F00A810021B9730B21BBE7297CF7
:2014F000012940F011818078002800F011810321B1E700222221FFF735FB71E1287C0128E8
:2015100040F01681307C022809F1FD0240F0198199F80610002010F0D9F90AE7297C012902
:2015300040F01B81807800281FD0B9F82200A9F81E00FEE6287C012840F01A81707E01289B
:2015500040F01D81B07E0128F3D1308C0090F38B327F99F80610002010F0B4F9E9E6297C2F
:20157000012940F01C818078002800F0FA80E0E6287C012840F017816078012813D1207FFB
:201590000F281CBF00200FF001F800206070607F1A2808BF002117D000210091002300223A
:2015B00010F08CF9C5E6A078012807D10021A17023220F214846FFF7EDFABDE6207801285C
:2015D00040F0CF800021217045E7297C012940F0EE80C078002800F0EE80AAE6287C012816
:2015F00040F0EF8009F5AF76B07E810613D500F0DF000107B0760BD500F0F700B076308BD7
:201610000090B38AF28A718A99F80600FFF7D2FA002030708DE6810740F1CD8000F0FD00F7
:20163000B076F5E7297C012940F0CF808078002800F0D0807DE64846FFF7C0FA0128F9D057
:2016500002E000200EF0A2FF0020BDE8F283407A0028FAD098F80110484610F02BF901207F
:20167000F3E7A87E0F28ECD1FC214846FFF796FA608900902389E288A18899F80600FFF7F0
:2016900081FAE1E7484610F011F92874E88A2883DAE7B9F80A00E98B884209D0D4E74846CA
:2016B00010F000F9F1E7B9F80A00B9898842CBD12821D1E7484610F0F1F828740021E88A3F
:2016D0002883B1730020F073BFE7288B401E288380B2002822D0B7E7484610F0DBF828745F
:2016F0000021E88A2883B172AEE7288B401E288380B298B1A8E7484610F0C8F82874002113
:20171000E88A2883F1729FE7484610F0BBF8BCE7288B401E288380B2002895D1317A99F817
:20173000060001297FF4E5AE2221FFF717FA57E0484610F0A3F828740121E88A2883317439
:2017500082E7288B401E288380B20028F8D199F80610222010F0BAF842E048460AF02AFEC4
:2017700093E7288B401E288380B2002838D06BE70120F076484610F07DF8287464E7288B4B
:20179000401E288380B20028F8D1308C0090F38B327F99F80610222010F094F820E048468F
:2017B00010F064F871E7484608F070FB6DE7484610F058F869E7288B401E288380B278B1DB
:2017D00042E748460EF0FAFF5FE7152148460EF0F5FF5AE7288B401E288380B20028EFD138
:2017F000222139E75C4D00202DE9F04FCA4C04F11C012046ADF1240D0CF0AAF804F138052B
:201810000021284610F02AF8C4494FF47A72002304F1440025620CF091FAC14941F288326A
:20183000002304F168000CF089FABE4D05F1180005F10C0108F0C4FCBB49A8600FF016FBA9
:20185000BA4EA8684FF4E0213246521E0DF060F9A8684FF4E02132460DF05AF9B44EA868B0
:201870004FF0C0513246521E0DF052F9A8684FF0C05132460DF04CF9CB4905F12400C822A6
:2018900000230CF05BFAC948002168604FF080400BF0B8FA4FF6FF790026C64FA061C44D14
:2018B000A4F82A902322E6623046394603466870102004F0ABFD102002226423394604F005
:2018D000A5FD102003226423394604F09FFDBA48BA49152332460090102004F097FD01204D
:2018F0008DF81900B2468DF81AA00DF119078DF81BA083468DF81DA04FF480620346B04E2E
:201910008DF81CB010203146009704F07FFD0DF11A0040F2024200905B463146102004F05E
:2019300075FD0DF11B003146009040F203425B46102004F06BFD07A8314640F206425B4620
:201950000090102004F062FD0DF11D0031464FF483625B460090102004F058FDC4491020C3
:2019700004F054FD20780DF053FFC2490246102004F04CFDC04910204FF0FF3204F046FD8B
:20199000BE4910204FF0FF3204F040FD04F12400A86028780DF03CFF0246687805F126071B
:2019B00005F1160105F10C0600900823019110200297B349039604F029FDB24904F130021B
:2019D000102004F023FD20780DF022FFAE490246102004F01BFD20780DF01AFFAB49024698
:2019F000102004F013FDA069514676A30A460EF0C6F8DFF8B082E069A94A51464FF0FF3391
:201A10000FF028FF061CF6D0CDF810A005A806A904AA0DF077FC78B9BDF81400102807D1AF
:201A300020789DF81810884202D1049800F03CF9049808B10FF0F9FAF00FC0F08A8082E081
:201A5000256A28460FF002FF854208BF574602D087680DF069FA381C75D03888401E69D03D
:201A7000401E55D0801E3FD0001F19D0083867D17868A58903783BB1CDF80080A0690421BE
:201A9000524653A30EF07BF88449CDF8008010202A46534604F0BAFC78680DF045FA4FE0F7
:201AB0007968BD78A2690878ADB1012D0CD0022D07D0032D16D1002808BF49A30CD04DA349
:201AD00007E078B951A307E0002808BF53A303D056A3009000E05AA31046022152460EF0D6
:201AF0004EF879680846D8E77D686A88914527D0694910205B4604F089FC08B368682988C6
:201B10000DF076F86A886349102004F07FFC17E0B878FEF78BFA13E008020020AD0C010095
:201B30009D0C0100B01E0020B1EA00000E0005800E000010786800F0B7F878680FF075FAE4
:201B500038460DF0F1F9206A0FF07CFE00283FF477AF2078710816D35146574661825246E3
:201B700084F806B0A38A2782A589E281191FADF816100DF04DFE464900900DF116032A46CB
:201B9000102004F043FCB008FFF435AFA9F101000EF034F8A069042152462DA30DF0EFFFFD
:201BB0005046607127E7C046AD060100C30F01005416002041F100000227010075C50000F3
:201BD00001490000424C452043656E7472616C0050617373636F64653A20256400C046C014
:201BF000426F6E642073617665207375636365737300C046426F6E6420736176652066612B
:201C1000696C65643A20256400C046C0426F6E64696E672073756363657373005061697207
:201C3000696E6720737563636573730050616972696E67206661696C3A20256400C046C00E
:201C500050616972696E67207374617274656400436F6E6E2E2045737461626C69736865B3
:201C70006D656E742054696D656F757400C046C0D9B20000010F010039FF0000BD01010040
:201C9000CDD7000031040100518801103181011075F1000025AB0010B17F0110ADF3000086
:201CB000030000C040E201002DE9FC470546C74C28786179913800F0A9811F3800F04C8106
:201CD000203840F0BB81A97894F80180A069002900F03581491E00F0B980091F0FF2203918
:201CF00077D0491E00F0FE80491E00F0F680881F40F0A48195F80490B8F11E0F05F1050AF3
:201D10001EDAB8F1000F0CD004F1DE0746465046394606220EF01AF990B1761E07F1080797
:201D3000F5D151460B6804EBC802DC32901C03608988818008F1010782F80190FEB2667049
:201D5000E878042800F07A812869BDA10DF068F8002808BF00200BD00A46102710F8013BFB
:201D70007F1E02F8013BF9D12961102101202973A778002800F06281D5F8109095F80C809E
:201D900095F90BA01E2F80F259816FB120463E4600F22C554846294642460EF0D7F8A0B141
:201DB000761E05F18105F5D107EBC71049464246001900F22C55284608F0C8FC7F1C85F88F
:201DD00080A0F8B2A070BDE8FC8785F880A0BDE8FC8704F168000FF07AF96F78A0692FBB83
:201DF000022666716989A181678A0123637227B904F144000FF069F9A0693146002293A384
:201E10000DF0BDFEA669281D0BF0CAFD03210022034630460DF0B3FECE49A289102004F0CB
:201E3000F5FA0820FEF702F9BDE8FC8700264FF6FE71667188A33246A1810221A6710DF0B6
:201E50009EFE687803214B46009075E06978002935D14FF0000884F804800EF0E9FF4FF0E0
:201E7000FF30BD4FE070A67897E803001FFA80F91EB3474604F22C564546CDF80090A069D6
:201E9000E9B2424678A30DF07AFE0096A0696D1C424676A3E9B20DF072FE96F9800000900F
:201EB000A0696D1C424672A3E9B20DF068FEA0787F1C81366D1C8742DFDB404644E012298A
:201ED00004D00C2914BF6BA36CA300E070A3032100220DF054FEBDE8FC87E97871A3009143
:201EF0000221F5E7002666714FF6FE70A081A6716682042766724FF0FF33A772A888E370F3
:201F10000CF0D0FBA06902216BA332460DF037FEA8790090A06903214B4632460DF02FFEF5
:201F3000A069394632460EF089FFA069062132460EF084FF052164A3A0693246C9E7698992
:201F5000A1820EF075FF0020012121716070A0700CF09CFFBDE8FC8702294AD16978A06939
:201F700016293FD029790B2929D0012902D1297A0A2924D02979132915D0012902D12A7A09
:201F9000122A10D07E290BD07F2906D0A07900282FD0284605F040FD2BE029894DA323E085
:201FB000297A50A320E0012907D0E17951A3491CC9B24A1EE171D1B20CE052A309E02979A3
:201FD000012905D0E968097852A303E00802002054A3297B0091002204210DF0D0FD0020C1
:201FF000607206E0297953A30091002204210DF0C6FD297905F10800FEF7DEFABDE8FC8754
:20201000526561736F6E3A20256400C068780E3803D0801E0ED0BDE8FC87A88841F205415F
:2020300081420BD1A86890F903000090A069042145A34DE70820002105F02AF8BDE8FC87F3
:202050005441524745544445562D00C0436F6E6E656374656400C046436F6E6E656374205A
:202070004661696C656400C025780A0025730A0025640A004552524F5200C046434F4D4DB3
:20209000414E4420444953414C4C4F57454400C0494E56414C494420504152414D4554451F
:2020B000525300C0506172616D205570646174653A20256400C046C0446973636F6E6E655B
:2020D0006374656400C046C0446973636F766572202D3E004D54552053697A653A2025642C
:2020F00000C046C046432056696F6C617465643A2025640057726974652073656E743A2007
:20211000256400C05772697465204572726F7220256400C052656164207273703A202564F4
:2021300000C046C052656164204572726F7220256400C046415454205273702064726F7061
:2021500070656420256400C0525353492064423A2025640095AE0010E81200502DE9F04FF1
:202170000F46CD4C0168E16241688068ADF11C0DE060C548A1608047C448E16A0160A16807
:20219000DFF810A34160E168DFF804938160CE49002FA346C1606FD03D68E8788DF80C0047
:2021B00028798DF80D0003A80FF048FBA86808B1C6490160E86808B1C5490160C54C28788D
:2021D00020706878BE686070A878B268A0703178A2607368E1702E696360EA692662796852
:2021F000E2620868E06068696062A8697B68A062286A9E68206395F8240084F834001EB9FF
:2022100000200EF0C3F900E066617868C06818B900200EF0BBF900E0A0617868006918B987
:2022300000200EF0B3F900E0E0617868406818B900200EF0ABF900E0206128692062F868B4
:2022500081680E6806B9D24ED0494FF001084E60C66881F8018036B900200EF097F94D46C9
:202270002E68F86801E04D462E6000685446FB68A0615868E06107E000200EF087F94D46D7
:202290002E684FF001085446361DC7493668621C04F114035020B04710B1286880688047C4
:2022B000DBF808008047C24E002781463B46BF487770694620610422337038460CF00CFC84
:2022D0000098B0F5801F0CD020B90DF0D5FB05F017FB08E00BF0C2FD0EF042FC0420708097
:2022F00001E00DF0C9FB3846BA4EA0602B68B760986980477060AF4880F800803946418035
:2023100014200EF003FDFF211422A0620EF0EDFEE01CFF2102220EF0E8FE14200EF0F6FCF2
:20233000A54F38603868002114220EF0DEFE002000F052F940460CF0A5FAA0480188FF291B
:2023500006D1022101807822001D00210EF0CDFE03200FF06FFA04200FF068FA05200FF01D
:2023700061FA06200FF05AFA07200AF08DFE944E0820307006F124000FF04CFA0BF0F4F8DC
:2023900006F1360A05200A2152460EF039F838B10020C0F10901401C0AF8011B0A28F8DB9C
:2023B0003078102107F0E8F82B68864909200DF10E025E68087001AB10200021B047A06A88
:2023D000E1690A260A309DF80E20761E00F8012BF9D1891EE161DBF80C104846884704F1CA
:2023F00020002B68626A059040461E69DFF8D88104F120034146B04710B1286880688047E6
:20241000B8460DF0C3FC5FEA000903D007F078FF4FF0FF39002643E00298216910F8062C41
:20243000A0F10C07032A03D1002939D0884737E0A16A9DF810C00A223046491E11F8013F0D
:202450009C4506D0521E00F10100F7D14FF0FF0A01E05FFA80FA2868BAF1FF0F00F108004D
:202470001CD038790CF06CFCB979012904D0022904BF0299887001E0029908700299504675
:202490000DF004FF0CE0C04641490010F84400206822002070200020301C0020006880474F
:2024B0002868C36904A902AA0DF10F0098470028B2D0D8F800007700C35B6BB9761CF6B29E
:2024D0000A2EF8DB2BE0C046EC18010055F900009D070100401F00200A2E20DADBF808004C
:2024F0008047D8F80010002231F807A0CA53DBF80C108847354850F82620267051463046AA
:2025100090470646FF202070DBF808008047D8F800107A5A16437E52DBF80C1088470DF09F
:2025300035FC0746B9451AD007B9294FE069B84238BF071CDBF80800804781462868016A2C
:20255000206A8847626A28681F49059B521C6262C6683846B047DBF80C1048468847A7687E
:20257000296860691431AFB9D8F800000A270026835B33B10969606988472968D8F80000F0
:2025900014317F1E06F10206F2D107E0C0210020B7D20000096988472968143109684FF04F
:2025B000FF3088472DE7C046A5FF0000A50801005C22002058220020242C0020CC1C0020F1
:2025D00094180020342C002089ED00009C2501008EC2F528C42B00202DE9F84FDFF8BC13E8
:2025F000DFF8BC23DFF8BC5308700821002010600D23DFF8B40340F2323201704380828074
:20261000DFF8A8030560AC7EDFF8A4030470FF2CE97E417008BFFF292A7F82706B7FC370BD
:20263000AE7F0671ED7F457115D1FF2A08BFFF2B11D1FF2E08BFFF2D0DD1DFF878130A7800
:2026500002704B7843708A788270CB78C3700A79027149794171DFF860130278DFF85C8334
:20267000DFF85C93DFF85C730A70FF2543784B7082788A70C378CB7002790A7140794871F8
:2026900088F8005088F8015088F8025088F8035088F8045088F805500020CB490880D9F8AE
:2026B0003440CA49607808702278C9493A70A0780870A2681079C74A411E1170E078C64962
:2026D000C64A0870E068106008B90DF05FFF2069C34E306008B90DF059FF3068DFF804A338
:2026F00001688847326852F8041F50468847BE48BE49CAF82000CAF824106069BC4908600B
:2027100008B90DF043FFA069BA49086008B90DF03DFFE069B849086008B90DF037FFDFF8BE
:20273000DCB2B74C9BF804000EF0F0FA0028206075D09BF80500B34E0EF0E8FA002830605B
:202750006DD09BF80600DFF8C0A20EF0DFFA0028CAF8000063D09BF807000EF0D7FAAB4909
:20277000002808605BD039789BF80000891C484380B20EF0CBFAA649002888604FD0387857
:20279000002862D0BBF80210484380B20EF0BEFAA04A0028506042D038780EF0B7FA9E497D
:2027B000002808603BD0387840000EF0AFFA9B490028086033D03878182148430EF0A6FA4E
:2027D000974A106058B3387840010EF09FFA9549086020B3387800010EF098FA9249086068
:2027F000E8B1387800010EF091FA90490860B0B13878302148430EF089FA8D4A106070B1DF
:202810008C483978007848430EF080FA8A4A106028B138780EF07AFA8849086018B9BDE8BA
:20283000F14F05F009BF4FF0000B09E00EF046FA0021418081600180022303710BF1010B35
:2028500039785FFA8BF08842F0D32268694F0120107121680D732068457321688D73206818
:20287000C57321680D7400212068457400202268D172A0222168487103212068C280017252
:202890000720226850720021206881722821206801224182C2760020216848770022206818
:2028B00080F85E200121226811770120216881F85D0001223068027131680D7330684573C7
:2028D00031688D733068C57331680D7400213068457400203268D1720022316848713068EA
:2028F00082724FF420703168C88008818A7401213368D974DAF800201573DAF800104D7373
:20291000DAF800209573DAF80010CD73DAF8002015740022DAF800104D740121DAF8003027
:20293000DA720023DAF800201171DAF800104B71DAF80010C88008818B720520DAF800203F
:202950009374DAF800103E4AC874106880473968054608688047396851F8042F0020904744
:20297000D9F80C101C4B0A881878364902430A802846354A136898470C2134480EF046FF50
:2029900040460EF03FFF0EF039FFBDE8F44F034800784FF4005106F0EFBD00BF6E4F0020B2
:2029B000044F0020B63F0050604E0020084F00202C4E0020E81200503C4E0020344E0020DA
:2029D000702801007B4F00200C4F00206D4F00206B4F0020724F00206C4F0020F04E002019
:2029F000F44E00207C4B00201D0D01003D0D0100F84E0020FC4E00209C2A0020A821002069
:202A1000104F0020144F0020184F00201C4F0020D02B0020684E0020004F0020082C0020DE
:202A3000804E0020844E0020884E00208C4E0020904E00207F2200200C2C0020102C002043
:202A5000381C0020544F00203C1C0020F84D00202DE9F047CD4C20780E46F10BADF1280D31
:202A7000C90340F08480B00871D2E069216A72080ED2F00828BF86F0040680F096817009BE
:202A900004D308F0FFFD86F010068EE100208DE1858861B904F11600C64A00904FF6FF714B
:202AB000022301200EF0A6FE0146216219B304A800900027019702230293FF220392E28AB1
:202AD000284608AB02F072FE58B99DF821009DF82020216A12EB002204D0498928460BF00E
:202AF000C7FB216AE28A08463B464FF6FF710EF07DFE01462162A069002918BF86F00106C0
:202B10002CD168B14368E1695BB18888002201219847A069E7694368B888032100229847F2
:202B3000E16988880EF05EFE04280BD10BF060FD021C07D0A06928B143681BB1E0698088D2
:202B5000042198470DF014FD86F001062DE10020014603F01FF818B186F00206012102E00C
:202B7000022186F00206207806F006FD1DE108F001FA5FEA000800F01681054628784FF020
:202B9000010AB03800F00481401E00F0F7801F3840F00381A878801F00F0EC80C01E00F004
:202BB000D280401E4BD0401E33D0401E00F0DD80801E40F0F580687806281FD1B8F8040039
:202BD0000EF00CFE071C19D0A07B401E12D0401E0ED0401E12D1002140F209400A4601F01C
:202BF00087FEB8F80410387805220EF0F3FD05E0A988F8E7A888797903F06CFAA069002816
:202C100000F0CE804368002B00F0CA806A78022196E00EF06BF8002800F0C280A06948B11E
:202C300007683FB12869009069892A7B6B7BE81CB847B5E0688951460EF0C8FDB0E0687834
:202C5000002700286CD1A879400869D3E069002866D10DF1120039460E220EF046FAA8885E
:202C70000EF0BCFD071C00F09B80686948B97879B91D06228DF818000DF112000DF022FED4
:202C90001DE0D5F8149099F81000062209F111018DF818000DF112000DF014FE07F10C0021
:202CB000B91D06220DF00EFEB81D062209F111010DF008FE99F8100040F002007871A87914
:202CD000C00839BF387900F0FD00387940F002003871A879000939BF387900F0DF003879A7
:202CF00040F0200038719DF81F10A879C0F3800008438DF81F00A879000905D39DF81F000E
:202D100040F008008DF81F000DF11200414602F041FF20B92078022106F02EFC43E01527EB
:202D3000A06900283CD04368002B39D0A8886A7851469847002F33D0A06903213A46436855
:202D5000A88898472CE0E878291D002206F044FE0A2825DA410001EB800005F10C02253011
:202D70000421C0B205F0FAFA1AE0A888297B07F067FB15E0A8880AF0C3FD11E02F7967B904
:202D90006888E9882A890BF073FA06E094180020297905F10800FDF70FFCBAF1000F02D0CA
:202DB00028460DF063FA86F40046B0B20AB0BDE8F087C046202901002DE9F84FC24DDFF8B0
:202DD0000C832968DFF808A3887C0DF0A1FE044628680021417104F12E062868BD4D0BF036
:202DF0009DF90120607104F5937998F80100401C88F801001827802008F002FD20606969A0
:202E1000C160B548018949007180C079B1884000307049003089B1800001308131462046AC
:202E30000EF0D0FC0520A08120460EF0C7FC28680EF0C0FC062210F8081FC1F3801189F8E4
:202E50000010811C04F590700DF03CFD2968A34D0A680020107141F60202A1792868794351
:202E700042520021A3797B430344001D5980A2797A438150012120460EF098FCA279296807
:202E90007A430A449073A1792868794301440020C873A1792A6879431144887BF072DAF81A
:202EB0000020A079296802EB40137843084414310361A0798A4A78430A50A0790EF072FCC1
:202ED000A179DAF8002049015050A1794B01D05820B9072120460EF0EDFCF0E0DFF804B2B3
:202EF000DBF8000000EB01100EF058FCA179DBF80020DAF80000DFF8F0B102EB0113021D2A
:202F10004901535004F16801A3795B01D2580A60A3795B01C2588A60DBF81410097894F8CA
:202F300006E0CA074CBF102200228B074CBF202300235FEA417C4CBF4FF0400C4FF0000C81
:202F500009074CBF802100211A434CEA020200EB4E100A4342F00F020272DAF80010A079A5
:202F700001EB40120B215172DAF80000A27900EB421104208872DAF80020A17902EB411081
:202F90005A4A1378012B02D10121C17203E0DBF828100A78C272DAF80000A279636A00F14F
:202FB0000C0152018B50A17900EB4110A16A0174DAF80000A27900EB4211A06A000A4874F5
:202FD000DAF80010A07901EB4012A06A000C90740821474A107806F0CFFA2168A279286859
:202FF000CB687A4302449360CA68CB680A618B6000F10C02A17979430C30535C03F0EF0338
:203010004354A0792968784301F10C020C31135C03F07F030B54A0792968784301F10C02BF
:203030000C31135C03F0F00343F002030B54A27928687A431044417B01F0F00141F00101CA
:203050004173A079B688DAF800204FEA401C40F6C4104643DBF83000016802F11403761A35
:20307000A6F5167643F80C60A07902EB4010C17C01F0F00141F00401C174A179286822685E
:203090004F43C1195160B9F83A001B2804BFB9F83C001B2809D1B9F83E00B0F5A47F04BF8E
:2030B000B4F86601B0F5A47F03D014212046FDF765FD104908200870A27988F80220BDE806
:2030D000F14FFDF77FBD00BF184F0020684E0020844E0020AC4B0020844C0020804E00206D
:2030F0005C4D00208C4E002070280100734F00206E4F00206F4F00202DE9F04F09AFADF11C
:203110003C0D08900A92388809911E46ADF81800101C08BF002000F07581017800274FF0CF
:20313000010B401C4FF0FF39B846DA460A9061E1252940F056810178401C0A902D2918BFB5
:20315000ADF8068004D10178ADF806B0401C0A9030291CBF4246434604D10178401C5A4606
:203170005B460A902A29CDF800804D4617D1049330680A9BCDF80890C01C20F00300001DB4
:20319000306050F8044C1978002C009403F101000A9018D5ADF806A06442009413E0444628
:2031B0000AE0600000EBC4004018A0F130040A9801780094401C0A90302901DB3A29F0DBE1
:2031D000CDF8089004932E2929D10178401C2A290A9011D13168CDF80880C91C21F0030116
:2031F000091D316051F8045C002D48BF454601782B46401C0A9011E0454643460AE0680069
:2032100000EBC5004018A0F130050A9801782B46401C0A90302901DB3A29F0DB02930AB19B
:20323000224604926C2904D04C2918BFADF8048004D10178ADF804A0401C0A900BA8CDF89D
:203250000C800FAB07906429059300F0828069297FD0BDF818C075296DD0782969D06F29AF
:2032700065D070294ED063293ED0732922D00A98401E0A90099801281AD966490C68B5F10A
:20329000FF3F03D0A84288BF6D1C05D86FF00041814294BF0D1C099D029508A80AA932467F
:2032B0006B46A04709993F18091A0398099165E0454617E03068C01C20F00300001D30601A
:2032D00050F8040CBCF1010F014608B94FA0014607910DF04FFC0390B5F1FF3F4FD0A8422B
:2032F0004DD9039528464AE03068C01C20F00300001D306010F8040C8DF82C005D46039530
:2033100058463CE0082035680490E81C20F00300001D306050F8041C082210230FA808F052
:2033300003FF401E079040210170079823E0082302E0102300E00A233068C01C20F003003E
:20335000001D306050F8041CAA42BCBF2A1C04920DE03068C01C20F00300001D306050F89C
:20337000041CAA42BCBF2A1C04926FF009030FA808F0DAFE07900599081A0390009C241A24
:20339000BDF8065000945DB906E008A8202109AA0CF0B4FB7F1C009C641E0094F5D5039881
:2033B000401EB0F1FF3F03900FD1BDF8060001281CD10098401E009018D408A8202109AA66
:2033D0000CF09CFB00987F1CF4E70798017809AA08A80CF093FB0798401C079003987F1C6F
:2033F000DEE708A809AA0CF089FB7F1C0A980178401C0A9000297FF49BAE089808B14146A4
:20341000017038460FB0BDE8F08FC046286E756C6C2900C068280100BB482DE9F84F0025E2
:20343000BA4CB849056094F8E200002800F06581012800F02F81B64E02283CD0032840F046
:203450005C8151F8250CD4F8B8100029A0F5C060C4F8D400B8BF49420028B8BF404281421D
:2034700026DA4FF08057D7F8A4014568B4F8BC0030214FF47F42082300903046A847D7F859
:20349000A4014568B4F8C00004214FF4F802122300903046A847D7F8A401B4F8D0704568C5
:2034B00020214FF440620A2330460097A847012584F8D8501CE151F8258C0DF0C5FC2F46B9
:2034D00000B901273946934F38680028FCD0B146012609F10409D9F82CA03E6009B10DF0EF
:2034F000B9FCCAF30720C4F8BC000DF0ADFCAA4600B9B2463B68002BFCD0D9F800B0BAF19E
:20351000000F3E6001D00DF0A5FCCBF38440C4F8C0000DF099FCAA4600B9B2463B68002B80
:20353000FCD0D9F81C90BAF1000F3E6001D00DF091FCC9F38120C4F8D000B8F5C061C4F80C
:20355000B81000F09C8094F8D80068B9C4F8D410D4F8C000C4F8C800D4F8BC70C4F8C4706A
:20357000D4F8D030C4F8CC30D4F8D400D4F8BC30002854BF02226FF0010204F1C8010F6869
:2035900000EB40008018421000EB927207EBA2000860D4F8C810C4F8C43000291CDD1E295E
:2035B0003CDDD4F8CC0030B93429B4BF15391E21C4F8C81025E02A29BABFD4F8C8000B38C8
:2035D0001E20C4F8C800D4F8C4003F28B4BF401C3F20C4F8C4001FE0D4F8CC00032812D0D0
:2035F00011F10B0FC6BFD4F8C8000B30301CC4F8C800D4F8C4000028C4BF401E051CC4F805
:20361000C450032508E011F1150FC6BFD4F8C8001530301CC4F8C800C4F8CC504FF0805734
:20363000D7F8A401B4F8C43030214FF47F424568374800930823A847D7F8A40104214FF45C
:2036500000321123456832480096A847B4F8C860D7F8A40104214FF4F802122345682C4848
:203670000096A847D7F8A40120214FF440620A23B4F8CC60456826480096A84701E084F819
:20369000D85040F2FF50404502D8801C40452FD2082030E051F8251C1F4F4BF2F5204843E3
:2036B000060A3868C0F3814001280CD11B480068006880470AF0D8FF0DF0D2FB3111C01029
:2036D000484306EBE03694F8E50030B91448006820F07F403618760801E084F8E5501148A4
:2036F000310C0660012741600F4D8760287808B90B2000E0052084F8E40002F051FFBDE833
:20371000F88FC0462D400C402C500C401C1B002000A00C4000800C40B43F0050EC0100103C
:20373000102009403C600C40452701002DE9F843B748B84D0178002984B04FF01D0807D045
:20375000052908D0062900F0A780072918BF082900F05B8153E1B04E3068016801F10807D5
:20377000387810F00F0F1CBF00F00F01062908D000F00F02022A1CBF00F00F00012840F029
:2037900044810622B91C68460DF09CF83878A34CC0F3801900F00F0001283BD1062207F1D9
:2037B000080102A80DF08EF83F78FF0902A938460DF0F0FFD0B12068807C022818BF0328BE
:2037D0005DD105F10D0102A80BF090FE002856D021680120C8720622707940F0040070711C
:2037F00002A920680C300DF06DF813E02878874210D10622691C02A80CF028FD50B1287892
:20381000717960F38201717106222068691C0C300DF058F8694648460DF0BCFF00282ED01D
:2038300070696946001F0DF0B1FF002827D1294668460DF0A7FF01462068807CFF291FD062
:2038500008FB01F16C18002818BF02280BD0012818BF032813D16A5C7069611C001F0DF094
:203870008DFF10280BD070696B46E21D2146001F0DF080FF06226946E01D0DF023F8C4E07E
:20389000002818BF0228FAD1706901234A466946001F0DF06BFFB8E0614E3068016801F128
:2038B0000807387810F00F0F1CBF00F00F00012826D10622B91C68460DF004F83878DFF8F6
:2038D0006491C0F3801400F00F00012846D1062207F1080102A80CF0F5FF3F78FF0902A930
:2038F00038460DF057FF20B3D9F80000C07A022818BF032804D105F10D000DF033FF0028AE
:2039100078D105F10D0102A80BF0F0FD002871D0D9F80000062202A90C300CF0D3FF7079B8
:2039300040F004007071062202A9E81D0CF0CAFF14E02878874211D10622691C02A80CF033
:2039500085FC58B12878717960F3820171710622D9F80000691C0C300CF0B4FF694620460D
:203970000DF018FF002845D0294668460DF00AFFFF283FD0D9F8001008FB00F7887AEC19AB
:2039900020BB887C0DF0C4F8814699F82601022818BF032800D068BBE95D00F001008142E7
:2039B00028D109F5907506222946601C0CF04EFC00B3012089F826010622717941F00801DA
:2039D0007171284669460CF07DFF0EE03069EA5D611C001F0DF0D2FE10280BD030696B46CC
:2039F000E21D2146001F0DF0C5FE06226946E01D0CF068FF31680A680020107105E000208A
:203A10000CF0C4FD86200DF0A9FE05B0BDE8F0836F4F0020AC450020D04B0020144F002015
:203A3000AC4B0020184F00202DE9FC47DFF8C8A20F460546F80B80F00F81AA4EDFF89882B2
:203A5000B80F80F0C180B80880F0B5803809C0F036819F480178090980F0A880007830F02F
:203A70007F0040F0A380684606F038FD012803D10098002800F09A8096480078002840F016
:203A9000958001240025E8B20DF024F848B1837A3BB1847290F9090004FA00F0C0B20BF03F
:203AB0008BF86D1C032DEED345464FF0030905F1AC0085F810900DF0E2FA884900239846B9
:203AD00008680B6051F8080C41F8088C84491A4605F134000DF0DFFA3068006B8047AA68C8
:203AF000A969801A000BC0F1FF328A422CBF01444FF0FF31A961287F20B1E868A969B1EB32
:203B1000C02F25D90CF012FB414600B12146081C1BD0754840F60901018043464380417B6B
:203B300004F00F0221F00F010A434273017B03F00F0621F00F0146EA0102027343600DF060
:203B50009DF8418811F4406FFBD02C774346AB616649086820F0020040F400700860644A55
:203B700042F8049C41F23006966014605023936014604FF4CA6696601460022042F80C4C1D
:203B900044460C600BF038FA112005F055FD287818B9686838300DF08AFA687F18B16C77BD
:203BB00005200BF029FA534868612C7409F03EF827F0080783E004F0B7FD404674300068BC
:203BD00008B927F002077AE00DF05FFA34468146606D0068014604208847C8B1287CB8B10E
:203BF0004046083006689EB12068EC68006B8047801BE860010BE960A14202D209194908CA
:203C1000E96040F6C41088422CBFB1F5FA7FE86048460DF09FFD0AF0B3FF90B1A8696FF49D
:203C3000807100224FF0007304462846A04740466C300068002808BF47F0020701D008F08E
:203C5000F5FF686900214FF0806304460A462846A04727F0005732E00DF017FA51460E68C2
:203C70004EB306F1280106C90A234FF0E0450B40154008BF002B1ED106F1280191E8300069
:203C900006F1280393E8060006F12803AA43A14383E806000DF05EFDB16871B1002D08BF86
:203CB000002C0AD03069B6F93C10B2682B4616462246B04701E00DF04DFD27F4804727B132
:203CD0005046394650300DF0FAF9BDE8FC87C0462C2C002021240020882200201410044012
:203CF000F1C900008C0100108C2B0020000004600C4104403993000008230020FEB5934EE6
:203D1000934C3778934A944D944B95490D2F41F2064000F21281DFE817F018011001100147
:203D3000100110010E004F0010019400CF00CF00ED00ED00F4008B494E881E8015607EB3F5
:203D5000761E32D0761E2BD040F20243F61A24D0761E25D040F2FB33F61A17D04FF44063ED
:203D7000F61A1DD0761E18D0761E012E18D9361F13D0761E14D0761E0FD04FF47E73F61A9F
:203D90000ED0761E09D0F61E07D010E04880887B25280CBF2720401E88737349116084E0D9
:203DB00000200CF0F3FB85207DE08F207BE000200CF0ECFB842076E06C494E881E80156042
:203DD0009EB3761E36D0761E2FD040F20243F61A28D0761E29D040F2FB33F61A1BD04FF4AB
:203DF0004063F61A21D0761E1CD0761E012E1CD9B61E0ED0B61E15D0761E16D0761E11D07D
:203E10004FF47E73F61A10D0761E0BD0F61E09D012E0574807E04880887B25280CBF272070
:203E3000401E8873534810603FE000200CF0AEFB852038E08F2036E000200CF0A7FB842046
:203E500031E04D488178FF2953D0156018204B4D41432868861C40F20447755A1D80ED1B7C
:203E7000012D474B71D94FF47F77ED1B11D04FF44067ED1B11D0AD1E012D84BFED1E012DBE
:203E90000BD9AD1E012D60D940F2FD37ED1B06D103E0801C41F202454552136005E00020AF
:203EB0000CF074FB85200DF059FC207803B0BDE8F040012105F060BB40F20442488818805E
:203ED00090421CBF41F2084290423ED041F60402904211D12B4C2C482C4B00680025CDE932
:203EF000004502222A4C256855F8086FB04729490880F7BD4888188000200CF047FB852072
:203F10001FE04888188002280DD940F20442801A1BD040F6FC72801A05D0083815D04FF4A2
:203F30007F72801AE8D1887B801CC2B2B52AA8BF6620887300204880F7BD00200CF026FB7A
:203F50008420BDE8FE400DF009BCF7BD6F4F00206E4F0020204F00205F100100504F0020DB
:203F7000CC4C00209C4C0020F5AE00006C4C0020C92D000065AE0000684E0020804E0020A9
:203F9000B955000002000080EC4E0020A5F00000F04E0020424F00202DE9F04F8246DAF894
:203FB0000070DAF804600C465FEA0208ADF11C0D14BF00214FF0FF31DFF8449248460CF045
:203FD0000AFE002818BF0B2040F01681002590488D4905708B48FC6052460DF05CF8317BCC
:203FF00027200DF05AF8B8F1010F07D0657002200BF01CFA06200BF019FA01E0012060707D
:204010002078012840F2AB80801E012868D9801E012833D9801E012800F2DF800DF035F855
:2040300083464FF0805000F5EE77D0F8DC01A378466A009321782846062908BF012001908C
:2040500001200290A068228AE1686368B047814658460DF07FFBB9F1000F40F0C080B8F130
:20407000000F02D00CF0FEFB02E050460BF0AEF8002800F0A4803868806A2AE00DF005F877
:2040900083464FF0805000F5EE77D0F8DC01012306680093A168A27860682478AC46042C6B
:2040B00008BF9C466346B047814658460DF052FBB9F1000F40F09380B8F1000F02D00CF076
:2040D000D1FB02E050460BF081F8002877D03868406880474D49C1F8B0510D6081467EE0B8
:2040F0000CF0D3FF83464FF0805000F5EE76D0F8DC01E38A87690093E0680190208B029006
:20411000A0780390207D04900121059122782846022A08BF081CE1786268A368B8478146E8
:2041300058460DF017FBB9F1000F58D1B8F1000F02D00CF097FB02E050460BF047F80028EE
:204150003DD03068006A80475FEA000947D13068C569A168E28A2369E078A847BEE70CF060
:2041700094FF83464FF0805000F5EE76D0F8DC01E38AC7680093E0680190208B0290A07869
:204190000390207D2946049001200590257805B9014608466268A368E178B84781465846A4
:2041B0000DF0D8FAB9F1000F19D1B8F1000F02D00CF058FB02E050460BF008F808B914203C
:2041D0001AE03068406980475FEA000907D1306802692169E078904780E74FF0FF39B8F160
:2041F000010F05D002200AF007FF06200AF004FF03480CF05CFF484607B0BDE8F08FC04674
:20421000BC1D0020F41D0020E5FB000050450240322C00202DE9F84F0D46E80788B00BD578
:204230000CF05CFD28B1002181608148006800B1804785F00100F7E028077E4C71D57E4942
:204250000A68907C0CF064FC064606F5907096F826A107904FF00008774801688A7CC146C5
:20427000FF2A04BF00200CF091F9079A514620460DF06CFA07461D207843009004EB000BCC
:20429000079950460DF086FAA8B1FF2F22D00098205C40F0020A0BF1010107910AF0010001
:2042B00086F826010622079906F590700CF00AFB0BF107080EE0079950460DF043FA0028F4
:2042D00018BFFF2F06D00BF10D000DF04BFA08B94AF0020A58480168C87A022818BF03282A
:2042F00006D104F10D000DF03DFA08B904F10709002006905346F18E090905910022B08E05
:204310000490718E0798CDF8088049080391CDF8049000900020B1790DF010FA85F0080072
:2043300082E0E8060FD5002100220023069105920491039302910192009102200DF0FEF9AD
:2043500085F0100070E0E80413D5E11D04F10D000DF0F0F939484268394800784FF4805186
:2043700009F042FF10B18E2007F00CFA85F480505AE0A80505D50CF067FD32490120086019
:20439000FEE7680504D505F02EFD85F480604BE0680405D5812007F0F5F985F4804043E016
:2043B000A90440D5284C206810B100200CF0EEF8264E4FF0FF3020600DF0B8F93168244C53
:2043D00051F8202F684690472249234B486A8A6A009001920293C86A0268086A0392ADF831
:2043F00010000A6B1178002904BF5068002805D19068002804BFD068002806D0217050689B
:2044100060609168A160D068E06021463468134A266813486B46B0471249086002F0EEFCCA
:2044300085F4005000E0002009B0BDE8F08F00BF204F0020AC450020184F0020784E0020FA
:204450006E4F0020FC002043044F0020F04E002068450020401F0020DD0C01002C4D002070
:20447000A02A0020EC4E00202DE9FE4F8A4C617811B900200CF08AF8FCF778FD06464FF07B
:20449000000806F6C4160027844DDFF8149211E038460CF03DFB417951B12A68817902F8D4
:2044B000081008F101015FFA81F831460DF03AF97F1CFFB299F800008742E9DB6178884550
:2044D00005D000200CF062F882200DF047F96078012840F0C380002701E07F1CFFB299F849
:2044F0000000874280F2B48038460CF011FB064670790028F1D02968B0790A7890421CBFB0
:2045100000200CF043F8B079A0E0286810F809000CF0FEFA00684268DAF80810906881423F
:2045300004BF3E4609F1010900F0A680A8E0286890F800B001224FF4C0710FE0636803F571
:20455000AD76835C01FB03F901FB0BFE36F809C036F80E60B44538BF9B46521CFBB29A42F1
:20457000ECDB4FF6FF700DF0D9F8064658460CF0CFFA4C490068D0F804A00868D94630F813
:20459000192060684FF4C07300F10E0103FB09F3C85AB2EBD00F52D2720840F6C4104243CF
:2045B00000920027404A0190029217E058460CF0AFFA01680A78802A03D1DAF81030009A34
:2045D0005A610978402908D1029980790A6802EB4011009800F5A060C8617F1C47452EDA24
:2045F0002868C05D8345F8D001464FF4C073594363685A1803F5AD73D289595A53088B428A
:2046100002D2521A9045E8DA0CF082FA01684A68019B9168DAF808207008A1F6C41103FBAF
:204630000020FCF7A7FC0028C0D01E48006830F81910491C20F81910286810F807B0194887
:20465000026800215B4622F813105846BDE8FE8F00200BF09BFF82200DF080F861782868DC
:204670000DF058F8286800780CF052FA00260068D0F804A04FF00109771CC145FFF645AFC8
:20469000F6B2002E1CBFF8B200287FF450AF286890F800B065E700BF684E0020004F0020FD
:2046B0007B4F0020082C0020844E002010B50B7884074CBF43F0020303F0FD0304064CBF9C
:2046D00043F0800303F07F0304074CBF43F0080303F0F70384064CBF43F0200303F0DF039E
:2046F00010F0AA0F0B7003D0107840F00C0003E018B9107800F0F300107010BD2DE9F84322
:204710000D4600272878022814461E4669D1696808784978DDF8208000EB012080B25FEA3F
:2047300008021CBFB0F5285F0B205DD14FF42851401A0AD0401E23D0401E4CD0401E27D0EF
:20475000401E2DD0A23846D04BE0DDF82490E8680CF0CDFC80B2A0EB08024A45BCBFA0EBD9
:2047700008001FFA80F909EB0800162806DAA6F800904A46E86800EB08010DE00D2732E040
:20479000E8680088022131802070000A60702AE0062030800622E96820460CF093F822E0AB
:2047B000E868B0B1082131800288227003881B0A63704188A1704288120AE2708188217112
:2047D0008288120A6271C188A171C088000AE07109E0308007E001213180E8680278227023
:2047F00001E0378001273846BDE8F2832DE9F0470F46814638780024022890461D4671D16F
:204810007868089E01784078DFF8E0A001EB002189B24FF42852891A08D0491E2BD0491E31
:2048300050D0491E3BD0A3395AD05BE0F8680CF05EFC80B2B04204D3A919162903DB0D24D4
:2048500051E007244FE0FB682A46414698190CF039F8AD19F868ADB2C5F1160200214019B8
:204870000CF043FCDAF8000000281CBF0268002A39D0002123E08EBB022DE0D198F800009E
:2048900098F80110FA6800EB01201080DAF8000000281CBF0268002A25D001210FE0EEB953
:2048B000062DCCD1F868062241460CF00BF8DAF8000000281CBF0268002A14D0032148460B
:2048D000904710E056B9012DB9D198F80000002813BF0128F9680870802404E00B2402E015
:2048F000032400E001242046BDE8F0871C2C00207CB58D4D144602460026A2F58062182A04
:204910001AD8DFE812F006010001F900F100EA00DF00D800D3001900C800C100BA00B10059
:20493000A60019009F007E006D00660052004A003D0035002B0023002A2880F2818002296C
:204950007ED121880AF0F4FB0646EAE0012940F0E780002C00F0E4801235AAE0102940F0D5
:20497000DF80002C00F0DC8005F15000102210E0012940F0D580002C00F0D280AD1D98E089
:20499000262940F0CD80002C00F0CA8028462622603021460BF096FFC3E0012940F0C0805B
:2049B000002C00F0BD806D1D83E0602900D13CB9012940F0B580002C00F0B2800D3578E0DB
:2049D00005F18600214660220BF07CFF01206873A7E0012940F0A48020780CF097FEA0E042
:2049F000012940F09D802078022800F399800C3528702078022814BF301C01200CF082FE0B
:204A10008FE0072940F08C80611C684606220BF0E7FD20786946324604F0DEFF04460A2C69
:204A30000EDA0CF06BFE38B9204602F00DFD0BF0C1F908F099FD74E02C350120285570E0E0
:204A500002266EE001296BD12178042968DA0E3550E0012964D1E87B21780028E97360D1DF
:204A7000207801285DD1E4E7012959D12178072956DB102954DC0B353CE0012950D1217875
:204A90000A294DDA093535E0012949D12178022946DA08352EE0002942D10CF02FFE10B9B8
:204AB0000BF0BAFFC3E70121103523E0012937D10A3521781EE0012932D1217802292FDA1C
:204AD000ED1D17E010292BD14035102014F8011B401E05F8011BF9D123E0012920D12178CB
:204AF00002291DDA2D1D05E0012919D12178042916DCED1C297014E0012911D12178022923
:204B10000EDAAD1CF6E702290AD120881435288007E0012904D121780229D8BF6D1CE9DDC8
:204B3000182630467CBDC046941800202DE9FE4F05467B48002400680094C00905D37948B3
:204B5000007810B920200AF075FB012D40F0E280DFF80092D9F8DC00012840F0D8800220B1
:204B7000C9F8DC000BF0BEFD01200AF063FB5FEA000805D00120C9F8DC000BF0BFFDCBE013
:204B90000CF099FAA34602906748684DC0F800B0A86A016801208847012804D1584607F031
:204BB00017FD012000906248624FC0F800B0386811200CF067F900B1012410200CF062F9D3
:204BD00008B144F002040F200CF05CF908B144F004040B200CF056F920B12868564E016B76
:204BF000308888470A200CF04DF920B12868534E016B30888847524801260660286881691C
:204C100044F0200088474F4806600CF035F900F001010191400814D2286A81684A488847AC
:204C30008246BAF1040FF7D0BAF1010F04D1286A42684548032190474449086820F00300B3
:204C50000860584600F088F82B683868986B8047019801280CD0BAF1010F04D1286A426867
:204C70003948314690473949086840F0030008602F48066028684169204688470B200CF055
:204C900001F920B128682C4BC16A188888470A200CF0F8F820B12868284BC16A1888884714
:204CB000274806600322C9F8DC20264BC3F800B02868416B204688470128F9D13868042029
:204CD0000AF0B8FA0446184806603868144800688009FBD30098012802D1304607F078FCD8
:204CF0000CF0B8F808200AF0A5FA07460298C9F8DC600CF0FFFC1648008807F0C5F80BF0C7
:204D1000FDFC57EA040018BF4FF0FF3804E06FF0040801E06FF001084046BDE8FE8FC046A2
:204D300014100940041C00200C400940B8010010000222432C200940EE230100EA2301003C
:204D500028200860800104430040034024220840402701001C1B00202DE9F84FDFF804B211
:204D70000746ABF13500DFF8F0810068800880F0E28075480068006880477E490831D1F8DE
:204D9000009000254FEA29715FEA995201F101010AD2C0F13E0210F10A0F4FEAE202D8BFB8
:204DB00008229142B8BF111C684BD3F87C21C2F30462162AA8BF203A1B68C3F30443162B4A
:204DD000A8BF203B9A465218162A05DA12F10A0FB8BF6FF0090200E015225D4B5D4E02F03F
:204DF0001F0141F4F8511980316811F0030F18BF0125C90828BF45F002050FB145F00405D1
:204E1000434693F90710411A052904DA9979A94208BF99886FD0DFF844E10F28A0F10F08F0
:204E300029DB08EB0011A1F1F0084FEA28210091072984BF07210091062988BF06215EF89E
:204E500021600424774604EB81043C594FEA950CA41BEE0804F0FF0124BFC4F30726314414
:204E70006F08AE0824BFC4F3074631446E0828BF01EB146104E000214FEA950C6F080091F4
:204E9000009C5EF824E05FEA5C060EF0FF0424BFCEF3072634447E0824BFCEF30746344428
:204EB0006E0828BF04EB1E64009E89B2A8EB06267143803104EB1124AAEB02010029D8BF9B
:204ED0000121342209F0FF074A4391B24FF6FF727943B1FBF4F18A4238BF111C802889B2A5
:204EF000998005DA10F1800FB8BF6FF07F0000E07F20D8719D711A4800681F2918604FF026
:204F1000000008D340F2FF128A4206D24908401C8A42FBD301E01F219980134F0F39090982
:204F300040EAC10047EA0001CBF8FB1F0026CBF8FF6FBDE8F88F0D490D4F434608200F6012
:204F50009B1D1870BDE8F88FEC0100103C1100506E62084024220840002C00209C1300504A
:204F7000082009403500094000E7A48030100940FDFDA400AC3F00502DE9F04F0446754869
:204F90008A46016894461F46BAF1000FADF13C0D4DD0BCF1000F4AD09AF800200120904052
:204FB000014244D0BCF80000B0F5C15F32D1DCF81430DCF818206848DCF81C104FF0030EEA
:204FD0000DF128080B93DFF894B10C9200680D91C0F3036958F8046FCEB10021351F05203A
:204FF0000B4655F8042FB2F1FF3F10D0934506D0401E01F1040103F10103F2D107E0052B3A
:2050100005DA705820F4702040EA09407050BEF1010EDFD1C4F804A0C4F808C00CF035F887
:205030004F4D8046287820B140460CF093FB00208DE002F03BFB4B49086840F0020008602A
:2050500007A80BF033FE002605F1D00007AA4649099609F063FB454905F5827007AA09F01F
:205070005DFB07A80BF0E2FDFF2105F1340007AB3F4A0891192109F07DFA3E4A05F15000A9
:205090001A2107AB09F076FA3B49324605F18800134608F0BDFB3949324605F1AC00134632
:2050B00008F0B6FB364A05F12000042133460AF0E1FD0E2004F0EAFC05F174000BF0D8FCEA
:2050D00005F16C000BF0D4FC2E74072085F898012E77AE616E770523AE602B49EB602A7884
:2050F0006961501C2870274B1E7040460CF032FBB1464FB92548B0E88C106946A1E88C10AF
:205110000DC86F4681E80D0038682060398A6182012060747B6813B940F6C4130646E36079
:205130001B48A06126746061F86800B1A061B86800B160615822494604F1200006F05CFC90
:2051500004F1380049460AF0D1FB20466C600FB0BDE8F08FD4210840541300500200F84476
:2051700088220020002009403D070100D1900000F1C9000085C700001D010100D904010043
:205190003DDB00002C2C002039930000C826010087AB00002DE9F04F054680480668006844
:2051B0000F461C469246C4F399018900ADF12C0D0A010021803206F01FFCDFF8C891A9F1E6
:2051D000880002466E48016830469047A3088046610801979F1C21F00101F819009506EBAC
:2051F00080000390091DCDF808A07818434506EB800206EB870B3844049206EB80000690D2
:20521000C4F39C004FEA800000F1080007EB400000EB070206EB82020A9224F0030202F136
:20523000080200EB020506EB85053A44059506EB82050A4407953A4406EB8202089206EBEF
:2052500080020992084406EB800A384406EB800518BF6FF0010040F08F8009F16800024648
:2052700041463046904700233CB10199264611F8010B761E40EA0303F9D1002B08BF01207E
:205290007AD000263CB10299234611F8010B5B1E40EA0606F9D1002E08BF02206CD0019922
:2052B0005846C84703980299C847009881680498C8473548049A594681462846C847012899
:2052D00003D14FEA88042E590EB1032054E0BE0028460021324606F08FFB0399049A28469B
:2052F000C847012801D12F590FB1042044E0274F274C069859463A46A047079803993A46BC
:20531000A0470699089827460A46B84709980899069AB8470A9806991E4C2246B84728463A
:205330000021282206F068FB1B4809990A9A81462846C8472034284622460146C84707998C
:2053500050460A46B84705980021324606F054FB5FFA88F45046002C0CBF01225FFA88F285
:2053700000216B5C445CA34218BF052004D1491C521EC9B2F5D100200BB0BDE8F08FC046C4
:205390008C4F0020B9DB0010C9DE0010A4200020F9E00010E0240100C9E60010884F00201F
:2053B0002DE9F04F0646880FADF1140DC0F0E580734D281D006841688F68CC68486800B12F
:2053D0008047002F08BF002C08D00BF06FFB07B1B84704B1A0476B480AF038FCDFF8A89153
:2053F00000246A49C9F81C406948C9F8001040F60A0CA0F800C04480017B04F00F0221F02D
:205410000F010A430273A246C0F804A0417B4FF0010B0BF00F0721F00F0147EA0102427344
:20543000B268737C548011888646A1F60201C9B141F21E07C91B15D041F6E677C91B012943
:2054500020D8507E012B64F38200507606D0108B20F47C7040F43470108313E0108B64F3EA
:205470000910F9E7507C012B64F38200507405D0108A20F47C7040F4347002E0108A64F374
:2054900009101082D6F8088074746046474600E01F467B6813B119888842F9D1C7F804E01C
:2054B000797B04F00F0221F00F010A437A73EB6E3BB1D9680988C21F8A4229D0801F884262
:2054D00026D0338C2BB3C6F824A006F12002548096F82C0004F00F0120F00F00014386F81B
:2054F0002C1096F82D000BF00F0320F00F0043EA000186F82D10CEF804209EF80D0004F00F
:205510000F0320F00F0043EA00018EF80D1000E0AC602048036882680192C168406B0093D6
:20553000102220F0784040F0805003901A480291694605F00BF90BF0B9FA18486861687F73
:2055500088B917480068006801465846884701280FD0787B0BF00F0120F00F0001437973C2
:20557000104E6E6105E008F005FF0028FBD00BF09AFDC9F81C40C9F8008005B0BDE8F08F51
:2055900088220020010007060010044001010E048C2B00204C13005018000021393A000089
:2055B000E001001011D3000079488078FF2800D170472DE9F84F0BF0ABFA054605F20F1040
:2055D0000178012908BF417800F08A8005F58E74E18911B1207B03F0CFFF6889288105F18A
:2055F0007401887B022803D105F174000021817305F58979DFF89CE19EF80A009EF80730E9
:205610009EF80C209EF80B109EF80D60B9F8027000EB030890448844B044B9F80460761CB0
:20563000A9F80460C719B9F80060A9F802704644A9F800602468E4B1574F95F806B03F6815
:20565000182607F10E0A06FB0BFB0E371AF80BA034F81AB0C34424F81AB095F806A006FBCC
:205670000AF6BE5D04EB4604B4F84A70C619A4F84A60002B08BF002905D1002A04BF9EF8C7
:205690000D1000290FD02989E88941180026A9812E74424841690A78900726D59EF80E007B
:2056B000802822D022E018B100200126287405E0B9F80600401C0226A9F80600A8892989E8
:2056D000814206D08842E4D2081A41F2AB029042DFDA287C08B1052901D0082100E03E2150
:2056F0002846BDE8F44F0CF0E5B8812005F1740A8AF800002846FBF713FE012846D0012142
:2057100028460BF0F3FF28460BF0ECFF01F060FD01283BD0FBF756FA214F3868B0B3B88853
:20573000AA7990421CBF4FF6FD7188422ED11D48007A0BF0F3FA040028D02670A8791A4930
:2057500060800A68A879115C21719AF900206271A4F80680B9F8020020810BF0BFFA050012
:2057700005D1FF204FF0FF31A072E16009E02878A072FBF7FBFB0146A8680BF0AFFF800857
:20579000E06020463968BDE8F44F0847BDE8F18F684E00205C4D0020804E00207028010030
:2057B000F82B0020A8210020102C00202DE9FE4F0E468246307AC10693461F464FF00009DB
:2057D0000CD558460BF086FF030000F0E8800A223146504698475FEA00094DD130780C9D86
:2057F0000D9CDDF8388002281AD170680178407801EB002189B24FF42052891A012910D992
:20581000891E3AD0491E14D0FD397AD0491E00F08180491E6DD0491E73D0491E00F09580EA
:20583000ABE0002C2AD1F068017829800278416887E0002C22D101202880F1680A783A7035
:2058500000217089401C80B20BF040FF298860B10278921C51182980418979704289120AC0
:20587000BA7041680278F81C6CE0091D298004220021781C0BF039FC93E0002C66D1F06863
:205890000688042129803E70320A7A700DF1020130460BF01BFF040021D0D4F80C80BDF83A
:2058B00002204FF6FF766B4631460BF09FFF40B9237862683C4802210BF004FF08B9ADF8D2
:2058D000006098F8000002280BD1D8F804100222381D0AF0F7FF2888801C288001E0ADF8FB
:2058F0000060BDF80000B870BDF80010090AF97057E0002C2AD1F068016850460BF08EF9E3
:2059100002E01CBBF0680088022129803870000A787046E0F0680BF0EAFB80B2A042B8BF8F
:205930004FF007093DDB844208BF002205D008EB04028242B4BF4246021B2A8092B2F06851
:20595000011938460AF0BEFF2BE014B14FF00B0927E0F0680721298002783A7043787B70CB
:205970004188B9704288120AFA7001793971C2887A71C088000AB87113E058460BF09EFED9
:205990005FEA00090BD00F980290CDF8048000942B463A4631465046C847814601E04FF0C0
:2059B0000E094846BDE8FE8F142901002DE9F04FADF1140D071C8B4602930E9D01920F9C3C
:2059D000039500F0CB80BBF1000F00F0C780101C00F0C480181C00F0C180281C00F0BE80BB
:2059F000002C00F0C080206A002800F0B780614D666A281D0068002E00F0B080A16A0BF0E3
:205A100059FE40B2061C08BF6FF0020700F0A28020786288216A84F82C6000EB8000121820
:205A3000143290B288475249086030B9284640680BF03CFE4FF0FF378CE0A0684E4AE668F9
:205A50004E4D106023692E608A464D4866694D4A0360A56916604C4BE6694C4A1D602178CD
:205A70001660207825794A4E6388DAF800203570668801EB410106EB020C03EB4005AD183D
:205A9000CE1805F10808C5180918AD1805F10409C51CAD10D5502078C01C8010C9F80000BC
:205AB0002078C01C8010C8F800002078B6180C36C01C801030602078C918891801F110054D
:205AD000C01C801028602278CDF810C039466346181D04F03BFE2278594609F1040004F0DE
:205AF00035FE2278019908F1040004F02FFE2378204649464246FFF74DFB071C13D100951F
:205B100004984946424633460BF0CCFD804622780298311D04F01AFE22780398291D04F0C2
:205B300015FE4FFA88F721786288DAF8000001EB81015218002105F05FFF606A0146DAF8F6
:205B5000000088470B4840680BF0B0FDF8B2992808BF002784F82C70384606E01CB16FF0C2
:205B7000010084F82C006FF0010005B0BDE8F08F884F00209C2000208C4F0020904F002066
:205B9000944F0020984F0020804F0020844F00209C4F00202DE9F04F714CDFF8C0A1E56966
:205BB00088468146ADF1140D002D4AD1B9F1000F00F09280B8F1000F00F08E8009F072FF5E
:205BD00006460A2E23DAD8F814706674002F39D0700010216A4600EB86002330C0B20AF04D
:205BF0000FFC90B950460778FF21102268460AF048FD50B93FB999F80600494600F00100D5
:205C10000BF04CFD01E00120E074E56919E004F1E60B0A2700265846FF2106220AF031FD48
:205C300068B97F1E0BF10E0B06F10106F3D1A07C002804BF0A2060744ED094F836606674A0
:205C500000E0667C0A2E47DA002D35D170000E214A4600EB86002030C0B202F07FFB607C3C
:205C700008F020F96846FF2110220BF03EFA607C10216A467030C0B202F070FB617C0E2297
:205C90000801A0EB410000194946E6300AF01AFED8F814206AB15046007840B9107C02F1AA
:205CB0001101002300F001000BF0F4FC01E00120E074C4F81C804CE0AA68002A3ED12A690B
:205CD000002A2FD16A690ABBEA683AB9E07B08B109F096FA0AF085FB01203BE070001021B9
:205CF00000EB86002430C0B202F038FBE769617CFA68480000EB8100103225300421C0B2C7
:205D100002F02CFBE1690020C86022E07000102100EB86002330C0B202F020FBE169002078
:205D3000486116E070001C2100EB86002230C0B202F014FBE169002008610AE070001C2167
:205D500000EB86002130C0B202F008FBE16900208860002005B0BDE8F08FC0465A4F0020F0
:205D7000941800202DE9F0416C4D2B681878012840F0D1805E78D3F86880DF6E062E34D16B
:205D9000F968C1F3002000281FBFD8F89800C0F3002000280C2634D1C1F3402000281EBF05
:205DB000D8F89800C0F34020002808D00E260BF06DFC01462868C0880BF064FC11E0C1F3A1
:205DD000802000281EBFD8F89800C0F3802000280BD010260BF052FC01462868C0880BF0B7
:205DF00049FC0C2E57D10D2077E0A6F10C000428F7D8DFE800F00635053E0400F1E7E9E7E9
:205E1000D5E7986D48B91C200AF080FF2968886518B11C2200210BF068F92868846D002C4C
:205E3000DFD0A07E10B90BF021FCA0761022002120460BF05AF9A17E21B11029DCBF20465C
:205E50000BF010FC0AF00AFF2082082104F112000BF008FC2868C08821460BF0FFFBC0E77C
:205E7000986DD0B1018A00F11202D8880BF0F2FB13E00BF0EBFB0124064601280CBF002457
:205E9000002620460BF0DEFB02462868C08831460BF0D4FB14E00D2E0CD1F868C0F34020B2
:205EB00000281EBFD8F89800C0F34020002807D00E2012E00E2E08BF0F200ED00F2E0BD10A
:205ED000F868C0F3802000281FBFD8F89800C0F380200028102000D112202968487028680A
:205EF00041780C2918BF0D2904D00E291CBF0F29102910D1C0880BF071FC00281ABF808AA4
:205F100000EB50024FF4FA72BDE8F04104480078022108F069B9BDE8F08100BF304F00203A
:205F30007C4F00202DE9F04FADF1240D079001F0BDFB5F48007809F08BFF5E4D0024012868
:205F500006D90C3804D0401E0ED0401E09D006E00AF0BCFB022804BF01210C1C06D0696852
:205F700005E005211F2401E0032107246960524A1068C0F38150012806D152F80C0C0127A8
:205F9000020E07FA02F004430AF070FE05F1440AFF2253464018401E471C28607F1E03F808
:205FB000012BFBD1079A1268002602F0FF03FE2B1DD0DDF81CC0964633460EF0FF07FF2F56
:205FD0000ED0B84205D3B94203D80122BA40144201D0022069E016430EF0FF020AF80230F0
:205FF0005CF804EF5B1C0EF0FF07FE2FE7D1092003F04CFD07980121A86005F1280009F0A5
:2060100075FC00274FF0010BB9462846804600F198050BFA07F0044216D1064204BF07F0A1
:20603000FF0141F4C04104D01AF80700079951F82010224802F088FAF8B24FF0FF310AF023
:2060500045F8C5F8009001E004202860D8F800007F1C2D1D8742DCD904A80AF0E7FD184CF8
:20607000184A2078102104AB059008F10C0008F081FA68460AF01AFECDF80C906A46606890
:206090001149029008F1640008F048FB0F4951F80D0C20F4F85040F4005041F80D0C0C4F25
:2060B000C1F8FFBF4846C7F800B009B0BDE8F08F332C0020081A0020B43F0050007FC767CE
:2060D00010280100BD04010045E300000D300940080009402DE9F04F88468246ADF1A40D7C
:2060F0000BF07CFB604CE67894F80BB0A57A94F80C90071C08BF142000F0B2806846002177
:20611000A4220AF0F2FF2801279A59498DF8046005F0030300F4807605F00405ADF800A021
:20613000B9F1020F01EA020143EA01024F4B8DF8A0B046EA020100F4C06603EA010246EA9A
:20615000020045EA00054FF00000279508BF01208DF837000BF06EFA412809DB207B0028E7
:206170000CBF002008209DF8991008438DF89900607B002804BF00208DF8380017D00120AA
:206190008DF8380004F1860120220DF139000AF099FB0DF1590004F1A60120220AF092FBF3
:2061B0000DF1790004F1C60120220AF08BFBA07940B18DF8260004F1500110220DF1270088
:2061D0000AF080FB66793EB104F16000B91D062205460AF03BF8A0B92079002804BF0020A4
:2061F0008DF805001CD08DF805000DF1060204F14001102011F8013B401E02F8013BF9D180
:206210000EE08DF805600DF1060005F1160110220AF058FB0DF11600A91D10220AF052FBB3
:20623000E07930B1B8F1000F03D0279941F002012791002100B10121A7789DF89900002F6D
:2062500041EA00018DF899100CBF002004209DF8991008438DF89900002168460BF0E6F975
:2062700029B0BDE8F08FC04694180020FBF9FFFFFCFEFFFF5D490A78042A00D870472DE95A
:20629000F84F521F05D0521E34D0521E012A05D9A2E0BDE8F24F012001F0E4BFDFF850A18F
:2062B0009AF80200FF2825D00AF032FC83460BF16C0778680BF07EFA804698F804000328E6
:2062D00018D1D8F80800047814F0030404D17868BDE8F24F0BF0A6B94578032C00F1020989
:2062F0000BF20F160BD035B1387820B93D2171700120307078E03F490A78012A74D09BF8BE
:20631000941059B32D1FEDB24B462A46214658460BF084F940B93D207070012131703648DD
:20633000BDE8F24F0BF076B934480168884700904FF4C0709BF80620DAF8041042438818C2
:20635000002180F839110BF59A7001688079490806F0E0FA2A4900980A6890470020032C1A
:20637000C8F8080016D0274841690878820707D5C0074CBF03200020401919F8000000E002
:206390008120387223469AF802002A46494600F0E5FB18E099F80000192803D21A4A115C66
:2063B0008D4205D0B07007215846FAF7E7FB07E00E480178082903D149465846FAF700F99E
:2063D000484607F04BFC78680BF02CF941465846BDE8F44F0BF01AB900200AF0D7F8BDE878
:2063F000F24F86200BF0BAB9BDE8F18F6F4F0020684E0020794F0020AC450020381C0020F2
:206410003C1C002070280100A82801000FB42DE9F04307AF8046ADF1240D0AF0A5FD391D41
:2064300030F0010021F0030101F1040101D102F02EFCCDF816101420ADF812000024CDF872
:206450000A40FF258DF814507E68CDF81A600BF0D9F806460AF088FD30F0010015D009F01A
:20647000E1FB4C4922468446062031F80C7F4FB14B681B689E4204D0401E02F10102F4D18C
:2064900000E0D5B260460AF064FA404608F09AFD0146FF2905D0284603220DF1160305F08F
:2064B0007BFE0BF0AFF809F0C9F9A1460746CDF800900AF059FD30F0010061D0002F5FD06D
:2064D0003548026835480023214604F009FB04460BF094F8DDF800800126051909E0B8F1C9
:2064F000000F4FD040460AF0A0FD4BE00A463BE00446786849464FF0005223460BF0AAF95A
:2065100050B30DF11E000DF11F0101AA06F073FEB8B99DF81E0002A908F03AFD40B9019A8A
:206530000AF00AFD00281CBFDDF804804E4613D10199684608F012FD78684FF000510BF0BC
:2065500059F8B4F1FF3FD4D0002CD2D00BF056F8281A01D08442CBD209F07EFF009D09F0BA
:2065700061FB083745B12A4652F80C1C0029BDD1396842F80C1C3D600AF0EBF9002EAED0B7
:2065900002F085FBDDF81600006809B0BDE8F04304B07047781C002058280100404B4C001E
:2065B0002DE9F843614C5A4D5A4EDFF870815E4F94F8E4100846401E0B2864D8DFE800F0B7
:2065D0007B2C43062343062343067664042907D001220A2945F8212C14BF0220032004E029
:2065F000202045F8210C0120024684F8E200002045F8390C0827C5F8FF7FC5F8F37F45F8A2
:20661000392CBDE8F883052914BF09200620002784F8E400376075E094F8E170383D0120AF
:20663000002FC5F81B0004BF0620002102D00021F160032084F8E400032045F8010C316074
:20665000306880085ED294F8E4103348012703290ED00068456800216022052300914046B6
:20667000A84794F8E400062814BF0A200720CFE7006845680021602205230220009040468B
:20669000A8470420C4E7FEE72548264F0026012506600E203D6002F0CFFF022008F0ACFC66
:2066B00084F8E45084F8E360BDE8F883002038600C25786024E04FF08059D9F8A001016883
:2066D000202088472C3D0F2045F8010C41F61D56C5F80360D9F8A401466800214FF4C07235
:2066F0000723022540460095B047D9F8A401C66800214FF4C07207234046B047012038608D
:2067100084F8E45004F178000AF0B7FCBDE8F88339400C4038600C40A401001000A00C4035
:206730002C500C4004800C4034600C401C1B00202DE9F843092986B0054616463ED195F87E
:20675000242031887088521C491E85F824204143706889B2475C08444178287B012807EBA1
:20677000012765D131887088002448431FFA80F93480A046C8455BDA7088D6F804C0A97C2E
:20679000431FC4449BB20CF1050205F113000AF099FF70B1A04506D07068728800EB0801F1
