:2000000000400020ADFC000001C9011001C9011001C9011001C9011001C9011001C90110B5
:1C00200001C9011001C9011001C9011001C9011001C9011001C901103FC9011089
:20003C002DE9F04FEC4C04F114012046ADF1340D0FF066FA04F140060021304600F0B4FCF7
:20005C00D54904F18C05C82240232846A6610FF075FCD24E06F1180006F10C010BF072FC12
:20007C00CF49B06012F020FECE4FB0684FF4E0213A46521E10F050FBB0684FF4E0213A468C
:20009C0010F04AFBC84FB0684FF0C0513A46521E10F042FBB0683A464FF0C05110F03CFB34
:2000BC00C24906F12400C82200230FF047FCC048002170604FF080400EF07CFCBD4D2061B6
:2000DC0021211E22284611F053FEBB4800214FF6FF7211F04DFEB94800214FF6FF7211F0C3
:2000FC0047FEB74800214FF6FF7211F041FEB54800214FF6FF7211F03BFE2769DFF8C882CA
:20011C0057B1284606793EB1454603212970EF600021A96010F08AFAAC4D102006224FF406
:20013C00A073294606F0E6FF102007224FF4A073294606F0DFFF102008224FF4A073294635
:20015C0006F0D8FF102009224FF4A073294606F0D1FF10200A224FF4A073294606F0CAFFF0
:20017C0010200B224FF4A073294606F0C3FF10200222C823294606F0BDFF294610200C225C
:20019C00422306F0B7FF294610200D22422306F0B1FF294610200E22422306F0ABFF294616
:2001BC0010200F22422306F0A5FF102029464223024606F09FFF294610201122422306F0B6
:2001DC0099FF294610201222422306F093FF294610201322422306F08DFF29461020172218
:2001FC00422306F087FF294610201822422306F081FF294610201522C82306F07BFF2946AE
:20021C0010201622C82306F075FF2946102019224FF47A7306F06EFF294610201A2200239A
:20023C0006F068FF207811F057F969490246102006F060FF4FF0000AADF816A00120607246
:20025C0064480FF085F9092184F8581084F85910412184F85A104E2284F85B20432384F8D5
:20027C005C302D2784F85D70857A84F85E50C57A84F85F50057B84F86050457B84F861500D
:20029C00022684F862600A2584F8635084F864A084F86560012584F86650062584F8675007
:2002BC004FF0030984F8689084F86960F02584F86A50FF2584F86B50082584F86C5084F897
:2002DC006D1084F86E2084F86F3084F87070817A84F87110C17A84F87210017B84F8731058
:2002FC00407B0DF11602314684F8740040F2063006F0BCF904F158024FF442700D2106F02F
:20031C00B5F904F1650240F20730102106F0AEF904F1090240F20530012106F0A7F90F2032
:20033C0001210DF121028DF8210040F2044006F09DF904F13000CD4DCD4FA8613978287801
:20035C00217211F0C9F80246E87A05F134030090CB49019305F14403029305F114030393A8
:20037C006B78102006F0C6FE217A480000EB011080B212F0B0FD4546E06104F109010B916D
:20039C0060B3237A5BB34FF6FF711A46521E20F8121BFBD123E0C046652B0100AC15002072
:2003BC00FD0601000E0005800E000010E90F0000E126010040160020CC12002014150020AF
:2003DC007C140020C8140020D41800208D00010051880110E812005008020020237AD800E8
:2003FC0012F079FD606270B1227A62B10346A3F806A083F800A0A3F804A0A3F802A0521E46
:20041C0003F10803F3D104F17500C549009052461523102006F06EFEC24910204FF0FF32E8
:20043C0006F068FEC04910204FF0FF3206F062FE1021DFF8F882BE4800911323BD4A01905E
:20045C000846414606F056FE3878800012F043FD0146B9488346816069B14FF6FF7010F02F
:20047C0033FBB64B1020414600900BF114020193112306F03FFEB04601278DF8249004265C
:20049C008DF82270C4498DF8238006A88DF825600A68097902600DF122020171504639463D
:2004BC000AF006F90DF12302384601460AF000F909AA404639460AF0FBF80DF125024846F4
:2004DC0039460AF0F5F8052106AA30460AF0F0F804F12800C449CBF80400102006F00AFE4D
:2004FC00207810F0F9FFC1490246102006F002FE207810F0F1FFBE490246102006F0FAFDE4
:20051C00464601238DF8277050468DF8266019468DF828005646C14F8DF829104FF48062B7
:20053C008DF82A6010200DF126063946009606F0E1FD0DF1270040F202420123009039467F
:20055C00102006F0D7FD0AA840F20342012300903946102006F0CEFD0DF1290040F2064297
:20057C00012300903946102006F0C4FD0DF12A004FF48362012300903946102006F0BAFDE5
:20059C00BE4904F13802102006F0B4FDBC49102006F0B0FDBC4812F0B4FC6069B94A514641
:2005BC004FF0FF3300F004FA5FEA0008F5D05046049008A904AA05A810F0A8FCC0B9BDF8A2
:2005DC0014100120074610290DD120789DF82010884208D1049801884FF6FF728A4202D0DD
:2005FC0002F048FE0746049810B10FB112F039FC5FEAD870C0F023811BE1A669304600F0B0
:20061C00DBF9864208BF574602D0876810F090FA381C00F00E81398822692878E36A491E00
:20063C0000F0FE80491E00F0C880891E00F08880091F34D0083903D0103900F0DB80F5E049
:20065C0079688E78002E28D0012E1BD0022E11D0032E40F0AE80CE78002E08BF97A314D05E
:20067C000B880093CE789CA3019610E0C4070020694F0020CE78002E40F09B809DA304E086
:20069C00E9E40000CE7826B9A0A309880091C01C8AE00988A3A30091E6E7A7A3F5E7786866
:2006BC000078010922D24009C0F083800E2012F001F900287DD16868697803790A469342BA
:2006DC0012D0FF2A75D000EBC203DE682EB900EBC10000690FF0AAFF6BE000EBC2000069B3
:2006FC0001461046884764E08068F3E70D2012F0E1F800285DD1696868780979814207D041
:20071C00FF2809D0401CC0B210F0B2FBFF2802D1504610F0ADFB687008F00EFE49E0C046FF
:20073C0065D10000D91C0100A91F0100AD16010058470100B00B0020540E0020644701003B
:20075C00980836D3266A002E33D0E07806F10803401CE0708F49009372883379102006F0D6
:20077C00C9FC5FFA80F9B9F1160F17D0E66AB9F1040F13D036F00206E66208D14FF6FD701F
:20079C00854A834900900123102006F0B3FC48460DF076F80DE0C0468A470100E078009073
:2007BC00226928786AA3401DC1B21046524611F08CF8786810F0BCF938E07B689BF800106F
:2007DC001E782EB1B61E0DD19BF8021064A300E066A3401D0091C6B210463146524611F075
:2007FC0074F87B681846E5E711CC000031810110612D0100C01CC1B27E6868485EA30090BF
:20081C001046524611F061F8644800905F4972895346102006F06EFCCBE7C046D55100008E
:20083C00786802F027FD786812F01BFB384610F07FF9A06900F0C4F800283FF4DEAE5FEAD3
:20085C00D810FFF4AAAE277961895548491C00786181DFB90DF12B0012F0EEF89DF82B00FA
:20087C00F8B10B9A84F809A040F20530012105F0FDFE0120207110F00DF91AE01D2201007E
:20089C00C5AB00107F0000C09402002010F024FE3D490246102006F02DFC0BF093FC84F882
:2008BC0004A0012060720B9A012140F2053005F0DDFE3C4812F025FB6FE6C04643786E203D
:2008DC00256420626F6E642073617665207375636365737300C046C043786E2025642062AE
:2008FC006F6E642073617665206661696C65643A2025640043786E20256420626F6E646966
:20091C006E67207375636365737300C0636F6E6E48616E646C6520256420706169726564D5
:20093C0000C046C070616972696E67206661696C65643A20256400C0636F6E6E48616E649A
:20095C006C652025642070616972696E6700C0465273702073656E642072657472793A0062
:20097C004368617220333A20256400C04368617220313A20256400C050617373636F646543
:20099C003A20256400C046C0BD080100C10F01002DF00000DDFE00106728010040E2010040
:2009BC00C407002094020020DFF800F0A1B60110DFF800F0F99B0110DFF800F019BD011031
:2009DC00DFF800F04FBF01102DE9F04F85B011F801ABDFF86835DFF868C5DFF868B58146A3
:2009FC00AAF10200132809F1FD0209F1F40609F59C7709F1860809F5AC7409F1660500F208
:200A1C008B82DFE810F0D400890214004000430070028902980089027000A80073007800CD
:200A3C00DA008F01D501CB007802DF01DF0109F1A0040822204600F089FA064608212046D9
:200A5C0000F088FA09F1980704223146384600F07DFA0421384600F07DFA002041424944B3
:200A7C0009EB000291F89F1082F8BF10401C0828F4DB09F1C702214609F1D70000F06EFA35
:200A9C000020A87157E20121B17154E23178707A012900F010000DD130B100207870316C2D
:200ABC00B87849080DF0DEFC99F80600002100F059FA0FE040B1326CDFF88C0409F59D73D4
:200ADC005208494612F074F999F806000122002100F04CFA01202870484600F04BFA0121F3
:200AFC00A971B17027E20121F17024E2087870700121F1711FE2A87918B93D203077012011
:200B1C00F076707A000701D40E2037E100205F1C0B5C1CF8006033430B543C5C234013549A
:200B3C00401C0828F4DB287808B90921C5E148460DF0B6F9F5E100205F1C0B5C1CF80040A7
:200B5C0023430B543C5C23401354401C0828F4DB02203072EFE1A87920B93D210120317742
:200B7C00F076E8E1707C012803D10C2171770721A3E111F8010B3075022209F5857000F0BF
:200B9C00E5F90146022209F5867000F0DFF9F07C012100287174E4D10C218EE1707AC10697
:200BBC0001D41220EAE0484600F0E8F9B9E1087830770021F176F021F4E0737A980704D457
:200BDC0013F0110F70D01A22DEE0287C012804BF687C0F2808D0687D08B16A7C12B12A7F29
:200BFC00012A03D158070BD52322CDE010B1687C012803D098F80A00012806D1580702D439
:200C1C000F2171778AE12A22BEE008784A7800EB02203881CA78887800EB022078814A7938
:200C3C00087900EB0220B881CA79887900EB0220F881087A38744A7A887A02EB00227A8208
:200C5C00C87A0A7B00EB0220B8828A7B487B00EB0220F8820A7CC87B00EB022038838A7C84
:200C7C00487C00EB022078830A7DC87C00EB0220B883487D897D00EB0120F88309F5A67013
:200C9C000490798A0391387C0290B9F808100191F8890090BB897A89398948460CF064FE66
:200CBC0018B1707A41076ED467E07889A8F804000022B989A8F806100221F889A8F8080089
:200CDC0088F80010A8F80220B9F83400C01DE883B9F83210B8F80400B0EB510F02BFB8F866
:200CFC000600B9F83410884202BFB8F80800B9F83610B0EB111F13D0687D18B10F21A976F8
:200D1C00FE21DAE0FC21484600F03CF9F8890090BB897A89398999F8060000F037F90AE152
:200D3C000021CAE08A78C8780F798C7902EB0025487907EB0027C87901F10B0204EB0024BE
:200D5C000492BBB2487A8A7A00EB022080B20390087A0290B9F808200192A2B2009291F8ED
:200D7C0000C048780CEB002081B2AAB248460CF0FBFD80B1707A410702D40F207077CDE0B3
:200D9C00484600F007F91E22484605B0BDE8F04F0F2100F003B9A8F80450A8F80670A8F8CC
:200DBC0008400021484605B0BDE8F04F00F0FAB8087820704A786270487870700121F1711D
:200DDC007971B8E00A78487802EB0022628209F5BC778878CA7800EB0220E0824A7908791A
:200DFC0000EB022020828879C97900EB0120A08209F5AC7109F5AC70CA8A8089A18B904227
:200E1C0088BF1046A083884209F5AC7009F5AC7100894A8A218B14BF01260026904288BFB5
:200E3C001046884214BF012100210E4320830122A18B387900F0BAF8218B814205D3A18B57
:200E5C003879012200F0B2F8014609F5AC70798009F5AC7140890A8A904288BF1046628BDA
:200E7C006083904214BF012100210E43824209F5AC7009F5AC728941C089938AE28BC90FCB
:200E9C00984288BF1846904214BF012200221643E08311B1484600F08DF8BAF1140F19D194
:200EBC0046B1E08B0090638BA28B218B99F8060000F084F8287830B91521484605B0BDE8B3
:200EDC00F04F00F05FB8484605B0BDE8F04F152111F074BB1EB1387840F008003870397813
:200EFC0041F0200108E008780F2807D0122802D0142806D01FE0002139701CE00120387161
:200F1C0019E099F8780140F0020089F8780140F0100089F878010EE086F81DA0484600F0A5
:200F3C0051F840B99BF8000005B0BDE8F04F4FF4804109F0E3BC05B0BDE8F08FEC4D002059
:200F5C00B02300206E4F0020018B0010DFF800F0D1920010DFF800F0AD710110DFF800F012
:200F7C009D720110DFF800F069CA0010DFF800F001CA0010DFF800F0B9950010DFF800F09D
:200F9C005D880010DFF800F0AD7E0010DFF800F0E5BE0010DFF800F0097F0010DFF800F09E
:200FBC0049890010DFF800F0697F0010DFF800F0598F0010DFF800F0DD930010DFF800F0A7
:200FDC0065BF0010DFF800F0497E0010044908B5486818B10A4601461078884708BDC046E7
:040FFC00AC15002010
:20100000B41200001810000015AB0110FDB301106DC00110FDAE011099B5011000000000F7
:08102000000000002D0000009B
:20102800B01200003C100000B1C00110A9BF011067C0011069B80110000000000000000035
:041048003000000074
:20104C00B012000060100000BDC00110CDB30110D9BD01106DB3011000000000000000005B
:04106C00310000004F
:2010700000000000A019002004000000000000000000000020000000E8C901103000000071
:2010900028100000A81900200400000000000000000000000C000000D8CA0110180000004C
:2010B0004C100000B019002004000000000000000000000024000000F0CA011018000000D0
:2010D00000000000B81900200400000000000000000000001000000018CA01102C000000DC
:2010F00000100000C8190020040000000000000000000000200000006CCA01102400000040
:20111000FFFFFFFFD01900200400000000000000000000002800000090CA011024000000FF
:20113000FFFFFFFFD81900200400000000000000000000001400000008CB0110180000007E
:20115000FFFFFFFFE019002004000000000000000000000058000000B4C90110340000004C
:20117000FFFFFFFFE81900200400000000000000000000001000000020CB0110180000001A
:20119000FFFFFFFFF01900200400000000000000000000001C000000B4CA01102400000047
:2011B000FFFFFFFFF81900200400000000000000000000003800000044CA0110280000006F
:2011D000FFFFFFFF001A00200400000000000000000000005400000078C901103C000000E3
:0811F00001000000F4470100BA
:0411F80001000000F2
:0411FC0000000E00E1
:0412000000000F00DB
:0412040032000000B4
:0412080001000000E1
:04120C006418002042
:0412100000020000D8
:0412140000000000D6
:0412180001C90110F7
:04121C0000000000CE
:0412200000000000CA
:0412240008000000BE
:0412280000002200A0
:04122C00B4160020D4
:0412300000000000BA
:0412340000000000B6
:0412380008000000AA
:04123C002418002052
:0412400000000000AA
:0412440000000000A6
:04124800080000009A
:04124C00000000009E
:04125000000000009A
:041254000000000096
:041258000000000092
:04125C00010000008D
:041260004C17002007
:041264000600000080
:041268000100000081
:04126C0060150020E9
:04127000000000007A
:041274000000000076
:041278000002000070
:04127C00000000006E
:02128000290043
:02128200010069
:02128400250043
:02128600300036
:02128800310033
:02128A002D0035
:02128C0001005F
:01128E00015E
:08129000030000007C4701008F
:0812980000000000000000004E
:0412A0000000010049
:0412A4000000030043
:0412A80013C401105A
:0412AC007D28010098
:0412B000B812000070
:0412B400B81200006C
:0412B8000000000032
:0412BC006019002095
:0412C000332A0100CC
:0412C4002000000006
:0412C800D04601000B
:0412CC008845010050
:0412D00029C101101F
:0412D400FB06010014
:0412D800BF0F010043
:0412DC00A1C7011095
:0412E000A3C701108F
:0412E4000000000006
:0412E800C7470100F3
:0412EC006C4301004E
:0412F0008443010032
:0412F400544301005E
:0212F8000200F2
:0212FA000900E9
:0212FC000100EF
:0212FE000000EE
:0113000001EB
:04130400C1290100FA
:041308000D0A0100C9
:04130C00F91D0100C6
:04131000C10E010009
:041314007B0A01004F
:0413180009FB0000CD
:04131C0035C80000D0
:041320007B2C010021
:041324000DED0000CB
:0413280015C70110D4
:04132C0025C70110C0
:201330002DE9F04F0F46CC4C0168E16241688068ADF11C0DE060C548A1608047C448E16A6B
:201350000160A168DFF80CA34160E168DFF838938160CC49002FA346C1606FD03D68E8788E
:201370008DF80C0028798DF80D0003A812F02EFAA86808B1C9490160E86808B1C84901600D
:20139000C84C287820706878BE686070A878B268A0703178A2607368E1702E696360EA6955
:2013B00026627968E2620868E06068696062A8697B68A062286A9E68206395F8240084F8EF
:2013D00034001EB9002010F0D7FF00E066617868C06818B9002010F0CFFF00E0A0617868CD
:2013F000006918B9002010F0C7FF00E0E0617868406818B9002010F0BFFF00E02061286973
:201410002062F86881680E6806B9B34EB1494FF001084E60C66881F8018036B9002010F094
:20143000ABFF4D462E68F86801E04D462E6000685446FB68A0615868E06107E0002010F0F9
:201450009BFF4D462E684FF001085446361DD0493668621C04F114035020B04710B128688B
:2014700080688047DBF80800804782460023D04ECD48CE4F2061994633714A46B370380BD6
:20149000F270C7B2401CC1B2377018467170B94280F2908198B9B9F1000F08D1307810F0A3
:2014B0005BFC0420F08031790020A1B912E086F802900FF0E5FE484608F03EF807E0B9F1DC
:2014D000000F02D048460EF071FC0FF0D9FE3179002001B9404610B9002010F04DFF0020ED
:2014F000D14E2B68A0600746B760986980477060C54880F8008039464180142011F032FB87
:20151000FF211422A06211F010FDE01CFF21022211F00BFD142011F025FBBC4F3860386874
:201530000021142211F001FD002001F073F840460EF092FFB6480188FF2906D1022101808A
:201550007822001D002111F0F0FC032012F03AF9042012F033F9052012F02CF9062012F098
:2015700025F907200DF040FBAA4E0820307006F1240012F017F90DF0D5FD06F136090520C7
:201590000A214A4610F03AF938B10020C0F10901401C09F8011B0A28F8DB3078102109F039
:2015B000B3F92B689C4909200DF10E025E68087001AB10200021B047A06AE1690A260A30D0
:2015D0009DF80E20761E00F8012BF9D1891EE161DBF80C105046884704F120002B68626A05
:2015F000059040461E69DFF8348204F120034146B04710B1286880688047B84610F072FAAC
:201610005FEA000903D00AF043FA4FF0FF3900264CE00298216910F8062CA0F10C07032A66
:2016300003D1002942D0884740E0A16A9DF810C00A223046491E11F8013F9C450ED0521EAB
:2016500000F10100F7D14FF0FF0A09E041490010F8440020AC170020A01100205FFA80FA12
:201670002868BAF1FF0F00F108001DD038790FF071F9B979012909D0022904BF029988705B
:2016900006E0C046E43701001C1A0020029908700299504610F000FD08E0C046291601006D
:2016B000912501007C160020006880472868C36904A902AA0DF10F0098470028A9D0D8F810
:2016D00000007700C35B4BB9761CF6B20A2EF8DB27E0C0468019002073EE00000A2E20DAC3
:2016F000DBF808008047D8F80010002231F807A0CA53DBF80C108847494850F826202670D6
:201710005146304690470646FF202070DBF808008047D8F800107A5A16437E52DBF80C106C
:20173000884710F0DFF90746B9451AD007B93D4FE069B84238BF071CDBF8080080478146AB
:201750002868016A206A8847626A28683349059B521C6262C6683846B047DBF80C1048465B
:201770008847A7682968606914319FB9D8F800000A270026835B33B1096960698847296800
:20179000D8F8000014317F1E06F10206F2D105E0451D0100096988472968143109684FF0B6
:2017B000FF3088472AE7C046B126010000D00100A0230020384600216A4604230FF010FCF7
:2017D000009BB078B3F5801F0ED043B9B9F1000F03D048460EF0EAFAB078B94610E0384684
:2017F0000EF0E4FAB0780BE0002804BF381CB77006D00EF0DBFA38460EF0D8FA0020B0704D
:2018100071787F1CFFB242E6F4150020E023002050130020E00C0020F22300209D090100A4
:20183000104501008EC2F528742300202DE9F8435FEA000906D1002010F09EFD02E0484679
:20185000FFF7AEFB09F16605687D002800F08381697CDFF89C04002909F1860709F20F1845
:2018700009F1EC0609F59E7443D0012958D002292FD003295ED0062900F09880072900F01C
:201890006081082900F0C080092900F0CD800A2900F09F800B2900F0A8800C2900F0D08084
:2018B0000F2900F0EB80112900F01581122900F0DC80142900F01881152900F03981F02977
:2018D00000F04B81FC2900F04581FE2900F04F81B1E7297C012908D1C07808B900F0C7B9D1
:2018F0004846FFF75DFB16213CE1484611F056FFC9E1297C012940F04B81C078002800F0FF
:201910004E8178883978400078804900B88839704000B880012138890001388129778EE7A3
:20193000297C012940F04181C078002818BFB97285D13EE1297C012940F04281807838B15C
:20195000A078012804D10021A1704846FFF720FBB07B012809D10021316071600122BA738F
:2019700006214846FFF724FB6CE7F07B012818D14846FFF715FB0020B87301212970484695
:20199000FFF7FEFA0120A87100217173717A99F8060006291ABF00221A210022FFF7ECFA25
:2019B00050E798F8000001283DD014E1287C012840F01881B07A012811D14846FFF7F0FAEC
:2019D000002030723073F072B073B072F073707338E7287C012840F01481F07A012840F031
:2019F0000A810021B9730B21BBE7297C012940F011818078002800F011810321B1E7002220
:201A10002221FFF7B9FA71E1287C012840F01681307C022809F1FD0240F0198199F80610A4
:201A3000002011F0B7FE0AE7297C012940F01B81807800281FD0B9F82200A9F81E00FEE6AF
:201A5000287C012840F01A81707E012840F01D81B07E0128F3D1308C0090F38B327F99F8D2
:201A70000610002011F092FEE9E6297C012940F01C818078002800F0FA80E0E6287C012807
:201A900040F017816078012813D1207F0F281CBF002010F071FC00206070607F1A2808BF73
:201AB000002117D0002100910023002211F06AFEC5E6A078012807D10021A17023220F2143
:201AD0004846FFF771FABDE62078012840F0CF800021217045E7297C012940F0EE80C078A1
:201AF000002800F0EE80AAE6287C012840F0EF8009F5AF76B07E810613D500F0DF000107BD
:201B1000B0760BD500F0F700B076308B0090B38AF28A718A99F80600FFF756FA0020307006
:201B30008DE6810740F1CD8000F0FD00B076F5E7297C012940F0CF808078002800F0D0807F
:201B50007DE64846FFF744FA0128F9D002E0002010F012FC0020BDE8F283407A0028FAD068
:201B700098F80110484611F009FE0120F3E7A87E0F28ECD1FC214846FFF71AFA60890090DB
:201B90002389E288A18899F80600FFF705FAE1E7484611F0EFFD2874E88A2883DAE7B9F8FC
:201BB0000A00E98B884209D0D4E7484611F0DEFDF1E7B9F80A00B9898842CBD12821D1E793
:201BD000484611F0CFFD28740021E88A2883B1730020F073BFE7288B401E288380B200285D
:201BF00022D0B7E7484611F0B9FD28740021E88A2883B172AEE7288B401E288380B298B137
:201C1000A8E7484611F0A6FD28740021E88A2883F1729FE7484611F099FDBCE7288B401E57
:201C3000288380B2002895D1317A99F8060001297FF4E5AE2221FFF79BF957E0484611F024
:201C500081FD28740121E88A2883317482E7288B401E288380B20028F8D199F80610222045
:201C700011F098FD42E048460CF020F993E7288B401E288380B2002838D06BE70120F07688
:201C9000484611F05BFD287464E7288B401E288380B20028F8D1308C0090F38B327F99F87B
:201CB0000610222011F072FD20E0484611F042FD71E7484609F0BEFB6DE7484611F036FDD0
:201CD00069E7288B401E288380B278B142E7484610F07AFC5FE71521484610F075FC5AE7A4
:201CF000288B401E288380B20028EFD1222139E75C4D00202DE9F84FDFF86C54696884B0D9
:201D1000019121B905B0BDE8F04F11F00BBD0978DFF858A4DFF858B4DFF85884DFF8586468
:201D300001291CBF0229042946F2A81741F64C5905D0402918BF802900F0F8800AE210F051
:201D5000EFFF0028FAD00198007806F0C7FE0090446814B9002010F00FFBDFF820144878C9
:201D7000002800F0A48002F0C9FE10F0DBFD02900168009801914F6809F0C6FF02286AD088
:201D900000990A78012A04D0022A25D0042A41D0E0E1DFF8EC3319680A7A1BF80230337015
:201DB00018B911F0BBFC4844A0602069C17E01F0EF01C1762069C17E41F08001C1762069E4
:201DD000C17E01F0F00141F00201C176B86821694044C861012035E10521317018B911F040
:201DF0009DFC4844A0602069C17E01F0EF01C1762069C17E41F08001C1762069C17E01F064
:201E1000F00141F00201C176B868216940440862022017E10621317018B911F07FFC484403
:201E3000A060DFF860030168887C0AF017FE2069C17E01F0EF01C1762069C17E41F0800182
:201E5000C1762069C17E01F0F00141F00201C176B8682169F3E001980178802913D10820E2
:201E7000C94930700A78012A03D0C4484178022903DB39690120C87213E0DAF828003A69C5
:201E90000178D1720DE0C049072030700A783869012A02D10121C17203E0DAF828104A7894
:201EB000C2720298B54A8179019891704DE10098002819D00199009A007891420ED1401E1E
:201ED000012806D9C01E05D1AE480168887C0AF0C5FDB8E0002010F04FFAB4E0012804D085
:201EF000022815D0042819D034E1A54801680A7A1BF80200307011F011FC3918A06811F0A2
:201F100009FC18B911F00AFC4844A060012099E00520307002210098A97016E10620994916
:201F300030700A68907C0AF099FD8AE093494878002800F0BA8002F0E1FD10F0F3FC02903A
:201F5000016801914C688D49887810F0EBFC039010F0ECFE10F0070F7AD0A87806F0BEFD57
:201F700000904768019909F0CFFE022870D000990A78012A04D0022A24D0042A40D064E08C
:201F90007F4B19680A7A1BF80230337018B911F0C5FB4844B8603869C17E01F0EF01C1764C
:201FB0003869C17E41F08001C1763869C17E01F0F00141F00201C176A06839694044C861C4
:201FD00001203FE00521317018B911F0A7FB4844B8603869C17E01F0EF01C1763869C17EFA
:201FF00041F08001C1763869C17E01F0F00141F00201C176A068396940440862022021E000
:202010000621317018B911F089FB4844B8605D480168887C0AF022FD3869C17E01F0EF0102
:20203000C1763869C17E41F08001C1763869C17E01F0F00141F00201C176A0683969404435
:2020500008620420A87000987FE0002010F094F903980299884226D001984B490278802ADF
:2020700012D1082030700978012903D043484178022903DB21690120C87210E0DAF828000B
:2020900022690178D1720AE0072030700978206901290EBF0122DAF828104A78C27202987A
:2020B000364A8179917001984FE010F03FFE10F0070F55D0A87806F011FD04462078D4F883
:2020D00004A0012804D0022817D0042826D047E02B490A68107A1BF80010317011F01EFBA7
:2020F0003918DAF8080011F015FB20B911F016FB4844CAF80800012025E00520307011F067
:202110000DFB3918DAF8080011F004FB20B911F005FB4844CAF80800022014E00620307070
:2021300011F0FCFA3918DAF8080011F0F3FA20B911F0F4FA4844CAF8080012480168887C9A
:202150000AF08CFC0420A870204605B0BDE8F04F08F098BC05B0BDE8F04F002010F00CB9E8
:2021700005B0BDE8F08F00BF802300202C480100289A0110F0D8FFFF6F4F0020684E002032
:20219000104F0020184F0020734F00202DE9F843DFF84804DFF8485401781D24082984B041
:2021B00000F21282DFE811F016020900090009000900B200590116021602DFF82864DFF80F
:2021D00028843068036803F10807062207F1080102A810F095FA0622B91C684610F090FAA6
:2021F0003878C10900F00F02032AC0F38019DFF8FC7339D17079C0F38000814240F0DF811C
:202210003169062202A80FF027FF002804D06946484611F07BFA002800F0D18129466846E7
:2022300011F070FA0146FF296FD03868807A4C43002818BF02280BD0012818BF032864D1E8
:20225000681C2A5D0119404611F058FA10285CD0E81D07196B463A462919404611F04AFAA9
:20227000062269463846A8E100F00F00052862D17079C0F38000814247D13169062202A8AE
:202290000FF0EAFE002840D06946484611F03EFA00283AD02946684611F034FA0146FF29AC
:2022B00033D03868807A4C43002818BF01280BD0022818BF032828D1681C2A5D011940460F
:2022D00011F01CFA102820D040F202400EF02EF8E81D07196B463A462919404611F00AFAF4
:2022F00006226946384610F00BFAC148C14A41F20441418041834186BF480180BF49C04804
:2023100011600121007808F0FFFA58E1BD4E3068016801F1080999F8000010F00F0F1CBFDF
:2023300000F00F01062908D000F00F02022A1CBF00F00F00012840F04D81062209F1020133
:20235000684610F0DDF999F80000AF4FC0F3801800F00F0001283DD1062209F1080102A804
:2023700010F0CEF999F800004FEAD01902A9484611F0CCF9D0B13868807C022818BF03288B
:202390005ED105F10D0102A80EF002FF002857D039680120C8720622707940F004007071E0
:2023B00002A938680C3010F0ABF913E02878814510D10622691C02A80FF04EFE50B1287865
:2023D000717960F38201717106223868691C0C3010F096F96946404611F098F900282FD045
:2023F00070696946001F11F081F9002828D12946684611F087F901463868807CFF2920D0F1
:202410004C43002818BF02280CD0012818BF032816D1681C73692A5D0119181F11F06EF966
:2024300010280DD02919E81D071974696B463A46201F11F05FF906226946384610F060F9BC
:20245000C8E0002818BF0228FAD17069012342466946001F11F046F9BCE06C4E30680168E6
:2024700001F1080999F8000010F00F0F1CBF00F00F00012824D1062209F10201684610F0CF
:202490003FF999F80000DFF88881C0F3801700F00F00012848D1062209F1080102A810F023
:2024B0002FF999F800004FEAD01902A9484611F02DF920B3D8F80000C07A022818BF0328C8
:2024D0007DD105F10D0011F009F9002877D105F10D0102A80EF05CFE002870D0D8F80000EA
:2024F000062202A90C3010F00BF9707940F004007071062202A9E81D10F002F914E0287854
:20251000814511D10622691C02A80FF0A5FD58B12878717960F3820171710622D8F80000C8
:20253000691C0C3010F0ECF86946384611F0EEF8002844D02946684611F0E4F8FF283ED067
:20255000D8F800104443887A2F1920BB887C10F0E9F9804698F82601022818BF032800D080
:2025700068BB295D00F00100814228D108F5907406222146781C0FF06FFD00B3012088F812
:2025900026010622717941F0080171712046694610F0B6F80EE030692A5D791C001F11F050
:2025B000ADF810280BD030696B46FA1D3946001F11F0A0F806226946F81D10F0A1F831689D
:2025D0000A680020107105E000200FF0D5FE862011F080F805B0BDE8F08300BF6F4F002078
:2025F000AC450020F44B0020CC470020104F0020204A0020204F0020504F00205955011012
:202610006E4F0020D04B0020144F0020AC4B0020184F00202DE9F84FDFF8BC13DFF8BC23B8
:20263000DFF8BC5308700821002010600D23DFF8B4034FF44D72017043808280DFF8A803FB
:202650000560AC7EDFF8A4030470FF2CE97E417008BFFF292A7F82706B7FC370AE7F06715B
:20267000ED7F457115D1FF2A08BFFF2B11D1FF2E08BFFF2D0DD1DFF878130A7802704B782F
:2026900043708A788270CB78C3700A79027149794171DFF860130278DFF85C83DFF85C9363
:2026B000DFF85C730A70FF2543784B7082788A70C378CB7002790A714079487188F80050AE
:2026D00088F8015088F8025088F8035088F8045088F805500020CB490880D9F83440CA49B7
:2026F000607808702278C9493A70A0780870A2681079C74A411E1170E078C649C64A087021
:20271000E068106008B90FF037FE2069C34E306008B90FF031FE3068DFF804A30168884795
:20273000326852F8041F50468847BE48BE49CAF82000CAF824106069BC49086008B90FF042
:202750001BFEA069BA49086008B90FF015FEE069B849086008B90FF00FFEDFF8DCB2B74C22
:202770009BF8040010F0FEF90028206075D09BF80500B34E10F0F6F9002830606DD09BF8BE
:202790000600DFF8C0A210F0EDF90028CAF8000063D09BF8070010F0E5F9AB4900280860EB
:2027B0005BD039789BF80000C91C484380B210F0D9F9A649002888604FD03878002862D0FE
:2027D000BBF80210484380B210F0CCF9A04A0028506042D0387810F0C5F99E4900280860E9
:2027F0003BD03878400010F0BDF99B490028086033D038781821484310F0B4F9974A10602F
:2028100058B33878400110F0ADF99549086020B33878000110F0A6F992490860E8B1387811
:20283000000110F09FF990490860B0B138783021484310F097F98D4A106070B18C48397844
:202850000078484310F08EF98A4A106028B1387810F088F98849086018B9BDE8F14F06F0AB
:202870005DBF4FF0000B09E010F03CF90021418081600180022303710BF1010B39785FFAD5
:202890008BF08842F0D32268694F0120107121680D732068457321688D732068C573216821
:2028B0000D7400212068457400202268D172A0222168487103212068C28001720720226822
:2028D00050720021206881722821206801224182C2760020216848770022206880F85E2093
:2028F0000121226811770120216881F85D0001223068027131680D733068457331688D73E4
:202910003068C57331680D7400213068457400203268D172002231684871306882724FF40B
:2029300020703168C88008818A7401213368D974DAF800201573DAF800104D73DAF8002077
:202950009573DAF80010CD73DAF8002015740022DAF800104D740121DAF80030DA7200236A
:20297000DAF800201171DAF800104B71DAF80010C88008818B720520DAF800209374DAF895
:2029900000103E4AC874106880473968054608688047396851F8042F00209047D9F80C10F0
:2029B0001C4B0A881878364902430A802846354A136898470C21344810F088FE404610F034
:2029D00081FE10F07BFEBDE8F44F034800784FF4005107F099BF00BF6E4F0020044F002052
:2029F000B63F0050604E0020084F00202C4E0020E81200503C4E0020344E00202C48010098
:202A10007B4F00200C4F00206D4F00206B4F0020724F00206C4F0020F04E0020F44E00200F
:202A30007C4B0020752B0100952B0100F84E0020FC4E00204C22002054190020104F0020D3
:202A5000144F0020184F00201C4F002080230020684E0020004F0020C0230020804E0020D8
:202A7000844E0020884E00208C4E0020904E002076190020C4230020C8230020A8110020CC
:202A9000544F0020AC110020F84D00202DE9F84F0D46E80788B00CD510F034F830B100213B
:202AB0008160DFF8E803006800B1804785F00100E9E128074FF01D0BDFF8D46375D5DFF87E
:202AD000D4130A68907C0FF02DFF044604F5907094F8267107904FF00008DFF8B803016817
:202AF0008A7CC146FF2A04BF00200FF045FC079A3946304610F0DEFD07998246384610F016
:202B100005FE0BFB0AFBC0B1BAF1FF0F26D016F80B7006EB0B0047F00207411C079107F0C6
:202B30000100F21D84F8260102EB0B080799062204F590700FF0E4FD10E00799384610F023
:202B5000B5FD002818BFBAF1FF0F07D006F10D00584410F0C3FD08B947F00207CD48016845
:202B7000C87A022818BF032806D106F10D0010F0B5FD08B906F10709002006903B46E18EDC
:202B9000090905910022A08E0490618E0798CDF8088049080391CDF8049000900020A179B6
:202BB00010F080FD85F008006DE1E8060FD500210022002306910592049103930291019206
:202BD0000091022010F06EFD85F010005BE1A8070FD5002100230691059104910393029144
:202BF0000191009101223C2010F05CFD85F0020049E16807A84F40F18A80A848817800247B
:202C10000794FF2904BF00200FF0B6FB386890F8A0000FF087FE80463868C07A98F826911B
:202C3000022818BF032808F5907A06D106F10D0010F054FD08B9F01D07905146484610F09B
:202C500065FD90B33868807A002818BF012804D13146504610F056FD04E052464946304647
:202C700010F028FDFF2836D00BFB00FBF01D00EB0B040622514620460FF042FD16F80B006E
:202C9000396840F0020906EB0B0000F1010A887E00F0010088F826010622386800F11401E4
:202CB00008F590700FF02CFD15E05146484610F0FDFC80B152464946304610F0FBFCFF28E0
:202CD00009D006F10D010BFB00F2881810F006FD08B949F0020908F12C004B4601780691A0
:202CF0004289120905920122B8F822100491C08807990191400803900294CDF800A000203D
:202D100098F8061010F0CEFC85F00400BBE028060FD50021002306910591049103930291DE
:202D30000191009101223B2010F0BCFC85F08000A9E0E8044CD5F11D06F10D0010F0AEFCE3
:202D50003868017A012918BF042932D1C17A02291EBF0329817E01292BD1817E00F114027D
:202D7000304610F0A7FCFF2812D00BFB00F0341804F10D0010F0B2FC50B9E11D04F10D0026
:202D900010F08CFC38680622E11D14300FF0B8FC3868C07A022818BF03280AD106F10D00F9
:202DB00010F09CFC28B938680622F11D0C300FF0A7FC3B4842683B4800784FF480510DF09D
:202DD00017F810B18E200AF087FA85F480505AE0A80505D50FF05CFF334901200860FEE79C
:202DF000680504D508F0D3FA85F480604BE0680405D581200AF070FA85F4804043E0A904E0
:202E100040D52A4C206810B100200FF0B5FA284E4FF0FF30206010F03DFC3168254C51F810
:202E3000202F684690472449244B486A8A6A009001920293C86A0268086A0392ADF810001C
:202E50000A6B1178002904BF5068002805D19068002804BFD068002806D0217050686060A0
:202E70009168A160D068E06021463468144A266814486B46B0471449086004F015FA85F49C
:202E9000005000E0002009B0BDE8F08F204F0020AC450020184F0020104F0020684E002079
:202EB000784E00206E4F0020FC002043044F0020F04E0020684500207C160020052B01005F
:202ED0002C4D002050220020EC4E0020FEB5DFF84803DFF848430578DFF84403DFF84473FD
:202EF000DFF84423DFF844130D2D41F2064641F202434CD8DFE815F08E010E000E000E007C
:202F10000E0068009C00DF000C0145014501630163016A01206041F20446DFF81403418830
:202F3000B1421FBF478BB742478EB74203D11680DFF80003B6E00029DFF8FC6211804FF40B
:202F5000A0573AD0491E3DD0491E36D040F2FE3CB1EB0C011CD0091F01291FD94FF47F7CF6
:202F7000B1EB0C011CD04FF4406CB1EB0C010FD0891E01290CD9091F0AD0491E01290DD906
:202F900040F2F932891A012917D9091F08D039E1022D14BF1780A94E2660EAE0A84EFBE735
:202FB000A8490A68157A012D03D1438043834386F2E7478047834786EEE700200FF0DCF9BB
:202FD000832023E18F2021E19F4D698811800029206050D0491E67D0491E4CD040F20240BD
:202FF000091A23D0491E46D040F2FB30091A17D04FF44060091A3ED0491E17D0491E0129D4
:2030100032D9091F12D0491E35D0491E0ED04FF47E70091A2FD0491E08D0C91E06D045E066
:203030006E80012009F026FB2530A873874839E087494B881380002B20601CD05B1E33D0B6
:203050005B1E18D040F202401B1A2AD05B1E12D040F2FB301B1A1DD04FF440601B1A0AD090
:203070005B1E1ED05B1E012B40F27D809B1E0ED09B1E16D05B1E76D05B1E12D04FF47E7084
:203090001B1A70D05B1E0CD0DB1E0AD00EE0714921606EE0887B4E8025280CBF2720401E7E
:2030B00088736D48206064E08F2060E000200FF063F984205BE0B978FF2939D02060182029
:2030D000664B41431868851C40F204466B5A13809B1B012B624A71D94FF47F769B1B0FD011
:2030F0004FF440669B1B032B84BF5B1F012B0BD99B1E012B62D940F2FD369B1B33D103E004
:20311000801C41F201434352226006F0CBFD30E0B978FF2952D020601820504D41432868C3
:20313000861C40F20447755A1580ED1B012D4D4A70D94FF47F77ED1B11D04FF44067ED1BD2
:203150000FD0AD1E012D84BFED1E012D09D9AD1E012D5FD940F2FD37ED1B04D101E0801C38
:203170004352226005E000200FF006F9852010F0B1FA03B0BDE8F0403B480078012107F039
:20319000C3BB4888108040F2044290421CBF41F2084290423ED041F60402904211D1334C4F
:2031B0003348344B00680025CDE900450222324C256855F8086FB04730490880F7BD48880E
:2031D000108000200FF0D8F885201FE04888108002280DD940F20442801A1BD040F6FC72AB
:2031F000801A05D0083815D04FF47F72801AE8D1887B801CC2B2B52AA8BF662088730020AA
:203210004880F7BD00200FF0B7F88420BDE8FE4010F060BAF7BD00BF6F4F0020204F0020D3
:20323000A32E0100684E0020504F0020CC4C0020204A002059550110615A0110B1540110B4
:20325000755B0110104F00209C4C002085CB00006C4C0020C139000015C70000804E00200A
:2032700031390110A95E00006E4F002002000080EC4E0020B90C0100F04E0020424F00202E
:203290002DE9F04F044620780121ADF1140D9138039100F02781A74EA74FDFF8A0821F38D6
:2032B00000F0AA80203840F04081A17830693A783546002900F09580491E78D0891E00F048
:2032D0008C80491E65D0C91E00F08280881F40F02C81E078042800F02881039910200EF0F2
:2032F0000FFB2769824696A138460DF0A3FB804696A138460DF09EFBB8F1000F0ED100283C
:2033100008BF002314D003460827504613F8011B7F1E00F8011BF9D1082008E05046102742
:2033300018F8011B7F1E00F8011BF9D11020039BAF7853B394F90B900F2F804620DA6FB195
:20335000BB4606F580765046314642460EF0CEFCA0B1BBF1010B06F11106F4D107EB071623
:2033700051464246761906F58076304608F01AFD7F1C86F81090F8B2A87001E086F810909F
:203390002069227B00210AF01FF950460FF07DF8CBE04146102003F0B3FE297A814200F25C
:2033B000C4803A7828696BA3921CD1B20CE06178002900F0BA80122904D00C2914BF6DA3F8
:2033D0006EA300E072A3032100220EF084FAACE0E178121D73A30091E7E700206870A8707C
:2033F000A3E06189A9810FF047FCE41C8948676847602168016098E06178F06A162912D0E7
:203410002279306939787E2A04D07F2A1BD1228968A301E0227A6BA30092091D0022C9B210
:203430000EF059FA0FE0002852D14FF6FD707A497A4A00900023102003F062FE0146F06AE1
:20345000CDB2002D44D04146102003F059FE002838D060880EF0BCF9F08122790B2A21D09E
:20347000012A02D1217A0A291CD0132A0CD0012A02D1217A122907D0716A11F8300008B3F1
:20349000204604F097FF1DE030693978012A07D0B279521CD2B2531EB271DAB24DA30BE0CB
:2034B00050A308E030693978012A03D0E268127850A301E053A3227B0092491D0022C9B209
:2034D0000EF009FA217904F1080010F0DFF82CE040F00200F06203980AF0D8F934620020C1
:2034F000039022E060780E3802D0801E19D01CE0A08842F20301814217D1A1680878A0B9C7
:20351000491C01A80A684968026001AF41603878434901AA00F0FD003870102003F0F0FD2B
:2035300003E00820002103F05DFB039805B0BDE8F08FC04608020020D4180020F17F0110D3
:203550005441524745544445562D00C0414E432D00C046C043616E277420416476203A20A1
:203570004D617820636F6E6E73207265616368656400C0464552524F5200C046434F4D4D26
:20359000414E4420444953414C4C4F57454400C0494E56414C494420504152414D4554450A
:2035B000525300C0506172616D20557064617465202564004D54552053697A653A202564E5
:2035D00000C046C046432056696F6C617465643A2025640057726974652073656E743A2012
:2035F000256400C05772697465204572726F7220256400C052656164207273703A20256400
:2036100000C046C052656164204572726F7220256400C0461B0B00202DF00000672801008C
:2036300095B400102DE9F84FD74CA178FF2904BF00200EF0A1FEA0780FF074F9044604F11D
:20365000680504F190062968086810B10021E1830CE0A87B002804BFA97E002906D1307852
:20367000002801BF207F0128608CE0832189E08B4118491C6181204610F004F801281EBF1E
:20369000C2480178012904D121890020491CE08361814FF6FF77A87E01280DD1AA8B61891D
:2036B00020890FF0EBFF38B1218960894A1C93B298421BD0A88B0FE03078012816D17288A8
:2036D000618920890FF0DAFF80B1218960894A1C93B298420AD0708892B2904206D0381818
:2036F000608180B20FF0C6FF3F18E78304F5967999F8040020B120890021401CE183608149
:2037100004F12E07A87E01283ED12289A88B521C92B2904238D1608104F1860120460FF0E4
:20373000A5FFA88C608400212177E183E08961894118A181A88B21890FF09CFF8046B98854
:20375000288C6A8C01FB0808E88C8A4204BF3989884202BFAB8CF9888B4207D0000900905E
:20377000AB8CA1795208002010F00CF8A87F3870698CB980A88CF8802046E98C39810FF02D
:2037900071FF0220A87601E0B7F80480B4F81EC022687F4ED2F80CE00CF1010000FB08F3CA
:2037B00040F6C41000FB03F18E44C2F80CE03668DFF8E0E13678BEF80080774AB609032EBD
:2037D00011D1D67BF60748BF4FF000080BD408F101081FFA88F6012E12BF668AB9F80660DC
:2037F00006F2DC5600E0668A5E434FF4C87AB6FBFAF6761C6661AEF80080A3614FF0180816
:2038100094F806A084F820C008FB0AFADFF88CC1DCF800E023680EF1080656F80AB0C3F8D0
:2038300010B094F806A008FB0AFACDF800A0D3F80CB0D4F814A0ABEB0A0ADDF800B046F8A6
:203850000BA094F806A008FB0AFA56F80A609E600EF10C06A37908FB03F30EF10C0EF65C2D
:2038700006F0F00646F002060EF803604FF0000ADCF800E0A6790EF1020308FB06F623F86B
:2038900006A0474BA6791B68760103F1140AD4F814B05AF806A00AEB4B0A03F1140B4BF88D
:2038B00006A0AD7E022D0BD1A5796D0103F1140697F800B056F805A000FB0BAA46F805A0BD
:2038D000BD88D27BA779D60737D508FB07F70EF10802D659A6F5A86A0EF1080646F807A065
:2038F000A77908FB07F7D2592768511A3961BA6003F11402A1794901575807F5F6675750A1
:2039100003F11401A27952018958C9F800106843244A156BA779296803F11C067F01401A34
:20393000A0F51670F0512049A07903EB40100B78012B14D10121C17214E003F114027F01F4
:20395000D1592A464243A1F5E661A2F516729142DDD3082120460FF011FF012011E0916A0E
:203970004A78C272A179DCF8000008FB01F281182268516007200D490870204609F05EFED9
:203990000020BDE8F28F00BF684E0020784F0020084F0020E82300205C4D0020804E0020FC
:2039B000844E00202C480100734F00206F4F00202DE9F84FC24DDFF80C832968DFF808A3EB
:2039D000887C0EF0AFFF044628680021417104F12E062868BD4D0CF083F90120607104F554
:2039F000937998F80100401C88F801001827802009F0B0FC20606969C160B5480189490076
:203A10007180C079B1884000307049003089B18000013081314620460FF028FE0520A08126
:203A300020460FF01FFE28680FF018FE062210F8081FC1F3801189F80010811C04F590708C
:203A50000EF05EFE2968A34D0A680020107141F60202A1792868794342520021A3797B4338
:203A70000344001D5980A2797A438150012120460FF0F0FDA27929687A430A449073A17908
:203A90002868794301440020C873A1792A6879431144887BF072DAF80020A079296802EB7F
:203AB00040137843084414310361A0798A4A78430A50A0790FF0CAFDA179DAF800204901BC
:203AD0005050A1794B01D05820B9072120460FF055FEF0E0DFF804B2DBF8000000EB0110C3
:203AF0000FF0B0FDA179DBF80020DAF80000DFF8F0B102EB0113021D4901535004F1680148
:203B1000A3795B01D2580A60A3795B01C2588A60DBF81410097894F806E0CA074CBF102215
:203B300000228B074CBF202300235FEA417C4CBF4FF0400C4FF0000C09074CBF802100218C
:203B50001A434CEA020200EB4E100A4342F00F020272DAF80010A07901EB40120B21517249
:203B7000DAF80000A27900EB421104208872DAF80020A17902EB41105A4A1378012B02D174
:203B90000121C17203E0DBF828100A78C272DAF80000A279636A00F10C0152018B50A1791C
:203BB00000EB4110A16A0174DAF80000A27900EB4211A06A000A4874DAF80010A07901EB57
:203BD0004012A06A000C90740821474A107806F09BFE2168A2792868CB687A43024493603B
:203BF000CA68CB680A618B6000F10C02A17979430C30535C03F0EF034354A0792968784359
:203C100001F10C020C31135C03F07F030B54A0792968784301F10C020C31135C03F0F0031D
:203C300043F002030B54A27928687A431044417B01F0F00141F001014173A079B688DAF873
:203C500000204FEA401C40F6C4104643DBF83000016802F11403761AA6F5167643F80C6038
:203C7000A07902EB4010C17C01F0F00141F00401C174A179286822684F43C1195160B9F852
:203C90003A001B2804BFB9F83C001B2809D1B9F83E00B0F5A47F04BFB4F86601B0F5A47F75
:203CB00003D014212046FDF773F9104908200870A27988F80220BDE8F14FFEF71BB800BF04
:203CD000184F0020684E0020844E0020AC4B0020844C0020804E00205C4D00208C4E0020CD
:203CF0002C480100734F00206E4F00206F4F00202DE9F04F09AFADF13C0D08900A923888BA
:203D100009911E46ADF81800101C08BF002000F07581017800274FF0010B401C4FF0FF3921
:203D3000B846DA460A9061E1252940F056810178401C0A902D2918BFADF8068004D101780F
:203D5000ADF806B0401C0A9030291CBF4246434604D10178401C5A465B460A902A29CDF820
:203D700000804D4617D1049330680A9BCDF80890C01C20F00300001D306050F8044C197842
:203D9000002C009403F101000A9018D5ADF806A06442009413E044460AE0600000EBC400DC
:203DB0004018A0F130040A9801780094401C0A90302901DB3A29F0DBCDF8089004932E2983
:203DD00029D10178401C2A290A9011D13168CDF80880C91C21F00301091D316051F8045CF5
:203DF000002D48BF454601782B46401C0A9011E0454643460AE0680000EBC5004018A0F124
:203E100030050A9801782B46401C0A90302901DB3A29F0DB02930AB1224604926C2904D0C1
:203E30004C2918BFADF8048004D10178ADF804A0401C0A900BA8CDF80C800FAB079064298E
:203E5000059300F0828069297FD0BDF818C075296DD0782969D06F2965D070294ED0632995
:203E70003ED0732922D00A98401E0A90099801281AD966490C68B5F1FF3F03D0A84288BF34
:203E90006D1C05D86FF00041814294BF0D1C099D029508A80AA932466B46A04709993F1824
:203EB000091A0398099165E0454617E03068C01C20F00300001D306050F8040CBCF1010F8A
:203ED000014608B94FA0014607910EF067FD0390B5F1FF3F4FD0A8424DD9039528464AE0C4
:203EF0003068C01C20F00300001D306010F8040C8DF82C005D46039558463CE008203568FB
:203F10000490E81C20F00300001D306050F8041C082210230FA809F0EFFE401E0790402181
:203F30000170079823E0082302E0102300E00A233068C01C20F00300001D306050F8041C75
:203F5000AA42BCBF2A1C04920DE03068C01C20F00300001D306050F8041CAA42BCBF2A1CD8
:203F700004926FF009030FA809F0C6FE07900599081A0390009C241ABDF8065000945DB943
:203F900006E008A8202109AA0DF064FC7F1C009C641E0094F5D50398401EB0F1FF3F0390A8
:203FB0000FD1BDF8060001281CD10098401E009018D408A8202109AA0DF04CFC00987F1CB2
:203FD000F4E70798017809AA08A80DF043FC0798401C079003987F1CDEE708A809AA0DF052
:203FF00039FC7F1C0A980178401C0A9000297FF49BAE089808B14146017038460FB0BDE8B8
:20401000F08FC046286E756C6C2900C000480100BB482DE9F84F0025BA4CB849056094F879
:20403000E200002800F06581012800F02F81B64E02283CD0032840F05C8151F8250CD4F80F
:20405000B8100029A0F5C060C4F8D400B8BF49420028B8BF4042814226DA4FF08057D7F84F
:20407000A4014568B4F8BC0030214FF47F42082300903046A847D7F8A4014568B4F8C00074
:2040900004214FF4F802122300903046A847D7F8A401B4F8D070456820214FF440620A2324
:2040B00030460097A847012584F8D8501CE151F8258C0EF0EDFD2F4600B901273946934F94
:2040D00038680028FCD0B146012609F10409D9F82CA03E6009B10EF0E1FDCAF30720C4F8A6
:2040F000BC000EF0D5FDAA4600B9B2463B68002BFCD0D9F800B0BAF1000F3E6001D00EF041
:20411000CDFDCBF38440C4F8C0000EF0C1FDAA4600B9B2463B68002BFCD0D9F81C90BAF1A8
:20413000000F3E6001D00EF0B9FDC9F38120C4F8D000B8F5C061C4F8B81000F09C8094F86A
:20415000D80068B9C4F8D410D4F8C000C4F8C800D4F8BC70C4F8C470D4F8D030C4F8CC303A
:20417000D4F8D400D4F8BC30002854BF02226FF0010204F1C8010F6800EB400080184210CC
:2041900000EB927207EBA2000860D4F8C810C4F8C43000291CDD1E293CDDD4F8CC0030B9CD
:2041B0003429B4BF15391E21C4F8C81025E02A29BABFD4F8C8000B381E20C4F8C800D4F8C8
:2041D000C4003F28B4BF401C3F20C4F8C4001FE0D4F8CC00032812D011F10B0FC6BFD4F8E5
:2041F000C8000B30301CC4F8C800D4F8C4000028C4BF401E051CC4F8C450032508E011F140
:20421000150FC6BFD4F8C8001530301CC4F8C800C4F8CC504FF08057D7F8A401B4F8C4303A
:2042300030214FF47F424568374800930823A847D7F8A40104214FF40032112345683248D7
:204250000096A847B4F8C860D7F8A40104214FF4F802122345682C480096A847D7F8A401D0
:2042700020214FF440620A23B4F8CC60456826480096A84701E084F8D85040F2FF504045D8
:2042900002D8801C40452FD2082030E051F8251C1F4F4BF2F5204843060A3868C0F38140E1
:2042B00001280CD11B480068006880470CF002F80EF0FAFC3111C010484306EBE03694F8D4
:2042D000E50030B91448006820F07F403618760801E084F8E5501148310C0660012741604A
:2042F0000F4D8760287808B90B2000E0052084F8E40003F045FABDE8F88FC0462D400C405D
:204310002C500C408C10002000A00C4000800C40B43F0050EC010010102009403C600C40B0
:20433000A14601002DE9FC47DFF8E8A20F460546F80B80F01F81B24EDFF8B882B80F80F0D0
:20435000C180B80880F0B5803809C0F04681A7480178090980F0A880007830F07F0040F096
:20437000A380684607F034FC012803D10098002800F09A809E480078002840F0958001247E
:204390000025E8B20EF0BAFA48B1837A3BB1847290F9090004FA00F0C0B20CF0FBF96D1C59
:2043B000032DEED345464FF0030905F1AC0085F810900EF086FD90490023984608680B6031
:2043D00051F8080C41F8088C8C491A4605F134000EF083FD3068006B8047AA68A969801A3E
:2043F000000BC0F1FF328A422CBF01444FF0FF31A961287F20B1E868A969B1EBC02F25D9E8
:204410000DF09AFD414600B12146081C1BD07D4840F60901018043464380417B04F00F02B7
:2044300021F00F010A434273017B03F00F0621F00F0146EA0102027343600EF03BFB41885C
:2044500011F4406FFBD02C774346AB616E49086820F0020040F4007008606C4A42F8049CC0
:2044700041F23006966014605023936014604FF4CA6696601460022042F80C4C44460C60F8
:204490000CF0AAFB112006F09FFA287818B9686838300EF02EFD687F18B16C7705200CF025
:2044B0009BFB5B4868612C740AF06EF927F0080793E005F023FA40467430006808B927F0D4
:2044D00002078AE00EF003FD34468146606D0068014604208847C8B1287CB8B14046083067
:2044F00006689EB12068EC68006B8047801BE860010BE960A14202D209194908E96040F600
:20451000C41088422CBFB1F5FA7FE86048460FF095F8404641688868444646681EB101F169
:204530002002B24224D1407B10F00F0015D1488C40F60901814210D1A8696FF48071002271
:204550004FF0007306462846B047E06E002808BF47F0020701D00AF017F9686900214FF05F
:20457000806304460A462846A04727F0005734E03046D2E70EF0ABFC51460E684EB306F1FE
:20459000280106C90A234FF0E0450B40154008BF002B1ED106F1280191E8300006F1280316
:2045B00093E8060006F12803AA43A14383E806000FF044F8B16871B1002D08BF002C0AD096
:2045D0003069B6F93C10B2682B4616462246B04701E00FF033F827F4804727B15046394617
:2045F00050300EF08EFCBDE8FC87C046EA230020D11B0020381A002014100440E1C90000B8
:204610008C0100103C230020000004600C41044005A60000B81A00202DE9F04F8246DAF8ED
:204630000070DAF804600C465FEA0208ADF11C0D14BF00214FF0FF31DFF8409248460EF0C0
:20465000DEF9002818BF0B2040F0158100258F488C4905708A48FC6052460EF03EFC317B93
:2046700027200EF03CFCB8F1010F07D0657002200CF02EFD06200CF02BFD01E001206070E3
:204690002078012840F2AA80801E012868D9801E012833D9801E012800F2DE800EF017FCEA
:2046B00083464FF0805000F5EE77D0F8DC01A378466A009321782846062908BF0120019006
:2046D00001200290A068228AE1686368B047814658460EF0B3FFB9F1000F40F0BF80B8F172
:2046F000000F02D00DF0C4FF02E050460CF044FB002800F0A3803868806A2AE00EF0E7FBA7
:2047100083464FF0805000F5EE77D0F8DC01012306680093A168A27860682478AC46042CE4
:2047300008BF9C466346B047814658460EF086FFB9F1000F40F09280B8F1000F02D00DF0B6
:2047500097FF02E050460CF017FB002876D03868406880474C49C1F8B0510D6081467DE0D0
:204770000EF0B5FB83464FF0805000F5EE77D0F8DC01E38A86690093E0680190208B02909F
:20479000A0780390207D04900121059122782846022A08BF081CE1786268A368B04781466A
:2047B00058460EF04BFFB9F1000F57D1B8F1000F02D00DF05DFF02E050460CF0DDFA0028CC
:2047D0003CD03868006A80475FEA000946D1E078A168E28A236908F0F7FBBFE70EF077FB2A
:2047F00083464FF0805000F5EE76D0F8DC01E38AC7680093E0680190208B0290A0780390E3
:20481000207D2946049001200590257805B9014608466268A368E178B847814658460EF0B2
:204830000DFFB9F1000F19D1B8F1000F02D00DF01FFF02E050460CF09FFA08B914201AE018
:204850003068406980475FEA000907D1306802692169E078904781E74FF0FF39B8F1010FC2
:2048700005D002200CF0B8F906200CF0B5F903480EF03FFB484607B0BDE8F08FD0130020C5
:20489000081400206519010050450240F02300202DE9F0410446A078ADF1180D801F00F048
:2048B0002281C01E00F00881DFF84882401E00F08880914E401E6FD0401E00F00F81801EFF
:2048D0003DD0401E40F012814546287A697AB8B96878002831D0A0880EF0ACFE071C00F02D
:2048F0000581A07A40080FD3787968B1E168890A0AD2B91D01AA06F093FA0A2804D10321ED
:20491000A0880EF093FEF1E0287B022802D1A07A0009F4D3A088797904F1080202F066FE06
:20493000A869002800F0E2804368002B00F0DE8000210A46A0889847D8E00521E0E76078C3
:2049500006281ED1A0880EF075FE071C19D045460E352878401E0FD0401E07D0401E10D166
:20497000002140F209400A4600F02CFCA188387805220EF057FE04E0A0887979002202F0BE
:2049900035FE3068002800F0B1804368002B00F0AD8062780221CDE70EF0BCF8002800F085
:2049B000A580306850B1076847B1206900906189227B637BE01C3C46A04797E0608901215D
:2049D0009FE760780026002867D1A079400864D308F11C00006800285FD101A831460E2226
:2049F0000EF0A3FAA0880EF025FE071C7ED0606940B97879B91D06228DF80A0001A80DF06C
:204A10007FFE19E06569287C062205F111018DF80A0001A80DF074FE07F10C00B91D0622C5
:204A30000DF06EFEB81D062205F111010DF068FE287C40F002007871A079C00839BF38794C
:204A500000F0FD00387940F002003871A079000939BF387900F0DF00387940F02000387189
:204A7000A1799DF81120C1F3800010438DF81100080905D39DF8110040F008008DF81100CC
:204A900001A8214601F0E6FE30B940460078022105F03AFF30462AE015264546A86928B3B7
:204AB00043681BB3A088627801219847F6B1A8694368032132463DE7E078211D002206F099
:204AD000AFF90A2812DA410001EB800004F10C0225300421C0B204F095F807E0A088217B38
:204AF00006F0E6FE02E0A0880AF0E8FC012006B0BDE8F081E00C0020F80C00202DE9FE4F64
:204B10008A4C617811B900200DF036FC0EF006FE06464FF0000806F6C4160027844DDFF883
:204B3000149211E038460DF0FDFE417951B12A68817902F8081008F101015FFA81F83146BA
:204B50000EF06CFD7F1CFFB299F800008742E9DB6178884505D000200DF00EFC82200EF032
:204B7000B9FD6078012840F0C380002701E07F1CFFB299F80000874280F2B48038460DF02C
:204B9000D1FE064670790028F1D02968B0790A7890421CBF00200DF0EFFBB079A0E02868EF
:204BB00010F809000DF0BEFE00684268DAF808109068814204BF3E4609F1010900F0A68003
:204BD000A8E0286890F800B001224FF4C0710FE0636803F5AD76835C01FB03F901FB0BFE2D
:204BF00036F809C036F80E60B44538BF9B46521CFBB29A42ECDB4FF6FF700EF00BFD06467D
:204C100058460DF08FFE4C490068D0F804A00868D94630F8192060684FF4C07300F10E01C5
:204C300003FB09F3C85AB2EBD00F52D2720840F6C410424300920027404A0190029217E040
:204C500058460DF06FFE01680A78802A03D1DAF81030009A5A610978402908D10299807915
:204C70000A6802EB4011009800F5A060C8617F1C47452EDA2868C05D8345F8D001464FF4C8
:204C9000C073594363685A1803F5AD73D289595A53088B4202D2521A9045E8DA0DF042FE96
:204CB00001684A68019B9168DAF808207008A1F6C41103FB00200EF02DFD0028C0D01E48F2
:204CD000006830F81910491C20F81910286810F807B01948026800215B4622F813105846AE
:204CF000BDE8FE8F00200DF047FB82200EF0F2FC617828680EF08AFC286800780DF012FE83
:204D100000260068D0F804A04FF00109771CC145FFF645AFF6B2002E1CBFF8B200287FF4C8
:204D300050AF286890F800B065E700BF684E0020004F00207B4F0020C0230020844E00206D
:204D500010B50B7884074CBF43F0020303F0FD0304064CBF43F0800303F07F0304074CBFE4
:204D700043F0080303F0F70384064CBF43F0200303F0DF0310F0AA0F0B7003D0107840F079
:204D90000C0003E018B9107800F0F300107010BD2DE9F8430D4600272878022814461E4638
:204DB00069D1696808784978DDF8208000EB012080B25FEA08021CBFB0F5285F0B205DD131
:204DD0004FF42851401A0AD0401E23D0401E4CD0401E27D0401E2DD0A23846D04BE0DDF868
:204DF0002490E8680EF0A3F880B2A0EB08024A45BCBFA0EB08001FFA80F909EB08001628D6
:204E100006DAA6F800904A46E86800EB08010DE00D2732E0E8680088022131802070000A27
:204E300060702AE0062030800622E96820460DF067FC22E0E868B0B10821318002882270CA
:204E500003881B0A63704188A1704288120AE270818821718288120A6271C188A171C08876
:204E7000000AE07109E0308007E001213180E8680278227001E0378001273846BDE8F283C0
:204E90002DE9F0470F46814638780024022890461D4671D17868089E01784078DFF8E0A012
:204EB00001EB002189B24FF42852891A08D0491E2BD0491E50D0491E3BD0A3395AD05BE0C6
:204ED000F8680EF034F880B2B04204D3A919162903DB0D2451E007244FE0FB682A46414648
:204EF00098190DF00DFCAD19F868ADB2C5F11602002140190EF019F8DAF8000000281CBF3A
:204F10000268002A39D0002123E08EBB022DE0D198F8000098F80110FA6800EB0120108068
:204F3000DAF8000000281CBF0268002A25D001210FE0EEB9062DCCD1F868062241460DF06F
:204F5000DFFBDAF8000000281CBF0268002A14D003214846904710E056B9012DB9D198F84A
:204F70000000002813BF0128F9680870802404E00B2402E0032400E001242046BDE8F087DE
:204F9000D82300202DE9F04385B011F8017B0446082F04F1FD0004F1FC0804F1760504F50E
:204FB000A076844A844BDFF8149213D0092F21D00F2F2FD0112F01BF287801286878102887
:204FD00040F0D5800A78327648787076012184F83D11EBE00025521C4E5D5F5D3E434E5597
:204FF000575D3E4046556D1C082DF5DB204608F05DFF74E00024571C0D5D1E5D35430D55E2
:205010003A5D15400555641C082CF5DB022088F80000CBE098F80100820704D410F0110F57
:2050300057D01A2266E008784A7800EB02203080CA78887800EB022070804A79087900EB4A
:205050000220B080CA79887900EB0220F080087A30724A7A887A02EB00227281C87A0A7B7A
:2050700000EB0220B0818A7B487B00EB0220F0810A7CC87B00EB022030828A7C487C00EB5F
:20509000022070820A7DC87C00EB0220B082487D897D00EB0120F082494801788A0658BFE8
:2050B0001A2212D504F5A670049071890391307A029021890191F0880090B388728831881E
:2050D000204608F057FCE0B11E2298F80100410710D40F2088F815002046FBF779FF0028C5
:2050F00064D199F8000005B0BDE8F0434FF4804105F00ABC204605B0BDE8F0430F21FBF779
:2051100053BF7088A882B188E9820221F0882883297400206882A18EA88AC91DE981618E1A
:20513000B0EB510F02BFE88AA18E884202BF288BE18EB0EB111F18D02878012804BF687836
:205150000F2805D0687918B10F21A972FE2127E0FC212046FBF71CFFF0880090B38872884B
:205170003188A079FBF718FF20E0102118E0491E20460EF047FA032F18D1A878042818BFD1
:205190000D2813D16E78142E18BF0E2E0ED12F782046FBF705FF012F06BFAE72FD2131461F
:2051B000204605B0BDE8F043FBF7F2BE05B0BDE8F08300BFEC4D0020B02300206E4F002095
:2051D000144E00207CB58D4D144602460026A2F58062182A1AD8DFE812F006010001F900F3
:2051F000F100EA00DF00D800D3001900C800C100BA00B100A60019009F007E006D0066007E
:2052100052004A003D0035002B0023002D2880F2818002297ED121880AF030FF0646EAE0F8
:20523000012940F0E780002C00F0E4801235AAE0102940F0DF80002C00F0DC8005F15000C6
:20525000102210E0012940F0D580002C00F0D280AD1D98E0262940F0CD80002C00F0CA808B
:2052700028462622603021460DF04AFAC3E0012940F0C080002C00F0BD806D1D83E0602924
:2052900000D13CB9012940F0B580002C00F0B2800D3578E005F18600214660220DF030FA35
:2052B00001206873A7E0012940F0A48020780EF0A5F9A0E0012940F09D802078022800F3FD
:2052D00099800C3528702078022814BF301C01200EF090F98FE0072940F08C80611C68463D
:2052F00006220DF073F820786946324605F098FD04460A2C0EDA0EF079F938B9204603F0A3
:2053100057FB0CF003FC09F00DFF74E02C350120285570E002266EE001296BD121780429E6
:2053300068DA0E3550E0012964D1E87B21780028E97360D1207801285DD1E4E7012959D18A
:205350002178072956DB102954DC0B353CE0012950D121780A294DDA093535E0012949D1A9
:205370002178022946DA08352EE0002942D10EF03DF910B90DF064FAC3E70121103523E046
:20539000012937D10A3521781EE0012932D1217802292FDAED1D17E010292BD14035102020
:2053B00014F8011B401E05F8011BF9D123E0012920D1217802291DDA2D1D05E0012919D158
:2053D0002178042916DCED1C297014E0012911D1217802290EDAAD1CF6E702290AD1208863
:2053F0001435288007E0012904D121780229D8BF6D1CE9DD182630467CBDC046E00C00201D
:205410002DE9FE4F05467B48002400680094C00905D37948007810B920200BF0FBFC012DE8
:2054300040F0E280DFF80092D9F8DC00012840F0D8800220C9F8DC000DF05AF801200BF0D9
:20545000E9FC5FEA000805D00120C9F8DC000DF05BF8CBE00DF051FDA34602906748684D4E
:20547000C0F800B0A86A016801208847012804D1584608F0F3FD012000906248624FC0F801
:2054900000B0386811200DF021FC00B1012410200DF01CFC08B144F002040F200DF016FC15
:2054B00008B144F004040B200DF010FC20B12868564E016B308888470A200DF007FC20B1C0
:2054D0002868534E016B308888475248012606602868816944F0200088474F4806600DF0DA
:2054F000EFFB00F001010191400814D2286A81684A4888478246BAF1040FF7D0BAF1010F1C
:2055100004D1286A42684548032190474449086820F003000860584600F088F82B68386829
:20553000986B8047019801280CD0BAF1010F04D1286A42683948314690473949086840F036
:20555000030008602F48066028684169204688470B200DF0BBFB20B128682C4BC16A188803
:2055700088470A200DF0B2FB20B12868284BC16A18888847274806600322C9F8DC20264BE2
:20559000C3F800B02868416B204688470128F9D1386804200BF03EFC044618480660386883
:2055B000144800688009FBD30098012802D1304608F054FD0DF072FB08200BF02BFC07466C
:2055D0000298C9F8DC600EF00DF81648008808F07BFA0CF099FF57EA040018BF4FF0FF38A8
:2055F00004E06FF0040801E06FF001084046BDE8FE8FC04614100940741100200C4009409E
:20561000B8010010000222432C2009403643010032430100282008608001044300400340CA
:20563000242208409C4601008C1000202DE9F84FDFF804B20746ABF13500DFF8F081006875
:20565000800880F0E28075480068006880477E490831D1F8009000254FEA29715FEA995207
:2056700001F101010AD2C0F13E0210F10A0F4FEAE202D8BF08229142B8BF111C684BD3F86C
:205690007C21C2F30462162AA8BF203A1B68C3F30443162BA8BF203B9A465218162A05DA55
:2056B00012F10A0FB8BF6FF0090200E015225D4B5D4E02F01F0141F4F8511980316811F0B0
:2056D000030F18BF0125C90828BF45F002050FB145F00405434693F90710411A052904DA26
:2056F0009979A94208BF99886FD0DFF844E10F28A0F10F0829DB08EB0011A1F1F0084FEAD0
:2057100028210091072984BF07210091062988BF06215EF821600424774604EB81043C5911
:205730004FEA950CA41BEE0804F0FF0124BFC4F3072631446F08AE0824BFC4F30746314411
:205750006E0828BF01EB146104E000214FEA950C6F080091009C5EF824E05FEA5C060EF0F5
:20577000FF0424BFCEF3072634447E0824BFCEF3074634446E0828BF04EB1E64009E89B237
:20579000A8EB06267143803104EB1124AAEB02010029D8BF0121342209F0FF074A4391B212
:2057B0004FF6FF727943B1FBF4F18A4238BF111C802889B2998005DA10F1800FB8BF6FF0A5
:2057D0007F0000E07F20D8719D711A4800681F2918604FF0000008D340F2FF128A4206D2D9
:2057F0004908401C8A42FBD301E01F219980134F0F39090940EAC10047EA0001CBF8FB1F62
:205810000026CBF8FF6FBDE8F88F0D490D4F434608200F609B1D1870BDE8F88FEC010010BA
:205830003C1100506E62084024220840B82300209C130050082009403500094000E7A48021
:2058500030100940FDFDA400AC3F00502DE9F04F044675488A46016894461F46BAF1000F48
:20587000ADF13C0D4DD0BCF1000F4AD09AF8002001209040014244D0BCF80000B0F5C15FCB
:2058900032D1DCF81430DCF818206848DCF81C104FF0030E0DF128080B93DFF894B10C924B
:2058B00000680D91C0F3036958F8046FCEB10021351F05200B4655F8042FB2F1FF3F10D045
:2058D000934506D0401E01F1040103F10103F2D107E0052B05DA705820F4702040EA094025
:2058F0007050BEF1010EDFD1C4F804A0C4F808C00DF0EDFA4F4D8046287820B140460DF04C
:205910009DFE00208DE002F0BDFF4B49086840F00200086007A80DF0D5F8002605F1D0009E
:2059300007AA464909960AF0E3FC454905F5827007AA0AF0DDFC07A80DF094F8FF2105F153
:20595000340007AB3F4A089119210AF057FC3E4A05F150001A2107AB0AF050FC3B493246AB
:2059700005F18800134609F031FD3949324605F1AC00134609F02AFD364A05F12000042149
:2059900033460CF023F80E2005F0A4FA05F174000CF08CFF05F16C000CF088FF2E74072007
:2059B00085F898012E77AE616E770523AE602B49EB602A786961501C2870274B1E7040463D
:2059D0000DF03CFEB1464FB92548B0E88C106946A1E88C100DC86F4681E80D0038682060EC
:2059F000398A6182012060747B6813B940F6C4130646E3601B48A06126746061F86800B1E1
:205A1000A061B86800B160615822494604F1200007F0DAFD04F1380049460BF0D1FD20460C
:205A30006C600FB0BDE8F08FD4210840541300500200F844381A002000200940492501002B
:205A50006DA40000E1C9000079E20000291F0100C522010049F70000EA23002005A60000D7
:205A70003C460100A7C300002DE9F0430446DFF8F081DFF8FC91A2780025ADF1240D101CB0
:205A900000F09E80801E79D0401E01285ED9801E3CD0401E00F0CA80401E30D0401F00F054
:205AB000BC80401F40F0CD804646204696F828308188B769022BADF8081010D0012B15D0E2
:205AD000BBB9C188ADF80A100389ADF80C304289ADF80E208089ADF81000012107E02FB188
:205AF0007A681AB1001D02A9904702E029468DF812105C49102002AA01F002FB93E00DF073
:205B1000F7F86078002840F08E809AE06078574EB8B960890090207B53490190E278231D05
:205B3000102001F0EDFA207B042840F08A800121357040F2053007AA8DF81C1000F09CFD33
:205B50007FE06078312808BF35707AE0677897B940468189032A0BD08278C77811B9012AEA
:205B70006FD106E017436CD094300AF02FFE68E00125857065E00C2F55D168E0607800281D
:205B90005FD14646E778307847B906F194000CF0A1FF88B901200CF0D5FF0DE00BF0A2FC53
:205BB0000246B07906F1730749462B4600901020019701F0A5FA60706078002833D040E018
:205BD000607800283DD12B4E454605F134000222009031461020034601F092FA05F144001E
:205BF0000322314600901020034601F089FAE01C026805F11C010A608088888028780BF0EE
:205C100071FC0246287905F154074946012300901020019701F074FA13E01749A288237B48
:205C3000102001F06DFA012D0BD010E01349A288102002AB01F064FA1149A288102001F07C
:205C50005FFA46461836306808B1006808B9012002E001462046884709B0BDE8F083C04631
:205C7000C40700200516011065870000C607002009450110158C0000C1B80000097F011012
:205C9000CDF400002DE9F04F0746880FADF1140DC0F0EA80764E301D006841688D68CC68D6
:205CB000486800B18047B046724E002D08BF002C0BD030680028FCD00020306005B1A8471A
:205CD00004B1A0476C480BF039FC6C480CF0F2FE6B4940F60A000880002048800A7B00F0BB
:205CF0000F0322F00F0213430B7348604A7B4FF0010B0BF00F0522F00F0245EA02034B73AF
:205D1000BB687C7C58801A88B1468246A2F60202CAB141F21E05521B15D041F6E675521B61
:205D3000012A20D85A7E012C60F382025A7606D01A8B22F47C7242F434721A8313E01A8BF4
:205D500060F30912F9E75A7C012C60F382025A7405D01A8A22F47C7242F4347202E01A8A5E
:205D700060F309121A82BC68787440F60A02049400E03446666816B133889A42F9D161600E
:205D9000637B00F00F0523F00F031D436573D8F86C603EB1F3681B88D51F9D4225D0921FB2
:205DB0009A4222D03E8C16B3786207F12005688097F82C2000F00F0322F00F02134387F8BE
:205DD0002C3097F82D200BF00F0622F00F0246EA020387F82D304D604A7B00F00F0622F0AE
:205DF0000F0246EA0200487301E0C8F808A02548036882680192C168406B0093102220F04E
:205E1000784040F0805003901F480291694605F0C9FFD9F800000028FBD01C48C8F81400C5
:205E300098F81D00C9F800A090B9194800680068014658468847012810D0607B0BF00F0127
:205E500020F00F0001436173124FC8F8147005E00AF094F80028FBD00DF047F848461C38DA
:205E7000C0F81CA00499016005B0BDE8F08FC046381A00201C1004400100070601010E04BD
:205E90003C2300204C1300501800002135430000E0010010CDEE000079488078FF2800D1B6
:205EB00070472DE9F84F0CF03DFD054605F20F100178012908BF417800F08A8005F58E740E
:205ED000E18911B1207B04F01FFD6889288105F17401887B022803D105F174000021817356
:205EF00005F58979DFF89CE19EF80A009EF807309EF80C209EF80B109EF80D60B9F802703C
:205F100000EB030890448844B044B9F80460761CA9F80460C719B9F80060A9F802704644AD
:205F3000A9F800602468E4B1574F95F806B03F68182607F10E0A06FB0BFB0E371AF80BA048
:205F500034F81AB0C34424F81AB095F806A006FB0AF6BE5D04EB4604B4F84A70C619A4F8E5
:205F70004A60002B08BF002905D1002A04BF9EF80D1000290FD02989E88941180026A98102
:205F90002E74424841690A78900726D59EF80E00802822D022E018B100200126287405E036
:205FB000B9F80600401C0226A9F80600A8892989814206D08842E4D2081A41F2AB0290421F
:205FD000DFDA287C08B1052901D0082100E03E212846BDE8F44F0DF0D1BB812005F1740A40
:205FF0008AF800002846FBF721FC012846D0012128460DF0F3FA28460DF0ECFA02F03AF963
:2060100001283BD0FBF776FE214F3868B0B3B888AA7990421CBF4FF6FD7188422ED11D4872
:20603000007A0CF0A7FD040028D02670A8791A4960800A68A879115C21719AF90020627128
:20605000A4F80680B9F8020020810CF05BFD050005D1FF204FF0FF31A072E16009E0287821
:20607000A0720DF05BFB0146A8680DF0AFFA8008E06020463968BDE8F44F0847BDE8F18F83
:20609000684E00205C4D0020804E00202C480100A823002054190020C82300202DE9FE4F08
:2060B0000E468246307AC10693461F464FF000090CD558460DF086FA030000F0E8800A223A
:2060D0003146504698475FEA00094DD130780C9D0D9CDDF8388002281AD1706801784078AF
:2060F00001EB002189B24FF42052891A012910D9891E3AD0491E14D0FD397AD0491E00F00A
:206110008180491E6DD0491E73D0491E00F09580ABE0002C2AD1F068017829800278416865
:2061300087E0002C22D101202880F1680A783A7000217089401C80B20DF040FA298860B1DA
:206150000278921C51182980418979704289120ABA7041680278F81C6CE0091D29800422B9
:206170000021781C0CF0E1FE93E0002C66D1F0680688042129803E70320A7A700DF1020120
:2061900030460DF01BFA040021D0D4F80C80BDF802204FF6FF766B4631460DF00BFA40B966
:2061B000237862683C4802210DF000FA08B9ADF8006098F8000002280BD1D8F80410022268
:2061D000381D0CF09DFA2888801C288001E0ADF80060BDF80000B870BDF80010090AF970CF
:2061F00057E0002C2AD1F068016850460CF032FC02E01CBBF0680088022129803870000A99
:20621000787046E0F0680CF092FE80B2A042B8BF4FF007093DDB844208BF002205D008EB13
:2062300004028242B4BF4246021B2A8092B2F068011938460CF064FA2BE014B14FF00B0911
:2062500027E0F0680721298002783A7043787B704188B9704288120AFA7001793971C28884
:206270007A71C088000AB87113E058460DF09AF95FEA00090BD00F980290CDF80480009444
:206290002B463A4631465046C847814601E04FF00E094846BDE8FE8F704401002DE9F04F19
:2062B00004467A480568006888461E469146C6F399018900ADF12C0D0A010021803207F05C
:2062D00083F9DFF8B0A1AAF1880002466848016828469047074671084FEA960CCDF8048057
:2062F00026F0030021F001010CF1020200F10808091DCDF8089002EB0800009443189B1846
:2063100005EB8000BC4505EB8303079005EB820BC6F39C0008934FEA800000F1080002EBE3
:20633000400000EB080305EB8303059300EB010305EB83091144134405EB830402EB020389
:2063500005EB8303039305EB81031144049305EB8101069105EB80010991104405EB8000E9
:206370000A9018BF6FF001007ED10AF168000246394628469047019831460BF038FF002814
:2063900018BF012070D1029831460BF030FF002818BF022068D101995846D047039802999A
:2063B000D047009881680498D0473348049A594682462046D047012802D1BD0066590EB14E
:2063D000032051E020460021424607F0FDF80399049A2046D047012801D166590EB104200A
:2063F00042E0264E264D069859463246A847079803993246A847069908980A46A84709981F
:206410000899069A2E46B0470A9806991D4D2A46B04720460021282207F0D6F81A48099914
:206430000A9A82462046D047203520462A460146D047079948460A46B0470598002142461F
:2064500007F0C2F8FDB24846002D0CBF0122FAB20021635C455CAB4218BF052004D1491CD3
:20647000521EC9B2F5D100200BB0BDE8F08FC0468C4F0020B9DB0010C9DE0010E0170020E9
:20649000F9E0001028440100C9E60010884F00202DE9F04F6F4C04F110012046ADF11C0D9D
:2064B00009F034F86C4D0022012304F19400294609F04AFA04F1B809002202234846294679
:2064D00009F042FA04F1340A0C20002110226070504607F079F804F1440B002110225846C2
:2064F00007F072F8002704F11406376004F10A052F700720E771DFF86481277202226072F1
:20651000414610200346CDF800A000F0F9FD102003224146CDF800B0034600F0F1FD042282
:20653000102041460096134600F0EAFDB1461835BA464FF6FF7BA04602E0608D0BF01EFA03
:2065500020694A4A51464FF0FF33FAF737FA061C4AD0CDF804A002A805A901AA0AF0DCFC6A
:20657000002841D1BDF808000127102837D120789DF81410884232D1019801888B4523D0A9
:206590000378A23B02D02E3B1AD028E04179132925D10089012809D16079022806D10CF018
:2065B000A7FB019840880BF0E9F918E02E491020052200F0A5FD81B22D480AF007F90EE003
:2065D000FFF752FA07460AE04088C00B07D304222449CDF800901020134600F091FD01983D
:2065F00010B10FB10CF043FC700825D3E778A07857EA000320D098F800005FB9E2798DF82C
:206610000A20217A8DF80B10AB8803AFBB802A683A6002E003218DF80A10627A8DF8122081
:20663000A17A8DF813100AF05DFF0D4902460DF10A03102000F064FDB00881D36079401EC4
:2066500003D0401E3FF479AF7AE70A49012005F039F875E7C4070020552B01000D180100B5
:2066700059440110158C000069260100030000807C080020EC0700202DE97E4114466F4E05
:20669000734A0546A0F2013088460C2804D91A381ED0E93814D008E0DFE800F0958FCC0765
:2066B000645BB3A05249CC3E31C02D2D80F2C280B8F1020F40F0BE805F4923882846B5E096
:2066D000B8F1010F40F0B680217810460B3020E0B8F1010F40F0AE8030468178012900F0C1
:2066F000A980C2782178C1701AB9002953D1BDE87E812178002940F09D80354653E0B8F133
:20671000010F40F097802178042980F2938010460A300170BDE87E81B8F1010F40F08A802F
:206730002178082980F2868010460930F1E7B8F1010F7FD1217804297CDA10460830E8E71E
:20675000B8F1010F76D12178042973DC1046C01DDFE7B8F1020F6DD1218810460C30018067
:20677000BDE87E81B8F1010F64D13046C178012960D035462078A978A87089B9002859D08F
:206790003049102000F0BCFC2F49097881429CBF0020A8704ED901200CF0D4F9BDE87E8194
