:20000000004000200502010001C9011001C9011001C9011001C9011001C9011001C9011056
:1C00200001C9011001C9011001C9011001C9011001C9011001C901103FC9011089
:20003C002DE9F04FDE4C04F114012046ADF1340D0FF012FD04F140060021304600F08CFD7D
:20005C00D84904F188054FF47A7240232846A6610FF020FFD44E06F1180006F10C010BF08C
:20007C00A5FED249B06013F0A3F8D14FB0684FF4E0213A46521E10F0DDFDB0684FF4E02156
:20009C003A4610F0D7FDCB4FB0684FF0C0513A46521E10F0CFFDB0683A464FF0C05110F0CA
:2000BC00C9FDC54906F12400C82200230FF0F2FEC248002170604FF080400EF053FFC04DE2
:2000DC00206121211E22284611F0F0FFBD4800214FF6FF7211F0EAFFBB4800214FF6FF7203
:2000FC0011F0E4FFB94800214FF6FF7211F0DEFFB74800214FF6FF7211F0D8FF2769DFF835
:20011C00D48257B1284606793EB1454603212970EF600021A9600EF009FEAF4D102006226F
:20013C004FF44873294607F0B3FA102007224FF44873294607F0ACFA102008224FF44873D7
:20015C00294607F0A5FA102009224FF44873294607F09EFA10200A224FF44873294607F067
:20017C0097FA10200B224FF44873294607F090FA102002224FF4FA73294607F089FA10206A
:20019C000C22A023294607F083FA10200D22A023294607F07DFA294610200E22A02307F0E7
:2001BC0077FA294610200F22A02307F071FA10202946A023024607F06BFA294610201122E5
:2001DC00A02307F065FA294610201222A02307F05FFA294610201322A02307F059FA2946B4
:2001FC0010201722A02307F053FA294610201822A02307F04DFA294610201522C82307F0E1
:20021C0047FA294610201622C82307F041FA2946102019224FF47A7307F03AFA29461020B9
:20023C001A22002307F034FA207811F02FFC6B490246102007F02CFA012700208DF8210023
:20025C0082468DF822706648ADF816A00FF02CFC092184F8581084F85910412184F85A1038
:20027C004E2284F85B20432384F85C302D2684F85D60857A84F85E50C57A84F85F50057BEE
:20029C0084F86050457B84F86150022684F862600A2584F8635084F864A084F865603D4621
:2002BC0084F86650062584F86750032584F8685084F86960F02584F86A50FF2584F86B504B
:2002DC0084F86C1084F86D2084F86E30817A84F86F10817A84F87010817A84F87110807A08
:2002FC000DF12102394684F8720040F2053006F055FE40F21B3039460DF1220206F04EFE44
:20031C0040F2063031460DF1160206F047FE04F158024FF442700D2106F040FE04F165028F
:20033C0040F207300E2106F039FE0F2039460DF123028DF8230040F2044006F02FFED04DAD
:20035C0004F13000DFF83C93A86199F800102878617211F09BFB0246E87A05F1340300909B
:20037C00CC49019305F14403029305F1140303936B78102007F08CF9617A480000EB011095
:20039C0080B213F026F84546E06158B3637A53B34FF6FF711A46521E20F8121BFBD122E09C
:2003BC00080200206D300100381C0020190C01000E0005800E000010F9290100212C01009D
:2003DC00C81C002058190020A01B0020081B0020541B00205C1F0020E5050100518801104F
:2003FC00E8120050637AD80012F0F3FF606270B1627A62B10346A3F806A083F800A0A3F8DC
:20041C0004A0A3F802A0521E03F10803F3D104F17300C849009052461523102007F038F97B
:20043C00C54910204FF0FF3207F032F9C34910204FF0FF3207F02CF91020DFF80483C14B6E
:20045C00C14A009041460193132307F021F999F80000800012F0BDFF0146BC4883468160BF
:20047C0069B14FF6FF7010F0D9FDB94B1020414600900BF114020193112307F009F9B046A8
:20049C0003208DF8247004268DF82600C7498DF8258006AB8DF8276050460A6809791A6034
:2004BC0009AA197139460AF033FC38460DF1250201460AF02DFC0DF12602394640460AF009
:2004DC0027FC0DF12702032039460AF021FC052106AA30460AF01CFC04F12800C149CBF8B5
:2004FC000400102007F0D4F8207811F0CFFAC4490246102007F0CCF8207811F0C7FAC149E3
:20051C000246102007F0C4F850468DF82A0041468DF8281056468DF82970DFF8EC828DF887
:20053C002B704FF480623B468DF82C600AA800904146102007F0ACF80DF1290040F202421C
:20055C003B4600904146102007F0A2F80DF12A0040F203423B4600904146102007F098F838
:20057C000DF12B0040F206423B4600904146102007F08EF80BA84FF483623B460090414604
:20059C00102007F085F8B14904F13802102007F07FF8AF49102007F07BF82069A5A35146DA
:2005BC00524611F040FCAC4812F029FF6069A94A51464FF0FF3300F0D3FA5FEA0008F5D095
:2005DC005046049008A904AA05A810F049FFC0B9BDF814100120074610290DD120789DF87D
:2005FC002010884208D1049801884FF6FF728A4202D000F08FFE0746049810B10FB112F0AA
:20061C00AEFE5FEAD870C0F0388130E1A669304600F0AAFA864208BF574602D0876810F001
:20063C0031FD381C00F02381398822692878E36A491E00F01381491E00F0C980891E00F02D
:20065C008980091F35D0083903D0103900F0DE800AE179688E78002E29D0012E1CD0022E59
:20067C0012D0032E40F0AF80CE78002E08BFB0A315D00B880093CE78B4A3019611E0C04628
:20069C00500E0020694F0020CE78002E40F09B80B5A304E075E90000CE7826B9B8A309887E
:2006BC000091C01C8AE00988BBA30091E5E7BFA3F5E778680078010922D24009C0F083806B
:2006DC000E2012F08BFB00287DD16868697803790A46934212D0FF2A75D000EBC203DE683A
:2006FC002EB900EBC10000690EF020FB6BE000EBC200006901461046884764E08068F3E7F6
:20071C000D2012F06BFB00285DD1696868780979814207D0FF2809D0401CC0B210F052FEE7
:20073C00FF2802D1504610F04DFE687009F0CAF849E0C046F1D500005D220100092501008B
:20075C00351C0100C04C01003C120020E0140020CC4C0100980836D3266A002E33D0207980
:20077C0006F10803401C2071C249009372883379102006F08DFF5FFA80F9B9F1160F17D0F0
:20079C00E66AB9F1040F13D036F00206E66208D14FF6FD70B84AB64900900123102006F071
:2007BC0077FF48460DF0B2FA0DE0C046F24C01002079009022692878B0A3401DC1B2104671
:2007DC00524611F030FB786810F05CFC4CE07B689BF800101E783EB1B61E0FD19BF8021071
:2007FC00AAA302E025D10000ABA3401D0091C6B210463146524611F016FB7B681846E3E782
:20081C00318101105D32010039500000C01CC1B27E68CC48A3A300901046524611F003FBD4
:20083C00C8480090C64972895346102006F030FFC9E7C046496E697420646F6E6520636F02
:20085C0072726563746C792100C046C061270100C5AB00107F0000C090020020786800F0C6
:20087C0059FD786812F07BFD384610F00BFCA06900F07EF900283FF4C9AE5FEAD810FFF4C1
:20089C0095AE94F90300401C40B2E070009020690121524687A311F0C6FAAC4867790078C1
:2008BC000FF27029002F40F08C8040F21B300DF12D010AF02DF89DF82D00C8B901208DF866
:2008DC002E0001210DF12E0240F21B3006F066FB21690A4640B1022804D0182814BF76A3B5
:2008FC007CA302E083A300E04B4603211046B8E050468DF82E0001210DF12E0240F21B301C
:20091C0006F04CFB216940B1022804D0182814BF69A370A302E077A300E04B460846524680
:20093C00032111F080FA0120607110F05DFB9BE043786E20256420626F6E642073617665D3
:20095C00207375636365737300C046C043786E20256420626F6E64207361766520666169E8
:20097C006C65643A2025640043786E20256420626F6E64696E67207375636365737300C097
:20099C00636F6E6E48616E646C652025642070616972656400C046C070616972696E672033
:2009BC006661696C65643A20256400C0636F6E6E48616E646C652025642070616972696ECD
:2009DC00670011F063F85D490246102006F060FE206912F0CFFBA7785D4803C81FFA80F851
:2009FC00F7B1594F5646CDF800802069514652464EA311F018FA00972069012152464DA324
:200A1C0011F011FA97F98000009020690221524649A311F008FAA078761C81378642E2DBF4
:200A3C0084F801A084F802A084F805A001208DF82E0001210DF12E0240F21B3006F0AEFAFF
:200A5C000146206959B1022907D0182919BF032119A302211FA3024648E726A300E04B460F
:200A7C000221524611F0DFF93A4812F0C8FC9DE585F50000DDFE00108F2D01005273702085
:200A9C0073656E642072657472793A004368617220333A20256400C04368617220313A2063
:200ABC00256400C050617373636F64653A20256400C046C0256400C0536574506172616D90
:200ADC0065746572204F54524F204552524F522100C046C0536574506172616D6574657288
:200AFC0020424C4520494E56414C49442052414E47452100536574506172616D6574657245
:200B1C0020494E56414C494420504152414D455445522100536574506172616D65746572E3
:200B3C0020434F52524543544F2100C0414E432D25780A0025730A0025640A00110E01003C
:200B5C001515010040E20100BF060020500E0020E812005090020020DFF800F0A1B601109D
:200B7C00DFF800F0F99B0110DFF800F019BD0110DFF800F04FBF0110FEB5DFF84803DFF8AD
:200B9C0048430578DFF84403DFF84473DFF84423DFF844130D2D41F2064641F202434CD8C4
:200BBC00DFE815F08E010E000E000E000E0068009C00DF000C0145014501630163016A01D7
:200BDC00206041F20446DFF814034188B1421FBF478BB742478EB74203D11680DFF8000397
:200BFC00B6E00029DFF8FC6211804FF4A0573AD0491E3DD0491E36D040F2FE3CB1EB0C011A
:200C1C001CD0091F01291FD94FF47F7CB1EB0C011CD04FF4406CB1EB0C010FD0891E012967
:200C3C000CD9091F0AD0491E01290DD940F2F932891A012917D9091F08D039E1022D14BF04
:200C5C001780A94E2660EAE0A84EFBE7A8490A68157A012D03D1438043834386F2E74780DC
:200C7C0047834786EEE7002011F022FE832023E18F2021E19F4D698811800029206050D01C
:200C9C00491E67D0491E4CD040F20240091A23D0491E46D040F2FB30091A17D04FF44060C6
:200CBC00091A3ED0491E17D0491E012932D9091F12D0491E35D0491E0ED04FF47E70091AEE
:200CDC002FD0491E08D0C91E06D045E06E8001200BF09AFF2530A873874839E087494B883A
:200CFC001380002B20601CD05B1E33D05B1E18D040F202401B1A2AD05B1E12D040F2FB3076
:200D1C001B1A1DD04FF440601B1A0AD05B1E1ED05B1E012B40F27D809B1E0ED09B1E16D032
:200D3C005B1E76D05B1E12D04FF47E701B1A70D05B1E0CD0DB1E0AD00EE0714921606EE038
:200D5C00887B4E8025280CBF2720401E88736D48206064E08F2060E0002011F0A9FD84201B
:200D7C005BE0B978FF2939D020601820664B41431868851C40F204466B5A13809B1B012BF6
:200D9C00624A71D94FF47F769B1B0FD04FF440669B1B032B84BF5B1F012B0BD99B1E012BF5
:200DBC0062D940F2FD369B1B33D103E0801C41F201434352226009F035FA30E0B978FF291F
:200DDC0052D020601820504D41432868861C40F20447755A1580ED1B012D4D4A70D94FF490
:200DFC007F77ED1B11D04FF44067ED1B0FD0AD1E012D84BFED1E012D09D9AD1E012D5FD99F
:200E1C0040F2FD37ED1B04D101E0801C4352226005E0002011F04CFD852000F087F803B0C9
:200E3C00BDE8F0403B48007801210AF097B84888108040F2044290421CBF41F20842904287
:200E5C003ED041F60402904211D1334C3348344B00680025CDE900450222324C256855F8FA
:200E7C00086FB04730490880F7BD48881080002011F01EFD85201FE04888108002280DD983
:200E9C0040F20442801A1BD040F6FC72801A05D0083815D04FF47F72801AE8D1887B801CDB
:200EBC00C2B2B52AA8BF6620887300204880F7BD002011F0FDFC8420BDE8FE4000F036B8C0
:200EDC00F7BD00BF6F4F0020204F00209F330100684E0020504F0020CC4C0020204A0020EC
:200EFC0059550110615A0110B1540110755B0110104F00209C4C002099D000006C4C00208C
:200F1C00093F0000B5CC0000804E002031390110116600006E4F002002000080EC4E002053
:200F3C000D120100F04E0020424F0020DFF800F09D9200102A482DE9F0410C461D4606AF3D
:200F5C0090466168BB884E7802783F88097842F6232C01EB06210026B1EB0C0129D0491E42
:200F7C00052918D9891F0CD0263933D1072F2FD8C7F10701994298BF8BB2C019083001468B
:200F9C0020E0BA4224DBD21B9A42D8BF93B22B804068C11917E0E06811F08EFF80B2B8426F
:200FBC0016DBC01B9842D8BF83B22B80E168C91909E0082F0CD8C7F10801994298BF8BB299
:200FDC00C1190F312B8040461A460BF0B9F904E0072602E030460A2628803046BDE8F081D0
:040FFC009811002028
:20100000B41200001810000015AB0110FDB301106DC00110FDAE011099B5011000000000F7
:08102000000000002D0000009B
:20102800B01200003C100000B1C00110A9BF011067C0011069B80110000000000000000035
:041048003000000074
:20104C00B012000060100000BDC00110CDB30110D9BD01106DB3011000000000000000005B
:04106C00310000004F
:20107000000000002820002004000000000000000000000020000000E8C9011030000000E2
:2010900028100000302000200400000000000000000000000C000000D8CA011018000000BD
:2010B0004C1000003820002004000000000000000000000024000000F0CA01101800000041
:2010D00000000000402000200400000000000000000000001000000018CA01102C0000004D
:2010F0000010000050200020040000000000000000000000200000006CCA011024000000B1
:20111000FFFFFFFF582000200400000000000000000000002800000090CA01102400000070
:20113000FFFFFFFF602000200400000000000000000000001400000008CB011018000000EF
:20115000FFFFFFFF6820002004000000000000000000000058000000B4C9011034000000BD
:20117000FFFFFFFF702000200400000000000000000000001000000020CB0110180000008B
:20119000FFFFFFFF782000200400000000000000000000001C000000B4CA011024000000B8
:2011B000FFFFFFFF802000200400000000000000000000003800000044CA011028000000E0
:2011D000FFFFFFFF882000200400000000000000000000005400000078C901103C00000055
:0811F000010000005C4D01004C
:0411F80001000000F2
:0411FC0000000E00E1
:0412000000000F00DB
:0412040032000000B4
:0412080001000000E1
:04120C00EC1E0020B4
:0412100000020000D8
:0412140000000000D6
:0412180001C90110F7
:04121C0000000000CE
:0412200000000000CA
:0412240008000000BE
:0412280000002200A0
:04122C003C1D002045
:0412300000000000BA
:0412340000000000B6
:0412380008000000AA
:04123C00AC1E0020C4
:0412400000000000AA
:0412440000000000A6
:04124800080000009A
:04124C00000000009E
:04125000000000009A
:041254000000000096
:041258000000000092
:04125C00010000008D
:04126000D41D002079
:041264000600000080
:041268000100000081
:04126C00EC1B002057
:04127000000000007A
:041274000000000076
:041278000002000070
:04127C00000000006E
:02128000290043
:02128200010069
:02128400250043
:02128600300036
:02128800310033
:02128A002D0035
:02128C0001005F
:01128E00015E
:0812900003000000E44C010022
:0812980000000000000000004E
:0412A0000000010049
:0412A4000000030043
:0412A80013C401105A
:0412AC00A52D01006B
:0412B000B812000070
:0412B400B81200006C
:0412B8000000000032
:0412BC00E81F002007
:0412C0005B2F01009F
:0412C4002000000006
:0412C800384C01009D
:0412CC00F04A0100E3
:0412D00029C101101F
:0412D40037010100DD
:0412D800170C0100EE
:0412DC00A1C7011095
:0412E000A3C701108F
:0412E4000000000006
:0412E8002F4D010085
:0412EC00D4480100E1
:0412F000EC480100C5
:0412F400BC480100F1
:0212F8000200F2
:0212FA000900E9
:0212FC000100EF
:0212FE000000EE
:0113000001EB
:04130400E92E0100CD
:04130800610F010070
:04130C005923010060
:0413100015140100AF
:04131400CF0F0100F6
:04131800610001006F
:04131C00D5CD00002B
:041320008331010014
:04132400BDF2000016
:0413280015C70110D4
:04132C0025C70110C0
:201330002DE9F04F01780122ADF11C0D9139059200F0D282984DDFF85483DFF854931F3997
:2013500000F02B82203940F0EA822C464346054622691978A8789446002801F1040100F080
:201370001082401E00F0EB81801E00F00182401E0FF2043B00F0D281DFF818A3401E00F03F
:20139000D480401E64D0401E00F0EC81801F40F0C682604606210022D1A310F04AFDE8787B
:2013B000042800F0BC822E69D2A130460FF0ECFD0746D3A130460FF0E7FD6FB9002808BF2A
:2013D000002616D00A46082710F8013B7F1E02F8013BF9D1082009E03E460846102716F869
:2013F000012B7F1E00F8012BF9D110202961059E2873A778002E00F09282D5F8109095F8E3
:201410000C8095F90BA00F2F80F289826FB120463E4600F2B74548462946424610F028FF98
:2014300098B1761E05F18105F5D107EBC71049464246001900F2B74B58460AF087FF7F1CD7
:201450008BF880A0F8B2A07069E285F880A066E21020494606F022F98046A88810F066FCC7
:20147000A081617A5FFA88F7814240F35882E669059D636A41004FF6FF7CC2004FF00008F0
:2014900001EB001126F801C005FA00F0D11803F8028082B2A1F806805046414610F00CFE91
:2014B000A08905FA00F082B2C448414610F004FEA0898540C2484146AAB210F0FDFD47B966
:2014D000C04841461C2210F0F7FD04F1880011F09EFF6E48266905784946102006F0DEF8D3
:2014F0006D1C00904246BDA3E9B2304610F0A1FC6648017820694246BCA3091DC9B210F0F5
:2015100098FC607A401EB84240F009825F480178206942465B46891CC9B210F08AFC42463A
:20153000B6A35A480178491D05E16F78002F40F0EA801046C9B2B5A3002210F07AFC4046E4
:20155000276906784946102006F0A8F8761C00900022A2A3F1B2384610F06BFC0020A071D6
:20157000B5F80AC094F80980281DB8F1000F10D0E669002741464FF6FF73B946123E36F8C1
:20159000122F93420AD0491E07F1120709F10109F5D18C4F15263BE008020020A6F800C050
:2015B0000EF088FAB61C01460F2230460AF0CEFE05984E460022B0401FFA80FB5046594609
:2015D00010F07AFDDFF8F48100225946404610F073FDDFF8EC9100225946484610F06CFD75
:2015F000E069F200C0190AEB020308EB0201801C744FC8604A44D860F988D060480904D2B2
:2016100038461C21002210F057FD94F80980F6B21F49102006F042F8804512D805994FF078
:20163000000840F2053004AA8DF8108005F0BCFC164801782069BEA34246891CC9B210F052
:20165000F8FB12480178E2692069730003EB0613491D9B18C9B29B1C002210F0EAFB384696
:201670000DF06AFB6D89284610F060FBA081617A81421ADD10E0C046526561647920746F95
:201690002041647665727469736500C05C1F0020F17F0110A01B0020C200616A059800276B
:2016B000885489188F803E464E806089001FADF80800207810F0F0F99B4900902A4602AB75
:2016D000102005F0EBFF9949102005F0E7FF012840F0258104F1880011F097FE1FE1C046E6
:2016F00044657669636520646973636F76657265642100C05441524745544445562D00C0CE
:20171000414E432D00C01046C9B28EA3002210F090FB687800228FA3009002E7657A494630
:20173000102005F0BBFF854294BF8DA35B46404601780022891C2069C9B284461DE069785D
:2017500061B1122908D00C2904D08DA3104603210022F2E78CA3F9E790A3F7E74FF0FF3018
:20177000E070DCE0E878C9B2002291A3009004E000220521627092A3A270604610F059FB4D
:20179000CDE068896081104611F0FAFCED1CA7486F68476029680160C1E004466178EF6AE8
:2017B000162939D0434619782A6923797E2B0BD07F2B40D10389184684A307E0081B00200E
:2017D000541B0020C81C0020207A84A30090091D10460022C9B210F02CFB2CE0436F6E6E3B
:2017F000656374656420746F20256400446973636F6E6E65637465642100C04652656164B2
:201810007920746F205363616E00C046436F6E6E65637465642100C0002F53D14FF6FD7018
:201830008349844A00900023102005F037FFEF6AC6B2002E46D04946102005F02FFF0028D1
:201850003AD0608810F072FAA88122790B2A22D0012A02D1217A0A291DD0132A0CD0012A32
:2018700002D1217A122907D0696A11F8300018B3204607F06DF81FE0434628691978012A6A
:2018900007D0EA79521CD2B2531EEA71DAB257A30CE05AA309E0434628691978012A03D03F
:2018B000E268127859A301E05CA3227B0092491D0022C9B210F0BDFA217904F1080012F0E6
:2018D00039FA2CE047F00200E86205980CF024FA2C620020059022E047780E3F02D0B81E86
:2018F00019D01CE0818842F203028A4217D181680878A0B9491C02A80A684968026002AFF6
:20191000416038784C4902AA00F0FD003870102005F0C4FE03E00820002105F009FD0598E5
:2019300007B0BDE8F08FC046A9120100F17F011043616E2774206164763A206E6F206C6945
:201950006E6B7300436F6E6E656374204661696C656400C0526561736F6E3A20256400C031
:2019700043616E277420416476203A204D617820636F6E6E73207265616368656400C0469C
:201990004552524F5200C046434F4D4D414E4420444953414C4C4F57454400C0494E5641B2
:2019B0004C494420504152414D455445525300C0506172616D20557064617465202564004D
:2019D0004164766572746973696E67004D54552053697A653A20256400C046C0464320561E
:2019F000696F6C617465643A2025640057726974652073656E743A20256400C057726974E4
:201A100065204572726F7220256400C052656164207273703A20256400C046C052656164A8
:201A3000204572726F7220256400C046A711002085F500008F2D010095B400102DE9F04F00
:201A500085B011F801ABDFF86835DFF868C5DFF868B58146AAF10200132809F1FD0209F18E
:201A7000F40609F59C7709F1860809F5AC7409F1660500F28B82DFE810F0D4008902140007
:201A90004000430070028902980089027000A80073007800DA008F01D501CB007802DF012B
:201AB000DF0109F1A0040822204612F03FF906460821204612F036F909F19807042231468C
:201AD000384612F033F90421384612F02BF900204142494409EB000291F89F1082F8BF10DA
:201AF000401C0828F4DB09F1C702214609F1D70012F014F90020A87157E20121B17154E285
:201B10003178707A012900F010000DD130B100207870316CB87849080CF0F0FE99F8060092
:201B3000002112F0F7F80FE040B1326CDFF88C0409F59D735208494611F0BEFB99F8060056
:201B50000122002112F0E2F801202870484612F0D9F80121A971B17027E20121F17024E24C
:201B7000087870700121F1711FE2A87918B93D2030770120F076707A000701D40E2037E1E7
:201B900000205F1C0B5C1CF8006033430B543C5C23401354401C0828F4DB287808B90921A2
:201BB000C5E148460CF0C8FBF5E100205F1C0B5C1CF8004023430B543C5C23401354401C73
:201BD0000828F4DB02203072EFE1A87920B93D2101203177F076E8E1707C012803D10C21FC
:201BF00071770721A3E111F8010B3075022209F5857012F09BF80146022209F5867012F07A
:201C100095F8F07C012100287174E4D10C218EE1707AC10601D41220EAE0484612F06EF8C3
:201C3000B9E1087830770021F176F021F4E0737A980704D413F0110F70D01A22DEE0287C01
:201C5000012804BF687C0F2808D0687D08B16A7C12B12A7F012A03D158070BD52322CDE075
:201C700010B1687C012803D098F80A00012806D1580702D40F2171778AE12A22BEE00878F7
:201C90004A7800EB02203881CA78887800EB022078814A79087900EB0220B881CA79887996
:201CB00000EB0220F881087A38744A7A887A02EB00227A82C87A0A7B00EB0220B8828A7B7C
:201CD000487B00EB0220F8820A7CC87B00EB022038838A7C487C00EB022078830A7DC87C7C
:201CF00000EB0220B883487D897D00EB0120F88309F5A6700490798A0391387C0290B9F804
:201D100008100191F8890090BB897A89398948460CF076F818B1707A41076ED467E0788972
:201D3000A8F804000022B989A8F806100221F889A8F8080088F80010A8F80220B9F8340052
:201D5000C01DE883B9F83210B8F80400B0EB510F02BFB8F80600B9F83410884202BFB8F8E2
:201D70000800B9F83610B0EB111F13D0687D18B10F21A976FE21DAE0FC21484611F0BAFF6B
:201D9000F8890090BB897A89398999F8060011F0ADFF0AE10021CAE08A78C8780F798C7950
:201DB00002EB0025487907EB0027C87901F10B0204EB00240492BBB2487A8A7A00EB0220FE
:201DD00080B20390087A0290B9F808200192A2B2009291F800C048780CEB002081B2AAB219
:201DF00048460CF00DF880B1707A410702D40F207077CDE0484611F075FF1E22484605B0C2
:201E1000BDE8F04F0F2111F069BFA8F80450A8F80670A8F808400021484605B0BDE8F04F3B
:201E300011F058BF087820704A786270487870700121F1717971B8E00A78487802EB0022DF
:201E5000628209F5BC778878CA7800EB0220E0824A79087900EB022020828879C97900EB8B
:201E70000120A08209F5AC7109F5AC70CA8A8089A18B904288BF1046A083884209F5AC70DB
:201E900009F5AC7100894A8A218B14BF01260026904288BF1046884214BF012100210E434E
:201EB00020830122A18B387911F010FF218B814205D3A18B3879012211F008FF014609F5CB
:201ED000AC70798009F5AC7140890A8A904288BF1046628B6083904214BF012100210E43ED
:201EF000824209F5AC7009F5AC728941C089938AE28BC90F984288BF1846904214BF01221C
:201F100000221643E08311B1484611F0DBFEBAF1140F19D146B1E08B0090638BA28B218B38
:201F300099F8060011F0CAFE287830B91521484605B0BDE8F04F11F0DDBE484605B0BDE8C7
:201F5000F04F152110F0E0BD1EB1387840F008003870397841F0200108E008780F2807D087
:201F7000122802D0142806D01FE0002139701CE00120387119E099F8780140F0020089F8EE
:201F9000780140F0100089F878010EE086F81DA0484611F08FFE40B99BF8000005B0BDE853
:201FB000F04F4FF4804108F0DFBF05B0BDE8F08FEC4D0020402A00206E4F0020018B001003
:201FD0002DE9F04F0F46CC4C0168E16241688068ADF11C0DE060C548A1608047C448E16ABF
:201FF0000160A168DFF80CA34160E168DFF838938160CC49002FA346C1606FD03D68E878E2
:202010008DF80C0028798DF80D0003A811F04EFEA86808B1C9490160E86808B1C84901603D
:20203000C84C287820706878BE686070A878B268A0703178A2607368E1702E696360EA69A8
:2020500026627968E2620868E06068696062A8697B68A062286A9E68206395F8240084F842
:2020700034001EB9002010F029FC00E066617868C06818B9002010F021FC00E0A061786882
:20209000006918B9002010F019FC00E0E0617868406818B9002010F011FC00E02061286928
:2020B0002062F86881680E6806B9B34EB1494FF001084E60C66881F8018036B9002010F0E8
:2020D000FDFB4D462E68F86801E04D462E6000685446FB68A0615868E06107E0002010F0FF
:2020F000EDFB4D462E684FF001085446361DD0493668621C04F114035020B04710B1286891
:2021100080688047DBF80800804782460023D04ECD48CE4F2061994633714A46B370380B29
:20213000F270C7B2401CC1B2377018467170B94280F2908198B9B9F1000F08D1307810F0F6
:20215000CDF80420F08031790020A1B912E086F802900FF057FB484607F0B4FC07E0B9F1D9
:20217000000F02D048460EF0CDF80FF04BFB3179002001B9404610B9002010F09FFB00202B
:20219000D14E2B68A0600746B760986980477060C54880F8008039464180142010F066FFA3
:2021B000FF211422A06211F040F9E01CFF21022211F03BF9142010F059FFBC4F3860386839
:2021D0000021142211F031F9002001F073F840460EF0EEFBB6480188FF2906D1022101805A
:2021F0007822001D002111F020F9032011F05AFD042011F053FD052011F04CFD062011F057
:2022100045FD07200CF0C8FFAA4E0820307006F1240011F037FD0DF031FA06F136090520EF
:202230000A214A460FF098FD38B10020C0F10901401C09F8011B0A28F8DB3078102108F02C
:2022500093FE2B689C4909200DF10E025E68087001AB10200021B047A06AE1690A260A303E
:202270009DF80E20761E00F8012BF9D1891EE161DBF80C105046884704F120002B68626A58
:20229000059040461E69DFF8348204F120034146B04710B1286880688047B8460FF0D0FE9E
:2022B0005FEA000903D009F077FE4FF0FF3900264CE00298216910F8062CA0F10C07032A83
:2022D00003D1002942D0884740E0A16A9DF810C00A223046491E11F8013F9C450ED0521EFF
:2022F00000F10100F7D14FF0FF0A09E041490010F8440020341E00202C1800205FFA80FA44
:202310002868BAF1FF0F00F108001DD038790EF0CBFDB979012909D0022904BF0299887051
:2023300006E0C0464C3D0100A8200020029908700299504610F060F908E0C046B11B0100D7
:20235000D12A0100041D0020006880472868C36904A902AA0DF10F0098470028A9D0D8F88F
:2023700000007700C35B4BB9761CF6B20A2EF8DB27E0C0460820002023EF00000A2E20DAD6
:20239000DBF808008047D8F80010002231F807A0CA53DBF80C108847494850F82620267029
:2023B0005146304690470646FF202070DBF808008047D8F800107A5A16437E52DBF80C10C0
:2023D00088470FF03DFE0746B9451AD007B93D4FE069B84238BF071CDBF80800804781469D
:2023F0002868016A206A8847626A28683349059B521C6262C6683846B047DBF80C104846AF
:202410008847A7682968606914319FB9D8F800000A270026835B33B1096960698847296853
:20243000D8F8000014317F1E06F10206F2D105E0C9220100096988472968143109684FF080
:20245000FF3088472AE7C046F12B010000D00100302A0020384600216A4604230FF06AF818
:20247000009BB078B3F5801F0ED043B9B9F1000F03D048460DF046FFB078B94610E0384677
:202490000DF040FFB0780BE0002804BF381CB77006D00DF037FF38460DF034FF0020B07080
:2024B00071787F1CFFB242E6A0200020702A0020DC1900206C130020822A0020F10E010095
:2024D000784A01008EC2F528042A00202DE9F8435FEA000906D1002010F0F0F902E048467B
:2024F00011F000FC09F16605687D002800F08381697CDFF89C04002909F1860709F20F183B
:2025100009F1EC0609F59E7443D0012958D002292FD003295ED0062900F09880072900F06F
:202530006081082900F0C080092900F0CD800A2900F09F800B2900F0A8800C2900F0D080D7
:202550000F2900F0EB80112900F01581122900F0DC80142900F01881152900F03981F029CA
:2025700000F04B81FC2900F04581FE2900F04F81B1E7297C012908D1C07808B900F0C7B924
:20259000484611F0AFFB16213CE1484611F076FBC9E1297C012940F04B81C078002800F0D9
:2025B0004E8178883978400078804900B88839704000B880012138890001388129778EE7F7
:2025D000297C012940F04181C078002818BFB97285D13EE1297C012940F04281807838B1B0
:2025F000A078012804D10021A170484611F082FBB07B012809D10021316071600122BA7376
:202610000621484611F066FB6CE7F07B012818D1484611F067FB0020B8730121297048463E
:2026300011F070FB0120A87100217173717A99F8060006291ABF00221A21002211F066FB74
:2026500050E798F8000001283DD014E1287C012840F01881B07A012811D1484611F042FBE1
:20267000002030723073F072B073B072F073707338E7287C012840F01481F07A012840F084
:202690000A810021B9730B21BBE7297C012940F011818078002800F011810321B1E7002273
:2026B000222111F033FB71E1287C012840F01681307C022809F1FD0240F0198199F8061072
:2026D000002011F0D7FA0AE7297C012940F01B81807800281FD0B9F82200A9F81E00FEE6E7
:2026F000287C012840F01A81707E012840F01D81B07E0128F3D1308C0090F38B327F99F826
:202710000610002011F0B2FAE9E6297C012940F01C818078002800F0FA80E0E6287C01283E
:2027300040F017816078012813D1207F0F281CBF002010F0C3F800206070607F1A2808BF78
:20275000002117D0002100910023002211F08AFAC5E6A078012807D10021A17023220F217A
:20277000484611F0BBFABDE62078012840F0CF800021217045E7297C012940F0EE80C0789F
:20279000002800F0EE80AAE6287C012840F0EF8009F5AF76B07E810613D500F0DF00010710
:2027B000B0760BD500F0F700B076308B0090B38AF28A718A99F8060011F080FA0020307025
:2027D0008DE6810740F1CD8000F0FD00B076F5E7297C012940F0CF808078002800F0D080D3
:2027F0007DE6484611F066FA0128F9D002E0002010F064F80020BDE8F283407A0028FAD041
:2028100098F80110484611F029FA0120F3E7A87E0F28ECD1FC21484611F05CFA60890090C5
:202830002389E288A18899F8060011F05FFAE1E7484611F00FFA2874E88A2883DAE7B9F8CD
:202850000A00E98B884209D0D4E7484611F0FEF9F1E7B9F80A00B9898842CBD12821D1E7CA
:20287000484611F0EFF928740021E88A2883B1730020F073BFE7288B401E288380B2002894
:2028900022D0B7E7484611F0D9F928740021E88A2883B172AEE7288B401E288380B298B16E
:2028B000A8E7484611F0C6F928740021E88A2883F1729FE7484611F0B9F9BCE7288B401E73
:2028D000288380B2002895D1317A99F8060001297FF4E5AE222111F01DFA57E0484611F0EA
:2028F000A1F928740121E88A2883317482E7288B401E288380B20028F8D199F8061022207D
:2029100011F0B8F942E048460BF016FD93E7288B401E288380B2002838D06BE70120F076C6
:20293000484611F07BF9287464E7288B401E288380B20028F8D1308C0090F38B327F99F8B2
:202950000610222011F092F920E0484611F062F971E7484608F0F3FF6DE7484611F056F997
:2029700069E7288B401E288380B278B142E7484610F0CAF85FE71521484610F0C5F85AE75F
:20299000288B401E288380B20028EFD1222139E75C4D00202DE9F84FDFF86C54696884B02C
:2029B000019121B905B0BDE8F04F11F02BB90978DFF858A4DFF858B4DFF85884DFF85864A0
:2029D00001291CBF0229042946F2A81741F64C5905D0402918BF802900F0F8800AE210F0A5
:2029F0001DFC0028FAD00198007806F0ABFA0090446814B900200FF061FFDFF820144878BD
:202A1000002800F0A48002F03DFC10F01FFA02900168009801914F6809F04AFC02286AD0A7
:202A300000990A78012A04D0022A25D0042A41D0E0E1DFF8EC3319680A7A1BF80230337068
:202A500018B911F0DBF84844A0602069C17E01F0EF01C1762069C17E41F08001C17620691B
:202A7000C17E01F0F00141F00201C176B86821694044C861012035E10521317018B911F093
:202A9000BDF84844A0602069C17E01F0EF01C1762069C17E41F08001C1762069C17E01F09B
:202AB000F00141F00201C176B868216940440862022017E10621317018B911F09FF848443B
:202AD000A060DFF860030168887C0AF051FA2069C17E01F0EF01C1762069C17E41F08001A0
:202AF000C1762069C17E01F0F00141F00201C176B8682169F3E001980178802913D1082036
:202B1000C94930700A78012A03D0C4484178022903DB39690120C87213E0DAF828003A6918
:202B30000178D1720DE0C049072030700A783869012A02D10121C17203E0DAF828104A78E7
:202B5000C2720298B54A8179019891704DE10098002819D00199009A007891420ED1401E71
:202B7000012806D9C01E05D1AE480168887C0AF0FFF9B8E000200FF0A1FEB4E0012804D04D
:202B9000022815D0042819D034E1A54801680A7A1BF80200307011F031F83918A06811F0D9
:202BB00029F818B911F02AF84844A060012099E00520307002210098A97016E10620994932
:202BD00030700A68907C0AF0D3F98AE093494878002800F0BA8002F055FB10F037F90290A5
:202BF000016801914C688D49887810F02FF9039010F01AFB10F0070F7AD0A87806F0A2F95F
:202C100000904768019909F053FB022870D000990A78012A04D0022A24D0042A40D064E05E
:202C30007F4B19680A7A1BF80230337018B910F0E5FF4844B8603869C17E01F0EF01C1767C
:202C50003869C17E41F08001C1763869C17E01F0F00141F00201C176A06839694044C86117
:202C700001203FE00521317018B910F0C7FF4844B8603869C17E01F0EF01C1763869C17E2A
:202C900041F08001C1763869C17E01F0F00141F00201C176A068396940440862022021E053
:202CB0000621317018B910F0A9FF4844B8605D480168887C0AF05CF93869C17E01F0EF01FD
:202CD000C1763869C17E41F08001C1763869C17E01F0F00141F00201C176A0683969404489
:202CF00008620420A87000987FE000200FF0E6FD03980299884226D001984B490278802ADE
:202D100012D1082030700978012903D043484178022903DB21690120C87210E0DAF828005E
:202D300022690178D1720AE0072030700978206901290EBF0122DAF828104A78C2720298CD
:202D5000364A8179917001984FE010F06DFA10F0070F55D0A87806F0F5F804462078D4F8CD
:202D700004A0012804D0022817D0042826D047E02B490A68107A1BF80010317010F03EFFD7
:202D90003918DAF8080010F035FF20B910F036FF4844CAF80800012025E00520307010F075
:202DB0002DFF3918DAF8080010F024FF20B910F025FF4844CAF80800022014E0062030705A
:202DD00010F01CFF3918DAF8080010F013FF20B910F014FF4844CAF8080012480168887C82
:202DF0000AF0C6F80420A870204605B0BDE8F04F08F078B905B0BDE8F04F00200FF05EBDD4
:202E100005B0BDE8F08F00BF102A0020944D0100289A0110F0D8FFFF6F4F0020684E002081
:202E3000104F0020184F0020734F00202DE9F843DFF84804DFF8485401781D24082984B094
:202E500000F21282DFE811F016020900090009000900B200590116021602DFF82864DFF862
:202E700028843068036803F10807062207F1080102A80FF0E5FE0622B91C68460FF0E0FE53
:202E90003878C10900F00F02032AC0F38019DFF8FC7339D17079C0F38000814240F0DF816F
:202EB0003169062202A80FF087FB002804D06946484610F09BFE002800F0D18129466846BC
:202ED00010F090FE0146FF296FD03868807A4C43002818BF02280BD0012818BF032864D119
:202EF000681C2A5D0119404610F078FE10285CD0E81D07196B463A462919404610F06AFEB7
:202F1000062269463846A8E100F00F00052862D17079C0F38000814247D13169062202A801
:202F30000FF04AFB002840D06946484610F05EFE00283AD02946684610F054FE0146FF295C
:202F500033D03868807A4C43002818BF01280BD0022818BF032828D1681C2A5D0119404662
:202F700010F03CFE102820D040F202400DF08AFCE81D07196B463A462919404610F02AFEA2
:202F90000622694638460FF05BFEC148C14A41F20441418041834186BF480180BF49C04804
:202FB00011600121007807F0DFFF58E1BD4E3068016801F1080999F8000010F00F0F1CBF4F
:202FD00000F00F01062908D000F00F02022A1CBF00F00F00012840F04D81062209F1020187
:202FF00068460FF02DFE99F80000AF4FC0F3801800F00F0001283DD1062209F1080102A804
:203010000FF01EFE99F800004FEAD01902A9484610F0ECFDD0B13868807C022818BF032867
:203030005ED105F10D0102A80EF05CFB002857D039680120C8720622707940F004007071DD
:2030500002A938680C300FF0FBFD13E02878814510D10622691C02A80FF0AEFA50B1287809
:20307000717960F38201717106223868691C0C300FF0E6FD6946404610F0B8FD00282FD022
:2030900070696946001F10F0A1FD002828D12946684610F0A7FD01463868807CFF2920D0FE
:2030B0004C43002818BF02280CD0012818BF032816D1681C73692A5D0119181F10F08EFD97
:2030D00010280DD02919E81D071974696B463A46201F10F07FFD0622694638460FF0B0FD9A
:2030F000C8E0002818BF0228FAD17069012342466946001F10F066FDBCE06C4E3068016817
:2031100001F1080999F8000010F00F0F1CBF00F00F00012824D1062209F1020168460FF023
:203130008FFD99F80000DFF88881C0F3801700F00F00012848D1062209F1080102A80FF023
:203150007FFD99F800004FEAD01902A9484610F04DFD20B3D8F80000C07A022818BF0328A4
:203170007DD105F10D0010F029FD002877D105F10D0102A80EF0B6FA002870D0D8F80000C4
:20319000062202A90C300FF05BFD707940F004007071062202A9E81D0FF052FD14E0287801
:2031B000814511D10622691C02A80FF005FA58B12878717960F3820171710622D8F80000BF
:2031D000691C0C300FF03CFD6946384610F00EFD002844D02946684610F004FDFF283ED01F
:2031F000D8F800104443887A2F1920BB887C0FF02DFE804698F82601022818BF032800D08C
:2032100068BB295D00F00100814228D108F5907406222146781C0FF0CFF900B3012088F809
:2032300026010622717941F008017171204669460FF006FD0EE030692A5D791C001F10F050
:20325000CDFC10280BD030696B46FA1D3946001F10F0C0FC06226946F81D0FF0F1FC316856
:203270000A680020107105E000200FF027FB8620FDF762FE05B0BDE8F08300BF6F4F0020A1
:20329000AC450020F44B0020CC470020104F0020204A0020204F0020504F00205955011065
:2032B0006E4F0020D04B0020144F0020AC4B0020184F00202DE9F84FDFF8BC13DFF8BC230C
:2032D000DFF8BC5308700821002010600D23DFF8B4034FF44D72017043808280DFF8A8034F
:2032F0000560AC7EDFF8A4030470FF2CE97E417008BFFF292A7F82706B7FC370AE7F0671AF
:20331000ED7F457115D1FF2A08BFFF2B11D1FF2E08BFFF2D0DD1DFF878130A7802704B7882
:2033300043708A788270CB78C3700A79027149794171DFF860130278DFF85C83DFF85C93B6
:20335000DFF85C730A70FF2543784B7082788A70C378CB7002790A714079487188F8005001
:2033700088F8015088F8025088F8035088F8045088F805500020CB490880D9F83440CA490A
:20339000607808702278C9493A70A0780870A2681079C74A411E1170E078C649C64A087074
:2033B000E068106008B90FF089FA2069C34E306008B90FF083FA3068DFF804A3016888474D
:2033D000326852F8041F50468847BE48BE49CAF82000CAF824106069BC49086008B90FF096
:2033F0006DFAA069BA49086008B90FF067FAE069B849086008B90FF061FADFF8DCB2B74C8C
:203410009BF804000FF032FE0028206075D09BF80500B34E0FF02AFE002830606DD09BF8A1
:203430000600DFF8C0A20FF021FE0028CAF8000063D09BF807000FF019FEAB4900280860CE
:203450005BD039789BF80000C91C484380B20FF00DFEA649002888604FD03878002862D019
:20347000BBF80210484380B20FF000FEA04A0028506042D038780FF0F9FD9E4900280860CD
:203490003BD0387840000FF0F1FD9B490028086033D03878182148430FF0E8FD974A106014
:2034B00058B3387840010FF0E1FD9549086020B3387800010FF0DAFD92490860E8B13878F7
:2034D00000010FF0D3FD90490860B0B13878302148430FF0CBFD8D4A106070B18C4839782A
:2034F000007848430FF0C2FD8A4A106028B138780FF0BCFD8849086018B9BDE8F14F06F091
:20351000D3BB4FF0000B09E00FF070FD0021418081600180022303710BF1010B39785FFA7F
:203530008BF08842F0D32268694F0120107121680D732068457321688D732068C573216874
:203550000D7400212068457400202268D172A0222168487103212068C28001720720226875
:2035700050720021206881722821206801224182C2760020216848770022206880F85E20E6
:203590000121226811770120216881F85D0001223068027131680D733068457331688D7337
:2035B0003068C57331680D7400213068457400203268D172002231684871306882724FF45F
:2035D00020703168C88008818A7401213368D974DAF800201573DAF800104D73DAF80020CB
:2035F0009573DAF80010CD73DAF8002015740022DAF800104D740121DAF80030DA720023BE
:20361000DAF800201171DAF800104B71DAF80010C88008818B720520DAF800209374DAF8E8
:2036300000103E4AC874106880473968054608688047396851F8042F00209047D9F80C1043
:203650001C4B0A881878364902430A802846354A136898470C21344810F0ACFA404610F067
:20367000A5FA10F09FFABDE8F44F034800784FF4005107F079BC00BF6E4F0020044F002088
:20369000B63F0050604E0020084F00202C4E0020E81200503C4E0020344E0020944D01007E
:2036B0007B4F00200C4F00206D4F00206B4F0020724F00206C4F0020F04E0020F44E002063
:2036D0007C4B00207D3001009D300100F84E0020FC4E0020DC280020DC1F0020104F0020E9
:2036F000144F0020184F00201C4F0020102A0020684E0020004F0020502A0020804E0020FE
:20371000844E0020884E00208C4E0020904E0020FE1F0020542A0020582A002034180020D0
:20373000544F002038180020F84D00202DE9F84F0D46E80788B00CD50FF068FC30B10021C4
:203750008160DFF8E803006800B1804785F00100E9E128074FF01D0BDFF8D46375D5DFF8D1
:20377000D4130A68907C0FF071FB044604F5907094F8267107904FF00008DFF8B80301682A
:203790008A7CC146FF2A04BF00200FF097F8079A3946304610F002FA07998246384610F0FA
:2037B00025FA0BFB0AFBC0B1BAF1FF0F26D016F80B7006EB0B0047F00207411C079107F0FE
:2037D0000100F21D84F8260102EB0B080799062204F590700FF034FA10E00799384610F02A
:2037F000D9F9002818BFBAF1FF0F07D006F10D00584410F0E3F908B947F00207CD4801685D
:20381000C87A022818BF032806D106F10D0010F0D5F908B906F10709002006903B46E18E13
:20383000090905910022A08E0490618E0798CDF8088049080391CDF8049000900020A17909
:2038500010F0A4F985F008006DE1E8060FD500210022002306910592049103930291019239
:203870000091022010F092F985F010005BE1A8070FD5002100230691059104910393029177
:203890000191009101223C2010F080F985F0020049E16807A84F40F18A80A84881780024AE
:2038B0000794FF2904BF00200FF008F8386890F8A0000FF0CBFA80463868C07A98F82691E0
:2038D000022818BF032808F5907A06D106F10D0010F074F908B9F01D07905146484610F0D3
:2038F00085F990B33868807A002818BF012804D13146504610F076F904E052464946304663
:2039100010F04CF9FF2836D00BFB00FBF01D00EB0B040622514620460FF092F916F80B0055
:20393000396840F0020906EB0B0000F1010A887E00F0010088F826010622386800F1140137
:2039500008F590700FF07CF915E05146484610F021F980B152464946304610F01FF9FF28A5
:2039700009D006F10D010BFB00F2881810F026F908B949F0020908F12C004B4601780691D7
:203990004289120905920122B8F822100491C08807990191400803900294CDF800A0002090
:2039B00098F8061010F0F2F885F00400BBE028060FD5002100230691059104910393029112
:2039D0000191009101223B2010F0E0F885F08000A9E0E8044CD5F11D06F10D0010F0D2F8F7
:2039F0003868017A012918BF042932D1C17A02291EBF0329817E01292BD1817E00F11402D1
:203A1000304610F0CBF8FF2812D00BFB00F0341804F10D0010F0D2F850B9E11D04F10D003D
:203A300010F0B0F838680622E11D14300FF008F93868C07A022818BF03280AD106F10D00DF
:203A500010F0BCF828B938680622F11D0C300FF0F7F83B4842683B4800784FF480510CF089
:203A700073FC10B18E2009F07DFE85F480505AE0A80505D50FF090FB334901200860FEE766
:203A9000680504D507F0ADFF85F480604BE0680405D5812009F066FE85F4804043E0A9045C
:203AB00040D52A4C206810B100200EF007FF284E4FF0FF30206010F061F83168254C51F8EE
:203AD000202F684690472449244B486A8A6A009001920293C86A0268086A0392ADF8100070
:203AF0000A6B1178002904BF5068002805D19068002804BFD068002806D0217050686060F4
:203B10009168A160D068E06021463468144A266814486B46B0471449086003F093FE85F46E
:203B3000005000E0002009B0BDE8F08F204F0020AC450020184F0020104F0020684E0020CC
:203B5000784E00206E4F0020FC002043044F0020F04E002068450020041D00200D30010016
:203B70002C4D0020E0280020EC4E00202DE9F84FD74CA178FF2904BF00200EF09FFEA078C3
:203B90000FF064F9044604F1680504F190062968086810B10021E1830CE0A87B002804BF41
:203BB000A97E002906D13078002801BF207F0128608CE0832189E08B4118491C618120460C
:203BD0000FF0D8FF01281EBFC2480178012904D121890020491CE08361814FF6FF77A87E22
:203BF00001280DD1AA8B618920890FF0BFFF38B1218960894A1C93B298421BD0A88B0FE01B
:203C10003078012816D17288618920890FF0AEFF80B1218960894A1C93B298420AD0708888
:203C300092B2904206D03818608180B20FF09AFF3F18E78304F5967999F8040020B12089B5
:203C50000021401CE183608104F12E07A87E01283ED12289A88B521C92B2904238D16081BE
:203C700004F1860120460FF079FFA88C608400212177E183E08961894118A181A88B2189FB
:203C90000FF070FF8046B988288C6A8C01FB0808E88C8A4204BF3989884202BFAB8CF988E1
:203CB0008B4207D000090090AB8CA179520800200FF0D8FFA87F3870698CB980A88CF8806D
:203CD0002046E98C39810FF045FF0220A87601E0B7F80480B4F81EC022687F4ED2F80CE011
:203CF0000CF1010000FB08F340F6C41000FB03F18E44C2F80CE03668DFF8E0E13678BEF8B5
:203D10000080774AB609032E11D1D67BF60748BF4FF000080BD408F101081FFA88F6012E3D
:203D300012BF668AB9F8066006F2DC5600E0668A5E434FF4C87AB6FBFAF6761C6661AEF8DB
:203D50000080A3614FF0180894F806A084F820C008FB0AFADFF88CC1DCF800E023680EF179
:203D7000080656F80AB0C3F810B094F806A008FB0AFACDF800A0D3F80CB0D4F814A0ABEB67
:203D90000A0ADDF800B046F80BA094F806A008FB0AFA56F80A609E600EF10C06A37908FB72
:203DB00003F30EF10C0EF65C06F0F00646F002060EF803604FF0000ADCF800E0A6790EF1E4
:203DD000020308FB06F623F806A0474BA6791B68760103F1140AD4F814B05AF806A00AEBD4
:203DF0004B0A03F1140B4BF806A0AD7E022D0BD1A5796D0103F1140697F800B056F805A060
:203E100000FB0BAA46F805A0BD88D27BA779D60737D508FB07F70EF10802D659A6F5A86A7E
:203E30000EF1080646F807A0A77908FB07F7D2592768511A3961BA6003F11402A179490118
:203E5000575807F5F667575003F11401A27952018958C9F800106843244A156BA779296830
:203E700003F11C067F01401AA0F51670F0512049A07903EB40100B78012B14D10121C1723D
:203E900014E003F114027F01D1592A464243A1F5E661A2F516729142DDD3082120460FF068
:203EB000DDFE012011E0916A4A78C272A179DCF8000008FB01F281182268516007200D49DF
:203ED0000870204609F000FE0020BDE8F28F00BF684E0020784F0020084F0020782A002002
:203EF0005C4D0020804E0020844E0020944D0100734F00206F4F00202DE9F84FC24DDFF824
:203F10000C832968DFF808A3887C0EF09FFF044628680021417104F12E062868BD4D0CF0E3
:203F30008BF90120607104F5937998F80100401C88F801001827802009F052FC2060696910
:203F5000C160B548018949007180C079B1884000307049003089B18000013081314620465B
:203F70000FF0FCFD0520A08120460FF0F3FD28680FF0ECFD062210F8081FC1F3801189F809
:203F90000010811C04F590700EF05AFE2968A34D0A680020107141F60202A17928687943E0
:203FB00042520021A3797B430344001D5980A2797A438150012120460FF0C4FDA279296888
:203FD0007A430A449073A1792868794301440020C873A1792A6879431144887BF072DAF8C9
:203FF0000020A079296802EB40137843084414310361A0798A4A78430A50A0790FF09EFD42
:20401000A179DAF8002049015050A1794B01D05820B9072120460FF021FEF0E0DFF804B22A
:20403000DBF8000000EB01100FF084FDA179DBF80020DAF80000DFF8F0B102EB0113021DAA
:204050004901535004F16801A3795B01D2580A60A3795B01C2588A60DBF81410097894F879
:2040700006E0CA074CBF102200228B074CBF202300235FEA417C4CBF4FF0400C4FF0000C30
:2040900009074CBF802100211A434CEA020200EB4E100A4342F00F020272DAF80010A07954
:2040B00001EB40120B215172DAF80000A27900EB421104208872DAF80020A17902EB411030
:2040D0005A4A1378012B02D10121C17203E0DBF828100A78C272DAF80000A279636A00F1FE
:2040F0000C0152018B50A17900EB4110A16A0174DAF80000A27900EB4211A06A000A4874A4
:20411000DAF80010A07901EB4012A06A000C90740821474A107806F027FF2168A2792868AA
:20413000CB687A4302449360CA68CB680A618B6000F10C02A17979430C30535C03F0EF03E6
:204150004354A0792968784301F10C020C31135C03F07F030B54A0792968784301F10C026E
:204170000C31135C03F0F00343F002030B54A27928687A431044417B01F0F00141F0010179
:204190004173A079B688DAF800204FEA401C40F6C4104643DBF83000016802F11403761AE4
:2041B000A6F5167643F80C60A07902EB4010C17C01F0F00141F00401C174A179286822680D
:2041D0004F43C1195160B9F83A001B2804BFB9F83C001B2809D1B9F83E00B0F5A47F04BF3D
:2041F000B4F86601B0F5A47F03D0142120460FF081FD104908200870A27988F80220BDE88E
:20421000F14FFEF7C7BB00BF184F0020684E0020844E0020AC4B0020844C0020804E0020D4
:204230005C4D00208C4E0020944D0100734F00206E4F00206F4F00202DE9F04F09AFADF181
:204250003C0D08900A92388809911E46ADF81800101C08BF002000F07581017800274FF07E
:20427000010B401C4FF0FF39B846DA460A9061E1252940F056810178401C0A902D2918BF64
:20429000ADF8068004D10178ADF806B0401C0A9030291CBF4246434604D10178401C5A46B5
:2042B0005B460A902A29CDF800804D4617D1049330680A9BCDF80890C01C20F00300001D63
:2042D000306050F8044C1978002C009403F101000A9018D5ADF806A06442009413E04446D7
:2042F0000AE0600000EBC4004018A0F130040A9801780094401C0A90302901DB3A29F0DB90
:20431000CDF8089004932E2929D10178401C2A290A9011D13168CDF80880C91C21F00301C4
:20433000091D316051F8045C002D48BF454601782B46401C0A9011E0454643460AE0680017
:2043500000EBC5004018A0F130050A9801782B46401C0A90302901DB3A29F0DB02930AB14A
:20437000224604926C2904D04C2918BFADF8048004D10178ADF804A0401C0A900BA8CDF84C
:204390000C800FAB07906429059300F0828069297FD0BDF818C075296DD0782969D06F295E
:2043B00065D070294ED063293ED0732922D00A98401E0A90099801281AD966490C68B5F1B9
:2043D000FF3F03D0A84288BF6D1C05D86FF00041814294BF0D1C099D029508A80AA932462E
:2043F0006B46A04709993F18091A0398099165E0454617E03068C01C20F00300001D3060C9
:2044100050F8040CBCF1010F014608B94FA0014607910EF057FD0390B5F1FF3F4FD0A842CF
:204430004DD9039528464AE03068C01C20F00300001D306010F8040C8DF82C005D460395DE
:2044500058463CE0082035680490E81C20F00300001D306050F8041C082210230FA809F000
:2044700091FE401E079040210170079823E0082302E0102300E00A233068C01C20F0030060
:20449000001D306050F8041CAA42BCBF2A1C04920DE03068C01C20F00300001D306050F84B
:2044B000041CAA42BCBF2A1C04926FF009030FA809F068FE07900599081A0390009C241A44
:2044D000BDF8065000945DB906E008A8202109AA0DF06EFC7F1C009C641E0094F5D5039874
:2044F000401EB0F1FF3F03900FD1BDF8060001281CD10098401E009018D408A8202109AA15
:204510000DF056FC00987F1CF4E70798017809AA08A80DF04DFC0798401C079003987F1CA5
:20453000DEE708A809AA0DF043FC7F1C0A980178401C0A9000297FF49BAE089808B1414696
:20455000017038460FB0BDE8F08FC046286E756C6C2900C0684D0100BB482DE9F84F00256C
:20457000BA4CB849056094F8E200002800F06581012800F02F81B64E02283CD0032840F0F5
:204590005C8151F8250CD4F8B8100029A0F5C060C4F8D400B8BF49420028B8BF40428142CC
:2045B00026DA4FF08057D7F8A4014568B4F8BC0030214FF47F42082300903046A847D7F808
:2045D000A4014568B4F8C00004214FF4F802122300903046A847D7F8A401B4F8D070456874
:2045F00020214FF440620A2330460097A847012584F8D8501CE151F8258C0EF0CDFD2F465E
:2046100000B901273946934F38680028FCD0B146012609F10409D9F82CA03E6009B10EF09C
:20463000C1FDCAF30720C4F8BC000EF0B5FDAA4600B9B2463B68002BFCD0D9F800B0BAF139
:20465000000F3E6001D00EF0ADFDCBF38440C4F8C0000EF0A1FDAA4600B9B2463B68002B1B
:20467000FCD0D9F81C90BAF1000F3E6001D00EF099FDC9F38120C4F8D000B8F5C061C4F8B1
:20469000B81000F09C8094F8D80068B9C4F8D410D4F8C000C4F8C800D4F8BC70C4F8C47019
:2046B000D4F8D030C4F8CC30D4F8D400D4F8BC30002854BF02226FF0010204F1C8010F6818
:2046D00000EB40008018421000EB927207EBA2000860D4F8C810C4F8C43000291CDD1E290D
:2046F0003CDDD4F8CC0030B93429B4BF15391E21C4F8C81025E02A29BABFD4F8C8000B3877
:204710001E20C4F8C800D4F8C4003F28B4BF401C3F20C4F8C4001FE0D4F8CC00032812D07E
:2047300011F10B0FC6BFD4F8C8000B30301CC4F8C800D4F8C4000028C4BF401E051CC4F8B3
:20475000C450032508E011F1150FC6BFD4F8C8001530301CC4F8C800C4F8CC504FF08057E3
:20477000D7F8A401B4F8C43030214FF47F424568374800930823A847D7F8A40104214FF40B
:2047900000321123456832480096A847B4F8C860D7F8A40104214FF4F802122345682C48F7
:2047B0000096A847D7F8A40120214FF440620A23B4F8CC60456826480096A84701E084F8C8
:2047D000D85040F2FF50404502D8801C40452FD2082030E051F8251C1F4F4BF2F520484392
:2047F000060A3868C0F3814001280CD11B480068006880470CF00AF80EF0DAFC3111C010A1
:20481000484306EBE03694F8E50030B91448006820F07F403618760801E084F8E550114852
:20483000310C0660012741600F4D8760287808B90B2000E0052084F8E40003F06FFABDE8C7
:20485000F88FC0462D400C402C500C401817002000A00C4000800C40B43F0050EC010010F3
:20487000102009403C600C40094C01002DE9F84FDFF8CCB20F460546F80B80F01281AA4E21
:20489000DFF89C82B80F80F0C480B80880F0B8803809C0F03981A0480178090980F0AB8077
:2048B000007830F07F0040F0A680684607F064FC012803D10098002800F09D809748007855
:2048D000002840F0988001240025E8B20EF0AAFA48B1837A3BB1847290F9090004FA00F07A
:2048F000C0B20CF001FA6D1C032DEED345464FF0030A05F1AC0085F810A00EF060FDDFF8ED
:204910003092002309F11401984608680B6051F8080C41F8088C83491A4605F134000EF05C
:204930005AFD3068006B8047AA68A969801A000BC0F1FF328A422CBF01444FF0FF31A96126
:20495000287F20B1E868A969B1EBC02F25D90DF0A3FD414600B12146E1B1744840F609011A
:20497000018043464380417B04F00F0221F00F010A434273017B03F00F0621F00F0146EAA1
:204990000102027343604E46F3613060418811F4406FFBD02C774346AB616649086820F0C5
:2049B000020040F400700860634A42F804AC41F23006966014605023936014604FF4CA6622
:2049D00096601460022042F80C4C44460C600CF0ADFB112006F028FB287818B9686838301C
:2049F0000EF005FD687F18B16C7705200CF09EFB524868612C740AF03FF927F0080783E09C
:204A100005F042FA40467430006808B927F002077AE00EF0DAFC34468146606D00680146F7
:204A300004208847C8B1287CB8B14046083006689EB12068EC68006B8047801BE860010B75
:204A5000E960A14202D209194908E96040F6C41088422CBFB1F5FA7FE86048460FF066F879
:204A70000CF026F990B1A8696FF4807100224FF0007304462846A04740466C300068002840
:204A900008BF47F0020701D00AF0F6F8686900214FF0806304460A462846A04727F00057D5
:204AB00032E00EF092FC59460E684EB306F1280106C90A234FF0E0450B40154008BF002B20
:204AD0001ED106F1280191E8300006F1280393E8060006F12803AA43A14383E806000FF008
:204AF00025F8B16871B1002D08BF002C0AD03069B6F93C10B2682B4616462246B04701E099
:204B10000FF014F827F4804727B15846394650300EF075FCBDE8F88F7A2A00206122002021
:204B3000C82000203DEA00008C010010CC29002000100440000004600C41044065AC00002A
:204B5000482100202DE9F04F8246DAF80070DAF804600C465FEA0208ADF11C0D14BF0021C7
:204B70004FF0FF31DFF8409248460EF0DCF9002818BF0B2040F0158100258F488C49057076
:204B90008A48FC6052460EF026FC317B27200EF024FCB8F1010F07D0657002200CF042FD4C
:204BB00006200CF03FFD01E0012060702078012840F2AA80801E012868D9801E012833D9BD
:204BD000801E012800F2DE800EF0FFFB83464FF0805000F5EE77D0F8DC01A378466A009381
:204BF00021782846062908BF0120019001200290A068228AE1686368B047814658460EF021
:204C100095FFB9F1000F40F0BF80B8F1000F02D00DF0CEFF02E050460CF072FB002800F07B
:204C3000A3803868806A2AE00EF0CFFB83464FF0805000F5EE77D0F8DC01012306680093E9
:204C5000A168A27860682478AC46042C08BF9C466346B047814658460EF068FFB9F1000FCF
:204C700040F09280B8F1000F02D00DF0A1FF02E050460CF045FB002876D03868406880478A
:204C90004C49C1F8B0510D6081467DE00EF09DFB83464FF0805000F5EE77D0F8DC01E38A4A
:204CB00086690093E0680190208B0290A0780390207D04900121059122782846022A08BFBD
:204CD000081CE1786268A368B047814658460EF02DFFB9F1000F57D1B8F1000F02D00DF084
:204CF00067FF02E050460CF00BFB00283CD03868006A80475FEA000946D1E078A168E28A89
:204D1000236908F0A7FBBFE70EF05FFB83464FF0805000F5EE76D0F8DC01E38AC76800935A
:204D3000E0680190208B0290A0780390207D2946049001200590257805B901460846626892
:204D5000A368E178B847814658460EF0EFFEB9F1000F19D1B8F1000F02D00DF029FF02E05C
:204D700050460CF0CDFA08B914201AE03068406980475FEA000907D1306802692169E078C4
:204D9000904781E74FF0FF39B8F1010F05D002200CF0CCF906200CF0C9F903480EF027FB8D
:204DB000484607B0BDE8F08F5C1A0020941A0020991E010050450240802A00202DE9F04176
:204DD0000446A078ADF1180D801F00F02281C01E00F00881DFF84882401E00F08880914E3F
:204DF000401E6FD0401E00F00F81801E3DD0401E40F012814546287A697AB8B968780028D3
:204E100031D0A0880EF08EFE071C00F00581A07A40080FD3787968B1E168890A0AD2B91D5A
:204E300001AA06F02DFB0A2804D10321A0880EF075FEF1E0287B022802D1A07A0009F4D37A
:204E5000A088797904F1080202F09EFEA869002800F0E2804368002B00F0DE8000210A467B
:204E7000A0889847D8E00521E0E7607806281ED1A0880EF057FE071C19D045460E3528788C
:204E9000401E0FD0401E07D0401E10D1002140F209400A4600F0C8F8A188387805220EF0B7
:204EB00039FE04E0A0887979002202F06DFE3068002800F0B1804368002B00F0AD80627880
:204ED0000221CDE70EF0AAF8002800F0A580306850B1076847B1206900906189227B637B90
:204EF000E01C3C46A04797E0608901219FE760780026002867D1A079400864D308F11C002A
:204F1000006800285FD101A831460E220EF08DFAA0880EF007FE071C7ED0606940B978799D
:204F3000B91D06228DF80A0001A80DF089FE19E06569287C062205F111018DF80A0001A8D4
:204F50000DF07EFE07F10C00B91D06220DF078FEB81D062205F111010DF072FE287C40F00D
:204F700002007871A079C00839BF387900F0FD00387940F002003871A079000939BF387968
:204F900000F0DF00387940F020003871A1799DF81120C1F3800010438DF81100080905D3A2
:204FB0009DF8110040F008008DF8110001A8214601F012FF30B940460078022105F0D4FF89
:204FD00030462AE015264546A86928B343681BB3A088627801219847F6B1A869436803218C
:204FF00032463DE7E078211D002206F049FA0A2812DA410001EB800004F10C0225300421CC
:20501000C0B204F0C5F807E0A088217B06F084FE02E0A0880AF0FEFC012006B0BDE8F0814F
:205030006C130020841300207CB5954D144602460026A2F58062182A1AD8DFE812F01501A3
:205050000E010601FD00F500EF00E700E1001900D500CD00C500BB00AF001900A700850052
:2050700073006C0057004E0043003A002D0024002D2880F28980022940F0868021880BF0F9
:20509000A9FA0646F9E0012940F0F680002C00F0F3802A461232B7E0102940F0ED80002C8C
:2050B00000F0EA8028465030102221460DF0C8FDE3E0012940F0E080002C00F0DD802A46D7
:2050D000921DA1E0262940F0D780002C00F0D4802A4602F160002622E7E7012940F0CC80CB
:2050F000002C00F0C9802A46521D8DE0602900D144B9012940F0C080002C00F0BD802A4635
:205110000D3281E005F18600214660220DF098FD01206873B1E0012940F0AE8020780EF03D
:20513000F5FCAAE0012940F0A7802078022800F3A3802A460C3210702078022814BF301C7C
:2051500001200EF0DFFC98E0072940F09580611C684606220DF0DCFB20786946324606F07C
:205170008FF904460A2C0FDA0EF0C8FC38B9204603F07CFF0CF078FF0AF080FA7DE02A46F3
:2051900001202C32105578E0022676E0012973D12178042970DA2A460E3254E001296BD17D
:2051B0002A462178D07B0028D17366D12078012863D1E1E701295FD1217807295CDB102998
:2051D0005ADC2A460B323EE0012955D121780A2952DA2A46093236E001294DD121780229A9
:2051F0004ADA2A4608322EE0002945D10EF086FC10B90DF0B9FDBDE72A460121103222E00E
:20521000012939D12A460A3221781CE0012933D12178022930DA2A46D21D14E010292BD185
:205230002A4602F140003FE7012925D12178022922DA2A46121D06E001291DD12178042952
:205250001ADC2A46D21C117017E0012914D12178022911DA2A46921CF5E702290CD120880A
:205270002A461432108008E0012905D121780229DCBF2A1C521CE6DD182630467CBDC04627
:205290006C1300202DE9FE4F8A4C617811B900200DF014FB0EF0B2FC06464FF0000806F61C
:2052B000C4160027844DDFF8149211E038460DF0CDFD417951B12A68817902F8081008F106
:2052D00001015FFA81F831460EF014FC7F1CFFB299F800008742E9DB6178884505D0002060
:2052F0000DF0ECFA8220FBF727FE6078012840F0C380002701E07F1CFFB299F800008742E0
:2053100080F2B48038460DF0A1FD064670790028F1D02968B0790A7890421CBF00200DF09A
:20533000CDFAB079A0E0286810F809000DF08EFD00684268DAF808109068814204BF3E46C6
:2053500009F1010900F0A680A8E0286890F800B001224FF4C0710FE0636803F5AD76835C88
:2053700001FB03F901FB0BFE36F809C036F80E60B44538BF9B46521CFBB29A42ECDB4FF6B9
:20539000FF700EF0B3FB064658460DF05FFD4C490068D0F804A00868D94630F8192060687E
:2053B0004FF4C07300F10E0103FB09F3C85AB2EBD00F52D2720840F6C410424300920027E9
:2053D000404A0190029217E058460DF03FFD01680A78802A03D1DAF81030009A5A610978EF
:2053F000402908D1029980790A6802EB4011009800F5A060C8617F1C47452EDA2868C05D85
:205410008345F8D001464FF4C073594363685A1803F5AD73D289595A53088B4202D2521AC8
:205430009045E8DA0DF012FD01684A68019B9168DAF808207008A1F6C41103FB00200EF00F
:20545000D9FB0028C0D01E48006830F81910491C20F81910286810F807B0194802680021B0
:205470005B4622F813105846BDE8FE8F00200DF025FA8220FBF760FD617828680EF032FBAD
:20549000286800780DF0E2FC00260068D0F804A04FF00109771CC145FFF645AFF6B2002E7E
:2054B0001CBFF8B200287FF450AF286890F800B065E700BF684E0020004F00207B4F0020BB
:2054D000502A0020844E002010B50B7884074CBF43F0020303F0FD0304064CBF43F080035C
:2054F00003F07F0304074CBF43F0080303F0F70384064CBF43F0200303F0DF0310F0AA0F6D
:205510000B7003D0107840F00C0003E018B9107800F0F300107010BD2DE9F8430D46002732
:205530002878022814461E4669D1696808784978DDF8208000EB012080B25FEA08021CBFA6
:20555000B0F5285F0B205DD14FF42851401A0AD0401E23D0401E4CD0401E27D0401E2DD04B
:20557000A23846D04BE0DDF82490E8680DF05FFF80B2A0EB08024A45BCBFA0EB08001FFA4F
:2055900080F909EB0800162806DAA6F800904A46E86800EB08010DE00D2732E0E86800885B
:2055B000022131802070000A60702AE0062030800622E96820460DF043FB22E0E868B0B1F0
:2055D000082131800288227003881B0A63704188A1704288120AE270818821718288120A6F
:2055F0006271C188A171C088000AE07109E0308007E001213180E8680278227001E0378083
:2056100001273846BDE8F2832DE9F0470F46814638780024022890461D4671D17868089E52
:2056300001784078DFF8E0A001EB002189B24FF42852891A08D0491E2BD0491E50D0491E02
:205650003BD0A3395AD05BE0F8680DF0F0FE80B2B04204D3A919162903DB0D2451E007243C
:205670004FE0FB682A46414698190DF0E9FAAD19F868ADB2C5F11602002140190DF0D5FE63
:20569000DAF8000000281CBF0268002A39D0002123E08EBB022DE0D198F8000098F801100A
:2056B000FA6800EB01201080DAF8000000281CBF0268002A25D001210FE0EEB9062DCCD1F6
:2056D000F868062241460DF0BBFADAF8000000281CBF0268002A14D003214846904710E033
:2056F00056B9012DB9D198F80000002813BF0128F9680870802404E00B2402E0032400E0A7
:2057100001242046BDE8F087682A00202DE9F04385B011F8017B0446082F04F1FD0004F1B5
:20573000FC0804F1760504F5A076844A844BDFF8149213D0092F21D00F2F2FD0112F01BF73
:20575000287801286878102840F0D5800A78327648787076012184F83D11EBE00025521CB9
:205770004E5D5F5D3E434E55575D3E4046556D1C082DF5DB204608F0DFFD74E00024571C0E
:205790000D5D1E5D35430D553A5D15400555641C082CF5DB022088F80000CBE098F8010092
:2057B000820704D410F0110F57D01A2266E008784A7800EB02203080CA78887800EB022061
:2057D00070804A79087900EB0220B080CA79887900EB0220F080087A30724A7A887A02EBB0
:2057F00000227281C87A0A7B00EB0220B0818A7B487B00EB0220F0810A7CC87B00EB022063
:2058100030828A7C487C00EB022070820A7DC87C00EB0220B082487D897D00EB0120F082AA
:20583000494801788A0658BF1A2212D504F5A670049071890391307A029021890191F08863
:205850000090B38872883188204608F0D9FAE0B11E2298F80100410710D40F2088F8150037
:2058700020460EF027FA002864D199F8000005B0BDE8F0434FF4804105F076BB204605B0D3
:20589000BDE8F0430F210EF029BA7088A882B188E9820221F0882883297400206882A18E2D
:2058B000A88AC91DE981618EB0EB510F02BFE88AA18E884202BF288BE18EB0EB111F18D0AA
:2058D0002878012804BF68780F2805D0687918B10F21A972FE2127E0FC2120460EF00AFAA0
:2058F000F0880090B38872883188A0790EF0FEF920E0102118E0491E20460EF0EFF8032F87
:2059100018D1A878042818BF0D2813D16E78142E18BF0E2E0ED12F7820460EF0E3F9012F21
:2059300006BFAE72FD213146204605B0BDE8F0430EF0E0B905B0BDE8F08300BFEC4D00206E
:20595000402A00206E4F0020144E00202DE9FE4F05467B48002400680094C00905D379485B
:20597000007810B920200BF0FFFC012D40F0E280DFF80092D9F8DC00012840F0D8800220F7
:20599000C9F8DC000DF054F801200BF0EDFC5FEA000805D00120C9F8DC000DF055F8CBE033
:2059B0000DF029FDA34602906748684DC0F800B0A86A016801208847012804D1584608F06E
:2059D00093FD012000906248624FC0F800B0386811200DF0FFFB00B1012410200DF0FAFBF3
:2059F00008B144F002040F200DF0F4FB08B144F004040B200DF0EEFB20B12868564E016B12
:205A1000308888470A200DF0E5FB20B12868534E016B308888475248012606602868816952
:205A300044F0200088474F4806600DF0CDFB00F001010191400814D2286A81684A488847E3
:205A50008246BAF1040FF7D0BAF1010F04D1286A42684548032190474449086820F0030085
:205A70000860584600F09AF92B683868986B8047019801280CD0BAF1010F04D1286A426826
:205A90003948314690473949086840F0030008602F48066028684169204688470B200DF026
:205AB00099FB20B128682C4BC16A188888470A200DF090FB20B12868284BC16A18888847B0
:205AD000274806600322C9F8DC20264BC3F800B02868416B204688470128F9D138680420FB
:205AF0000BF042FC0446184806603868144800688009FBD30098012802D1304608F0F4FCA0
:205B10000DF050FB08200BF02FFC07460298C9F8DC600DF0DFFF1648008808F01BFA0CF031
:205B300093FF57EA040018BF4FF0FF3804E06FF0040801E06FF001084046BDE8FE8FC046DB
:205B500014100940001800200C400940B8010010000222432C2009409E4801009A4801006C
:205B700028200860800104430040034024220840044C0100181700202DE9F0430446DFF882
:205B9000F881DFF80492A2780025ADF1240D101C00F0A380801E7ED0401E012863D9DFF83C
:205BB000E491801E3ED0401E00F0CD80401E30D0401F00F0BF80401F40F0D080464620465C
:205BD00096F828308188B769022BADF8081010D0012B15D0BBB9C188ADF80A100389ADF81E
:205BF0000C304289ADF80E208089ADF81000012107E02FB17A681AB1001D02A9904702E0E6
:205C100029468DF812105D49102002AA01F046FD96E04846B6300DF0FAFB6078002840F09C
:205C30008F809BE06078C0B960890090207B54490190E278231D102001F030FD207B042888
:205C500040F08C8048460121057007AA8DF81C1040F2053001F0A8F980E06078312804BF24
:205C7000484605707AE0677897B940468189032A0BD08278C77811B9012A6FD106E0174342
:205C90006CD094300BF04CF868E00125857065E00C2F55D168E0607800285FD14646E77849
:205CB000307847B906F194000DF098F988B901200DF0CCF90DE00BF0EFFE0246B07906F1B2
:205CD000730749462B4600901020019701F0E6FC60706078002833D040E0607800283DD10E
:205CF0002A4E454605F134000222009031461020034601F0D3FC05F144000322314600909D
:205D10001020034601F0CAFCE01C026805F11C010A608088888028780BF0BEFE0246287910
:205D300005F154074946012300901020019701F0B5FC13E01649A288237B102001F0AEFC70
:205D5000012D0BD010E01349A288102002AB01F0A5FC1149A288102001F0A0FC464618362A
:205D7000306808B1006808B9012002E001462046884709B0BDE8F083500E0020051601109F
:205D90002D8E0000520E002009450110A191000029BD0000097F011025FA00002DE9F84F2C
:205DB000DFF804B20746ABF13500DFF8F0810068800880F0E28075480068006880477E4903
:205DD0000831D1F8009000254FEA29715FEA995201F101010AD2C0F13E0210F10A0F4FEAE1
:205DF000E202D8BF08229142B8BF111C684BD3F87C21C2F30462162AA8BF203A1B68C3F307
:205E10000443162BA8BF203B9A465218162A05DA12F10A0FB8BF6FF0090200E015225D4B03
:205E30005D4E02F01F0141F4F8511980316811F0030F18BF0125C90828BF45F002050FB121
:205E500045F00405434693F90710411A052904DA9979A94208BF99886FD0DFF844E10F280A
:205E7000A0F10F0829DB08EB0011A1F1F0084FEA28210091072984BF07210091062988BF23
:205E900006215EF821600424774604EB81043C594FEA950CA41BEE0804F0FF0124BFC4F3E9
:205EB000072631446F08AE0824BFC4F3074631446E0828BF01EB146104E000214FEA950C0A
:205ED0006F080091009C5EF824E05FEA5C060EF0FF0424BFCEF3072634447E0824BFCEF395
:205EF000074634446E0828BF04EB1E64009E89B2A8EB06267143803104EB1124AAEB020146
:205F10000029D8BF0121342209F0FF074A4391B24FF6FF727943B1FBF4F18A4238BF111C77
:205F3000802889B2998005DA10F1800FB8BF6FF07F0000E07F20D8719D711A4800681F29A9
:205F500018604FF0000008D340F2FF128A4206D24908401C8A42FBD301E01F219980134FD5
:205F70000F39090940EAC10047EA0001CBF8FB1F0026CBF8FF6FBDE8F88F0D490D4F4346FF
:205F900008200F609B1D1870BDE8F88FEC0100103C1100506E62084024220840482A00201C
:205FB0009C130050082009403500094000E7A48030100940FDFDA400AC3F00502DE9F04F21
:205FD0000646880FADF1140DC0F0EF80784F381D006841688D68CC68486800B18047B94673
:205FF000754F002D08BF002C0DD038461C300368002BFCD00021016005B1A84704B1A047E1
:206010006C480BF07DFF3C4600256C49E5616C48216040F60A0CA0F800C04580017B05F094
:206030000F0221F00F010A430273AA46C0F804A0417B4FF0010B0BF00F0721F00F0147EAA6
:2060500001024273B268737C558011888646A1F60201C9B141F21E07C91B15D041F6E6776C
:20607000C91B012920D8507E012B65F38200507606D0108B20F47C7040F43470108313E0A1
:20609000108B65F30910F9E7507C012B65F38200507405D0108A20F47C7040F4347002E045
:2060B000108A65F309101082D6F8088075746046474600E01F467B6813B119888842F9D1A0
:2060D000C7F804E0797B05F00F0221F00F010A437A73D9F86C303BB1D9680988C21F8A42E0
:2060F00029D0801F884226D0338C33B3C6F824A006F12002558096F82C0005F00F0120F054
:206110000F00014386F82C1096F82D000BF00F0320F00F0043EA000186F82D10CEF80420A8
:206130009EF80D0005F00F0320F00F0043EA00018EF80D1001E0C9F80850224803688268FC
:206150000192C168406B0093102220F0784040F0805003901C480291694606F0F7F8E069D4
:206170000028FCD01948C9F8140099F81D00E56190B917480068006801465846884701289C
:2061900010D0787B0BF00F0120F00F0001437973104EC9F8146005E00AF09CF90028FBD0C8
:2061B0000DF021F9E561C4F8008005B0BDE8F08FC8200020010007060010044001010E04DF
:2061D000CC2900204C130050180000217D480000E0010010E9EC00002DE9F04F04467548CB
:2061F0008A46016894461F46BAF1000FADF13C0D4DD0BCF1000F4AD09AF8002001209040E0
:20621000014244D0BCF80000B0F5C15F32D1DCF81430DCF818206848DCF81C104FF0030E77
:206230000DF128080B93DFF894B10C9200680D91C0F3036958F8046FCEB10021351F0520C7
:206250000B4655F8042FB2F1FF3F10D0934506D0401E01F1040103F10103F2D107E0052BC7
:2062700005DA705820F4702040EA09407050BEF1010EDFD1C4F804A0C4F808C00DF0A5F8A4
:206290004F4D8046287820B140460DF04FFC00208DE002F02DFD4B49086840F00200086006
:2062B00007A80CF093FE002605F1D00007AA464909960AF0C9FA454905F5827007AA0AF0E5
:2062D000C3FA07A80CF05AFEFF2105F1340007AB3F4A089119210AF03DFA3E4A05F1500097
:2062F0001A2107AB0AF036FA3B49324605F18800134609F017FB3949324605F1AC001346A4
:2063100009F010FB364A05F12000042133460BF00BFE0E2005F00EF905F174000CF05AFD4A
:2063300005F16C000CF056FD2E74072085F898012E77AE616E770523AE602B49EB602A788D
:206350006961501C2870274B1E7040460DF0EEFBB1464FB92548B0E88C106946A1E88C107F
:206370000DC86F4681E80D0038682060398A6182012060747B6813B940F6C4130646E36007
:206390001B48A06126746061F86800B1A061B86800B160615822494604F1200007F05AFB20
:2063B00004F1380049460BF0CFFB20466C600FB0BDE8F08FD4210840541300500200F84405
:2063D000C820002000200940892A0100FDA900003DEA000005E700008924010009280100EF
:2063F000A1FC00007A2A002065AC0000A44B010087C100002DE9F04F0546804806680068A5
:206410000F461C469246C4F399018900ADF12C0D0A010021803207F01DFBDFF8C891A9F175
:20643000880002466E48016830469047A3088046610801979F1C21F00101F819009506EB39
:2064500080000390091DCDF808A07818434506EB800206EB870B3844049206EB800006905F
:20647000C4F39C004FEA800000F1080007EB400000EB070206EB82020A9224F0030202F1C4
:20649000080200EB020506EB85053A44059506EB82050A4407953A4406EB8202089206EB7D
:2064B00080020992084406EB800A384406EB800518BF6FF0010040F08F8009F168000246D6
:2064D00041463046904700233CB10199264611F8010B761E40EA0303F9D1002B08BF01200C
:2064F0007AD000263CB10299234611F8010B5B1E40EA0606F9D1002E08BF02206CD00199B0
:206510005846C84703980299C847009881680498C8473548049A594681462846C847012826
:2065300003D14FEA88042E590EB1032054E0BE0028460021324607F08DFA0399049A28462A
:20655000C847012801D12F590FB1042044E0274F274C069859463A46A047079803993A4649
:20657000A0470699089827460A46B84709980899069AB8470A9806991E4C2246B8472846C8
:206590000021282207F066FA1B4809990A9A81462846C8472034284622460146C84707991C
:2065B00050460A46B84705980021324607F052FA5FFA88F45046002C0CBF01225FFA88F215
:2065D00000216B5C445CA34218BF052004D1491C521EC9B2F5D100200BB0BDE8F08FC04652
:2065F0008C4F0020B9DB0010C9DE0010681E0020F9E0001090490100C9E60010884F002016
:2066100079488078FF2800D170472DE9F84F0CF01DFC054605F20F100178012908BF41780C
:2066300000F08A8005F58E74E18911B1207B04F09BFC6889288105F17401887B022803D1FC
:2066500005F174000021817305F58979DFF89CE19EF80A009EF807309EF80C209EF80B107B
:206670009EF80D60B9F8027000EB030890448844B044B9F80460761CA9F80460C719B9F81D
:206690000060A9F802704644A9F800602468E4B1574F95F806B03F68182607F10E0A06FBEC
:2066B0000BFB0E371AF80BA034F81AB0C34424F81AB095F806A006FB0AF6BE5D04EB460457
:2066D000B4F84A70C619A4F84A60002B08BF002905D1002A04BF9EF80D1000290FD02989D4
:2066F000E88941180026A9812E74424841690A78900726D59EF80E00802822D022E018B17D
:2067100000200126287405E0B9F80600401C0226A9F80600A8892989814206D08842E4D2C3
:20673000081A41F2AB029042DFDA287C08B1052901D0082100E03E212846BDE8F44F0DF0A5
:206750008DBA812005F1740A8AF800002846FBF7BDFE012846D0012128460DF0B7F9284646
:206770000DF0B0F902F054F801283BD0FCF712F9214F3868B0B3B888AA7990421CBF4FF62B
:20679000FD7188422ED11D48007A0CF077FC040028D02670A8791A4960800A68A879115C6E
