:20000000004000202500010001C9011001C9011001C9011001C9011001C9011001C9011038
:1C00200001C9011001C9011001C9011001C9011001C9011001C901103FC9011089
:20003C002DE9F04FDB4C04F114012046ADF1340D0FF022FC04F140060021304600F080FC7E
:20005C00D54904F1880541F2883240232846A6610FF030FED14E06F1180006F10C010BF0C5
:20007C00F3FDCF49B06012F095FFCE4FB0684FF4E0213A46521E10F009FDB0684FF4E021EB
:20009C003A4610F003FDC84FB0684FF0C0513A46521E10F0FBFCB0683A464FF0C05110F076
:2000BC00F5FCC24906F12400C82200230FF002FEBF48002170604FF080400EF063FEBD4DA1
:2000DC00206121211E22284611F0E2FEBA4800214FF6FF7211F0DCFEB84800214FF6FF7227
:2000FC0011F0D6FEB64800214FF6FF7211F0D0FEB44800214FF6FF7211F0CAFE2769DFF868
:20011C00C89257B1284606793EB14D4603212970EF600021A9600EF019FDAC4D1020062257
:20013C00A023294607F056F910200722A023294607F050F910200822A023294607F04AF99A
:20015C0010200922A023294607F044F910200A22A023294607F03EF910200B22A023294677
:20017C0007F038F9102002226423294607F032F910200C225A23294607F02CF910200D220A
:20019C005023294607F026F9294610200E225A2307F020F9294610200F22502307F01AF9A2
:2001BC00102029465A23024607F014F9294610201122502307F00EF92946102012225A2328
:2001DC0007F008F9294610201322502307F002F92946102017225A2307F0FCF829461020F3
:2001FC001822502307F0F6F8294610201522C82307F0F0F8294610201622C82307F0EAF816
:20021C002946102019224FF47A7307F0E3F8294610201A22002307F0DDF8207811F014FB74
:20023C006B490246102007F0D5F8012500208DF8210007468DF822506648ADF816700FF0AA
:20025C0043FB092184F8581084F85910412184F85A104E2284F85B20432384F85C302D26E1
:20027C0084F85D60867A84F85E60C67A84F85F60067B84F86060467B84F86160022784F814
:20029C0062700A2684F86360002684F8646084F86570A84684F86680062584F86750032574
:2002BC0084F8685084F86970F02584F86A50FF2584F86B5084F86C1084F86D2084F86E30D8
:2002DC00817A84F86F10817A84F87010817A84F87110807A0DF12102414684F8720040F25B
:2002FC00053007F07FFC40F21B3041460DF1220207F078FC40F2063039460DF1160207F0B6
:20031C0071FC04F158024FF442700D2107F06AFC04F1650240F207300E2107F063FC0F200C
:20033C0041460DF123028DF8230040F2044007F059FCCB4D04F13000DFF828A3A8619AF813
:20035C0000006072287811F07FFA0246E87A05F134030090CA49019305F14403029305F1BF
:20037C00140303936B78102007F034F8617A480000EB011080B212F01CFF4D46E06158B331
:20039C00637A53B34FF6FF711A46521E20F8121BFBD122E008020020512E0100381C0020A8
:2003BC00390A01000E0005800E000010DD270100052A0100C81C002058190020A01B002087
:2003DC00081B0020541B00205C1F00200504010051880110E8120050637AD80012F0E9FEB8
:2003FC00606250B1627A42B10346DE801E709E805E80521E03F10803F7D104F17300C24974
:20041C00009032461523102006F0E4FFBF4910204FF0FF3206F0DEFFBD4910204FF0FF3256
:20043C0006F0D8FF1020BB4EBB4BBC4A009031460193132306F0CEFF9AF80000800012F0E6
:20045C00B8FE0146B6488146816069B14FF6FF7010F0DAFCC94B10203146009009F11402DE
:20047C000193112306F0B6FF8DF8248003208DF8257004268DF82600C9498DF8276006ABE3
:20049C0000200A6809791A6009AA197141460AF035FB40460DF1250201460AF02FFB0DF1B0
:2004BC002602384641460AF029FB0DF12702032041460AF023FB052106AA30460AF01EFB8D
:2004DC0004F12800C349C9F80400102006F082FF207811F0B9F9C0490246102006F07AFF30
:2004FC00207811F0B1F9BD490246102006F072FF8DF8287000268DF82A608DF82C604046CF
:20051C008DF82B00C04F8DF829804FF4806243460AAE10203946009606F05CFF0DF12900AF
:20053C0040F20242434600903946102006F052FF0DF12A0040F203424346009039461020B3
:20055C0006F048FF0DF12B0040F20642434600903946102006F03EFF0BA84FF48362434640
:20057C0000903946102006F035FFB94904F13802102006F02FFFB749102006F02BFFDFF84A
:20059C00DCB26069B44A00214FF0FF3300F0DCF95FEA0008F5D00020049008A904AA05A8BD
:2005BC0010F054FEC0B9BDF814100120074610290DD120789DF82010884208D104980188D1
:2005DC004FF6FF728A4202D000F0A4FE0746049810B10FB112F0B5FD5FEAD870C0F0258114
:2005FC001DE1A669304600F0B3F9864208BF002702D0876810F03CFC381C00F0108139887B
:20061C0022692878E36A491E00F00081491E00F0C980891E00F08680091F35D0083903D0F0
:20063C00103900F0DD80F7E079688E78002E29D0012E19D0022E0DD0032E40F0AC80CE782B
:20065C00002E08BF86A312D00B880093CE788BA301960EE0CE78002E40F09D808EA306E087
:20067C00500E0020694F0020CE7826B990A309880091C01C8AE0098893A30091E8E7C0461B
:20069C0095E7000095A3F2E778680078010922D24009C0F080800E2012F092FA00287AD133
:2006BC006868697803790A46934212D0FF2A72D000EBC203DE682EB900EBC10000690EF08F
:2006DC0045FA68E000EBC200006901461046884761E08068F3E70D2012F072FA00285AD104
:2006FC00696868780979814207D0FF2809D0401CC0B210F05DFDFF2802D1002010F058FD7A
:20071C00687009F03DF846E08DD4000041200100ED220100F1190100284A01003C120020D2
:20073C00E0140020980836D3266A002E33D0207906F10803401C20717E4900937288337997
:20075C00102006F047FE5FFA80FABAF1160F17D0E66ABAF1040F13D036F00206E66208D148
:20077C004FF6FD70744A724900900123102006F031FE50460DF0DAF90DE0C046344A010051
:20079C0020790090226928785AA3401DC1B21046002211F026FA786810F06AFB3CE0C0461C
:2007BC005A4A01007B6899F800101E782EB1B61E0DD199F8021053A300E055A3401D00916E
:2007DC00C6B210463146002211F00BFA7B681846E2E7C046C1CF00003181011041300100BB
:2007FC007E68C01CC1B24DA3CDF800B01046002211F0F7F9CDF800B04C4972891020002382
:20081C0006F0E8FDC7E7C046454F0000786800F081FD786812F095FC384610F029FBA0692D
:20083C0000F09AF800283FF4DCAE5FEAD810FFF4A8AE424812F0D3FC99F8020001210DF1AD
:20085C002D028DF82D0003200AF058F999E6C04645250100C5AB00107F0000C040E201005B
:20087C0043786E20256420626F6E642073617665207375636365737300C046C043786E20D0
:20089C00256420626F6E642073617665206661696C65643A2025640043786E202564206265
:2008BC006F6E64696E67207375636365737300C0636F6E6E48616E646C6520256420706130
:2008DC006972656400C046C070616972696E67206661696C65643A20256400C0636F6E6ED2
:2008FC0048616E646C652025642070616972696E6700C0465273702073656E64207265746D
:20091C0072793A004368617220333A20256400C04368617220313A20256400C05061737319
:20093C00636F64653A20256400C046C001130100A5F30000DDFE0010732B0100900200206E
:20095C00DFF800F0A1B60110DFF800F0F99B0110DFF800F019BD0110DFF800F04FBF01104C
:20097C002DE9F04F85B011F801ABDFF86835DFF868C5DFF868B58146AAF10200132809F117
:20099C00FD0209F1F40609F59C7709F1860809F5AC7409F1660500F28B82DFE810F0D40092
:2009BC00890214004000430070028902980089027000A80073007800DA008F01D501CB00CB
:2009DC007802DF01DF0109F1A0040822204600F089FA06460821204600F088FA09F198073A
:2009FC0004223146384600F07DFA0421384600F07DFA00204142494409EB000291F89F10F1
:200A1C0082F8BF10401C0828F4DB09F1C702214609F1D70000F06EFA0020A87157E201212F
:200A3C00B17154E23178707A012900F010000DD130B100207870316CB87849080DF068FE3D
:200A5C0099F80600002100F059FA0FE040B1326CDFF88C0409F59D735208494612F018FB8E
:200A7C0099F806000122002100F04CFA01202870484600F04BFA0121A971B17027E2012145
:200A9C00F17024E2087870700121F1711FE2A87918B93D2030770120F076707A000701D4AB
:200ABC000E2037E100205F1C0B5C1CF8006033430B543C5C23401354401C0828F4DB28782C
:200ADC0008B90921C5E148460DF040FBF5E100205F1C0B5C1CF8004023430B543C5C2340B7
:200AFC001354401C0828F4DB02203072EFE1A87920B93D2101203177F076E8E1707C01281F
:200B1C0003D10C2171770721A3E111F8010B3075022209F5857000F0E5F90146022209F51C
:200B3C00867000F0DFF9F07C012100287174E4D10C218EE1707AC10601D41220EAE04846DF
:200B5C0000F0E8F9B9E1087830770021F176F021F4E0737A980704D413F0110F70D01A2277
:200B7C00DEE0287C012804BF687C0F2808D0687D08B16A7C12B12A7F012A03D158070BD5EA
:200B9C002322CDE010B1687C012803D098F80A00012806D1580702D40F2171778AE12A2208
:200BBC00BEE008784A7800EB02203881CA78887800EB022078814A79087900EB0220B881A1
:200BDC00CA79887900EB0220F881087A38744A7A887A02EB00227A82C87A0A7B00EB02205C
:200BFC00B8828A7B487B00EB0220F8820A7CC87B00EB022038838A7C487C00EB02207883ED
:200C1C000A7DC87C00EB0220B883487D897D00EB0120F88309F5A6700490798A0391387C60
:200C3C000290B9F808100191F8890090BB897A89398948460CF0EEFF18B1707A41076ED4DD
:200C5C0067E07889A8F804000022B989A8F806100221F889A8F8080088F80010A8F80220D4
:200C7C00B9F83400C01DE883B9F83210B8F80400B0EB510F02BFB8F80600B9F83410884253
:200C9C0002BFB8F80800B9F83610B0EB111F13D0687D18B10F21A976FE21DAE0FC21484699
:200CBC0000F03CF9F8890090BB897A89398999F8060000F037F90AE10021CAE08A78C8782A
:200CDC000F798C7902EB0025487907EB0027C87901F10B0204EB00240492BBB2487A8A7A63
:200CFC0000EB022080B20390087A0290B9F808200192A2B2009291F800C048780CEB002080
:200D1C0081B2AAB248460CF085FF80B1707A410702D40F207077CDE0484600F007F91E2260
:200D3C00484605B0BDE8F04F0F2100F003B9A8F80450A8F80670A8F808400021484605B03E
:200D5C00BDE8F04F00F0FAB8087820704A786270487870700121F1717971B8E00A78487865
:200D7C0002EB0022628209F5BC778878CA7800EB0220E0824A79087900EB0220208288798E
:200D9C00C97900EB0120A08209F5AC7109F5AC70CA8A8089A18B904288BF1046A0838842AD
:200DBC0009F5AC7009F5AC7100894A8A218B14BF01260026904288BF1046884214BF01218B
:200DDC0000210E4320830122A18B387900F0BAF8218B814205D3A18B3879012200F0B2F85F
:200DFC00014609F5AC70798009F5AC7140890A8A904288BF1046628B6083904214BF0121FF
:200E1C0000210E43824209F5AC7009F5AC728941C089938AE28BC90F984288BF1846904284
:200E3C0014BF012200221643E08311B1484600F08DF8BAF1140F19D146B1E08B0090638B65
:200E5C00A28B218B99F8060000F084F8287830B91521484605B0BDE8F04F00F05FB848461F
:200E7C0005B0BDE8F04F152111F03ABD1EB1387840F008003870397841F0200108E00878C5
:200E9C000F2807D0122802D0142806D01FE0002139701CE00120387119E099F8780140F048
:200EBC00020089F8780140F0100089F878010EE086F81DA0484600F051F840B99BF8000064
:200EDC0005B0BDE8F04F4FF4804109F03DBF05B0BDE8F08FEC4D0020402A00206E4F0020CB
:200EFC00018B0010DFF800F0D1920010DFF800F0AD710110DFF800F09D720110DFF800F05C
:200F1C0069CA0010DFF800F001CA0010DFF800F0B9950010DFF800F05D880010DFF800F028
:200F3C00AD7E0010DFF800F0E5BE0010DFF800F0097F0010DFF800F049890010DFF800F011
:200F5C00697F0010DFF800F0598F0010DFF800F0DD930010DFF800F065BF0010DFF800F0B5
:200F7C00497E001038B50446194841780A062DD5184D287870B1184A117859B9032011F0D4
:200F9C0075F8010022D09120087010224A708C70287817E00C2011F069F8B8B101210170A3
:200FBC00FF2200F108034270436004211970102341684B70012241688A7001464268074858
:200FDC00D4700078BDE8344011F002BA31BD00BF1C4E00207D2A0020624F00207B2A0020CF
:040FFC0030BF70474B
:20100000B41200001810000015AB0110FDB301106DC00110FDAE011099B5011000000000F7
:08102000000000002D0000009B
:20102800B01200003C100000B1C00110A9BF011067C0011069B80110000000000000000035
:041048003000000074
:20104C00B012000060100000BDC00110CDB30110D9BD01106DB3011000000000000000005B
:04106C00310000004F
:20107000000000002820002004000000000000000000000020000000E8C9011030000000E2
:2010900028100000302000200400000000000000000000000C000000D8CA011018000000BD
:2010B0004C1000003820002004000000000000000000000024000000F0CA01101800000041
:2010D00000000000402000200400000000000000000000001000000018CA01102C0000004D
:2010F0000010000050200020040000000000000000000000200000006CCA011024000000B1
:20111000FFFFFFFF582000200400000000000000000000002800000090CA01102400000070
:20113000FFFFFFFF602000200400000000000000000000001400000008CB011018000000EF
:20115000FFFFFFFF6820002004000000000000000000000058000000B4C9011034000000BD
:20117000FFFFFFFF702000200400000000000000000000001000000020CB0110180000008B
:20119000FFFFFFFF782000200400000000000000000000001C000000B4CA011024000000B8
:2011B000FFFFFFFF802000200400000000000000000000003800000044CA011028000000E0
:2011D000FFFFFFFF882000200400000000000000000000005400000078C901103C00000055
:0811F00001000000C44A0100E7
:0411F80001000000F2
:0411FC0000000E00E1
:0412000000000F00DB
:0412040032000000B4
:0412080001000000E1
:04120C00EC1E0020B4
:0412100000020000D8
:0412140000000000D6
:0412180001C90110F7
:04121C0000000000CE
:0412200000000000CA
:0412240008000000BE
:0412280000002200A0
:04122C003C1D002045
:0412300000000000BA
:0412340000000000B6
:0412380008000000AA
:04123C00AC1E0020C4
:0412400000000000AA
:0412440000000000A6
:04124800080000009A
:04124C00000000009E
:04125000000000009A
:041254000000000096
:041258000000000092
:04125C00010000008D
:04126000D41D002079
:041264000600000080
:041268000100000081
:04126C00EC1B002057
:04127000000000007A
:041274000000000076
:041278000002000070
:04127C00000000006E
:02128000290043
:02128200010069
:02128400250043
:02128600300036
:02128800310033
:02128A002D0035
:02128C0001005F
:01128E00015E
:08129000030000004C4A0100BC
:0812980000000000000000004E
:0412A0000000010049
:0412A4000000030043
:0412A80013C401105A
:0412AC00892B010089
:0412B000B812000070
:0412B400B81200006C
:0412B8000000000032
:0412BC00E81F002007
:0412C0003F2D0100BD
:0412C4002000000006
:0412C800A049010038
:0412CC00584801007D
:0412D00029C101101F
:0412D40057FF0000C0
:0412D800370A0100D0
:0412DC00A1C7011095
:0412E000A3C701108F
:0412E4000000000006
:0412E800974A010020
:0412EC003C4601007B
:0412F000544601005F
:0412F400244601008B
:0212F8000200F2
:0212FA000900E9
:0212FC000100EF
:0212FE000000EE
:0113000001EB
:04130400CD2C0100EB
:04130800810D010052
:04130C003D2101007E
:0413100001120100C5
:04131400EF0D0100D8
:0413180081FE000052
:04131C0071CC000090
:04132000672F010032
:04132400DDF00000F8
:0413280015C70110D4
:04132C0025C70110C0
:201330002DE9F04F01780122ADF11C0D9139069200F03F839B4DDFF87082DFF860931F39FE
:2013500000F0B082203940F05C832C464346064622691978B07805939446002801F10401D7
:2013700000F08782401E00F00182801E00F07382401E0FF2143B00F0D781DFF824A3401E1E
:2013900000F0D980401E64D0401E00F05082801F40F03783604606210022D4A310F027FC30
:2013B000F078042800F02D833569D5A128460FF0FBFC0746D5A128460FF0F6FC6FB90028FF
:2013D00008BF002516D00A46082710F8013B7F1E02F8013BF9D1082009E03D4608461027B2
:2013F00015F8012B7F1E00F8012BF9D110203161069D3073A778002D00F00383D6F81090E1
:2014100096F80C8096F90BA00F2F80F2FA826FB120463E4600F2B74548462946424610F0BF
:2014300019FE98B1761E05F18105F5D107EBC71049464246001900F2B74B58460AF0D4FE0F
:201450007F1C8BF880A0F8B2A070DAE285F880A0D7E21020494605F0C3FF8046B08810F0FE
:2014700043FBA081617A5FFA88F7814240F3C982E669069D636A41004FF6FF7CC2004FF048
:20149000000801EB001126F801C005FA00F0D11803F8028082B2A1F806805046414610F093
:2014B000FDFCA08905FA00F082B2D448414610F0F5FCA0898540D2484146AAB210F0EEFC6E
:2014D00047B9D64841461C2210F0E8FC04F1880011F08DFEDDF814A026699AF80050102002
:2014F000494605F07DFF6D1C00904246D2A3E9B2304610F07CFB9AF8001020694246D2A316
:20151000091DC9B210F073FB607A401EB84240F0788250460178206942465B46891CC9B26F
:2015300010F065FB4246CFA3059801782069491DC9B2844677E17778002F40F0EA80104691
:20155000C9B2D5A3002210F052FB4046276905784946102005F044FF6D1C00900022B6A3FB
:20157000E9B2384610F043FB0020A071B6F80AC094F80980301DB8F1000F10D0E5690027EC
:2015900041464FF6FF73B946123D35F8122F93420CD0491E07F1120709F10109F5D19F4F60
:2015B00015253DE0080200205C1F0020A5F800C00EF090F9AD1C01460F2228460AF014FE60
:2015D00006984D460022A8401FFA80FB5046594610F064FCDFF8248200225946404610F0D3
:2015F0005DFCDFF81C9200225946484610F056FCE069EA00C0190AEB020308EB0201801CC4
:20161000864FC8604A44D860F988D060480904D238461C21002210F041FC94F80980EDB251
:201630001E49102005F0DCFE804513D806994FF0000840F205300DF112028DF8128006F018
:20165000D7FA059801782069C4A34246891CC9B210F0CDFA05980178E26920696B0003EBF1
:201670000513491D9B18C9B29B1C002210F0BFFA38460DF071FA7589284610F035FAA0817A
:20169000617A814217DD0DE0526561647920746F2041647665727469736500C0F17F0110BB
:2016B000A01B0020C200616A06980027885489188F803E464E806089001FADF808002078C2
:2016D00010F0C8F8BE4900902A4602AB102005F087FEBC49102005F083FE012840F09181C6
:2016F00004F1880011F081FD8BE1C04644657669636520646973636F76657265642100C0F3
:201710005441524745544445562D00C0414E432D00C01046C9B2BEA3002210F068FA7078C9
:201730000022BFA30090FFE6657A4946102005F057FE854294BFBDA35B4640460178206915
:201750000022891CC9B210F052FA069E002540F21B3004AA8DF81050314606F049FA3046EC
:2017700060716570A5700FF07BF94AE17178002948D100271046677111F0F4FBF57871684A
:2017900004F1FC00EA000AF02FFD4FF0FF30E0709E4EA37896E803001FFA80F803B36570D6
:2017B0003E4604F2B745CDF8008020693946A7A30A4610F01CFA0095206906993A46A5A321
:2017D00010F015FA95F980000090206902213A46A1A310F00CFAA078761C81358642E2DBF1
:2017F00067710699677040F21B308DF811100DF11102A77006F0FCF903E1C046081B002028
:20181000541B002012290BD00C2904D01046032192A300228DE693A303E0C046C81C0020A3
:2018300095A303210022604610F0E1F9E9E0F078C9B296A30090F5E7436F6E6E656374651A
:201850006420746F20256400446973636F6E6E6563746564210000226271052162708FA355
:20187000A270E0E7526561647920746F205363616E0070896081104611F074FB06986071D3
:2018900000206070A0700FF0EBF8F61C9E487768476031680160B4E0436F6E6E656374651B
:2018B000642100C004466178EF6A162915D0434619782A6923797E2B05D07F2B1CD1038949
:2018D000184679A301E0207A7BA30090091D10460022C9B210F08BF90EE0002F5FD14FF626
:2018F000FD708A498A4A00900023102005F078FDEF6AC6B2002E52D04946102005F070FD35
:20191000002846D0608810F0EFF8A88122790B2A2ED0012A02D1217A0A2929D0132A0DD0D4
:20193000012A02D1217A122908D0696A11F8300000282ED0204606F069FF2AE043462869D1
:201950001978012A07D0EA79521CD2B2531EEA71DAB25DA317E060A314E0C04643616E270A
:2019700074206164763A206E6F206C696E6B7300434628691978012A03D0E26812785AA396
:2019900001E05DA3227B0092491D0022C9B210F02EF9217904F1080012F080F831E047F0A4
:2019B0000200E86206980CF0C7F82C620020069027E047780E3F07D0B81E1ED021E0C04679
:2019D00095100100F17F0110818842F203028A4217D181680878A0B9491C02A80A684968E6
:2019F000026002AF416038784A4902AA00F0FD003870102005F0F4FC03E00820002105F069
:201A100039FB069807B0BDE8F08FC046E8120050436F6E6E656374204661696C656400C0CA
:201A3000526561736F6E3A20256400C043616E277420416476203A204D617820636F6E6E35
:201A500073207265616368656400C046414E432D25780A0025730A0025640A004552524FFE
:201A70005200C046434F4D4D414E4420444953414C4C4F57454400C0494E56414C49442010
:201A9000504152414D455445525300C0506172616D205570646174652025640041647665E5
:201AB00072746973696E67004D54552053697A653A20256400C046C046432056696F6C6118
:201AD0007465643A2025640057726974652073656E743A20256400C057726974652045726C
:201AF000726F7220256400C052656164207273703A20256400C046C05265616420457272BB
:201B10006F7220256400C046A7110020A5F30000732B010095B400102DE9F04F0F46CC4CFB
:201B30000168E16241688068ADF11C0DE060C548A1608047C448E16A0160A168DFF80CA335
:201B50004160E168DFF838938160CC49002FA346C1606FD03D68E8788DF80C0028798DF8BF
:201B70000D0003A811F096FFA86808B1C9490160E86808B1C8490160C84C2878207068782C
:201B9000BE686070A878B268A0703178A2607368E1702E696360EA6926627968E262086854
:201BB000E06068696062A8697B68A062286A9E68206395F8240084F834001EB9002010F0D9
:201BD0006FFD00E066617868C06818B9002010F067FD00E0A0617868006918B9002010F06A
:201BF0005FFD00E0E0617868406818B9002010F057FD00E0206128692062F86881680E6858
:201C100006B9B34EB1494FF001084E60C66881F8018036B9002010F043FD4D462E68F86804
:201C300001E04D462E6000685446FB68A0615868E06107E0002010F033FD4D462E684FF08C
:201C500001085446361DD0493668621C04F114035020B04710B1286880688047DBF80800FB
:201C7000804782460023D04ECD48CE4F2061994633714A46B370380BF270C7B2401CC1B2AE
:201C9000377018467170B94280F2908198B9B9F1000F08D1307810F013FA0420F0803179FA
:201CB0000020A1B912E086F802900FF0A1FC484607F066FE07E0B9F1000F02D048460EF015
:201CD00031FA0FF095FC3179002001B9404610B9002010F0E5FC0020D14E2B68A060074646
:201CF000B760986980477060C54880F8008039464180142011F0ACF8FF211422A06211F0AE
:201D100084FAE01CFF21022211F07FFA142011F09FF8BC4F386038680021142211F075FAA5
:201D3000002001F073F840460EF052FDB6480188FF2906D1022101807822001D002111F041
:201D500064FA032011F0A2FE042011F09BFE052011F094FE062011F08DFE07200DF02CF9E0
:201D7000AA4E0820307006F1240011F07FFE0DF095FB06F1360905200A214A460FF0CAFE90
:201D900038B10020C0F10901401C09F8011B0A28F8DB3078102108F0DDFF2B689C490920A3
:201DB0000DF10E025E68087001AB10200021B047A06AE1690A260A309DF80E20761E00F8C6
:201DD000012BF9D1891EE161DBF80C105046884704F120002B68626A059040461E69DFF8D3
:201DF000348204F120034146B04710B1286880688047B84610F016F85FEA000903D00AF05C
:201E100019F84FF0FF3900264CE00298216910F8062CA0F10C07032A03D1002942D08847CB
:201E300040E0A16A9DF810C00A223046491E11F8013F9C450ED0521E00F10100F7D14FF088
:201E5000FF0A09E041490010F8440020341E00202C1800205FFA80FA2868BAF1FF0F00F1A7
:201E700008001DD038790EF02FFFB979012909D0022904BF0299887006E0C046B43A0100EF
:201E9000A8200020029908700299504610F0A6FA08E0C0466D190100B5280100041D0020D2
:201EB000006880472868C36904A902AA0DF10F0098470028A9D0D8F800007700C35B4BB9D8
:201ED000761CF6B20A2EF8DB27E0C0460820002043ED00000A2E20DADBF808008047D8F884
:201EF0000010002231F807A0CA53DBF80C108847494850F826202670514630469047064610
:201F1000FF202070DBF808008047D8F800107A5A16437E52DBF80C1088470FF083FF0746F7
:201F3000B9451AD007B93D4FE069B84238BF071CDBF80800804781462868016A206A884743
:201F5000626A28683349059B521C6262C6683846B047DBF80C1048468847A768296860696F
:201F700014319FB9D8F800000A270026835B33B10969606988472968D8F8000014317F1E7E
:201F900006F10206F2D105E0AD200100096988472968143109684FF0FF3088472AE7C046E0
:201FB000D529010000D00100302A0020384600216A4604230FF0B4F9009BB078B3F5801F9B
:201FD0000ED043B9B9F1000F03D048460EF0AAF8B078B94610E038460EF0A4F8B0780BE01B
:201FF000002804BF381CB77006D00EF09BF838460EF098F80020B07071787F1CFFB242E65B
:20201000A0200020702A0020DC1900206C130020822A0020110D0100E04701008EC2F528E2
:20203000042A00202DE9F8435FEA000906D1002010F036FB02E04846FEF77EFF09F1660530
:20205000687D002800F08381697CDFF89C04002909F1860709F20F1809F1EC0609F59E7445
:2020700043D0012958D002292FD003295ED0062900F09880072900F06081082900F0C080CE
:20209000092900F0CD800A2900F09F800B2900F0A8800C2900F0D0800F2900F0EB801129F1
:2020B00000F01581122900F0DC80142900F01881152900F03981F02900F04B81FC2900F06B
:2020D0004581FE2900F04F81B1E7297C012908D1C07808B900F0C7B94846FEF72DFF1621B4
:2020F0003CE1484611F0BEFCC9E1297C012940F04B81C078002800F04E81788839784000E5
:2021100078804900B88839704000B880012138890001388129778EE7297C012940F041819A
:20213000C078002818BFB97285D13EE1297C012940F04281807838B1A078012804D10021DE
:20215000A1704846FEF7F0FEB07B012809D10021316071600122BA7306214846FEF7F4FE50
:202170006CE7F07B012818D14846FEF7E5FE0020B873012129704846FEF7CEFE0120A8718A
:2021900000217173717A99F8060006291ABF00221A210022FEF7BCFE50E798F80000012882
:2021B0003DD014E1287C012840F01881B07A012811D14846FEF7C0FE002030723073F0723A
:2021D000B073B072F073707338E7287C012840F01481F07A012840F00A810021B9730B21EC
:2021F000BBE7297C012940F011818078002800F011810321B1E700222221FEF789FE71E10B
:20221000287C012840F01681307C022809F1FD0240F0198199F80610002011F01FFC0AE7AD
:20223000297C012940F01B81807800281FD0B9F82200A9F81E00FEE6287C012840F01A81D6
:20225000707E012840F01D81B07E0128F3D1308C0090F38B327F99F80610002011F0FAFB36
:20227000E9E6297C012940F01C818078002800F0FA80E0E6287C012840F0178160780128FD
:2022900013D1207F0F281CBF002010F009FA00206070607F1A2808BF002117D000210091E4
:2022B0000023002211F0D2FBC5E6A078012807D10021A17023220F214846FEF741FEBDE62B
:2022D0002078012840F0CF800021217045E7297C012940F0EE80C078002800F0EE80AAE615
:2022F000287C012840F0EF8009F5AF76B07E810613D500F0DF000107B0760BD500F0F700DE
:20231000B076308B0090B38AF28A718A99F80600FEF726FE002030708DE6810740F1CD809F
:2023300000F0FD00B076F5E7297C012940F0CF808078002800F0D0807DE64846FEF714FEF8
:202350000128F9D002E0002010F0AAF90020BDE8F283407A0028FAD098F80110484611F0C0
:2023700071FB0120F3E7A87E0F28ECD1FC214846FEF7EAFD608900902389E288A18899F8FC
:202390000600FEF7D5FDE1E7484611F057FB2874E88A2883DAE7B9F80A00E98B884209D06B
:2023B000D4E7484611F046FBF1E7B9F80A00B9898842CBD12821D1E7484611F037FB2874E9
:2023D0000021E88A2883B1730020F073BFE7288B401E288380B2002822D0B7E7484611F02D
:2023F00021FB28740021E88A2883B172AEE7288B401E288380B298B1A8E7484611F00EFBC1
:2024100028740021E88A2883F1729FE7484611F001FBBCE7288B401E288380B2002895D13F
:20243000317A99F8060001297FF4E5AE2221FEF76BFD57E0484611F0E9FA28740121E88AA1
:202450002883317482E7288B401E288380B20028F8D199F80610222011F000FB42E048463F
:202470000BF07AFE93E7288B401E288380B2002838D06BE70120F076484611F0C3FA287480
:2024900064E7288B401E288380B20028F8D1308C0090F38B327F99F80610222011F0DAFAC9
:2024B00020E0484611F0AAFA71E7484609F095F96DE7484611F09EFA69E7288B401E2883E5
:2024D00080B278B142E7484610F010FA5FE71521484610F00BFA5AE7288B401E288380B292
:2024F0000028EFD1222139E75C4D00202DE9F84FDFF86C54696884B0019121B905B0BDE8F9
:20251000F04F11F073BA0978DFF858A4DFF858B4DFF85884DFF8586401291CBF0229042964
:2025300046F2A81741F64C5905D0402918BF802900F0F8800AE210F063FD0028FAD00198BB
:20255000007806F05DFC0090446814B9002010F0A7F8DFF820144878002800F0A48002F0E3
:2025700017FE10F065FB02900168009801914F6809F0ECFD02286AD000990A78012A04D09A
:20259000022A25D0042A41D0E0E1DFF8EC3319680A7A1BF80230337018B911F023FA4844AC
:2025B000A0602069C17E01F0EF01C1762069C17E41F08001C1762069C17E01F0F00141F09F
:2025D0000201C176B86821694044C861012035E10521317018B911F005FA4844A060206976
:2025F000C17E01F0EF01C1762069C17E41F08001C1762069C17E01F0F00141F00201C176AE
:20261000B868216940440862022017E10621317018B911F0E7F94844A060DFF8600301684F
:20263000887C0AF0F3FB2069C17E01F0EF01C1762069C17E41F08001C1762069C17E01F054
:20265000F00141F00201C176B8682169F3E001980178802913D10820C94930700A78012A6B
:2026700003D0C4484178022903DB39690120C87213E0DAF828003A690178D1720DE0C0496A
:20269000072030700A783869012A02D10121C17203E0DAF828104A78C2720298B54A817977
:2026B000019891704DE10098002819D00199009A007891420ED1401E012806D9C01E05D121
:2026D000AE480168887C0AF0A1FBB8E000200FF0E7FFB4E0012804D0022815D0042819D09F
:2026F00034E1A54801680A7A1BF80200307011F079F93918A06811F071F918B911F072F9B2
:202710004844A060012099E00520307002210098A97016E10620994930700A68907C0AF0D3
:2027300075FB8AE093494878002800F0BA8002F02FFD10F07DFA0290016801914C688D4915
:20275000887810F075FA039010F060FC10F0070F7AD0A87806F054FB00904768019909F074
:20277000F5FC022870D000990A78012A04D0022A24D0042A40D064E07F4B19680A7A1BF850
:202790000230337018B911F02DF94844B8603869C17E01F0EF01C1763869C17E41F080012E
:2027B000C1763869C17E01F0F00141F00201C176A06839694044C86101203FE00521317047
:2027D00018B911F00FF94844B8603869C17E01F0EF01C1763869C17E41F08001C176386909
:2027F000C17E01F0F00141F00201C176A068396940440862022021E00621317018B911F0E8
:20281000F1F84844B8605D480168887C0AF0FEFA3869C17E01F0EF01C1763869C17E41F00E
:202830008001C1763869C17E01F0F00141F00201C176A0683969404408620420A870009837
:202850007FE000200FF02CFF03980299884226D001984B490278802A12D10820307009784C
:20287000012903D043484178022903DB21690120C87210E0DAF8280022690178D1720AE0FE
:20289000072030700978206901290EBF0122DAF828104A78C2720298364A8179917001988F
:2028B0004FE010F0B3FB10F0070F55D0A87806F0A7FA04462078D4F804A0012804D00228C0
:2028D00017D0042826D047E02B490A68107A1BF80010317011F086F83918DAF8080011F0D9
:2028F0007DF820B911F07EF84844CAF80800012025E00520307011F075F83918DAF8080029
:2029100011F06CF820B911F06DF84844CAF80800022014E00620307011F064F83918DAF851
:20293000080011F05BF820B911F05CF84844CAF8080012480168887C0AF068FA0420A87048
:20295000204605B0BDE8F04F08F0C2BA05B0BDE8F04F00200FF0A4BE05B0BDE8F08F00BF42
:20297000102A0020FC4A0100289A0110F0D8FFFF6F4F0020684E0020104F0020184F002053
:20299000734F00202DE9F843DFF84804DFF8485401781D24082984B000F21282DFE811F0F1
:2029B00016020900090009000900B200590116021602DFF82864DFF828843068036803F1B2
:2029D0000807062207F1080102A810F02BF80622B91C684610F026F83878C10900F00F029E
:2029F000032AC0F38019DFF8FC7339D17079C0F38000814240F0DF813169062202A80FF024
:202A1000CDFC002804D06946484610F0E3FF002800F0D1812946684610F0D8FF0146FF29F5
:202A30006FD03868807A4C43002818BF02280BD0012818BF032864D1681C2A5D011940460F
:202A500010F0C0FF10285CD0E81D07196B463A462919404610F0B2FF062269463846A8E196
:202A700000F00F00052862D17079C0F38000814247D13169062202A80FF090FC002840D0C1
:202A90006946484610F0A6FF00283AD02946684610F09CFF0146FF2933D03868807A4C43BF
:202AB000002818BF01280BD0022818BF032828D1681C2A5D0119404610F084FF102820D088
:202AD00040F202400DF0EEFDE81D07196B463A462919404610F072FF0622694638460FF0A7
:202AF000A1FFC148C14A41F20441418041834186BF480180BF49C04811600121007808F0B3
:202B100029F958E1BD4E3068016801F1080999F8000010F00F0F1CBF00F00F01062908D0AA
:202B300000F00F02022A1CBF00F00F00012840F04D81062209F1020168460FF073FF99F882
:202B50000000AF4FC0F3801800F00F0001283DD1062209F1080102A80FF064FF99F800001E
:202B70004FEAD01902A9484610F034FFD0B13868807C022818BF03285ED105F10D0102A891
:202B90000EF0A6FC002857D039680120C8720622707940F00400707102A938680C300FF08E
:202BB00041FF13E02878814510D10622691C02A80FF0F4FB50B12878717960F38201717103
:202BD00006223868691C0C300FF02CFF6946404610F000FF00282FD070696946001F10F030
:202BF000E9FE002828D12946684610F0EFFE01463868807CFF2920D04C43002818BF022800
:202C10000CD0012818BF032816D1681C73692A5D0119181F10F0D6FE10280DD02919E81D4E
:202C3000071974696B463A46201F10F0C7FE0622694638460FF0F6FEC8E0002818BF022839
:202C5000FAD17069012342466946001F10F0AEFEBCE06C4E3068016801F1080999F80000AF
:202C700010F00F0F1CBF00F00F00012824D1062209F1020168460FF0D5FE99F80000DFF821
:202C90008881C0F3801700F00F00012848D1062209F1080102A80FF0C5FE99F800004FEA2F
:202CB000D01902A9484610F095FE20B3D8F80000C07A022818BF03287DD105F10D0010F0F5
:202CD00071FE002877D105F10D0102A80EF000FC002870D0D8F80000062202A90C300FF017
:202CF000A1FE707940F004007071062202A9E81D0FF098FE14E02878814511D10622691CD1
:202D100002A80FF04BFB58B12878717960F3820171710622D8F80000691C0C300FF082FE31
:202D30006946384610F056FE002844D02946684610F04CFEFF283ED0D8F800104443887AC1
:202D50002F1920BB887C0FF073FF804698F82601022818BF032800D068BB295D00F00100B8
:202D7000814228D108F5907406222146781C0FF015FB00B3012088F826010622717941F096
:202D900008017171204669460FF04CFE0EE030692A5D791C001F10F015FE10280BD0306959
:202DB0006B46FA1D3946001F10F008FE06226946F81D0FF037FE31680A680020107105E0E6
:202DD00000200FF06DFC862010F0E8FD05B0BDE8F08300BF6F4F0020AC450020F44B0020F6
:202DF000CC470020104F0020204A0020204F0020504F0020595501106E4F0020D04B002062
:202E1000144F0020AC4B0020184F00202DE9F84FDFF8BC13DFF8BC23DFF8BC530870082141
:202E3000002010600D23DFF8B4034FF44D72017043808280DFF8A8030560AC7EDFF8A4036D
:202E50000470FF2CE97E417008BFFF292A7F82706B7FC370AE7F0671ED7F457115D1FF2A2F
:202E700008BFFF2B11D1FF2E08BFFF2D0DD1DFF878130A7802704B7843708A788270CB786E
:202E9000C3700A79027149794171DFF860130278DFF85C83DFF85C93DFF85C730A70FF2501
:202EB00043784B7082788A70C378CB7002790A714079487188F8005088F8015088F8025047
:202ED00088F8035088F8045088F805500020CB490880D9F83440CA49607808702278C94956
:202EF0003A70A0780870A2681079C74A411E1170E078C649C64A0870E068106008B90FF09D
:202F1000CFFB2069C34E306008B90FF0C9FB3068DFF804A301688847326852F8041F50463E
:202F30008847BE48BE49CAF82000CAF824106069BC49086008B90FF0B3FBA069BA490860B5
:202F500008B90FF0ADFBE069B849086008B90FF0A7FBDFF8DCB2B74C9BF804000FF078FF70
:202F70000028206075D09BF80500B34E0FF070FF002830606DD09BF80600DFF8C0A20FF087
:202F900067FF0028CAF8000063D09BF807000FF05FFFAB49002808605BD039789BF80000B4
:202FB000C91C484380B20FF053FFA649002888604FD03878002862D0BBF80210484380B264
:202FD0000FF046FFA04A0028506042D038780FF03FFF9E49002808603BD0387840000FF06B
:202FF00037FF9B490028086033D03878182148430FF02EFF974A106058B3387840010FF028
:2030100027FF9549086020B3387800010FF020FF92490860E8B1387800010FF019FF904915
:203030000860B0B13878302148430FF011FF8D4A106070B18C483978007848430FF008FF26
:203050008A4A106028B138780FF002FF8849086018B9BDE8F14F06F085BD4FF0000B09E039
:203070000FF0B6FE0021418081600180022303710BF1010B39785FFA8BF08842F0D322680C
:20309000694F0120107121680D732068457321688D732068C57321680D74002120684574C8
:2030B00000202268D172A0222168487103212068C28001720720226850720021206881729F
:2030D0002821206801224182C2760020216848770022206880F85E20012122681177012094
:2030F000216881F85D0001223068027131680D733068457331688D733068C57331680D7447
:2031100000213068457400203268D172002231684871306882724FF420703168C8800881F3
:203130008A7401213368D974DAF800201573DAF800104D73DAF800209573DAF80010CD733F
:20315000DAF8002015740022DAF800104D740121DAF80030DA720023DAF800201171DAF846
:2031700000104B71DAF80010C88008818B720520DAF800209374DAF800103E4AC874106887
:2031900080473968054608688047396851F8042F00209047D9F80C101C4B0A88187836492C
:2031B00002430A802846354A136898470C21344810F0F0FB404610F0E9FB10F0E3FBBDE868
:2031D000F44F034800784FF4005107F0C3BD00BF6E4F0020044F0020B63F0050604E0020AC
:2031F000084F00202C4E0020E81200503C4E0020344E0020FC4A01007B4F00200C4F00206C
:203210006D4F00206B4F0020724F00206C4F0020F04E0020F44E00207C4B0020612E0100F5
:20323000812E0100F84E0020FC4E0020DC280020DC1F0020104F0020144F0020184F002036
:203250001C4F0020102A0020684E0020004F0020502A0020804E0020844E0020884E0020C4
:203270008C4E0020904E0020FE1F0020542A0020582A002034180020544F0020381800202A
:20329000F84D00202DE9F84F0D46E80788B00CD50FF0AEFD30B100218160DFF8E80300684A
:2032B00000B1804785F00100E9E128074FF01D0BDFF8D46375D5DFF8D4130A68907C0FF01D
:2032D000B7FC044604F5907094F8267107904FF00008DFF8B80301688A7CC146FF2A04BFF3
:2032F00000200FF0DDF9079A3946304610F046FB07998246384610F06DFB0BFB0AFBC0B128
:20331000BAF1FF0F26D016F80B7006EB0B0047F00207411C079107F00100F21D84F826018A
:2033300002EB0B080799062204F590700FF07AFB10E00799384610F01DFB002818BFBAF178
:20335000FF0F07D006F10D00584410F02BFB08B947F00207CD480168C87A022818BF0328C5
:2033700006D106F10D0010F01DFB08B906F10709002006903B46E18E090905910022A08EE4
:203390000490618E0798CDF8088049080391CDF8049000900020A17910F0E8FA85F0080047
:2033B0006DE1E8060FD50021002200230691059204910393029101920091022010F0D6FA75
:2033D00085F010005BE1A8070FD500210023069105910491039302910191009101223C20B8
:2033F00010F0C4FA85F0020049E16807A84F40F18A80A848817800240794FF2904BF00200A
:203410000FF04EF9386890F8A0000FF011FC80463868C07A98F82691022818BF032808F572
:20343000907A06D106F10D0010F0BCFA08B9F01D07905146484610F0CDFA90B33868807AB3
:20345000002818BF012804D13146504610F0BEFA04E052464946304610F090FAFF2836D062
:203470000BFB00FBF01D00EB0B040622514620460FF0D8FA16F80B00396840F0020906EB58
:203490000B0000F1010A887E00F0010088F826010622386800F1140108F590700FF0C2FAF1
:2034B00015E05146484610F065FA80B152464946304610F063FAFF2809D006F10D010BFB4D
:2034D00000F2881810F06EFA08B949F0020908F12C004B4601780691428912090592012277
:2034F000B8F822100491C08807990191400803900294CDF800A0002098F8061010F036FAFF
:2035100085F00400BBE028060FD500210023069105910491039302910191009101223B20A5
:2035300010F024FA85F08000A9E0E8044CD5F11D06F10D0010F016FA3868017A012918BF94
:20355000042932D1C17A02291EBF0329817E01292BD1817E00F11402304610F00FFAFF28EB
:2035700012D00BFB00F0341804F10D0010F01AFA50B9E11D04F10D0010F0F4F93868062243
:20359000E11D14300FF04EFA3868C07A022818BF03280AD106F10D0010F004FA28B938682E
:2035B0000622F11D0C300FF03DFA3B4842683B4800784FF480510CF0D7FD10B18E20FDF7E4
:2035D000D7FC85F480505AE0A80505D50FF0D6FC334901200860FEE7680504D508F04FF9BD
:2035F00085F480604BE0680405D58120FDF7C0FC85F4804043E0A90440D52A4C206810B1C3
:2036100000200FF04DF8284E4FF0FF30206010F0A5F93168254C51F8202F684690472449A0
:20363000244B486A8A6A009001920293C86A0268086A0392ADF810000A6B1178002904BF6B
:203650005068002805D19068002804BFD068002806D02170506860609168A160D068E06010
:2036700021463468144A266814486B46B0471449086003F089FF85F4005000E0002009B085
:20369000BDE8F08F204F0020AC450020184F0020104F0020684E0020784E00206E4F0020B7
:2036B000FC002043044F0020F04E002068450020041D0020F12D01002C4D0020E0280020DC
:2036D000EC4E0020FEB5DFF84803DFF848430578DFF84403DFF84473DFF84423DFF84413B4
:2036F0000D2D41F2064641F202434CD8DFE815F08E010E000E000E000E0068009C00DF00EF
:203710000C0145014501630163016A01206041F20446DFF814034188B1421FBF478BB7427D
:20373000478EB74203D11680DFF80003B6E00029DFF8FC6211804FF4A0573AD0491E3DD02A
:20375000491E36D040F2FE3CB1EB0C011CD0091F01291FD94FF47F7CB1EB0C011CD04FF48B
:20377000406CB1EB0C010FD0891E01290CD9091F0AD0491E01290DD940F2F932891A0129AC
:2037900017D9091F08D039E1022D14BF1780A94E2660EAE0A84EFBE7A8490A68157A012D37
:2037B00003D1438043834386F2E7478047834786EEE700200EF074FF832023E18F2021E1DE
:2037D0009F4D698811800029206050D0491E67D0491E4CD040F20240091A23D0491E46D07A
:2037F00040F2FB30091A17D04FF44060091A3ED0491E17D0491E012932D9091F12D0491EE3
:2038100035D0491E0ED04FF47E70091A2FD0491E08D0C91E06D045E06E80012009F048F991
:203830002530A873874839E087494B881380002B20601CD05B1E33D05B1E18D040F2024002
:203850001B1A2AD05B1E12D040F2FB301B1A1DD04FF440601B1A0AD05B1E1ED05B1E012B51
:2038700040F27D809B1E0ED09B1E16D05B1E76D05B1E12D04FF47E701B1A70D05B1E0CD0BE
:20389000DB1E0AD00EE0714921606EE0887B4E8025280CBF2720401E88736D48206064E0CC
:2038B0008F2060E000200EF0FBFE84205BE0B978FF2939D020601820664B41431868851CA3
:2038D00040F204466B5A13809B1B012B624A71D94FF47F769B1B0FD04FF440669B1B032B92
:2038F00084BF5B1F012B0BD99B1E012B62D940F2FD369B1B33D103E0801C41F20143435221
:20391000226006F0F3FB30E0B978FF2952D020601820504D41432868861C40F20447755A4F
:203930001580ED1B012D4D4A70D94FF47F77ED1B11D04FF44067ED1B0FD0AD1E012D84BF9D
:20395000ED1E012D09D9AD1E012D5FD940F2FD37ED1B04D101E0801C4352226005E000202F
:203970000EF09EFE852010F019F803B0BDE8F0403B480078012107F0EDB94888108040F213
:20399000044290421CBF41F2084290423ED041F60402904211D1334C3348344B00680025D0
:2039B000CDE900450222324C256855F8086FB04730490880F7BD4888108000200EF070FE71
:2039D00085201FE04888108002280DD940F20442801A1BD040F6FC72801A05D0083815D08E
:2039F0004FF47F72801AE8D1887B801CC2B2B52AA8BF6620887300204880F7BD00200EF09C
:203A10004FFE8420BDE8FE400FF0C8BFF7BD00BF6F4F0020204F002083310100684E0020D1
:203A3000504F0020CC4C0020204A002059550110615A0110B1540110755B0110104F0020F4
:203A50009C4C002035CF00006C4C0020153E000051CB0000804E0020313901101D65000018
:203A70006E4F002002000080EC4E0020F90F0100F04E0020424F00202DE9F84FD74CA178CC
:203A9000FF2904BF00200EF00BFEA0780FF0D0F8044604F1680504F190062968086810B12C
:203AB0000021E1830CE0A87B002804BFA97E002906D13078002801BF207F0128608CE083A9
:203AD0002189E08B4118491C618120460FF042FF01281EBFC2480178012904D12189002029
:203AF000491CE08361814FF6FF77A87E01280DD1AA8B618920890FF029FF38B121896089B9
:203B10004A1C93B298421BD0A88B0FE03078012816D17288618920890FF018FF80B12189CD
:203B300060894A1C93B298420AD0708892B2904206D03818608180B20FF004FF3F18E78323
:203B500004F5967999F8040020B120890021401CE183608104F12E07A87E01283ED1228949
:203B7000A88B521C92B2904238D1608104F1860120460FF0E3FEA88C608400212177E1839D
:203B9000E08961894118A181A88B21890FF0DAFE8046B988288C6A8C01FB0808E88C8A4296
:203BB00004BF3989884202BFAB8CF9888B4207D000090090AB8CA179520800200FF046FFE1
:203BD000A87F3870698CB980A88CF8802046E98C39810FF0AFFE0220A87601E0B7F8048097
:203BF000B4F81EC022687F4ED2F80CE00CF1010000FB08F340F6C41000FB03F18E44C2F8A5
:203C10000CE03668DFF8E0E13678BEF80080774AB609032E11D1D67BF60748BF4FF000085F
:203C30000BD408F101081FFA88F6012E12BF668AB9F8066006F2DC5600E0668A5E434FF417
:203C5000C87AB6FBFAF6761C6661AEF80080A3614FF0180894F806A084F820C008FB0AFAFA
:203C7000DFF88CC1DCF800E023680EF1080656F80AB0C3F810B094F806A008FB0AFACDF843
:203C900000A0D3F80CB0D4F814A0ABEB0A0ADDF800B046F80BA094F806A008FB0AFA56F8CE
:203CB0000A609E600EF10C06A37908FB03F30EF10C0EF65C06F0F00646F002060EF8036068
:203CD0004FF0000ADCF800E0A6790EF1020308FB06F623F806A0474BA6791B68760103F155
:203CF000140AD4F814B05AF806A00AEB4B0A03F1140B4BF806A0AD7E022D0BD1A5796D0106
:203D100003F1140697F800B056F805A000FB0BAA46F805A0BD88D27BA779D60737D508FB22
:203D300007F70EF10802D659A6F5A86A0EF1080646F807A0A77908FB07F7D2592768511A58
:203D50003961BA6003F11402A1794901575807F5F667575003F11401A27952018958C9F869
:203D700000106843244A156BA779296803F11C067F01401AA0F51670F0512049A07903EB1D
:203D900040100B78012B14D10121C17214E003F114027F01D1592A464243A1F5E661A2F5C9
:203DB00016729142DDD3082120460FF04BFE012011E0916A4A78C272A179DCF8000008FB1D
:203DD00001F281182268516007200D490870204609F08AFD0020BDE8F28F00BF684E002056
:203DF000784F0020084F0020782A00205C4D0020804E0020844E0020FC4A0100734F0020C1
:203E10006F4F00202DE9F84FC24DDFF80C832968DFF808A3887C0EF00BFF044628680021C8
:203E3000417104F12E062868BD4D0CF015F90120607104F5937998F80100401C88F801008E
:203E50001827802009F0DCFB20606969C160B548018949007180C079B188400030704900D4
:203E70003089B18000013081314620460FF066FD0520A08120460FF05DFD28680FF056FD70
:203E9000062210F8081FC1F3801189F80010811C04F590700EF0C6FD2968A34D0A6800207B
:203EB000107141F60202A1792868794342520021A3797B430344001D5980A2797A4381505B
:203ED000012120460FF02EFDA27929687A430A449073A1792868794301440020C873A17946
:203EF0002A6879431144887BF072DAF80020A079296802EB40137843084414310361A07905
:203F10008A4A78430A50A0790FF008FDA179DAF8002049015050A1794B01D05820B9072106
:203F300020460FF08FFDF0E0DFF804B2DBF8000000EB01100FF0EEFCA179DBF80020DAF88C
:203F50000000DFF8F0B102EB0113021D4901535004F16801A3795B01D2580A60A3795B01EA
:203F7000C2588A60DBF81410097894F806E0CA074CBF102200228B074CBF202300235FEAC7
:203F9000417C4CBF4FF0400C4FF0000C09074CBF802100211A434CEA020200EB4E100A4369
:203FB00042F00F020272DAF80010A07901EB40120B215172DAF80000A27900EB42110420C3
:203FD0008872DAF80020A17902EB41105A4A1378012B02D10121C17203E0DBF828100A789A
:203FF000C272DAF80000A279636A00F10C0152018B50A17900EB4110A16A0174DAF80000EF
:20401000A27900EB4211A06A000A4874DAF80010A07901EB4012A06A000C90740821474A5A
:20403000107806F097FE2168A2792868CB687A4302449360CA68CB680A618B6000F10C0246
:20405000A17979430C30535C03F0EF034354A0792968784301F10C020C31135C03F07F038D
:204070000B54A0792968784301F10C020C31135C03F0F00343F002030B54A27928687A43DB
:204090001044417B01F0F00141F001014173A079B688DAF800204FEA401C40F6C4104643C6
:2040B000DBF83000016802F11403761AA6F5167643F80C60A07902EB4010C17C01F0F001A7
:2040D00041F00401C174A179286822684F43C1195160B9F83A001B2804BFB9F83C001B28F3
:2040F00009D1B9F83E00B0F5A47F04BFB4F86601B0F5A47F03D014212046FCF715FF1049B3
:2041100008200870A27988F80220BDE8F14FFEF7EDB900BF184F0020684E0020844E0020A4
:20413000AC4B0020844C0020804E00205C4D00208C4E0020FC4A0100734F00206E4F0020B1
:204150006F4F00202DE9F04F09AFADF13C0D08900A92388809911E46ADF81800101C08BFDB
:20417000002000F07581017800274FF0010B401C4FF0FF39B846DA460A9061E1252940F0F3
:2041900056810178401C0A902D2918BFADF8068004D10178ADF806B0401C0A9030291CBF9E
:2041B0004246434604D10178401C5A465B460A902A29CDF800804D4617D1049330680A9B72
:2041D000CDF80890C01C20F00300001D306050F8044C1978002C009403F101000A9018D571
:2041F000ADF806A06442009413E044460AE0600000EBC4004018A0F130040A9801780094E8
:20421000401C0A90302901DB3A29F0DBCDF8089004932E2929D10178401C2A290A9011D14C
:204230003168CDF80880C91C21F00301091D316051F8045C002D48BF454601782B46401C29
:204250000A9011E0454643460AE0680000EBC5004018A0F130050A9801782B46401C0A900D
:20427000302901DB3A29F0DB02930AB1224604926C2904D04C2918BFADF8048004D1017851
:20429000ADF804A0401C0A900BA8CDF80C800FAB07906429059300F0828069297FD0BDF8CD
:2042B00018C075296DD0782969D06F2965D070294ED063293ED0732922D00A98401E0A901B
:2042D000099801281AD966490C68B5F1FF3F03D0A84288BF6D1C05D86FF00041814294BFEA
:2042F0000D1C099D029508A80AA932466B46A04709993F18091A0398099165E0454617E0BD
:204310003068C01C20F00300001D306050F8040CBCF1010F014608B94FA0014607910EF070
:20433000C3FC0390B5F1FF3F4FD0A8424DD9039528464AE03068C01C20F00300001D3060A4
:2043500010F8040C8DF82C005D46039558463CE0082035680490E81C20F00300001D306072
:2043700050F8041C082210230FA809F01BFE401E079040210170079823E0082302E01023F6
:2043900000E00A233068C01C20F00300001D306050F8041CAA42BCBF2A1C04920DE030689C
:2043B000C01C20F00300001D306050F8041CAA42BCBF2A1C04926FF009030FA809F0F2FD9C
:2043D00007900599081A0390009C241ABDF8065000945DB906E008A8202109AA0DF0C6FB0C
:2043F0007F1C009C641E0094F5D50398401EB0F1FF3F03900FD1BDF8060001281CD10098E2
:20441000401E009018D408A8202109AA0DF0AEFB00987F1CF4E70798017809AA08A80DF0E2
:20443000A5FB0798401C079003987F1CDEE708A809AA0DF09BFB7F1C0A980178401C0A909D
:2044500000297FF49BAE089808B14146017038460FB0BDE8F08FC046286E756C6C2900C0E3
:20447000D04A0100BB482DE9F84F0025BA4CB849056094F8E200002800F06581012800F09B
:204490002F81B64E02283CD0032840F05C8151F8250CD4F8B8100029A0F5C060C4F8D4006E
:2044B000B8BF49420028B8BF4042814226DA4FF08057D7F8A4014568B4F8BC0030214FF4D3
:2044D0007F42082300903046A847D7F8A4014568B4F8C00004214FF4F802122300903046C1
:2044F000A847D7F8A401B4F8D070456820214FF440620A2330460097A847012584F8D85097
:204510001CE151F8258C0EF039FD2F4600B901273946934F38680028FCD0B146012609F1FD
:204530000409D9F82CA03E6009B10EF02DFDCAF30720C4F8BC000EF021FDAA4600B9B24628
:204550003B68002BFCD0D9F800B0BAF1000F3E6001D00EF019FDCBF38440C4F8C0000EF0F7
:204570000DFDAA4600B9B2463B68002BFCD0D9F81C90BAF1000F3E6001D00EF005FDC9F384
:204590008120C4F8D000B8F5C061C4F8B81000F09C8094F8D80068B9C4F8D410D4F8C000CF
:2045B000C4F8C800D4F8BC70C4F8C470D4F8D030C4F8CC30D4F8D400D4F8BC30002854BF68
:2045D00002226FF0010204F1C8010F6800EB40008018421000EB927207EBA2000860D4F844
:2045F000C810C4F8C43000291CDD1E293CDDD4F8CC0030B93429B4BF15391E21C4F8C8102F
:2046100025E02A29BABFD4F8C8000B381E20C4F8C800D4F8C4003F28B4BF401C3F20C4F83F
:20463000C4001FE0D4F8CC00032812D011F10B0FC6BFD4F8C8000B30301CC4F8C800D4F8F6
:20465000C4000028C4BF401E051CC4F8C450032508E011F1150FC6BFD4F8C8001530301CAC
:20467000C4F8C800C4F8CC504FF08057D7F8A401B4F8C43030214FF47F4245683748009390
:204690000823A847D7F8A40104214FF400321123456832480096A847B4F8C860D7F8A401BA
:2046B00004214FF4F802122345682C480096A847D7F8A40120214FF440620A23B4F8CC600E
:2046D000456826480096A84701E084F8D85040F2FF50404502D8801C40452FD2082030E06B
:2046F00051F8251C1F4F4BF2F5204843060A3868C0F3814001280CD11B48006800688047B1
:204710000BF094FF0EF046FC3111C010484306EBE03694F8E50030B91448006820F07F402A
:204730003618760801E084F8E5501148310C0660012741600F4D8760287808B90B2000E097
:20475000052084F8E40003F08BF9BDE8F88FC0462D400C402C500C401817002000A00C405F
:2047700000800C40B43F0050EC010010102009403C600C40714901002DE9F84FDFF8CCB24F
:204790000F460546F80B80F01281AA4EDFF89C82B80F80F0C480B80880F0B8803809C0F0A2
:2047B0003981A0480178090980F0AB80007830F07F0040F0A680684607F02CFC012803D1EA
:2047D0000098002800F09D8097480078002840F0988001240025E8B20EF016FA48B1837A4D
:2047F0003BB1847290F9090004FA00F0C0B20CF0A7F96D1C032DEED345464FF0030A05F1F2
:20481000AC0085F810A00EF0CAFCDFF83092002309F11401984608680B6051F8080C41F8D1
:20483000088C83491A4605F134000EF0C4FC3068006B8047AA68A969801A000BC0F1FF324B
:204850008A422CBF01444FF0FF31A961287F20B1E868A969B1EBC02F25D90DF00FFD4146E0
:2048700000B12146E1B1744840F60901018043464380417B04F00F0221F00F010A434273D1
:20489000017B03F00F0621F00F0146EA0102027343604E46F3613060418811F4406FFBD058
:2048B0002C774346AB616649086820F0020040F400700860634A42F804AC41F2300696607D
:2048D00014605023936014604FF4CA6696601460022042F80C4C44460C600CF01DFB1120AE
:2048F00006F098FA287818B9686838300EF06FFC687F18B16C7705200CF00EFB52486861EE
:204910002C740AF0C9F827F0080783E005F01AFA40467430006808B927F002077AE00EF0CF
:2049300044FC34468146606D0068014604208847C8B1287CB8B14046083006689EB12068EE
:20495000EC68006B8047801BE860010BE960A14202D209194908E96040F6C41088422CBF57
:20497000B1F5FA7FE86048460EF0D0FF0CF0CCF890B1A8696FF4807100224FF000730446E1
:204990002846A04740466C300068002808BF47F0020701D00AF080F8686900214FF08063A2
:2049B00004460A462846A04727F0005732E00EF0FCFB59460E684EB306F1280106C90A2351
:2049D0004FF0E0450B40154008BF002B1ED106F1280191E8300006F1280393E8060006F17F
:2049F0002803AA43A14383E806000EF08FFFB16871B1002D08BF002C0AD03069B6F93C10E5
:204A1000B2682B4616462246B04701E00EF07EFF27F4804727B15846394650300EF0DFFBB5
:204A3000BDE8F88F7A2A002061220020C82000205DE800008C010010CC2900200010044080
:204A5000000004600C41044051AA0000482100202DE9F04F8246DAF80070DAF804600C46E6
:204A70005FEA0208ADF11C0D14BF00214FF0FF31DFF8409248460EF048F9002818BF0B2009
:204A900040F0158100258F488C4905708A48FC6052460EF090FB317B27200EF08EFBB8F188
:204AB000010F07D0657002200CF0B2FC06200CF0AFFC01E0012060702078012840F2AA80A2
:204AD000801E012868D9801E012833D9801E012800F2DE800EF069FB83464FF0805000F5A5
:204AF000EE77D0F8DC01A378466A009321782846062908BF0120019001200290A068228A28
:204B1000E1686368B047814658460EF0FFFEB9F1000F40F0BF80B8F1000F02D00DF03AFF32
:204B300002E050460CF0E2FA002800F0A3803868806A2AE00EF039FB83464FF0805000F547
:204B5000EE77D0F8DC01012306680093A168A27860682478AC46042C08BF9C466346B04724
:204B7000814658460EF0D2FEB9F1000F40F09280B8F1000F02D00DF00DFF02E050460CF0F0
:204B9000B5FA002876D03868406880474C49C1F8B0510D6081467DE00EF007FB83464FF0F1
:204BB000805000F5EE77D0F8DC01E38A86690093E0680190208B0290A0780390207D049035
:204BD0000121059122782846022A08BF081CE1786268A368B047814658460EF097FEB9F127
:204BF000000F57D1B8F1000F02D00DF0D3FE02E050460CF07BFA00283CD03868006A804728
:204C10005FEA000946D1E078A168E28A236908F06FFBBFE70EF0C9FA83464FF0805000F52C
:204C3000EE76D0F8DC01E38AC7680093E0680190208B0290A0780390207D294604900120AA
:204C50000590257805B9014608466268A368E178B847814658460EF059FEB9F1000F19D135
:204C7000B8F1000F02D00DF095FE02E050460CF03DFA08B914201AE03068406980475FEA1F
:204C9000000907D1306802692169E078904781E74FF0FF39B8F1010F05D002200CF03CF9A7
:204CB00006200CF039F903480EF091FA484607B0BDE8F08F5C1A0020941A0020551C01007D
:204CD00050450240802A00202DE9F0410446A078ADF1180D801F00F02281C01E00F008812E
:204CF000DFF84882401E00F08880914E401E6FD0401E00F00F81801E3DD0401E40F0128187
:204D10004546287A697AB8B96878002831D0A0880EF0F8FD071C00F00581A07A40080FD301
:204D3000787968B1E168890A0AD2B91D01AA06F09DFA0A2804D10321A0880EF0DFFDF1E095
:204D5000287B022802D1A07A0009F4D3A088797904F1080202F0BAFDA869002800F0E2806C
:204D70004368002B00F0DE8000210A46A0889847D8E00521E0E7607806281ED1A0880EF0C7
:204D9000C1FD071C19D045460E352878401E0FD0401E07D0401E10D1002140F209400A462E
:204DB00000F0C8F8A188387805220EF0A3FD04E0A0887979002202F089FD3068002800F04D
:204DD000B1804368002B00F0AD8062780221CDE70EF016F8002800F0A580306850B107689D
:204DF00047B1206900906189227B637BE01C3C46A04797E0608901219FE76078002600289A
:204E100067D1A079400864D308F11C00006800285FD101A831460E220EF0F7F9A0880EF079
:204E300071FD071C7ED0606940B97879B91D06228DF80A0001A80DF0F5FD19E06569287C40
:204E5000062205F111018DF80A0001A80DF0EAFD07F10C00B91D06220DF0E4FDB81D062219
:204E700005F111010DF0DEFD287C40F002007871A079C00839BF387900F0FD00387940F02B
:204E900002003871A079000939BF387900F0DF00387940F020003871A1799DF81120C1F37F
:204EB000800010438DF81100080905D39DF8110040F008008DF8110001A8214601F012FF0A
:204ED00030B940460078022105F044FF30462AE015264546A86928B343681BB3A0886278D3
:204EF00001219847F6B1A8694368032132463DE7E078211D002206F0B9F90A2812DA4100BF
:204F100001EB800004F10C0225300421C0B204F09DF807E0A088217B06F04CFE02E0A088A8
:204F30000AF088FC012006B0BDE8F0816C130020841300207CB5954D144602460026A2F52E
:204F50008062182A1AD8DFE812F015010E010601FD00F500EF00E700E1001900D500CD00D2
:204F7000C500BB00AF001900A700850073006C0057004E0043003A002D0024002D2880F294
:204F90008980022940F0868021880BF033FA0646F9E0012940F0F680002C00F0F3802A46D2
:204FB0001232B7E0102940F0ED80002C00F0EA8028465030102221460DF034FDE3E0012908
:204FD00040F0E080002C00F0DD802A46921DA1E0262940F0D780002C00F0D4802A4602F16F
:204FF00060002622E7E7012940F0CC80002C00F0C9802A46521D8DE0602900D144B9012953
:2050100040F0C080002C00F0BD802A460D3281E005F18600214660220DF004FD0120687348
:20503000B1E0012940F0AE8020780EF05FFCAAE0012940F0A7802078022800F3A3802A4603
:205050000C3210702078022814BF301C01200EF049FC98E0072940F09580611C68460622FD
:205070000DF048FB20786946324606F0FFF804460A2C0FDA0EF032FC38B9204603F054FF02
:205090000CF0E4FE0AF00AFA7DE02A4601202C32105578E0022676E0012973D12178042969
:2050B00070DA2A460E3254E001296BD12A462178D07B0028D17366D12078012863D1E1E798
:2050D00001295FD1217807295CDB10295ADC2A460B323EE0012955D121780A2952DA2A4674
:2050F000093236E001294DD1217802294ADA2A4608322EE0002945D10EF0F0FB10B90DF079
:2051100025FDBDE72A460121103222E0012939D12A460A3221781CE0012933D1217802297C
:2051300030DA2A46D21D14E010292BD12A4602F140003FE7012925D12178022922DA2A46B4
:20515000121D06E001291DD1217804291ADC2A46D21C117017E0012914D12178022911DAC2
:205170002A46921CF5E702290CD120882A461432108008E0012905D121780229DCBF2A1CA2
:20519000521CE6DD182630467CBDC0466C1300202DE9FE4F8A4C617811B900200DF080FAC9
:2051B0000EF020FC06464FF0000806F6C4160027844DDFF8149211E038460DF039FD41798B
:2051D00051B12A68817902F8081008F101015FFA81F831460EF07EFB7F1CFFB299F8000087
:2051F0008742E9DB6178884505D000200DF058FA82200EF0D3FB6078012840F0C38000271F
:2052100001E07F1CFFB299F80000874280F2B48038460DF00DFD064670790028F1D029681D
:20523000B0790A7890421CBF00200DF039FAB079A0E0286810F809000DF0FAFC0068426867
:20525000DAF808109068814204BF3E4609F1010900F0A680A8E0286890F800B001224FF482
:20527000C0710FE0636803F5AD76835C01FB03F901FB0BFE36F809C036F80E60B44538BFB9
:205290009B46521CFBB29A42ECDB4FF6FF700EF01DFB064658460DF0CBFC4C490068D0F822
:2052B00004A00868D94630F8192060684FF4C07300F10E0103FB09F3C85AB2EBD00F52D250
:2052D000720840F6C410424300920027404A0190029217E058460DF0ABFC01680A78802A7F
:2052F00003D1DAF81030009A5A610978402908D1029980790A6802EB4011009800F5A060CF
:20531000C8617F1C47452EDA2868C05D8345F8D001464FF4C073594363685A1803F5AD733A
:20533000D289595A53088B4202D2521A9045E8DA0DF07EFC01684A68019B9168DAF808202F
:205350007008A1F6C41103FB00200EF047FB0028C0D01E48006830F81910491C20F819107E
:20537000286810F807B01948026800215B4622F813105846BDE8FE8F00200DF091F98220EB
:205390000EF00CFB617828680EF09CFA286800780DF04EFC00260068D0F804A04FF0010969
:2053B000771CC145FFF645AFF6B2002E1CBFF8B200287FF450AF286890F800B065E700BF93
:2053D000684E0020004F00207B4F0020502A0020844E002010B50B7884074CBF43F00203EC
:2053F00003F0FD0304064CBF43F0800303F07F0304074CBF43F0080303F0F70384064CBF94
:2054100043F0200303F0DF0310F0AA0F0B7003D0107840F00C0003E018B9107800F0F30067
:20543000107010BD2DE9F8430D4600272878022814461E4669D1696808784978DDF82080FB
:2054500000EB012080B25FEA08021CBFB0F5285F0B205DD14FF42851401A0AD0401E23D00A
:20547000401E4CD0401E27D0401E2DD0A23846D04BE0DDF82490E8680DF0C9FE80B2A0EB7D
:2054900008024A45BCBFA0EB08001FFA80F909EB0800162806DAA6F800904A46E86800EBB0
:2054B00008010DE00D2732E0E8680088022131802070000A60702AE0062030800622E96831
:2054D00020460DF0AFFA22E0E868B0B1082131800288227003881B0A63704188A1704288E0
:2054F000120AE270818821718288120A6271C188A171C088000AE07109E0308007E00121FA
:205510003180E8680278227001E0378001273846BDE8F2832DE9F0470F46814638780024D9
:20553000022890461D4671D17868089E01784078DFF8E0A001EB002189B24FF42852891A00
:2055500008D0491E2BD0491E50D0491E3BD0A3395AD05BE0F8680DF05AFE80B2B04204D317
:20557000A919162903DB0D2451E007244FE0FB682A46414698190DF055FAAD19F868ADB2A4
:20559000C5F11602002140190DF03FFEDAF8000000281CBF0268002A39D0002123E08EBB9A
:2055B000022DE0D198F8000098F80110FA6800EB01201080DAF8000000281CBF0268002A63
:2055D00025D001210FE0EEB9062DCCD1F868062241460DF027FADAF8000000281CBF0268D2
:2055F000002A14D003214846904710E056B9012DB9D198F80000002813BF0128F9680870C1
:20561000802404E00B2402E0032400E001242046BDE8F087682A00202DE9F04385B011F8FA
:20563000017B0446082F04F1FD0004F1FC0804F1760504F5A076844A844BDFF8149213D0F6
:20565000092F21D00F2F2FD0112F01BF287801286878102840F0D5800A783276487870769E
:20567000012184F83D11EBE00025521C4E5D5F5D3E434E55575D3E4046556D1C082DF5DBEA
:20569000204608F069FD74E00024571C0D5D1E5D35430D553A5D15400555641C082CF5DBC2
:2056B000022088F80000CBE098F80100820704D410F0110F57D01A2266E008784A7800EBA5
:2056D00002203080CA78887800EB022070804A79087900EB0220B080CA79887900EB0220D7
:2056F000F080087A30724A7A887A02EB00227281C87A0A7B00EB0220B0818A7B487B00EB86
:205710000220F0810A7CC87B00EB022030828A7C487C00EB022070820A7DC87C00EB0220BD
:20573000B082487D897D00EB0120F082494801788A0658BF1A2212D504F5A670049071896D
:205750000391307A029021890191F0880090B38872883188204608F063FAE0B11E2298F81B
:205770000100410710D40F2088F815002046FBF7FBFB002864D199F8000005B0BDE8F0435F
:205790004FF4804105F0E6BA204605B0BDE8F0430F21FBF7D5BB7088A882B188E9820221D2
:2057B000F0882883297400206882A18EA88AC91DE981618EB0EB510F02BFE88AA18E884248
:2057D00002BF288BE18EB0EB111F18D02878012804BF68780F2805D0687918B10F21A972B6
:2057F000FE2127E0FC212046FBF79EFBF0880090B38872883188A079FBF79AFB20E010219E
:2058100018E0491E20460EF059F8032F18D1A878042818BF0D2813D16E78142E18BF0E2ED2
:205830000ED12F782046FBF787FB012F06BFAE72FD213146204605B0BDE8F043FBF774BB3A
:2058500005B0BDE8F08300BFEC4D0020402A00206E4F0020144E00202DE9FE4F05467B48F9
:20587000002400680094C00905D37948007810B920200BF06FFC012D40F0E280DFF8009286
:20589000D9F8DC00012840F0D8800220C9F8DC000CF0C0FF01200BF05DFC5FEA000805D085
:2058B0000120C9F8DC000CF0C1FFCBE00DF093FCA34602906748684DC0F800B0A86A016865
:2058D00001208847012804D1584608F01DFD012000906248624FC0F800B0386811200DF0D8
:2058F0006BFB00B1012410200DF066FB08B144F002040F200DF060FB08B144F004040B2034
:205910000DF05AFB20B12868564E016B308888470A200DF051FB20B12868534E016B308894
:2059300088475248012606602868816944F0200088474F4806600DF039FB00F00101019112
:20595000400814D2286A81684A4888478246BAF1040FF7D0BAF1010F04D1286A4268454887
:20597000032190474449086820F003000860584600F09AF92B683868986B804701980128C4
:205990000CD0BAF1010F04D1286A42683948314690473949086840F0030008602F48066016
:2059B00028684169204688470B200DF005FB20B128682C4BC16A188888470A200DF0FCFAB1
:2059D00020B12868284BC16A18888847274806600322C9F8DC20264BC3F800B02868416B7A
:2059F000204688470128F9D1386804200BF0B2FB0446184806603868144800688009FBD338
:205A10000098012802D1304608F07EFC0DF0BCFA08200BF09FFB07460298C9F8DC600DF0A9
:205A300049FF1648008808F0A5F90CF0FFFE57EA040018BF4FF0FF3804E06FF0040801E0D7
:205A50006FF001084046BDE8FE8FC04614100940001800200C400940B801001000022243A6
:205A70002C2009400646010002460100282008608001044300400340242208406C490100AC
:205A9000181700202DE9F0430446DFF8F881DFF80492A2780025ADF1240D101C00F0A3800A
:205AB000801E7ED0401E012863D9DFF8E491801E3ED0401E00F0CD80401E30D0401F00F0E7
:205AD000BF80401F40F0D0804646204696F828308188B769022BADF8081010D0012B15D0BC
:205AF000BBB9C188ADF80A100389ADF80C304289ADF80E208089ADF81000012107E02FB168
:205B10007A681AB1001D02A9904702E029468DF812105D49102002AA01F062FC96E048465C
:205B3000B6300DF064FB6078002840F08F809BE06078C0B960890090207B54490190E2786C
:205B5000231D102001F04CFC207B042840F08C8048460121057007AA8DF81C1040F205309B
:205B700002F046F880E06078312804BF484605707AE0677897B940468189032A0BD0827873
:205B9000C77811B9012A6FD106E017436CD094300AF0F2FF68E00125857065E00C2F55D14D
:205BB00068E0607800285FD14646E778307847B906F194000DF004F988B901200DF038F9B5
:205BD0000DE00BF047FE0246B07906F1730749462B4600901020019701F002FC60706078B7
:205BF000002833D040E0607800283DD12A4E454605F134000222009031461020034601F07A
:205C1000EFFB05F144000322314600901020034601F0E6FBE01C026805F11C010A608088EE
:205C3000888028780BF016FE0246287905F154074946012300901020019701F0D1FB13E0A8
:205C50001649A288237B102001F0CAFB012D0BD010E01349A288102002AB01F0C1FB1149C4
:205C7000A288102001F0BCFB46461836306808B1006808B9012002E001462046884709B086
:205C9000BDE8F083500E002005160110E98C0000520E0020094501105D900000C5BB000071
:205CB000097F011045F800002DE9F84FDFF804B20746ABF13500DFF8F0810068800880F04E
:205CD000E28075480068006880477E490831D1F8009000254FEA29715FEA995201F1010185
:205CF0000AD2C0F13E0210F10A0F4FEAE202D8BF08229142B8BF111C684BD3F87C21C2F388
:205D10000462162AA8BF203A1B68C3F30443162BA8BF203B9A465218162A05DA12F10A0F04
:205D3000B8BF6FF0090200E015225D4B5D4E02F01F0141F4F8511980316811F0030F18BF5C
:205D50000125C90828BF45F002050FB145F00405434693F90710411A052904DA9979A9428B
:205D700008BF99886FD0DFF844E10F28A0F10F0829DB08EB0011A1F1F0084FEA282100916C
:205D9000072984BF07210091062988BF06215EF821600424774604EB81043C594FEA950C8B
:205DB000A41BEE0804F0FF0124BFC4F3072631446F08AE0824BFC4F3074631446E0828BF08
:205DD00001EB146104E000214FEA950C6F080091009C5EF824E05FEA5C060EF0FF0424BFE6
:205DF000CEF3072634447E0824BFCEF3074634446E0828BF04EB1E64009E89B2A8EB0626D8
:205E10007143803104EB1124AAEB02010029D8BF0121342209F0FF074A4391B24FF6FF7294
:205E30007943B1FBF4F18A4238BF111C802889B2998005DA10F1800FB8BF6FF07F0000E075
:205E50007F20D8719D711A4800681F2918604FF0000008D340F2FF128A4206D24908401C04
:205E70008A42FBD301E01F219980134F0F39090940EAC10047EA0001CBF8FB1F0026CBF89F
:205E9000FF6FBDE8F88F0D490D4F434608200F609B1D1870BDE8F88FEC0100103C11005080
:205EB0006E62084024220840482A00209C130050082009403500094000E7A4803010094018
:205ED000FDFDA400AC3F00502DE9F04F0646880FADF1140DC0F0EF80784F381D0068416896
:205EF0008D68CC68486800B18047B946754F002D08BF002C0DD038461C300368002BFCD055
:205F10000021016005B1A84704B1A0476C480BF0D5FE3C4600256C49E5616C48216040F61F
:205F30000A0CA0F800C04580017B05F00F0221F00F010A430273AA46C0F804A0417B4FF072
:205F5000010B0BF00F0721F00F0147EA01024273B268737C558011888646A1F60201C9B1B3
:205F700041F21E07C91B15D041F6E677C91B012920D8507E012B65F38200507606D0108B4B
:205F900020F47C7040F43470108313E0108B65F30910F9E7507C012B65F38200507405D03C
:205FB000108A20F47C7040F4347002E0108A65F309101082D6F8088075746046474600E08E
:205FD0001F467B6813B119888842F9D1C7F804E0797B05F00F0221F00F010A437A73D9F8A7
:205FF0006C303BB1D9680988C21F8A4229D0801F884226D0338C33B3C6F824A006F12002F2
:20601000558096F82C0005F00F0120F00F00014386F82C1096F82D000BF00F0320F00F00D8
:2060300043EA000186F82D10CEF804209EF80D0005F00F0320F00F0043EA00018EF80D10E3
:2060500001E0C9F808502248036882680192C168406B0093102220F0784040F080500390F0
:206070001C480291694606F0BFF8E0690028FCD01948C9F8140099F81D00E56190B91748AE
:2060900000680068014658468847012810D0787B0BF00F0120F00F0001437973104EC9F8F7
:2060B000146005E00AF026F90028FBD00DF08BF8E561C4F8008005B0BDE8F08FC820002088
:2060D000010007060010044001010E04CC2900204C1300501800002189470000E00100107C
:2060F00009EB00002DE9F04F044675488A46016894461F46BAF1000FADF13C0D4DD0BCF15D
:20611000000F4AD09AF8002001209040014244D0BCF80000B0F5C15F32D1DCF81430DCF8E4
:2061300018206848DCF81C104FF0030E0DF128080B93DFF894B10C9200680D91C0F303696C
:2061500058F8046FCEB10021351F05200B4655F8042FB2F1FF3F10D0934506D0401E01F1C3
:20617000040103F10103F2D107E0052B05DA705820F4702040EA09407050BEF1010EDFD14C
:20619000C4F804A0C4F808C00DF00FF84F4D8046287820B140460DF0B9FB00208DE002F07E
:2061B00005FD4B49086840F00200086007A80CF0FFFD002605F1D00007AA464909960AF0C3
:2061D00053FA454905F5827007AA0AF04DFA07A80CF0C6FDFF2105F1340007AB3F4A08916A
:2061F00019210AF0C7F93E4A05F150001A2107AB0AF0C0F93B49324605F18800134609F061
:20621000A1FA3949324605F1AC00134609F09AFA364A05F12000042133460BF063FD0E2094
:2062300005F07EF805F174000CF0C6FC05F16C000CF0C2FC2E74072085F898012E77AE610C
:206250006E770523AE602B49EB602A786961501C2870274B1E7040460DF058FBB1464FB90F
:206270002548B0E88C106946A1E88C100DC86F4681E80D0038682060398A618201206074DE
:206290007B6813B940F6C4130646E3601B48A06126746061F86800B1A061B86800B1606140
:2062B0005822494604F1200007F0E4FA04F1380049460BF027FB20466C600FB0BDE8F08FED
:2062D000D4210840541300500200F844C8200020002009406D280100E9A700005DE80000A0
:2062F00025E500006D220100ED250100C1FA00007A2A002051AA00000C49010023C000002E
:206310002DE9F04F05468048066800680F461C469246C4F399018900ADF12C0D0A010021C3
:20633000803207F0A7FADFF8C891A9F1880002466E48016830469047A3088046610801978B
:206350009F1C21F00101F819009506EB80000390091DCDF808A07818434506EB800206EBA6
:20637000870B3844049206EB80000690C4F39C004FEA800000F1080007EB400000EB070237
:2063900006EB82020A9224F0030202F1080200EB020506EB85053A44059506EB82050A447B
:2063B00007953A4406EB8202089206EB80020992084406EB800A384406EB800518BF6FF0A7
:2063D000010040F08F8009F16800024641463046904700233CB10199264611F8010B761E30
:2063F00040EA0303F9D1002B08BF01207AD000263CB10299234611F8010B5B1E40EA06065B
:20641000F9D1002E08BF02206CD001995846C84703980299C847009881680498C84735481A
:20643000049A594681462846C847012803D14FEA88042E590EB1032054E0BE00284600211F
:20645000324607F017FA0399049A2846C847012801D12F590FB1042044E0274F274C0698E3
:2064700059463A46A047079803993A46A0470699089827460A46B84709980899069AB84788
:206490000A9806991E4C2246B84728460021282207F0F0F91B4809990A9A81462846C84734
:2064B0002034284622460146C847079950460A46B84705980021324607F0DCF95FFA88F4F0
:2064D0005046002C0CBF01225FFA88F200216B5C445CA34218BF052004D1491C521EC9B29B
:2064F000F5D100200BB0BDE8F08FC0468C4F0020B9DB0010C9DE0010681E0020F9E00010DC
:20651000F8460100C9E60010884F002079488078FF2800D170472DE9F84F0CF089FB0546E6
:2065300005F20F100178012908BF417800F08A8005F58E74E18911B1207B04F00BFC688969
:20655000288105F17401887B022803D105F174000021817305F58979DFF89CE19EF80A00A7
:206570009EF807309EF80C209EF80B109EF80D60B9F8027000EB030890448844B044B9F86A
:206590000460761CA9F80460C719B9F80060A9F802704644A9F800602468E4B1574F95F80D
:2065B00006B03F68182607F10E0A06FB0BFB0E371AF80BA034F81AB0C34424F81AB095F8A7
:2065D00006A006FB0AF6BE5D04EB4604B4F84A70C619A4F84A60002B08BF002905D1002A0A
:2065F00004BF9EF80D1000290FD02989E88941180026A9812E74424841690A78900726D557
:206610009EF80E00802822D022E018B100200126287405E0B9F80600401C0226A9F80600B7
:20663000A8892989814206D08842E4D2081A41F2AB029042DFDA287C08B1052901D008213C
:2066500000E03E212846BDE8F44F0DF0FBB9812005F1740A8AF800002846FBF7E3FC0128E5
:2066700046D0012128460DF021F928460DF01AF902F02CF801283BD0FBF738FF214F38684C
:20669000B0B3B888AA7990421CBF4FF6FD7188422ED11D48007A0CF0E3FB040028D02670B0
:2066B000A8791A4960800A68A879115C21719AF900206271A4F80680B9F8020020810CF0DC
:2066D00097FB050005D1FF204FF0FF31A072E16009E02878A0720DF085F90146A8680DF0F2
:2066F000DDF88008E06020463968BDE8F44F0847BDE8F18F684E00205C4D0020804E0020FD
:20671000FC4A0100382A0020DC1F0020582A00202DE9FE4F0E468246307AC10693461F46B5
:206730004FF000090CD558460DF0B4F8030000F0E8800A223146504698475FEA00094DD1F6
:2067500030780C9D0D9CDDF8388002281AD170680178407801EB002189B24FF42052891AE4
:20677000012910D9891E3AD0491E14D0FD397AD0491E00F08180491E6DD0491E73D0491E6D
:2067900000F09580ABE0002C2AD1F068017829800278416887E0002C22D101202880F168ED
