:20000000004000205DFB000001C9011001C9011001C9011001C9011001C9011001C9011006
:1C00200001C9011001C9011001C9011001C9011001C9011001C901103FC9011089
:20003C002DE9F04FDE4C04F114012046ADF12C0D0FF06EF904F140060021304600F00CFCAE
:20005C00CD4904F18C05C82240232846A6610FF0CDFBCA4E06F1180006F10C010BF0A2FA9D
:20007C00C749B06012F0D4FCC64FB0684FF4E0213A46521E10F082FAB0684FF4E0213A46B9
:20009C0010F07CFAC04FB0684FF0C0513A46521E10F074FAB0683A464FF0C05110F06EFAA9
:2000BC00BA4906F12400C82200230FF09FFBB848002170604FF080400EF0DEFBB54D206116
:2000DC0021211E22284611F04BFDB34800214FF6FF7211F045FDB14800214FF6FF7211F0E5
:2000FC003FFDE54800214FF6FF7211F039FDE34800214FF6FF7211F033FD2769DFF88083D0
:20011C0057B1284606793EB1414603224A70CF6000228A6011F000FCE44D102006224FF475
:20013C00A073294605F0F8FF102007224FF4A073294605F0F1FF102008224FF4A073294613
:20015C0005F0EAFF102009224FF4A073294605F0E3FF10200A224FF4A073294605F0DCFFBD
:20017C0010200B224FF4A073294605F0D5FF10200222C823294605F0CFFF10200C22422344
:20019C00294605F0C9FF10200D224223294605F0C3FF10200E224223294605F0BDFF2946D9
:2001BC0010200F22422305F0B7FF102029464223024605F0B1FF294610201122422305F095
:2001DC00ABFF294610201222422305F0A5FF294610201322422305F09FFF294610201722E4
:2001FC00422305F099FF294610201822422305F093FF294610201522C82305F08DFF29467B
:20021C0010201622C82305F087FF2946102019224FF47A7305F080FF294610201A22002378
:20023C0005F07AFF207811F027F8A1490246102005F072FF012060729E480FF0B9F8092101
:20025C0084F8581084F85910412784F85A704E2284F85B20432384F85C302D2584F85D50BB
:20027C00867A84F85E60C67A84F85F60067B84F86060467B84F86160022184F862100A21B6
:20029C0084F86310002184F86410022184F86510012184F86610062184F867104FF00309B5
:2002BC0084F86890022184F86910F02184F86A10FF2184F86B10082184F86C1084F86D70FE
:2002DC0084F86E2084F86F3084F87050817A84F87110C17AD44D84F87210017B002604F1B8
:2002FC00580284F87310407BAE810D2184F874004FF4427006F0A2FD04F1650240F2073032
:20031C00102106F09BFD04F1090240F20530012106F094FD0F2704F13000A861D44EEF720B
:20033C0031782878217210F0A7FF0246009705F1440305F134000190CE49029305F114078B
:20035C0003976B78102005F0E7FE217A480000EB011080B20AF0C6F9B246E06104F10901F8
:20037C000A91F8B1277AF7B14FF6FF713E46761E20F8121BFBD116E0CD280100AC15002029
:20039C00290501000E0005800E0000106D2201007D24010040160020CC1200201415002072
:2003BC0008020020277AF8000AF09CF9606268B1277A5FB100210E46C1807F1E06703546FF
:2003DC0085803346438000F10800F3D104F17500CC49009000221523102005F09DFECA49C7
:2003FC0010204FF0FF3205F097FEC84910204FF0FF3205F091FE1020DFF81483C54BC64AC4
:20041C00009041460193132305F086FE9AF8000080000AF067F9C14E0746B760011C0ED08C
:20043C004FF6FF7010F0A0FABD4B10204146009006F114020193112305F06EFEB768CE4997
:20045C000A680DF1160002600979017106F11403099301253570022373705FEA070886F851
:20047C0002904FF00402F2703DD09AF8000000274FF6FF7B35E0C0467C140020C8140020DB
:20049C00D4180020BD0038F805008345454424D0AB7813B30998F31C1121C26893420BD058
:2004BC00491E00F11000F8D117E0C046F9FE000051880110E8120050A9788146480805D3B7
:2004DC00288801214A460CF08DFAA978880804D3288802214A460CF085FA9AF800007F1C88
:2004FC00FFB2B842CEDC0DF1160106F10C000A680979026004F1280701711020C649776071
:20051C0005F00AFE207810F0B7FEC4490246102005F002FE207810F0AFFEC1490246102034
:20053C0005F0FAFD4FF0000B0DF11F06012002218DF82000BB4D8DF81F1003468DF821B002
:20055C004FF480628DF823B01F461020009629468DF8227005F0E0FD08A840F202423B46D8
:20057C0000902946102005F0D7FD0DF121002946009040F203423B46102005F0CDFD0DF164
:20059C002200294640F206423B460090102005F0C3FD0DF1230029464FF483623B46009075
:2005BC00102005F0B9FDA04904F13802102005F0B3FD9E49102005F0AFFDA44800F050F97A
:2005DC004FF6FD78DFF8809260699D4A59464FF0FF3300F049F9061CF6D0CDF810B005A850
:2005FC000DF11E0104AA10F0F3F9C0B9BDF814100120074610290DD120789DF81E1088422C
:20061C0008D1049801884FF6FF728A4202D004F00FFD0746049810B10FB112F0D0FAF00F37
:20063C00C0F0C880C0E0C046C4070020A569284600F01EF9854208BF5F4602D087680DF0A1
:20065C009FFF381C00F0B0803888E16A401E00F0A280401E00F09B80801E63D0001F0BD0BD
:20067C00083800F09480103800F0888099E0C046694F002085E2000078680078010924D2C4
:20069C004009C0F084800E2011F0E2FF00287ED16F486F494068097803790A46934212D09F
:2006BC00FF2A74D000EBC203DD682DB900EBC100006911F031F96AE000EBC20000690146EF
:2006DC001046884763E08068F3E70D2011F0C0FF00285CD15E484168054609792878814213
:2006FC0007D0FF280AD0401CC0B210F0C3FAFF2802D1584610F0BEFA294608700CF07CFDCF
:20071C0045E0C04621CD0000A51A0100991D01004D1401008C440100B00B0020540E00209D
:20073C0098440100880832D3256A85B3E07805F10803401CE070414900936A882B7910207C
:20075C0005F0EAFC5FFA80FABAF1160F1FD0E56ABAF1040F1BD035F00205E56207D1394A4A
:20077C003549CDF800801020012305F0D5FC504610F0E2FE0BE0C046BE440100CDF80090C1
:20079C0078682C4942895B46102005F0C5FC78680DF0F6FE05E0786804F04AFC786812F0E4
:2007BC000EFA38460DF0ECFEA06900F065F800283FF43CAFF009FFF407AF2779618925487B
:2007DC00491C007861817FB922488078B8B158460A9A6072012140F2053006F02FFB01205D
:2007FC0020710FF0AFFE12E010F046FD10490246102005F091FC0CF0C7FA5846207101200B
:20081C0060720A9A012140F2053006F017FB0F4800F026F8D8E6C0464DC7000031810110B5
:20083C00BD2A0100114E0000F11F0100C5AB001059070100910D01003DEE0000DDFE0010AE
:20085C007F0000C00326010040E2010094020020D4180020C4070020DFF800F0A1B6011014
:20087C00DFF800F01FBE0110DFF800F0F99B0110DFF800F019BD0110DFF800F04FBF0110A7
:20089C002DE9F04F85B011F801ABDFF86835DFF868C5DFF868B58146AAF10200132809F1F8
:2008BC00FD0209F1F40609F59C7709F1860809F5AC7409F1660500F28B82DFE810F0D40073
:2008DC00890214004000430070028902980089027000A80073007800DA008F01D501CB00AC
:2008FC007802DF01DF0109F1A0040822204600F089FA06460821204600F088FA09F198071B
:20091C0004223146384600F07DFA0421384600F07DFA00204142494409EB000291F89F10D1
:20093C0082F8BF10401C0828F4DB09F1C702214609F1D70000F06EFA0020A87157E2012110
:20095C00B17154E23178707A012900F010000DD130B100207870316CB87849080DF050FC38
:20097C0099F80600002100F059FA0FE040B1326CDFF88C0409F59D735208494612F0C6F8C4
:20099C0099F806000122002100F04CFA01202870484600F04BFA0121A971B17027E2012126
:2009BC00F17024E2087870700121F1711FE2A87918B93D2030770120F076707A000701D48C
:2009DC000E2037E100205F1C0B5C1CF8006033430B543C5C23401354401C0828F4DB28780D
:2009FC0008B90921C5E148460DF028F9F5E100205F1C0B5C1CF8004023430B543C5C2340B2
:200A1C001354401C0828F4DB02203072EFE1A87920B93D2101203177F076E8E1707C0128FF
:200A3C0003D10C2171770721A3E111F8010B3075022209F5857000F0E5F90146022209F5FD
:200A5C00867000F0DFF9F07C012100287174E4D10C218EE1707AC10601D41220EAE04846C0
:200A7C0000F0E8F9B9E1087830770021F176F021F4E0737A980704D413F0110F70D01A2258
:200A9C00DEE0287C012804BF687C0F2808D0687D08B16A7C12B12A7F012A03D158070BD5CB
:200ABC002322CDE010B1687C012803D098F80A00012806D1580702D40F2171778AE12A22E9
:200ADC00BEE008784A7800EB02203881CA78887800EB022078814A79087900EB0220B88182
:200AFC00CA79887900EB0220F881087A38744A7A887A02EB00227A82C87A0A7B00EB02203D
:200B1C00B8828A7B487B00EB0220F8820A7CC87B00EB022038838A7C487C00EB02207883CD
:200B3C000A7DC87C00EB0220B883487D897D00EB0120F88309F5A6700490798A0391387C41
:200B5C000290B9F808100191F8890090BB897A89398948460CF06AFD18B1707A41076ED444
:200B7C0067E07889A8F804000022B989A8F806100221F889A8F8080088F80010A8F80220B5
:200B9C00B9F83400C01DE883B9F83210B8F80400B0EB510F02BFB8F80600B9F83410884234
:200BBC0002BFB8F80800B9F83610B0EB111F13D0687D18B10F21A976FE21DAE0FC2148467A
:200BDC0000F03CF9F8890090BB897A89398999F8060000F037F90AE10021CAE08A78C8780B
:200BFC000F798C7902EB0025487907EB0027C87901F10B0204EB00240492BBB2487A8A7A44
:200C1C0000EB022080B20390087A0290B9F808200192A2B2009291F800C048780CEB002060
:200C3C0081B2AAB248460CF001FD80B1707A410702D40F207077CDE0484600F007F91E22C7
:200C5C00484605B0BDE8F04F0F2100F003B9A8F80450A8F80670A8F808400021484605B01F
:200C7C00BDE8F04F00F0FAB8087820704A786270487870700121F1717971B8E00A78487846
:200C9C0002EB0022628209F5BC778878CA7800EB0220E0824A79087900EB0220208288796F
:200CBC00C97900EB0120A08209F5AC7109F5AC70CA8A8089A18B904288BF1046A08388428E
:200CDC0009F5AC7009F5AC7100894A8A218B14BF01260026904288BF1046884214BF01216C
:200CFC0000210E4320830122A18B387900F0BAF8218B814205D3A18B3879012200F0B2F840
:200D1C00014609F5AC70798009F5AC7140890A8A904288BF1046628B6083904214BF0121DF
:200D3C0000210E43824209F5AC7009F5AC728941C089938AE28BC90F984288BF1846904265
:200D5C0014BF012200221643E08311B1484600F08DF8BAF1140F19D146B1E08B0090638B46
:200D7C00A28B218B99F8060000F084F8287830B91521484605B0BDE8F04F00F05FB8484600
:200D9C0005B0BDE8F04F152111F0F2BA1EB1387840F008003870397841F0200108E00878F1
:200DBC000F2807D0122802D0142806D01FE0002139701CE00120387119E099F8780140F029
:200DDC00020089F8780140F0100089F878010EE086F81DA0484600F051F840B99BF8000045
:200DFC0005B0BDE8F04F4FF4804109F02FB805B0BDE8F08FEC4D0020B02300206E4F002058
:200E1C00018B0010DFF800F0D1920010DFF800F0AD710110DFF800F09D720110DFF800F03C
:200E3C0069CA0010DFF800F001CA0010DFF800F0B9950010DFF800F05D880010DFF800F009
:200E5C00AD7E0010DFF800F0E5BE0010DFF800F0097F0010DFF800F049890010DFF800F0F2
:200E7C00697F0010DFF800F0598F0010DFF800F0DD930010DFF800F065BF0010DFF800F096
:200E9C00497E00102DE9FC4706460C4615469A46C0B211F00FFC8146F0B211F0D1FC06462C
:200EBC00494F3079DFF82481012802D0022843D082E0BAF1020F0AD1002070803080022244
:200EDC003271B0680EF022FC0020B06037E0308871882A1891420BDA002070803080022249
:200EFC003271B0680EF012FC0020B0608B2061E0B3682A462146184411F0CAFA30882D18E3
:200F1C003580ADB27288954256D199F87410802917BF81297F2198F80000091A49B200918C
:200F3C005346B168B878D2B200F054F8002070803080022232713FE0BAF1020F3CD1042D53
:200F5C00B8BF8C2036DB20786178001D40EA01201F49708083B20A789A4238BF8A2029D3E0
:200F7C0081B2A94238BF8B2024D380B200F036F8B060F0B12A46214611F08AFA7288954270
:200F9C0011D199F87410802917BF81297F2198F80000091A49B200910223B168B878D2B244
:200FBC0000F018F808E030882D1835800121317102E081200BF0EAFF24B12046BDE8F64733
:200FDC000EF0A4BBBDE8F387684E0020704F00206B4F0020DFF800F065940110DFF800F052
:040FFC00694900102F
:20100000B41200001810000015AB0110FDB301106DC00110FDAE011099B5011000000000F7
:08102000000000002D0000009B
:20102800B01200003C100000B1C00110A9BF011067C0011069B80110000000000000000035
:041048003000000074
:20104C00B012000060100000BDC00110CDB30110D9BD01106DB3011000000000000000005B
:04106C00310000004F
:2010700000000000A019002004000000000000000000000020000000E8C901103000000071
:2010900028100000A81900200400000000000000000000000C000000D8CA0110180000004C
:2010B0004C100000B019002004000000000000000000000024000000F0CA011018000000D0
:2010D00000000000B81900200400000000000000000000001000000018CA01102C000000DC
:2010F00000100000C8190020040000000000000000000000200000006CCA01102400000040
:20111000FFFFFFFFD01900200400000000000000000000002800000090CA011024000000FF
:20113000FFFFFFFFD81900200400000000000000000000001400000008CB0110180000007E
:20115000FFFFFFFFE019002004000000000000000000000058000000B4C90110340000004C
:20117000FFFFFFFFE81900200400000000000000000000001000000020CB0110180000001A
:20119000FFFFFFFFF01900200400000000000000000000001C000000B4CA01102400000047
:2011B000FFFFFFFFF81900200400000000000000000000003800000044CA0110280000006F
:2011D000FFFFFFFF001A00200400000000000000000000005400000078C901103C000000E3
:0811F000010000002845010088
:0411F80001000000F2
:0411FC0000000E00E1
:0412000000000F00DB
:0412040032000000B4
:0412080001000000E1
:04120C006418002042
:0412100000020000D8
:0412140000000000D6
:0412180001C90110F7
:04121C0000000000CE
:0412200000000000CA
:0412240008000000BE
:0412280000002200A0
:04122C00B4160020D4
:0412300000000000BA
:0412340000000000B6
:0412380008000000AA
:04123C002418002052
:0412400000000000AA
:0412440000000000A6
:04124800080000009A
:04124C00000000009E
:04125000000000009A
:041254000000000096
:041258000000000092
:04125C00010000008D
:041260004C17002007
:041264000600000080
:041268000100000081
:04126C0060150020E9
:04127000000000007A
:041274000000000076
:041278000002000070
:04127C00000000006E
:02128000290043
:02128200010069
:02128400250043
:02128600300036
:02128800310033
:02128A002D0035
:02128C0001005F
:01128E00015E
:0812900003000000B04401005E
:0812980000000000000000004E
:0412A0000000010049
:0412A4000000030043
:0412A80013C401105A
:0412AC0019260100FE
:0412B000B812000070
:0412B400B81200006C
:0412B8000000000032
:0412BC006019002095
:0412C000BB27010047
:0412C4002000000006
:0412C80010440100CD
:0412CC00C842010013
:0412D00029C101101F
:0412D40027050100E9
:0412D800931201006C
:0412DC00A1C7011095
:0412E000A3C701108F
:0412E4000000000006
:0412E800FB440100C2
:0412EC00AC40010011
:0412F000C4400100F5
:0412F4009440010021
:0212F8000200F2
:0212FA000900E9
:0212FC000100EF
:0212FE000000EE
:0113000001EB
:041304004927010074
:04130800E1080100F7
:04130C00E91B0100D8
:04131000C50C010007
:041314004F0901007C
:04131800B9F900001F
:04131C00FDC300000D
:04132000E3290100BC
:0413240075EB000065
:0413280015C70110D4
:04132C0025C70110C0
:201330002DE9F04F0F46CC4C0168E16241688068ADF11C0DE060C548A1608047C448E16A6B
:201350000160A168DFF80CA34160E168DFF838938160CC49002FA346C1606FD03D68E8788E
:201370008DF80C0028798DF80D0003A812F0CEF8A86808B1C9490160E86808B1C84901606F
:20139000C84C287820706878BE686070A878B268A0703178A2607368E1702E696360EA6955
:2013B00026627968E2620868E06068696062A8697B68A062286A9E68206395F8240084F8EF
:2013D00034001EB9002010F097FE00E066617868C06818B9002010F08FFE00E0A06178684F
:2013F000006918B9002010F087FE00E0E0617868406818B9002010F07FFE00E020612869F5
:201410002062F86881680E6806B9B34EB1494FF001084E60C66881F8018036B9002010F094
:201430006BFE4D462E68F86801E04D462E6000685446FB68A0615868E06107E0002010F03A
:201450005BFE4D462E684FF001085446361DD0493668621C04F114035020B04710B12868CC
:2014700080688047DBF80800804782460023D04ECD48CE4F2061994633714A46B370380BD6
:20149000F270C7B2401CC1B2377018467170B94280F2908198B9B9F1000F08D1307810F0A3
:2014B00053FB0420F08031790020A1B912E086F802900FF0B5FD484607F000FE07E0B9F14F
:2014D000000F02D048460DF0F1FF0FF0A9FD3179002001B9404610B9002010F00DFE0020DD
:2014F000D14E2B68A0600746B760986980477060C54880F8008039464180142011F0E6F9D5
:20151000FF211422A0620BF0BFFEE01CFF2102220BF0BAFE142011F0D9F9BC4F386038686E
:20153000002114220BF0B0FE002001F073F840460EF0C6FEB6480188FF2906D102210180AD
:201550007822001D00210BF09FFE032011F0DAFF042011F0D3FF052011F0CCFF062011F0FF
:20157000C5FF07200DF0A2FAAA4E0820307006F1240011F0B7FF0DF0DDFC06F13609052014
:201590000A214A4610F00AF838B10020C0F10901401C09F8011B0A28F8DB3078102108F06B
:2015B0005BFC2B689C4909200DF10E025E68087001AB10200021B047A06AE1690A260A3025
:2015D0009DF80E20761E00F8012BF9D1891EE161DBF80C105046884704F120002B68626A05
:2015F000059040461E69DFF8348204F120034146B04710B1286880688047B84610F056F9C9
:201610005FEA000903D00AF073F84FF0FF3900264CE00298216910F8062CA0F10C07032A38
:2016300003D1002942D0884740E0A16A9DF810C00A223046491E11F8013F9C450ED0521EAB
:2016500000F10100F7D14FF0FF0A09E041490010F8440020AC170020A01100205FFA80FA12
:201670002868BAF1FF0F00F108001DD038790FF0DBF8B979012909D0022904BF02998870F2
:2016900006E0C046243501001C1A0020029908700299504610F0F8FB08E0C046C91301009C
:2016B000452301007C160020006880472868C36904A902AA0DF10F0098470028A9D0D8F85E
:2016D00000007700C35B4BB9761CF6B20A2EF8DB27E0C0468019002083EC00000A2E20DAB5
:2016F000DBF808008047D8F80010002231F807A0CA53DBF80C108847494850F826202670D6
:201710005146304690470646FF202070DBF808008047D8F800107A5A16437E52DBF80C106C
:20173000884710F0C3F80746B9451AD007B93D4FE069B84238BF071CDBF8080080478146C8
:201750002868016A206A8847626A28683349059B521C6262C6683846B047DBF80C1048465B
:201770008847A7682968606914319FB9D8F800000A270026835B33B1096960698847296800
:20179000D8F8000014317F1E06F10206F2D105E0351B0100096988472968143109684FF0C8
:2017B000FF3088472AE7C0466524010000D00100A0230020384600216A4604230FF0F8FA5F
:2017D000009BB078B3F5801F0ED043B9B9F1000F03D048460DF06AFEB078B94610E0384601
:2017F0000DF064FEB0780BE0002804BF381CB77006D00DF05BFE38460DF058FE0020B070C4
:2018100071787F1CFFB242E6F4150020E023002050130020E00C0020F223002071080100D1
:20183000504201008EC2F528742300202DE9F8435FEA000906D1002010F05EFC02E048467D
:20185000FFF70AFB09F16605687D002800F08381697CDFF89C04002909F1860709F20F18E9
:2018700009F1EC0609F59E7443D0012958D002292FD003295ED0062900F09880072900F01C
:201890006081082900F0C080092900F0CD800A2900F09F800B2900F0A8800C2900F0D08084
:2018B0000F2900F0EB80112900F01581122900F0DC80142900F01881152900F03981F02977
:2018D00000F04B81FC2900F04581FE2900F04F81B1E7297C012908D1C07808B900F0C7B9D1
:2018F0004846FFF7B9FA16213CE1484611F0F6FDC9E1297C012940F04B81C078002800F006
:201910004E8178883978400078804900B88839704000B880012138890001388129778EE7A3
:20193000297C012940F04181C078002818BFB97285D13EE1297C012940F04281807838B15C
:20195000A078012804D10021A1704846FFF77CFAB07B012809D10021316071600122BA7334
:2019700006214846FFF780FA6CE7F07B012818D14846FFF771FA0020B873012129704846DF
:20199000FFF75AFA0120A87100217173717A99F8060006291ABF00221A210022FFF748FA6D
:2019B00050E798F8000001283DD014E1287C012840F01881B07A012811D14846FFF74CFA90
:2019D000002030723073F072B073B072F073707338E7287C012840F01481F07A012840F031
:2019F0000A810021B9730B21BBE7297C012940F011818078002800F011810321B1E7002220
:201A10002221FFF715FA71E1287C012840F01681307C022809F1FD0240F0198199F8061048
:201A3000002011F057FD0AE7297C012940F01B81807800281FD0B9F82200A9F81E00FEE610
:201A5000287C012840F01A81707E012840F01D81B07E0128F3D1308C0090F38B327F99F8D2
:201A70000610002011F032FDE9E6297C012940F01C818078002800F0FA80E0E6287C012868
:201A900040F017816078012813D1207F0F281CBF002010F031FB00206070607F1A2808BFB4
:201AB000002117D0002100910023002211F00AFDC5E6A078012807D10021A17023220F21A4
:201AD0004846FFF7CDF9BDE62078012840F0CF800021217045E7297C012940F0EE80C07846
:201AF000002800F0EE80AAE6287C012840F0EF8009F5AF76B07E810613D500F0DF000107BD
:201B1000B0760BD500F0F700B076308B0090B38AF28A718A99F80600FFF7B2F900203070AB
:201B30008DE6810740F1CD8000F0FD00B076F5E7297C012940F0CF808078002800F0D0807F
:201B50007DE64846FFF7A0F90128F9D002E0002010F0D2FA0020BDE8F283407A0028FAD04F
:201B700098F80110484611F0A9FC0120F3E7A87E0F28ECD1FC214846FFF776F960890090E2
:201B90002389E288A18899F80600FFF761F9E1E7484611F08FFC2874E88A2883DAE7B9F802
:201BB0000A00E98B884209D0D4E7484611F07EFCF1E7B9F80A00B9898842CBD12821D1E7F4
:201BD000484611F06FFC28740021E88A2883B1730020F073BFE7288B401E288380B20028BE
:201BF00022D0B7E7484611F059FC28740021E88A2883B172AEE7288B401E288380B298B198
:201C1000A8E7484611F046FC28740021E88A2883F1729FE7484611F039FCBCE7288B401E19
:201C3000288380B2002895D1317A99F8060001297FF4E5AE2221FFF7F7F857E0484611F0C9
:201C500021FC28740121E88A2883317482E7288B401E288380B20028F8D199F806102220A6
:201C700011F038FC42E048460BF0EEFF93E7288B401E288380B2002838D06BE70120F07616
:201C9000484611F0FBFB287464E7288B401E288380B20028F8D1308C0090F38B327F99F8DD
:201CB0000610222011F012FC20E0484611F0E2FB71E7484609F0EEF96DE7484611F0D6FBC7
:201CD00069E7288B401E288380B278B142E7484610F054FB5FE71521484610F04FFB5AE7F2
:201CF000288B401E288380B20028EFD1222139E75C4D00202DE9F84FDFF86C54696884B0D9
:201D1000019121B905B0BDE8F04F11F0ABBB0978DFF858A4DFF858B4DFF85884DFF85864CA
:201D300001291CBF0229042946F2A81741F64C5905D0402918BF802900F0F8800AE210F051
:201D50009DFE0028FAD00198007806F007FD0090446814B9002010F0CFF9DFF8201448781F
:201D7000002800F0A48002F0E7FC10F0A9FC02900168009801914F6809F0F6FD02286AD071
:201D900000990A78012A04D0022A25D0042A41D0E0E1DFF8EC3319680A7A1BF80230337015
:201DB00018B911F05BFB4844A0602069C17E01F0EF01C1762069C17E41F08001C176206945
:201DD000C17E01F0F00141F00201C176B86821694044C861012035E10521317018B911F040
:201DF0003DFB4844A0602069C17E01F0EF01C1762069C17E41F08001C1762069C17E01F0C5
:201E1000F00141F00201C176B868216940440862022017E10621317018B911F01FFB484464
:201E3000A060DFF860030168887C0AF0B5FB2069C17E01F0EF01C1762069C17E41F08001E7
:201E5000C1762069C17E01F0F00141F00201C176B8682169F3E001980178802913D10820E2
:201E7000C94930700A78012A03D0C4484178022903DB39690120C87213E0DAF828003A69C5
:201E90000178D1720DE0C049072030700A783869012A02D10121C17203E0DAF828104A7894
:201EB000C2720298B54A8179019891704DE10098002819D00199009A007891420ED1401E1E
:201ED000012806D9C01E05D1AE480168887C0AF063FBB8E0002010F00FF9B4E0012804D02A
:201EF000022815D0042819D034E1A54801680A7A1BF80200307011F0B1FA3918A06811F004
:201F1000A9FA18B911F0AAFA4844A060012099E00520307002210098A97016E106209949DA
:201F300030700A68907C0AF037FB8AE093494878002800F0BA8002F0FFFB10F0C1FB0290B5
:201F5000016801914C688D49887810F0B9FB039010F09AFD10F0070F7AD0A87806F0FEFB9F
:201F700000904768019909F0FFFC022870D000990A78012A04D0022A24D0042A40D064E05E
:201F90007F4B19680A7A1BF80230337018B911F065FA4844B8603869C17E01F0EF01C176AD
:201FB0003869C17E41F08001C1763869C17E01F0F00141F00201C176A06839694044C861C4
:201FD00001203FE00521317018B911F047FA4844B8603869C17E01F0EF01C1763869C17E5B
:201FF00041F08001C1763869C17E01F0F00141F00201C176A068396940440862022021E000
:202010000621317018B911F029FA4844B8605D480168887C0AF0C0FA3869C17E01F0EF01C8
:20203000C1763869C17E41F08001C1763869C17E01F0F00141F00201C176A0683969404435
:2020500008620420A87000987FE0002010F054F803980299884226D001984B490278802A20
:2020700012D1082030700978012903D043484178022903DB21690120C87210E0DAF828000B
:2020900022690178D1720AE0072030700978206901290EBF0122DAF828104A78C27202987A
:2020B000364A8179917001984FE010F0EDFC10F0070F55D0A87806F051FB04462078D4F899
:2020D00004A0012804D0022817D0042826D047E02B490A68107A1BF80010317011F0BEF909
:2020F0003918DAF8080011F0B5F920B911F0B6F94844CAF80800012025E00520307011F02B
:20211000ADF93918DAF8080011F0A4F920B911F0A5F94844CAF80800022014E00620307096
:2021300011F09CF93918DAF8080011F093F920B911F094F94844CAF8080012480168887CBD
:202150000AF02AFA0420A870204605B0BDE8F04F08F070BA05B0BDE8F04F00200FF0CCBFB1
:2021700005B0BDE8F08F00BF8023002060450100289A0110F0D8FFFF6F4F0020684E002001
:20219000104F0020184F0020734F00202DE9F843DFF84804DFF8485401781D24082984B041
:2021B00000F21282DFE811F016020900090009000900B200590116021602DFF82864DFF80F
:2021D00028843068036803F10807062207F1080102A810F063F90622B91C684610F05EF90C
:2021F0003878C10900F00F02032AC0F38019DFF8FC7339D17079C0F38000814240F0DF811C
:202210003169062202A80FF01FFE002804D06946484611F01BF9002800F0D1812946684651
:2022300011F010F90146FF296FD03868807A4C43002818BF02280BD0012818BF032864D149
:20225000681C2A5D0119404611F0F8F810285CD0E81D07196B463A462919404611F0EAF86D
:20227000062269463846A8E100F00F00052862D17079C0F38000814247D13169062202A8AE
:202290000FF0E2FD002840D06946484611F0DEF800283AD02946684611F0D4F80146FF2979
:2022B00033D03868807A4C43002818BF01280BD0022818BF032828D1681C2A5D011940460F
:2022D00011F0BCF8102820D040F202400DF062FFE81D07196B463A462919404611F0AAF87E
:2022F00006226946384610F0D9F8C148C14A41F20441418041834186BF480180BF49C04838
:2023100011600121007807F0A7FD58E1BD4E3068016801F1080999F8000010F00F0F1CBF35
:2023300000F00F01062908D000F00F02022A1CBF00F00F00012840F04D81062209F1020133
:20235000684610F0ABF899F80000AF4FC0F3801800F00F0001283DD1062209F1080102A837
:2023700010F09CF899F800004FEAD01902A9484611F06CF8D0B13868807C022818BF03281F
:202390005ED105F10D0102A80EF0D2FD002857D039680120C8720622707940F00400707112
:2023B00002A938680C3010F079F813E02878814510D10622691C02A80FF046FD50B12878A1
:2023D000717960F38201717106223868691C0C3010F064F86946404611F038F800282FD0D9
:2023F00070696946001F11F021F8002828D12946684611F027F801463868807CFF2920D0B3
:202410004C43002818BF02280CD0012818BF032816D1681C73692A5D0119181F11F00EF8C7
:2024300010280DD02919E81D071974696B463A46201F10F0FFFF06226946384610F02EF84A
:20245000C8E0002818BF0228FAD17069012342466946001F10F0E6FFBCE06C4E3068016841
:2024700001F1080999F8000010F00F0F1CBF00F00F00012824D1062209F10201684610F0CF
:202490000DF899F80000DFF88881C0F3801700F00F00012848D1062209F1080102A80FF057
:2024B000FDFF99F800004FEAD01902A9484610F0CDFF20B3D8F80000C07A022818BF03284F
:2024D0007DD105F10D0010F0A9FF002877D105F10D0102A80EF02CFD002870D0D8F8000076
:2024F000062202A90C300FF0D9FF707940F004007071062202A9E81D0FF0D0FF14E02878AE
:20251000814511D10622691C02A80FF09DFC58B12878717960F3820171710622D8F80000D1
:20253000691C0C300FF0BAFF6946384610F08EFF002844D02946684610F084FFFF283ED047
:20255000D8F800104443887A2F1920BB887C10F0B7F8804698F82601022818BF032800D0B3
:2025700068BB295D00F00100814228D108F5907406222146781C0FF067FC00B3012088F81B
:2025900026010622717941F008017171204669460FF084FF0EE030692A5D791C001F10F07D
:2025B0004DFF10280BD030696B46FA1D3946001F10F040FF06226946F81D0FF06FFF31687C
:2025D0000A680020107105E000200FF095FD862010F020FF05B0BDE8F08300BF6F4F002013
:2025F000AC450020F44B0020CC470020104F0020204A0020204F0020504F00205955011012
:202610006E4F0020D04B0020144F0020AC4B0020184F00202DE9F84FDFF8BC13DFF8BC23B8
:20263000DFF8BC5308700821002010600D23DFF8B4034FF44D72017043808280DFF8A803FB
:202650000560AC7EDFF8A4030470FF2CE97E417008BFFF292A7F82706B7FC370AE7F06715B
:20267000ED7F457115D1FF2A08BFFF2B11D1FF2E08BFFF2D0DD1DFF878130A7802704B782F
:2026900043708A788270CB78C3700A79027149794171DFF860130278DFF85C83DFF85C9363
:2026B000DFF85C730A70FF2543784B7082788A70C378CB7002790A714079487188F80050AE
:2026D00088F8015088F8025088F8035088F8045088F805500020CB490880D9F83440CA49B7
:2026F000607808702278C9493A70A0780870A2681079C74A411E1170E078C649C64A087021
:20271000E068106008B90FF0F7FC2069C34E306008B90FF0F1FC3068DFF804A30168884719
:20273000326852F8041F50468847BE48BE49CAF82000CAF824106069BC49086008B90FF042
:20275000DBFCA069BA49086008B90FF0D5FCE069B849086008B90FF0CFFCDFF8DCB2B74CE8
:202770009BF8040010F0B2F80028206075D09BF80500B34E10F0AAF8002830606DD09BF858
:202790000600DFF8C0A210F0A1F80028CAF8000063D09BF8070010F099F8AB490028086085
:2027B0005BD039789BF80000C91C484380B210F08DF8A649002888604FD03878002862D04B
:2027D000BBF80210484380B210F080F8A04A0028506042D0387810F079F89E490028086083
:2027F0003BD03878400010F071F89B490028086033D038781821484310F068F8974A1060C9
:2028100058B33878400110F061F89549086020B33878000110F05AF892490860E8B13878AB
:20283000000110F053F890490860B0B138783021484310F04BF88D4A106070B18C483978DE
:202850000078484310F042F88A4A106028B1387810F03CF88849086018B9BDE8F14F06F045
:202870001FBD4FF0000B09E00FF0F0FF0021418081600180022303710BF1010B39785FFA5C
:202890008BF08842F0D32268694F0120107121680D732068457321688D732068C573216821
:2028B0000D7400212068457400202268D172A0222168487103212068C28001720720226822
:2028D00050720021206881722821206801224182C2760020216848770022206880F85E2093
:2028F0000121226811770120216881F85D0001223068027131680D733068457331688D73E4
:202910003068C57331680D7400213068457400203268D172002231684871306882724FF40B
:2029300020703168C88008818A7401213368D974DAF800201573DAF800104D73DAF8002077
:202950009573DAF80010CD73DAF8002015740022DAF800104D740121DAF80030DA7200236A
:20297000DAF800201171DAF800104B71DAF80010C88008818B720520DAF800209374DAF895
:2029900000103E4AC874106880473968054608688047396851F8042F00209047D9F80C10F0
:2029B0001C4B0A881878364902430A802846354A136898470C21344810F028FD404610F095
:2029D00021FD10F01BFDBDE8F44F034800784FF4005107F041BA00BF6E4F0020044F002071
:2029F000B63F0050604E0020084F00202C4E0020E81200503C4E0020344E00206045010067
:202A10007B4F00200C4F00206D4F00206B4F0020724F00206C4F0020F04E0020F44E00200F
:202A30007C4B0020DD280100FD280100F84E0020FC4E00204C22002054190020104F002009
:202A5000144F0020184F00201C4F002080230020684E0020004F0020C0230020804E0020D8
:202A7000844E0020884E00208C4E0020904E002076190020C4230020C8230020A8110020CC
:202A9000544F0020AC110020F84D00202DE9F84F0D46E80788B00CD50FF0E8FE30B1002182
:202AB0008160DFF8E803006800B1804785F00100E9E128074FF01D0BDFF8D46375D5DFF87E
:202AD000D4130A68907C0FF0FBFD044604F5907094F8267107904FF00008DFF8B80301684B
:202AF0008A7CC146FF2A04BF00200FF005FB079A3946304610F07EFC07998246384610F0B8
:202B1000A5FC0BFB0AFBC0B1BAF1FF0F26D016F80B7006EB0B0047F00207411C079107F028
:202B30000100F21D84F8260102EB0B080799062204F590700FF0B2FC10E00799384610F056
:202B500055FC002818BFBAF1FF0F07D006F10D00584410F063FC08B947F00207CD48016807
:202B7000C87A022818BF032806D106F10D0010F055FC08B906F10709002006903B46E18E3D
:202B9000090905910022A08E0490618E0798CDF8088049080391CDF8049000900020A179B6
:202BB00010F020FC85F008006DE1E8060FD500210022002306910592049103930291019267
:202BD0000091022010F00EFC85F010005BE1A8070FD50021002306910591049103930291A5
:202BF0000191009101223C2010F0FCFB85F0020049E16807A84F40F18A80A84881780024DD
:202C10000794FF2904BF00200FF076FA386890F8A0000FF055FD80463868C07A98F826918F
:202C3000022818BF032808F5907A06D106F10D0010F0F4FB08B9F01D07905146484610F0FD
:202C500005FC90B33868807A002818BF012804D13146504610F0F6FB04E05246494630460A
:202C700010F0C8FBFF2836D00BFB00FBF01D00EB0B040622514620460FF010FC16F80B0003
:202C9000396840F0020906EB0B0000F1010A887E00F0010088F826010622386800F11401E4
:202CB00008F590700FF0FAFB15E05146484610F09DFB80B152464946304610F09BFBFF28D6
:202CD00009D006F10D010BFB00F2881810F0A6FB08B949F0020908F12C004B460178069102
:202CF0004289120905920122B8F822100491C08807990191400803900294CDF800A000203D
:202D100098F8061010F06EFB85F00400BBE028060FD500210023069105910491039302913F
:202D30000191009101223B2010F05CFB85F08000A9E0E8044CD5F11D06F10D0010F04EFBA5
:202D50003868017A012918BF042932D1C17A02291EBF0329817E01292BD1817E00F114027D
:202D7000304610F047FBFF2812D00BFB00F0341804F10D0010F052FB50B9E11D04F10D00E8
:202D900010F02CFB38680622E11D14300FF086FB3868C07A022818BF03280AD106F10D008D
:202DB00010F03CFB28B938680622F11D0C300FF075FB3B4842683B4800784FF480510CF032
:202DD0004DFF10B18E200AF0E7F885F480505AE0A80505D50FF010FE334901200860FEE74E
:202DF000680504D508F003F985F480604BE0680405D581200AF0D0F885F4804043E0A90453
:202E100040D52A4C206810B100200FF075F9284E4FF0FF30206010F0DDFA3168254C51F8B3
:202E3000202F684690472449244B486A8A6A009001920293C86A0268086A0392ADF810001C
:202E50000A6B1178002904BF5068002805D19068002804BFD068002806D0217050686060A0
:202E70009168A160D068E06021463468144A266814486B46B0471449086004F095F985F41D
:202E9000005000E0002009B0BDE8F08F204F0020AC450020184F0020104F0020684E002079
:202EB000784E00206E4F0020FC002043044F0020F04E0020684500207C1600206D280100FA
:202ED0002C4D002050220020EC4E0020FEB5DFF84803DFF848430578DFF84403DFF84473FD
:202EF000DFF84423DFF844130D2D41F2064641F202434CD8DFE815F08E010E000E000E007C
:202F10000E0068009C00DF000C0145014501630163016A01206041F20446DFF81403418830
:202F3000B1421FBF478BB742478EB74203D11680DFF80003B6E00029DFF8FC6211804FF40B
:202F5000A0573AD0491E3DD0491E36D040F2FE3CB1EB0C011CD0091F01291FD94FF47F7CF6
:202F7000B1EB0C011CD04FF4406CB1EB0C010FD0891E01290CD9091F0AD0491E01290DD906
:202F900040F2F932891A012917D9091F08D039E1022D14BF1780A94E2660EAE0A84EFBE735
:202FB000A8490A68157A012D03D1438043834386F2E7478047834786EEE700200FF09CF8FC
:202FD000832023E18F2021E19F4D698811800029206050D0491E67D0491E4CD040F20240BD
:202FF000091A23D0491E46D040F2FB30091A17D04FF44060091A3ED0491E17D0491E0129D4
:2030100032D9091F12D0491E35D0491E0ED04FF47E70091A2FD0491E08D0C91E06D045E066
:203030006E80012009F00AF92530A873874839E087494B881380002B20601CD05B1E33D0D4
:203050005B1E18D040F202401B1A2AD05B1E12D040F2FB301B1A1DD04FF440601B1A0AD090
:203070005B1E1ED05B1E012B40F27D809B1E0ED09B1E16D05B1E76D05B1E12D04FF47E7084
:203090001B1A70D05B1E0CD0DB1E0AD00EE0714921606EE0887B4E8025280CBF2720401E7E
:2030B00088736D48206064E08F2060E000200FF023F884205BE0B978FF2939D0206018206A
:2030D000664B41431868851C40F204466B5A13809B1B012B624A71D94FF47F769B1B0FD011
:2030F0004FF440669B1B032B84BF5B1F012B0BD99B1E012B62D940F2FD369B1B33D103E004
:20311000801C41F201434352226006F003FC30E0B978FF2952D020601820504D414328688C
:20313000861C40F20447755A1580ED1B012D4D4A70D94FF47F77ED1B11D04FF44067ED1BD2
:203150000FD0AD1E012D84BFED1E012D09D9AD1E012D5FD940F2FD37ED1B04D101E0801C38
:203170004352226005E000200EF0C6FF852010F051F903B0BDE8F0403B480078012106F0D6
:203190006BBE4888108040F2044290421CBF41F2084290423ED041F60402904211D1334CA4
:2031B0003348344B00680025CDE900450222324C256855F8086FB04730490880F7BD48880E
:2031D000108000200EF098FF85201FE04888108002280DD940F20442801A1BD040F6FC72E5
:2031F000801A05D0083815D04FF47F72801AE8D1887B801CC2B2B52AA8BF662088730020AA
:203210004880F7BD00200EF077FF8420BDE8FE4010F000B9F7BD00BF6F4F0020204F00206E
:20323000FF2B0100684E0020504F0020CC4C0020204A002059550110615A0110B15401105B
:20325000755B0110104F00209C4C0020C1C600006C4C00201D360000DDC20000804E0020B7
:2032700031390110315F00006E4F002002000080EC4E0020F10A0100F04E0020424F00206F
:203290002DE9F84FD74CA178FF2904BF00200EF033FFA0780FF014FA044604F1680504F184
:2032B00090062968086810B10021E1830CE0A87B002804BFA97E002906D13078002801BF70
:2032D000207F0128608CE0832189E08B4118491C6181204610F07AF801281EBFC2480178B1
:2032F000012904D121890020491CE08361814FF6FF77A87E01280DD1AA8B6189208910F09B
:2033100061F838B1218960894A1C93B298421BD0A88B0FE03078012816D1728861892089F1
:2033300010F050F880B1218960894A1C93B298420AD0708892B2904206D03818608180B2CB
:2033500010F03CF83F18E78304F5967999F8040020B120890021401CE183608104F12E0765
:20337000A87E01283ED12289A88B521C92B2904238D1608104F18601204610F01BF8A88C6A
:20339000608400212177E183E08961894118A181A88B218910F012F88046B988288C6A8CB6
:2033B00001FB0808E88C8A4204BF3989884202BFAB8CF9888B4207D000090090AB8CA1795B
:2033D0005208002010F07EF8A87F3870698CB980A88CF8802046E98C39810FF0E7FF0220A8
:2033F000A87601E0B7F80480B4F81EC022687F4ED2F80CE00CF1010000FB08F340F6C410F6
:2034100000FB03F18E44C2F80CE03668DFF8E0E13678BEF80080774AB609032E11D1D67B37
:20343000F60748BF4FF000080BD408F101081FFA88F6012E12BF668AB9F8066006F2DC5688
:2034500000E0668A5E434FF4C87AB6FBFAF6761C6661AEF80080A3614FF0180894F806A0B1
:2034700084F820C008FB0AFADFF88CC1DCF800E023680EF1080656F80AB0C3F810B094F85A
:2034900006A008FB0AFACDF800A0D3F80CB0D4F814A0ABEB0A0ADDF800B046F80BA094F85F
:2034B00006A008FB0AFA56F80A609E600EF10C06A37908FB03F30EF10C0EF65C06F0F0061C
:2034D00046F002060EF803604FF0000ADCF800E0A6790EF1020308FB06F623F806A0474BC3
:2034F000A6791B68760103F1140AD4F814B05AF806A00AEB4B0A03F1140B4BF806A0AD7E98
:20351000022D0BD1A5796D0103F1140697F800B056F805A000FB0BAA46F805A0BD88D27B9F
:20353000A779D60737D508FB07F70EF10802D659A6F5A86A0EF1080646F807A0A77908FB77
:2035500007F7D2592768511A3961BA6003F11402A1794901575807F5F667575003F114015E
:20357000A27952018958C9F800106843244A156BA779296803F11C067F01401AA0F51670C6
:20359000F0512049A07903EB40100B78012B14D10121C17214E003F114027F01D1592A4619
:2035B0004243A1F5E661A2F516729142DDD3082120460FF083FF012011E0916A4A78C272E4
:2035D000A179DCF8000008FB01F281182268516007200D490870204609F090FE0020BDE87C
:2035F000F28F00BF684E0020784F0020084F0020E82300205C4D0020804E0020844E002073
:2036100060450100734F00206F4F00202DE9F84FC24DDFF80C832968DFF808A3887C0FF04C
:203630004FF8044628680021417104F12E062868BD4D0CF0ADFA0120607104F5937998F899
:203650000100401C88F801001827802009F0E2FC20606969C160B548018949007180C07959
:20367000B1884000307049003089B18000013081314620460FF09EFE0520A08120460FF019
:2036900095FE28680FF08EFE062210F8081FC1F3801189F80010811C04F590700EF0FEFEAF
:2036B0002968A34D0A680020107141F60202A1792868794342520021A3797B430344001DD2
:2036D0005980A2797A438150012120460FF066FEA27929687A430A449073A179286879434D
:2036F00001440020C873A1792A6879431144887BF072DAF80020A079296802EB4013784361
:20371000084414310361A0798A4A78430A50A0790FF040FEA179DAF8002049015050A1793C
:203730004B01D05820B9072120460FF0C7FEF0E0DFF804B2DBF8000000EB01100FF026FE8B
:20375000A179DBF80020DAF80000DFF8F0B102EB0113021D4901535004F16801A3795B011F
:20377000D2580A60A3795B01C2588A60DBF81410097894F806E0CA074CBF102200228B077D
:203790004CBF202300235FEA417C4CBF4FF0400C4FF0000C09074CBF802100211A434CEA51
:2037B000020200EB4E100A4342F00F020272DAF80010A07901EB40120B215172DAF80000AE
:2037D000A27900EB421104208872DAF80020A17902EB41105A4A1378012B02D10121C17295
:2037F00003E0DBF828100A78C272DAF80000A279636A00F10C0152018B50A17900EB4110D9
:20381000A16A0174DAF80000A27900EB4211A06A000A4874DAF80010A07901EB4012A06ADA
:20383000000C90740821474A107806F015FB2168A2792868CB687A4302449360CA68CB685E
:203850000A618B6000F10C02A17979430C30535C03F0EF034354A0792968784301F10C0261
:203870000C31135C03F07F030B54A0792968784301F10C020C31135C03F0F00343F0020389
:203890000B54A27928687A431044417B01F0F00141F001014173A079B688DAF800204FEAF6
:2038B000401C40F6C4104643DBF83000016802F11403761AA6F5167643F80C60A07902EB2F
:2038D0004010C17C01F0F00141F00401C174A179286822684F43C1195160B9F83A001B287F
:2038F00004BFB9F83C001B2809D1B9F83E00B0F5A47F04BFB4F86601B0F5A47F03D014218E
:203910002046FDF7A1FA104908200870A27988F80220BDE8F14FFEF7EDB900BF184F002026
:20393000684E0020844E0020AC4B0020844C0020804E00205C4D00208C4E00206045010051
:20395000734F00206E4F00206F4F00202DE9F04F09AFADF13C0D08900A92388809911E46D4
:20397000ADF81800101C08BF002000F07581017800274FF0010B401C4FF0FF39B846DA46A5
:203990000A9061E1252940F056810178401C0A902D2918BFADF8068004D10178ADF806B076
:2039B000401C0A9030291CBF4246434604D10178401C5A465B460A902A29CDF800804D460C
:2039D00017D1049330680A9BCDF80890C01C20F00300001D306050F8044C1978002C009439
:2039F00003F101000A9018D5ADF806A06442009413E044460AE0600000EBC4004018A0F157
:203A100030040A9801780094401C0A90302901DB3A29F0DBCDF8089004932E2929D101789C
:203A3000401C2A290A9011D13168CDF80880C91C21F00301091D316051F8045C002D48BFD7
:203A5000454601782B46401C0A9011E0454643460AE0680000EBC5004018A0F130050A9824
:203A700001782B46401C0A90302901DB3A29F0DB02930AB1224604926C2904D04C2918BFF0
:203A9000ADF8048004D10178ADF804A0401C0A900BA8CDF80C800FAB07906429059300F0F6
:203AB000828069297FD0BDF818C075296DD0782969D06F2965D070294ED063293ED0732917
:203AD00022D00A98401E0A90099801281AD966490C68B5F1FF3F03D0A84288BF6D1C05D81C
:203AF0006FF00041814294BF0D1C099D029508A80AA932466B46A04709993F18091A039870
:203B1000099165E0454617E03068C01C20F00300001D306050F8040CBCF1010F014608B9E3
:203B30004FA0014607910EF0FDFD0390B5F1FF3F4FD0A8424DD9039528464AE03068C01C65
:203B500020F00300001D306010F8040C8DF82C005D46039558463CE0082035680490E81C7A
:203B700020F00300001D306050F8041C082210230FA809F023FF401E079040210170079878
:203B900023E0082302E0102300E00A233068C01C20F00300001D306050F8041CAA42BCBFC2
:203BB0002A1C04920DE03068C01C20F00300001D306050F8041CAA42BCBF2A1C04926FF0EE
:203BD00009030FA809F0FAFE07900599081A0390009C241ABDF8065000945DB906E008A812
:203BF000202109AA0DF006FD7F1C009C641E0094F5D50398401EB0F1FF3F03900FD1BDF8AA
:203C1000060001281CD10098401E009018D408A8202109AA0DF0EEFC00987F1CF4E70798CE
:203C3000017809AA08A80DF0E5FC0798401C079003987F1CDEE708A809AA0DF0DBFC7F1C5B
:203C50000A980178401C0A9000297FF49BAE089808B14146017038460FB0BDE8F08FC046A6
:203C7000286E756C6C2900C034450100BB482DE9F84F0025BA4CB849056094F8E200002867
:203C900000F06581012800F02F81B64E02283CD0032840F05C8151F8250CD4F8B8100029CC
:203CB000A0F5C060C4F8D400B8BF49420028B8BF4042814226DA4FF08057D7F8A401456892
:203CD000B4F8BC0030214FF47F42082300903046A847D7F8A4014568B4F8C00004214FF402
:203CF000F802122300903046A847D7F8A401B4F8D070456820214FF440620A233046009723
:203D1000A847012584F8D8501CE151F8258C0EF073FE2F4600B901273946934F38680028F5
:203D3000FCD0B146012609F10409D9F82CA03E6009B10EF067FECAF30720C4F8BC000EF0D0
:203D50005BFEAA4600B9B2463B68002BFCD0D9F800B0BAF1000F3E6001D00EF053FECBF308
:203D70008440C4F8C0000EF047FEAA4600B9B2463B68002BFCD0D9F81C90BAF1000F3E60A0
:203D900001D00EF03FFEC9F38120C4F8D000B8F5C061C4F8B81000F09C8094F8D80068B93B
:203DB000C4F8D410D4F8C000C4F8C800D4F8BC70C4F8C470D4F8D030C4F8CC30D4F8D40037
:203DD000D4F8BC30002854BF02226FF0010204F1C8010F6800EB40008018421000EB927221
:203DF00007EBA2000860D4F8C810C4F8C43000291CDD1E293CDDD4F8CC0030B93429B4BF90
:203E100015391E21C4F8C81025E02A29BABFD4F8C8000B381E20C4F8C800D4F8C4003F2810
:203E3000B4BF401C3F20C4F8C4001FE0D4F8CC00032812D011F10B0FC6BFD4F8C8000B30B0
:203E5000301CC4F8C800D4F8C4000028C4BF401E051CC4F8C450032508E011F1150FC6BF3D
:203E7000D4F8C8001530301CC4F8C800C4F8CC504FF08057D7F8A401B4F8C43030214FF4F3
:203E90007F424568374800930823A847D7F8A40104214FF400321123456832480096A8478A
:203EB000B4F8C860D7F8A40104214FF4F802122345682C480096A847D7F8A40120214FF475
:203ED00040620A23B4F8CC60456826480096A84701E084F8D85040F2FF50404502D8801C8A
:203EF00040452FD2082030E051F8251C1F4F4BF2F5204843060A3868C0F3814001280CD1F5
:203F10001B480068006880470CF0EAF80EF080FD3111C010484306EBE03694F8E50030B940
:203F30001448006820F07F403618760801E084F8E5501148310C0660012741600F4D876078
:203F5000287808B90B2000E0052084F8E40003F097FBBDE8F88FC0462D400C402C500C4028
:203F70008C10002000A00C4000800C40B43F0050EC010010102009403C600C40E1430100F7
:203F90002DE9FC47DFF8C8A20F460546F80B80F00F81AA4EDFF89882B80F80F0C180B808B3
:203FB00080F0B5803809C0F036819F480178090980F0A880007830F07F0040F0A380684682
:203FD00007F036FC012803D10098002800F09A8096480078002840F0958001240025E8B23A
:203FF0000EF05AFB48B1837A3BB1847290F9090004FA00F0C0B20CF01BFB6D1C032DEED308
:2040100045464FF0030905F1AC0085F810900EF006FE88490023984608680B6051F8080CEF
:2040300041F8088C84491A4605F134000EF003FE3068006B8047AA68A969801A000BC0F109
:20405000FF328A422CBF01444FF0FF31A961287F20B1E868A969B1EBC02F25D90DF064FEE8
:20407000414600B12146081C1BD0754840F60901018043464380417B04F00F0221F00F01D6
:204090000A434273017B03F00F0621F00F0146EA0102027343600EF0C9FB418811F4406FDF
:2040B000FBD02C774346AB616649086820F0020040F400700860644A42F8049C41F23006BF
:2040D000966014605023936014604FF4CA6696601460022042F80C4C44460C600CF098FC75
:2040F000112006F049FA287818B9686838300EF0AEFD687F18B16C7705200CF089FC534820
:2041100068612C7409F06AFD27F0080783E005F0B7F940467430006808B927F002077AE0CB
:204130000EF083FD34468146606D0068014604208847C8B1287CB8B14046083006689EB140
:204150002068EC68006B8047801BE860010BE960A14202D209194908E96040F6C4108842C2
:204170002CBFB1F5FA7FE86048460FF00BF90CF043FA90B1A8696FF4807100224FF0007399
:2041900004462846A04740466C300068002808BF47F0020701D009F021FD686900214FF09E
:2041B000806304460A462846A04727F0005732E00EF03BFD51460E684EB306F1280106C96A
:2041D0000A234FF0E0450B40154008BF002B1ED106F1280191E8300006F1280393E8060051
:2041F00006F12803AA43A14383E806000FF0CAF8B16871B1002D08BF002C0AD03069B6F90D
:204210003C10B2682B4616462246B04701E00FF0B9F827F4804727B15046394650300EF01E
:204230001EFDBDE8FC87C046EA230020D11B0020381A002014100440B1E300008C010010E1
:204250003C230020000004600C41044079A20000B81A00202DE9F04F8246DAF80070DAF89C
:2042700004600C465FEA0208ADF11C0D14BF00214FF0FF31DFF8409248460EF084FA002820
:2042900018BF0B2040F0158100258F488C4905708A48FC6052460EF0CEFC317B27200EF081
:2042B000CCFCB8F1010F07D0657002200CF0E0FD06200CF0DDFD01E0012060702078012837
:2042D00040F2AA80801E012868D9801E012833D9801E012800F2DE800EF0A7FC83464FF0D7
:2042F000805000F5EE77D0F8DC01A378466A009321782846062908BF01200190012002901F
:20431000A068228AE1686368B047814658460FF039F8B9F1000F40F0BF80B8F1000F02D087
:204330000EF080F802E050460CF042FC002800F0A3803868806A2AE00EF077FC83464FF0FD
:20435000805000F5EE77D0F8DC01012306680093A168A27860682478AC46042C08BF9C4607
:204370006346B047814658460FF00CF8B9F1000F40F09280B8F1000F02D00EF053F802E075
:2043900050460CF015FC002876D03868406880474C49C1F8B0510D6081467DE00EF045FCCE
:2043B00083464FF0805000F5EE77D0F8DC01E38A86690093E0680190208B0290A078039066
:2043D000207D04900121059122782846022A08BF081CE1786268A368B047814658460EF03D
:2043F000D1FFB9F1000F57D1B8F1000F02D00EF019F802E050460CF0DBFB00283CD0386845
:20441000006A80475FEA000946D1E078A168E28A236908F0B7FBBFE70EF007FC83464FF040
:20443000805000F5EE76D0F8DC01E38AC7680093E0680190208B0290A0780390207D2946A2
:20445000049001200590257805B9014608466268A368E178B847814658460EF093FFB9F146
:20447000000F19D1B8F1000F02D00DF0DBFF02E050460CF09DFB08B914201AE03068406996
:2044900080475FEA000907D1306802692169E078904781E74FF0FF39B8F1010F05D00220D0
:2044B0000CF0B6FA06200CF0B3FA03480EF0CFFB484607B0BDE8F08FD013002008140020B6
:2044D0000517010050450240F02300202DE9F0410446A078ADF1180D801F00F02281C01E29
:2044F00000F00881DFF84882401E00F08880914E401E6FD0401E00F00F81801E3DD0401ED9
:2045100040F012814546287A697AB8B96878002831D0A0880EF032FF071C00F00581A07A34
:2045300040080FD3787968B1E168890A0AD2B91D01AA06F0F1F90A2804D10321A0880EF0CD
:2045500019FFF1E0287B022802D1A07A0009F4D3A088797904F1080202F0C8FFA8690028CD
:2045700000F0E2804368002B00F0DE8000210A46A0889847D8E00521E0E7607806281ED1A3
:20459000A0880EF0FBFE071C19D045460E352878401E0FD0401E07D0401E10D1002140F26E
:2045B00009400A4600F02CFCA188387805220EF0DDFE04E0A0887979002202F097FF306821
:2045D000002800F0B1804368002B00F0AD8062780221CDE70EF052F9002800F0A5803068C0
:2045F00050B1076847B1206900906189227B637BE01C3C46A04797E0608901219FE7607880
:204610000026002867D1A079400864D308F11C00006800285FD101A831460E2208F034FE1D
:20463000A0880EF0ABFE071C7ED0606940B97879B91D06228DF80A0001A80DF02FFF19E01D
:204650006569287C062205F111018DF80A0001A80DF024FF07F10C00B91D06220DF01EFF34
:20467000B81D062205F111010DF018FF287C40F002007871A079C00839BF387900F0FD00DB
:20469000387940F002003871A079000939BF387900F0DF00387940F020003871A1799DF88B
:2046B0001120C1F3800010438DF81100080905D39DF8110040F008008DF8110001A821462F
:2046D00002F01CF930B940460078022105F0C4FB30462AE015264546A86928B343681BB35A
:2046F000A088627801219847F6B1A8694368032132463DE7E078211D002206F00DF90A289E
:2047100012DA410001EB800004F10C0225300421C0B204F0B7F807E0A088217B06F0F8FEC7
:2047300002E0A0880AF0D2FD012006B0BDE8F081E00C0020F80C00202DE9FE4F8A4C617867
:2047500011B900200DF0D8FC0EF088FE06464FF0000806F6C4160027844DDFF8149211E03B
:2047700038460DF0ADFF417951B12A68817902F8081008F101015FFA81F831460EF0F2FD77
:204790007F1CFFB299F800008742E9DB6178884505D000200DF0B0FC82200EF03BFE6078AA
:2047B000012840F0C380002701E07F1CFFB299F80000874280F2B48038460DF081FF0646B2
:2047D00070790028F1D02968B0790A7890421CBF00200DF091FCB079A0E0286810F809001A
:2047F0000DF06EFF00684268DAF808109068814204BF3E4609F1010900F0A680A8E028680F
:2048100090F800B001224FF4C0710FE0636803F5AD76835C01FB03F901FB0BFE36F809C011
:2048300036F80E60B44538BF9B46521CFBB29A42ECDB4FF6FF700EF091FD064658460DF016
:204850003FFF4C490068D0F804A00868D94630F8192060684FF4C07300F10E0103FB09F379
:20487000C85AB2EBD00F52D2720840F6C410424300920027404A0190029217E058460DF063
:204890001FFF01680A78802A03D1DAF81030009A5A610978402908D1029980790A6802EB64
:2048B0004011009800F5A060C8617F1C47452EDA2868C05D8345F8D001464FF4C07359431C
:2048D00063685A1803F5AD73D289595A53088B4202D2521A9045E8DA0DF0F2FE01684A685E
:2048F000019B9168DAF808207008A1F6C41103FB00200EF0AFFD0028C0D01E48006830F8BF
:204910001910491C20F81910286810F807B01948026800215B4622F813105846BDE8FE8FCF
:2049300000200DF0E9FB82200EF074FD617828680EF010FD286800780DF0C2FE002600688E
:20495000D0F804A04FF00109771CC145FFF645AFF6B2002E1CBFF8B200287FF450AF28688B
:2049700090F800B065E700BF684E0020004F00207B4F0020C0230020844E002010B50B7878
:2049900084074CBF43F0020303F0FD0304064CBF43F0800303F07F0304074CBF43F00803B2
:2049B00003F0F70384064CBF43F0200303F0DF0310F0AA0F0B7003D0107840F00C0003E08C
:2049D00018B9107800F0F300107010BD2DE9F8430D4600272878022814461E4669D16968E0
:2049F00008784978DDF8208000EB012080B25FEA08021CBFB0F5285F0B205DD14FF4285144
:204A1000401A0AD0401E23D0401E4CD0401E27D0401E2DD0A23846D04BE0DDF82490E868E3
:204A30000EF031F980B2A0EB08024A45BCBFA0EB08001FFA80F909EB0800162806DAA6F890
:204A500000904A46E86800EB08010DE00D2732E0E8680088022131802070000A60702AE08F
:204A7000062030800622E96820460DF017FD22E0E868B0B1082131800288227003881B0A07
:204A900063704188A1704288120AE270818821718288120A6271C188A171C088000AE0718F
:204AB00009E0308007E001213180E8680278227001E0378001273846BDE8F2832DE9F04792
:204AD0000F46814638780024022890461D4671D17868089E01784078DFF8E0A001EB002116
:204AF00089B24FF42852891A08D0491E2BD0491E50D0491E3BD0A3395AD05BE0F8680EF039
:204B1000C2F880B2B04204D3A919162903DB0D2451E007244FE0FB682A46414698190DF02D
:204B3000BDFCAD19F868ADB2C5F11602002140190EF0A7F8DAF8000000281CBF0268002AD9
:204B500039D0002123E08EBB022DE0D198F8000098F80110FA6800EB01201080DAF80000EE
:204B700000281CBF0268002A25D001210FE0EEB9062DCCD1F868062241460DF08FFCDAF8A8
:204B9000000000281CBF0268002A14D003214846904710E056B9012DB9D198F80000002892
:204BB00013BF0128F9680870802404E00B2402E0032400E001242046BDE8F087D8230020AF
:204BD0002DE9F04385B011F8017B0446082F04F1FD0004F1FC0804F1760504F5A076844A09
:204BF000844BDFF8149213D0092F21D00F2F2FD0112F01BF287801286878102840F0D580AA
:204C10000A78327648787076012184F83D11EBE00025521C4E5D5F5D3E434E55575D3E40AD
:204C300046556D1C082DF5DB204609F00DF874E00024571C0D5D1E5D35430D553A5D154041
:204C50000555641C082CF5DB022088F80000CBE098F80100820704D410F0110F57D01A22A4
:204C700066E008784A7800EB02203080CA78887800EB022070804A79087900EB0220B0801F
:204C9000CA79887900EB0220F080087A30724A7A887A02EB00227281C87A0A7B00EB022083
:204CB000B0818A7B487B00EB0220F0810A7CC87B00EB022030828A7C487C00EB022070821C
:204CD0000A7DC87C00EB0220B082487D897D00EB0120F082494801788A0658BF1A2212D59D
:204CF00004F5A670049071890391307A029021890191F0880090B38872883188204608F0A7
:204D10009BFCE0B11E2298F80100410710D40F2088F815002046FCF7B7F8002864D199F8A4
:204D3000000005B0BDE8F0434FF4804105F094B8204605B0BDE8F0430F21FCF791B870883A
:204D5000A882B188E9820221F0882883297400206882A18EA88AC91DE981618EB0EB510FED
:204D700002BFE88AA18E884202BF288BE18EB0EB111F18D02878012804BF68780F2805D0E9
:204D9000687918B10F21A972FE2127E0FC212046FCF75AF8F0880090B38872883188A07911
:204DB000FCF756F820E0102118E0491E20460EF0CDFA032F18D1A878042818BF0D2813D190
:204DD0006E78142E18BF0E2E0ED12F782046FCF743F8012F06BFAE72FD213146204605B0A9
:204DF000BDE8F043FCF730B805B0BDE8F08300BFEC4D0020B02300206E4F0020144E0020B9
:204E10007CB58D4D144602460026A2F58062182A1AD8DFE812F006010001F900F100EA005D
:204E3000DF00D800D3001900C800C100BA00B100A60019009F007E006D00660052004A0080
:204E50003D0035002B0023002D2880F2818002297ED121880BF048F80646EAE0012940F0EC
:204E7000E780002C00F0E4801235AAE0102940F0DF80002C00F0DC8005F15000102210E0C2
:204E9000012940F0D580002C00F0D280AD1D98E0262940F0CD80002C00F0CA8028462622BB
:204EB000603021460DF0FAFAC3E0012940F0C080002C00F0BD806D1D83E0602900D13CB928
:204ED000012940F0B580002C00F0B2800D3578E005F18600214660220DF0E0FA0120687313
:204EF000A7E0012940F0A48020780EF02BFAA0E0012940F09D802078022800F399800C35DC
:204F100028702078022814BF301C01200EF016FA8FE0072940F08C80611C684606220DF0AE
:204F300023F920786946324605F0F6FC04460A2C0EDA0EF0FFF938B9204603F0AFF90CF053
:204F5000C9FC09F0F7FF74E02C350120285570E002266EE001296BD12178042968DA0E35C3
:204F700050E0012964D1E87B21780028E97360D1207801285DD1E4E7012959D1217807290A
:204F900056DB102954DC0B353CE0012950D121780A294DDA093535E0012949D12178022972
:204FB00046DA08352EE0002942D10EF0C3F910B90DF014FBC3E70121103523E0012937D165
:204FD0000A3521781EE0012932D1217802292FDAED1D17E010292BD14035102014F8011BEE
:204FF000401E05F8011BF9D123E0012920D1217802291DDA2D1D05E0012919D1217804297E
:2050100016DCED1C297014E0012911D1217802290EDAAD1CF6E702290AD1208814352880FB
:2050300007E0012904D121780229D8BF6D1CE9DD182630467CBDC046E00C00202DE9F04F7C
:2050500001784FF0010BADF1140D913900F0D380814DDFF808821F3900F08A80203940F0A6
:20507000ED800446A1782869AA46002974D0C91E6CD0491E65D0B1F1090040F0DF80E07811
:20509000042800F0DB80102059460CF009FB266980466CA1CDF80C8030460BF035FC074618
:2050B0006BA130460BF030FC67B9002808BF002613D0082710F8011B7F1E08F8011BF9D149
:2050D000082009E03E464046102716F8011B7F1E00F8011BF9D110205E469AF8027066B3D8
:2050F000039994F90B900F2F8046049120DA67B13E4605F580750498294642460CF0DCFC57
:20511000A0B1761E05F11105F5D1049907EB07154246554405F58075284606F073FC7F1C9F
:2051300085F81090F8B28AF8020001E085F810902069227B002108F0A7F803980DF073F835
:205150007CE04146102000F0EDFF77E000208AF801008AF8020071E06189AAF80C100DF0DC
:205170003FFCE41C3E48676847602168016065E004466178E86A16290ED1002831D14FF6B7
:20519000FD703849384A00900023102000F0CAFF0146E86ACFB227B34146102000F0C2FF97
:2051B000C8B160880CF0E4F9E88121790B2912D0012902D1227A0A2A0DD013290BD00129A1
:2051D00002D1217A122906D0696A11F8300010B1204604F041FA217904F108000EF0A6F8AB
:2051F0002CE040F00200E86258460CF0ABF94FF0000B2C6222E047780E3F02D0B81E19D062
:205210001CE0818842F203028A4217D181680878A0B9491C01A80A684968026001AF4160E6
:205230003878124901AA00F0FD003870102000F079FF03E00820002101F028FD584605B0E6
:20525000BDE8F08F5441524745544445562D00C0414E432D00C046C008020020F17F011017
:205270001B0B00203DEE00000326010095B400102DE9FE4F05467B48002400680094C009D0
:2052900005D37948007810B920200BF0C5FC012D40F0E280DFF80092D9F8DC00012840F0F9
:2052B000D8800220C9F8DC000CF0FCFF01200BF0B3FC5FEA000805D00120C9F8DC000CF025
:2052D000FDFFCBE00DF0C7FCA34602906748684DC0F800B0A86A016801208847012804D1A7
:2052F000584608F089FD012000906248624FC0F800B0386811200DF09DFB00B101241020A2
:205310000DF098FB08B144F002040F200DF092FB08B144F004040B200DF08CFB20B128683C
:20533000564E016B308888470A200DF083FB20B12868534E016B3088884752480126066005
:205350002868816944F0200088474F4806600DF06BFB00F001010191400814D2286A816813
:205370004A4888478246BAF1040FF7D0BAF1010F04D1286A4268454803219047444908681E
:2053900020F003000860584600F09CF92B683868986B8047019801280CD0BAF1010F04D134
:2053B000286A42683948314690473949086840F0030008602F4806602868416920468847F9
:2053D0000B200DF037FB20B128682C4BC16A188888470A200DF02EFB20B12868284BC16AA2
:2053F00018888847274806600322C9F8DC20264BC3F800B02868416B204688470128F9D137
:20541000386804200BF008FC0446184806603868144800688009FBD30098012802D13046E4
:2054300008F0EAFC0DF0EEFA08200BF0F5FB07460298C9F8DC600DF075FF1648008808F053
:20545000A5F90CF03BFF57EA040018BF4FF0FF3804E06FF0040801E06FF001084046BDE813
:20547000FE8FC04614100940741100200C400940B8010010000222432C2009407640010066
:205490007240010028200860800104430040034024220840DC4301008C1000202DE9F0439B
:2054B0000446DFF8FC81DFF80892A2780025ADF1240D101C00F0A480801E7ED0401E01280C
:2054D00063D9DFF8E891801E3ED0401E00F0CE80401E30D0401F00F0C080401F40F0D1801B
:2054F0004646204696F828308188B769022BADF8081010D0012B15D0BBB9C188ADF80A1044
:205510000389ADF80C304289ADF80E208089ADF81000012107E02FB17A681AB1001D02A954
:20553000904702E029468DF812105E49102002AA00F0F8FD97E04846B6300DF0EFFE607877
:20555000002840F090809CE06078C0B960890090207B55490190E278231D102000F0E2FD2A
:20557000207B042840F08D8048460121057007AA8DF81C1040F2053001F066FC81E060789D
:20559000312804BF484605707BE0677897B940468189032A0BD08278C77811B9012A70D14B
:2055B00006E017436DD094300BF05EF869E00125857066E00C2F56D169E06078002860D1C3
:2055D0004646E77830784FB906F194000DF05FFB90B9306901210DF09DFE0DE00BF052FE6A
:2055F0000246B07906F1730749462B4600901020019700F097FD60706078002833D040E0EA
:20561000607800283DD12B4E454605F134000222009031461020034600F084FD05F14400EF
:205630000322314600901020034600F07BFDE01C026805F11C010A608088888028780BF0BF
:2056500021FE0246287905F154074946012300901020019700F066FD13E01749A288237B68
:20567000102000F05FFD012D0BD010E01349A288102002AB00F056FD1149A288102000F05B
:2056900051FD46461836306808B1006808B9012002E001462046884709B0BDE8F083C04602
:2056B000C40700200516011011850000C6070020094501109588000021B50000097F011055
:2056D000DDF200002DE9F84FDFF804B20746ABF13500DFF8F0810068800880F0E28075481C
:2056F0000068006880477E490831D1F8009000254FEA29715FEA995201F101010AD2C0F1FD
:205710003E0210F10A0F4FEAE202D8BF08229142B8BF111C684BD3F87C21C2F30462162A54
:20573000A8BF203A1B68C3F30443162BA8BF203B9A465218162A05DA12F10A0FB8BF6FF0BA
:20575000090200E015225D4B5D4E02F01F0141F4F8511980316811F0030F18BF0125C90821
:2057700028BF45F002050FB145F00405434693F90710411A052904DA9979A94208BF998880
:205790006FD0DFF844E10F28A0F10F0829DB08EB0011A1F1F0084FEA28210091072984BFC7
:2057B00007210091062988BF06215EF821600424774604EB81043C594FEA950CA41BEE082F
:2057D00004F0FF0124BFC4F3072631446F08AE0824BFC4F3074631446E0828BF01EB146142
:2057F00004E000214FEA950C6F080091009C5EF824E05FEA5C060EF0FF0424BFCEF307263F
:2058100034447E0824BFCEF3074634446E0828BF04EB1E64009E89B2A8EB06267143803146
:2058300004EB1124AAEB02010029D8BF0121342209F0FF074A4391B24FF6FF727943B1FB77
:20585000F4F18A4238BF111C802889B2998005DA10F1800FB8BF6FF07F0000E07F20D871DB
:205870009D711A4800681F2918604FF0000008D340F2FF128A4206D24908401C8A42FBD338
:2058900001E01F219980134F0F39090940EAC10047EA0001CBF8FB1F0026CBF8FF6FBDE80C
:2058B000F88F0D490D4F434608200F609B1D1870BDE8F88FEC0100103C1100506E62084061
:2058D00024220840B82300209C130050082009403500094000E7A48030100940FDFDA4000F
:2058F000AC3F00502DE9F04F044675488A46016894461F46BAF1000FADF13C0D4DD0BCF11E
:20591000000F4AD09AF8002001209040014244D0BCF80000B0F5C15F32D1DCF81430DCF8EC
:2059300018206848DCF81C104FF0030E0DF128080B93DFF894B10C9200680D91C0F3036974
:2059500058F8046FCEB10021351F05200B4655F8042FB2F1FF3F10D0934506D0401E01F1CB
:20597000040103F10103F2D107E0052B05DA705820F4702040EA09407050BEF1010EDFD154
:20599000C4F804A0C4F808C00DF04FF94F4D8046287820B140460DF0F5FC00208DE002F008
:2059B00047FE4B49086840F00200086007A80CF045FF002605F1D00007AA464909960AF040
:2059D000CBFB454905F5827007AA0AF0C5FB07A80CF004FFFF2105F1340007AB3F4A089140
:2059F00019210AF021FB3E4A05F150001A2107AB0AF01AFB3B49324605F18800134609F0B1
:205A1000EDFB3949324605F1AC00134609F0E6FB364A05F12000042133460BF0A7FE0E20BD
:205A300004F0D4FF05F174000CF00EFE05F16C000CF00AFE2E74072085F898012E77AE6124
:205A50006E770523AE602B49EB602A786961501C2870274B1E7040460DF094FCB1464FB9DA
:205A70002548B0E88C106946A1E88C100DC86F4681E80D0038682060398A618201206074E6
:205A90007B6813B940F6C4130646E3601B48A06126746061F86800B1A061B86800B1606148
:205AB0005822494604F1200007F0EEFB04F1380049460BF055FC20466C600FB0BDE8F08FBB
:205AD000D4210840541300500200F844381A002000200940FD220100E1A00000B1E3000074
:205AF00015E00000191D01007D200100ADF50000EA23002079A200007C4301006FBF0000F4
:205B10002DE9F04F0746880FADF1140DC0F0EA80764E301D006841688D68CC68486800B1B7
:205B30008047B046724E002D08BF002C0BD030680028FCD00020306005B1A84704B1A04760
:205B50006C480BF0CBFB6C480CF070FE6B4940F60A000880002048800A7B00F00F0322F0A5
:205B70000F0213430B7348604A7B4FF0010B0BF00F0522F00F0245EA02034B73BB687C7C39
:205B900058801A88B1468246A2F60202CAB141F21E05521B15D041F6E675521B012A20D8DB
:205BB0005A7E012C60F382025A7606D01A8B22F47C7242F434721A8313E01A8B60F309122B
:205BD000F9E75A7C012C60F382025A7405D01A8A22F47C7242F4347202E01A8A60F30912E0
:205BF0001A82BC68787440F60A02049400E03446666816B133889A42F9D16160637B00F030
:205C10000F0523F00F031D436573D8F86C603EB1F3681B88D51F9D4225D0921F9A4222D033
:205C30003E8C16B3786207F12005688097F82C2000F00F0322F00F02134387F82C3097F822
:205C50002D200BF00F0622F00F0246EA020387F82D304D604A7B00F00F0622F00F0246EAD9
:205C70000200487301E0C8F808A02548036882680192C168406B0093102220F0784040F028
:205C9000805003901F480291694605F0BBFED9F800000028FBD01C48C8F8140098F81D0091
:205CB000C9F800A090B9194800680068014658468847012810D0607B0BF00F0120F00F0037
:205CD00001436173124FC8F8147005E00AF08CF80028FBD00CF0B7FF48461C38C0F81CA099
:205CF0000499016005B0BDE8F08FC046381A00201C1004400100070601010E043C23002034
:205D10004C13005018000021913F0000E0010010DDEC00002DE9F04F0546804806680068C3
:205D30000F461C469246C4F399018900ADF12C0D0A010021803207F0A7FADFF8C891A9F1D3
:205D5000880002466E48016830469047A3088046610801979F1C21F00101F819009506EB20
:205D700080000390091DCDF808A07818434506EB800206EB870B3844049206EB8000069046
:205D9000C4F39C004FEA800000F1080007EB400000EB070206EB82020A9224F0030202F1AB
:205DB000080200EB020506EB85053A44059506EB82050A4407953A4406EB8202089206EB64
:205DD00080020992084406EB800A384406EB800518BF6FF0010040F08F8009F168000246BD
:205DF00041463046904700233CB10199264611F8010B761E40EA0303F9D1002B08BF0120F3
:205E10007AD000263CB10299234611F8010B5B1E40EA0606F9D1002E08BF02206CD0019996
:205E30005846C84703980299C847009881680498C8473548049A594681462846C84701280D
:205E500003D14FEA88042E590EB1032054E0BE0028460021324607F017FA0399049A284687
:205E7000C847012801D12F590FB1042044E0274F274C069859463A46A047079803993A4630
:205E9000A0470699089827460A46B84709980899069AB8470A9806991E4C2246B8472846AF
:205EB0000021282207F0F0F91B4809990A9A81462846C8472034284622460146C84707997A
:205ED00050460A46B84705980021324607F0DCF95FFA88F45046002C0CBF01225FFA88F273
:205EF00000216B5C445CA34218BF052004D1491C521EC9B2F5D100200BB0BDE8F08FC04639
:205F10008C4F0020B9DB0010C9DE0010E0170020F9E0001068410100C9E60010884F0020BB
:205F300079488078FF2800D170472DE9F84F0CF0C7FB054605F20F100178012908BF41784A
:205F500000F08A8005F58E74E18911B1207B03F083FF6889288105F17401887B022803D1F9
:205F700005F174000021817305F58979DFF89CE19EF80A009EF807309EF80C209EF80B1062
:205F90009EF80D60B9F8027000EB030890448844B044B9F80460761CA9F80460C719B9F804
:205FB0000060A9F802704644A9F800602468E4B1574F95F806B03F68182607F10E0A06FBD3
:205FD0000BFB0E371AF80BA034F81AB0C34424F81AB095F806A006FB0AF6BE5D04EB46043E
:205FF000B4F84A70C619A4F84A60002B08BF002905D1002A04BF9EF80D1000290FD02989BB
:20601000E88941180026A9812E74424841690A78900726D59EF80E00802822D022E018B163
:2060300000200126287405E0B9F80600401C0226A9F80600A8892989814206D08842E4D2AA
:20605000081A41F2AB029042DFDA287C08B1052901D0082100E03E212846BDE8F44F0DF08C
:206070002DBA812005F1740A8AF800002846FBF7DDFB012846D0012128460DF047F92846E0
:206090000DF040F901F0CEFF01283BD0FBF732FE214F3868B0B3B888AA7990421CBF4FF6DE
:2060B000FD7188422ED11D48007A0CF017FC040028D02670A8791A4960800A68A879115CB5
:2060D00021719AF900206271A4F80680B9F8020020810CF0CBFB050005D1FF204FF0FF31F7
:2060F000A072E16009E02878A0720DF0B7F90146A8680DF003F98008E06020463968BDE831
:20611000F44F0847BDE8F18F684E00205C4D0020804E002060450100A8230020541900200D
:20613000C82300200FB42DE9F04F09AF8146ADF1240D0CF0F7FC391D30F0010021F0030163
:2061500001F1040100F0E28005911420ADF8100000240294FF258DF812507E6806960DF023
:20617000C9F807460CF0DEFCDFF8B0B130F0010024D00DF0BBF8684E80460DF0B3F806EA1A
:206190000A061FFA88F10246090493B25846090C224641EA060A062163F31F4A30F80C6FD4
:2061B0004EB143681B689F4204D0491E02F10102F4D100E0D5B250460CF0C3F9484609F08F
:2061D000D5F80146FF2904D02846032205AB06F09DF90DF08FF807F029FC074620460090ED
:2061F0000CF0A0FC30F0010000F08F80002F00F08C804B4DDFF82C912A6800240021234640
:20621000484605F061FE06460DF068F82A68804600212346484605F057FE08EB0604009E8E
:206230004FF6F8794FF0010805460BE01EB1A6F10C0008F0ABF90598006868E0FEE7024692
:2062500052E01D46786800214FF000522B46FAF711FB002832D007A80DF11D0101AA06F003
:206270004FFC00BB9DF81C00062813DA9DF81C100BF10C02880000EBC100135A53B19945EE
:2062900008D0019A0CF036FC00281CBF019E4FF0000813D10199684608F01EF878684FF00B
:2062B00000510DF037F8B5F1FF3FCBD0002DC9D00DF014F8231A01D09D42C2D20BF0ACFEDD
:2062D000009D0DF013F8144C81460DF00BF8083704EA0A041FFA89F180B20904090C21435C
:2062F00060F31F4145B12A4652F80C0C0028A6D1386842F80C0C3D6008460CF022F9B8F1D7
:20631000010F9BD0B8F1000F90D0FEE7FEE709B0BDE8F04F04B070470000FFFFE8110020F1
:2063300024450100404B4C002DE9FE4F0E468246307AC10693461F464FF000090CD5584617
:206350000CF0C8FF030000F0E8800A223146504698475FEA00094DD130780C9D0D9CDDF8B8
:20637000388002281AD170680178407801EB002189B24FF42052891A012910D9891E3AD0D3
:20639000491E14D0FD397AD0491E00F08180491E6DD0491E73D0491E00F09580ABE0002C59
:2063B0002AD1F068017829800278416887E0002C22D101202880F1680A783A700021708947
:2063D000401C80B20CF082FF298860B10278921C51182980418979704289120ABA70416839
:2063F0000278F81C6CE0091D298004220021781C0CF047FC93E0002C66D1F06806880421E9
:2064100029803E70320A7A700DF1020130460CF05DFF040021D0D4F80C80BDF802204FF6B7
:20643000FF766B4631460CF04DFF40B9237862683C4802210CF042FF08B9ADF8006098F8CF
:20645000000002280BD1D8F804100222381D0CF025F82888801C288001E0ADF80060BDF821
:206470000000B870BDF80010090AF97057E0002C2AD1F068016850460CF0A8F902E01CBB98
:20649000F0680088022129803870000A787046E0F0680CF0F8FB80B2A042B8BF4FF007095F
:2064B0003DDB844208BF002205D008EB04028242B4BF4246021B2A8092B2F068011938467D
:2064D0000BF0ECFF2BE014B14FF00B0927E0F0680721298002783A7043787B704188B970B7
:2064F0004288120AFA7001793971C2887A71C088000AB87113E058460CF0DCFE5FEA0009AF
:206510000BD00F980290CDF8048000942B463A4631465046C847814601E04FF00E094846E1
:20653000BDE8FE8FB04101002DE9F04F704C04F110012046ADF11C0D08F0F0FE6D4D002221
:20655000012304F19400294609F056F904F1B809002202234846294609F04EF904F1340A5A
:206570000C20002110226070504606F08DFE04F1440B00211022584606F086FE002704F1DA
:206590001406376004F10A052F700720E771DFF86881277202226072414610200346CDF804
:2065B00000A0FFF7BFFD102003224146CDF800B00346FFF7B7FD0422102041460096134669
:2065D000FFF7B0FDB1461835BA464FF6FF7BA04602E0608D0BF0A2F820694B4A51464FF0C7
:2065F000FF33FAF747F9061C4BD0CDF804A002A805A901AA0AF0F2F9002842D1BDF80800A2
:206610000127102838D120789DF81410884233D1019801888B4524D00378A23B02D02E3B69
:206630001BD029E04179132926D1008901280AD16079022807D135480CF070FE01984088B9
:206650000BF06CF818E02F4910200522FFF76AFD81B22E480AF008F80EE0FEF71FFF0746B6
:206670000AE04088C00B07D304222549CDF8009010201346FFF756FD019810B10FB10CF0E2
:20669000A4FA700825D3E778A07857EA000320D098F800005FB9E2798DF80A20217A8DF85F
:2066B0000B10AB8803AFBB802A683A6002E003218DF80A10627A8DF81220A17A8DF8131068
:2066D0000AF0E0FD0D4902460DF10A031020FFF729FDB00880D36079401E03D0401E3FF438
:2066F00078AF79E70A49012004F01CFE74E7C046C4070020BD280100AD15010059440110DE
:20671000958800001D240100030000807C080020EC0700202DE9F04FADF1140D071C8B46C8
:2067300002930E9D01920F9C039500F0CB80BBF1000F00F0C780101C00F0C480181C00F082
:20675000C180281C00F0BE80002C00F0C080206A002800F0B780614D666A281D0068002EE8
:2067700000F0B080A16A0CF0A1FD40B2061C08BF6FF0020700F0A28020786288216A84F866
:206790002C6000EB80001218143290B288475249086030B9284640680CF084FD4FF0FF377D
