:20000000004000206D77000001C9011001C9011001C9011001C9011001C9011001C901107A
:1C00200001C9011001C9011001C9011001C9011001C9011001C901103FC9011089
:20003C002DE9F04F0F46BA4C0168E16241688068ADF1140DE060B748A1608047B648E16AA8
:20005C000160A168DFF8E8A24160E168DFF8DC928160B249002FA346C16066D03D68A8688A
:20007C0008B1AF490160E86808B1AE490160AE4C2878207068786070A878BE68A070317818
:20009C00B268E1707368A2602E696360EA6926627968E2620868E06068696062A8697B686B
:2000BC00A062286A9E68206395F8240084F834001EB9002008F0C6FF00E066617868C06843
:2000DC0018B9002008F0BEFF00E0A0617868006918B9002008F0B6FF00E0E06178684068ED
:2000FC0018B9002008F0AEFF00E0206128692062F86881680E6806B9C14EC0494FF00108FC
:20011C004E60C66881F8018036B9002008F09AFF4D462E68F86801E04D462E6000685446C0
:20013C00FB68A0615868E06107E0002008F08AFF4D462E684FF001085446361DB1493668C0
:20015C00621C04F114035020B04710B1286880688047DBF808008047AC4E002781463B4687
:20017C00A94877706946206104223370384608F02DF90098B0F5801F0CD020B908F052FB20
:20019C0003F03AFB08E007F027FB09F025FA0427778002E008F046FB04270020A34E2A68F7
:2001BC00A0600346B360906980477060984880F80080002141800A2009F0F6F9FF210A221F
:2001DC00A06209F0C2FBE01CFF21022209F0BDFB0A2009F0E9F98F4E3060306800210A2203
:2001FC0009F0B3FB002000F027F9404607F04AFD89480188FF2906D1022101807822001D94
:20021C00002109F0A2FB032000F012F983482B6807705F68002103AA102001ABB847A06A9E
:20023C00E1690527401D9DF80C207F1E00F8012BF9D1891EE161DBF80C104846884704F159
:20025C0020002B68626A049040461F69DFF8D08104F120034146B84710B12868806880479B
:20027C00B04608F015FC5FEA000903D004F0C8FE4FF0FF39002637E00298216910F8062C72
:20029C00A0F10C07032A02D171B388472CE0A16A9DF80EC005223046491E11F8013F9C4503
:2002BC0006D0521E00F10100F7D14FF0FF0A01E05FFA80FA2868BAF1FF0F00F1080011D003
:2002DC00387907F071FEB979012904D0022904BF0299887001E0029908700299504608F01D
:2002FC0089FD01E0006880472868C3690DF10E0102AA0DF10D0098470028BDD0D8F8000068
:20031C007700C35BB3B9761CF6B2052EF8DB34E0B809002041490010F8440020849C000075
:20033C00CF980000D5980000180C0020E80E0020480D0020052E20DADBF808008047D8F85F
:20035C000010002231F807A0CA53DBF80C108847344850F8262026705146304690470646D4
:20037C00FF202070DBF808008047D8F800107A5A16437E52DBF80C10884708F089FB0746AC
:20039C00B9451AD007B9284FE069B84238BF071CDBF80800804781462868016A206A884708
:2003BC00626A28681E49049B521C6262C6683846B047DBF80C1048468847A7682968606935
:2003DC0014318FB9D8F8000005270026835B33B10969606988472968D8F8000014317F1E43
:2003FC0006F10206F2D103E0096988472968143109684FF0FF30884733E7C0464C0E0020DD
:20041C0033750000D58B00005D920000DC0E0020CC0B002060180020540A0020701800200A
:20043C00FD7F0000F8AA00008EC2F5281C180020DFF800F0598801102DE9F84FA949AA4AC5
:20045C00AA4D08700821002010600D23A84840F23532017043808280A6480560AC7EA648FE
:20047C000470FF2CE97E417008BFFF292A7F82706B7FC370AE7F0671ED7F457114D1FF2A2E
:20049C0008BFFF2B10D1FF2E08BFFF2D0CD19B490A7802704B7843708A788270CB78C370B9
:2004BC000A7902714979417195490278DFF85482DFF854920A70FF2543784B7082788A70EC
:2004DC00C378CB700279914B0A714079487188F8005088F8015088F8025088F8035088F880
:2004FC00045088F80550002089490880D9F83440884960780870227887491A70A078087053
:20051C00A2681079854A411E1170E0788449854A0870E068106008B908F094FD606982497B
:20053C00086008B908F08EFDA069DFF800A2CAF8000008B908F086FDE0697D49086008B93B
:20055C0008F080FD7B4C7C4E207909F02DF83060F0B16079794F09F027F83860C0B1A079B6
:20057C00DFF8DCB109F020F8CBF8000080B1E07909F01AF87349086050B164490A782078A6
:20059C00921C504380B209F00FF86F49886018B9BDE8F14F05F026BF3168012008713268CF
:2005BC0015733068457331688D733068C57331680D7400213068457400203268D172A02293
:2005DC003168487103213068C2800172072032685072002130688172282130680122418246
:2005FC00C2760020316848770022306880F85E200121326811770120316881F85D00012288
:20061C003868027139680D733868457339688D733868C57339680D740021386845740020FD
:20063C003A68D172002239684871386882724FF420703968C88008818A7401213B68D97454
:20065C00DBF800201573DBF800104D73DBF800209573DBF80010CD73DBF8002015740022A4
:20067C00DBF800104D740121DBF80030DA720023DBF800201171DBF800104B71DBF800102F
:20069C00C88008818B720520DBF800209374DBF800102E4AC87410688047DAF800100A6827
:2006BC0005469047DAF8001051F8042F00209047D9F80C101A4B0A881878254902430A80F6
:2006DC002846244A13689847404600F045F800F047F8BDE8F44F034800784FF4005103F0B4
:2006FC00D5BE00BF6E4F0020044F0020B63F0050604E0020084F00202C4E0020E8120050CE
:20071C003C4E0020344E002008AC00007B4F00200C4F00206D4F00206B4F0020724F0020C1
:20073C006C4F0020F04E0020F84E0020FC4E00201C170020340E0020104F0020144F0020DD
:20075C00184F00201C4F002028180020C0090020544F0020C4090020DFF800F01D6E01100F
:20077C00DFF800F04D7101102DE9F04F09AFADF13C0D08900A92388809911E46ADF8180024
:20079C00101C08BF002000F07581017800274FF0010B401C4FF0FF39B846DA460A9061E18C
:2007BC00252940F056810178401C0A902D2918BFADF8068004D10178ADF806B0401C0A9062
:2007DC0030291CBF4246434604D10178401C5A465B460A902A29CDF800804D4617D1049389
:2007FC0030680A9BCDF80890C01C20F00300001D306050F8044C1978002C009403F10100C9
:20081C000A9018D5ADF806A06442009413E044460AE0600000EBC4004018A0F130040A987B
:20083C0001780094401C0A90302901DB3A29F0DBCDF8089004932E2929D10178401C2A29C9
:20085C000A9011D13168CDF80880C91C21F00301091D316051F8045C002D48BF4546017888
:20087C002B46401C0A9011E0454643460AE0680000EBC5004018A0F130050A9801782B4644
:20089C00401C0A90302901DB3A29F0DB02930AB1224604926C2904D04C2918BFADF80480B7
:2008BC0004D10178ADF804A0401C0A900BA8CDF80C800FAB07906429059300F08280692991
:2008DC007FD0BDF818C075296DD0782969D06F2965D070294ED063293ED0732922D00A981D
:2008FC00401E0A90099801281AD966490C68B5F1FF3F03D0A84288BF6D1C05D86FF0004116
:20091C00814294BF0D1C099D029508A80AA932466B46A04709993F18091A0398099165E036
:20093C00454617E03068C01C20F00300001D306050F8040CBCF1010F014608B94FA0014692
:20095C00079108F085FD0390B5F1FF3F4FD0A8424DD9039528464AE03068C01C20F003000C
:20097C00001D306010F8040C8DF82C005D46039558463CE0082035680490E81C20F0030080
:20099C00001D306050F8041C082210230FA805F0D1FD401E079040210170079823E00823BB
:2009BC0002E0102300E00A233068C01C20F00300001D306050F8041CAA42BCBF2A1C04921A
:2009DC000DE03068C01C20F00300001D306050F8041CAA42BCBF2A1C04926FF009030FA80D
:2009FC0005F0A8FD07900599081A0390009C241ABDF8065000945DB906E008A8202109AA3E
:200A1C0007F091FF7F1C009C641E0094F5D50398401EB0F1FF3F03900FD1BDF806000128ED
:200A3C001CD10098401E009018D408A8202109AA07F079FF00987F1CF4E70798017809AA4F
:200A5C0008A807F070FF0798401C079003987F1CDEE708A809AA07F066FF7F1C0A98017862
:200A7C00401C0A9000297FF49BAE089808B14146017038460FB0BDE8F08FC046286E756C50
:200A9C006C2900C000AC0000BB482DE9F84F0025BA4CB849056094F8E200002800F06581DC
:200ABC00012800F02F81B64E02283CD0032840F05C8151F8250CD4F8B8100029A0F5C060F3
:200ADC00C4F8D400B8BF49420028B8BF4042814226DA4FF08057D7F8A4014568B4F8BC00E5
:200AFC0030214FF47F42082300903046A847D7F8A4014568B4F8C00004214FF4F802122341
:200B1C0000903046A847D7F8A401B4F8D070456820214FF440620A2330460097A847012542
:200B3C0084F8D8501CE151F8258C08F0E8FD2F4600B901273946934F38680028FCD0B146DF
:200B5C00012609F10409D9F82CA03E6009B108F0DCFDCAF30720C4F8BC0008F0D0FDAA4674
:200B7C0000B9B2463B68002BFCD0D9F800B0BAF1000F3E6001D008F0C8FDCBF38440C4F869
:200B9C00C00008F0BCFDAA4600B9B2463B68002BFCD0D9F81C90BAF1000F3E6001D008F0EF
:200BBC00B4FDC9F38120C4F8D000B8F5C061C4F8B81000F09C8094F8D80068B9C4F8D410FC
:200BDC00D4F8C000C4F8C800D4F8BC70C4F8C470D4F8D030C4F8CC30D4F8D400D4F8BC3025
:200BFC00002854BF02226FF0010204F1C8010F6800EB40008018421000EB927207EBA2004B
:200C1C000860D4F8C810C4F8C43000291CDD1E293CDDD4F8CC0030B93429B4BF15391E219C
:200C3C00C4F8C81025E02A29BABFD4F8C8000B381E20C4F8C800D4F8C4003F28B4BF401CD4
:200C5C003F20C4F8C4001FE0D4F8CC00032812D011F10B0FC6BFD4F8C8000B30301CC4F87D
:200C7C00C800D4F8C4000028C4BF401E051CC4F8C450032508E011F1150FC6BFD4F8C800B7
:200C9C001530301CC4F8C800C4F8CC504FF08057D7F8A401B4F8C43030214FF47F4245681F
:200CBC00374800930823A847D7F8A40104214FF400321123456832480096A847B4F8C8602A
:200CDC00D7F8A40104214FF4F802122345682C480096A847D7F8A40120214FF440620A2380
:200CFC00B4F8CC60456826480096A84701E084F8D85040F2FF50404502D8801C40452FD2D9
:200D1C00082030E051F8251C1F4F4BF2F5204843060A3868C0F3814001280CD11B480068B5
:200D3C000068804706F0FAFE08F0F5FC3111C010484306EBE03694F8E50030B914480068CF
:200D5C0020F07F403618760801E084F8E5501148310C0660012741600F4D8760287808B9E1
:200D7C000B2000E0052084F8E40001F041FEBDE8F88FC0462D400C402C500C40A408002018
:200D9C0000A00C4000800C40B43F0050EC010010102009403C600C40C9AA00002DE9FE4F08
:200DBC0005467B48002400680094C00905D37948007810B9202007F06DFA012D40F0E280E8
:200DDC00DFF80092D9F8DC00012840F0D8800220C9F8DC0008F0BCF9012007F05BFA5FEA0E
:200DFC00000805D00120C9F8DC0008F0BDF9CBE008F097FDA34602906748684DC0F800B010
:200E1C00A86A016801208847012804D1584605F06BFC012000906248624FC0F800B038683F
:200E3C00112008F085FC00B10124102008F080FC08B144F002040F2008F07AFC08B144F0F5
:200E5C0004040B2008F074FC20B12868564E016B308888470A2008F06BFC20B12868534E58
:200E7C00016B308888475248012606602868816944F0200088474F48066008F053FC00F06B
:200E9C0001010191400814D2286A81684A4888478246BAF1040FF7D0BAF1010F04D1286A29
:200EBC0042684548032190474449086820F003000860584600F030FE2B683868986B8047B3
:200EDC00019801280CD0BAF1010F04D1286A42683948314690473949086840F00300086030
:200EFC002F48066028684169204688470B2008F01FFC20B128682C4BC16A188888470A20B0
:200F1C0008F016FC20B12868284BC16A18888847274806600322C9F8DC20264BC3F800B0AA
:200F3C002868416B204688470128F9D13868042007F0B0F904461848066038681448006859
:200F5C008009FBD30098012802D1304605F0CCFB08F0DBFB082007F09DF907460298C9F82D
:200F7C00DC6000F031F81648008805F0CBF908F0FBF857EA040018BF4FF0FF3804E06FF0A1
:200F9C00040801E06FF001084046BDE8FE8FC046141009408C0900200C400940B8010010A2
:200FBC00000222432C20094086A7000082A70000282008608001044300400340242208403A
:200FDC00C4AA0000A4080020DFF800F005B3011008B505F079FE02480121017008BDC0465A
:040FFC00FF0E0020C4
:20100000B41200001810000015AB0110FDB301106DC00110FDAE011099B5011000000000F7
:08102000000000002D0000009B
:20102800B01200003C100000B1C00110A9BF011067C0011069B80110000000000000000035
:041048003000000074
:20104C00B012000060100000BDC00110CDB30110D9BD01106DB3011000000000000000005B
:04106C00310000004F
:20107000000000006C0E002004000000000000000000000020000000E8C9011030000000B0
:2010900028100000740E00200400000000000000000000000C000000D8CA0110180000008B
:2010B0004C1000007C0E002004000000000000000000000024000000F0CA0110180000000F
:2010D00000000000840E00200400000000000000000000001000000018CA01102C0000001B
:2010F00000100000940E0020040000000000000000000000200000006CCA0110240000007F
:20111000FFFFFFFF9C0E00200400000000000000000000002800000090CA0110240000003E
:20113000FFFFFFFFA40E00200400000000000000000000001400000008CB011018000000BD
:20115000FFFFFFFFAC0E002004000000000000000000000058000000B4C90110340000008B
:20117000FFFFFFFFB40E00200400000000000000000000001000000020CB01101800000059
:20119000FFFFFFFFBC0E00200400000000000000000000001C000000B4CA01102400000086
:2011B000FFFFFFFFC40E00200400000000000000000000003800000044CA011028000000AE
:2011D000FFFFFFFFCC0E00200400000000000000000000005400000078C901103C00000023
:0811F00001000000F4AB000057
:0411F80001000000F2
:0411FC0000000E00E1
:0412000000000F00DB
:0412040032000000B4
:0412080001000000E1
:04120C00DC0D0020D5
:0412100000020000D8
:0412140000000000D6
:0412180001C90110F7
:04121C0000000000CE
:0412200000000000CA
:0412240008000000BE
:0412280000002200A0
:04122C00500C002042
:0412300000000000BA
:0412340000000000B6
:0412380008000000AA
:04123C009C0D0020E5
:0412400000000000AA
:0412440000000000A6
:04124800080000009A
:04124C00000000009E
:04125000000000009A
:041254000000000096
:041258000000000092
:04125C00010000008D
:04126000E80C002076
:041264000600000080
:041268000100000081
:04126C00800B0020D3
:04127000000000007A
:041274000000000076
:041278000002000070
:04127C00000000006E
:02128000290043
:02128200010069
:02128400250043
:02128600300036
:02128800310033
:02128A002D0035
:02128C0001005F
:01128E00015E
:081290000300000094AB000014
:0812980000000000000000004E
:0412A0000000010049
:0412A4000000030043
:0412A80013C401105A
:0412AC00B5930000F6
:0412B000B812000070
:0412B400B81200006C
:0412B8000000000032
:0412BC00400E0020C0
:0412C000F3940000A3
:0412C4002000000006
:0412C8000CAB00006B
:0412CC00B0A90000C5
:0412D00029C101101F
:0412D4000F8D00007A
:0412D8003F9700003C
:0412DC00A1C7011095
:0412E000A3C701108F
:0412E4000000000006
:0412E800C5AB000092
:0412EC00BCA700009B
:0412F000D4A700007F
:0412F400A4A70000AB
:0212F8000200F2
:0212FA000900E9
:0212FC000100EF
:0212FE000000EE
:0113000001EB
:0413040081940000D0
:041308006D800000F4
:04130C00418C000010
:041310004D83000009
:04131400A5800000B0
:041318005576000006
:04131C00315A000042
:04132000E99600004A
:041324000D6F000049
:0413280015C70110D4
:04132C0025C70110C0
:201330002DE9F84FDFF8C8A20F460446F80B80F01281AA4EDFF89882B80F80F0C380B80837
:2013500080F0B7803809C0F03881082008F0FCF9002840F0A980802008F0F6F9002840F0B7
:20137000A380684603F0F2FE012803D10098002800F09A8095480078002840F095800025FB
:201390000124E8B208F04CF848B1837A3BB1847290F9090004FA00F0C0B206F063FD6D1C99
:2013B000032DEED345464FF0030905F1AC0085F8109008F0A2FA87480168002398461A466A
:2013D000036050F8081C844940F8088C05F1340008F09DFA3068006B8047A968401A010B9B
:2013F000A869C1F1FF3282422CBF08444FF0FF30A861287F20B1E868A969B1EBC02F25D914
:2014100007F0BEFC414600B12146081C1BD0744840F60901018043464380417B04F00F02D3
:2014300021F00F010A434273017B03F00F0621F00F0146EA01020273436008F093F841883D
:2014500011F4406FFBD02C774346AB616548016821F0020141F400710160634941F8049C0F
:2014700041F230028A600C6050268E600C604FF4CA628A600C6041F80C4C4446046002206B
:2014900006F072FE112003F067F8287818B96868383008F048FA687F18B16C77052006F0C2
:2014B00063FE524868612C7405F056FB27F0080783E002F0B5FB45467435286808B927F0AB
:2014D00002077AE008F01DFAB3468146DBF85400016804208847D8B1207CC8B145460835E1
:2014F0002868A8B10646DBF80000E568006B8047801BE060000BE060A84202D240194008D0
:20151000E06040F6C41181422CBFB0F5FA7FE160484608F0ABFB06F089FC90B1A569204607
:201530006FF4807100224FF00073A847464606F16C052868002808BF47F0020701D005F00B
:201550000BFB2046646900214FF080630A46A04727F0005731E008F0D4F951460E6846B37E
:2015700006F1280106C90A234FF0E0450B40154008BF002B1DD106F1280191E8300006F19B
:20159000280393E8060006F12803AA43A14383E8060008F06BFBB16869B1002D08BF002C7A
:2015B00009D030692246B6F93C10B4682B46A04701E008F05BFB27F4804727B150463946D4
:2015D000503008F0B8F9BDE8F88FC046A1100020080F002014100440B16E00008C01001074
:2015F000E4170020000004600C410440E9430000880F00202DE9F04FA44C04F1080120463F
:20161000ADF1240D05F058FEA14910200C2201F0BDFAA04805F078FEA2494FF0090984F8A5
:201630002190A14F81F800904E2284F82320432384F824304FF02D0C84F825C0412184F8D4
:201650002210857A84F82650C57A84F82750057B84F82850457B84F829500A2684F82B60C5
:201670004FF0010884F82E804FF0060B84F82FB04FF0080A84F834A084F8351084F8362009
:2016900084F8373084F838C002253D70002684F82C6084F82A5084F83150032784F83070A8
:2016B000F02784F83270FF2784F83370817A84F83910C17A84F83A10017B84F83B10407BE1
:2016D00004F11407314684F83C00384608F0CAFA4FF080403146E76005F02AFB60602F4675
:2016F0008DF821804146ADF816600DF121028DF8227040F2023001F0FBFF40F203302946B7
:201710000DF1160201F0F4FF664A40F205300D2101F0EEFF644A4FF44170102101F0E8FFF1
:2017300040F2063041460DF1220201F0E1FF5A4D10205A46A023294601F028FA10200722A2
:20175000A023294601F022FA10205246A023294601F01CFA10204A46A023294601F016FA46
:201770004E4D687878B904F11000286106F0AEFC0096024630460190029049490390AB78C0
:20179000102001F003FA6068314632A30A4607F0A6F81435B14608F061FAA06849464FF0B9
:2017B00040424FF0FF3308F055FA061CF3D0CDF8109005A808A904AA06F0F4FD18B9049835
:2017D00008B108F06AF8F00FE5D3E06808F03EFA0028E0D1E068064608F034FA864208BF95
:2017F0004E4602D0866806F08BFC002EEDD0308801282BD16168B0788A46401E12D0401EE1
:201810000DD0401E09D0401E05D0504639464A4607F069FF1AE013A302E014A300E015A38C
:2018300008460FE0296806A80160A988818006A805F06AFD034641464A46504607F04FF84B
:2018500060680FA339464A4607F049F8304606F057FCBAE7424C452042726F616463617345
:20187000746572004572726F7200C04657616974696E67004164766572746973696E6700AA
:20189000496E697469616C697A6564000802002081B30010E8120050498200002C050020EE
:2018B000658C000028020020350200202DE9F04F8246DAF80070DAF804600C465FEA02084C
:2018D000ADF11C0D14BF00214FF0FF31DFF84092484607F0F4FD002818BF0B2040F01581BF
:2018F00000258F488C4905708A48FC60524608F00EF8317B272008F00CF8B8F1010F07D04F
:201910006570022006F0E0FD062006F0DDFD01E0012060702078012840F2AA80801E012841
:2019300068D9801E012833D9801E012800F2DE8007F0E7FF83464FF0805000F5EE77D0F895
:20195000DC01A378466A009321782846062908BF0120019001200290A068228AE168636812
:20197000B0478146584608F081F9B9F1000F40F0BF80B8F1000F02D007F05CFC02E0504610
:2019900006F074FC002800F0A3803868806A2AE007F0B7FF83464FF0805000F5EE77D0F85B
:2019B000DC01012306680093A168A27860682478AC46042C08BF9C466346B04781465846BE
:2019D00008F054F9B9F1000F40F09280B8F1000F02D007F02FFC02E0504606F047FC002832
:2019F00076D03868406880474C49C1F8B0510D6081467DE007F085FF83464FF0805000F55A
:201A1000EE77D0F8DC01E38A86690093E0680190208B0290A0780390207D04900121059113
:201A300022782846022A08BF081CE1786268A368B0478146584608F019F9B9F1000F57D102
:201A5000B8F1000F02D007F0F5FB02E0504606F00DFC00283CD03868006A80475FEA000937
:201A700046D1E078A168E28A236904F0F3F8BFE707F047FF83464FF0805000F5EE76D0F82B
:201A9000DC01E38AC7680093E0680190208B0290A0780390207D2946049001200590257876
:201AB00005B9014608466268A368E178B8478146584608F0DBF8B9F1000F19D1B8F1000F0B
:201AD00002D007F0B7FB02E0504606F0CFFB08B914201AE03068406980475FEA000907D122
:201AF000306802692169E078904781E74FF0FF39B8F1010F05D0022006F036FB062006F048
:201B100033FB034807F00FFF484607B0BDE8F08FD40A00200C0B00206D89000050450240CC
:201B30006E1800202DE9F84FDFF804B20746ABF13500DFF8F0810068800880F0E280754820
:201B50000068006880477E490831D1F8009000254FEA29715FEA995201F101010AD2C0F1D8
:201B70003E0210F10A0F4FEAE202D8BF08229142B8BF111C684BD3F87C21C2F30462162A30
:201B9000A8BF203A1B68C3F30443162BA8BF203B9A465218162A05DA12F10A0FB8BF6FF096
:201BB000090200E015225D4B5D4E02F01F0141F4F8511980316811F0030F18BF0125C908FD
:201BD00028BF45F002050FB145F00405434693F90710411A052904DA9979A94208BF99885C
:201BF0006FD0DFF844E10F28A0F10F0829DB08EB0011A1F1F0084FEA28210091072984BFA3
:201C100007210091062988BF06215EF821600424774604EB81043C594FEA950CA41BEE080A
:201C300004F0FF0124BFC4F3072631446F08AE0824BFC4F3074631446E0828BF01EB14611D
:201C500004E000214FEA950C6F080091009C5EF824E05FEA5C060EF0FF0424BFCEF307261A
:201C700034447E0824BFCEF3074634446E0828BF04EB1E64009E89B2A8EB06267143803122
:201C900004EB1124AAEB02010029D8BF0121342209F0FF074A4391B24FF6FF727943B1FB53
:201CB000F4F18A4238BF111C802889B2998005DA10F1800FB8BF6FF07F0000E07F20D871B7
:201CD0009D711A4800681F2918604FF0000008D340F2FF128A4206D24908401C8A42FBD314
:201CF00001E01F219980134F0F39090940EAC10047EA0001CBF8FB1F0026CBF8FF6FBDE8E8
:201D1000F88F0D490D4F434608200F609B1D1870BDE8F88FEC0100103C1100506E6208403C
:201D300024220840501800209C130050082009403500094000E7A48030100940FDFDA4005D
:201D5000AC3F00502DE9F04F044672488E46016894461F46BEF1000FADF13C0D4DD0BCF1F4
:201D7000000F4AD09EF8002001209040014244D0BCF80000B0F5C15F32D1DCF81400DCF8F4
:201D90001860654BDCF81C50DFF890A10B904FF003080DF128090C9618680D95C0F3036BCA
:201DB00059F8046FCEB10021351F05200B4655F8042FB2F1FF3F10D0924506D0401E01F1A7
:201DD000040103F10103F2D107E0052B05DA705820F4702040EA0B407050B8F10108DFD13A
:201DF000C4F804E0C4F808C007F08BFD4C4D8046287820B1404607F039FF002087E001F033
:201E1000B9FA4849086840F00200086007A807F0B1FB002605F1D00007AA4349099605F055
:201E3000DDFE424905F5827007AA05F0D7FE07A807F070FBFF20192107AB3D4A089005F194
:201E5000340005F015FE3B4A05F150001A2107AB05F00EFE3849324605F18800134605F0B8
:201E7000DBF93649324605F1AC00134605F0D4F9334A05F120000421334606F097FD0E20E1
:201E900002F024FC05F1740007F0A2FA05F16C0007F09EFA2E740523EB60072085F89801E0
:201EB0002E77AE616E772849AE60264A69612B781670581C2870404607F0D8FEB1461FB969
:201ED000684607F08FFA6F4638682060388A6082012060747B6813B940F6C4130646E3600B
:201EF0001A48A06126746061F86800B1A061B86800B160614946582204F1200004F0EAF87C
:201F100004F13800494606F051FC6C6020460FB0BDE8F08FD4210840541300500200F8446B
:201F3000080F002000200940B591000059420000B16E000011690000718D0000D58F000015
:201F50000574000068180020E94300004F5B00002DE9F04F754C04F10C012046ADF12C0D2D
:201F700005F0AAF90026667005F098FF70494FF0010B4FF0040803204FF47A72A07109680E
:201F900084F802B00720E671B2FBF1F1207289B204F10900079100F10B0900F1110A06700C
:201FB00000F13601089100F117010991E068634A31464FF0FF3307F04DFE071CF6D030462F
:201FD000029006A902AA03A806F0ECF900287AD1BDF80C00102872D120789DF818108842B0
:201FF0006DD1029D2878D02869D1A978081C46D0801E22D0401E01283ED86D78002D56D161
:20201000032917D0658995B1E3788BB14C4807F0A6FC10B14A4807F011FE07984543484895
:20203000294607F007FE464807F000FE00E0E670032000E0022060703BE06B78002B36D147
:20205000EB7853B96078022814D03D4807F087FC80B9584607F0A6FA0CE006F037F8024655
:20207000607935490090089833460190102000F08DFD68706D78D5B9012E1AD01FE06B78CF
:20209000ABB9ED1C286849460860AB888B8084F801B006F01BF802465B46099D2079264931
:2020B00000901020019500F071FDC0B208B184F8018025691DB1296809B16078884702984C
:2020D00008B107F0EAFB7808FFF470AFE07800283FF46CAFA079E7798DF80E0052468DF8D2
:2020F0000F70116804AD29609188A980637A8DF81730207A8DF8160005F0E8FF0D49024604
:202110000DF10E03102000F041FD00283FF44EAF206984F8018000283FF448AF0168002980
:202130003FF444AF4046884740E7C0462C050020F0AB00005944011009450110010000806D
:202150008C0500202DE9F04F774F1E46ADF1340D01914FEA960902923D680090710809F1BA
:20217000020221F0010105EB8200091D0390901805EB80000490501805EB80038018059356
:2021900005EB8000079026F0030000F1080802EB080005EB800340180893801805EB8000AB
:2021B0000990C6F39C008000083002EB4000411805EB800305EB810B0A938918831805EB2B
:2021D0008104404405EB8303C6F3990105EB80008900069038680B930A010021803203F07F
:2021F00079FF4A49DFF828A109682846AAF1880290470746B94518BF6FF0010040F0828095
:2022100028465546394605F1680290470198314606F056FE002818BF012073D10298314620
:2022300006F04EFE002818BF02206BD103980199A84704980299A847009881680598A84798
:20225000344B0399059A20469946C847012802D1BD0066590EB1032054E0204600214246C3
:2022700003F038FF0499059A2046C847012801D166590EB1042045E0284B274D079803998F
:202290001E462A46B047089804992A46B047079909980A46B0470A980999079AB047204DEE
:2022B0000B9807992A46B04720460021282203F011FF1C4B0A990B9A20469946C847203538
:2022D00020462A460146C847089958460A46B04706980021424603F0FDFEFDB2584625B9DC
:2022F000F9B20229B8BF012200DBFAB20021635C455CAB4218BF052004D1491C521EC9B248
:20231000F5D100200DB0BDE8F08FC0468C4F0020B9DB0010C9DE00107C0D0020F9E00010F8
:2023300078A80000C9E60010884F00202DE9F0430546880FADF1140DC0F0D6806C4C201DD2
:20235000006840688768C668406800B18047002F08BF002E08D007F04FF807B1B84706B178
:20237000B047644806F00EFB634807F0FBF8634A40F60A0CA2F800C000205080117B00F057
:202390000F0321F00F010B4313735060517B4FF0010808F00F0721F00F0147EA0103537338
:2023B000AB686E7C58801988A1F60201C9B141F21E07C91B15D041F6E677C91B012920D8C8
:2023D000597E012E60F38201597606D0198B21F47C7141F43471198313E0198B60F309114C
:2023F000F9E7597C012E60F38201597405D0198A21F47C7141F4347102E0198A60F3091100
:202410001982D5F80890687461464E4600E03E46776817B13B889942F9D17260737B00F072
:202430000F0723F00F031F437773E76E3FB1FB681B88CF1F9F4224D0891F994221D02F8CC8
:2024500007B3686205F12003588095F82C1000F00F0721F00F010F4385F82C7095F82D10D2
:2024700008F00F0721F00F010F4385F82D705360517B00F00F0721F00F0147EA0100507316
:2024900000E0A0601E4801688768C568009110226946406B019720F0784040F08050039051
:2024B0001848029502F03CFF06F0A6FF16486061607F80B91548006801684046884701286A
:2024D0000FD0707B08F00F0120F00F00014371730F4F676105E005F02BFA0028FBD007F0C4
:2024F0001EFA484607F03EF805B0BDE8F083C046080F00200100070601010E04E4170020B2
:202510004C1300501800002131130000E0010010757000002DE9F04FADF1240D079000F0FE
:2025300029FF5F48007806F005FB5E4D0024012806D90C3804D0401E0ED0401E09D006E006
:2025500006F0F4FD022804BF01210C1C06D0696805E005211F2401E0032107246960524AC3
:202570001068C0F38150012806D152F80C0C0127020E07FA02F0044306F0ECFF05F1440A56
:20259000FF2253464018401E471C28607F1E03F8012BFBD1079A1268002602F0FF03FE2BE2
:2025B0001DD0DDF81CC0964633460EF0FF07FF2F0ED0B84205D3B94203D80122BA401442ED
:2025D00001D0022069E016430EF0FF020AF802305CF804EF5B1C0EF0FF07FE2FE7D1092053
:2025F00002F074F807980121A86005F1280006F0DDF800274FF0010BB9462846804600F125
:2026100098050BFA07F0044216D1064204BF07F0FF0141F4C04104D01AF80700079951F8D6
:202630002010224801F084FAF8B24FF0FF3106F077FBC5F8009001E004202860D8F8000056
:202650007F1C2D1D8742DCD904A806F063FF184C184A2078102104AB059008F10C0005F036
:2026700007FA684606F086FFCDF80C906A4660681149029008F1640005F0B0FA0F4951F8BE
:202690000D0C20F4F85040F4005041F80D0C0C4FC1F8FFBF4846C7F800B009B0BDE8F08F33
:2026B0006F18002090070020B43F0050007FC767A8AB0000B98F0000017900000D30094021
:2026D000080009402DE9F04F0746ADF1140D0393002F02920E9801910F9C049000F0B68042
:2026F000081C00F0B380101C00F0B080181C00F0AD800498002800F0A980002C00F0AB80C2
:20271000206A002800F0A280564D666A281D0068002E00F09B80A16A07F084FA40B20028F2
:2027300008BF6FF0020700F08D8084F82C002078618800EB80000918143188B2216A8847CF
:202750004749086030B92846406807F067FA4FF0FF3777E08B46628823786088DBF800102D
:2027700025789E1800EB010A701800F1040805EB450002EB4306851876186D18C01805F192
:202790000C098018401800F11005204604F0CAFE2078C01C8010CAF800002078C01C801032
:2027B000C8F8000020780836C01C801030602078C01C8010C9F800002078C01C8010286026
:2027D000227839460AF1040002F0AAFD2278019908F1040002F0A4FD22780299301D02F000
:2027F0009FFD2378204641463246FFF7ABFC071C12D100955046414632464B4607F00AFAD4
:2028100047B22278039809F1040102F089FD22780498291D02F084FD21786288DBF80000BE
:2028300001EB81015218002103F054FC616ADBF8000088470B48406807F0F0F9F8B2992899
:2028500008BF002784F82C70384606E01CB16FF0010084F82C006FF0010005B0BDE8F08FF0
:20287000884F0020740D00207CB5554A554813785549002B77D05B1E032B08D9083B012BB1
:2028900054D99B1E012B6FD99B1E74D08FE04F494F4C504A0A604FF4A05365884E4A0580EB
:2028B000002D3CD06D1E3FD06D1E38D040F2FE36AD1B1AD02D1F012D20D94FF47F76AD1B17
:2028D0001ED04FF44066AD1B0FD0AD1E012D0CD92D1F0AD06D1E012D10D940F2F936AD1B9B
:2028F000012D1CD92D1F0BD061E003800A6001213A4A1078BDE87C4001F0CEBD384AF5E7E7
:20291000384805682E7A012E05D141F20240608060836086EAE7638063836386E6E700207F
:2029300006F096FB832046E08F2044E04A88028040F2044082421CBF41F2084082423ED0AE
:2029500041F60400824211D1274C284A2568284800680023CDE9002355F8086F254B0222E8
:20297000B0472549088073BD4A880280002006F06FFB85201FE04A880280022A0DD940F21A
:202990000440121A1BD040F6FC70121A05D0083A15D04FF47F70121AE8D1887B801CC2B2D8
:2029B000B52AA8BF662088730020488073BD002006F04EFB8420BDE8764007F027B973BDC3
:2029D0006F4F0020504F0020CC4C0020204F0020204A0020DB980000615A01106E4F0020DD
:2029F000755B0110104F0020F04E002002000080EC4E002015880000424F00202DE9F8438E
:202A1000614C5A4D5A4EDFF870815E4F94F8E4100846401E0B2864D8DFE800F07B2C4306F3
:202A30002343062343067664042907D001220A2945F8212C14BF0220032004E0202045F877
:202A5000210C0120024684F8E200002045F8390C0827C5F8FF7FC5F8F37F45F8392CBDE8F0
:202A7000F883052914BF09200620002784F8E400376075E094F8E170383D0120002FC5F8A9
:202A90001B0004BF0620002102D00021F160032084F8E400032045F8010C3160306880081C
:202AB0005ED294F8E4103348012703290ED00068456800216022052300914046A84794F837
:202AD000E400062814BF0A200720CFE700684568002160220523022000904046A8470420CF
:202AF000C4E7FEE72548264F0026012506600E203D6001F031FD022005F036FB84F8E450C0
:202B100084F8E360BDE8F883002038600C25786024E04FF08059D9F8A001016820208847FF
:202B30002C3D0F2045F8010C41F61D56C5F80360D9F8A401466800214FF4C07207230225CE
:202B500040460095B047D9F8A401C66800214FF4C07207234046B0470120386084F8E45009
:202B700004F1780006F0C7FEBDE8F88339400C4038600C40A401001000A00C402C500C40EB
:202B900004800C4034600C40A40800200FB42DE9F04106AF8046ADF1280D06F02FFE3E1DD3
:202BB00026F00306361D30F0010001D102F045F8CDF81A601420ADF816000025CDF80E50FB
:202BD000FF248DF818407B68CDF81E3007F01AF8064606F013FE30F0010015D005F086FF13
:202BF0004D492A468446062031F80C7F4FB14B681B689E4204D0401E02F10102F4D100E038
:202C1000D4B2604606F081FB404605F093FA0146FF2905D0204603220DF11A0303F0D4FD50
:202C300006F0F0FF05F06AFDA8460746CDF8008006F0E4FD30F0010063D0002F61D041F205
:202C5000883001A905F0F8FB009C002853D107F005F80199012645187868019B41464FF0DE
:202C7000005206F0F7FF00282BD00DF122000DF1230102AA03F0D0FFB0B99DF8220003A967
:202C900005F0F2FB38B9029A06F09AFD00281CBF029C464615D10299684605F018FD7868E2
:202CB0004FF0005106F0AAFF0198B0F1FF3FD3D00028D1D006F0D2FF281A02D001998142B9
:202CD00017D206F047F907F10805009F05F00EFF01463FB13A4652F80C0C40B9286842F843
:202CF0000C0C2F60084606F010FB304603E00246F1E70190B0E720B92CB1204606F0CDFD51
:202D100001E001F09AFFDDF81A0000680AB0BDE8F04104B07047C046000A00202DE9FF4160
:202D300004466668A7680D4606F0EBFD3178012903D106F09BFF00208EE00121317006F0AD
:202D500095FF287870706878B07068687060A868B060E868F06028693061287D3075687D9E
:202D70007075A87DB075A869B061287F3077687F7077A87F4FF0000843461D4686F8285185
:202D9000B07786F82951C6F82080336375627563B562B56386F82C5086F82D50786801F06C
:202DB00095FC204602F00AFB204602F053FB60B9386805F0A5FF786801F0CEFB06F0A1FDEF
:202DD000357006F053FF2C4645E0684606F0A2FB0094387B224A0190B9686B4606F17C0095
:202DF00004F046FE684606F0C5FB00941D4938696A46029006F1980004F0F0FEB07830B9C8
:202E100006F1CC00294605F0D1FC17483061707830B906F1E800294605F0C8FC1348F0603B
:202E3000684606F0F7FC01958DF800501049029406F582700A226B4604F0EEF9B969FA6967
:202E500006F13C0006F032FB0A4A06F168000421234605F0ABFD20460090BDE8FF81C0460D
:202E7000892E0000876C0000839800007B9800009D760000559600002DE9F84F8046D8F879
:202E900008603068D8F80450076CDFF830B14764AB6B6A6C286C17F4F06F1946A0EB020949
:202EB00034D1F8091ED2780974D3B1B196F821205846801D845C601E814294BF1C1C641EAA
:202ED0004046214605F0D5FBA86B001BA86361D105F19800012106F02EFD4046494605F0EA
:202EF000F1FD57E00029F8D0404605F0C2FB95F82D10A86311B900284CD101E00020A86384
:202F100005F19800012106F016FD43E0F80A20D24FF0000A544602E0AB6B5B1EAB6393B12B
:202F30004046012105F0A5FB3068446814F00F04C0F804A0F0D0286B401E2863686B401E20
:202F50006863A86BE8B905F19800012106F0F3FC13E0306844680022202904F00F04426002
:202F7000CCBF4FF0200A9A464046514605F081FBCAF120008145C8BF81464946404605F0E6
:202F9000A1FDEC77404604F0A7FA726A12B1404621469047B8090FD3A96A69B10F464046F7
:202FB00005F07EFBA86238B996F820205946895C4046C91904F0D0F9BDE8F88F40A800000D
:202FD0007CB54E4D044668680E4628B94FF00040002103F0ADFE6860002127A30A4605F090
:202FF0007EFC204628A3801E04D0801E37D0401E22D00EE06868012E05D000210A4605F087
:203010006EFC24A331E000210A4605F068FC26A32BE0686800210A4605F061FC686802213A
:20303000002227A305F05BFC01208DF801009DF801000028FBD17CBD686800210A4605F0A8
:203050004EFC68680221002223A305F048FC01208DF800009DF800000028FBD17CBD6868CA
:2030700000210A4605F03BFC1FA368680221002205F035FC7CBDC0463E3E3E535441434B37
:2030900020415353455254002A2A2A4552524F522A2A2A003E3E20494E5445524E414C208F
:2030B0004552524F522100C03E3E20494E5445524E414C204657204552524F522100C0460E
:2030D0003E3E2044454641554C54205350494E4C4F434B2100C046C03E3E204943414C4CD4
:2030F0002041424F525421003E3E204F5554204F46204D454D4F52592100C0460802002074
:2031100078B50D46E80787B00BD506F043FA28B1002181603C48006800B1804785F0010031
:2031300070E0E80413D53948C11D0D3006F062FD37484268374800784FF4805104F074FBD3
:2031500010B18E2002F008FF85F480505AE0A80505D506F0DAFA304901200860FEE76805CF
:2031700004D502F0A6FA85F480604BE0680405D5812002F0F1FE85F4804043E0A90440D56A
:20319000264C206810B1002005F062FF244E4FF0FF30206006F02AFD3168224C51F8202FD2
:2031B000684690472049214B486A8A6A009001920293C86A0268086A0392ADF810000A6B7A
:2031D0001178002904BF5068002805D19068002804BFD068002806D0217050686060916899
:2031F000A160D068E06021463468114A266811486B46B0471049086000F08EFB85F4005056
:2032100000E0002008B070BD204F0020AC450020784E00206E4F0020FC002043044F002084
:20323000F04E002068450020180C0020959500002C4D002020170020EC4E00202DE9FC4742
:2032500005466E68D5F8088037780FB1B76B1FB14FF0FF30BDE8FC8731630024F477171C9B
:2032700074631BD006F13C0906F04BFB82466946484604F01CFC00281ED4504606F0F6FC5B
:203290009DF80000316B0870306B736B7F1E00F10100306303F101007063E5D17078726B97
:2032B000316B0128A1EB0201316303D1F36828469847726B144659E0B763D8F80010086BBD
:2032D00040F400700863D8F80010886B40F4FA608863504606F0CAFC06F5947005F0C0FD80
:2032F000707806F5947768BB06F00BFB96F82D1069B1716B59B1B16B49B1B46306F0B6FC11
:2033100006F5947005F09CFD706BBDE8FC8706F0ADFC716806F1E805284606F0D0F800285D
:20333000F2D0B4632846214606F0C9F80028EBD0384605F085FD1027716B306BF777401ACA
:203350003063E1E706F0DDFA96F82D1061B1716B51B1B16B41B1B46306F088FC06F198004C
:20337000012106F0E8FA01E006F080FC2046BDE8FC8770472DE9FF47484C94F8E700002820
:2033900076D13E4E01273C48F57C84F8E770736884F8E6500068C4F81031C0F3801084F8A9
:2033B000E800684606F036FA002504F10C0001956B468DF80050324902952A4603F02CFF5F
:2033D000304904F130006B462A4603F025FF2E4904F154006B4681462A4603F01DFFB16837
:2033F00038468847DFF8B0802848327D08F104030078284E1868C0F3815A22B1BAF1030FBE
:2034100004D184F8E170BAF1030F17D0BAF1020F14D0BAF1010F0ED0022005F055F81C4855
:203430000068016804208847012804D030683221B1FBF0F10DE004F049FC12E0022005F014
:2034500043F8BAF1030F0CBF4FF47A7142F210713068B1FBF0F1484606F04BFA484606F044
:203470004AFA40460068C00802D2284605F02CF800200090BDE8FF8714100940B4AA000041
:203490003F620000394E0000E16400006F180020E00100105C180020B03F0050A408002078
:2034B0002DE9F84F5FEA00091C46924600917DD0081C7BD0BAF1000F78D0002C7BD0206AC3
:2034D000002873D03F4D616A281D006800296DD0A16A06F0A7FB40B2002808BF6FF002051D
:2034F0005FD084F82C002078618800EB400009180C3188B2216A88473149AB46086030B98B
:20351000DBF8040006F08AFB4FF0FF3549E08846668865882178D8F800008F192D183F1857
:2035300006EB41063618204603F0FCFF2078C01C8010286020783F1DC01C80103860207885
:203550000836C01C8010306022784946281D01F0E7FE28463A463346014606F043FB45B204
:20357000227800983B1D194601F0DAFE22785046311D01F0D5FE21786288D8F8000001EB08
:2035900041015218002102F0A5FD616AD8F800008847DBF8040006F041FBE8B2992808BF25
:2035B000002584F82C502846BDE8F88F1CB16FF0010084F82C006FF00100BDE8F88FC046DD
:2035D000884F0020740D00202DE9F041FF2807461ED106F0D7F810F0070F16D0042004F0C0
:2035F00095FC08B104200AE0012004F08FFC08B1012004E0022004F089FC20B10220BDE8D2
:20361000F04104F09FBC05F023FD0020BDE8F08104F098FC8046012FD8F80450334E04D0D8
:20363000022F29D0042F3DD0EFE7022004F06EFC80B1022004F086FC074601207C6804F0AB
:2036500065FC28B1A0683118A86806F0C7FA88B13846DBE7042004F059FC28B1042004F031
:2036700071FC0746012026E0012004F04FFC08B94FF000084046C9E7042004F047FC28B187
:20369000042004F05FFC0746022014E0012004F03DFC28B1012004F055FC074602200AE05E
:2036B0000220E2E7012004F031FC88B1012004F049FC074604207C6804F028FC0028C7D00E
:2036D000A0683118A86806F089FA0028C0D1D1E7022004F01BFC30B1022004F033FC0746EF
:2036F00004207C68E8E70420BFE700BF589EFFFFFEB5414E0C461746A0F20231082906D8A1
:20371000DFE801F02F295F4E211A76130CC02D286EDA022C6CD137493B8865E0012C67D157
:203730003878042864DA093613E0012C60D1387808285DDA08360CE0012C59D1387804285B
:2037500056DAF61D05E0012C52D1387804284FDCB61D3070FEBD022C4AD138880A363080B3
:20377000FEBD012C44D1F0783978F17058B9387800283DD07078012818BF032838D101208F
:2037900005F010FFFEBD387890BB707802282FD104F09CFC194902461020FFF7F7F9FEBD46
:2037B00006F13F0500211F22284602F093FC22463946284601F0B4FD747104F087FC0023F7
:2037D0000FE006F1200500211F22284602F082FC22463946284601F0A3FD347104F076FC9D
:2037F000012300940649019502461020FFF7CEF9FEBDC046498200002C050020994501101B
:20381000094501102DE9FE4304F0B8FBDFF80481814608F1020000880027001F84B2042CE9
:203830005ADBFF254FF6FF7620466946042204F0D3FDBDF800309E4237D0002B35D0D80B87
:20385000C2032FD19D422DD0381FDDB280B2042815DBB0F5805F12DA00F18852126801A924
:203870000A60BDF804108D4207D0BDF80610401A001F80B20428ECDA01E0012300E00023EF
:20389000BDF802001BBB211A001D8BB282B207F18851184604F0A0FDBDF80200C119091D4B
:2038B0008FB214E0BDF8020011E0BDF8020003466FF30E0363B9011D8C4208DA002005F0A9
:2038D000C7FB484605F0B6FB0020BDE8FE83241A241FA4B2042CA7DA03F084FF3FB10C485A
:2038F0004FF088513A4605F09AFF05F07BFE484605F0A0FB4246507800281CBF0020011C76
:2039100003D1C7F58054391DA0B25180BDE8FE8304E00100DC0E002038B5334C334B25682E
:20393000186855F8183F00224FF0FF3198473048304A416B304C88684179117006F04AF965
:203950002E4806F043F906F03DF92D48026800215171A02301680722CB804A7203210368D6
:203970001972002201684A7700230268D3760021036883F85C10012201680A77012302687C
:2039900082F85D300021006880F85E1004F062F91C48D02130220023017042708370C3703F
:2039B000037143718371C37106F008F91649174B0020087018801B201549164B08804FF4FA
:2039D000A47215491A80FB20088040F64800134A13491080FB230B80208006F0EBF81149E3
:2039F0000020087032BD00BFF04E0020EC4E002008AC0000714F00204E4F0020CC47002035
:203A1000104F002048180020794F0020524F0020444F0020464F0020484F00204A4F002016
:203A30004C4F00206F4F00202DE9F04391460A68D9F800401678804600271D463846ADF140
:203A5000140D531C242E0B605BD112F8016F5B1C4C2E0B600ED1AA68E41C24F00304241DBA
:203A700054F8040C414603F0A7F82968EF600127091A2960462E1AD1E41C24F00304241D52
:203A900054F8040CE41C029024F00304241D54F8040C002741460390AA68ADF8047001A85B
:203AB00001F078F82968EF600127091A2960532E27D1E41C24F00304241D54F8040CE86167
:203AD000C9F80040288B0090A968EA69D8F800004B46FCF74FFED8F80040002754B1A96840
:203AF000002902DD8142D8BF481ED8F800100918C8F80010D9F800402968EF600127091AE1
:203B10002960662E0AD12B8B23B9E41D24F00704083403E0E41C24F00304241D1FB9E96946
:203B30000E700127EF60C9F8004005B0BDE8F0832DE9F84F0C4605465FFA84F8200824BFD8
:203B50003148444031494FEA8803C85884EA00022A40C2F300672E4A05EA0406A843324036
:203B700005F4E0260243B6F5E02F01D1500E14D305F4E020074310D002F4E027B7F5A0278D
:203B900007D0B7F5803704BF22F4003242F4A02203E022F4803242F4C022DFF878B01E4FA9
:203BB000012000FA08FACBF800A0DFF87090CA500146386801FA08F60027064218BF0F1C33
:203BD00037B9E80D04D34946C4F3805001F80800280E0DD305F095FE210E34BF0021311CD4
:203BF0000D4A1268B24311430B4A116006F03EF837B1E80D04D34846C4F3805100F80810CF
:203C1000CBF800A0BDE8F88F006000A000100840007F077FE0200260D020024000200240B2
:203C30002DE9F843384C143C606F656F04F17409002866D00646F06840F603020827531C5F
:203C500002E040687F1EFFB260B15FB101888A4218BF8B42F5D131694CC820314CC189C83F
:203C700081E8890005F1280090E80C00002705F12806B84686E88001A96879B138464FF070
:203C9000E24100EA020611EA03070EBF002E02400B40AE682869B5F93C10B04705F031FEB6
:203CB0000646B4F986004746401C6FF31F30A4F88600484685F83F7004F0EEFF304605F0B3
:203CD000D5FFB4F984106068B4F986300246994217D192F8701000290CBF0068381C82F855
:203CF000707060B1B0F1FF3F0BD008490968AC34B0FBF1F1204605F029FBBDE8F88305F046
:203D100061F9BDE8F883C0461C0F00205C180020F8B505F0FAFC02F08BFD05F009FD0546DC
:203D300005F00C000C2854D0E80826D204F096FD2A4E376804460120014605F0DFF831687D
:203D50006143884219D22649F020B0FBF7F0241A887C18B1C868A04238BF041C214D2146E0
:203D7000284605F067FF284605F060FF0120FDF71BF8284605F062FF2DE0280929D21A4C1D
:203D9000A4F1200620688168184888470746042FF8D01748690905D227B101460A6822F025
:203DB000010203E001460A6842F001020A6098310A6842F003020A60306881692020884748
:203DD0000C4C37682068B86B804701202060206801E005F086FD05F09EFCF8BDF0AB000009
:203DF000B4AA0000B0080020D8010010004003408C2108402C2009402DE9F84F374E04465B
:203E1000B0688047344D05F10802116809191160F1688847286800285BD0A9464FF00008E5
:203E300007463546C246A868804756461FFAA4F3834683B95FFA94F36BB93979E0B2884268
:203E500004DD79682046884209D20AE03879E1B2401A387108E079682046884201D3314610
:203E700001E07968091A7960B88878B9FB8853B9FB6843B13B8933B1B87A194600F00CFBED
:203E9000F8687860B88808B9FB880BB13B896BB9B8F1000F04BF3868C9F8000003D0386863
:203EB000C8F8000038683E46074601E0B8463F68E9685846884756B1B08828B9F08818B914
:203ED000B07A318900F0E8FA304605F083FB002FA9D1BDE8F88FC0461C180020B809002023
:203EF00033480178002900D17047F8B5491E032984B054D82F4C2068036803F108050622D6
:203F100005F1080102A805F0B9F90622A91C684605F0B4F9287800F00F010329C0F38015F0
:203F300043D16179C009C1F38001884232D12169062202A804F044FF60B36946284605F000
:203F500035FE38B31C4D2946684605F02BFEFF2820D01A4A1A4F13681D214843997A2E180E
:203F7000002918BF02290AD0012918BF032911D12A5C711C384605F011FE10280AD06B46C5
:203F9000F21D3146384605F005FE06226946F01D05F074F921680A680020107105E000202E
:203FB00005F056F8862005F031FE05B0F0BD00BF6F4F0020F44B0020AC450020104F0020F6
:203FD000CC4700202DE9F04707467D68BE6890468A4605F096FC81463068006B00F480711D
:203FF000287800B119B1484605F040FE57E005F5827005F082FC0024EC77C5F820A06C626D
:204010003168086B40F480700863484605F02EFE05F2291004F024FF4146384604F040FBCB
:2040300005F22919A862A8B93846414603F094F9A878D0B9A96805F1CC0005F040FAE8B103
:20405000AC621020E8773146284601F007FF05F2291022E005F055FC3268916B41F0200177
:20407000916305F003FEA87810B12046BDE8F087A96805F1CC0005F022FA10B9686ABDE8BF
:20409000F0873846414603F067F91020AC623146E877284601F0E2FE484604F0D1FE4FF05E
:2040B000FF30BDE8F08770472DE9F8430446994690460E1C44BF0020011C5AD405F037FCDE
:2040D00005468021304604F017FA071C04D097F83F1031F07F0106D12846FCF77BFF02201F
:2040F0000021BDE8F8834FF0E0400A2107F1200640EA090941EA080896E8030008EA0000DD
:2041100019EA010608BF00281CD02846FCF762FF07F1200003C804F1680604F1680508EA4E
:20413000000809EA010986E8000395E80C0007F1200696E8030007F120059943904385E898
:20415000030013E00C48B968884202D0B9682166B86004F1580080E800032846FCF73AFF36
:2041700004F138004FF0FF3105F0A9F9683494E80300BDE8F883C046696F00002DE9FE4F80
:20419000894605460CAF97E803001E4601919046009005F0B6FB2B4F6FF0010A83460820E1
:2041B00007F5D07494F83F3033F07F033ED107F1AC0005F0A2FBB7F98400401C6FF31F3089
:2041D000A7F88400C4F80C9084F83E80A660B7F88400009AA08701980223202113430022A9
:2041F00042EA000616482561314004F118061840134686E8030004F1200686E80C00636398
:20421000214623634FF0FF36A663802284F83F2007F16C0085F8703004F04FFDF86E8442BA
:2042300001D102F099FCB4F93CA003E0401E04F14004B7D1584605F019FD5046BDE8FE8F19
:20425000FFEFFF9F080F00202DE9FE4FDFF8C08098F8990100284FD0002501212C4698F857
:20427000992101FA04F0104203D1641C032CF6D342E098F899211020A040104218BF0D1C19
:2042900005F03FFB98F899211121A1408A4388F8992105F0EBFCE0B205F0C2F860B3877A4A
:2042B00057B390F9099019490768012D446851F82960019710D0017A02290DD100F1100147
:2042D00091E8000C00274FF0805317EA0B0703EA0A0108BF002901D101F080FD012D04D0D3
:2042F000009600224FF0006303E000224FF00073009201984946A04798F8990120B108F504
:204310008270002105F017FBBDE8FE8F94300440080F00202DE9F04116468846044605F052
:20433000F0FA07462A488325B8F1080F32D8DFE808F0463F3C313725150533C00446207C52
:20435000D0B9E06EC0B9316804F1D00005F0F5FA316804F5827005F0F0FA32E00446207C60
:2043700050B9E06E40B93168192005F0D2FA31681A2005F0CEFA24E0002522E0306828B11E
:20439000012807D1802003F06DFD1AE0802004F035FE16E0032514E030780E49087010E0D5
:2043B000316804460C3421600BE03088608208E00120E668607406F16000E06001E0306889
:2043D0002060384605F052FC2846BDE8F081C046080F0020A010002038B5274C0D46A80898
:2043F00039D2E80846D32B4854380068006B8047A060E06E00280EBF606800696060406824
:204410001E4900780860022004F05EF8112000F05DF90120207460684168886808B9C8685B
:2044300010B1174805F09EF81649174D072000230860296815482B606A686B60144B2A6845
:20445000636140EA02011A20296005F05CFA192005F059FA38BDFFF7E3FB204600F1740137
:20447000096811B902F078FB38BDD03045F0020105F061FA38BDC046080F0020D0210840A4
:20449000510007060000046014100440020000403D230000E00100102DE9F843DFF8B080F7
:2044B0002A4E81460C4639F07F0018D1B9F1050F12DA284DA86880472349096831F8192095
:2044D000144321F81940E9688847306841461431426A0868904734E00320BDE8F883042011
:2044F00004F05EFB071C08BF04202BD04FF6FF7038807C8005F07CF941468C78A7F10C0550
:20451000FF2802D0896A09184C79FF2C08D1384604F066FC3068806880470120BDE8F88359
:20453000484604F07DFC33680146FF20A8721D68002220463B46A84718B1384604F050FC51
:20455000EBE70020BDE8F88360180020E80E0020480D0020B80900202DE9B043044605F0ED
:20457000D0F981462748221892F8F010491ECFB2002F82F8F0703FD1254901EB84014A88B6
:204590000C78904634F07F0718D1E1090FD24FF0805000F5DC75D0F8B8018169104688476E
:2045B0002868416B404688470228F9D11EE000EB8800D0F804110020884717E04FF080551E
:2045D000D5F8B801016A10468847D5F8B801816A40468847D5F8B801016B404688470A4955
:2045F00001200860094908688008FCD304F03F00132801DAFFF7B0FF484605F037FB002046
:20461000BDE8B083A4080020282008602820084058A70000294838B5001D0468B4F1FF3FDD
:2046300008BF002404F080F8032833D12448254B002501211038184A056003F15C00224BF5
:204650000160181D00681160806C80471348006820B113480068204601F052F9114812497B
:204670000560124C0A686FF35B4244EA020008600F490868C0F30130012806D10A680D48EB
:20469000104040F400320A6008600B4908680028FCD138BDFEE7C04608220443800128438C
:2046B000000120438C210840482003400000390104000940FFFFFCFC0C0068421813005038
:2046D0009404604200600C40EC010010F8B5064605F017F9264D0746711991F8F000421CC8
:2046F000002881F8F0203ED1224C04EB8604267806F03F00132801DAFFF7E8FF648836F02B
:204710007F0018D1F0090FD24FF0805000F5DC75D0F8B8014169204688472868416B2046F0
:2047300088470128F9D11EE005EB8405D5F804110120884717E04FF08055D5F8B801C169A3
:2047500020468847D5F8B801416A20468847D5F8B801C16A2046884707490120086007499F
:2047700008688008FCD3384605F080FA0020F8BDA408002058A70000282008602820084095
:2047900030B52648244908602548ADF1140DFDF7C1FE24480468244800680023D90702460B
:2047B000206050080143D007801A4FF47A729941002300F033FF002908BFB0F1004F28BF47
:2047D0006FF000406060194C0025032004F1240141F80C5F401E8D60FAD104F15401062079
:2047F000401E21F80C5BFBD101F05AFD62681048039241680191036800938168029168469D
:2048100002F01AF903F072F903F0CAF905F0BEF9284605B030BDC046E00E0020D12F00009F
:204830002CA70000300E0020F0AB0000B80900209CAA00002DE9F04114460F4605F0A2F9EF
:204850001FFA80F824480068007808B904F00EFC0FB338684FF0FF3518B140280AD3810B3D
:2048700008D17E681EB1310A04D0310E02D1B9680F2908D93DB10CB1284620700820FFF778
:204890006BFE002422E04FF08055D5F8CC11BA680B68796808E04FF08055D5F8CC01036844
:2048B00001224FF48070014698470C49012008600B4905F5E67508684008FCD32868416825
:2048D000022088470CB1002121700446404605F0CDF92046BDE8F08108A70000A802504276
:2048F000088002402DE9FF41284C2068002849D08578274F05F042F980B1032D05D00A2048
:2049100004F08CFC06460B2016E0282004F086FC0646292004F082FC804620E005F02AF9FB
:2049300028B1062004F07AFC0646072004E0082004F074FC0646092004F070FC8046012D52
:2049500012BF042D3878032809D12068C178022908BF002102D0032914D10121C1703878D6
:2049700005F004F92168CA7A03920C1D8B7A029301940346C97800912A464146304605F0FE
:20499000F1F800E0012004B0BDE8F0819C4E0020594F00202DE9FF41284B476886681446C1
:2049B0000D4601A81A68998802609B798180A5428371A8BF2C1CB168786804F080FD78BBAA
:2049D0004FF00008CDF80080F068318A6D1C16A22B4604F091FBA41C0246AC4213D9641B95
:2049F000F06801A90B688018036089888180308A921D801A082804D23868F16804F028FF08
:204A10004246641EECD1F0680BA10988801801803868F168921C04F01BFF786804F083FF06
:204A30000090BDE8FF81C0461B371B5B3130721B5B25643B256448001B3800C0B8AB00008F
:204A50002DE9F84F1F468B46161C14BF4FF080484FF0005804F055FFDFF884A00025032481
:204A70008146BBF1FF3F06D15046C36F002B0CBFC06EC06F03E05846294603F03DFD40B373
:204A900090F83F4034F07F0422D05446E16F81420DD001463A4602F095FBC8B1207C012855
:204AB00014D004F1D000022104F045FF0EE043462A4603F057F8002E14BF0A480A4803F021
:204AD00061FF1FB1E16E3A4602F07CFB832400E00424484605F0CAF82046BDE8F88FC046D2
:204AF000080F002001000204010001042DE9F0410646B76875688846ADF1280D684604F090
:204B10005DFB00248DF8014078680690012003F063FE6860686840B102F02AFF3878694655
:204B300002F046FF2860286808B9264617E00421224604F088FE98F80000401E08D0401EC7
:204B500004D0401E14BF201C07A002E008A000E009A0A86028680AA1122204F079FE3046F2
:204B70000AB0BDE8F081C0461B5B324B00C046C01B5B304B00C046C01B5B314B00C046C027
:204B90001B631B5B324A1B5B3130721B5B31313B314800002DE9F843002A8946074604D451
:204BB000B2F5004FB8BF95B201DB47F6FF75002F08BF002034D03888002808BF002403D0E4
:204BD0002A4600F0DFFC84B2AC4228D0388830B1291B484613A202F049FE001984B2B8689E
:204BF000E8B17E688EB1304604F038FCA5EB0408401D1FFA88F1884207D833464146484687
:204C100009A202F033FE001984B2291B122906D3BB68484606A202F029FE001984B22046E8
:204C3000BDE8F8833A2000C0222573222C2000C06C696E652025643A2000FEE72DE9F04765
:204C5000DFF898A0DFF89080002501244FF002091126E8B204F0E4FB071C37D0B87A012891
:204C700034D197F90900AAF11401113004FA00F0C2430A604A681043486097F9090004FAF4
:204C900000F0C0B204F0BAF907F11000002103F077FD0146812909D1B86918B1002103F0A2
:204CB0006FFD0146812908BF87F80A9081290DD008F2991197F909000A7806FA00F010431E
:204CD000087008F58270002104F035FE6D1C032DBFD3BDE8F087C046080F00201C10044001
:204CF000F8B5244F7E681EB9BDE8F14004F036BF3078401E012801D9C01E36D104F03CFDED
:204D1000002832D03078FEF75FFC0446656815B9002004F09DF944B32078A64205D101285C
:204D30001ED0002004F094F91AE001281DD1124912480A681249137AC05C087004F00AFF23
:204D500000F5C24000F1A801A86804F047FF28B904F000FF00F5E8504C30A8600120B8709A
:204D70002046BDE8F24000F031BFBDE8F240002004F06EB928180020104F0020289A011042
:204D90006F4F00202DE9F041904606460F1C08BF05243FD036F07F0003D022480068806860
:204DB0008047052EA8BF032407DA57F80C0C18B917F8020CFF2804D00524384604F010F887
:204DD00028E007F8026C154C154DA068B8F1010F13D080470246002047F80C0CA868002829
:204DF00008BFAF6005D0014651F80C0C18B941F80C7C104606E00146F6E78047A96847F847
:204E10000C1CAF60E168884730464FF40041FFF743FB00242046BDE8F081C046B80900207E
:204E3000480D0020E80E00202DE9F04104F069FD244D214E804605F1E000007848B93446C7
:204E5000A168022088470746102003F029FA77B31BE004F06DFCC0091BD21B483C3800683E
:204E7000C4681648342101220023A04788B101F0D5FB34460020A16885F8E000022088472B
:204E90000746102003F00CFA8FB1A168032088470DE00B4800683221B1FBF0F101B90121ED
:204EB0003035284604F025FD284604F024FD404604F0DCFEBDE8F081B4AA000000A00C40C2
:204ED0005C180020A4080020E00100102DE9F0410E46071C14BF002E002040D0224C4FF0D5
:204EF000FF3104F12800804604F0E9FA3078FE2811D022680021FF2808D082422AD31F2857
:204F100028DA04EB8000D0F898501DBB491C16F82100FE28EFD1002038607860B8603078BE
:204F3000FE2818D00125FF280FD01F280DDA7B6804EB800105FA00F0C1F898701843094949
:204F500078603268384602F039FF16F8040FFE28E9D100E00027404604F0E5FC3846BDE8A1
:204F7000F081C046007FC76790070020F0B520480127F84201D002F063FA204D204F214E6C
:204F9000BD4206D203CD0478A4003459401CA047F6E71D48002800D08047164D164FBD42A2
:204FB00002D210CDA047FAE7F0BD03251BE0416808300A1C2A400BD11A1C2A40AB4305D0E8
:204FD000046804300C600431043BF9D1131C05D0047801300C700131013BF9D1021C2A408A
:204FF00001D0A84304300368002BE0D17047C046FFFFFFFF000000000000000054AF0000AE
:20501000BCAF000010AF000015C4011022482DE9F0410068806980472049234D0F686E687D
:20503000B7F57A7F17D00021801B3A4688460B4604F030F94FF47A72002300F0EFFA0446E7
:205050004FF47A72002304F025F93A46434600F0E5FA301800E0841B6860124D05F1080018
:20507000006880470E4E316872680919B1F57A7F0AD34FF47A73B1FBF3F7D2197260B1FB55
:20509000F3F707FB03F2891A3160E96888472046FEF7B2FEBDE8F081E80E0020600D002007
:2050B000540E0020B80900201C1800202DE9FC4792460D46826844689168D768B2F810809D
:2050D0006068994604F0FBF90028504632D1FF2D10D0401CA8F102016B1C009016A238461F
:2050F00004F00AF80646A06828B10168F019361D016000E000260A9BA8EB0601F0194A4679
:20511000891E04F01CFCFF2D064406D10D22701C0A21BA55461C395404E00BA00188F51975
:20513000B61C298020683946324604F091FB606804F0F9FBBDE8FC871B371B5B3130721B57
:205150005B25643B256448001B3800002DE9F84F81460020C9F80000684601F073FE204F78
:20517000DFF880A000264FF0FF354FF0190B34468046E0B204F054F9B8B1837AABB1017ADC
:205190000126022915D079684A8A4069C968891897F89A210BFB021103F0DCFA5146096864
:2051B000B0FBF1F0854288BF051C641C032CE0D300E00025B8F1000F04D0012E05D0B8F184
:2051D000010F05D0012E04D005E00098854200D9009DC9F8005046EA0806F0B2BDE8F88F00
:2051F000080F00205C1800202DE9FE4F214C80460CAF1E460192A0683D7800918047A14690
:20521000B8F1000F029005D1D9F80C1088470220BDE8FE8F184800274FF00F0B4FF0010A24
:20523000041F54F8080FD8B9012D0CBF134B144B1148019A008897FBFBF140180AFA07F143
:20525000C0B2984760B90098C4F80080606006B13770D9F80C10029888470020BDE8FE8F3A
:205270007F1C0F2FDDDBD9F80C10029888470820BDE8FE8FB8090020540A0020557D0000AC
:20529000397800002DE9F84F0C468146E00BC00318BF84F400443BD1002C08BF002038D06F
:2052B000DFF878A05546A868804783461A4801884FF000080126474606FA07F2224203D19D
:2052D0007F1C0F2FF8DB1DE04D46EA01FB00001DA2EBC502CD01A5EBC1018D1AED189B1AAA
:2052F0005B18C158BE401FFA86F82D1811B11B18586888474846414603F006F810B90020C5
:2053100028606860DAF80C105846884788EA0404A0B2BDE8F88FC046540A0020B809002075
:20533000002A4AD05FEA000C8B071CD1830722D1102A08D370B4103A78C978C0103AFBD2B5
:2053500070BC103238D0042A2CD3082A05D30C2A24BF08C908C008C908C008C908C0920713
:205370002AD0920F22E00B780370491C401C521E22D08B07F7D1C30714D18307D8D0121FFB
:2053900012D308C903801B0C4380001D121FF8D20AE008C903701B0A43701B0A83701B0A7F
:2053B000C370001D121FF4D2121D05D00B780370491C401C521EF9D160467047FEB58468A5
:2053D0004668206803F09CFC216820488A6B1040886340F2F27120681D4D416494F8200003
:2053F000295C94F8210040198079084321684863684604F07AFA317F05EB81012068B269BF
:205410000B6A717F05EB810189691943B37F05EB83052B6B0B43019903F060FC2168C86A25
:2054300040F01000C8622168086B40F001000863A07D0027FF2802D0E07DFF2800D11FB1F8
:20545000086B40F440400863FEBDC0460DF8FFFF34A80000B0B5456884682349607DA27DA4
:20547000ADF1180D40F000400090207D0027FF2A41EA000001904FF0020002D0E27DFF2A15
:2054900000D13FB1E37DA07D1943039140F0004002900420FE214DF8201005F1540069461B
:2054B000FFF714FD2866002808BF381C1AD0617D0F2202F0F1FF286E217D102202F0ECFFE6
:2054D000A17D3846FF2902D0E27DFF2A00D140B1286E112202F0E0FF286EE17D122202F028
:2054F000DBFF012006B0B0BD0000C0A02DE9F8432020EFF3118780F31188214CA068012170
:2055100004F024FB4FF001094FF0000865692168A4F81C906A1A2168A4F81E80461B401A37
:20553000904227D387F3118840462D18361A4846294604F007FBB042F7D92021EFF31187F1
:2055500081F31188E18B012903D14046294604F0F9FAB0F1FF3F06D0A169801B814238BFD4
:20557000081C291801E0A069411904F0E7FAA4F820902560A4F81C8087F31188BDE8F88361
:20559000780100207FB503461F480D4601881F480088144614A698421CDA994216DA1C48A0
:2055B0000088002808BF13A217D00095002C48BF47F6FF74174E00201749ADF804406A46D2
:2055D000346802901846A04702980AE0184603F085FD08B9324600E042682146284602F067
:2055F00045F900907FBDC0467B6D6F64756C652325647D007B6D6F64756C652D726F70657D
:205610003A25787D00C046C042AB0000C6AB0000FE12000004AC0000998800008B4208BF8D
:20563000824204D90B1C021C002100207047002B08BF002A0BD10B1C021C00210020002BD3
:2056500008BF002A1CBFC943C04302F0C4BEF0B51C4615460B46024600200021B4FA84F687
:20567000202E04BFB5FA85F62036B3FA83F7202F04BFB2FA82F72037F61BB6F1200727BF0F
:2056900005FA07F400257F42B4403EBF25FA07F73C43B540A34208BFAA4201D3521BA341DB
:2056B000404149416D0845EAC4756408761EF1D5F0BD70472DE9F041DFF8888004680E46E2
:2056D00017464FF0FF31404603F0F9FE4FF0FF35092E08D0217A0120B040084212D10843D8
:2056F0003546207211E0237A0521012000FA01F2134202D0491EF9D504E0227A88400D46D4
:2057100010432072B5F1FF3F15D0A7B1062002F0DBFE2946384600F061F80746062002F0E7
:2057300023FD47B1217A0120A8404FF0FF3580F0FF0008402072404604F0F5F82846BDE867
:20575000F081C046D40A00202DE9F043224C81461D4604F108002F68006816468846ADF11F
:20577000240D1FBB0C2000F0EBF9071C16D0684600212422082304F0DDF9002306974946AC
:205790006A46ADF810301348059304F0CFF9386038B9FFF752FA384602F0B2FC6FF003006A
:2057B00015E0C7F80480BE602F6008E080470546386804F043FABE60E168284688473868E5
:2057D000494604F037FA386804F030FA002009B0BDE8F0830F970000B80900202DE9F04188
:2057F00080461F4800680D46416927208847012404FA05F61B4DC5F80064C5F87C470327A0
:20581000C5F8807718480460C5F88477D5F80404012818BFC5F80444C5F8FC631348046093
:20583000C5F800801023AB60204604F039F8D5F88C076FF39D000028F6D0D5F88C1720462F
:2058500011F0404F09D1C5F884770021C5F8FC16D5F80024164218BF081CBDE8F081C046C6
:20587000B00100100440024000E04842000048422DE9F843DFF87C808946054617464FF003
:20589000FF31404603F01BFE1B4C04EBC5046668256804F036F81949097801290CD129681F
:2058B000002909D405DCB9F1000F09D04FF0FF3108E0B9F1000F03D004F0D8F9002413E0A0
:2058D0002968491C296004F0D1F9286802280BDA1FB9684603F0C1FF6F4638686860C0279F
:2058F0002F727068FEF7F2FE404604F01CF82046BDE8F883D40A0020A0AB0000FF0E0020B0
:20591000204A2DE9F04180460124A2F13000046019480768002FFCD01B49184DC0200B1F16
:2059300028601868800806D253F8040C144B000C40F0F000187000204FF080571060D7F80C
:20595000F0010E68016830468847D7F8F0014268314640469047D7F8F001816830468847F6
:20597000D7F8A001C1680220884740202860074E3460BDE8F081C0469402224300600C40F9
:205990005662084040100940B43F0050940460422DE9F843204D0746A868804781461F48D1
:2059B00083686FF00B06002480469BB113F8020C874208D134B16BB138464FF40041FEF793
:2059D0006BFD0CE01C460CB9A3F10C0653F80C3C002BEBD138464FF4004102F07BFCACB154
:2059F000A8688047D8F80810A4F10807A14219BF54F80C1C316057F8041CC8F8081000210C
:205A100047F8041CFF26BE71E9688847E968484688472046BDE8F883B8090020480D002019
:205A30002DE9F8438146EFF31188202080F311881E4D1A4C184F012605F11C000660A4F10B
:205A500014000660F86A016A14208847D9F81000810C14BF000C04202060386802682321AD
:205A7000002090470E480F4F0660386800280CBF311C03210C4807680FB141F00401183CF4
:205A9000206820F4E02040EA014020602E6088F31188BDE8F883C046840100101820094091
:205AB00080022443CCAB0000D0AB0000000024432DE9F04106467468B56803F022FF80462E
:205AD000A06A58B928688169090907D2006B400A04D2404604F0CAF8BDE8F08104F582706E
:205AF00003F00BFF00274046A76204F0BFF8A97D3846FF2902D0E97DFF2900D118B120460C
:205B1000294600F0ABF903F0FCFE2A68916B21F0200191632A68116B21F48071116304F055
:205B3000A5F804F2291003F08BF9606A216A091A21622369626A30469847BDE8F08170479D
:205B5000F8B5041D14F003001CBF241A241D02F0CDFF1D4A054657691561102C88BF9769DD
:205B7000386800231E46010821D226B9844209D93B4601261EE0196809188C42196019D8EB
:205B90001F460846DFB1D169001B042807D23868091AD161386840F00040386005E038514D
:205BB00044F000403860091BD1613F1D07E080F0004000263F1838680028D4D10027284601
:205BD00003F0A3FB3846F8BDB80900207CB5040004BF002003F03CFA16494C60606900B14A
:205BF00080476068017B01F00F0102290CBF806803F0B0FFA0601049104B0878002814BFDA
:205C10000F4810480021CDE90001022261680E4C0E482568006855F8086FB0470C4910F14A
:205C3000020F088004D1BDE87640002003F010BA73BD00BF28180020784E002015880000DC
:205C50000204848002048080F04E0020EC4E0020424F00202DE9F0431E4D044600279946B7
:205C70000E46A2EB0408ADF1140DC5F8B071012003F016FE2868C00FF9D3286A0090686A43
:205C90000190A86A0290E86A03903CB12346684610F8011B5B1E09F8011BF9D10320C5F872
:205CB00038023D467CB142462046EC462B469918745C1CF8011B401E03F1010381EA0401E2
:205CD00041EA0505F3D1002D14BF0420381C05B0BDE8F0835045024070B506467468B56835
:205CF000206E03F0FCF829681A488A6B10408863002020703046FFF7DBFE304601F0ECFBB9
:205D10002968C86A20F01000C862296812480A6B104008636868FEF71FFC04F17C0003F007
:205D3000EEFD04F1980003F000FEA07818B904F1CC0003F0F6FD607818B904F1E80003F0E1
:205D5000F0FD04F5827003F0CEFD04F1680002F0F7FF70BD0DF8FFFFFEFCFFFFBCB51E4C55
:205D700004F16C05E16F28680029074631D158B3684601F067F828B1009818B1082002F0F8
:205D900071F8BCBD082003F039F9284602F084FFE06707F1180003C80E49C4430B1F1C60BB
:205DB0001A681042FBD10A6810430860F869C04341F80C0CF86951F8082C104341F8080CD3
:205DD000F86802F0DFFDBCBD04F1D000022103F0B2FDBCBD14100440080F0020F8B5074670
:205DF00003F08FFD044687B3B87A70B397F9092002F0C6FF012303FA02F1CDB250B1164ED3
:205E1000113203FA02F0331D1A6882431A60C64343F8046C0020B8610346BB723B7207F127
:205E300010063B60024686E80C000A4A7B6002F5CC7003781943017092F89A0110B1401EF1
:205E500082F89A01284602F00DF8204603F00EFFF8BDC046080F00200810044038B50C46C5
:205E7000054603F04EFD2268916B21F02001916303F0FCFE286E217D012201F077FB286EA0
:205E9000217D012201F0B6FF286E217D002202F003FB286EA17D002202F0FEFAA87801283C
:205EB00006D005F1CC004FF0FF3103F008FB03E0216888690009FCD2286E217D102202F049
:205ED000EBFAA17D0020FF2902D0E27DFF2A00D118B1286E112202F0DFFA38BDB0B51D4C1C
:205EF000E06F04F16C0570B32869806903F02AF90746286900233A4601F034FEB80806D2EE
:205F10000FB328694FF48041C4F8800017E028690F4F8269396822F0020291433960296957
:205F3000CA6957F8083C23EA020147F8081C296905F1080002F0C1FE00200221286104F116
:205F5000D00003F0F8FCFEF779FEFFF707FFB0BD14100440080F002038B5044619484178B5
:205F70000A062DD5184D287870B1184A117859B9032002F015FE010022D091200870102266
:205F90004A708C70287817E00C2002F009FEB8B101210170FF2200F10803427043600421EC
:205FB0001970102341684B70012241688A70014642680748D4700078BDE8344002F020BF05
:205FD00031BD00BF1C4E00206B180020624F00206918002070B51C4E1C4D317804462878DA
:205FF000891C8842A4BF002003F032F80022A968182353431944487828B90B78FF2B0DD0F6
:20601000686881420AD13178521CD2B2891C8A42EDDB002003F01CF8002070BD00204860F2
:2060300048610C700120487028786A78401C28702243C0B201281CBF802C402C6A7000D13E
:206050006960084670BD00BF7B4F0020281800202DE9F041074603F0CBFB16461A4AD21EE6
:206070009478A6F10C05FF2802D0926A12185479DFF85080FF2C04D140460068806880472C
:206090001DE0084602F0CCFE01464346FF20A8721D6837B92046EC6B00223346A04740B13B
:2060B0000AE0012F08D120462C6800223346A04710B90020BDE8F081304602F091FE01204A
:2060D000BDE8F081E80E00204B0D0020002213460A46194671B510F0030F0BD0002A82BF64
:2060F00000F8011BB2F1010210F0030FF6D1002A08BF71BD11F0FF0141EA0121042A18D377
:2061100041EA0141082A0FD30E46102A08D30C460D46B2F10F0312F00F0272C0103BFCD8C7
:2061300012F0080F18BF42C012F0040F18BF40F8041B12F0020F18BF20F8021B12F0010FE9
:2061500018BF017071BD70472DE9FC410446002003F0D8F9184E0546B0688047804601F03A
:206170000DFF074604222146284603F058FB384602F060FF0025012702E02D1D241DADB28D
:206190003846411ECFB278B128466946042202F023F968462146042202F0F0FC0028ECD01A
:2061B0000449012048700870F16840468847BDE8FC81C046DC0E0020B8090020FEB50C466B
:2061D000154640F67B41A21F8A423CBFAE1F8E4229D2A54227D3B3F5FA7F24DA0899A1F10F
:2061F0000A0640F67747BE423FBF5B1C6E005E43B6EBC10F17D290F8941041B1D0F8340192
:206210000A21B0FBF1F1C9006B4399420BD30C990B98019100900A9B099A2946204603F00C
:2062300081FC012801D10120FEBD0020FEBD7047F8B51A4C0546A06A2860E069686002F075
:2062500055FCA669844600200746C4F810C003463C4612E0110809D21FB91346304601278B
:206270000AE001689B188918016005E082F000420027A34288BF1C1CB6183268002AE9D196
:206290009C4238BF1C1C604603F03FF82046082894BF00200838A860F8BDC046B809002024
:2062B000F8B5184C207801282BD0174E012026F00306164B2662226A207004F12405002019
:2062D000314662629B1B2F68A362F61801E041F8040B8E42FBD8991002EB810123F0030316
:2062F00041F8040CE8213960EC3BC2F8E830E8326261FFF725FCA06128686061A06A001F3B
:20631000E061F8BDB80900207418002000400020B0B51A4C0546241D20680004070C27D09D
:206330001448006800688047134991F90720824205DD10F1800FB8BF6FF07F00C871BD428A
:206350002CBF01277F1B8D88BD4210D80A68D4F8D40F801A801C1F2888BF1F207F1B40087E
:20637000C7404FF6FF70EF19B84238BF071C8F80B0BDC046EC0100105018002030100940A6
:20639000BFB50C46E00BC00308BF00202CD017480078FFF7FDFA071C23D03B681869009008
:2063B0005869019098690290D86903907D6859689A681868DB68A8473968086017F8080C8E
:2063D00001F0F8FD0546012002F0EAFB021C08D0422035F07F07107003D000202946FFF7A9
:2063F00037FE84F40044A0B20090BFBD7018002080B51448006808B103F0ECF8124800684B
:2064100008B103F0E7F81148006808B103F0E2F80F48006808B103F0DDF80E48806808B163
:2064300003F0D8F80C48006808B103F0D3F8002002F00EFE09480078BDE804404FF4804182
:20645000FEF72AB8104F0020144F0020184F00201C4F002028180020581800206E4F002074
:206470003EB50D46290411D5164A1078FFF790FA040009D02078032812BF0128E06801F078
:2064900005F8204602F0ACFC85F4004568070AD50D4A0821D2E90034CDE90034684603F0E9
:2064B0003CFA85F0040528070AD5084A0821D2E90034CDE90034684603F02FFA85F008056A
:2064D00028463EBD6918002040AC000048AC0000174810B50068016804208847022821D0BF
:2064F00003281FD001281AD012480068C0F38150032805D002280CBF41F28832322201E002
:206510004FF47A720C490D4C09684C342046B2FBF1F103F0EEF9204603F0EDF910BD01F0D1
:20653000D5FB10BD01F0D2FB022001F01DFE10BDE0010010B43F00505C180020AC08002059
:206550002DE9F8430024002B16460F468046254606D5002FC3F1000302D57F42761E2D256A
:2065700099463846494601F043FA0CA0405CB7FBF9F7002F04F1010408F8010DF1D1A64226
:2065900005DD3021301B401E08F8011DFBD10DB108F8015D4046BDE8F883C0463031323397
:2065B0003435363738396162636465660000FEE72DE9F0410D461E4690460746062D26DAF6
:2065D000062F24DA02F092FA1349AC0004EBC5040246543164186068B0B1104602F095FEED
:2065F00006F8087C06F8075C06F8068C60683146083002F06CF8606840684FF0005103F058
:20661000FDFA0020BDE8F081104602F07EFE6FF00200BDE8F081C046B809002038B54FF0EF
:206630008055D5F8E001016801208847012822D0D5F8A401C4681148342101220023A047DA
:20665000002808BF002017D0D5F8800002F0D6F9D5F88C01C06A80470A4A094C93681168BE
:20667000D060C01AA1EB910104FB00F3180C884228BF011C1160012038BDC04600A00C4085
:2066900040420F00F817002098B5164C94F8E100002710B91448007860B103F032F994F88F
:2066B000E310002906BF012184F8E310012703F0DDFA0FB1002098BD022001F005FF0E20EC
:2066D000FEF704F8094A106848B909494020C86008600127D761002084F8E20098BD012057
:2066F00098BDC046A4080020C9AA000004800C402C500C40012898B527D1164800680168BB
:2067100001208847012820D002F026FA134C012104F1D800017003F00BF8800917D20E48D1
:2067300000683222B2FBF0F707B90F46083C04F1300003F0E2F804F13000394603F0D9F846
:2067500004F1300003F0D7F801E000F0C3FF002098BDC046E00100105C180020AC080020DB
:206770002DE9F041066890460F4602F0B1FE4FF0FF35012410B902F0D5FE30B184F0010408
:20679000E0B2002808BF002100D071680D4C204602F095FE90B9B7F1FF3F0CD0062001F038
