:20000000004000209195000001C9011001C9011001C9011001C9011001C9011001C9011038
:1C00200001C9011001C9011001C9011001C9011001C9011001C901103FC9011089
:20003C002DE9F04F0446236815460E46ADF5FE7D1846ADF1580D0BF015FB014688950022BC
:20005C0090961846C9188A928142899140F20785A34A92928A9F8E979192394686918F9130
:20007C00879193914FF0FF368396869981910F468DF8107282970778252F08BF0A1C11D054
:20009C00002F00F0EC8421680078491C216088990BF0EDFC20688A990778491C252F8A91CB
:2000BC00EED1819A2068909E401C206011E042F010020AE042F0010207E042F0020204E063
:2000DC0042F0080201E042F0040281922068401C2060206800782038F5D0C01EF0D008383D
:2000FC00EBD0801EE6D0C01EE1D0206801782A2917D0302901AA0ADB3A2908DA0146401C3A
:20011C002060097802F8011B01783029F4DA879810709DF80470B7B101A809F051F88290FF
:20013C0011E0F61C26F00306361D56F8040C002803D542F0010281924042829031462068F5
:20015C009091401C2060206801782E2929D1401C206001782A2919D0302901AA0ADB3A2957
:20017C0008DA0146401C2060097802F8011B01783029F4DA879810709DF80400002808BF00
:20019C0087980DD001A809F01BF809E02168F61C26F00306361D491C909656F8040C216032
:2001BC0083902168819B08784C382BD01C3813D0801E24D0801E04D008381DD0801F18D07D
:2001DC0026E0491C087821606C2818BF43F040030AD143F4807317E02168491C08782160CB
:2001FC00682803D043F02003819311E043F400730AE043F4805307E043F4005304E043F4FB
:20021C00006301E043F0800381932168491C2160097820686E298DF8101200F1010020608C
:20023C0000F0E083732900F037830DF20120829D859020214FF4FF7201A807F063FC8598A4
:20025C0087990DEB050707F1040B01700A468B920DF5007C8C928A468D929DF81032CDF852
:20027C0014C21846642814DC642821D0253800F0FE821C3800F04981001F022840F2458119
:20029C00133815D0093800F04081801E00F03482B6E16538022840F23881001F08D0801FFD
:2002BC00012805D9801F18BFB0F1030040F0A8818399002904D4819820F01000819002E05F
:2002DC00012083900146B3F1580007D0173809D0401E03D0083818BF0A2204D1102202E02F
:2002FC00FFFF0F000822702B00F0B280819843F66077D146D0463840203800F08B80203875
:20031C007AD0C03861D0B0F5807047D0B0F5C06036D0B0F5006025D0B0F5805013D0B3F1E1
:20033C00580000F095800C3800F08980401F00F08680801F00F08C80801F00F08980C01EA1
:20035C0000F086808EE0B3F1580000F081800C3875D0401F73D0801F7AD0801F78D0C01E57
:20037C0076D07FE0B3F1580072D00C3867D0401F65D0801F6CD0801F6AD0C01E68D071E054
:20039C00B3F158002FD00C382DD0401F2BD0801F29D0801F27D0C01E25D063E0B3F158006B
:2003BC000AD00C384BD0401F49D0801F04D0801F18BFB0F1030055D1F61C26F00306361D39
:2003DC0016F8048C4FF000094BE0B3F158000AD00C3808D0401F06D0801F04D0801F18BFE0
:2003FC00B0F103003ED1F61D26F007060836A6F1080090E8000334E0B3F1580028D00C3854
:20041C001DD0401F1BD0801F22D0801F20D0C01E28D11DE0B3F158000AD00C380FD0401F3D
:20043C000DD0801F04D0801F18BFB0F1030019D1F61C26F00306361D36F8045C0EE0F61C3A
:20045C0026F00306361D56F8045C4FEAE57907E0F61C26F00306361D56F8045C4FF0000968
:20047C00A8469096CE1745464846294350EA060708BF002903D181990E09C0F05381642B93
:20049C0018BF692B08D1002806DA01276D424FF000018C9761EB000085A9009101462846FA
:2004BC0005F04EFD8399401C814227DA9DF81032782B03D0582B18BF702B11D18199080955
:2004DC000FD3702B08BF7823859803708598401E85903021017085989DF81032401E8590D8
:2004FC0081996F2B40F01E810809C0F01B8185984278302A00F016813021F8E085993022AF
:20051C000A708599491E8591CCE7F61D184626F00706A0F1610108369096083E96E8000345
:20053C00192998BF20385546984208BF012547F6F07147F6F07000EA1940814212D1919FF8
:20055C0049464FF0000E46460A004EEA020246EA0E014FF0FF36174006EA010208BF002AE3
:20057C0040F0AB805FEA0A0740F0A78047F6F07181420FD1929F4946404600260A00304329
:20059C0046EA02014FF0FF320F4002EA000008BF00283ED05FEA0A073BD149464FF00040F0
:2005BC000840070007BF0020002889F000494FF0010AB3F1410025D0001F19D0401E10D096
:2005DC00401E07D01A381DD0001F11D0401E08D0401E15D14946404681AA85AB02F02CFC87
:2005FC000CE04946404681AA85AB08F003FC05E04946404681AA85AB03F086FC9DF81032EB
:20061C0081998FE04946404681AA85AB01F0D2FD2BE09FA20CCA4946404606F06FFF26D371
:20063C00002D14BF4621662185988DF80012002DA0F10100859014BF4E216E2101708599C8
:20065C00002DA0F10100A1F10101859114BF4921692101708599491E85912B2700F8017C7B
:20067C0085984FF0030A401E8590819958E0002D14BF4621662185988DF80012002DA0F1D0
:20069C000100859014BF4E216E2101708599002DA0F10100A1F10101859114BF4921692198
:2006BC0001708599491E85912D2700F8017C8199DDF814C24FF0040A2FE0002D14BF4E21B9
:2006DC006E2160468DF80012401E002D859014BF4121612101708599002DA0F10100A1F1FB
:2006FC000101859114BF4E216E214FF0020A01708598401E859081E7F61C26F00306554675
:20071C00361D16F8047C909607B901258D9581998DF8007221F0020181916046401E85905E
:20073C009DF81032859A752B02F101002BD06F2B29D0782B27D0582B25D0702B23D05FEA9C
:20075C000A0703D07F1E1ED101238C9301F002038C9F8B931FB98B0808D32B2100E02D21CB
:20077C001170859A8199401E521E85928B9E374309D1CA0807D3859920220A70859A819982
:20079C00401E521E859249080DD2859D8299ADEB050202F20122914205DB01A96D1A5D44B0
:2007BC00A5F5FE7500E001ADAC46401E4FF4FF7110F8017F0CF8017B1FB1491EF8D1DDF8A2
:2007DC004CC28D9FCDF814C227B1879960460170401C85908598834509D3ABEB000220210E
:2007FC00401E521C07F08EF987988BF80000819840092ED301A8A84232D001A82A1A3021BB
:20081C0001A807F07FF98B9F8C9E374305D18198C00838BF0DF1050007D3287830218DF8D5
:20083C0004000DF1060005F8011B9DF81022782A03D0582A18BF702A02D18199090903D278
:20085C00612A18BF412A0BD16978017030276F7006E001A82D1A20212A4601A807F052F9D9
:20087C0001A80AF0FFFE8D9F0246D21904E07EA00188012201AF3980889901A80AF074FD11
:20089C00B0F1FF3F00F0A5808A9909188A91DDE00000000000000000839DD80949D2DDF83B
:2008BC002092F61C26F00306361D56F8048C9096B8F1000F00F09180829F002D06D440467B
:2008DC000AF0D0FEA84288BF281C02D840460AF0C9FE0546BD42A8BF071C8A98AF4238443B
:2008FC008A900ADD580808D27E1B002E05DD202049460BF0BCF8761EF9D1002D07DD2E4697
:20091C0018F8010B49460BF0B2F8761EF8D18198AF4240F39B804008C0F098807F1B002FDD
:20093C0040F39480202049460BF0A1F87F1EF9D18CE0DDF82092F61C26F00306361D56F8C5
:20095C00047C9096002F48D0829E002D06D438460AF0CBFEA84288BF281C02D838460AF05F
:20097C00C4FE0546B542B4BFB04680468A98A84540448A900BDD580809D2A8EB0506002E8C
:20099C0005DD202049460BF072F8761EF9D1002D0BDD2E46BF1E37F8021FC8B2884214D1E8
:2009BC0049460BF064F8761EF5D18198A8454DDD40084BD3A8EB0507002F47DD2020494684
:2009DC000BF055F87F1EF9D140E00BF05DF8582101604FF0FF308A9041E0939849460BF0A4
:2009FC0046F833E043F660701840203825D0E0380ED0B0F5807017D0B0F5C06008D08A99AA
:200A1C00F61C26F00306361D56F8040C01601CE08A99F61C26F00306361D56F8042C084608
:200A3C00C91782E8030010E08A99F61C26F00306361D56F8040C017007E08A99F61C26F0B5
:200A5C000306361D56F8040C018090968A98B0F1FF3F04D02068899981423FF603AB8A98D2
:200A7C007FB016B0BDE8F08F250070472DE9F04F0F46BA4C0168E16241688068ADF1140DB9
:200A9C00E060B748A1608047B648E16A0160A168DFF8E8A24160E168DFF8DC928160B24914
:200ABC00002FA346C16066D03D68A86808B1AF490160E86808B1AE490160AE4C2878207059
:200ADC0068786070A878BE68A0703178B268E1707368A2602E696360EA6926627968E262A9
:200AFC000868E06068696062A8697B68A062286A9E68206395F8240084F834001EB900202E
:200B1C000AF056FB00E066617868C06818B900200AF04EFB00E0A0617868006918B9002070
:200B3C000AF046FB00E0E0617868406818B900200AF03EFB00E0206128692062F8688168D4
:200B5C000E6806B9C14EC0494FF001084E60C66881F8018036B900200AF02AFB4D462E68B7
:200B7C00F86801E04D462E6000685446FB68A0615868E06107E000200AF01AFB4D462E6851
:200B9C004FF001085446361DB1493668621C04F114035020B04710B1286880688047DBF8A8
:200BBC0008008047AC4E002781463B46A94877706946206104223370384609F007FC0098FE
:200BDC00B0F5801F0CD020B909F09EFE03F0F0FE08E008F035FD0AF003FE0427778002E079
:200BFC0009F092FE04270020A34E2A68A0600346B360906980477060984880F8008000219D
:200C1C0041800A200AF0D4FDFF210A22A0620AF0B1FFE01CFF2102220AF0ACFF0A200AF001
:200C3C00C7FD8F4E3060306800210A220AF0A2FF002000F06FFB404608F0B6FF89480188E0
:200C5C00FF2906D1022101807822001D00210AF091FF032000F012F983482B6807705F68B9
:200C7C00002103AA102001ABB847A06AE1690527401D9DF80C207F1E00F8012BF9D1891EDF
:200C9C00E161DBF80C104846884704F120002B68626A049040461F69DFF8D08104F1200354
:200CBC004146B84710B1286880688047B04609F063FF5FEA000903D005F0DEFC4FF0FF39D6
:200CDC00002637E00298216910F8062CA0F10C07032A02D171B388472CE0A16A9DF80EC04C
:200CFC0005223046491E11F8013F9C4506D0521E00F10100F7D14FF0FF0A01E05FFA80FAAE
:200D1C002868BAF1FF0F00F1080011D0387909F017F9B979012904D0022904BF0299887029
:200D3C0001E002990870029950460AF00BF901E0006880472868C3690DF10E0102AA0DF1F1
:200D5C000D0098470028BDD0D8F800007700C35BB3B9761CF6B2052EF8DB34E08C170020EE
:200D7C0041490010F84400202CBF000001BB000007BB0000E8190020D01C0020181B002078
:200D9C00052E20DADBF808008047D8F80010002231F807A0CA53DBF80C108847344850F8F7
:200DBC00262026705146304690470646FF202070DBF808008047D8F800107A5A16437E52DD
:200DDC00DBF80C10884709F0D7FE0746B9451AD007B9284FE069B84238BF071CDBF80800C7
:200DFC00804781462868016A206A8847626A28681E49049B521C6262C6683846B047DBF8EB
:200E1C000C1048468847A7682968606914318FB9D8F8000005270026835B33B10969606928
:200E3C0088472968D8F8000014317F1E06F10206F2D103E0096988472968143109684FF018
:200E5C00FF30884733E7C0462C1C00206B80000009AD00002DB40000C01C0020BC1C00207A
:200E7C00602600202818002070260020959F0000A4CE00008EC2F5281C260020DFF800F05E
:200E9C00598801102DE9F04F0178D029ADF1140D40F0918005464E4CA8786168002800F097
:200EBC008780401E7FD00C3840F08580E878042800F081801020012109F092FD80460121AA
:200EDC000620CDF8008009F08BFD2E6901903BA1304609F0A5F807463BA1304609F0A0F8CA
:200EFC00A1466FB9002808BF002712D00146082011F8012B401E08F8012BF9D1082007E0C8
:200F1C00102017F8011B401E08F8011BF9D11020012799F80280002F3ED06A1D01991368D2
:200F3C0092880B6083468A8095F90BA0009A0391B8F1080F02922ADAB8F1000F0FD004F1F2
:200F5C00B0074646B634029821465A4609F0AAFED8B1761E07F1170704F11704F3D1029964
:200F7C00172000FB08945A46B034A01D05F00EFD039884F816A001688088216008F1010786
:200F9C00A080FEB289F8026001E087F816A028692A7B002106F0B6FD00980AF02DFA01981A
:200FBC000AF02AFA07E003F08DFD09F0D1FB02E008460AF096FC05B0BDE8F08F544152470B
:200FDC0045544445562D00C0414E432D00C046C00802002010B50AF0D1FD002400B101241A
:040FFC00204610BDBE
:20100000B41200001810000015AB0110FDB301106DC00110FDAE011099B5011000000000F7
:08102000000000002D0000009B
:20102800B01200003C100000B1C00110A9BF011067C0011069B80110000000000000000035
:041048003000000074
:20104C00B012000060100000BDC00110CDB30110D9BD01106DB3011000000000000000005B
:04106C00310000004F
:20107000000000004C1C002004000000000000000000000020000000E8C9011030000000C2
:2010900028100000541C00200400000000000000000000000C000000D8CA0110180000009D
:2010B0004C1000005C1C002004000000000000000000000024000000F0CA01101800000021
:2010D00000000000641C00200400000000000000000000001000000018CA01102C0000002D
:2010F00000100000741C0020040000000000000000000000200000006CCA01102400000091
:20111000FFFFFFFF7C1C00200400000000000000000000002800000090CA01102400000050
:20113000FFFFFFFF841C00200400000000000000000000001400000008CB011018000000CF
:20115000FFFFFFFF8C1C002004000000000000000000000058000000B4C90110340000009D
:20117000FFFFFFFF941C00200400000000000000000000001000000020CB0110180000006B
:20119000FFFFFFFF9C1C00200400000000000000000000001C000000B4CA01102400000098
:2011B000FFFFFFFFA41C00200400000000000000000000003800000044CA011028000000C0
:2011D000FFFFFFFFAC1C00200400000000000000000000005400000078C901103C00000035
:0811F0000100000094CF000093
:0411F80001000000F2
:0411FC0000000E00E1
:0412000000000F00DB
:0412040032000000B4
:0412080001000000E1
:04120C00AC1B0020F7
:0412100000020000D8
:0412140000000000D6
:0412180001C90110F7
:04121C0000000000CE
:0412200000000000CA
:0412240008000000BE
:0412280000002200A0
:04122C00201A002064
:0412300000000000BA
:0412340000000000B6
:0412380008000000AA
:04123C006C1B002007
:0412400000000000AA
:0412440000000000A6
:04124800080000009A
:04124C00000000009E
:04125000000000009A
:041254000000000096
:041258000000000092
:04125C00010000008D
:04126000B81A002098
:041264000600000080
:041268000100000081
:04126C0054190020F1
:04127000000000007A
:041274000000000076
:041278000002000070
:04127C00000000006E
:02128000290043
:02128200010069
:02128400250043
:02128600300036
:02128800310033
:02128A002D0035
:02128C0001005F
:01128E00015E
:081290000300000030CF000054
:0812980000000000000000004E
:0412A0000000010049
:0412A4000000030043
:0412A80013C401105A
:0412AC00B3B50000D6
:0412B000B812000070
:0412B400B81200006C
:0412B8000000000032
:0412BC00201C0020D2
:0412C00019B700005A
:0412C4002000000006
:0412C800B8CE00009C
:0412CC005CCD0000F5
:0412D00029C101101F
:0412D400638F000024
:0412D8005793000028
:0412DC00A1C7011095
:0412E000A3C701108F
:0412E4000000000006
:0412E800ABCD00008A
:0412EC0068CB0000CB
:0412F00080CB0000AF
:0412F40050CB0000DB
:0212F8000200F2
:0212FA000900E9
:0212FC000100EF
:0212FE000000EE
:0113000001EB
:0413040095B600009A
:0413080005A000003C
:04130C0075AD0000BB
:041310004DA30000E9
:0413140073A00000C2
:0413180079940000C4
:04131C00CD7100008F
:04132000F1B8000020
:04132400F18A00004A
:0413280015C70110D4
:04132C0025C70110C0
:201330002DE9F84FA949AA4AAA4D08700821002010600D23A84840F2353201704380828043
:20135000A6480560AC7EA6480470FF2CE97E417008BFFF292A7F82706B7FC370AE7F067110
:20137000ED7F457114D1FF2A08BFFF2B10D1FF2E08BFFF2D0CD19B490A7802704B78437010
:201390008A788270CB78C3700A7902714979417195490278DFF85482DFF854920A70FF2509
:2013B00043784B7082788A70C378CB700279914B0A714079487188F8005088F8015088F8D8
:2013D000025088F8035088F8045088F80550002089490880D9F834408849607808702278B5
:2013F00087491A70A0780870A2681079854A411E1170E0788449854A0870E068106008B9CC
:2014100009F0DCFE60698249086008B909F0D6FEA069DFF800A2CAF8000008B909F0CEFE95
:20143000E0697D49086008B909F0C8FE7B4C7C4E20790AF0C3F93060F0B16079794F0AF0F9
:20145000BDF93860C0B1A079DFF8DCB10AF0B6F9CBF8000080B1E0790AF0B0F97349086083
:2014700050B164490A782078921C504380B20AF0A5F96F49886018B9BDE8F14F06F0D6BCAB
:20149000316801200871326815733068457331688D733068C57331680D74002130684574A2
:2014B00000203268D172A0223168487103213068C28001720720326850720021306881726B
:2014D0002821306801224182C2760020316848770022306880F85E20012132681177012070
:2014F000316881F85D0001223868027139680D733868457339688D733868C57339680D7423
:2015100000213868457400203A68D172002239684871386882724FF420703968C8800881E7
:201530008A7401213B68D974DBF800201573DBF800104D73DBF800209573DBF80010CD734F
:20155000DBF8002015740022DBF800104D740121DBF80030DA720023DBF800201171DBF85D
:2015700000104B71DBF80010C88008818B720520DBF800209374DBF800102E4AC8741068B0
:201590008047DAF800100A6805469047DAF8001051F8042F00209047D9F80C101A4B0A88C5
:2015B0001878254902430A802846244A1368984740460AF0AFFC0AF0A9FCBDE8F44F03481B
:2015D00000784FF4005104F0F3BA00BF6E4F0020044F0020B63F0050604E0020084F0020B5
:2015F0002C4E0020E81200503C4E0020344E0020A8CF00007B4F00200C4F00206D4F0020F3
:201610006B4F0020724F00206C4F0020F04E0020F84E0020FC4E002004250020141C00205D
:20163000104F0020144F0020184F00201C4F00202826002094170020544F002098170020BB
:201650002DE9F04F09AFADF13C0D08900A92388809911E46ADF81800101C08BF002000F0D4
:201670007581017800274FF0010B401C4FF0FF39B846DA460A9061E1252940F056810178DE
:20169000401C0A902D2918BFADF8068004D10178ADF806B0401C0A9030291CBF4246434608
:2016B00004D10178401C5A465B460A902A29CDF800804D4617D1049330680A9BCDF8089051
:2016D000C01C20F00300001D306050F8044C1978002C009403F101000A9018D5ADF806A0AE
:2016F0006442009413E044460AE0600000EBC4004018A0F130040A9801780094401C0A9068
:20171000302901DB3A29F0DBCDF8089004932E2929D10178401C2A290A9011D13168CDF80F
:201730000880C91C21F00301091D316051F8045C002D48BF454601782B46401C0A9011E027
:20175000454643460AE0680000EBC5004018A0F130050A9801782B46401C0A90302901DB8E
:201770003A29F0DB02930AB1224604926C2904D04C2918BFADF8048004D10178ADF804A068
:20179000401C0A900BA8CDF80C800FAB07906429059300F0828069297FD0BDF818C07529CB
:2017B0006DD0782969D06F2965D070294ED063293ED0732922D00A98401E0A9009980128F2
:2017D0001AD966490C68B5F1FF3F03D0A84288BF6D1C05D86FF00041814294BF0D1C099D10
:2017F000029508A80AA932466B46A04709993F18091A0398099165E0454617E03068C01C43
:2018100020F00300001D306050F8040CBCF1010F014608B94FA00146079109F029FF039059
:20183000B5F1FF3F4FD0A8424DD9039528464AE03068C01C20F00300001D306010F8040C09
:201850008DF82C005D46039558463CE0082035680490E81C20F00300001D306050F8041C4D
:20187000082210230FA806F0C1FB401E079040210170079823E0082302E0102300E00A23DC
:201890003068C01C20F00300001D306050F8041CAA42BCBF2A1C04920DE03068C01C20F0E8
:2018B0000300001D306050F8041CAA42BCBF2A1C04926FF009030FA806F098FB07900599DD
:2018D000081A0390009C241ABDF8065000945DB906E008A8202109AA09F0B2F87F1C009C50
:2018F000641E0094F5D50398401EB0F1FF3F03900FD1BDF8060001281CD10098401E009056
:2019100018D408A8202109AA09F09AF800987F1CF4E70798017809AA08A809F091F80798F2
:20193000401C079003987F1CDEE708A809AA09F087F87F1C0A980178401C0A9000297FF486
:201950009BAE089808B14146017038460FB0BDE8F08FC046286E756C6C2900C0A0CF00003B
:20197000BB482DE9F84F0025BA4CB849056094F8E200002800F06581012800F02F81B64E2D
:2019900002283CD0032840F05C8151F8250CD4F8B8100029A0F5C060C4F8D400B8BF49424B
:2019B0000028B8BF4042814226DA4FF08057D7F8A4014568B4F8BC0030214FF47F42082314
:2019D00000903046A847D7F8A4014568B4F8C00004214FF4F802122300903046A847D7F81A
:2019F000A401B4F8D070456820214FF440620A2330460097A847012584F8D8501CE151F83A
:201A1000258C09F086FF2F4600B901273946934F38680028FCD0B146012609F10409D9F846
:201A30002CA03E6009B109F07AFFCAF30720C4F8BC0009F06EFFAA4600B9B2463B68002BCF
:201A5000FCD0D9F800B0BAF1000F3E6001D009F066FFCBF38440C4F8C00009F05AFFAA4662
:201A700000B9B2463B68002BFCD0D9F81C90BAF1000F3E6001D009F052FFC9F38120C4F802
:201A9000D000B8F5C061C4F8B81000F09C8094F8D80068B9C4F8D410D4F8C000C4F8C800D3
:201AB000D4F8BC70C4F8C470D4F8D030C4F8CC30D4F8D400D4F8BC30002854BF02226FF094
:201AD000010204F1C8010F6800EB40008018421000EB927207EBA2000860D4F8C810C4F85E
:201AF000C43000291CDD1E293CDDD4F8CC0030B93429B4BF15391E21C4F8C81025E02A2996
:201B1000BABFD4F8C8000B381E20C4F8C800D4F8C4003F28B4BF401C3F20C4F8C4001FE0FF
:201B3000D4F8CC00032812D011F10B0FC6BFD4F8C8000B30301CC4F8C800D4F8C4000028F8
:201B5000C4BF401E051CC4F8C450032508E011F1150FC6BFD4F8C8001530301CC4F8C8003F
:201B7000C4F8CC504FF08057D7F8A401B4F8C43030214FF47F424568374800930823A84725
:201B9000D7F8A40104214FF400321123456832480096A847B4F8C860D7F8A40104214FF497
:201BB000F802122345682C480096A847D7F8A40120214FF440620A23B4F8CC604568264886
:201BD0000096A84701E084F8D85040F2FF50404502D8801C40452FD2082030E051F8251C27
:201BF0001F4F4BF2F5204843060A3868C0F3814001280CD11B4800680068804707F008FF68
:201C100009F093FE3111C010484306EBE03694F8E50030B91448006820F07F4036187608CD
:201C300001E084F8E5501148310C0660012741600F4D8760287808B90B2000E0052084F8ED
:201C5000E40001F06BFCBDE8F88FC0462D400C402C500C407816002000A00C4000800C401F
:201C7000B43F0050EC010010102009403C600C4075CE00002DE9F84FDFF8C8A20F46044633
:201C9000F80B80F01281AA4EDFF89882B80F80F0C380B80880F0B7803809C0F03881082092
:201CB00009F056FE002840F0A980802009F050FE002840F0A380684604F084FD012803D1C4
:201CD0000098002800F09A8095480078002840F0958000250124E8B209F0ACFC48B1837AED
:201CF0003BB1847290F9090004FA00F0C0B208F069F86D1C032DEED345464FF0030905F161
:201D1000AC0085F8109009F011FF87480168002398461A46036050F8081C844940F8088CE0
:201D300005F1340009F00CFF3068006B8047A968401A010BA869C1F1FF3282422CBF084435
:201D50004FF0FF30A861287F20B1E868A969B1EBC02F25D909F09CF8414600B12146081C49
:201D70001BD0744840F60901018043464380417B04F00F0221F00F010A434273017B03F04C
:201D90000F0621F00F0146EA01020273436009F0F5FC418811F4406FFBD02C774346AB6148
:201DB0006548016821F0020141F400710160634941F8049C41F230028A600C6050268E603E
:201DD0000C604FF4CA628A600C6041F80C4C44460460022008F0C8F9112003F049FF28785C
:201DF00018B96868383009F0B7FE687F18B16C77052008F0B9F9524868612C7406F070FC55
:201E100027F0080783E003F065F945467435286808B927F002077AE009F08CFEB346814696
:201E3000DBF85400016804208847D8B1207CC8B1454608352868A8B10646DBF80000E56854
:201E5000006B8047801BE060000BE060A84202D240194008E06040F6C41181422CBFB0F51D
:201E7000FA7FE16048460AF04DF807F08FFF90B1A56920466FF4807100224FF00073A8477A
:201E9000464606F16C052868002808BF47F0020701D006F025FC2046646900214FF0806321
:201EB0000A46A04727F0005731E009F043FE51460E6846B306F1280106C90A234FF0E0459C
:201ED0000B40154008BF002B1DD106F1280191E8300006F1280393E8060006F12803AA43F7
:201EF000A14383E806000AF00DF8B16869B1002D08BF002C09D030692246B6F93C10B4683A
:201F10002B46A04701E009F0FDFF27F4804727B150463946503009F027FEBDE8F88FC046E4
:201F3000891E0020F01C002014100440398A00008C010010F4250020000004600C410440A8
:201F5000015B0000701D00202DE9F04F8246DAF80070DAF804600C465FEA0208ADF11C0D67
:201F700014BF00214FF0FF31DFF84092484609F0B0FB002818BF0B2040F0158100258F4827
:201F90008C4905708A48FC60524609F0D9FD317B272009F0D7FDB8F1010F07D0657002200B
:201FB00008F07AFA062008F077FA01E0012060702078012840F2AA80801E012868D9801E81
:201FD000012833D9801E012800F2DE8009F0B2FD83464FF0805000F5EE77D0F8DC01A3780B
:201FF000466A009321782846062908BF0120019001200290A068228AE1686368B0478146A6
:20201000584609F07FFFB9F1000F40F0BF80B8F1000F02D009F0EAF902E0504608F026F97E
:20203000002800F0A3803868806A2AE009F082FD83464FF0805000F5EE77D0F8DC0101234E
:2020500006680093A168A27860682478AC46042C08BF9C466346B0478146584609F052FFCE
:20207000B9F1000F40F09280B8F1000F02D009F0BDF902E0504608F0F9F8002876D03868AD
:20209000406880474C49C1F8B0510D6081467DE009F050FD83464FF0805000F5EE77D0F8A1
:2020B000DC01E38A86690093E0680190208B0290A0780390207D0490012105912278284692
:2020D000022A08BF081CE1786268A368B0478146584609F017FFB9F1000F57D1B8F1000FA7
:2020F00002D009F083F902E0504608F0BFF800283CD03868006A80475FEA000946D1E0789C
:20211000A168E28A236905F085FABFE709F012FD83464FF0805000F5EE76D0F8DC01E38A49
:20213000C7680093E0680190208B0290A0780390207D2946049001200590257805B9014614
:2021500008466268A368E178B8478146584609F0D9FEB9F1000F19D1B8F1000F02D009F099
:2021700045F902E0504608F081F808B914201AE03068406980475FEA000907D13068026904
:202190002169E078904781E74FF0FF39B8F1010F05D0022007F0E8FF062007F0E5FF0348BD
:2021B00009F0DAFC484607B0BDE8F08FA8180020E01800207DAA0000504502406E2600202D
:2021D0002DE9F04F074616460020ADF17C0D1B938AA4009094E80C00384605F0D8F98846A4
:2021F0000FF228290CD987A494E80C00384605F08BF905D999E80C0005F086F902D109E053
:2022100094E88001414638466A4606F03BFC0098401E0090307BB5680024A0F14101B5F1E4
:20223000FF3F1D9108BF0124A24641280CBF69A06DA01E9030208DF8080099E80C004146E5
:20225000384605F061F938BF88F0004899E80C00414605F059F90CD0384601AA06F012FC86
:20227000019A41463846C2F1010203F045FA88460746384607F0D4F883460DF1090106F0A3
:2022900015FE0446584608F023FA0B4602464146384600F0BDFE0FF27C1B0DEB04021C948F
:2022B0000746BAF1000F02F1090451D16D1C15D09BE80C0002F09CFD8846814607F0B0F829
:2022D0001E99095C04F8011B08F002FA0B4602464146484600F09CFE6D1EE9D11D9F641E0B
:2022F000002F14BF40A33BA32178184609F04EF9C01A082831DB254600271D986D1E0028C4
:2023100014BF39A333A32978184609F03FF9C01A401C1028B4BF195C3021102829701CDB89
:202330002F70EAE79BE80C00384602F061FD0D46074607F075F81E99095C04F8011B08F090
:20235000C7F90B4602462946384600F061FE074699E80C0005F0D8F8E4D10025307B25701F
:20237000412814BF702150211B9A009806F0C8FDB068B0F1FF3F05D10DF1090009F078F9C9
:20239000401EB0601C991B9B0DF109040246204607F0A6FC3168B0682A4601F0080108439C
:2023B00018BF01221C991B9B204605F09BFF307B412814BF782158211B980268531E0360C9
:2023D0001170016830274A1E02601FB00F70BDE8F08FC046303132333435363738394142DA
:2023F0004344454600C046C03031323334353637383961626364656600C046C000000000CD
:202410000000F07F000000000000F0FF000000000000000000000000000030402DE9FE4F7B
:2024300005467B48002400680094C00905D37948007810B9202007F033FF012D40F0E28092
:20245000DFF80092D9F8DC00012840F0D8800220C9F8DC0008F046FF012007F021FF5FEA28
:20247000000805D00120C9F8DC0008F047FFCBE009F076FBA34602906748684DC0F800B017
:20249000A86A016801208847012804D1584605F0F3FE012000906248624FC0F800B038682B
:2024B000112009F04FFA00B10124102009F04AFA08B144F002040F2009F044FA08B144F010
:2024D00004040B2009F03EFA20B12868564E016B308888470A2009F035FA20B12868534E3C
:2024F000016B308888475248012606602868816944F0200088474F48066009F01DFA00F018
:2025100001010191400814D2286A81684A4888478246BAF1040FF7D0BAF1010F04D1286A9E
:2025300042684548032190474449086820F003000860584600F088F82B683868986B8047D6
:20255000019801280CD0BAF1010F04D1286A42683948314690473949086840F003000860A5
:202570002F48066028684169204688470B2009F0E9F920B128682C4BC16A188888470A205D
:2025900009F0E0F920B12868284BC16A18888847274806600322C9F8DC20264BC3F800B058
:2025B0002868416B204688470128F9D13868042007F076FE04461848066038681448006804
:2025D0008009FBD30098012802D1304605F054FE09F0A5F9082007F063FE07460298C9F884
:2025F000DC6009F08BFC1648008805F0AFFB08F085FE57EA040018BF4FF0FF3804E06FF03A
:20261000040801E06FF001084046BDE8FE8FC04614100940601700200C400940B801001035
:20263000000222432C20094032CB00002ECB0000282008608001044300400340242208400F
:2026500070CE0000781600202DE9F84FDFF804B20746ABF13500DFF8F0810068800880F0CE
:20267000E28075480068006880477E490831D1F8009000254FEA29715FEA995201F101011B
:202690000AD2C0F13E0210F10A0F4FEAE202D8BF08229142B8BF111C684BD3F87C21C2F31E
:2026B0000462162AA8BF203A1B68C3F30443162BA8BF203B9A465218162A05DA12F10A0F9B
:2026D000B8BF6FF0090200E015225D4B5D4E02F01F0141F4F8511980316811F0030F18BFF3
:2026F0000125C90828BF45F002050FB145F00405434693F90710411A052904DA9979A94222
:2027100008BF99886FD0DFF844E10F28A0F10F0829DB08EB0011A1F1F0084FEA2821009102
:20273000072984BF07210091062988BF06215EF821600424774604EB81043C594FEA950C21
:20275000A41BEE0804F0FF0124BFC4F3072631446F08AE0824BFC4F3074631446E0828BF9E
:2027700001EB146104E000214FEA950C6F080091009C5EF824E05FEA5C060EF0FF0424BF7C
:20279000CEF3072634447E0824BFCEF3074634446E0828BF04EB1E64009E89B2A8EB06266E
:2027B0007143803104EB1124AAEB02010029D8BF0121342209F0FF074A4391B24FF6FF722B
:2027D0007943B1FBF4F18A4238BF111C802889B2998005DA10F1800FB8BF6FF07F0000E00C
:2027F0007F20D8719D711A4800681F2918604FF0000008D340F2FF128A4206D24908401C9B
:202810008A42FBD301E01F219980134F0F39090940EAC10047EA0001CBF8FB1F0026CBF835
:20283000FF6FBDE8F88F0D490D4F434608200F609B1D1870BDE8F88FEC0100103C11005016
:202850006E62084024220840502600209C130050082009403500094000E7A48030100940AA
:20287000FDFDA400AC3F00502DE9F04F044672488E46016894461F46BEF1000FADF13C0DF5
:202890004DD0BCF1000F4AD09EF8002001209040014244D0BCF80000B0F5C15F32D1DCF8E7
:2028B0001400DCF81860654BDCF81C50DFF890A10B904FF003080DF128090C9618680D95D8
:2028D000C0F3036B59F8046FCEB10021351F05200B4655F8042FB2F1FF3F10D0924506D0AB
:2028F000401E01F1040103F10103F2D107E0052B05DA705820F4702040EA0B407050B8F178
:202910000108DFD1C4F804E0C4F808C009F012F94C4D8046287820B1404609F0F3FA00206A
:2029300087E001F069FD4849086840F00200086007A808F02BFF002605F1D00007AA434934
:20295000099607F0BFF8424905F5827007AA07F0B9F807A808F0EAFEFF20192107AB3D4A29
:20297000089005F1340006F0F7FF3B4A05F150001A2107AB06F0F0FF3849324605F1880085
:20299000134606F0E7FA3649324605F1AC00134606F0E0FA334A05F120000421334608F00C
:2029B0008DF80E2003F01EFA05F1740008F01AFE05F16C0008F016FE2E740523EB60072025
:2029D00085F898012E77AE616E772849AE60264A69612B781670581C2870404609F092FA3F
:2029F000B1461FB9684608F007FE6F4638682060388A6082012060747B6813B940F6C41323
:202A10000646E3601A48A06126746061F86800B1A061B86800B160614946582204F1200097
:202A300005F076F804F13800494607F01BFF6C6020460FB0BDE8F08FD4210840541300504D
:202A50000200F844F01C0020002009403DB30000A5580000398A00009984000081AE000097
:202A700025B100009191000068260020015B0000676300002DE9F04F774F1E46ADF1340D1C
:202A900001914FEA960902923D680090710809F1020221F0010105EB8200091D0390901896
:202AB00005EB80000490501805EB80038018059305EB8000079026F0030000F1080802EBE9
:202AD000080005EB800340180893801805EB80000990C6F39C008000083002EB4000411844
:202AF00005EB800305EB810B0A938918831805EB8104404405EB8303C6F3990105EB8000CC
:202B10008900069038680B930A010021803204F0FFFF4A49DFF828A109682846AAF1880241
:202B300090470746B94518BF6FF0010040F0828028465546394605F168029047019831462B
:202B500008F066FA002818BF012073D10298314608F05EFA002818BF02206BD103980199B6
:202B7000A84704980299A847009881680598A847344B0399059A20469946C847012802D119
:202B9000BD0066590EB1032054E020460021424604F0BEFF0499059A2046C847012801D127
:202BB00066590EB1042045E0284B274D079803991E462A46B047089804992A46B04707990D
:202BD00009980A46B0470A980999079AB047204D0B9807992A46B04720460021282204F045
:202BF00097FF1C4B0A990B9A20469946C847203520462A460146C847089958460A46B04725
:202C100006980021424604F083FFFDB2584625B9F9B20229B8BF012200DBFAB20021635CE5
:202C3000455CAB4218BF052004D1491C521EC9B2F5D100200DB0BDE8F08FC0468C4F00200D
:202C5000B9DB0010C9DE00104C1B0020F9E0001024CC0000C9E60010884F00202DE9F043AA
:202C70000546880FADF1140DC0F0D6806C4C201D006840688768C668406800B18047002F2C
:202C900008BF002E08D008F0C1FC07B1B84706B1B047644807F0FEFE634808F06FFD634AE2
:202CB00040F60A0CA2F800C000205080117B00F00F0321F00F010B4313735060517B4FF030
:202CD000010808F00F0721F00F0147EA01035373AB686E7C58801988A1F60201C9B141F2F4
:202CF0001E07C91B15D041F6E677C91B012920D8597E012E60F38201597606D0198B21F402
:202D10007C7141F43471198313E0198B60F30911F9E7597C012E60F38201597405D0198A3D
:202D300021F47C7141F4347102E0198A60F309111982D5F80890687461464E4600E03E463A
:202D5000776817B13B889942F9D17260737B00F00F0723F00F031F437773E76E3FB1FB6875
:202D70001B88CF1F9F4224D0891F994221D02F8C07B3686205F12003588095F82C1000F080
:202D90000F0721F00F010F4385F82C7095F82D1008F00F0721F00F010F4385F82D70536069
:202DB000517B00F00F0721F00F0147EA0100507300E0A0601E4801688768C568009110228D
:202DD0006946406B019720F0784040F0805003901848029503F0E0FD08F018FC16486061A4
:202DF000607F80B91548006801684046884701280FD0707B08F00F0120F00F0001437173E6
:202E10000F4F676105E006F0C7FC0028FBD008F09FFE484608F0B2FC05B0BDE8F083C0464F
:202E3000F01C00200100070601010E04F42500204C13005018000021851C0000E001001081
:202E5000598C00002DE9F04F04461646B068ADF16C0D00281A9302D003D5062000E00120AD
:202E7000B0608946302162A58DF8001095E80C00471C2046494604F047FBA24638BF89F007
:202E90000049002412E03020087055E09BE80C0001F0AEFF641E8946824611E09BE80C0000
:202EB000504601F00EFA641C8946824654A20CCA494604F06CFB0FF2401BEFD34FF0000841
:202ED00095E80C00504604F01FFB05D04EA20CCA504604F019FBD9D3504606F0A1FA0DF1AB
:202EF0000101199005F0E2FF0DEB00052418874205F1010518DD3F1A199807F0E9FB0B4618
:202F100002464946504600F083F89BE80C0001F06FFF8946824606F083FA199030307F1E2B
:202F300005F8010BE8D102E00DEB07056D1C15F8010D35280ADB294611F8010D401CC2B29D
:202F50003A2A08709FDA6F468F4204D040460DF10107287002E0641C05F8018C14F1030F8B
:202F700007DBB068A04212DA022CA4BF641EA04405DA002C04DCC4F10104A8EB0408012419
:202F9000307B1A9A801EC1B2404605F0B9FF384608F06EFB0025401E844219DC021B521CD6
:202FB000002803D4395C302901D004E0302115B933681B0908D3DDF868C0DCF800305D1E2A
:202FD000CCF8005001251970521EA0F10100E7D13068002200F00800284318BF01221A9B98
:202FF0002146384605F07EF91BB0BDE8F08FC0460000000000000000000000000000244017
:203010000000C0FFFFFFDF41000000000000F03F2DE9FC4F83F0004301E02DE9FC4F1F0319
:20303000FF0847EAD2574FEA42284FEA43095FEA595906D147EA080A1CBF00210020BDE821
:20305000FC8F57F000575FF4E06E1EF1FF0EF14505D14FF00000190D0905BDE8FC8F002BA0
:2030700005D55FF0000AD8F100086AEB07070C03E40844EAD0544FEA40254FEA4106760DEB
:2030900008D144EA050A19BF00210020191C101CBDE8FC8F44F00054764504D10020090D12
:2030B0000905BDE8FC8F002904D55FF0000A6D426AEB0404B6EB090E08D5A2463C465746BF
:2030D000AA464546D046CEF1000E4E46BEF1360F5CBF4FF0000B23E0BEF1000F04BF4FF0D2
:2030F000000B1AE0CEF1390ABAF120092EBF08FA09FB07FA0AFB4BEA080BDEF1200A07FAAA
:203110000AFA38BFBA4647FA0EF72DBF28FA0EF8AEF1200E4AFA0EF8D04415EB08057C4155
:2031300054EA050A02BF00210020BDE8FC8F002C58BF4FF0000A06D55FF0010A5FF0000EE2
:203150006D426EEB0404A6F101066D006441FAD515F4806E11D005F480794BEA090B15F5B3
:20317000806554F1000428BF761C0BD205F400795BEA090B08BF25F4006525F4E0656D00E0
:2031900044EB0404B61CDEBF00210020BDE8FC8F5FF4E06E1EF1FF0E76450AD34FF0000074
:2031B00013F00043FF21C900C91D09051943BDE8FC8F270547EA1530210B41EA065141EAD5
:2031D000CA71BDE8FC8F70472DE9F04FADF1240D079001F011F95F48007807F033FD5E4D16
:2031F0000024012806D90C3804D0401E0ED0401E09D006E008F05EF8022804BF01210C1C9D
:2032100006D0696805E005211F2401E0032107246960524A1068C0F38150012806D152F8CE
:203230000C0C0127020E07FA02F0044308F09EFA05F1440AFF2253464018401E471C2860C5
:203250007F1E03F8012BFBD1079A1268002602F0FF03FE2B1DD0DDF81CC0964633460EF07F
:20327000FF07FF2F0ED0B84205D3B94203D80122BA40144201D0022069E016430EF0FF027D
:203290000AF802305CF804EF5B1C0EF0FF07FE2FE7D1092002F0A6FD07980121A86005F1C6
:2032B000280007F0DFFA00274FF0010BB9462846804600F198050BFA07F0044216D1064262
:2032D00004BF07F0FF0141F4C04104D01AF80700079951F82010224801F084FEF8B24FF022
:2032F000FF3107F0A5FDC5F8009001E004202860D8F800007F1C2D1D8742DCD904A808F044
:2033100015FA184C184A2078102104AB059008F10C0006F021FB684608F038FACDF80C906B
:203330006A4660681149029008F1640006F0CAFB0F4951F80D0C20F4F85040F4005041F82E
:203350000D0C0C4FC1F8FFBF4846C7F800B009B0BDE8F08F6F26002064150020B43F005007
:20337000007FC76744CF000009B10000699700000D300940080009402DE9F04F0746ADF1AC
:20339000140D0393002F02920E9801910F9C049000F0B680081C00F0B380101C00F0B08073
:2033B000181C00F0AD800498002800F0A980002C00F0AB80206A002800F0A280564D666A51
:2033D000281D0068002E00F09B80A16A08F092FD40B2002808BF6FF0020700F08D8084F8A3
:2033F0002C002078618800EB80000918143188B2216A88474749086030B92846406808F0BC
:2034100075FD4FF0FF3777E08B46628823786088DBF8001025789E1800EB010A701800F17B
:20343000040805EB450002EB4306851876186D18C01805F10C098018401800F11005204616
:2034500005F082FF2078C01C8010CAF800002078C01C8010C8F8000020780836C01C80101A
:2034700030602078C01C8010C9F800002078C01C80102860227839460AF1040003F08CFACA
:203490002278019908F1040003F086FA22780299301D03F081FA2378204641463246FFF792
:2034B000E9FA071C12D100955046414632464B4608F018FD47B22278039809F1040103F02B
:2034D0006BFA22780498291D03F066FA21786288DBF8000001EB81015218002104F018FB52
:2034F000616ADBF8000088470B48406808F0FEFCF8B2992808BF002784F82C70384606E08D
:203510001CB16FF0010084F82C006FF0010005B0BDE8F08F884F0020441B00202DE9F843C6
:20353000614C5A4D5A4EDFF870815E4F94F8E4100846401E0B2864D8DFE800F07B2C4306C8
:203550002343062343067664042907D001220A2945F8212C14BF0220032004E0202045F84C
:20357000210C0120024684F8E200002045F8390C0827C5F8FF7FC5F8F37F45F8392CBDE8C5
:20359000F883052914BF09200620002784F8E400376075E094F8E170383D0120002FC5F87E
:2035B0001B0004BF0620002102D00021F160032084F8E400032045F8010C316030688008F1
:2035D0005ED294F8E4103348012703290ED00068456800216022052300914046A84794F80C
:2035F000E400062814BF0A200720CFE700684568002160220523022000904046A8470420A4
:20361000C4E7FEE72548264F0026012506600E203D6002F02DFB022006F0A6FD84F8E45026
:2036300084F8E360BDE8F883002038600C25786024E04FF08059D9F8A001016820208847D4
:203650002C3D0F2045F8010C41F61D56C5F80360D9F8A401466800214FF4C07207230225A3
:2036700040460095B047D9F8A401C66800214FF4C07207234046B0470120386084F8E450DE
:2036900004F1780008F050FABDE8F88339400C4038600C40A401001000A00C402C500C4039
:2036B00004800C4034600C40781600200FB42DE9F04106AF8046ADF1280D08F0AFF93E1D49
:2036D00026F00306361D30F0010001D101F0D3FECDF81A601420ADF816000025CDF80E503D
:2036F000FF248DF818407B68CDF81E3008F0F6FB064608F093F930F0010016D007F07EFA95
:2037100084464D4806212A46483030F80C7F4FB143681B689E4204D0491E02F10102F4D174
:2037300000E0D4B2604607F0E4FE404606F002FD0146FF2905D0204603220DF11A0304F03B
:203750008DFC08F0CBFB07F035F8A8460746CDF8008008F063F930F0010063D0002F61D066
:2037700041F2883001A906F067FE009C002853D108F0B0FB0199012645187868019B41469D
:203790004FF0005208F0A2FB00282BD00DF122000DF1230102AA05F003F8B0B99DF82200D2
:2037B00003A906F0ADFC38B9029A08F019F900281CBF029C464615D10299684606F0E4FFE2
:2037D00078684FF0005108F07DFB0198B0F1FF3FD3D00028D1D008F07DFB281A02D00199F7
:2037F000814217D207F05EFC07F10805009F07F005FA01463FB13A4652F80C0C40B9286880
:2038100042F80C0C2F60084607F073FE304603E00246F1E70190B0E720B92CB1204608F04C
:2038300055F901E001F027FEDDF81A0000680AB0BDE8F04104B070478C1700207CB5534A50
:20385000534813785349002B73D05B1F08D01B1F012B51D99B1E012B6CD99B1E71D08CE0B6
:203870004D4C4E4D618801804D48286081B3491E33D0491E2CD040F20240091A25D0491E89
:2038900026D040F2FB30091A17D04FF44060091A1ED0491E19D0491E012919D9091F14D0E8
:2038B000491E15D0491E10D04FF47E70091A0FD0491E0AD0C91E08D011E041F206416180E6
:2038D000012003F0EBFB2530A073364828600CE0002007F073FC852005E08F2003E00020C2
:2038F00007F06CFC842008F0E9FABDE87C402E480078012102F05CB94A88028040F2044098
:2039100082421CBF41F2084082423ED041F60400824211D1254C264A256826480068002363
:20393000CDE9002355F8086F234B0222B0472349088073BD4A880280002007F03FFC8520E2
:203950001FE04A880280022A0DD940F20440121A1BD040F6FC70121A05D0083A15D04FF458
:203970007F70121AE8D1887B801CC2B2B52AA8BF662088730020488073BD002007F01EFC40
:203990008420BDE8764008F099BA73BD6F4F0020504F0020CC4C00209C4C0020204F002031
:2039B0000DBB0000797300006E4F0020F04E002002000080EC4E0020CDA80000424F002006
:2039D0002DE9FF415648017800293ED0052940F09F80544C2068016801F10807387810F074
:2039F0000F0F1CBF00F00F01062907D000F00F02022A1CBF00F00F0001281FD10622B91C9B
:203A1000684607F023FD3878474D484EC0F3801800F00F0001283BD1062207F1080102A8A5
:203A300007F014FD3F78FF0902A9384608F042FAD0B13068807C022818BF03286ED105F1DC
:203A50000D0102A806F058FD002867D031680120C8720622607940F00400607102A93068B7
:203A70000C3007F0F3FC13E02878874210D10622691C02A807F04CFA50B12878617960F375
:203A90008201617106223068691C0C3007F0DEFC6946404608F00EFA00283FD0606969468B
:203AB000001F08F003FAC8BB2946684608F0FAF93168897CFF281FD01D2250432E18002962
:203AD00018BF02290BD0012918BF032926D12A5C6069711C001F08F0E1F910281ED0606919
:203AF0006B46F21D3146001F08F0D4F906226946F01D07F0ABFC11E0002918BF02290DD11F
:203B10006069012342466946001F08F0BFF905E0002007F053FB862008F0D0F9BDE8FF81CC
:203B30006F4F0020D04B0020AC450020144F00202DE9FF4104466668A7680D4607F0FAFF08
:203B50003178012903D108F0DDF900208EE00121317008F0D7F9287870706878B070686877
:203B70007060A868B060E868F06028693061287D3075687D7075A87DB075A869B061287F5C
:203B90003077687F7077A87F4FF0000843461D4686F82851B07786F82951C6F8208033633C
:203BB00075627563B562B56386F82C5086F82D50786802F017F9204602F03CFF204602F055
:203BD00085FF60B9386807F023F9786802F050F807F0B0FF357008F095F92C4645E0684655
:203BF00007F0A4FD0094387B224A0190B9686B4606F17C0005F0B0FE684607F0C7FD0094F4
:203C10001D4938696A46029006F1980005F05AFFB07830B906F1CC00294606F023FE1748B5
:203C30003061707830B906F1E800294606F01AFE1348F060684607F0FDFE01958DF8005000
:203C50001049029406F582700A226B4605F082F9B969FA6906F13C0007F032FD0A4A06F102
:203C700068000421234606F029FF20460090BDE8FF81C0469D3C00000F880000B5BA000020
:203C9000ADBA0000C19400005DB800002DE9F84F8046D8F808603068D8F80450076CDFF8E2
:203CB00030B14764AB6B6A6C286C17F4F06F1946A0EB020934D1F8091ED2780974D3B1B169
:203CD00096F821205846801D845C601E814294BF1C1C641E4046214606F0E3FCA86B001BAC
:203CF000A86361D105F19800012107F03DFF4046494606F05BFF57E00029F8D0404606F08B
:203D1000D0FC95F82D10A86311B900284CD101E00020A86305F19800012107F025FF43E0E9
:203D3000F80A20D24FF0000A544602E0AB6B5B1EAB6393B14046012106F0B3FC3068446848
:203D500014F00F04C0F804A0F0D0286B401E2863686B401E6863A86BE8B905F19800012144
:203D700007F002FF13E0306844680022202904F00F044260CCBF4FF0200A9A4640465146FF
:203D900006F08FFCCAF120008145C8BF81464946404606F00BFFEC77404605F0AFFA726A2B
:203DB00012B1404621469047B8090FD3A96A69B10F46404606F0BAFCA86238B996F820204C
:203DD0005946895C4046C91905F08CF9BDE8F88FECCB00007CB54E4D044668680E4628B96F
:203DF0004FF00040002104F067FD6860002127A30A4606F0E6FD204628A3801E04D0801E9E
:203E100037D0401E22D00EE06868012E05D000210A4606F0D6FD24A331E000210A4606F000
:203E3000D0FD26A32BE0686800210A4606F0C9FD68680221002227A306F0C3FD01208DF899
:203E500001009DF801000028FBD17CBD686800210A4606F0B6FD68680221002223A306F0D3
:203E7000B0FD01208DF800009DF800000028FBD17CBD686800210A4606F0A3FD1FA36868B4
:203E90000221002206F09DFD7CBDC0463E3E3E535441434B20415353455254002A2A2A4519
:203EB00052524F522A2A2A003E3E20494E5445524E414C204552524F522100C03E3E2049C6
:203ED0004E5445524E414C204657204552524F522100C0463E3E2044454641554C5420531C
:203EF00050494E4C4F434B2100C046C03E3E204943414C4C2041424F525421003E3E204F16
:203F10005554204F46204D454D4F52592100C046080200202DE9F04F164607468846ADF17F
:203F3000740DB4681C93002C44BF0624B4600FF2F80A9AE80C0003F02AFB4FF000050FF2CA
:203F500008192CD90FF2E80B9BE80C00384603F0DBFA0FF2EC0A0BD937A20CCA03F0D4FA17
:203F70002ED09AE80C00384603F0CEFA02D310E09BE8800199E80C004146384600F038FFEA
:203F90009AE80C0003F0C0FAA5F1010507468846F0D399E80C0003F0FAFA02D910E09AE89B
:203FB000800199E80C004146384600F08AF999E80C00074603F0EBFA05F101058846F0D926
:203FD000009402A80B463A46019003A800F066FC04460298022809D1401E0290204607F0FF
:203FF00047FB6D1C0021001900F8011C28461C9D317B2A4604F084FFB268029920462B4651
:2040100005F06EFE204607F033FB02990122884203D13068000938BF002220462B4604F0C3
:2040300061F91DB0BDE8F08F000000000000F07F000000000000F0FF0000000000000000C7
:20405000000000000000F03F000000000000244078B50D46E80787B00BD507F0A7FB28B1C5
:20407000002181603C48006800B1804785F0010070E0E80413D53948C11D0D3007F002FF9C
:2040900037484268374800784FF4805105F000FB10B18E2003F040FC85F480505AE0A8051E
:2040B00005D507F036FC304901200860FEE7680504D501F0A4FF85F480604BE0680405D562
:2040D000812003F029FC85F4804043E0A90440D5264C206810B1002007F070F8244E4FF00E
:2040F000FF30206007F0CAFE3168224C51F8202F684690472049214B486A8A6A0090019280
:204110000293C86A0268086A0392ADF810000A6B1178002904BF5068002805D190680028E2
:2041300004BFD068002806D02170506860609168A160D068E06021463468114A26681148B6
:204150006B46B0471049086001F06CFA85F4005000E0002008B070BD204F0020AC45002041
:20417000784E00206E4F0020FC002043044F0020F04E002068450020E8190020ADB70000EA
:204190002C4D002008250020EC4E00202DE9FC4705466E68D5F8088037780FB1B76B1FB19F
:2041B0004FF0FF30BDE8FC8731630024F477171C74631BD006F13C0907F0BCFC82466946DF
:2041D000484605F0E8FB00281ED4504607F09AFE9DF80000316B0870306B736B7F1E00F17A
:2041F0000100306303F101007063E5D17078726B316B0128A1EB0201316303D1F368284653
:204210009847726B144659E0B763D8F80010086B40F400700863D8F80010886B40F4FA6062
:204230008863504607F06EFE06F5947006F0C0FE707806F5947768BB07F07CFC96F82D108C
:2042500069B1716B59B1B16B49B1B46307F05AFE06F5947006F09CFE706BBDE8FC8707F049
:2042700051FE716806F1E805284607F032FA0028F2D0B4632846214607F02BFA0028EBD0BC
:20429000384606F085FE1027716B306BF777401A3063E1E707F04EFC96F82D1061B1716B4C
:2042B00051B1B16B41B1B46307F02CFE06F19800012107F059FC01E007F024FE2046BDE8A4
:2042D000FC872DE9FC4191EA03084CBF4FF000484FF000084FEA03354FEA153556006D41A1
:2042F0004FEA43075FEA575711BF45F4001500210020BDE8FC814FF4E06E1EF1FF0E77454A
:204310006FD04FEA01334FEA133342005B414FEA4104640D11BF43F4001300210020BDE895
:20433000FC8174455DD0E41B002100205FF0360EAB4200D1B24205D340414941921B63EBA7
:20435000050301E040414941BEF1010E05D053EA020702D052005B41EAE7BEF1200F09D236
:20437000BEF1160F0CD3CEF1200720FA07F100FA0EF00FE0AEF1200E00FA0EF1002009E0CC
:2043900001FA0EF1CEF1200720FA07F741EA070100FA0EF011F4001F02D140004941641EA7
:2043B000401C51F1000111F4800F1ABF641C21F4800121F400114FF44077FF37E419DEBFDB
:2043D00000210020BDE8FC8107F58067BC4208D249084FEA300041EA045141EA0801BDE89C
:2043F000FC810020FF214FEAC101C91D4FEA015141EA0801BDE8FC812DE9FF47484C94F8B2
:20441000E700002876D13E4E01273C48F57C84F8E770736884F8E6500068C4F81031C0F315
:20443000801084F8E800684607F004FB002504F10C0001956B468DF80050324902952A4610
:2044500004F088FD304904F130006B462A4604F081FD2E4904F154006B4681462A4604F006
:2044700079FDB16838468847DFF8B0802848327D08F104030078284E1868C0F3815A22B15B
:20449000BAF1030F04D184F8E170BAF1030F17D0BAF1020F14D0BAF1010F0ED0022005F0B9
:2044B000FBFF1C480068016804208847012804D030683221B1FBF0F10DE005F099FB12E0ED
:2044D000022005F0E9FFBAF1030F0CBF4FF47A7142F210713068B1FBF0F1484607F022FB9B
:2044F000484607F021FB40460068C00802D2284605F0D2FF00200090BDE8FF871410094005
:2045100060CE0000EB720000B16400008D7F00006F260020E00100105C260020B03F005058
:20453000781600202DE9F84F5FEA00091C46924600917DD0081C7BD0BAF1000F78D0002C59
:204550007BD0206A002873D03F4D616A281D006800296DD0A16A07F0CDFC40B2002808BFF5
:204570006FF002055FD084F82C002078618800EB400009180C3188B2216A88473149AB46E5
:20459000086030B9DBF8040007F0B0FC4FF0FF3549E08846668865882178D8F800008F19EA
:2045B0002D183F1806EB41063618204604F0CCFE2078C01C8010286020783F1DC01C8010B9
:2045D000386020780836C01C8010306022784946281D02F0E1F928463A463346014607F082
:2045F00049FC45B2227800983B1D194602F0D4F922785046311D02F0CFF921786288D8F83C
:20461000000001EB41015218002103F081FA616AD8F800008847DBF8040007F067FCE8B22E
:20463000992808BF002584F82C502846BDE8F88F1CB16FF0010084F82C006FF00100BDE851
:20465000F88FC046884F0020441B0020F0B5484D05F108012846ADF11C0D04F0CBFC05F128
:2046700014040021204607F001FC4FF080400021EC6004F021F93A4E384C6860022264239E
:204690000820314660701020FFF710F81020032264233146FFF70AF83248A06005F0FCFCBB
:2046B0000246607800260090022301962E49029610200396FEF7FAFF6868314623A30A4635
:2046D00006F07FF906F04AF8A868284A31464FF0FF3307F0FBFB071C17D0049605A80DF17E
:2046F000160104AA05F05EFE78B9BDF81400102807D128789DF81610884202D10498FCF703
:20471000C7FB049808B107F0E1F9F80FDCD3E86807F0A8FB0028D7D1E868044607F09EFB07
:20473000844208BF341C02D0846805F0CFFC002CEDD02088012805D16068FCF7A9FB606857
:2047500007F0C4F9204605F0C1FCE0E7424C45204F6273657276657200C046C07013002012
:20477000A998000068CF0000E5AB0000400000C0080200202DE9F041FF2807461ED107F056
:2047900005F910F0070F16D0042005F08BFB08B104200AE0012005F085FB08B1012004E055
:2047B000022005F07FFB20B10220BDE8F04105F095BB06F003FD0020BDE8F08105F08EFBA0
:2047D0008046012FD8F80450334E04D0022F29D0042F3DD0EFE7022005F064FB80B1022051
:2047F00005F07CFB074601207C6805F05BFB28B1A0683118A86807F02DFB88B13846DBE7CE
:20481000042005F04FFB28B1042005F067FB0746012026E0012005F045FB08B94FF00008FF
:204830004046C9E7042005F03DFB28B1042005F055FB0746022014E0012005F033FB28B11F
:20485000012005F04BFB074602200AE00220E2E7012005F027FB88B1012005F03FFB07469A
:2048700004207C6805F01EFB0028C7D0A0683118A86807F0EFFA0028C0D1D1E7022005F08A
:2048900011FB30B1022005F029FB074604207C68E8E70420BFE700BF589EFFFF2DE9FE4FDC
:2048B000804608F101043020924699461946DDF834B001940C9F88F80000104637A20CCA40
:2048D00002F022FE38BF89F00049002612E0302008704DE095E80C0000F08AFA761E894690
:2048F00082460FE095E80C005046FFF7EAFC761C894682462DA20CCA494602F048FE29A593
:20491000F0D37F1C25A20CCA504602F0FDFD05D028A20CCA504602F0F7FDDBD3504604F0E1
:204930007FFD2146009004F0C1FABF1931182418002FCBF8001016DD009805F0C9FE0B464E
:20495000024649465046FEF763FB95E80C0000F04FFA8946824604F063FD009030307F1E4D
:2049700004F8010BE8D114F8010D352810DB214611F8010D401CC2B23A2A0870A7DA88458C
:2049900006D1DBF80000CDF80480401CCBF80000002101982170BDE8FE8FC0460000000072
:2049B0000000000000000000000024400000C0FFFFFFDF41000000000000F03F2DE9FE4320
:2049D00005F0A8FADFF80481814608F1020000880027001F84B2042C5ADBFF254FF6FF76CB
:2049F00020466946042205F0F7FCBDF800309E4237D0002B35D0D80BC2032FD19D422DD004
:204A1000381FDDB280B2042815DBB0F5805F12DA00F18852126801A90A60BDF804108D42F1
:204A300007D0BDF80610401A001F80B20428ECDA01E0012300E00023BDF802001BBB211A57
:204A5000001D8BB282B207F18851184605F0C4FCBDF80200C119091D8FB214E0BDF8020031
:204A700011E0BDF8020003466FF30E0363B9011D8C4208DA002006F0A1FB484606F090FB17
:204A90000020BDE8FE83241A241FA4B2042CA7DA04F0DCFD3FB10C484FF088513A4606F099
:204AB000CEFF06F0A3FE484606F07AFB4246507800281CBF0020011C03D1C7F58054391D3F
:204AD000A0B25180BDE8FE8304E00100C01C002042492DE9F0418B880868ADF1400D1A1230
:204AF000010E009103F0FF03C0F307410191C0F3072100F0FF0002912CA103900DF11A00AF
:204B100005F02AFD364CA378002B41D004F1B0060027354606F10608361D606806F0E7FE48
:204B30000DF12A000021102202F0F2FF0DF12A004146102201F030FF05A80021042202F020
:204B5000E7FF296805A80222016006A8002102F0DFFF318806A801800DF11A0300930DF169
:204B70002A020192BDF8180002900598039095F9160004906068002113A30A4605F021FF9B
:204B9000A3787F1C08F11708173617359F42C4DB172204F1B00000215A4302F0B9FF0020B8
:204BB000607010B0A070BDE8F081C04625303278253032782530327825303278253032782E
:204BD0002530327800C046C02573202573202530327825303278202564200A00E812005075
:204BF000080200202DE9F04391460A68D9F800401678804600271D463846ADF1140D531C4E
:204C1000242E0B605BD112F8016F5B1C4C2E0B600ED1AA68E41C24F00304241D54F8040C1C
:204C3000414603F08DFD2968EF600127091A2960462E1AD1E41C24F00304241D54F8040C95
:204C5000E41C029024F00304241D54F8040C002741460390AA68ADF8047001A801F028FBD1
:204C70002968EF600127091A2960532E27D1E41C24F00304241D54F8040CE861C9F80040F5
:204C9000288B0090A968EA69D8F800004B46FCF7D7FCD8F80040002754B1A968002902DDE1
:204CB0008142D8BF481ED8F800100918C8F80010D9F800402968EF600127091A2960662EFA
:204CD0000AD12B8B23B9E41D24F00704083403E0E41C24F00304241D1FB9E9690E700127EC
:204CF000EF60C9F8004005B0BDE8F0837CB53F4E3168054600240020E1B12A78012A0BD067
:204D10002A7A05F109036946012007F09FF800B104782978042913D03268517803290FD033
:204D3000002908BF002C0BD020B1012904D114F0030F05D1002076BD0229FBD1E007F9D5B1
:204D50006878A91C04F068FA0400287826D0042814BFA068E06880B32A7A017891420CD15F
:204D700005F10901401C06F0D3F8012805D1232006F030FB002836D0DCE72878042806D010
:204D9000A068D0B106F02AFD0020A06015E0E06898B106F023FD0020E0600EE00428C9D08E
:204DB00005F0A2FD0400C5D028782070062269786170A01CA91C06F049FB287A401C80B2C1
:204DD00006F0FCFC60B12978042914BFA060E060297A00F8011B05F109012A7A06F036FB61
:204DF000287A0028A6D0012076BD00BF984E00202DE9FC4191EA03084CBF4FF000484FF0A0
:204E100000084FEAC32545EA52554FEAC2264FEA43077F0D11BF45F0004500210020BDE823
:204E3000FC815FF4E06E1EF1FF0E774555D04FEAC12343EA50534FEAC0224FEA4104640D50
:204E500011BF43F0004300210020BDE8FC81744543D0E419A3FB0501A3FB06E7A2FB06639B
:204E70001EEB030E57F1000751F10001A2FB05631EEB060E57F1000751F10001FF1851F169
:204E90000001C01951F100014CBF4FF4806E4FF4007E10EB0E0051F1000148BF641C01D440
:204EB000400049415FF44077FF37E41BDEBF00210020BDE8FC8117F58067BC420DD24FEAD0
:204ED000D02040EA41504FEA41014FEA113141EA045141EA0801BDE8FC810020FF21C90042
:204EF000C91D090551EA0801BDE8FC81FEB5364C206806F0A7FF002864D00079032861D1BD
:204F1000324D0DF10900A91D019000910DF10A032A4602A90DF10B0000F022FD2C490878E0
:204F3000D0B19DF80800294606F0C4FFA0B1294E3146284606F0B6FF0746FF2F0CD01D202F
:204F50004743F1190622491C284606F07FFAF05D40F002008DF808001F480068C17C012901
:204F70001FD1807C002818BF022810D11B4E9DF808202946304606F061FF1F2811D19DF80C
:204F9000082000232946304606F080FF09E0012818BF032805D19DF808201148294606F0F7
:204FB0004DFF9DF909009DF80A300190A91D00912A469DF808109DF80B0006F03BFF2068CA
:204FD00006F034FFF7BD00BFD04B0020AC250020784E0020AC450020144F0020A84800206F
:204FF000CC4700202DE9F84F0C4605465FFA84F8200824BF3148444031494FEA8803C85839
:2050100084EA00022A40C2F300672E4A05EA0406A843324005F4E0260243B6F5E02F01D1EC
:20503000500E14D305F4E020074310D002F4E027B7F5A02707D0B7F5803704BF22F4003243
:2050500042F4A02203E022F4803242F4C022DFF878B01E4F012000FA08FACBF800A0DFF8C2
:205070007090CA500146386801FA08F60027064218BF0F1C37B9E80D04D34946C4F38050E3
:2050900001F80800280E0DD306F054FD210E34BF0021311C0D4A1268B24311430B4A116032
:2050B00006F030FF37B1E80D04D34846C4F3805100F80810CBF800A0BDE8F88F006000A052
:2050D00000100840007F077FE0200260D0200240002002402DE9F843384C143C606F656FA5
:2050F00004F17409002866D00646F06840F603020827531C02E040687F1EFFB260B15FB15A
:2051100001888A4218BF8B42F5D131694CC820314CC189C881E8890005F1280090E80C00CF
:20513000002705F12806B84686E88001A96879B138464FF0E24100EA020611EA03070EBF48
:20515000002E02400B40AE682869B5F93C10B04706F0F0FC0646B4F986004746401C6FF340
:205170001F30A4F88600484685F83F7005F01DFE304606F0C7FEB4F984106068B4F9863047
:205190000246994217D192F8701000290CBF0068381C82F8707060B1B0F1FF3F0BD00849C4
:2051B0000968AC34B0FBF1F1204606F0C3F9BDE8F88305F0AFFFBDE8F883C046041D0020BF
:2051D0005C260020F8B506F0A4FB03F0F5F806F0B3FB054605F00C000C2854D0E80826D2CB
:2051F00005F0AEFB2A4E376804460120014605F02DFF31686143884219D22649F020B0FBFB
:20521000F7F0241A887C18B1C868A04238BF041C214D2146284606F005FE284606F0FEFDC8
:205230000120FDF7FBF8284606F0F4FD2DE0280929D21A4CA4F12006206881681848884707
:205250000746042FF8D01748690905D227B101460A6822F0010203E001460A6842F00102D7
:205270000A6098310A6842F003020A6030688169202088470C4C37682068B86B80470120BD
:205290002060206801E006F045FC06F048FBF8BD90CF000060CE000084160020D8010010C0
:2052B000004003408C2108402C2009402DE9F84F374E0446B0688047344D05F108021168CC
:2052D00009191160F1688847286800285BD0A9464FF0000807463546C246A86880475646A7
:2052F0001FFAA4F3834683B95FFA94F36BB93979E0B2884204DD79682046884209D20AE020
:205310003879E1B2401A387108E079682046884201D3314601E07968091A7960B88878B9C3
:20533000FB8853B9FB6843B13B8933B1B87A194600F03EFCF8687860B88808B9FB880BB19C
:205350003B896BB9B8F1000F04BF3868C9F8000003D03868C8F8000038683E46074601E0F4
:20537000B8463F68E9685846884756B1B08828B9F08818B9B07A318900F01AFC304606F0FB
:205390002DFA002FA9D1BDE8F88FC0461C2600208C1700202DE9F04707467D68BE6890465B
:2053B0008A4606F0C7FB81463068006B00F48071287800B119B1484606F0A4FD57E005F535
:2053D000827006F0B3FB0024EC77C5F820A06C623168086B40F480700863484606F092FDA7
:2053F00005F2291005F0E4FD4146384605F09EF905F22919A862A8B93846414603F072FEFA
:20541000A878D0B9A96805F1CC0006F062F9E8B1AC621020E8773146284602F0FFF905F2B3
:20543000291022E006F086FB3268916B41F02001916306F067FDA87810B12046BDE8F08711
:20545000A96805F1CC0006F044F910B9686ABDE8F0873846414603F045FE1020AC6231468F
:20547000E877284602F0DAF9484605F091FD4FF0FF30BDE8F087FEE72DE9F843DFF8C8809A
:205490000546D8F80000002600285BD02F4F7968387808B1002955D028464DB905E00201F6
:2054B0008B5CFF2B18BF761C401C3A789042F6DB3006400D083080B205F00CFC040005D1ED
:2054D000082005F007FC0446002613257CB3D020207065700121A170E670F0B200B304F19D
:2054F0000809C4F8049000253878854219DAF0B2B8B1796828010A5CFF2A0ED0084489F85D
:2055100000200622417889F80110761E811C09F1020005F09BFF09F108096D1CEDB2E3E72F
:205530006060D8F800201078214605F011FD3878002102F06DFAD8F8000006F04FF9002061
:20555000C8F80000BDE8F183984E0020D41B00202DE9F8430446994690460E1C44BF0020B0
:20557000011C5AD406F0FCFA05468021304604F0ABFF071C04D097F83F1031F07F0106D197
:20559000284606F0BBFC02200021BDE8F8834FF0E0400A2107F1200640EA090941EA08085E
:2055B00096E8030008EA000019EA010608BF00281CD0284606F0A2FC07F1200003C804F1A9
:2055D000680604F1680508EA000809EA010986E8000395E80C0007F1200696E8030007F163
:2055F00020059943904385E8030013E00C48B968884202D0B9682166B86004F1580080E8DE
:205610000003284606F07AFC04F138004FF0FF3106F05FF8683494E80300BDE8F883C04673
:205630004D8B000038B5244C244B2568186855F8183F00224FF0FF3198472148214A416B15
:20565000214C88684179117006F0E0FB1F4806F0D9FB06F0D3FB1E490A680020507104F02E
:205670006DFA1C48D02130220023017042708370C370037143718371C37106F0BBFB164945
:20569000164B0020087018801B201549154B08804FF4A47214491A80FB20088040F6480077
:2056B000124A13491080FB230B80208006F09EFB10490020087032BDF04E0020EC4E002022
:2056D000A8CF0000714F00204E4F0020CC470020144F002048260020794F0020524F0020B9
:2056F000444F0020464F0020484F00204A4F00204C4F00206F4F002038B50D461446C5F3D7
:205710000A51A9B925F00041014308BF291C43D022A20CCA2946FFF76BFB2A4A0D46C5F31F
:205730000A51A242A1F13601C4BF291C1DA21FDC40F2FF728A4205D1294602460B46FDF78E
:205750006CFC38BD0919521E8A4219DB0029C4BF6FF31E5545EA01511EDC11F1360F0BDD5F
:2057700001F13603294613A26FF31E5141EA03510CCAFFF73DFB38BD4CF25030A04201DA06
:205790000AA400E00DA406F085F92221016094E803002B4606F018F938BDC04600000000B0
:2057B0000000504359F3F8C21F6EA501000000000000F07F000000000000903C00000000D2
:2057D00000000000B03CFFFF2DE9FE4F894605460CAF97E803001E4601919046009006F0C3
:2057F000A9F92B4F6FF0010A8346082007F5D07494F83F3033F07F033ED107F1AC0006F099
:2058100095F9B7F98400401C6FF31F30A7F88400C4F80C9084F83E80A660B7F88400009A21
:20583000A0870198022320211343002242EA000616482561314004F118061840134686E801
:20585000030004F1200686E80C006363214623634FF0FF36A663802284F83F2007F16C008F
:2058700085F8703005F0B2FAF86E844201D102F037FFB4F93CA003E0401E04F14004B7D1A9
:20589000584606F03FFB5046BDE8FE8FFFEFFF9FF01C00202DE9FE4FDFF8C08098F8990106
:2058B00000284FD0002501212C4698F8992101FA04F0104203D1641C032CF6D342E098F84F
:2058D00099211020A040104218BF0D1C06F032F998F899211121A1408A4388F8992106F021
:2058F00011FBE0B205F0A6FE60B3877A57B390F9099019490768012D446851F8296001970C
:2059100010D0017A02290DD100F1100191E8000C00274FF0805317EA0B0703EA0A0108BF81
:20593000002901D101F03AFF012D04D0009600224FF0006303E000224FF0007300920198F4
:205950004946A04798F8990120B108F58270002106F00AF9BDE8FE8F94300440F01C002057
:205970002DE9F8430F462F490446086890461D4606F068FA814699F8040003281CBF00202C
:2059900005F01CFC99F80860B00900F00100387009F10A0799F80910881F2870C0B22028F1
:2059B000A4BF002005F00AFC062017F8011B08F8011B401EF9D106F00F06062E14D8DFE8D2
:2059D00006F00E040B1310130D0001212170BF1D2A78901F28700CE0032103E00220207044
:2059F00007E00421217004E0FF202070002005F0E5FB0898002104E017F8012B00F8012B6E
:205A1000491C2B78CAB29A42F6D33978802918BF81290FBF7F21044A1078091A09980170F9
:205A3000BDE8F183D04B0020704F00202DE9F04116468846044606F07DF807462A48832596
:205A5000B8F1080F32D8DFE808F0463F3C313725150533C00446207CD0B9E06EC0B9316883
:205A700004F1D00006F082F8316804F5827006F07DF832E00446207C50B9E06E40B9316811
:205A9000192006F05FF831681A2006F05BF824E0002522E0306828B1012807D1802004F023
:205AB00091F91AE0802005F051FB16E0032514E030780E49087010E0316804460C34216054
:205AD0000BE03088608208E00120E668607406F16000E06001E030682060384606F012FAF6
:205AF0002846BDE8F081C046F01C0020881E002038B5274C0D46A80839D2E80846D32B4830
:205B100054380068006B8047A060E06E00280EBF60680069606040681E490078086002200A
:205B300004F0BAFC112000F05DF90120207460684168886808B9C86810B1174805F01EFEFC
:205B50001649174D072000230860296815482B606A686B60144B2A68636140EA02011A208E
:205B7000296005F0E9FF192005F0E6FF38BDFFF7B1FA204600F17401096811B902F0B0FD60
:205B900038BDD03045F0020105F0EEFF38BDC046F01C0020D02108405100070600000460C4
:205BB00014100440020000406D2C0000E00100102DE9F843DFF8B0802A4E81460C4639F08F
:205BD0007F0018D1B9F1050F12DA284DA86880472349096831F81920144321F81940E968FE
:205BF0008847306841461431426A0868904734E00320BDE8F883042005F06CF8071C08BFB1
:205C100004202BD04FF6FF7038807C8005F000FF41468C78A7F10C05FF2802D0896A0918B8
:205C30004C79FF2C08D1384605F082F93068806880470120BDE8F883484605F099F9336865
:205C50000146FF20A8721D68002220463B46A84718B1384605F06CF9EBE70020BDE8F88384
:205C700060260020D01C0020181B00208C1700202DE9B043044605F05DFF81462748221838
:205C900092F8F010491ECFB2002F82F8F0703FD1254901EB84014A880C78904634F07F07B4
:205CB00018D1E1090FD24FF0805000F5DC75D0F8B8018169104688472868416B40468847AA
:205CD0000228F9D11EE000EB8800D0F804110020884717E04FF08055D5F8B801016A104631
:205CF0008847D5F8B801816A40468847D5F8B801016B404688470A4901200860094908681A
:205D10008008FCD304F03F00132801DAFFF7B0FF484606F0F7F80020BDE8B0837816002015
:205D3000282008602820084004CB0000294838B5001D0468B4F1FF3F08BF002404F050FD4E
:205D5000032833D12448254B002501211038184A056003F15C00224B0160181D00681160A6
:205D7000806C80471348006820B113480068204601F04CF9114812490560124C0A686FF322
:205D90005B4244EA020008600F490868C0F30130012806D10A680D48104040F400320A602B
:205DB00008600B4908680028FCD138BDFEE7C0460822044380012843000120438C2108401C
:205DD000482003400000390104000940FFFFFCFC0C006842181300509404604200600C4074
:205DF000EC010010F8B5064605F0A4FE264D0746711991F8F000421C002881F8F0203ED125
:205E1000224C04EB8604267806F03F00132801DAFFF7E8FF648836F07F0018D1F0090FD271
:205E30004FF0805000F5DC75D0F8B8014169204688472868416B204688470128F9D11EE03B
:205E500005EB8405D5F804110120884717E04FF08055D5F8B801C16920468847D5F8B80171
:205E7000416A20468847D5F8B801C16A20468847074901200860074908688008FCD33846DE
:205E900006F040F80020F8BD7816002004CB0000282008602820084030B52648244908600A
:205EB0002548ADF1140DFDF78FF924480468244800680023D9070246206050080143D00740
:205ED000801A4FF47A729941002300F0E3FE002908BFB0F1004F28BF6FF000406060194C90
:205EF0000025032004F1240141F80C5F401E8D60FAD104F154010620401E21F80C5BFBD15C
:205F100001F0ECFE626810480392416801910368009381680291684602F052FB03F05AFDF3
:205F300003F0B2FD05F05EFF284605B030BDC046C41C0020E53D0000D8CA0000101C002037
:205F500090CF00008C17002048CE00002DE9F843089C582B804617460CBF1FA523A50029DE
:205F700008BFB8F1000F05D12068411E2160302707702AE04FEAE7793E460246083E13D0EE
:205F9000083E0DD0002908BFB2F1FF3F04D94B463A4600F07FFE0BE0B2FBF7F0002107E01B
:205FB00008071209090902E04807D208C9081043226800FB1783561E0029EB5C2660804617
:205FD000137008BFB8F1000FD6D1206805F050FB401EBDE8F883C046303132333435363720
:205FF000383941424344454600C046C03031323334353637383961626364656600007047AC
:206010002DE9F04114460F4605F0E8FE1FFA80F824480068007808B905F0DEF80FB33868D4
:206030004FF0FF3518B140280AD3810B08D17E681EB1310A04D0310E02D1B9680F2908D95A
:206050003DB10CB1284620700820FFF711FE002422E04FF08055D5F8CC11BA680B68796800
:2060700008E04FF08055D5F8CC01036801224FF48070014698470C49012008600B4905F567
:20609000E67508684008FCD328684168022088470CB1002121700446404605F033FF204618
:2060B000BDE8F081B4CA0000A8025042088002402DE9FF41284B4768866814460D4601A87A
:2060D0001A68998802609B798180A5428371A8BF2C1CB168786805F0FCFA78BB4FF00008AE
:2060F000CDF80080F068318A6D1C16A22B4605F0B9F8A41C0246AC4213D9641BF06801A97D
:206110000B688018036089888180308A921D801A082804D23868F16805F0AAFC4246641E48
:20613000ECD1F0680BA10988801801803868F168921C05F09DFC786805F00EFD0090BDE89A
:20615000FF81C0461B371B5B3130721B5B25643B256448001B3800C054CF00002DE9F84F70
:206170001F468B46161C14BF4FF080484FF0005805F0E0FCDFF884A0002503248146BBF1AB
:20619000FF3F06D15046C36F002B0CBFC06EC06F03E05846294604F097F940B390F83F4051
:2061B00034F07F0422D05446E16F81420DD001463A4602F051FEC8B1207C012814D004F18D
:2061D000D000022105F0D0FC0EE043462A4603F03DFC002E14BF0A480A4804F05BFC1FB128
:2061F000E16E3A4602F038FE832400E00424484605F088FE2046BDE8F88FC046F01C00201C
:2062100001000204010001042DE9F0410646B76875688846ADF1280D684605F093F80024DF
:206230008DF8014078680690012004F031FB6860686840B103F0D0FA3878694603F0ECFA53
:206250002860286808B9264617E00421224605F00AFC98F80000401E08D0401E04D0401E14
:2062700014BF201C07A002E008A000E009A0A86028680AA1122205F0FBFB30460AB0BDE80E
:20629000F081C0461B5B324B00C046C01B5B304B00C046C01B5B314B00C046C01B631B5B5B
:2062B000324A1B5B3130721B5B31313B314800002DE9F843002A8946074604D4B2F5004F18
:2062D000B8BF95B201DB47F6FF75002F08BF002034D03888002808BF002403D02A4600F043
:2062F0008DFC84B2AC4228D0388830B1291B484613A203F0EFF9001984B2B868E8B17E68F8
:206310008EB1304605F0B4F9A5EB0408401D1FFA88F1884207D833464146484609A203F0B6
:20633000D9F9001984B2291B122906D3BB68484606A203F0CFF9001984B22046BDE8F883EB
:206350003A2000C0222573222C2000C06C696E652025643A200070472DE9F047DFF898A06D
:20637000DFF89080002501244FF002091126E8B205F060F9071C37D0B87A012834D197F959
:206390000900AAF11401113004FA00F0C2430A604A681043486097F9090004FA00F0C0B2F0
:2063B00004F0D4FE07F11000002104F045FA0146812909D1B86918B1002104F03DFA014663
:2063D000812908BF87F80A9081290DD008F2991197F909000A7806FA00F01043087008F525
:2063F0008270002105F0C0FB6D1C032DBFD3BDE8F087C046F01C00201C1004402DE9F0417A
:20641000904606460F1C08BF05243FD036F07F0003D02248006880688047052EA8BF032466
:2064300007DA57F80C0C18B917F8020CFF2804D00524384604F07CFD28E007F8026C154C31
:20645000154DA068B8F1010F13D080470246002047F80C0CA868002808BFAF6005D0014676
:2064700051F80C0C18B941F80C7C104606E00146F6E78047A96847F80C1CAF60E168884753
:2064900030464FF40041FFF793FB00242046BDE8F081C0468C170020181B0020D01C0020A6
:2064B0002DE9F04105F046FB244D214E804605F1E000007848B93446A16802208847074699
:2064D000102003F0EDFE77B31BE005F035FAC0091BD21B483C380068C4681648342101225E
:2064F0000023A04788B101F025FE34460020A16885F8E000022088470746102003F0D0FE06
:206510008FB1A168032088470DE00B4800683221B1FBF0F101B901213035284605F002FB07
:20653000284605F001FB404605F0ECFCBDE8F08160CE000000A00C405C2600207816002009
:20655000E00100102DE9F0410E46071C14BF002E002040D0224C4FF0FF3104F1280080468B
:2065700005F0B7F83078FE2811D022680021FF2808D082422AD31F2828DA04EB8000D0F8CD
:2065900098501DBB491C16F82100FE28EFD1002038607860B8603078FE2818D00125FF2806
:2065B0000FD01F280DDA7B6804EB800105FA00F0C1F898701843094978603268384603F02B
:2065D000ADFB16F8040FFE28E9D100E00027404605F0C2FA3846BDE8F081C046007FC7677D
:2065F00064150020F0B520480127F84201D002F039FE204D204F214EBD4206D203CD04781B
:20661000A4003459401CA047F6E71D48002800D08047164D164FBD4202D210CDA047FAE7B5
:20663000F0BD03251BE0416808300A1C2A400BD11A1C2A40AB4305D0046804300C60043189
:20665000043BF9D1131C05D0047801300C700131013BF9D1021C2A4001D0A84304300368D9
:20667000002BE0D17047C046FFFFFFFF0000000000000000ECD2000054D30000A4D200001A
:2066900015C4011022482DE9F0410068806980472049234D0F686E68B7F57A7F17D0002164
:2066B000801B3A4688460B4604F0DCFE4FF47A72002300F0EFFA04464FF47A72002304F007
:2066D000D1FE3A46434600F0E5FA301800E0841B6860124D05F10800006880470E4E3168F3
:2066F00072680919B1F57A7F0AD34FF47A73B1FBF3F7D2197260B1FBF3F707FB03F2891A5F
:206710003160E96888472046FEF7D0FDBDE8F081D01C0020301B0020341C00208C170020D0
:206730001C2600202DE9FC4792460D46826844689168D768B2F810806068994604F0C9FFF8
:206750000028504632D1FF2D10D0401CA8F102016B1C009016A2384604F084FD0646A0684E
:2067700028B10168F019361D016000E000260A9BA8EB0601F0194A46891E05F0F9F9FF2D72
:20679000064406D10D22701C0A21BA55461C395404E00BA00188F519B61C2980206839463C
